:100000000C9488000C9489120C94B8120C94E7128A
:100010000C9416130C9445130C9474130C94A313A2
:100020000C94D2130C9401140C9430140C945F149F
:100030000C948E140C94BD140C94EC140C941B159D
:100040000C944A150C9479150C94A8150C94D7159A
:100050000C9406160C9435160C9464160C94931696
:100060000C94C2160C94F1160C9420170C944F1794
:100070000C947E170C94AD170C94DC170C940B1891
:100080000C943A180C9469180C9498180C94C7188E
:080090000C94F6186A4E6F4E45
:100100000000000001821F210C277B0170DFD9FD58
:1001100011241FBECFEFD0E1DEBFCDBF11E0A0E0C4
:10012000B1E0E2EEF0EA00E00BBF02C007900D92F2
:10013000A838B107D9F71AE0A8E8B1E001C01D92CC
:10014000A73AB107E1F73C9A3D9A449A459A2DE0C7
:1001500088E190E00FB6F894A895809360000FBEF8
:1001600020936000259810E0C6E9D0E000E006C0CA
:1001700022970109FE010BBF0E94F74EC439D10737
:1001800080E00807A9F70E9426240C945F50000124
:10019000000200000003000000000000000000005A
:1001A0000000000000008D8C8B8A0706050400000B
:1001B000000000000000000000000000000000003F
:1001C000000000000000000000000000000000002F
:1001D000000000000000000000000000000000001F
:1001E00000000000000000000000000000008988FE
:1001F00000000300000000000000000000000000FC
:1002000000000000000002000001000000000000EB
:1002100000000000000000000000000000000000DE
:1002200000000000000000000000000000000000CE
:1002300000000000000000000000000000000000BE
:1002400000000000000000000000000000000000AE
:10025000000000000000000000000000000000009E
:10026000000000000000000000000000000000008E
:10027000000000000000000000000000000000007E
:10028000000000000000000000000000000000006E
:1002900000000000000000000000000000000895C1
:1002A0000895FC0184858F3F11F08F5F8487089546
:1002B0002FB7F8943FB7F8948091BA019091BB01A1
:1002C0009F779093BB018093BA013FBF2FBF0895E2
:1002D0008091AF018970893031F010928E0181E0F8
:1002E00080939301089581E080938E0108953F9259
:1002F0004F925F926F927F928F929F92AF92BF9236
:10030000CF92DF92EF92FF920F931F93CF93DF93E1
:10031000CDB7DEB72A970FB6F894DEBF0FBECDBFBC
:100320009A878987FB018081982F94749434D9F43B
:1003300085FD19C08580B82CBB0CBB0804811381D6
:10034000A985BA855F968C915F97882321F1909655
:100350001C93909791960C93919792968C9292976A
:100360009396BC9293972A960FB6F894DEBF0FBE71
:10037000CDBFDF91CF911F910F91FF90EF90DF9054
:10038000CF90BF90AF909F908F907F906F905F9035
:100390004F903F9008955696ED91FC915797549643
:1003A0008D919C9155970995292F30E0C901880FAF
:1003B000991F220F331F220F331F220F331F820F6B
:1003C000931F62E170E00E94934E362EB3E0B617A1
:1003D00008F0D7C0A62EE0E1E61710F420E1A22E27
:1003E0004A2C552466247724C12ED02EE82CFB2CD1
:1003F000A985BA855A96ED91FC915B9758968D9197
:100400009C9159970995DC01CB01C81AD90AEA0ACF
:10041000FB0AC601D7FCD6C08F3F910509F00CF44A
:10042000BAC081E0E985FA85868FCC0CDD1CEE1C14
:10043000FF1CCC0CDD1CEE1CFF1CCC0CDD1CEE1CD0
:10044000FF1CCC0CDD1CEE1CFF1CC701B601A30178
:1004500092010E94DC4E29833A834B835C83C980DE
:10046000DA80D7FCB3C0EE24D7FCE094FE2CB2E7D0
:10047000CB16B1E0DB06B0E0EB06B0E0FB0608F01F
:1004800088C0C701B601A70196010E94744E4B01B6
:100490005C010E94744E6D837E838F839887C501B3
:1004A000B40120E43CE940E050E00E94744E2B018E
:1004B0003C016D817E818F8198852CE630E040E0A3
:1004C00050E00E94744EDC01CB01481A590A6A0AB6
:1004D0007B0AC501B40124E833E040E050E00E940B
:1004E000744E4B015C01C701B60120E935E640E0DE
:1004F00050E00E94744EDC01CB01881A990AAA0AC6
:10050000BB0A80E09AE6A8E1B0E0880E991EAA1E18
:10051000BB1E8D819E81AF81B885880F991FAA1F50
:10052000BB1F881A990AAA0ABB0AC301B201A50116
:1005300094010E94BA4E89819A81AB81BC81B7FD3A
:100540004AC0422F552747FD5095232D30E0429F4A
:10055000C001439F900D529F900D112497FD3DC007
:10056000082E892F000C881F990B000C881F991FDB
:10057000A985BA855C968C935C975D961C925D9775
:10058000F2CE84E0482E512C612C712C94E0A92EDF
:100590002BCF80E0EDCF90E082959295907F9827C9
:1005A000807F98276A2D70E00E94A74E81E06F3F00
:1005B000710509F00CF480E0A985BA855E968C93EC
:1005C0005E9733CF909581959F4F26CFD094C1945D
:1005D000D108D39448CF2195B4CFCF96C1CFFC0199
:1005E00087A9882331F017AA80916E008D7F8093B0
:1005F0006E000895109226010895FC0141815281F8
:10060000638174814F5F5F4F6F4F7F4F4183528390
:100610006383748378940895FC0186818430F1F0BB
:10062000853059F18630B1F1873019F08F5F8683BC
:100630000895A081B181AF70B070AE59BE4F8C915A
:100640008093CE008091C9008F7DA8ECB0E0119618
:100650008C93119786818F5F868308952181822FE5
:1006600082958F7090E08E599E4FDC018C91809323
:10067000CE0086818F5F86830895A181B0E0AF7040
:10068000B070AE59BE4F8C918093CE0086818F5F43
:1006900086830895A081B181B295A295AF70AB27F2
:1006A000BF70AB27ECCFDC01D396EC91D397F0E091
:1006B0003896EE0FFF1FE80FF91F0190F081E02D33
:1006C000848595850895FC0162817381848195817B
:1006D00008958091DC009091DD0080FD19C020918B
:1006E000ED001092ED0080E090E0A0ECBAE1809384
:1006F000F0009093F100A093F200B093F3006093A8
:10070000FA001092FA0082E48093EF002093ED004B
:1007100008950F931F93CF93DF9300D000D00F92D3
:10072000CDB7DEB7FB018081893009F44AC0813042
:1007300009F447C0082F10E0000F111F000F111F10
:10074000005E1F4F8983C80103960E942A508A8346
:10075000C80102960E942A508B83C80101960E940C
:100760002A508C83C8010E942A508D838091DC001E
:100770009091DD0084FD25C02091ED0080E4809300
:10078000ED0080E090E0A0E6B2E68093F000909368
:10079000F100A093F200B093F30089818093FA00F6
:1007A0008A818093FA008B818093FA008C818093F8
:1007B000FA008D818093FA0085E48093EF00209306
:1007C000ED000F900F900F900F900F90DF91CF9151
:1007D0001F910F910895FC018281882341F00284CA
:1007E000F385E02D80818F3F11F08F5F8083089526
:1007F0000F931F93CF93DF938B01FB01808189308F
:1008000009F1813021F1C82FD0E0CC0FDD1FCC0FD2
:10081000DD1FC05EDF4FCE01F80164810E943E50B3
:10082000CE010196F80163810E943E50CE010296EE
:10083000F80162810E943E50CE010396F801618169
:100840000E943E50DF91CF911F910F91089587E153
:10085000FB018083CCE5D0E0DCCF8EBD0DB407FE7C
:10086000FDCF6EBD0DB407FEFDCF4EBD0DB407FE2E
:10087000FDCF2EBD0DB407FEFDCF8EB50895FC0152
:100880005C9AA8ECB0E08091C900806111968C93CD
:1008900011978091B20096819830B1F0958199239B
:1008A00091F01582813968F0805990E0880F991F86
:1008B00063E070E00E94A74E8481861720F4648371
:1008C00008958EEF848308958091C800816080939D
:1008D000C8005C9A8091C900806111968C93119731
:1008E00016820895FC0187A9882349F481E087AB2B
:1008F00016BCA99A80916E00826080936E00089564
:10090000CF93DF9300D000D000D0CDB7DEB74983BE
:100910005A836B837C838D839E83E7E7F3E09FB7E5
:10092000F894808581FD3DC0808582FD3AC0808538
:10093000846080879FBF4FB7F8948091080490919E
:100940000904A0910A04B0910B044FBFA90160E013
:1009500070E0480F591F6A1F7B1F617070704683DB
:100960005783962F917080858E7F892B8087CF014A
:10097000AE014F5F5F4F26E0DA010D90AD01DC0163
:100980000D92CD012150C1F78085826080878085DE
:100990008B7F8087809176038F5F8093760381E0E1
:1009A00008C09FBF3996B4E0E730FB0709F0B7CF26
:1009B00080E026960FB6F894DEBF0FBECDBFDF9164
:1009C000CF9108950F931F93CF93DF93EC01809104
:1009D0004F0281708F5F888380E390E00E943250E5
:1009E000DC01CB0186309105A105B10578F509E15F
:1009F00010E088E390E00E943250AB01BC0180918E
:100A0000530290E08C599F4F2091520230E02F7199
:100A10003070322F2227820F931F049F9001059F71
:100A2000300D149F300D1124820F931F9A838983F8
:100A30009091500280E020915102820F911D9C8381
:100A40008B83DF91CF911F910F91089500E110E00A
:100A5000D0CFDC01ED91FC91119740A15FB7F894E4
:100A600020919D0A30919D0A3F5F30939D0A6091CD
:100A70009C0A3617A9F05FBF30E0F901EE0FFF1FA7
:100A8000E20FF31FEE0FFF1FE456FB4F91838083AD
:100A900085ED9DE493838283448315827894089541
:100AA00030919C0A3F5F30939C0AE5CF009721F478
:100AB00021E030E0C90108958130910521F422E060
:100AC00030E0C90108958230910519F424E030E046
:100AD000F1CF8330910519F428E030E0EBCF84307A
:100AE000910519F420E130E0E5CF8530910519F446
:100AF00020E230E0DFCF8630910519F420E430E0C9
:100B0000D9CF21E030E08730910559F480E890E0BA
:100B1000A901489F9001499F300D589F300D112425
:100B2000C9CF8830910519F480E091E0F1CF322FE0
:100B30002227330F8930910509F4BCCF8A30910503
:100B400019F4220F331FB6CF8B30910529F4220FF1
:100B5000331F220F331FAECF8C30910539F4220F93
:100B6000331F220F331F220F331FA4CF8D30910567
:100B700039F422953295307F3227207F32279ACF61
:100B80008E30910549F4220F331F22953295307F24
:100B90003227207F32278ECFAC01495050408F3012
:100BA000910551F40024369527950794369527959D
:100BB0000794322F202D7ECFCA01A5CFCF93DF938C
:100BC000AC012091ED008091EC00807F8093ED00DE
:100BD0008091EE0085FFAEC08091EE008F7D809306
:100BE000EE007894B091EF00BF703091F200329532
:100BF000369537706091F300762F770F770F770F68
:100C0000872F832B962F929596959770880F991F13
:100C100082959295907F9827807F98278B0F911DC2
:100C200039E08530930709F4B8C03AE0883093077B
:100C300009F4C4C13AE08834930709F478C13BE071
:100C40008830930709F4C6C13BE08834930709F460
:100C5000CDC13EE08130930709F4CEC130E1803050
:100C6000930709F4CFC130E18038930709F4B8C184
:100C700030E18130930709F4CBC130E1813893072B
:100C800009F4CCC130E18032930709F4CDC130E1E1
:100C9000803A930709F4CEC130E18132930709F419
:100CA000CFC130E1813A930709F4D0C132E48832F0
:100CB000930709F4D1C132E4883A930709F4CFC10C
:100CC0003AE48534930709F4D6C132E685309307B8
:100CD00009F4D4C132E68536930709F4D5C13DE85D
:100CE0008730930709F4CDC138E88530930709F4BC
:100CF000CEC13AE88530930709F4E7C13CEE81386C
:100D0000930709F4E8C130EF8830930709F4E0C194
:100D100030EF8832930709F4CCC130EF8834930761
:100D200009F4C4C130EF8836930709F03CC16AE189
:100D300070E035C08091EE008F7B8093EE00789458
:100D40003091F2003295369537706091F300762F2E
:100D5000770F770F770F872F832B962F9295969586
:100D60009770880F991F82959295907F9827807F22
:100D700098273091EF003F70830F911D30EF88323C
:100D8000930709F49EC030EF8836930709F419C120
:100D90002093ED00DF91CF91089560E070E0BB23D8
:100DA00081F0FB01EE0FFF1FEE0FFF1FEE0FFF1F85
:100DB000E40FF51F30E0A091FA00A1933F5F3B17CD
:100DC000D0F332E68530930709F4B4C039E08530BA
:100DD000930709F4F9C03AE48534930709F4F7C09E
:100DE00032E68536930709F4FEC03EE08130930772
:100DF00009F4FFC03DE88730930709F400C138E8E3
:100E00008530930709F4E9C03AE88530930709F47F
:100E1000FCC03AE08830930709F4FDC03BE088301D
:100E2000930709F4FEC032E48832930709F4FFC047
:100E300030E18030930709F400C130E18038930736
:100E400009F401C130E18032930709F402C130E1B5
:100E5000803A930709F406C130E18130930709F421
:100E600007C130E18138930709F4FFC030E18132D6
:100E7000930709F412C130E1813A930709F40AC1DA
:100E800032E4883A930709F40EC13CEE81389307A7
:100E900009F406C130EF8830930709F410C130EF30
:100EA0008834930709F408C130EF8832930709F4B6
:100EB00009C130EF8836930709F075C0E8E1F0E02A
:100EC0003BC0E0E0F0E03FB7F89480919D0A90913C
:100ED0009D0A9F5F90939D0A60919C0A961729F442
:100EE00090919C0A9F5F90939C0A3FBF90E0E15BCA
:100EF000FF4FEE0FFF1FEE0FFF1FE40FF51F4081A6
:100F0000518162817381FC01EE0FFF1FE80FF91F11
:100F1000EE0FFF1FE456FB4F4083518362837383C0
:100F2000158214822093ED00DF91CF91089562E045
:100F300070E035CFE0E0F0E0EB01CC0FDD1FCC0F2F
:100F4000DD1FCC0FDD1FC40FD51F9FB7F894609134
:100F50009D0A80919D0A8F5F80939D0A30919C0A23
:100F6000831729F480919C0A8F5F80939C0A9FBF0E
:100F700070E0F696EE0FFF1FEE0FFF1FE40FF51F58
:100F800080819181A281B381FB01EE0FFF1FE60FEB
:100F9000F71FEE0FFF1FE456FB4F80839183A28360
:100FA000B383D583C4838091EF008F73806880936F
:100FB000EF002093ED00DF91CF91089561E070E0A4
:100FC000EECEE1E0F0E07FCFE1E0F0E0B5CFE2E0AF
:100FD000F0E0B2CF63E070E0E2CEE6E0F0E0ACCF6C
:100FE00067E070E0DCCEE3E0F0E0A6CF64E070E024
:100FF000D6CEE4E0F0E0A0CF65E070E0D0CEE5E052
:10100000F0E09ACF66E070E0CACEE7E0F0E094CF7F
:1010100068E070E0C4CEE8E0F0E08ECF69E070E018
:10102000BECEE9E0F0E088CF6AE070E0B8CEEAE05A
:10103000F0E082CF6BE070E0B2CEEBE0F0E07CCF8E
:101040006CE070E0ACCEECE0F0E076CF6DE070E00C
:10105000A6CEEDE0F0E070CF6EE070E0A0CE6FE0E5
:1010600070E09DCEEEE0F0E067CFE0E1F0E064CF2D
:10107000EFE0F0E061CF60E170E091CE61E170E01F
:101080008ECE63E170E08BCE62E170E088CE64E1E9
:1010900070E085CEE2E1F0E04FCFE1E1F0E04CCF4F
:1010A000E4E1F0E049CFE3E1F0E046CF69E170E050
:1010B00076CE68E170E073CEE6E1F0E03DCFE5E1A9
:1010C000F0E03ACFE7E1F0E037CF65E170E067CEDE
:1010D00067E170E064CE66E170E061CEFC0183817F
:1010E0008823E1F4F0990DC0F09A8EB38695869529
:1010F000869580FD0DC0F39A838191E089278383D3
:101100000895F0988EB386958695869580FFF3CFE7
:10111000F398838191E08927838308958EB3869520
:1011200080FD0CC0F19A8EB38695869580FD0CC02B
:10113000F29A838191E0892783830895F1988EB391
:101140008695869580FFF4CFF298838191E0892778
:1011500083830895EF92FF920F931F93CF93DF93B2
:1011600000D000D00F92CDB7DEB77B01FB0100812C
:10117000093009F470C0013009F479C010E0000FA3
:10118000111F000F111F005E1F4FC801F70164817E
:101190000E943E50C8010196F70163810E943E50B3
:1011A000C8010296F70162810E943E50C801039671
:1011B000F70161810E943E50F7018081893009F476
:1011C0004AC0813009F447C0082F10E0000F111FFA
:1011D000000F111F005E1F4F8983C80103960E94F4
:1011E0002A508A83C80102960E942A508B83C80124
:1011F00001960E942A508C83C8010E942A508D8338
:101200008091DC009091DD0084FD25C02091ED00EF
:1012100080E48093ED0080E090E0A0E6B2E6809369
:10122000F0009093F100A093F200B093F300898155
:101230008093FA008A818093FA008B818093FA0070
:101240008C818093FA008D818093FA0085E48093ED
:10125000EF002093ED000F900F900F900F900F90E4
:10126000DF91CF911F910F91FF90EF90089587E14B
:10127000FB0180830CE510E086CF0F931F93CF9383
:10128000DF93CDB7DEB767970FB6F894DEBF0FBE1A
:10129000CDBFE7E7F3E03FB7F894208521FD35C1E6
:1012A000208522FD32C12085246020873FBF2FB7D3
:1012B000F894409108045091090460910A047091D7
:1012C0000B042FBF4C505E4F6F4F7F4F617070709B
:1012D00046835783362F317020852E7F232B20871E
:1012E000918380838DE399E09383828315821482B6
:1012F00080858260808780858B7F80878091760360
:101300008F5F8093760311E0FE01319687E0DF0165
:101310001D928A95E9F788E690E00E942A508A8318
:1013200080E390E00E942A508B8384E590E00E9445
:101330002A508C838CE690E00E942A508D838DE6A3
:1013400090E00E942A50082F88E590E00E943850D3
:1013500064E670E00E94934E079500270795062BE0
:101360000E8388E390E00E942A508F838091DC00F6
:101370009091DD0082FD2BC02091ED0080E28093F2
:10138000ED0080E090E0A0EEB3E68093F000909353
:10139000F100A093F200B093F30089818093FA00EA
:1013A0008A818093FA008B818093FA008C818093EC
:1013B000FA008D818093FA008E818093FA008F81EC
:1013C0008093FA0087E48093EF002093ED00FE0104
:1013D000709688E0DF011D928A95E9F789E690E032
:1013E0000E942A50898B88E690E00E942A508A8BBE
:1013F0008DE490E00E942A508B8B8CE490E00E9458
:101400002A508C8B1D8B809176038E8B80919D0151
:101410008F8B8091DC009091DD0083FD22C0809154
:10142000ED0090E39093ED0098899093FA009989EC
:101430009093FA009A899093FA009B899093FA000E
:101440009C899093FA009D899093FA009E899093CD
:10145000FA009F899093FA0098E49093EF008093AC
:10146000ED0010929D018CE290E00E9438508C01BA
:10147000FE01389688E0DF011D928A95E9F78CE736
:1014800090E00E942A50888709871A878091DC00A3
:101490009091DD0084FD2EC02091ED0080E48093CA
:1014A000ED0080E090E0A0ECB8E18093F000909334
:1014B000F100A093F200B093F30088858093FA00C6
:1014C00089858093FA008A858093FA008B858093C2
:1014D000FA008C858093FA008D858093FA008E85C2
:1014E0008093FA008F858093FA0088E48093EF0060
:1014F0002093ED0067960FB6F894DEBF0FBECDBF08
:10150000DF91CF911F910F9108953FBF3996B4E0BD
:10151000E730FB0709F0BFCE10E0F6CEDC011296F3
:101520008C911297882359F486E090E090931901EA
:101530008093180180916F008D7F80936F001296C9
:101540001C921297E7E7F3E09FB7F894808581FD3E
:1015500034C0808582FD31C08085846080879FBFD4
:101560008FB7F894409108045091090460910A04DF
:1015700070910B048FBF48515C4F6F4F7F4F61706C
:10158000707046835783962F917080858E7F892B4C
:101590008087B183A0838EE89AE09383828315824B
:1015A000148280858260808780858B7F8087809190
:1015B00076038F5F8093760308959FBF399684E00A
:1015C000E730F80709F0C0CF0895DC0113968C913D
:1015D0001397882379F4ED91FC9111978081982FCE
:1015E0009F71943009F44CC0983039F0807A806152
:1015F000808303C013961C921397E7E7F3E09FB72D
:10160000F894808581FD34C0808582FD31C080855D
:10161000846080879FBF8FB7F894409108045091F1
:10162000090460910A0470910B048FBF4053584F16
:101630006F4F7F4F6170707046835783962F917004
:1016400080858E7F892B8087B183A08385EE9AE089
:10165000938382831582148280858260808780854F
:101660008B7F8087809176038F5F809376030895C8
:101670009FBF399684E0E730F80709F0C0CF08959E
:10168000982F991F9927991F909580729795992760
:1016900097958860892B8083B0CFEF92FF92CF938C
:1016A000DF93FC01C0E0D0E02081222361F143817F
:1016B000548160E070E080911A0190911B01A0912B
:1016C0001C01B0911D01481B590B6A0B7B0B8181DA
:1016D0009281A0E0B0E0840F951FA61FB71F1816D7
:1016E00019061A061B060CF0CFC0DB01CA010197D0
:1016F000A109B1098B3D35E0930730E0A30730E045
:10170000B30708F4B3C08091DC009091DD0082FD46
:1017100082C03091ED0080E28093ED0080E090E0A7
:10172000A0E0B9E18093F0009093F100A093F20063
:10173000B093F3002093FA00CE01C093FA00909387
:10174000FA0083E48093EF003093ED001582A7E761
:10175000B3E08FB7F89418969C91189791FD53C0F9
:1017600018969C91189792FD4EC018969C911897C8
:10177000946018969C9318978FBF8FB7F8944091F8
:1017800008045091090460910A0470910B048FBF02
:101790004C505E4F6F4F7F4F6170707016964C9338
:1017A000169717965C931797962F917018968C91B1
:1017B00018978E7F892B18968C9318971196FC9307
:1017C000EE938DE49BE013969C938E93129715965F
:1017D0001C921E92149718968C91189782601896F6
:1017E0008C93189718968C9118978B7F18968C93DA
:1017F0001897809176038F5F80937603DF91CF9166
:10180000FF90EF9008958FBF199634E0A730B3078B
:1018100009F09FCFF3CF8581843080F78F5F858378
:10182000A7E7B3E09FB7F89418968C91189781FDBD
:1018300020C018968C91189782FD1BC018968C9129
:101840001897846018968C9318979FBF8FB7F89459
:10185000409108045091090460910A0470910B04AE
:101860008FBF4C595F4F6F4F7F4F96CFEA0120815A
:101870004ACF9FBF199684E0A730B80799F6DF9149
:10188000CF91FF90EF900895108220E02ECFCF935C
:10189000DF9300D000D00F92CDB7DEB71F9B08C0FA
:1018A0000F900F900F900F900F90DF91CF910895B0
:1018B000DB012C9191E090938F01E0918C01F091EC
:1018C0008D01808185FF10C08F7D80838091900184
:1018D000820FECE8F1E084830F900F900F900F904F
:1018E0000F90DF91CF910895FE01319685E0DF01E1
:1018F0001D928A95E9F782E089839A831F9B2CC009
:101900008091DC009091DD0084FDCACF2091ED0034
:1019100080E48093ED0080E090E0A0E0BAE980935D
:10192000F0009093F100A093F200B093F30089814E
:101930008093FA008A818093FA008B818093FA0069
:101940008C818093FA008D818093FA0085E48093E6
:10195000EF002093ED00A4CF8091DC009091DD009A
:1019600084FD9ECF2091ED0080E48093ED0080E027
:1019700090E0A0E0B8E9D3CFCF93DF9300D000D0C0
:101980000F92CDB7DEB71F9B08C00F900F900F903E
:101990000F900F90DF91CF9108952FB7F894609139
:1019A00008047091090480910A0490910B042FBFE0
:1019B0002AE030E040E050E00E94BA4E40919101B0
:1019C0002093910191E090938F01E0918C01F0912F
:1019D0008D01808185FF10C08F7D80838091900173
:1019E000841B820F809390010F900F900F900F90A7
:1019F0000F90DF91CF910895FE01319685E0DF01D0
:101A00001D928A95E9F782E089839A831F9B2CC0F7
:101A10008091DC009091DD0084FDB7CF2091ED0036
:101A200080E48093ED0080E090E0A0E0BAE980934C
:101A3000F0009093F100A093F200B093F30089813D
:101A40008093FA008A818093FA008B818093FA0058
:101A50008C818093FA008D818093FA0085E48093D5
:101A6000EF002093ED0091CF8091DC009091DD009C
:101A700084FD8BCF2091ED0080E48093ED0080E029
:101A800090E0A0E0B8E9D3CFCF93DF9300D000D0AF
:101A90000F92CDB7DEB71F9908C00F900F900F902F
:101AA0000F900F90DF91CF910895DB012C9191E081
:101AB00090938F01E0918C01F0918D01808185FFE1
:101AC00010C08F7D808380919001820FECE8F1E05F
:101AD00084830F900F900F900F900F90DF91CF9114
:101AE0000895FE01319685E0DF011D928A95E9F7A0
:101AF00082E089839A831F9B2CC08091DC009091A7
:101B0000DD0084FDCACF2091ED0080E48093ED00DC
:101B100080E090E0A0E0BAE98093F0009093F100BB
:101B2000A093F200B093F30089818093FA008A8138
:101B30008093FA008B818093FA008C818093FA0065
:101B40008D818093FA0085E48093EF002093ED006F
:101B5000A4CF8091DC009091DD0084FD9ECF209188
:101B6000ED0080E48093ED0080E090E0A0E0B8E933
:101B7000D3CFCF93DF9300D000D00F92CDB7DEB795
:101B80001F9908C00F900F900F900F900F90DF914A
:101B9000CF9108952FB7F8946091080470910904CB
:101BA00080910A0490910B042FBF2AE030E040E0BE
:101BB00050E00E94BA4E409191012093910191E032
:101BC00090938F01E0918C01F0918D01808185FFD0
:101BD00010C08F7D808380919001841B820F809341
:101BE00090010F900F900F900F900F90DF91CF9179
:101BF0000895FE01319685E0DF011D928A95E9F78F
:101C000082E089839A831F9B2CC08091DC00909195
:101C1000DD0084FDB7CF2091ED0080E48093ED00DE
:101C200080E090E0A0E0BAE98093F0009093F100AA
:101C3000A093F200B093F30089818093FA008A8127
:101C40008093FA008B818093FA008C818093FA0054
:101C50008D818093FA0085E48093EF002093ED005E
:101C600091CF8091DC009091DD0084FD8BCF20919D
:101C7000ED0080E48093ED0080E090E0A0E0B8E922
:101C8000D3CFCF93DF9300D000D00F92CDB7DEB784
:101C90001F9B08C00F900F900F900F900F90DF9137
:101CA000CF9108952FB7F8946091080470910904BA
:101CB00080910A0490910B042FBF2AE030E040E0AD
:101CC00050E00E94BA4E309191012093910191E031
:101CD00090938F01E0918C01F0918D01808185FDC1
:101CE00043C0922F931B8062808350919001590FC3
:101CF00050939001943260F160919201662309F053
:101D000071C0550F50939001408140784066446007
:101D100010929201852F8459893108F05EC04F7767
:101D200080919401481709F484C0E0918C01F091EE
:101D30008D0180818F7B808340939401109290016C
:101D40000F900F900F900F900F90DF91CF9108950B
:101D5000809192018F5F80939201833009F09ACF36
:101D600080818F7B808396CFFE01319685E0DF01F5
:101D70001D928A95E9F782E089839A839B831F9B52
:101D800048C08091DC009091DD0084FD83CF2091DC
:101D9000ED0080E48093ED0080E090E0A0E0BAE9FF
:101DA0008093F0009093F100A093F200B093F300C1
:101DB00089818093FA008A818093FA008B818093D5
:101DC000FA008C818093FA008D818093FA0085E47B
:101DD0008093EF002093ED005DCF5D5A5A31B8F447
:101DE00040689ECF40814078406622E030E0261B6C
:101DF000310981E090E002C0880F991F2A95E2F72F
:101E00008F71482B633008F483CF4F7B81CF4F7B9A
:101E100087CF8091DC009091DD0084FD3BCF209145
:101E2000ED0080E48093ED0080E090E0A0E0B8E970
:101E3000B7CF46FF81CFE0918C01F0918D01808179
:101E4000842787FD11C08091930110929801882307
:101E500029F0E0919601F09197011082E0918C01B8
:101E6000F0918D01408368CF80919301882331F0F8
:101E7000109293011092980140835ECFE0919601F9
:101E8000F0919701809198018083DDCFCF93DF930C
:101E900000D000D00F92CDB7DEB71F9B08C00F90C7
:101EA0000F900F900F900F90DF91CF910895DB016D
:101EB0002C9191E090938F01E0918C01F0918D0134
:101EC000808185FD44C08062808350919001520FD3
:101ED00050939001243260F160919201662309F0E1
:101EE00074C0550F50939001408140784066446023
:101EF00010929201852F8459893108F061C04F7783
:101F000080919401481709F487C0E0918C01F09109
:101F10008D0180818F7B808340939401109290018A
:101F20000F900F900F900F900F90DF91CF91089529
:101F3000809192018F5FACE8B1E016968C93169772
:101F4000833009F0ACCF80818F7B8083A8CFFE01E6
:101F5000319685E0DF011D928A95E9F782E0898359
:101F60009A839B831F9B48C08091DC009091DD0089
:101F700084FD95CF2091ED0080E48093ED0080E01A
:101F800090E0A0E0BAE98093F0009093F100A09374
:101F9000F200B093F30089818093FA008A818093E4
:101FA000FA008B818093FA008C818093FA008D81F6
:101FB0008093FA0085E48093EF002093ED006FCFCB
:101FC0005D5A5A31B8F440689BCF408140784066F2
:101FD00022E030E0261B310981E090E002C0880F4A
:101FE000991F2A95E2F78F71482B633008F480CF50
:101FF0004F7B7ECF4F7B84CF8091DC009091DD00C2
:1020000084FD4DCF2091ED0080E48093ED0080E0D1
:1020100090E0A0E0B8E9B7CF46FF7ECFE0918C0119
:10202000F0918D018081842787FD11C080919301FB
:1020300010929801882329F0E0919601F091970180
:102040001082E0918C01F0918D01408365CF8091E9
:102050009301882331F010929301109298014083EC
:102060005BCFE0919601F091970180919801808378
:10207000DDCFCF93DF9300D000D00F92CDB7DEB786
:102080001F9908C00F900F900F900F900F90DF9145
:10209000CF9108952FB7F8946091080470910904C6
:1020A00080910A0490910B042FBF2AE030E040E0B9
:1020B00050E00E94BA4E309191012093910191E03D
:1020C00090938F01E0918C01F0918D01808185FDCD
:1020D00043C0922F931B8062808350919001590FCF
:1020E00050939001943260F160919201662309F05F
:1020F00071C0550F50939001408140784066446014
:1021000010929201852F8459893108F05EC04F7773
:1021100080919401481709F484C0E0918C01F091FA
:102120008D0180818F7B8083409394011092900178
:102130000F900F900F900F900F90DF91CF91089517
:10214000809192018F5F80939201833009F09ACF42
:1021500080818F7B808396CFFE01319685E0DF0101
:102160001D928A95E9F782E089839A839B831F9B5E
:1021700048C08091DC009091DD0084FD83CF2091E8
:10218000ED0080E48093ED0080E090E0A0E0BAE90B
:102190008093F0009093F100A093F200B093F300CD
:1021A00089818093FA008A818093FA008B818093E1
:1021B000FA008C818093FA008D818093FA0085E487
:1021C0008093EF002093ED005DCF5D5A5A31B8F453
:1021D00040689ECF40814078406622E030E0261B78
:1021E000310981E090E002C0880F991F2A95E2F73B
:1021F0008F71482B633008F483CF4F7B81CF4F7BA7
:1022000087CF8091DC009091DD0084FD3BCF209151
:10221000ED0080E48093ED0080E090E0A0E0B8E97C
:10222000B7CF46FF81CFE0918C01F0918D01808185
:10223000842787FD11C08091930110929801882313
:1022400029F0E0919601F09197011082E0918C01C4
:10225000F0918D01408368CF80919301882331F004
:10226000109293011092980140835ECFE091960105
:10227000F0919701809198018083DDCFCF93DF9318
:1022800000D000D00F92CDB7DEB71F9908C00F90D5
:102290000F900F900F900F90DF91CF910895DB0179
:1022A0002C9191E090938F01E0918C01F0918D0140
:1022B000808185FD44C08062808350919001520FDF
:1022C00050939001243260F160919201662309F0ED
:1022D00074C0550F5093900140814078406644602F
:1022E00010929201852F8459893108F061C04F778F
:1022F00080919401481709F487C0E0918C01F09116
:102300008D0180818F7B8083409394011092900196
:102310000F900F900F900F900F90DF91CF91089535
:10232000809192018F5FACE8B1E016968C9316977E
:10233000833009F0ACCF80818F7B8083A8CFFE01F2
:10234000319685E0DF011D928A95E9F782E0898365
:102350009A839B831F9B48C08091DC009091DD0095
:1023600084FD95CF2091ED0080E48093ED0080E026
:1023700090E0A0E0BAE98093F0009093F100A09380
:10238000F200B093F30089818093FA008A818093F0
:10239000FA008B818093FA008C818093FA008D8102
:1023A0008093FA0085E48093EF002093ED006FCFD7
:1023B0005D5A5A31B8F440689BCF408140784066FE
:1023C00022E030E0261B310981E090E002C0880F56
:1023D000991F2A95E2F78F71482B633008F480CF5C
:1023E0004F7B7ECF4F7B84CF8091DC009091DD00CE
:1023F00084FD4DCF2091ED0080E48093ED0080E0DE
:1024000090E0A0E0B8E9B7CF46FF7ECFE0918C0125
:10241000F0918D018081842787FD11C08091930107
:1024200010929801882329F0E0919601F09197018C
:102430001082E0918C01F0918D01408365CF8091F5
:102440009301882331F010929301109298014083F8
:102450005BCFE0919601F091970180919801808384
:10246000DDCFF89428E088E190E00FB6F894A895C5
:10247000809360000FBE209360000000FECF1F9984
:102480000895FB0180818230D9F781818330C1F7C3
:10249000828182FDF5CF2FB7F89480910804909146
:1024A0000904A0910A04B0910B042FBF89352BE1D8
:1024B000920720E0A20720E0B20710F380914F01BD
:1024C0008823F1F20E9431121F9B0895FB01808145
:1024D0008230D9F781818330C1F7828182FDF5CFC7
:1024E0002FB7F8948091080490910904A0910A04F0
:1024F000B0910B042FBF89352BE1920720E0A20792
:1025000020E0B20710F380914F018823F1F20E947E
:1025100031121F920F920FB60F920BB60F92112429
:102520002F933F934F935F936F937F938F939F93DB
:10253000AF93BF93EF93FF93E0919A04F0919B04C4
:1025400080919804909199040995FF91EF91BF9122
:10255000AF919F918F917F916F915F914F913F913B
:102560002F910F900BBE0F900FBE0F901F901895DC
:102570001F920F920FB60F920BB60F9211242F934A
:102580003F934F935F936F937F938F939F93AF93FB
:10259000BF93EF93FF93E0919604F091970480919D
:1025A0009404909195040995FF91EF91BF91AF919B
:1025B0009F918F917F916F915F914F913F912F915B
:1025C0000F900BBE0F900FBE0F901F9018951F928B
:1025D0000F920FB60F920BB60F9211242F933F93C9
:1025E0004F935F936F937F938F939F93AF93BF931B
:1025F000EF93FF93E0919204F09193048091900403
:10260000909191040995FF91EF91BF91AF919F91A6
:102610008F917F916F915F914F913F912F910F908B
:102620000BBE0F900FBE0F901F9018951F920F9228
:102630000FB60F920BB60F9211242F933F934F9327
:102640005F936F937F938F939F93AF93BF93EF931A
:10265000FF93E0918E04F0918F0480918C0490910F
:102660008D040995FF91EF91BF91AF919F918F914B
:102670007F916F915F914F913F912F910F900BBE82
:102680000F900FBE0F901F9018951F920F920FB6CC
:102690000F920BB60F9211242F933F934F935F939A
:1026A0006F937F938F939F93AF93BF93EF93FF931A
:1026B000E0918A04F0918B048091880490918904C0
:1026C0000995FF91EF91BF91AF919F918F917F916C
:1026D0006F915F914F913F912F910F900BBE0F9093
:1026E0000FBE0F901F9018951F920F920FB60F926A
:1026F0000BB60F9211242F933F934F935F936F93D9
:102700007F938F939F93AF93BF93EF93FF93E0914A
:102710008604F09187048091840490918504099542
:10272000FF91EF91BF91AF919F918F917F916F91A9
:102730005F914F913F912F910F900BBE0F900FBE65
:102740000F901F9018951F920F920FB60F920BB615
:102750000F9211242F933F934F935F936F937F9327
:102760008F939F93AF93BF93EF93FF93E091820476
:10277000F091830480918004909181040995FF91E8
:10278000EF91BF91AF919F918F917F916F915F91E9
:102790004F913F912F910F900BBE0F900FBE0F9056
:1027A0001F9018951F920F920FB60F920BB60F92B3
:1027B00011242F933F934F935F936F937F938F9346
:1027C0009F93AF93BF93EF93FF93E0917E04F091BB
:1027D0007F0480917C0490917D040995FF91EF9195
:1027E000BF91AF919F918F917F916F915F914F9129
:1027F0003F912F910F900BBE0F900FBE0F901F9027
:1028000018951F920F920FB60F920BB60F921124CC
:102810002F933F934F935F936F937F938F939F93E8
:10282000AF93BF93EF93FF93E0917A04F0917B0411
:1028300080917804909179040995FF91EF91BF916F
:10284000AF919F918F917F916F915F914F913F9148
:102850002F910F900BBE0F900FBE0F901F901895E9
:102860001F920F920FB60F920BB60F9211242F9357
:102870003F934F935F936F937F938F939F93AF9308
:10288000BF93EF93FF93E0917604F09177048091EA
:102890007404909175040995FF91EF91BF91AF91E8
:1028A0009F918F917F916F915F914F913F912F9168
:1028B0000F900BBE0F900FBE0F901F9018951F9298
:1028C0000F920FB60F920BB60F9211242F933F93D6
:1028D0004F935F936F937F938F939F93AF93BF9328
:1028E000EF93FF93E0917204F09173048091700470
:1028F000909171040995FF91EF91BF91AF919F91D4
:102900008F917F916F915F914F913F912F910F9098
:102910000BBE0F900FBE0F901F9018951F920F9235
:102920000FB60F920BB60F9211242F933F934F9334
:102930005F936F937F938F939F93AF93BF93EF9327
:10294000FF93E0916E04F0916F0480916C0490917C
:102950006D040995FF91EF91BF91AF919F918F9178
:102960007F916F915F914F913F912F910F900BBE8F
:102970000F900FBE0F901F9018951F920F920FB6D9
:102980000F920BB60F9211242F933F934F935F93A7
:102990006F937F938F939F93AF93BF93EF93FF9327
:1029A000E0916A04F0916B0480916804909169044D
:1029B0000995FF91EF91BF91AF919F918F917F9179
:1029C0006F915F914F913F912F910F900BBE0F90A0
:1029D0000FBE0F901F9018951F920F920FB60F9277
:1029E0000BB60F9211242F933F934F935F936F93E6
:1029F0007F938F939F93AF93BF93EF93FF93E09158
:102A00006604F091670480916404909165040995CF
:102A1000FF91EF91BF91AF919F918F917F916F91B6
:102A20005F914F913F912F910F900BBE0F900FBE72
:102A30000F901F9018951F920F920FB60F920BB622
:102A40000F9211242F933F934F935F936F937F9334
:102A50008F939F93AF93BF93EF93FF93E0916204A3
:102A6000F091630480916004909161040995FF9155
:102A7000EF91BF91AF919F918F917F916F915F91F6
:102A80004F913F912F910F900BBE0F900FBE0F9063
:102A90001F9018951F920F920FB60F920BB60F92C0
:102AA00011242F933F934F935F936F937F938F9353
:102AB0009F93AF93BF93EF93FF93E0915E04F091E8
:102AC0005F0480915C0490915D040995FF91EF9102
:102AD000BF91AF919F918F917F916F915F914F9136
:102AE0003F912F910F900BBE0F900FBE0F901F9034
:102AF00018951F920F920FB60F920BB60F921124DA
:102B00002F933F934F935F936F937F938F939F93F5
:102B1000AF93BF93EF93FF93E0915A04F0915B045E
:102B200080915804909159040995FF91EF91BF91BC
:102B3000AF919F918F917F916F915F914F913F9155
:102B40002F910F900BBE0F900FBE0F901F901895F6
:102B50001F920F920FB60F920BB60F9211242F9364
:102B60003F934F935F936F937F938F939F93AF9315
:102B7000BF93EF93FF93E0915604F0915704809137
:102B80005404909155040995FF91EF91BF91AF9135
:102B90009F918F917F916F915F914F913F912F9175
:102BA0000F900BBE0F900FBE0F901F9018951F92A5
:102BB0000F920FB60F920BB60F9211242F933F93E3
:102BC0004F935F936F937F938F939F93AF93BF9335
:102BD000EF93FF93E0915204F091530480915004DD
:102BE000909151040995FF91EF91BF91AF919F9101
:102BF0008F917F916F915F914F913F912F910F90A6
:102C00000BBE0F900FBE0F901F9018951F920F9242
:102C10000FB60F920BB60F9211242F933F934F9341
:102C20005F936F937F938F939F93AF93BF93EF9334
:102C3000FF93E0914E04F0914F0480914C049091E9
:102C40004D040995FF91EF91BF91AF919F918F91A5
:102C50007F916F915F914F913F912F910F900BBE9C
:102C60000F900FBE0F901F9018951F920F920FB6E6
:102C70000F920BB60F9211242F933F934F935F93B4
:102C80006F937F938F939F93AF93BF93EF93FF9334
:102C9000E0914A04F0914B048091480490914904DA
:102CA0000995FF91EF91BF91AF919F918F917F9186
:102CB0006F915F914F913F912F910F900BBE0F90AD
:102CC0000FBE0F901F9018951F920F920FB60F9284
:102CD0000BB60F9211242F933F934F935F936F93F3
:102CE0007F938F939F93AF93BF93EF93FF93E09165
:102CF0004604F0914704809144049091450409955D
:102D0000FF91EF91BF91AF919F918F917F916F91C3
:102D10005F914F913F912F910F900BBE0F900FBE7F
:102D20000F901F9018951F920F920FB60F920BB62F
:102D30000F9211242F933F934F935F936F937F9341
:102D40008F939F93AF93BF93EF93FF93E0914204D0
:102D5000F091430480914004909141040995FF91C2
:102D6000EF91BF91AF919F918F917F916F915F9103
:102D70004F913F912F910F900BBE0F900FBE0F9070
:102D80001F9018951F920F920FB60F920BB60F92CD
:102D900011242F933F934F935F936F937F938F9360
:102DA0009F93AF93BF93EF93FF93E0913E04F09115
:102DB0003F0480913C0490913D040995FF91EF916F
:102DC000BF91AF919F918F917F916F915F914F9143
:102DD0003F912F910F900BBE0F900FBE0F901F9041
:102DE00018951F920F920FB60F920BB60F921124E7
:102DF0002F933F934F935F936F937F938F939F9303
:102E0000AF93BF93EF93FF93E0913A04F0913B04AB
:102E100080913804909139040995FF91EF91BF9109
:102E2000AF919F918F917F916F915F914F913F9162
:102E30002F910F900BBE0F900FBE0F901F90189503
:102E40001F920F920FB60F920BB60F9211242F9371
:102E50003F934F935F936F937F938F939F93AF9322
:102E6000BF93EF93FF93E0913604F0913704809184
:102E70003404909135040995FF91EF91BF91AF9182
:102E80009F918F917F916F915F914F913F912F9182
:102E90000F900BBE0F900FBE0F901F9018951F92B2
:102EA0000F920FB60F920BB60F9211242F933F93F0
:102EB0004F935F936F937F938F939F93AF93BF9342
:102EC000EF93FF93E0913204F0913304809130044A
:102ED000909131040995FF91EF91BF91AF919F912E
:102EE0008F917F916F915F914F913F912F910F90B3
:102EF0000BBE0F900FBE0F901F9018951F920F9250
:102F00000FB60F920BB60F9211242F933F934F934E
:102F10005F936F937F938F939F93AF93BF93EF9341
:102F2000FF93E0912E04F0912F0480912C04909156
:102F30002D040995FF91EF91BF91AF919F918F91D2
:102F40007F916F915F914F913F912F910F900BBEA9
:102F50000F900FBE0F901F9018951F920F920FB6F3
:102F60000F920BB60F9211242F933F934F935F93C1
:102F70006F937F938F939F93AF93BF93EF93FF9341
:102F8000E0912A04F0912B04809128049091290467
:102F90000995FF91EF91BF91AF919F918F917F9193
:102FA0006F915F914F913F912F910F900BBE0F90BA
:102FB0000FBE0F901F9018951F920F920FB60F9291
:102FC0000BB60F9211242F933F934F935F936F9300
:102FD0007F938F939F93AF93BF93EF93FF93E09172
:102FE0002604F091270480912404909125040995EA
:102FF000FF91EF91BF91AF919F918F917F916F91D1
:103000005F914F913F912F910F900BBE0F900FBE8C
:103010000F901F9018951F920F920FB60F920BB63C
:103020000F9211242F933F934F935F936F937F934E
:103030008F939F93AF93BF93EF93FF93E0912204FD
:10304000F091230480912004909121040995FF912F
:10305000EF91BF91AF919F918F917F916F915F9110
:103060004F913F912F910F900BBE0F900FBE0F907D
:103070001F9018951F920F920FB60F920BB60F92DA
:1030800011242F933F934F935F936F937F938F936D
:103090009F93AF93BF93EF93FF93E0911E04F09142
:1030A0001F0480911C0490911D040995FF91EF91DC
:1030B000BF91AF919F918F917F916F915F914F9150
:1030C0003F912F910F900BBE0F900FBE0F901F904E
:1030D00018951F920F920FB60F920BB60F921124F4
:1030E0002F933F934F935F936F937F938F939F9310
:1030F000AF93BF93EF93FF93E0911A04F0911B04F9
:1031000080911804909119040995FF91EF91BF9156
:10311000AF919F918F917F916F915F914F913F916F
:103120002F910F900BBE0F900FBE0F901F90189510
:103130001F920F920FB60F920BB60F9211242F937E
:103140003F934F935F936F937F938F939F93AF932F
:10315000BF93EF93FF93E0911604F09117048091D1
:103160001404909115040995FF91EF91BF91AF91CF
:103170009F918F917F916F915F914F913F912F918F
:103180000F900BBE0F900FBE0F901F9018951F92BF
:103190000F920FB60F920BB60F9211242F933F93FD
:1031A0004F935F936F937F938F939F93AF93BF934F
:1031B000EF93FF93E0911204F091130480911004B7
:1031C000909111040995FF91EF91BF91AF919F915B
:1031D0008F917F916F915F914F913F912F910F90C0
:1031E0000BBE0F900FBE0F901F9018951F920F925D
:1031F0000FB60F920BB60F9211242F933F934F935C
:103200005F936F937F938F939F93AF93BF93EF934E
:10321000FF93E0910E04F0910F0480910C049091C3
:103220000D040995FF91EF91BF91AF919F918F91FF
:103230007F916F915F914F913F912F910F900BBEB6
:103240000F900FBE0F901F9018954F925F926F9244
:103250007F928F929F92AF92BF92DF92EF92FF92F6
:103260000F931F93CF93DF937C01DC011596ED91B3
:10327000FC91169780812181813209F4FFC082324E
:10328000D0F0813309F424C1823308F455C083336C
:1032900009F428C1833308F042C182E3F701858B2A
:1032A0000584F685E02D82E0922F2FB7F894918364
:1032B00080832FBF9BC0813109F4E0C0823108F0C8
:1032C0005BC0833009F40EC1843009F4C9C088237F
:1032D00009F08CC0E7018D89813209F45EC1823228
:1032E00008F421C1813309F412C3823309F411C2F5
:1032F000823209F07BC0E70188819981AA81BB8174
:103300004E895F89688D798D84179507A607B70761
:1033100008F435C3AC01BD014150504060407040DD
:10332000652F6F70482F4150487F82EC20E00E944B
:103330002D0488E799E624C1833209F4D3C083328F
:1033400008F464C0843209F051C0E7014881598112
:103350006A817B81DB01CA010197A109B1099F70D4
:103360004150487F82EC692F20E00E942D0488E7BD
:1033700099E60197F1F74EC0833109F4B3C0833168
:1033800008F046C082E1F701858B0780F085E02DCB
:103390008FB7F894408151818FBFD7011996ED9175
:1033A000FC911A978FB7F894208131818FBFE70184
:1033B000EB85FC856FB7F894808191816FBFF70131
:1033C000588349833A831B822E8B9F8B888F198E5B
:1033D0000584F685E02DAD81BE8182E011969C9139
:1033E00011972FB7F894918380832FBFDF91CF91EE
:1033F0001F910F91FF90EF90DF90BF90AF909F9043
:103400008F907F906F905F904F90089582E2BBCF36
:10341000843161F7F70140815181628173814150AC
:103420005040604070408A019B01A9E03695279585
:1034300017950795AA95D1F776956795579547956E
:1034400040788CE4602F20E00E942D048CEB94E304
:103450000197F1F7D7011596ED91FC91169721810F
:10346000E701ED85FE8584E0922F2FB7F8949183D4
:1034700080832FBF24982C9A0E943112F701858BEC
:103480000780F085E02D8FB7F894408151818FBF80
:10349000D7011996ED91FC911A978FB7F894208176
:1034A00031818FBFE701EB85FC856FB7F894808190
:1034B00091816FBF588349833A831B822E8B9F8BE8
:1034C000888F198EED85FE85AD81BE8181E086CF26
:1034D000D70155968C9355971D96ED91FC911E97AB
:1034E00081E0E2CE8CEA60E840E020E00E942D041A
:1034F00088E799E60197F1F7E701AD85BE85ED8193
:10350000FE8183E091812FB7F89411969C938E935E
:103510002FBFED85FE85AD81BE8180E05FCF843316
:1035200009F064CF9DCF813109F4F7C0823109F0F1
:103530005DCF88819981AA81BB814E895F89688D21
:10354000798D84179507A607B70708F48AC30197F2
:10355000A109B1098C019D0169E036952795179560
:1035600007956A95D1F7B695A79597958795482FB2
:1035700040788CE4602F20E00E942D048CEB94E3D3
:103580000197F1F7D7011D96ED91FC911E971596C5
:103590000D90BC91A02D80E021CFF7010F84D88938
:1035A000C02D40816181677080EA20E00E942D0477
:1035B000D82ED7010D911D912D913C910F5F1F4F7A
:1035C0002F4F3F4FF7010083118322833383612FF5
:1035D000677080EA402F20E00E942D04D7014D91B2
:1035E0005D916D917C9113974F5F5F4F6F4F7F4F50
:1035F000F7014083518362837383282F3D2D8FB75A
:10360000F894398328838FBF5196CD91DC915297DE
:103610004C9111966C91677080EA20E00E942D0415
:10362000D82EF70100811181228133810F5F1F4F56
:103630002F4F3F4F0083118322833383612F6770A5
:1036400080EA402F20E00E942D04F7014081518143
:10365000628173814F5F5F4F6F4F7F4F4083518314
:1036600062837383282F3D2D8FB7F8943983288385
:103670008FBFC389D48940816181677080EA20E06F
:103680000E942D04D82ED7010D911D912D913C91B2
:103690000F5F1F4F2F4F3F4FF7010083118322838E
:1036A0003383612F677080EA402F20E00E942D0451
:1036B000D7014D915D916D917C9113974F5F5F4F55
:1036C0006F4F7F4FF7014083518362837383282FAD
:1036D0003D2D8FB7F894398328838FBF4D915D912D
:1036E0006D917C91139756968D919D910D90BC9103
:1036F000A02D84179507A607B70708F038C1D70192
:103700000584F685E02D15960D90BC91A02D80E0E6
:1037100065CEED85FE8580E0C7CDF7010F84D889A1
:10372000C02D0081118122813381802F8170880F0B
:10373000880F880FB901A801A9E07695679557957C
:103740004795AA95D1F736952795179507958062E5
:10375000642F402F20E00E942D04D82ED7010D9118
:103760001D912D913C910F5F1F4F2F4F3F4FF70140
:103770000083118322833383802F8170880F880F09
:10378000880FB901A80199E07695679557954795F7
:103790009A95D1F736952795179507958062642FEE
:1037A000402F20E00E942D04D7014D915D916D9135
:1037B0007C9113974F5F5F4F6F4F7F4FF7014083AF
:1037C000518362837383282F3D2D8FB7F8943983FB
:1037D00028838FBF5196CD91DC9152970D911D9109
:1037E0002D913C91802F8170880F880F880FB9012F
:1037F000A80199E076956795579547959A95D1F7E1
:1038000036952795179507958062642F402F20E005
:103810000E942D04D82EF70100811181228133816D
:103820000F5F1F4F2F4F3F4F00831183228333833E
:10383000802F8170880F880F880FB901A80199E047
:1038400076956795579547959A95D1F7369527952B
:10385000179507958062642F402F20E00E942D0469
:10386000F70140815181628173814F5F5F4F6F4FDC
:103870007F4F4083518362837383282F3D2D8FB701
:10388000F894398328838FBFC389D489008111813B
:1038900022813381802F8170880F880F880FB901B2
:1038A000A80199E076956795579547959A95D1F730
:1038B00036952795179507958062642F402F20E055
:1038C0000E942D04D82ED7010D911D912D913C9170
:1038D00013970F5F1F4F2F4F3F4FF7010083118347
:1038E00022833383802F8170880F880F880FB9015E
:1038F000A80199E076956795579547959A95D1F7E0
:1039000036952795179507958062642FCDCE0F8445
:10391000D889C02D88E568E040E020E00E942D04B1
:10392000082F80E560E040E020E00E942D04202F79
:10393000382F8FB7F894398328838FBFD7015196DA
:10394000CD91DC91529780E568E040E020E00E9454
:103950002D0420E0382F8FB7F894398328838FBF48
:10396000E701ED85FE85AD81BE8180E037CDE701C1
:103970000584F685E02DAD81BE8181E02FCDEF81FC
:10398000F8852FB7F894808191812FBFD82E092F09
:10399000488159816A817B81DB01CA0187709070FF
:1039A000A070B0700097A105B105A9F4DB01CA01B0
:1039B0000197A109B1099F704150487F82EC692F9E
:1039C00020E00E942D0488E799E60197F1F74881ED
:1039D00059816A817B81477081EC60E0202F0E94D1
:1039E0002D04E70188819981AA81BB818C019D0109
:1039F0000F5F1F4F2F4F3F4F088319832A833B834D
:103A0000B901A80147705070607070704115510580
:103A10006105710589F4692F6F70402F4150487F0F
:103A200082EC20E00E942D0488E799E60197F1F7E7
:103A3000088119812A813B81402F477081EC60E029
:103A40002D2D0E942D04E70188819981AA81BB81D7
:103A50000196A11DB11D88839983AA83BB834E89DA
:103A60005F89688D798D84179507A607B70708F0D9
:103A700051CCE985FA852FB7F894808191812FBFC9
:103A8000D82E092F488159816A817B81DB01CA01C7
:103A900087709070A070B0700097A105B105A9F46F
:103AA000DB01CA010197A109B1099F704150487F0C
:103AB00082EC692F20E00E942D0488E799E60197A7
:103AC000F1F7488159816A817B81477081EC60E020
:103AD000202F0E942D04F70180819181A281B38162
:103AE0008C019D010F5F1F4F2F4F3F4FE701008358
:103AF000118322833383B901A8014770507060702D
:103B00007070411551056105710589F4692F6F7059
:103B1000402F4150487F82EC20E00E942D0488E72E
:103B200099E60197F1F7088119812A813B81402F9D
:103B3000477081EC60E02D2D0E942D04E701888103
:103B40009981AA81BB810196A11DB11D88839983AA
:103B5000AA83BB834E895F89688D798D8417950709
:103B6000A607B70708F0D6CBEB85FC852FB7F894EE
:103B7000808191812FBFD82E092F488159816A8178
:103B80007B81DB01CA0187709070A070B0700097D4
:103B9000A105B105A9F4DB01CA010197A109B10989
:103BA0009F704150487F82EC692F20E00E942D04D5
:103BB00088E799E60197F1F7488159816A817B810D
:103BC000477081EC60E0202F0E942D04F701808176
:103BD0009181A281B3818C019D010F5F1F4F2F4FF7
:103BE0003F4FE7010083118322833383B901A8018A
:103BF0004770507060707070411551056105710516
:103C000089F4692F6F70402F4150487F82EC20E08B
:103C10000E942D0488E799E60197F1F70881198140
:103C20002A813B81402F477081EC60E02D2D0E945E
:103C30002D04E70188819981AA81BB810196A11D8C
:103C4000B11DF70188839983AA83BB834E895F895D
:103C5000688D798D84179507A607B70708F4B8CB48
:103C600059CBEF81F8852FB7F894808191812FBFD0
:103C7000082FD92E488159816A817B81442329F5F7
:103C80004A015B01089481089108A108B108240148
:103C9000350129E076946794579447942A95D1F793
:103CA000B501A401769567955795479540788CE4C2
:103CB000642D20E00E942D048CEB94E30197F1F732
:103CC000E701488159816A817B81842F8170880F47
:103CD000880F880F4A015B01B694A7949794879444
:103CE000806460E0482D2D2D0E942D04F701808115
:103CF0009181A281B381AC01BD014F5F5F4F6F4FD6
:103D00007F4FE70140835183628373834423E1F44F
:103D10004C015D01F9E0B694A79497948794FA95C5
:103D2000D1F7B695A79597958795482F40788CE45D
:103D3000682D20E00E942D048CEB94E30197F1F7AD
:103D4000488159816A817B81842F8170880F880F17
:103D5000880F4A015B01B694A79497948794806476
:103D600060E0482D202F0E942D04E7018881998171
:103D7000AA81BB810196A11DB11D88839983AA8365
:103D8000BB834E895F89688D798D84179507A60757
:103D9000B70708F0DCCBE985FA852FB7F894808166
:103DA00091812FBF082FD92E488159816A817B814B
:103DB000442321F54A015B01089481089108A10878
:103DC000B1082401350129E076946794579447940B
:103DD0002A95D1F7B501A401769567955795479532
:103DE00040788CE4642D20E00E942D048CEB94E359
:103DF0000197F1F7488159816A817B81842F817015
:103E0000880F880F880F4A015B01B694A794979496
:103E10008794806460E0482D2D2D0E942D04F701C9
:103E200080819181A281B381AC01BD014F5F5F4F61
:103E30006F4F7F4FE7014083518362837383442335
:103E4000E1F44C015D01F9E0B694A794979487944E
:103E5000FA95D1F7B695A79597958795482F40780D
:103E60008CE4682D20E00E942D048CEB94E30197F4
:103E7000F1F7488159816A817B81842F8170880F95
:103E8000880F880F4A015B01B694A7949794879492
:103E9000806460E0482D202F0E942D04E701888176
:103EA0009981AA81BB810196A11DB11D8883998347
:103EB000AA83BB834E895F89688D798D84179507A6
:103EC000A607B70708F043CBEB85FC852FB7F8941E
:103ED000808191812FBF082FD92E488159816A8115
:103EE0007B81442321F54A015B01089481089108F4
:103EF000A108B1082401350129E07694679457940C
:103F000047942A95D1F7B501A40176956795579501
:103F1000479540788CE4642D20E00E942D048CEBC2
:103F200094E30197F1F7488159816A817B81842F5D
:103F30008170880F880F880F4A015B01B694A7949F
:103F400097948794806460E0482D2D2D0E942D0465
:103F5000F70180819181A281B381AC01BD014F5FE6
:103F60005F4F6F4F7F4FE7014083518362837383BD
:103F70004423E1F44C015D01F9E0B694A7949794D1
:103F80008794FA95D1F7B695A79597958795482F79
:103F900040788CE4682D20E00E942D048CEB94E3A3
:103FA0000197F1F7488159816A817B81842F817063
:103FB000880F880F880F4A015B01B694A7949794E5
:103FC0008794806460E0482D202F0E942D04E70133
:103FD00088819981AA81BB810196A11DB11DF7013C
:103FE00088839983AA83BB834E895F89688D798D85
:103FF00084179507A607B70708F4EAC9A8CA0E945C
:1040000025190895CF93DF9300D000D00F92CDB73C
:10401000DEB760916E0280916F02643051F06031C2
:1040200041F00F900F900F900F900F90DF91CF9174
:104030000895853029F1863009F4D9C08D3009F40E
:1040400088C08E3009F45DC0833059F7603149F77C
:1040500080ED89831A821B821C821D821F9BF2C005
:104060008091DC009091DD0084FDDBCF2091ED009C
:1040700080E48093ED0080E090E0A0E8B6EC90C092
:10408000E4E0F1E0A491AA0FAA0FAA0F09F4D8C0A6
:104090009F0124503040A150B0E0AA0FBB1FAE5F7B
:1040A000BE4F40E050E0F90185919491480F591FAF
:1040B0002E5F3F4F2A173B07B1F7FE01319685E08F
:1040C000DF011D928A95E9F7E5E0F1E0E491EA83EA
:1040D0004D83643009F488C0603109F0A2CF1F9984
:1040E0009FC08091DC009091DD0084FD9ACF2091EB
:1040F000ED0080E48093ED0080E090E0A0E6B6EC77
:104100004FC01F9B8ECF80ED898387E790E00E9490
:104110002A508A8386E790E00E942A508B8385E7A5
:1041200090E00E942A508C8384E790E00E942A50FD
:104130008D838091DC009091DD0084FD72CF209111
:10414000ED0080E48093ED0080E090E0A0E0BAE92B
:1041500027C01F9966CF80ED898387E790E00E9492
:104160002A508A8386E790E00E942A508B8385E755
:1041700090E00E942A508C8384E790E00E942A50AD
:104180008D838091DC009091DD0084FD4ACF2091E9
:10419000ED0080E48093ED0080E090E0A0E0B8E9DD
:1041A0008093F0009093F100A093F200B093F3009D
:1041B00089818093FA008A818093FA008B818093B1
:1041C000FA008C818093FA008D818093FA0085E457
:1041D0008093EF002093ED000F900F900F900F90C1
:1041E0000F90DF91CF9108951F99A3CFCACF84E795
:1041F00090E0609173020E943E5085E790E06091EC
:1042000072020E943E5086E790E0609171020E9427
:104210003E5087E790E0609170020E943E5001CFCF
:104220008091DC009091DD0084FDFBCE2091ED00BB
:1042300080E48093ED0080E090E0A0E8B6ECB0CFA1
:1042400040E03BCF8091DC009091DD0084FDE9CE21
:104250002091ED0080E48093ED0080E090E0A0E606
:10426000B6EC9ECFCB010E94022008951F93CF93FE
:10427000DF93EB010E942A50182FCE010E942A5092
:1042800087FD15C08F77412F50E09A01220F331F11
:10429000440F551F440F551F440F551F240F351F42
:1042A000280F311DC901DF91CF911F910895412F32
:1042B00050E09A01220F331F440F551F440F551F22
:1042C000440F551F240F351F8F77281B3109C90153
:1042D000DF91CF911F9108950F931F93CF93DF9399
:1042E000FC013581832F90E02091BB012078307252
:1042F000232BDC01AF70B070AE5ABE4F3C91232B24
:10430000807C9070009709F08DC02093BB01808164
:1043100085FF73C010923C01A0912801B091290142
:104320001A961C92A0912A01B0912B011A961C9208
:104330001A97938181E095FF80E0C0912801D09188
:104340002901A0912A01B0912B018B871B968C9398
:104350002FB7F8948091080490910904A0910A0461
:10436000B0910B042FBF40919E0A50919F0A60911B
:10437000A00A7091A10A8C019D01041B150B260B4C
:10438000370BB901A801413A1FE0510710E061075E
:1043900010E0710708F0A7C080939E0A90939F0ACF
:1043A000A093A00AB093A10A868181FD37C02FB7E0
:1043B000F8948091080490910904A0910A04B091A6
:1043C0000B042FBF89352BE1920720E0A20720E0E4
:1043D000B20770F080914F01882351F08091500115
:1043E000882309F480C080915101882309F47BC09F
:1043F000DF91CF911F910F91089581E080933C014F
:10440000A0912801B09129011A968C93A0912A01BC
:10441000B0912B011A968C931A978BCF878186FDCA
:10442000E7CFC5CF2068A7E7B3E09FB7F894189609
:104430008C91189781FD4FC018968C91189782FD2A
:104440004AC018968C911897846018968C93189788
:104450009FBF8FB7F8944091080450910904609170
:104460000A0470910B048FBF48515C4F6F4F7F4F10
:104470006170707016964C93169717965C93179709
:10448000962F917018968C9118978E7F892B18967D
:104490008C93189711961C921E9288E591E01396C2
:1044A0009C938E93129715961C921E9214971896B1
:1044B0008C911897826018968C93189718968C9107
:1044C00018978B7F18968C931897809176038F5F3F
:1044D000809376031ACF9FBF199634E0A730B307B5
:1044E00009F0A3CF12CF0E9431121F990895CB017A
:1044F0000E946C2108951F9B0895CB010E946C219E
:1045000008950F931F93CF93DF930091B6011091FD
:10451000B701812F912F17FF03C021E020939B014A
:1045200096FD25C095FD23C0E0912801F091290159
:10453000808191819093BF018093BE01E0912A0117
:10454000F0912B01808191819093BD018093BC01FA
:1045500080914F01882309F424C1FEE00E3F1F071C
:1045600009F47FC0DF91CF911F910F910895909131
:104570004F01992339F010924F0190916E009D7F69
:1045800090936E0086FF3EC065E071E0FB01949160
:1045900031962491592F40E030E0242B352B309375
:1045A000C3012093C201FB0132969491FB01339623
:1045B0002491592F40E030E0242B352B3093C1015A
:1045C0002093C001FB0134969491FB013596249110
:1045D000592F40E030E0242B352B3093BF0120933E
:1045E000BE01FB0136969491695F7F4FFB01649198
:1045F000592F40E0262F30E0242B352B3093BD017E
:104600002093BC0185FFA9CFE801D070CC0FDD1F3E
:10461000CC0FDD1FCC0FDD1FCE010E9438509093D0
:10462000C2018093C301CE0102960E94385090933C
:10463000C001E0ECF1E08183CE0104960E94385085
:104640009093BE018093BF01CE0106960E94385020
:104650009093BC018093BD01FEE00E3F1F0709F05F
:1046600081CF80914F01882309F0AAC08AE190E0B0
:104670000E94FB4EDC0123982B9A229A219A209AC1
:104680008CB580658CBD8CB59DB58C7F9E7F81601F
:104690009DBD8CBD14961C92149743E052E020E619
:1046A0003AEE7CEA63E5249A2C98852F8A95F1F7F7
:1046B0002C9A852F8A95F1F72C98C9010197F1F76B
:1046C0007EBD0DB407FEFDCF6EBD0DB407FEFDCF60
:1046D0001EBC0DB407FEFDCF8EB51EBC0DB407FE8B
:1046E000FDCF833509F474C04150E9F614964C911E
:1046F000149786EB91E016969C938E9315979C01E8
:104700002250304018963C932E9317979C012450CA
:1047100030401A963C932E9319979C0126503040B6
:104720001C963C932E931B979C01245F3F4F1E9633
:104730003C932E931D979C01265F3F4F50963C93D0
:104740002E931F979C01285F3F4F52963C932E93C8
:104750005197069654969C938E935397442309F051
:1047600070C020E2822F9091B7012FB7F8949093F8
:10477000C3018093C2012FBFE5E9F1E0E491F0E0CD
:10478000EE0FFF1FEE0FFF1FEC55FE4FB2A3A1A3CC
:104790008FEF9FE194A383A3DF91CF911F910F919E
:1047A000089581E080934F0116BCA99A80916E0014
:1047B000826080936E000091B6011091B701CDCE5A
:1047C00010924F0180916E008D7F80936E004ECFCE
:1047D00081E014968C93149786EB91E016969C9347
:1047E0008E9315979C012250304018963C932E933F
:1047F00017979C01245030401A963C932E9319979A
:104800009C01265030401C963C932E931B979C0194
:10481000245F3F4F1E963C932E931D979C01265F6D
:104820003F4F50963C932E931F979C01285F3F4F1C
:1048300052963C932E935197069654969C938E9342
:10484000539720E08FCF0E9481220895CF93DF936A
:10485000CDB7DEB76C970FB6F894DEBF0FBECDBFF5
:1048600080E091E0FC01259134912115310509F496
:10487000EDC1FC016591749162957295707F762708
:10488000607F76276115710591F040E050E020E0EF
:1048900030E0F90185919491480F591F2E5F3F4FE9
:1048A00026173707B0F34115510509F0CDC10000B7
:1048B000000085E991E0FC012491E22FF0E0EE0F89
:1048C000FF1FEE0FFF1FEC55FE4F12A211A223E2B5
:1048D00034E234A323A3FC013497E491F0E0EE0F1B
:1048E000FF1FEE0FFF1FEC55FE4F12A211A228E68C
:1048F00031E034A323A30697FC018491E82FF0E074
:10490000EE0FFF1FEE0FFF1FEC55FE4F88E891E002
:1049100092A381A322EA3CE234A323A39093FF0253
:104920008093FE0287E19DE2909301038093000350
:104930001F9B7EC21092C3021092C20282E391E2D8
:104940009093C5028093C4021092CF021092CE02BF
:1049500085E792E29093D1028093D0021092D30225
:104960001092D2028BE792E29093D5028093D40208
:104970001092C7021092C6028FE392E19093C9028F
:104980008093C8021092CB021092CA0284E692E190
:104990009093CD028093CC0208E111E01093D702EE
:1049A0000093D60287E791E09093D9028093D802D2
:1049B0001092DB021092DA0281E49EE09093DD0215
:1049C0008093DC021092EB021092EA0286E49FE0F0
:1049D0009093ED028093EC021092DF021092DE02BF
:1049E0008CEB9CE09093E1028093E0021092EF0246
:1049F0001092EE0287E49CE09093F1028093F00223
:104A00001092E3021092E20289E390E19093E502B2
:104A10008093E4021092F3021092F2028EE391E18D
:104A20009093F5028093F4021092E7021092E6024E
:104A300089EB9DE09093E9028093E8021092F702DF
:104A40001092F60284E49DE09093F9028093F802BC
:104A50008AE190E01F9B03C10E94FB4EFC01138280
:104A600012821586148617861686118A138B028B7E
:104A700082E794E0958B848B178B068B8FEE92E008
:104A8000918F808FF0930703E093060389EF9BE4F7
:104A90009093090380930803F0930F03E0930E03B0
:104AA00087E69CE39093110380931003F093170320
:104AB000E093160387E298E4909319038093180318
:104AC00080914F01882351F481E080934F0116BCFF
:104AD000A99A80916E00826080936E00789424E0A1
:104AE00031E0F9016491660F660F660F09F431C277
:104AF00024503040615070E0660F771F6E5F7E4F2C
:104B000040E050E0F90185919491480F591F2E5FC4
:104B10003F4F26173707B1F7FE01359685E0DF01D5
:104B20001D928A95E9F7E5E0F1E0E491EE8349878B
:104B30001F9940C18091DC009091DD0084FD25C06B
:104B40002091ED0080E48093ED0080E090E0A0E013
:104B5000B8E98093F0009093F100A093F200B09335
:104B6000F3008D818093FA008E818093FA008F810B
:104B70008093FA0088858093FA0089858093FA00F3
:104B800085E48093EF002093ED0080E395E70197A3
:104B9000F1F78091DC009091DD0084FD25C020912B
:104BA000ED0080E48093ED0080E090E0A0E6B6ECBC
:104BB0008093F0009093F100A093F200B093F30083
:104BC0008D818093FA008E818093FA008F8180938B
:104BD000FA0088858093FA0089858093FA0085E43D
:104BE0008093EF002093ED001F8A1E8A8AEF92E0E7
:104BF000682F998F888F1B8E1A8E40E05F89798D80
:104C000080E09B8D28E53BE10E94800483B121E098
:104C100030E085FD02C020E030E08091A20A90E003
:104C2000822B932B8093A20A009709F44DC083B185
:104C300085FD4AC080E691E061E00E943E5081E639
:104C400091E061E00E943E500E943112FC013296D8
:104C5000259134912115310509F429CE0ACE0E94FF
:104C6000FB4EFC0113821282158614861786168667
:104C7000118A138B028B82E794E0958B848B178BC0
:104C8000068B8FEE92E0918F808FF0930303E09379
:104C9000020380E394E49093050380930403F0936C
:104CA0000B03E0930A0382E69AE390930D0380934B
:104CB0000C03F0931303E09312038EE590E49093BA
:104CC000150380931403FCCE3FB7F89490919C0A8F
:104CD00080919D0A981709F466C080919C0A90E023
:104CE000DC01AA0FBB1FA80FB91FAA0FBB1FA45638
:104CF000BB4F8D919C9111971296ED91FC9113975A
:104D000014966C91149715967C91159720919C0A96
:104D10002F5F20939C0A3FBF309709F00995A89513
:104D200007E713E006C0075F1F4FF4E007301F07D7
:104D3000C1F1F801808581FFF6CF2FB7F8948091FB
:104D4000080490910904A0910A04B0910B042FBFAC
:104D500089839A83AB83BC83D801908591708B81C2
:104D60008170981701F72681378189819A812817E8
:104D70003907C8F6648175810280F381E02D8D9139
:104D80009C910995F80180858D7F808780917603BD
:104D9000815080937603075F1F4FF4E007301F07B1
:104DA00041F6A89533CF60E070E0EFE4F1E080E0F9
:104DB00090E0B1CF8091DC009091DD0084FD25C0B2
:104DC0002091ED0080E48093ED0080E090E0A0E091
:104DD000BAE98093F0009093F100A093F200B093B1
:104DE000F3008D818093FA008E818093FA008F8189
:104DF0008093FA0088858093FA0089858093FA0071
:104E000085E48093EF002093ED0080E395E7019720
:104E1000F1F78091DC009091DD0084FDE5CE2091DA
:104E2000ED0080E48093ED0080E090E0A0E8BFCE4C
:104E300081E090E00E94FB4E8C01888B198B8DE302
:104E400099E0682F9B8B8A8B1D8A1C8AA8017B891D
:104E500080E09D8924EF31E00E9480040093AE023F
:104E60001093AF028AEA98E09093B1028093B00267
:104E70000093B2021093B3029093B5028093B402F0
:104E80000093B6021093B7029093B9028093B802D0
:104E90000093BA021093BB0288EF93E09093BD0297
:104EA0008093BC020093BE021093BF0289E893E096
:104EB0009093C1028093C00286E090E00E94FB4E76
:104EC0008C01DC011C9214961C921E92139715966D
:104ED0001C9280E390E00E943250DC01CB018630CE
:104EE0009105A105B10598F529E188E390E02C8FA3
:104EF0000E943250AB01BC012C8D30E0249FC001D8
:104F0000259F900D349F900D11248C599F4FF801CF
:104F1000928381831093FB020093FA0282EE94E065
:104F20009093FD028093FC02402F1B870A878DE43B
:104F30009BE0682F9D878C871F861E865B857D85FD
:104F400080E09F8524EF31E00E948004F3CC20E1D3
:104F5000CCCF40E050E0E0CDAC01FC01E852FF4F87
:104F6000845C9E4F2FE431E01182108233832283D0
:104F70003496E817F907C1F7CA0180569E4F11828F
:104F80001082338322833496E817F907C1F78091A2
:104F9000D80081608093D800E2EEF0E08091E200DA
:104FA00081788A608093E2008091E3008E60818343
:104FB0008091E40081788B6482838091ED008F7012
:104FC0008093ED0088E08093EF0085E090E0A0EE14
:104FD000BFEF8093F4009093F500A093F600B09398
:104FE000F7008091ED008F7080618093ED0088E084
:104FF0008093EF0085E08093F4009093F500A093F8
:10500000F600B093F7008091ED008F70806280937E
:10501000ED0088E08093EF0085E08093F4009093AA
:10502000F500A093F600B093F7008091ED008F702B
:1050300080638093ED0088E08093EF0080E0A0EC37
:10504000B3E68093F0009093F100A093F200B09348
:10505000F30085E0A0EEBFEF8093F4009093F5009D
:10506000A093F600B093F7008091ED008F708064FC
:105070008093ED0088E08093EF0085E08093F4005A
:105080009093F500A093F600B093F7008091ED00A7
:105090008F7080658093ED0088E08093EF0085E05D
:1050A0008093F4009093F500A093F600B093F7007E
:1050B0008091ED008F7080668093ED0088EC809386
:1050C000EF0080E0A0E0B9E08093F0009093F10061
:1050D000A093F200B093F30085E0A0EEBFEF8093C1
:1050E000F4009093F500A093F600B093F700809140
:1050F000ED008F7080678093ED0088E88093EF006B
:1051000080E0A0E0BAE08093F0009093F100A093DB
:10511000F200B093F30085E0A0EABEEF8093F400C4
:105120009093F500A093F600B093F7008091ED0006
:105130008F7080688093ED0088EC8093EF0080E0B2
:10514000A0E0BEE08093F0009093F100A093F20005
:10515000B093F30085E0A0EEBFEF8093F40090934E
:10516000F500A093F600B093F7008091ED008F70EA
:1051700080698093ED0088E88093EF0080E0A0E0F4
:10518000B0E18093F0009093F100A093F200B0930F
:10519000F30085E0A0E4BFEF8093F4009093F50066
:1051A000A093F600B093F7008091ED008F70806AB5
:1051B0008093ED0088E88093EF0080E0A0E2B2E405
:1051C0008093F0009093F100A093F200B093F3006D
:1051D00085E0A0E6BFEF8093F4009093F500A093E4
:1051E000F600B093F7008091ED008F70806B809394
:1051F000ED0088E88093EF0080E0A0E4BAE48093BB
:10520000F0009093F100A093F200B093F30085E0DA
:10521000A0E8B7ED8093F4009093F500A093F6001A
:10522000B093F7008091ED008F70806C8093ED005B
:1052300088E88093EF0080E0A0E0BDE88093F00074
:105240009093F100A093F200B093F30085E0A0EEFC
:10525000B8EF8093F4009093F500A093F600B0931C
:10526000F7008091ED008F70806D8093ED0088ECE9
:105270008093EF0080E0A0E8BCEE8093F000909374
:10528000F100A093F200B093F30085E0A0EEBFEF31
:105290008093F4009093F500A093F600B093F7008C
:1052A0008091ED008F70806E8093ED0088E8809390
:1052B000EF0080E0A0E0B0EF8093F0009093F10069
:1052C000A093F200B093F30085E0A0E8BFEF8093D5
:1052D000F4009093F500A093F600B093F70080EEF1
:1052E0009FE79093DF008093DE008091DB00806B6E
:1052F0008093DB0050935504409354048EED95E069
:1053000090935704809356048091D80082608093D4
:10531000D8008091D90082FFFCCF08952F923F9250
:105320004F925F926F927F928F929F92AF92BF92B5
:10533000CF92DF92EF92FF920F931F93CF93DF9361
:1053400000D0CDB7DEB73C011B01B9011A83098338
:105350004F88588CDC0111963C922E92FC011282EF
:105360001382148215821696CD92DD92ED92FC92F4
:10537000199782869386A486B58621E0268785E9DB
:1053800087BD84B580788A6084BD70925D04609228
:105390005C0489E295E090935F0480935E04758AD3
:1053A000648A83E593E0978B868B718E608E83E6AB
:1053B00093E0938F828F148E82E0858F168E278FD5
:1053C00090961D921D921D921C92939794961C92FA
:1053D000949796965C934E93959798967C936E933C
:1053E0009797E981FA819A96FC93EE9399979B9609
:1053F0001D921D921D921C929E978AE09F968C93FF
:105400009F97D0961C92D097D2961C921E92D197BD
:10541000D3961C92D397D4961C92D497D5961C926F
:10542000D597D6961C92D697D7961C92D797D89692
:105430001C92D897D9961C9289E090E00E942A503D
:10544000F82E882483948822C3B084E290E00E94DE
:10545000FB4E8C01FC0151824082B20180E090E061
:105460002FE334E243E050E00E94744E28E630E13E
:1054700040E050E00E94BA4ED80112962D933D9321
:105480004D935C93159716968C92169717961C92CF
:10549000179718961C9218978C2D8095881F88272F
:1054A000881F19968C9319971A961C921A971D9615
:1054B0001C921E921C971F961C921E921E9751962C
:1054C0001C921E92509753961C921E92529755967C
:1054D0001C921E92549756961C92569757961C9261
:1054E000579759961C921E9258975B961C921E9243
:1054F0005A975C961C925C9791E0811090E09170B5
:10550000892F880F892BF801858F168E81E0878F70
:105510003C9A3D9AD30151961C930E9350978F2C31
:1055200086948822F3B084E290E00E94FB4E8C01C6
:10553000298D3A8DFC0131832083B90180E090E010
:105540002FE334E243E050E00E94744E28E630E15D
:1055500040E050E00E94BA4ED80112962D933D9340
:105560004D935C93159716968C92169717961C92EE
:10557000179718961C9218978F2D881F8827881FB9
:1055800019968C9319971A961C921A971D961C922D
:105590001E921C971F961C921E921E9751961C924B
:1055A0001E92509753961C921E92529755961C929B
:1055B0001E92549756961C92569757961C92579740
:1055C00059961C921E9258975B961C921E925A975F
:1055D0005C961C925C9791E0811090E09170892F0D
:1055E000880F892BF801858F168E81E0878F3C9A72
:1055F0003D9AD30153961C930E935297F101B096A6
:1056000011823C9A3D9A2FB7F89484E790E0E981A3
:10561000FA81918380832FBF9796ED91FC919897A3
:105620008FB7F894118210828FBFE7E7F3E09FB73E
:10563000F894808581FD48C0808582FD45C08085C5
:10564000846080879FBF2FB7F89480910804909161
:105650000904A0910A04B0910B042FBF8C509E4FF7
:10566000AF4FBF4FA170B070868397839A2F917010
:1056700080858E7F892B8087718260828DE598E39B
:1056800093838283158214828085826080878085DF
:105690008B7F8087809176038F5F809376030F9056
:1056A0000F90DF91CF911F910F91FF90EF90DF90BE
:1056B000CF90BF90AF909F908F907F906F905F90B2
:1056C0004F903F902F9008959FBF3996B4E0E730F8
:1056D000FB0709F0ACCFE3CF2F923F924F925F923E
:1056E0006F927F928F929F92AF92BF92CF92DF92F2
:1056F000EF92FF920F931F93CF93DF93CDB7DEB757
:105700002B970FB6F894DEBF0FBECDBFFB01C08054
:10571000D180E280F380C701B6012CE030E040E0A8
:1057200050E00E94744E6D837E838F8398878EE055
:1057300090E00E945605880F991F880F991F0197C6
:105740002C0166247724160181E090E09B878A87EC
:1057500031C0682D592D4A2D7B2D862E952EA42ED5
:10576000B72E281739070CF46AC04B815C814B8334
:105770005C83281739070CF469C099818A81998361
:105780008A834A855B854034510508F469C084E00A
:1057900090E02A853B85289F7001299FF00C389F57
:1057A000F00C1124FB86EA86A70184E041305807FB
:1057B00008F061C02A853B856901EE24FF246D81D4
:1057C0007E818F819885A70196010E94BA4E89013A
:1057D0009A010150104020403040401651066206A8
:1057E000730610F493018201B8016F5F7F4F80E070
:1057F00090E0A70196010E94744E2CE030E040E05A
:1058000050E00E94BA4E69017A01C40182199309DD
:1058100097FD2DC096012219330937FD24C02817A2
:1058200039070CF096CF6C2D5D2D4E2D7F2D862ED9
:10583000952EA42EB72E281739070CF096CFA80165
:105840004B835C83281739070CF097CF9A858B859B
:1058500099838A834A855B854034510508F097CF48
:1058600088E090E096CF309521953F4FD8CF909526
:1058700081959F4FCFCFEB80FC80F0928900E09222
:10588000880029813A812034310509F458C0213437
:10589000310508F442C049815A8181E040305807FF
:1058A00009F447C094E04030590709F43FC0998596
:1058B000977080918100887F892B809381008091EF
:1058C0008000909181008C7F977E986090938100FA
:1058D000809380008F738093800080916F0082603E
:1058E00080936F00B401C5012B960FB6F894DEBF0C
:1058F0000FBECDBFDF91CF911F910F91FF90EF9021
:10590000DF90CF90BF90AF909F908F907F906F90DF
:105910005F904F903F902F9008952130310561F0B6
:105920002830310521F6E2E0E987C1CF35E039873B
:10593000BECF24E02987BBCF41E04987B8CFF3E051
:10594000F987B5CFAF92BF92CF92DF92EF92FF92DD
:105950000F931F93CF93DF9300D000D0CDB7DEB766
:105960005C011091AB018091AD0181FF43C0112317
:1059700009F440C08EE190E09093190180931801E2
:1059800080916F00826080936F00F501818118170C
:10599000E1F11183E0912801F09129016081718189
:1059A00080E090E028EF36E041E050E00E94744E45
:1059B00028EE33E040E050E00E94BA4E69017A01DF
:1059C000212F30E040E050E0C701B6010E94BA4EFE
:1059D00089019A0109831A832B833C8307391105B6
:1059E0002105310590F0C501BE016F5F7F4F0E9418
:1059F0006C2B0BC086E090E0909319018093180106
:105A000080916F008D7F80936F0081E0F50182832C
:105A10000F900F900F900F90DF91CF911F910F91EA
:105A2000FF90EF90DF90CF90BF90AF900895AF922E
:105A3000BF92CF92DF92EF92FF920F931F93CF937B
:105A4000DF9300D000D0CDB7DEB75C0110918602A5
:105A5000112309F44BC08EE190E0909319018093DB
:105A6000180180916F00826080936F00F501818141
:105A7000181751F11183E0912801F09129016081FB
:105A8000718180E090E028EF36E041E050E00E9434
:105A9000744E28EE33E040E050E00E94BA4E6901B7
:105AA0007A01212F30E040E050E0C701B6010E94AA
:105AB000BA4E89019A0109831A832B833C830739E3
:105AC000110521053105F0F481E0F50182830F9085
:105AD0000F900F900F90DF91CF911F910F91FF903A
:105AE000EF90DF90CF90BF90AF90089586E090E068
:105AF000909319018093180180916F008D7F80939E
:105B00006F00E2CFC501BE016F5F7F4F0E946C2B1B
:105B1000DBCF4F925F926F927F928F929F92AF9264
:105B2000BF92CF92DF92EF92FF920F931F93CF938A
:105B3000DF93CDB7DEB760970FB6F894DEBF0FBE28
