:100000000C9488000C9474060C949F060C94CA06F9
:100010000C94F5060C9420070C944B070C9476076F
:100020000C94A1070C94CC070C94F7070C942208AD
:100030000C944D080C9478080C94A3080C94CE08EA
:100040000C94F9080C9424090C944F090C947A0927
:100050000C94A5090C94D0090C94FB090C94260A65
:100060000C94510A0C947C0A0C94A70A0C94D20AA2
:100070000C94FD0A0C94280B0C94530B0C947E0BDF
:100080000C94A90B0C94D40B0C94FF0B0C942A0C1D
:080090000C94550C2C253125C0
:1001000000000000006919110101000095DFD9FD10
:1001100011241FBECFEFD0E1DEBFCDBF14BE88E1FA
:100120000FB6F89480936000109260000FBE11E04B
:10013000A0E0B1E0EEE2FEE402C005900D92A8332B
:10014000B107D9F719E0A8E3B1E001C01D92A134CD
:10015000B107E1F72DE088E190E00FB6F894A8959B
:10016000809360000FBE20936000259810E0C6E9E0
:10017000D0E004C02297FE010E94A825C439D1070F
:10018000C9F70E9462110C940A27000102000000C6
:10019000030000000000000000000000000000005C
:1001A00000008E8D8C8B060504030000000000000B
:1001B000000000000000000000000000000000003F
:1001C000000000000000000000000000000000002F
:1001D000000000000000000000000000000000001F
:1001E000000000000000000000008A8988870201EA
:1001F00000000000000000000000000000000000FF
:1002000000000000000000000000000000000000EE
:1002100000000000000000000000000000000000DE
:1002200000000000000000000000000000000000CE
:1002300000000000000000000000000000000000BE
:1002400000000000000000000000000000000000AE
:10025000000000000000000000000000000000009E
:10026000000000000000000000000000000000008E
:10027000000000000000000000000000000000007E
:10028000000000000000000000000000000000006E
:100290000000000000000000000008950895809113
:1002A000EF01809361028091F0018093620280915E
:1002B000F101809363028091EC0180936702809149
:1002C000ED01809368028091EE01809369020895A8
:1002D000FC0184818430F1F0853059F18630B1F130
:1002E000873019F08F5F84830895A081B181AF704A
:1002F000B070AF5EBE4F8C918093CE008091C900EC
:100300008F7DA8ECB0E011968C93119784818F5F5C
:10031000848308952181822F82958F7090E08F5E73
:100320009E4FDC018C918093CE0084818F5F84830B
:100330000895A181B0E0AF70B070AF5EBE4F8C91F8
:100340008093CE0084818F5F84830895A081B181E2
:10035000B295A295AF70AB27BF70AB27ECCFFC0175
:100360008085882371F40190F081E02D9081892FA0
:100370008F71843041F0883029F0907890619083BB
:10038000089510860895991F9927991F909597951C
:10039000992797959860908308958EBD0DB407FEB8
:1003A000FDCF6EBD0DB407FEFDCF4EBD0DB407FEF3
:1003B000FDCF2EBD0DB407FEFDCF8EB50895AB0168
:1003C000BC01DB01CA010197A109B1099F7041502D
:1003D000487F82EC692F20E00E94CD0188E799E6F2
:1003E0000197F1F70895FC015C9AA8ECB0E08091C8
:1003F000C900806111968C9311978481883009F02F
:1004000008958091C80081608093C8005C9A8091B3
:10041000C900806111968C93119714820895FC0194
:1004200085818F5F85838F3F09F008959FB7F8948A
:1004300020913909809139098F5F80933909309172
:1004400038098317B1F09FBF30E080819181A2818C
:10045000B381F901EE0FFF1FE20FF31FEE0FFF1F35
:10046000E95CFC4F81839283A383B4831682158257
:100470000895809138098F5F80933809E4CF809187
:100480007C02982F909520913B09922390FF03C006
:1004900091E090936B0183FD03C091E090936B0119
:1004A00080933B0908959C0166B19FB7F8944091F1
:1004B0003909809139098F5F809339095091380942
:1004C0008517C9F09FBF50E0CA01880F991F840F9C
:1004D000951F880F991FFC01E85CFC4F3183208336
:1004E00025EA34E233832283FC01E95CFC4F658317
:1004F000168278940895809138098F5F8093380927
:10050000E1CF9FB7F89420913909809139098F5F25
:1005100080933909309138098317C1F09FBF30E0CB
:10052000C901880F991F820F931F880F991FFC0123
:10053000E85CFC4F1182108226EC34E03383228386
:10054000895C9C4FFC0116821582089580913809C0
:100550008F5F80933809E2CFCF93DF939C01409166
:10056000ED008091EC00807F8093ED008091EE00A3
:100570008F7D8093EE00B091EF00BF705091F2003C
:100580005295569557706091F300762F770F770F3D
:10059000770F872F852B962F929596959770880FBA
:1005A000991F82959295907F9827807F98278B0F2F
:1005B000911D59E08530950709F462C0EAE0883062
:1005C0009E0709F40DC1FAE088349F0709F40BC1B6
:1005D0005BE08830950709F41BC1EBE088349E0787
:1005E00009F404C1FEE081309F0709F417C15CE003
:1005F0008130950709F41EC1E0E180309E0709F4BF
:100600001FC1F0E180389F0709F420C150E181301B
:10061000950709F409C1E0E181389E0709F41CC17E
:10062000F0E180329F0709F41DC150E1803A95073F
:1006300009F41BC1E0E181329E0709F41FC1F0E11A
:10064000813A9F0709F41DC158E1873E950709F4D7
:1006500021C1E2E488329E0709F425C1FAE4853419
:100660009F0709F426C152E68530950709F41EC19B
:10067000EDE887309E0709F0A8C063E170E002C092
:1006800060E070E0BB2381F0FB01EE0FFF1FEE0F77
:10069000FF1FEE0FFF1FE20FF31F50E0A091FA00C3
:1006A000A1935F5F5B17D0F3F2E685309F0709F4F3
:1006B00057C059E08530950709F4A4C0EAE48534B1
:1006C0009E0709F4A2C0FEE081309F0709F4A3C091
:1006D00052E48832950709F492C0EDE887309E070E
:1006E00009F4A5C0FAE088309F0709F4A6C05BE0D2
:1006F0008830950709F4A7C0E8E1873E9E0709F412
:1007000090C0F0E180309F0709F4A3C050E1803829
:10071000950709F4A4C0E0E180329E0709F4A8C05F
:10072000F0E1803A9F0709F4A6C050E181309507B7
:1007300009F4AAC0E0E181389E0709F4A8C0F0E1FD
:1007400081329F0709F4ACC050E1813A950709F462
:10075000A4C0ECE081309E07C1F581E190E002C0C9
:1007600080E090E0EB01CC0FDD1FCC0FDD1FCC0F44
:10077000DD1FC20FD31F7FB7F894609139095091E4
:1007800039095F5F50933909E09138095E1789F1A3
:100790007FBF70E08896880F991F880F991F820F7E
:1007A000931FFC0180819181A281B381FB01EE0F37
:1007B000FF1FE60FF71FEE0FFF1FE95CFC4F818361
:1007C0009283A383B483D683C5838091EF008F7314
:1007D00080688093EF004093ED00DF91CF91089502
:1007E00061E070E04FCF62E070E04CCF64E070E019
:1007F00049CF509138095F5F50933809C9CF84E0E1
:1008000090E0B0CF81E090E0ADCF82E090E0AACF61
:1008100063E070E037CF83E090E0A4CF65E070E064
:1008200031CF88E090E09ECF69E070E02BCF85E08B
:1008300090E098CF66E070E025CF86E090E092CF20
:1008400067E070E01FCF87E090E08CCF68E070E059
:1008500019CF89E090E086CF6AE070E013CF8AE09C
:1008600090E080CF6BE070E00DCF6CE070E00ACFDD
:100870008BE090E077CF8CE090E074CF6DE070E09B
:1008800001CF6EE070E0FECE8DE090E06BCF8EE0A9
:1008900090E068CF6FE070E0F5CE80E190E062CF4D
:1008A0008FE090E05FCF60E170E0ECCE62E170E05D
:1008B000E9CE61E170E0E6CE1F9B1BC08FB7F894D4
:1008C0009091660120916901909369018FBF809199
:1008D00067018F5F80936701E0915F01F091600194
:1008E00080818F7D808380916801890F821B809336
:1008F000680108951F991BC08FB7F8949091660105
:1009000020916901909369018FBF809167018F5F8A
:1009100080936701E0915F01F091600180818F7D9C
:10092000808380916801890F821B809368010895FC
:10093000809172018F5F809372018E3209F0089569
:10094000809170008D7F809370002FB7F8943FB72F
:10095000F8948091870290918802907F909388020A
:10096000809387023FBF2FBF2FB7F8943FB7F8940B
:1009700080918B0290918C029F7790938C02809350
:100980008B023FBF2FBF1092720108955FB7F8949A
:1009900040913A09842F90E0FC01EE0FFF1FE80F11
:1009A000F91FE55AFD4F618172818091880290E0C4
:1009B0008F709070242F2295207F30E0822B932B14
:1009C0009081909387028093880270938502609350
:1009D00086025FBF4F5F40933A09453009F00895A2
:1009E00010923A0908950F931F93CF93DF938B01D1
:1009F000FB018081880F880FC82FD0E0C05EDF4FD9
:100A0000CE0164810E94E926CE010196F80163813E
:100A10000E94E926CE010296F80162810E94E92631
:100A2000CE010396F80161810E94E9261F9906C054
:100A30008091DC009091DD0084FF05C0DF91CF91B3
:100A40001F910F91089580E48093ED0080E090E085
:100A5000A0E6B2E68093F0009093F100A093F2003C
:100A6000B093F300F80180818093FA008181809334
:100A7000FA0082818093FA0083818093FA00848156
:100A80008093FA0085E48093EF00DF91CF911F916E
:100A90000F9108951F9908952FB7F89480916601DA
:100AA00090916901382F391B809369012FBF809184
:100AB00067018F5F80936701E0915F01F0916001B2
:100AC00080818062808350916801530F5093680148
:100AD000343210F160916A01662369F5550F509325
:100AE0006801408140784066446010926A01852F19
:100AF00084598931A0F54F7780916C01E0915F01B5
:100B0000F0916001481781F180818F7B8083409351
:100B10006C0110926801089580916A018F5FAFE5C2
:100B2000B1E01B968C931B97833009F0B4CF808182
:100B30008F7B8083089540814078406622E030E0DA
:100B4000261B310981E090E002C0880F991F2A9589
:100B5000E2F78F71482B633040F24F7BC6CF5D5A6E
:100B60005A31C8F44068C8CF46FF13C0808184273B
:100B700087FD13C080916B0110927001882329F0CA
:100B8000E0916E01F0916F011082E0915F01F091B0
:100B900060014083BCCF4F7BAFCF80916B01882336
:100BA00031F010926B01109270014083B0CFE09150
:100BB0006E01F0916F01809170018083DBCF1F9BEC
:100BC00008952FB7F8948091660190916901382FAC
:100BD000391B809369012FBF809167018F5F8093DC
:100BE0006701E0915F01F091600180818062808304
:100BF00050916801530F50936801343210F16091A5
:100C00006A01662369F5550F509368014081407869
:100C10004066446010926A01852F84598931A0F59D
:100C20004F7780916C01E0915F01F091600148176E
:100C300081F180818F7B808340936C0110926801E9
:100C4000089580916A018F5FAFE5B1E01B968C93A8
:100C50001B97833009F0B4CF80818F7B8083089508
:100C600040814078406622E030E0261B310981E077
:100C700090E002C0880F991F2A95E2F78F71482BE8
:100C8000633040F24F7BC6CF5D5A5A31C8F440689A
:100C9000C8CF46FF13C08081842787FD13C0809191
:100CA0006B0110927001882329F0E0916E01F091A0
:100CB0006F011082E0915F01F09160014083BCCF31
:100CC0004F7BAFCF80916B01882331F010926B0185
:100CD000109270014083B0CFE0916E01F0916F01EE
:100CE000809170018083DBCF1F920F920FB60F921D
:100CF00011242F933F934F935F936F937F938F9321
:100D00009F93AF93BF93EF93FF93E0913503F091DF
:100D1000360380913303909134030995FF91EF914D
:100D2000BF91AF919F918F917F916F915F914F9103
:100D30003F912F910F900FBE0F901F9018951F920B
:100D40000F920FB60F9211242F933F934F935F93FF
:100D50006F937F938F939F93AF93BF93EF93FF9383
:100D6000E0913103F091320380912F039091300391
:100D70000995FF91EF91BF91AF919F918F917F91D5
:100D80006F915F914F913F912F910F900FBE0F90F8
:100D90001F9018951F920F920FB60F9211242F9348
:100DA0003F934F935F936F937F938F939F93AF93F3
:100DB000BF93EF93FF93E0912D03F0912E03809169
:100DC0002B0390912C030995FF91EF91BF91AF9167
:100DD0009F918F917F916F915F914F913F912F9153
:100DE0000F900FBE0F901F9018951F920F920FB685
:100DF0000F9211242F933F934F935F936F937F93A1
:100E00008F939F93AF93BF93EF93FF93E091290349
:100E1000F0912A0380912703909128030995FF916F
:100E2000EF91BF91AF919F918F917F916F915F9162
:100E30004F913F912F910F900FBE0F901F901895DB
:100E40001F920F920FB60F9211242F933F934F933F
:100E50005F936F937F938F939F93AF93BF93EF9322
:100E6000FF93E0912503F091260380912303909155
:100E700024030995FF91EF91BF91AF919F918F91BD
:100E80007F916F915F914F913F912F910F900FBE86
:100E90000F901F9018951F920F920FB60F9211246A
:100EA0002F933F934F935F936F937F938F939F9372
:100EB000AF93BF93EF93FF93E0912103F09122034F
:100EC00080911F03909120030995FF91EF91BF91AD
:100ED000AF919F918F917F916F915F914F913F91D2
:100EE0002F910F900FBE0F901F9018951F920F9289
:100EF0000FB60F9211242F933F934F935F936F93ED
:100F00007F938F939F93AF93BF93EF93FF93E09162
:100F10001D03F0911E0380911B0390911C03099502
:100F2000FF91EF91BF91AF919F918F917F916F91C1
:100F30005F914F913F912F910F900FBE0F901F9097
:100F400018951F920F920FB60F9211242F933F9373
:100F50004F935F936F937F938F939F93AF93BF93C1
:100F6000EF93FF93E0911903F0911A038091170317
:100F7000909118030995FF91EF91BF91AF919F91C7
:100F80008F917F916F915F914F913F912F910F9032
:100F90000FBE0F901F9018951F920F920FB60F92D1
:100FA00011242F933F934F935F936F937F938F936E
:100FB0009F93AF93BF93EF93FF93E0911503F0914D
:100FC000160380911303909114030995FF91EF91FB
:100FD000BF91AF919F918F917F916F915F914F9151
:100FE0003F912F910F900FBE0F901F9018951F9259
:100FF0000F920FB60F9211242F933F934F935F934D
:101000006F937F938F939F93AF93BF93EF93FF93D0
:10101000E0911103F091120380910F03909110035E
:101020000995FF91EF91BF91AF919F918F917F9122
:101030006F915F914F913F912F910F900FBE0F9045
:101040001F9018951F920F920FB60F9211242F9395
:101050003F934F935F936F937F938F939F93AF9340
:10106000BF93EF93FF93E0910D03F0910E038091F6
:101070000B0390910C030995FF91EF91BF91AF91F4
:101080009F918F917F916F915F914F913F912F91A0
:101090000F900FBE0F901F9018951F920F920FB6D2
:1010A0000F9211242F933F934F935F936F937F93EE
:1010B0008F939F93AF93BF93EF93FF93E0910903B7
:1010C000F0910A0380910703909108030995FF911D
:1010D000EF91BF91AF919F918F917F916F915F91B0
:1010E0004F913F912F910F900FBE0F901F90189529
:1010F0001F920F920FB60F9211242F933F934F938D
:101100005F936F937F938F939F93AF93BF93EF936F
:10111000FF93E0910503F091060380910303909102
:1011200004030995FF91EF91BF91AF919F918F912A
:101130007F916F915F914F913F912F910F900FBED3
:101140000F901F9018951F920F920FB60F921124B7
:101150002F933F934F935F936F937F938F939F93BF
:10116000AF93BF93EF93FF93E0910103F0910203DC
:101170008091FF02909100030995FF91EF91BF913B
:10118000AF919F918F917F916F915F914F913F911F
:101190002F910F900FBE0F901F9018951F920F92D6
:1011A0000FB60F9211242F933F934F935F936F933A
:1011B0007F938F939F93AF93BF93EF93FF93E091B0
:1011C000FD02F091FE028091FB029091FC020995D4
:1011D000FF91EF91BF91AF919F918F917F916F910F
:1011E0005F914F913F912F910F900FBE0F901F90E5
:1011F00018951F920F920FB60F9211242F933F93C1
:101200004F935F936F937F938F939F93AF93BF930E
:10121000EF93FF93E091F902F091FA028091F702C7
:101220009091F8020995FF91EF91BF91AF919F9135
:101230008F917F916F915F914F913F912F910F907F
:101240000FBE0F901F9018951F920F920FB60F921E
:1012500011242F933F934F935F936F937F938F93BB
:101260009F93AF93BF93EF93FF93E091F502F091BB
:10127000F6028091F3029091F4020995FF91EF91AB
:10128000BF91AF919F918F917F916F915F914F919E
:101290003F912F910F900FBE0F901F9018951F92A6
:1012A0000F920FB60F9211242F933F934F935F939A
:1012B0006F937F938F939F93AF93BF93EF93FF931E
:1012C000E091F102F091F2028091EF029091F00230
:1012D0000995FF91EF91BF91AF919F918F917F9170
:1012E0006F915F914F913F912F910F900FBE0F9093
:1012F0001F9018951F920F920FB60F9211242F93E3
:101300003F934F935F936F937F938F939F93AF938D
:10131000BF93EF93FF93E091ED02F091EE02809185
:10132000EB029091EC020995FF91EF91BF91AF9183
:101330009F918F917F916F915F914F913F912F91ED
:101340000F900FBE0F901F9018951F920F920FB61F
:101350000F9211242F933F934F935F936F937F933B
:101360008F939F93AF93BF93EF93FF93E091E90225
:10137000F091EA028091E7029091E8020995FF91CD
:10138000EF91BF91AF919F918F917F916F915F91FD
:101390004F913F912F910F900FBE0F901F90189576
:1013A0001F920F920FB60F9211242F933F934F93DA
:1013B0005F936F937F938F939F93AF93BF93EF93BD
:1013C000FF93E091E502F091E6028091E3029091B3
:1013D000E4020995FF91EF91BF91AF919F918F9199
:1013E0007F916F915F914F913F912F910F900FBE21
:1013F0000F901F9018951F920F920FB60F92112405
:101400002F933F934F935F936F937F938F939F930C
:10141000AF93BF93EF93FF93E091E102F091E2026B
:101420008091DF029091E0020995FF91EF91BF91C9
:10143000AF919F918F917F916F915F914F913F916C
:101440002F910F900FBE0F901F9018951F920F9223
:101450000FB60F9211242F933F934F935F936F9387
:101460007F938F939F93AF93BF93EF93FF93E091FD
:10147000DD02F091DE028091DB029091DC020995A1
:10148000FF91EF91BF91AF919F918F917F916F915C
:101490005F914F913F912F910F900FBE0F901F9032
:1014A00018951F920F920FB60F9211242F933F930E
:1014B0004F935F936F937F938F939F93AF93BF935C
:1014C000EF93FF93E091D902F091DA028091D70275
:1014D0009091D8020995FF91EF91BF91AF919F91A3
:1014E0008F917F916F915F914F913F912F910F90CD
:1014F0000FBE0F901F9018951F920F920FB60F926C
:1015000011242F933F934F935F936F937F938F9308
:101510009F93AF93BF93EF93FF93E091D502F09128
:10152000D6028091D3029091D4020995FF91EF9158
:10153000BF91AF919F918F917F916F915F914F91EB
:101540003F912F910F900FBE0F901F9018951F92F3
:101550000F920FB60F9211242F933F934F935F93E7
:101560006F937F938F939F93AF93BF93EF93FF936B
:10157000E091D102F091D2028091CF029091D002FD
:101580000995FF91EF91BF91AF919F918F917F91BD
:101590006F915F914F913F912F910F900FBE0F90E0
:1015A0001F9018951F920F920FB60F9211242F9330
:1015B0003F934F935F936F937F938F939F93AF93DB
:1015C000BF93EF93FF93E091CD02F091CE02809113
:1015D000CB029091CC020995FF91EF91BF91AF9111
:1015E0009F918F917F916F915F914F913F912F913B
:1015F0000F900FBE0F901F9018951F920F920FB66D
:101600000F9211242F933F934F935F936F937F9388
:101610008F939F93AF93BF93EF93FF93E091C90292
:10162000F091CA028091C7029091C8020995FF917A
:10163000EF91BF91AF919F918F917F916F915F914A
:101640004F913F912F910F900FBE0F901F901895C3
:101650001F920F920FB60F9211242F933F934F9327
:101660005F936F937F938F939F93AF93BF93EF930A
:10167000FF93E091C502F091C6028091C302909160
:10168000C4020995FF91EF91BF91AF919F918F9106
:101690007F916F915F914F913F912F910F900FBE6E
:1016A0000F901F9018951F920F920FB60F92112452
:1016B0002F933F934F935F936F937F938F939F935A
:1016C000AF93BF93EF93FF93E091C102F091C202F9
:1016D0008091BF029091C0020995FF91EF91BF9157
:1016E000AF919F918F917F916F915F914F913F91BA
:1016F0002F910F900FBE0F901F9018951F920F9271
:101700000FB60F9211242F933F934F935F936F93D4
:101710007F938F939F93AF93BF93EF93FF93E0914A
:10172000BD02F091BE028091BB029091BC0209956E
:10173000FF91EF91BF91AF919F918F917F916F91A9
:101740005F914F913F912F910F900FBE0F901F907F
:1017500018951F920F920FB60F9211242F933F935B
:101760004F935F936F937F938F939F93AF93BF93A9
:10177000EF93FF93E091B902F091BA028091B70222
:101780009091B8020995FF91EF91BF91AF919F9110
:101790008F917F916F915F914F913F912F910F901A
:1017A0000FBE0F901F9018951F920F920FB60F92B9
:1017B00011242F933F934F935F936F937F938F9356
:1017C0009F93AF93BF93EF93FF93E091B502F09196
:1017D000B6028091B3029091B4020995FF91EF9106
:1017E000BF91AF919F918F917F916F915F914F9139
:1017F0003F912F910F900FBE0F901F9018951F9241
:101800000F920FB60F9211242F933F934F935F9334
:101810006F937F938F939F93AF93BF93EF93FF93B8
:10182000E091B102F091B2028091AF029091B002CA
:101830000995FF91EF91BF91AF919F918F917F910A
:101840006F915F914F913F912F910F900FBE0F902D
:101850001F9018951F920F920FB60F9211242F937D
:101860003F934F935F936F937F938F939F93AF9328
:10187000BF93EF93FF93E091AD02F091AE028091A0
:10188000AB029091AC020995FF91EF91BF91AF919E
:101890009F918F917F916F915F914F913F912F9188
:1018A0000F900FBE0F901F9018951F920F920FB6BA
:1018B0000F9211242F933F934F935F936F937F93D6
:1018C0008F939F93AF93BF93EF93FF93E091A90200
:1018D000F091AA028091A7029091A8020995FF9128
:1018E000EF91BF91AF919F918F917F916F915F9198
:1018F0004F913F912F910F900FBE0F901F90189511
:10190000FC01A781B0858FB7F8944D915C918FBF92
:10191000A185B2858FB7F8942D913C918FBFA38597
:10192000B4856FB7F8948D919C9111976FBF5083D8
:10193000418332831382268B978B808F118E08957B
:101940000F931F93CF93DF9300D000D00F92CDB7AA
:10195000DEB71F9949C0FC0120818130910509F44F
:101960004DC0022F10E0000F111F000F111F005E6D
:101970001F4F2983C80103960E94DB268A83C80172
:1019800002960E94DB268B83C80101960E94DB260B
:101990008C83C8010E94DB268D838091DC009091AE
:1019A000DD0084FD21C080E48093ED0080E090E0C4
:1019B000A0E6B2E68093F0009093F100A093F200CD
:1019C000B093F30089818093FA008A818093FA00B2
:1019D0008B818093FA008C818093FA008D818093B3
:1019E000FA0085E48093EF000F900F900F900F9016
:1019F0000F90DF91CF911F910F9108950CE710E0A8
:101A0000B8CFCB010E94A00C0895CF93DF9300D0F4
:101A100000D00F92CDB7DEB720910B0230910C02AF
:101A2000243051F0203141F00F900F900F900F9023
:101A30000F90DF91CF910895353099F1363009F448
:101A4000CDC03D3009F480C03E3009F457C033307A
:101A500059F7203149F780ED898399B181E094FFEE
:101A600080E087958827879590916E02892B8A83DD
:101A70008091C8008B838091C9008C838091CA00BB
:101A80008D831F9BD2C08091DC009091DD0084FD8E
:101A9000CBCF80E48093ED0080E090E0A0E8B6EC4E
:101AA00078C082E091E0FC01549139964491DE01C6
:101AB0001196FD0111923A95E9F70396FC01849184
:101AC0008A83852F90E0841B9109541B592B5D83D9
:101AD000243009F480C0203109F0A6CF1F9997C0A7
:101AE0008091DC009091DD0084FD9ECF80E48093A6
:101AF000ED0080E090E0A0E6B6EC4BC01F9B94CFD9
:101B000080ED898387E790E00E94DB268A8386E761
:101B100090E00E94DB268B8385E790E00E94DB2625
:101B20008C8384E790E00E94DB268D838091DC002B
:101B30009091DD0084FD78CF80E48093ED0080E01B
:101B400090E0A0E0BAE925C01F996ECF80ED8983AF
:101B500087E790E00E94DB268A8386E790E00E9478
:101B6000DB268B8385E790E00E94DB268C8384E76D
:101B700090E00E94DB268D838091DC009091DD0057
:101B800084FD52CF80E48093ED0080E090E0A0E0FF
:101B9000B8E98093F0009093F100A093F200B09325
:101BA000F30089818093FA008A818093FA008B8107
:101BB0008093FA008C818093FA008D818093FA00E3
:101BC00085E48093EF000F900F900F900F900F908F
:101BD000DF91CF9108951F99A9CFCECF84E790E0F0
:101BE000609110020E94E92685E790E060910F0263
:101BF0000E94E92686E790E060910E020E94E926A5
:101C000087E790E060910D020E94E9260DCF809158
:101C1000DC009091DD0084FD07CF80E48093ED002F
:101C200080E090E0A0E8B6ECB4CF8091DC00909129
:101C3000DD0084FDF9CE80E48093ED0080E090E04B
:101C4000A0E6B6ECA6CFCB010E94050D08958091C9
:101C5000A30186FF07C08F73853299F0863218F48E
:101C6000813249F10895873281F18932D9F72FB74E
:101C7000F8943FB7F8948091870290918802916020
:101C800009C02FB7F8943FB7F894809187029091DC
:101C90008802946090938802809387023FBF2FBF91
:101CA000109272011092B200B99A80917000826015
:101CB0008093700008952FB7F8943FB7F8948091FF
:101CC0008702909188029260E5CF2FB7F8943FB7D2
:101CD000F89480918702909188029860909388028E
:101CE000809387023FBF2FBF109272011092B20003
:101CF000B99A809170008260809370000895CB0142
:101D00000E94270E08951F93CF93DF93EB010E944B
:101D1000DB26182FCE010E94DB2687FD15C08F77AA
:101D2000412F50E09A01220F331F440F551F440FDB
:101D3000551F440F551F240F351F280F311DC90192
:101D4000DF91CF911F910895412F50E09A01220F0A
:101D5000331F440F551F440F551F440F551F240FA9
:101D6000351F8F77281B3109C901DF91CF911F9152
:101D70000895CF92DF92EF92FF920F931F9340E06E
:101D800050E060E070E04091F6015091F701609101
:101D9000F80180910001882351F0109200014093D6
:101DA00038015093390160933A0170933B01E091FF
:101DB0005901F0E0EE0FFF1FE85CFE4FA585B685E8
:101DC0009196EC919197F0E0EE0FFF1FEA0FFB1F49
:101DD00021853285832F881F8827881F90E0220F56
:101DE000331F822B932B8F3F9105D1F1C8F1C09007
:101DF0003801D0903901E0903A01F0903B014C1944
:101E00005D096E097F09CA0157FD44C021E0853F85
:101E100092076CF51092400192968C9192971796CA
:101E20009C911797892780FF2CC04A315105610585
:101E30007105B4F0CB01BA0122E030E040E050E09F
:101E40000E948B2589019A010C0D1D1D2E1D3F1D21
:101E5000009338011093390120933A0130933B01EC
:101E60001F910F91FF90EF90DF90CF90089581E048
:101E7000809340011F910F91FF90EF90DF90CF90E2
:101E80000895473E8FEF58078FEF68078FEF780769
:101E90003CF7D0CF909581959F4F21E0853F9207E9
:101EA0000CF4B8CFE4CFCB010E94B90E0895FC0129
:101EB000828180935B02818180935C022381822FE7
:101EC00090E0807C90709595879595958795908109
:101ED0009F74982B90935D02822F8F7090915F0278
:101EE000892B80935F028481809360023581832FE8
:101EF00090E020918C0220783072232BDC01AF70AF
:101F0000B070AF5FBE4F3C91232B807C90700097E8
:101F100059F02068109272011092B200B99A809123
:101F2000700082608093700020938C02908181E029
:101F300095FD80E08093410181E080934201089506
:101F40001F990895CB010E94570F08951F9B089574
:101F5000CB010E94570F08950F931F93CF93DF93E8
:101F60000091830210918402812F912F17FF03C0EB
:101F700021E020936C0296FD02C095FF19C190915B
:101F80005E01913009F481C186FF3BC065E071E0DC
:101F9000FB01949131962491592F40E030E0242B9D
:101FA000352B3093940220939302FB013296949147
:101FB000FB0133962491592F40E030E0242B352B40
:101FC0003093920220939102FB013496A591B49133
:101FD0004B2F50E03A2F20E0242B352B30939002EA
:101FE00020938F026A5F7F4FFB0165917491272FC9
:101FF00030E0562F40E0242B352B30938E02209377
:102000008D0285FD09C0FEE00E3F1F0789F1DF91BB
:10201000CF911F910F910895E801D070CC0FDD1F73
:10202000CC0FDD1FCC0FDD1FCE010E94E326909365
:10203000930280939402CE0102960E94E32690932D
:102040009102E1E9F2E08183CE0104960E94E32649
:1020500090938F0280939002CE0106960E94E32611
:1020600090938D0280938E02FEE00E3F1F0779F65B
:1020700080915E01813009F415C18AE190E00E94EF
:10208000AC25DC0123982B9A229A219A209A8CB5B0
:1020900080658CBD8CB59DB58C7F9E7F81609DBD1C
:1020A0008CBD14961C92149743E052E020E63AEE61
:1020B0007CEA63E5249A2C98852F8A95F1F72C9A6F
:1020C000852F8A95F1F72C98C9010197F1F77EBD0C
:1020D0000DB407FEFDCF6EBD0DB407FEFDCF1EBCD7
:1020E0000DB407FEFDCF8EB51EBC0DB407FEFDCFAF
:1020F000833509F48FC04150E9F614964C9114973A
:1021000083E892E016969C938E9315979C0122503B
:10211000304018963C932E9317979C0124503040E2
:102120001A963C932E9319979C01265030401C968A
:102130003C932E931B979C01205F3F4F1E963C9330
:102140002E931D979C01225F3F4F50963C932E93F8
:102150001F979C01245F3F4F52963C932E935197BB
:102160000A9654969C938E935397442309F08BC000
:1021700020E2822F909184022FB7F89490939402DA
:10218000809393022FBFE0E9F1E0E491F0E0EE0FDD
:10219000FF1FEE0FFF1FED58FD4FB4A3A3A383E66F
:1021A00097E196A385A3DF91CF911F910F91089599
:1021B000E0914501F09146018181928190939002D6
:1021C00080938F02E0914701F091480181819281D3
:1021D00090938E0280938D0280915E01882309F096
:1021E00012CF81E080935E0116BCA99A80916E00A7
:1021F000826080936E001092850010928400B19AE4
:1022000080916F00826080936F0000918302109133
:102210008402F9CE81E014968C93149783E892E0BF
:1022200016969C938E9315979C01225030401896D9
:102230003C932E9317979C01245030401A963C9360
:102240002E9319979C01265030401C963C932E9358
:102250001B979C01205F3F4F1E963C932E931D972A
:102260009C01225F3F4F50963C932E931F979C01F9
:10227000245F3F4F52963C932E9351970A96549663
:102280009C938E93539720E074CF10925E019091AF
:102290006E009D7F90936E0090916F009D7F909354
:1022A0006F0072CE10925E0180916E008D7F8093E0
:1022B0006E0080916F008D7F80936F00DECE0E9454
:1022C000AC0F0895CF93DF9300D000D00F92CDB71D
:1022D000DEB780E991E0FC012491E22FF0E0EE0FFF
:1022E000FF1FEE0FFF1FED58FD4F14A213A22FE5A5
:1022F00031E136A325A3FC013497E491F0E0EE0F21
:10230000FF1FEE0FFF1FED58FD4F14A213A22FE386
:1023100032E036A325A30597FC018491E82FF0E075
:10232000EE0FFF1FEE0FFF1FED58FD4F14A213A27B
:1023300081E892E096A385A31092140210921302F2
:1023400083EF94E090931602809315021092180286
:102350001092170290931A028093190210921C0295
:1023600010921B0290931E0280931D021092200275
:1023700010921F0281E09DE090932202809321023F
:10238000109224021092230283E59FE0909326028C
:1023900080932502109228021092270283E29EE089
:1023A00090932A028093290210922C0210922B0201
:1023B00080EA9FE090932E0280932D0210923002CB
:1023C00010922F0286EA9FE09093320280933102AE
:1023D00010923402109233028FE491E0909336020F
:1023E0008093350210925802109257028FE79EE0B8
:1023F00090935A0280935902109238021092370239
:102400008AE495E090933A02809339021092480250
:102410001092470290934A028093490210923C0224
:1024200010923B028AE794E090933E0280933D0233
:1024300010924C0210924B0290934E0280934D02E8
:102440001092400210923F028FED95E0909342026D
:10245000809341021092500210924F0290935202C8
:102460008093510210924402109243028CE594E052
:1024700090934602809345021092540210925302A8
:10248000909356028093550280915E018823A1F4B7
:1024900081E080935E0116BCA99A80916E008260F3
:1024A00080936E001092850010928400B19A809102
:1024B0006F00826080936F00789482E091E0FC016D
:1024C000349139962491FE01319645E0DF011D9249
:1024D0004A95E9F70396FC0184918A83832F90E063
:1024E000821B9109321B392B3D831F99AAC0809111
:1024F000DC009091DD0084FD21C080E48093ED003C
:1025000080E090E0A0E0B8E98093F0009093F100C3
:10251000A093F200B093F30089818093FA008A813E
:102520008093FA008B818093FA008C818093FA006B
:102530008D818093FA0085E48093EF0080E395E736
:102540000197F1F78091DC009091DD0084FDCBC014
:1025500080E48093ED0080E090E0A0E6B6EC80930C
:10256000F0009093F100A093F200B093F300898102
:102570008093FA008A818093FA008B818093FA001D
:102580008C818093FA008D818093FA0085E480939A
:10259000EF0040913C0983B121E030E085FD02C0AD
:1025A00020E030E0842F90E0822B932B482F809303
:1025B0003C09882389F083B185FD0EC0F89428E09A
:1025C00088E190E00FB6F894A895809360000FBE64
:1025D000209360000000FECF3FB7F8949091380937
:1025E00080913909981731F18091380990E0DC0128
:1025F000AA0FBB1FA80FB91FAA0FBB1FA85CBC4F17
:102600008D919C9111971296ED91FC9113971496D0
:102610006C91149715967C911597209138092F5F2E
:10262000209338093FBF309719F0099540913C0934
:10263000A895B1CF60E070E0EDE4F1E080E090E0DB
:10264000F1CF8091DC009091DD0084FD21C080E419
:102650008093ED0080E090E0A0E0BAE98093F00084
:102660009093F100A093F200B093F30089818093DE
:10267000FA008A818093FA008B818093FA008C8122
:102680008093FA008D818093FA0085E48093EF00B7
:1026900080E395E70197F1F78091DC009091DD00F0
:1026A00084FD21C080E48093ED0080E090E0A0E80C
:1026B000B6EC8093F0009093F100A093F200B093F9
:1026C000F30089818093FA008A818093FA008B81DC
:1026D0008093FA008C818093FA008D818093FA00B8
:1026E00085E48093EF0040913C0955CFBF92CF9293
:1026F000DF92EF92FF920F931F93CF93DF93EC0142
:10270000062FB72E488159816A817B81DB01CA017E
:102710008F779070A070B0700097A105B105F9F4A3
:1027200041505040604070406A017B01A9E0F6943E
:10273000E794D794C794AA95D1F77695679557955E
:10274000479540788CE46C2D20E00E94CD018CEB05
:1027500094E30197F1F7488159816A817B81842F45
:102760008170880F880F880F6A017B01F694E794C7
:10277000D794C794806460E04C2D202F0E94CD0137
:10278000088119812A813B81B901A8014F5F5F4F00
:102790006F4F7F4F488359836A837B83DB01CA0174
:1027A0008F779070A070B0700097A105B105E9F423
:1027B0006801790149E0F694E794D794C7944A9563
:1027C000D1F7B901A8017695679557954795407857
:1027D0008CE46C2D20E00E94CD018CEB94E30197FA
:1027E000F1F7488159816A817B81842F8170880F3C
:1027F000880F880F8A019B013695279517950795B5
:10280000806460E0402F2B2D0E94CD01888199814A
:10281000AA81BB810196A11DB11D88839983AA83DA
:10282000BB83DF91CF911F910F91FF90EF90DF90CD
:10283000CF90BF900895FF920F931F93CF93DF9394
:10284000EC01062FF72E488159816A817B81DB01DB
:10285000CA0187709070A070B0700097A105B10593
:10286000A9F4DB01CA010197A109B1099F70415088
:10287000487F82EC692F20E00E94CD0188E799E62D
:102880000197F1F7488159816A817B81477081EC1A
:1028900060E0202F0E94CD0188819981AA81BB81AF
:1028A0008C019D010F5F1F4F2F4F3F4F08831983EE
:1028B0002A833B83B901A801477050706070707023
:1028C000411551056105710589F4692F6F70402F1D
:1028D0004150487F82EC20E00E94CD0188E799E6D4
:1028E0000197F1F7088119812A813B81402F4770B8
:1028F00081EC60E02F2D0E94CD0188819981AA8111
:10290000BB810196A11DB11D88839983AA83BB83D6
:10291000DF91CF911F910F91FF900895FF920F9338
:102920001F93CF93DF93EC01088119812A813B81AA
:10293000802F8170880F880F880FB901A801E9E006
:102940007695679557954795EA95D1F736952795EA
:10295000179507958062642F402F20E00E94CD01DB
:10296000F82E088119812A813B810F5F1F4F2F4F5D
:102970003F4F088319832A833B83802F8170880F00
:10298000880F880FB901A801A9E07695679557953A
:102990004795AA95D1F736952795179507958062A3
:1029A000642F402F20E00E94CD01982F488159814B
:1029B0006A817B814F5F5F4F6F4F7F4F48835983A1
:1029C0006A837B838F2DDF91CF911F910F91FF90B1
:1029D0000895FF920F931F93CF93DF93EC014881EB
:1029E0006981677080EA20E00E94CD01F82E08819D
:1029F00019812A813B810F5F1F4F2F4F3F4F088363
:102A000019832A833B83612F677080EA402F20E07F
:102A10000E94CD01982F488159816A817B814F5F47
:102A20005F4F6F4F7F4F488359836A837B838F2D1E
:102A3000DF91CF911F910F91FF900895FF920F9317
:102A40001F93CF93DF938C01DC011596ED91FC91E0
:102A5000169780812181813209F4A8C0823208F062
:102A600067C0813109F4A2C0823108F0F4C083301C
:102A700009F415C1843009F4D4C0882309F07BC05F
:102A8000E8018D89813209F465C1823208F021C1E3
:102A9000813109F4F5C1823109F06DC0EF81F8850B
:102AA0008FB7F894208131818FBFC801632F722FB7
:102AB0000E947613E801E985FA858FB7F8942081A2
:102AC00031818FBFC801632F722F0E947613EB856F
:102AD000FC858FB7F894208131818FBFC801632FA7
:102AE000722F0E94761388819981AA81BB814E89B9
:102AF0005F89688D798D84179507A607B70708F059
:102B0000A2C1AD85BE85ED81FE8182E091812FB7A6
:102B1000F89411969C938E932FBFD8011D96ED913A
:102B2000FC911E9715960D90BC91A02D80E01BC0C6
:102B3000813339F1823308F094C0833209F4AFC095
:102B4000833208F03EC082E2F801858BC8010E9402
:102B5000800CD8011D96ED91FC911E9715960D9055
:102B6000BC91A02D82E011969C9111972FB7F894FB
:102B7000918380832FBFDF91CF911F910F91FF90A1
:102B80000895D80155968C9355971D96ED91FC911B
:102B90001E9781E0922F2FB7F894918380832FBFE7
:102BA000DF91CF911F910F91FF900895E8018D8BD8
:102BB000C8010E94800CED85FE85AD81BE8181E05B
:102BC000D2CF8432C1F6E801688179818A819B8104
:102BD0000E94DF01F80180819181A281B381019778
:102BE000A109B1099C01AD0169E05695479537955A
:102BF00027956A95D1F7B695A79597958795982FBC
:102C000090788CE4622F492F20E00E94CD018CEB5C
:102C100094E30197F1F7D8011596ED91FC91169781
:102C20002181E801ED85FE8584E0922F2FB7F8948D
:102C3000918380832FBF24982C9AF89428E088E110
:102C400090E00FB6F894A895809360000FBE209393
:102C500060000000FECF833111F1833170F482E116
:102C600073CF8333E1F0833388F482E3F801858BFB
:102C70000584F685E02D82E08DCF843109F4AACF5A
:102C8000DF91CF911F910F91FF900895843309F444
:102C9000C8CFDF91CF911F910F91FF900895E80168
:102CA000ED85FE8583E0922F2FB7F8949183808382
:102CB0002FBF8CEA60E840E020E00E94CD0188E769
:102CC00099E60197F1F7ED85FE85AD81BE8180E043
:102CD0004ACF813309F487C0823309F480C082323D
:102CE00009F049CFE801EF81F8858FB7F89420818A
:102CF00031818FBFC801632F722F0E941B14E98599
:102D0000FA858FB7F894208131818FBFC801632F76
:102D1000722F0E941B14EB85FC858FB7F8942081DD
:102D200031818FBFC801632F722F0E941B146881ED
:102D300079818A819B812E893F89488D598D6217BF
:102D400073078407950708F047C0AD85BE85ED8100
:102D5000FE81DBCE0F84D889C02DC8010E94E91402
:102D6000292F382F8FB7F894398328838FBFD80144
:102D70005196CD91DC915297C8010E94E914292FF8
:102D8000382F8FB7F894398328838FBFF801C38910
:102D9000D489C8010E94E914292F382F8FB7F894DD
:102DA000398328838FBFD8014D915D916D917C91BE
:102DB000139756968D919D910D90BC91A02D8417DF
:102DC0009507A607B70708F4A8CEE801ED85FE85AC
:102DD000AD81BE8181E0C7CE0E94DF019ECEED8530
:102DE000FE8580E0D7CE0F84D889C02D88E568E0C5
:102DF00040E020E00E94CD01F82E80E560E040E058
:102E000020E00E94CD012F2D382F8FB7F894398301
:102E100028838FBFD8015196CD91DC91529780E5E0
:102E200068E040E020E00E94CD0120E0382F8FB71D
:102E3000F894398328838FBFE801ED85FE85AD8145
:102E4000BE8180E090CE0197A109B1099C01AD013E
:102E500069E056954795379527956A95D1F7B695C8
:102E6000A79597958795982F90788CE4622F492F96
:102E700020E00E94CD018CEB94E30197F1F74DCE59
:102E80000F84D889C02DC8010E948E14292F382F95
:102E90008FB7F894398328838FBFD8015196CD918D
:102EA000DC915297C8010E948E14292F382F8FB7BA
:102EB000F894398328838FBFF801C389D489C80166
:102EC0000E948E1469CF0E941E150895AC01FC016A
:102ED000E056FF4F88519F4F2DE431E01182108260
:102EE000338322833496E817F907C1F78091D8001D
:102EF00081608093D800E2EEF0E08091E20081787A
:102F00008A608093E2008091E3008E6081838091EB
:102F1000E40081788B6482838091ED008F708093D0
:102F2000ED0088E08093EF0085E090E0A0EEBFEF39
:102F30008093F4009093F500A093F600B093F7000F
:102F40008091ED008F7080618093ED0088E0809328
:102F5000EF0085E08093F4009093F500A093F600D5
:102F6000B093F7008091ED008F7080628093ED0048
:102F700087E08093EF0080E0B3E68093F0009093C9
:102F8000F100A093F200B093F30085E0BFEF8093CF
:102F9000F4009093F500A093F600B093F7008091B1
:102FA000ED008F7080638093ED0088E08093EF00E8
:102FB00080E0A0ECB3E68093F0009093F100A09342
:102FC000F200B093F30085E0A0EEBFEF8093F40031
:102FD0009093F500A093F600B093F7008091ED0078
:102FE0008F7080648093ED0088E08093EF0085E02F
:102FF0008093F4009093F500A093F600B093F7004F
:103000008091ED008F7080658093ED0088EC809357
:10301000EF0080E0A0E0B9E08093F0009093F10031
:10302000A093F200B093F30085E0A0EEBFEF809391
:10303000F4009093F500A093F600B093F700809110
:10304000ED008F7080668093ED0088E88093EF003C
:1030500080E0A0E0BAE08093F0009093F100A093AC
:10306000F200B093F30085E0A0EABFEF8093F40094
:103070009093F500A093F600B093F7008091ED00D7
:103080008F7080678093ED0088E88093EF0080E088
:10309000A0E0BBE08093F0009093F100A093F200D9
:1030A000B093F30085E0A0EABFEF8093F400909323
:1030B000F500A093F600B093F7008091ED008F70BB
:1030C00080688093ED0088E88093EF0080E0A0E0C6
:1030D000BEE08093F0009093F100A093F200B093D3
:1030E000F30085E0A0EEBDEF8093F4009093F5002F
:1030F000A093F600B093F7008091ED008F70806987
:103100008093ED0088E88093EF0080E0A0E0B0E1DC
:103110008093F0009093F100A093F200B093F3003D
:1031200085E0A0E6BFEF8093F4009093F500A093B4
:10313000F600B093F7008091ED008F70806A809365
:10314000ED0088E88093EF0080E0A0E2B0E180939A
:10315000F0009093F100A093F200B093F30085E0AB
:10316000A0E6BFEF8093F4009093F500A093F600E3
:10317000B093F7008091ED008F70806B8093ED002D
:1031800088EC8093EF0080E0A0EEB8E18093F0003F
:103190009093F100A093F200B093F30085E0BFEFAD
:1031A0008093F4009093F500A093F600B093F7009D
:1031B0008091ED008F70806C8093ED0088EC80939F
:1031C000EF0080E0A0E2B2E48093F0009093F10081
:1031D000A093F200B093F30085E0A0EEBFEF8093E0
:1031E000F4009093F500A093F600B093F70080915F
:1031F000ED008F70806D8093ED0088E88093EF0084
:1032000080E0A0E4BAE48093F0009093F100A093F2
:10321000F200B093F30085E0A0EAB7ED8093F400EC
:103220009093F500A093F600B093F7008091ED0025
:103230008F70806E8093ED0088EC8093EF0080E0CB
:10324000A0E0BDE88093F0009093F100A093F2001D
:10325000B093F30085E0A0EEBFEF8093F40090936D
:10326000F500A093F600B093F70080EE9FE79093EF
:10327000DF008093DE008091DB00806A8093DB00BA
:103280005093F0024093EF028CEA92E09093F202A6
:103290008093F1028091D80082608093D800809161
:1032A000D90082FFFCCF08958F929F92AF92BF9278
:1032B000CF92DF92EF92FF920F931F93CF93DF9302
:1032C00081309105D9F0009761F48091450190918A
:1032D00046010E94422680914701909148010E9438
:1032E0004226DF91CF911F910F91FF90EF90DF90D9
:1032F000CF90BF90AF909F908F900895E8E3F3E058
:103300008DE491E01182108293838283369629E0C6
:10331000E833F207B9F710923403109233038EE4C6
:1033200091E090933603809335031092300310920E
:103330002F03909332038093310310922C03109249
:103340002B0390932E0380932D0310922803109249
:10335000270390932A038093290310922403109249
:103360002303909326038093250310922003109249
:103370001F03909322038093210310921C03109249
:103380001B0390931E0380931D0310921803109249
:10339000170390931A038093190310921403109249
:1033A0001303909316038093150310921003109249
:1033B0000F03909312038093110310920C03109249
:1033C0000B0390930E0380930D0310920803109249
:1033D000070390930A038093090310920403109249
:1033E0000303909306038093050310920003109249
:1033F000FF0290930203809301031092FC0210924B
:10340000FB029093FE028093FD021092F80210924C
:10341000F7029093FA028093F9021092F40210924C
:10342000F3029093F6028093F5021092F00210924C
:10343000EF029093F2028093F1021092EC0210924C
:10344000EB029093EE028093ED021092E80210924C
:10345000E7029093EA028093E9021092E40210924C
:10346000E3029093E6028093E5021092E00210924C
:10347000DF029093E2028093E1021092DC0210924C
:10348000DB029093DE028093DD021092D80210924C
:10349000D7029093DA028093D9021092D40210924C
:1034A000D3029093D6028093D5021092D00210924C
:1034B000CF029093D2028093D1021092CC0210924C
:1034C000CB029093CE028093CD021092C80210924C
:1034D000C7029093CA028093C9021092C40210924C
:1034E000C3029093C6028093C5021092C00210924C
:1034F000BF029093C2028093C1021092BC0210924C
:10350000BB029093BE028093BD021092B80210924B
:10351000B7029093BA028093B9021092B40210924B
:10352000B3029093B6028093B5021092B00210924B
:10353000AF029093B2028093B1021092AC0210924B
:10354000AB029093AE028093AD021092A80210924B
:10355000A7029093AA028093A902109209001092E8
:10356000730210927202909375028093740210920B
:1035700078021092770210927A02109279021092D9
:103580007C0210927B0210927E0210927D021092B9
:10359000800210927F021092820210928102109299
:1035A0008402109283021092860210928502109279
:1035B00088021092870210928A0210928902109259
:1035C0008C0210928B0210928E0210928D02109239
:1035D000900210928F021092920210929102109219
:1035E000940210929302C6E9D2E0198218829B835A
:1035F0008A83249632E0C63AD307B9F71092700254
:1036000010926F0210927102539A5B9A52985A9AD2
:10361000549A27982F9A0AE612E01093B802009362
:10362000B70281E79EE19093BA028093B9021093AA
:10363000B0020093AF0283EF91E09093B2028093C7
:10364000B1021093B4020093B30288E691E0909324
:10365000B6028093B502E8ECF0E08091C800826089
:103660008093C8008CE08093CC008091CD00807F57
:103670008093CD009091C9008091CA0086608778C0
:1036800082839C6C9183BB24B394D8011296BC9224
:1036900012978091C80081608093C8005C9A8091E5
:1036A000C9008061818314961C9283E791E00E9497
:1036B0006617109214031092130388E994E0909314
:1036C0001603809315038EEF8093B3008091B000B2
:1036D00080788F608093B0008091700082608093CA
:1036E00070008FE5E82E81E0F82ECE014D97909383
:1036F000600180935F01C70102969093C802809396
:10370000C7028FE092E09093CA028093C90287E9D2
:103710009AE3909399008093980080919100887F1C
:1037200082608093910080919000909191008C7FB5
:10373000977E986090939100809390008F73809310
:1037400090008091710082608093710010926601F8
:1037500024EEC22E2FEFD22ECC0EDD1ED0926F01A2
:10376000C0926E01F0926201E09261018FEA91E0F5
:103770009093640180936301B0926B0182E090E0CA
:103780006CE070E00E94830E5C0182E090E06DE0EE
:1037900070E00E94830E4C0128E331E01092380162
:1037A0001092390110923A0110923B01D0923D01E2
:1037B000C0923C01C701419690933F0180933E0126
:1037C0003093F8022093F70283E592E09093FA0297
:1037D0008093F90285E987BD84B580788A6084BDCD
:1037E00080916E00826080936E0030930803209376
:1037F000070386EB92E290930A038093090383EE1A
:1038000097E5909389008093880080918100887F5C
:1038100084608093810080918000909181008C7FF2
:10382000977E986090938100809380008F7380933F
:10383000800080916F00826080936F000D5F1F4F4A
:1038400010934A0100934901CE01439790934C0194
:1038500080934B016597D0934E01C0934D018EE547
:1038600092E09093500180934F01069690935201FD
:10387000809351018AE08093570189E090E00E9493
:10388000DB26E82E082F017013B184E290E00E943D
:10389000AC25E82FEF016E01D92EE6011882BA821D
:1038A000A982B50180E090E02FE334E243E050E0EC
:1038B0000E94362528E630E140E050E00E9469256C
:1038C0002B833C834D835E830F83812F8095881FDC
:1038D0008827881F888781E08BA308270AA33C9A42
:1038E0003D9AD0924601C09245011E2D1695117049
:1038F00003B184E290E00E94AC25282FE9016E011B
:10390000D92EE60118829A828982B40180E090E083
:103910002FE334E243E050E00E94362528E630E110
:1039200040E050E00E9469252B833C834D835E83F9
:103930001F83802F881F8827881F888781E08BA39B
:1039400018271AA33C9A3D9AD0924801C092470189
:1039500017B83C9A3D9AC5CCCF93DF93DC01C8ECF5
:10396000D0E08091C8008871B1F08091C900809149
:10397000CE008091C80081608093C8005C9A8091DD
:10398000C9008061E8ECF0E0818314961C921497E2
:10399000DF91CF9108959091C90096959170809193
:1039A000CE00282F22952F70E92FF0E0E295F295B6
:1039B000F07FFE27E07FFE27EF5EFE4FE20FF11D56
:1039C00030818317B1F614968C911497913009F0D9
:1039D00094C08823B9F506C0843009F01EC114963E
:1039E0001C921497922F990F990F990F17968C91FB
:1039F00017978770892B17968C9317978091C8001B
:103A00008E7F8093C80014968C911497823009F4AD
:103A100098C0833009F712968C911297882309F485
:103A2000A8CF12968C9112978F5F12968C93129753
:103A300012968C911297853009F09BCF12961C92AA
:103A4000129797CF813011F717969C91179790682E
:103A500017969C9317978F5F14968C9314978830C2
:103A600009F096CF8091C80081608093C8005C9A6D
:103A70008091C9008061E8ECF0E0818314961C928B
:103A800014971796EC911797F0E0E656FE4FE491E5
:103A9000EF77F0E015968D919C911697DF01AA0FB4
:103AA000BB1FA958BD4F8C9311969C931197809181
:103AB000A60280FD6DCF8091A60282608093A6024F
:103AC0007894E657FE4FE491AE2FB0E0AA0FBB1FEB
:103AD000AA0FBB1FAD58BD4F9596ED91FC919697DF
:103AE00093968D919C91949709958091A6028D7FD4
:103AF0008093A602DF91CF910895882309F439CFEE
:103B00008130D9F08230E9F0833009F4B0C08430DC
:103B100009F083C016961C921E9215972295207F5D
:103B200016968C9116978F70822B16968C931697FB
:103B300085E014968C9314972BCF82E014968C9387
:103B40001497822F86958695817091E01F9B90E057
:103B5000891709F00ECF922F969596959695990F05
:103B6000990F17968C911797887F2370892B822B3A
:103B700017968C93179712968C911297882309F0B9
:103B800048C0C8ECD0E08091C9008F7E89835C98E2
:103B90001396EC911397F0E0EF70F070EF5EFE4F2C
:103BA00080818093CE0083E014968C9314971796AF
:103BB000EC911797F0E0E656FE4FE491E7FD02C066
:103BC00084E0B7CF9091A602969591708091A6025D
:103BD0008E7F892B8093A602F0E0EF77F070EE0FD6
:103BE000FF1FE958FD4F2FB7F894808191812FBFB7
:103BF00016969C938E93159715968D919C9116977A
:103C00008C9311969C931197F8948091C9008062CF
:103C1000898314968C9114971ECF853091F086304D
:103C2000D1F0873009F017CF15968C911597807FCA
:103C3000822B15968C93159788E014968C93149785
:103C400011CF16968C911697807F822B16968C93A7
:103C5000169786E06ECF2295207F15968C9115974A
:103C60008F70822B15968C93159787E062CF1796ED
:103C7000EC911797F0E0E656FE4FE491E7FFA0CFF6
:103C80009091A602969591708091A6028E7F892BC5
:103C90008093A602F0E0EF77F070EE0FFF1FE95877
:103CA000FD4F2FB7F894808191812FBF16969C937A
:103CB0008E9315978091C9008F7E89835C981596A5
:103CC0008D919C9116978C9311969C931197F894D3
:103CD0008091C9008062898314968C9114978F5FBC
:103CE000BBCE0E94AC1C0895DF92EF92FF920F931F
:103CF0001F93CF93DF93CDB7DEB76F970FB6F894CE
:103D0000DEBF0FBECDBFDC0178941D962D913C9196
:103D10001E971F964D915C915097F90181A1E82F54
:103D2000F0E0EE0FFF1FE20FF31F61857285605C0C
:103D30007F4FFA0181A1E82FF0E0EE0FFF1FE40FA3
:103D4000F51FDD24D394818592856817790708F0E3
:103D5000DD240D2D10E0F801EE0FFF1FEA0FFB1F11
:103D600085859685FC0161A1E62FF0E0EE0FFF1F2F
:103D7000E80FF91FE184F284E1E0F0E0DD2011F0CA
:103D8000E0E0F0E0EE0FFF1FEA0FFB1F6585768590
:103D9000FB0181A1E82FF0E0EE0FFF1FE60FF71FF8
:103DA00081859285F701E81BF90BC70196958795E8
:103DB000969587958E179F07B8F593968C91939754
:103DC0008F3709F4E9C08F5F93968C939397F9012D
:103DD0008081882309F045C0FA018081882309F099
:103DE00040C019962C911997822F90E0F801E8278E
:103DF000F927EE0FFF1FEA0FFB1F0584F685E02D64
:103E000033A1332309F0A0C231E00817190709F4E0
:103E1000A0C291963C93919792961C9292971F9B69
:103E200040C080919A013FC093961C9293979196BF
:103E3000EC919197F0E0EE0FFF1FEA0FFB1F058456
:103E4000F685E02D83A1882311F692968C919297A6
:103E50008F5F92968C939297F9018081882309F461
:103E6000BBCFF9018081882309F078C2F9018081F4
:103E7000882309F47BC0F9018081882339F0FA0195
:103E80008081882319F09196DC92919792968C917B
:103E900092978F3309F478C019962C9119971F992E
:103EA000C0CF80918A0190E08370907031E00097DC
:103EB00009F430E0222309F474C01D968D919C9181
:103EC0001E97FC0123A1222309F46BC01F964D917C
:103ED0005C915097FA0123A1222309F462C0332395
:103EE00009F05FC094962C9194972F5F94962C9331
:103EF0009497223941F4FC01208124602083FA0147
:103F000080818460808395968C9195978F3008F09E
:103F100051C020E01D96ED91FC911E9710821F96D6
:103F2000ED91FC915097108295968C9195978F5FAB
:103F300095968C9395971A968C911A97882309F4E5
:103F400040C08F5F1A968C931A97883009F039C059
:103F5000F89428E088E190E00FB6F894A895809353
:103F600060000FBE209360000000FECFFA01808148
:103F7000882309F480CF91961C92919792968C9108
:103F800092978F3309F088CFF90110821F96ED9137
:103F9000FC915097108280CFFB01808188608083E4
:103FA00016CF94961C92949795968C9195978F30F6
:103FB00008F4AFCF20E41A968C911A97882309F061
:103FC000C0CF1D968D919C911E97FC0132A1478117
:103FD0003427317061E036272E7F232B1F964D91B9
:103FE0005C915097FA0132A17781372731703627DB
:103FF000330F2D7F232B91960C919197E02FF0E0BA
:10400000EE0FFF1FEA0FFB1F65857685FB0133A1CD
:104010003170330F330F2B7F232B302F3170330F41
:10402000330F330F277F232BFC01908181E0911107
:1040300080E08295807F2F7E282BFA01908181E09D
:10404000911180E08295880F807E2F7D282B5596D8
:104050000D911C915697FB0181A1E82FF0E0EE0F26
:10406000FF1FE60FF71F45855685403851050CF0B8
:1040700068C1FFEF41385F070CF46DC1342F47FD75
:104080006FC2942F80E0422F50E0482B592B8FB7FE
:10409000F894F801518340838FBF9196EC919197EA
:1040A000F0E0EE0FFF1FEA0FFB1F85859685FC01F0
:1040B00031A1E32FF0E0EE0FFF1FE80FF91F81851C
:1040C0009285492F441F4427441F50E0880F991FB1
:1040D000482B592B5396ED91FC9154978FB7F89438
:1040E000518340838FBF59966D917C915A979196D9
:1040F000EC919197F0E0EE0FFF1FEA0FFB1F858513
:104100009685FC0131A1E32FF0E0EE0FFF1FE80FD1
:10411000F91F81859285880F892F881F990B9195AA
:10412000FB01808359966D917C915A979196EC9101
:104130009197F0E0EE0FFF1FEA0FFB1F8585968534
:10414000FC0131A1E32FF0E0EE0FFF1FE80FF91F94
:104150008285869586958072FB019181982B91834B
:104160005796ED91FC91589712968C9112978083F7
:104170005796ED91FC91589711968C9111978183E8
:104180005796ED91FC9158978C918283352F588FDB
:10419000498F9196EC919197F0E0EE0FFF1FEA0F97
:1041A000FB1F65857685FB0181A1E82FF0E0EE0F0E
:1041B000FF1FE60FF71F85859685803891050CF067
:1041C000BEC0FFEF81389F070CF4C4C187FDC4C196
:1041D0008A8F1D96ED91FC911E97818192819B8F14
:1041E0008C8F1F96ED91FC915097818192819D8FCC
:1041F0008E8F2F8F8E01005F1F4F88E0F801119284
:104200008A95E9F724FD99C025FD97C082E0888B47
:104210004170FB0183A121E08227880F880F842B46
:1042200092A1478194279227979599279795892B53
:10423000898B3A8B11968C9111978B8B8C918C8BEF
:1042400012968C9112978D8B18968C911897829557
:10425000880F807E8E8B18961C9218971F9988C0A5
:104260008091DC009091DD0081FD2AC080E1809387
:10427000ED0080E090E0A0E6B6E48093F00090933B
:10428000F100A093F200B093F300888D8093FA00C0
:10429000898D8093FA008A8D8093FA008B8D8093AC
:1042A000FA008C8D8093FA008D8D8093FA008E8DAC
:1042B0008093FA008F8D8093FA0088E48093EF005A
:1042C0008091DC009091DD0080FD29C01092ED000E
:1042D00080E090E0A0E8B8E18093F0009093F100D6
:1042E000A093F200B093F30088898093FA00898943
:1042F0008093FA008A898093FA008B898093FA0070
:104300008C898093FA008D898093FA008E8980933E
:10431000FA008F898093FA0088E48093EF006F960B
:104320000FB6F894DEBF0FBECDBFDF91CF911F91C6
:104330000F91FF90EF90DF90089580E068CF8FE7B6
:1043400047CF80E09FE79FCE31E00817190709F4B7
:1043500060CD30E05ECD80E09FEF95CEFA018081A8
:10436000882309F083CD81E091968C9391978ECD2F
:104370008091DC009091DD0081FD2AC080E1809376
:10438000ED0080E090E0A0E8B6E48093F000909328
:10439000F100A093F200B093F300888D8093FA00AF
:1043A000898D8093FA008A8D8093FA008B8D80939B
:1043B000FA008C8D8093FA008D8D8093FA008E8D9B
:1043C0008093FA008F8D8093FA0088E48093EF0049
:1043D0008091DC009091DD0080FD29C01092ED00FD
:1043E00080E090E0A0E8BAE18093F0009093F100C3
:1043F000A093F200B093F30088898093FA00898932
:104400008093FA008A898093FA008B898093FA005E
:104410008C898093FA008D898093FA008E8980932D
:10442000FA008F898093FA0088E48093EF00FE0100
:10443000319687E0DF011D928A95E9F788E690E0E2
:104440000E94DB268A8380E390E00E94DB268B8338
:1044500084E590E00E94DB268C838CE690E00E944D
:10446000DB268D838DE690E00E94DB26082F88E511
:1044700090E00E94E32664E670E00E9455250795CF
:1044800000270795062B0E8388E390E00E94DB2629
:104490008F838091DC009091DD0082FD1BC080E263
:1044A0008093ED0089818093FA008A818093FA00DD
:1044B0008B818093FA008C818093FA008D818093A8
:1044C000FA008E818093FA008F818093FA0087E44E
:1044D0008093EF00FE01389688E0DF011D928A95F7
:1044E000E9F789E690E00E94DB26898788E690E07C
:1044F0000E94DB268A878DE490E00E94DB268B8772
:104500008CE490E00E94DB268C878091DC00909107
:10451000DD0083FD04CF80E38093ED0088858093E8
:10452000FA0089858093FA008A858093FA008B854A
:104530008093FA008C858093FA008D858093FA0031
:104540008E858093FA008F858093FA0088E48093AB
:10455000EF00E5CE8FEF3CCE809580688F5F38CE40
:1045600030953068932F9F5F80E08DCD0E94741E40
:1045700008954F925F926F927F928F929F92AF9227
:10458000BF92CF92DF92EF92FF920F931F93CF9340
:10459000DF93EC013B01DB018C909924880C991C82
:1045A0008C01080D191DF801A38CB48C858996899E
:1045B0006C01EE24FF2469817A8180E090E024EA96
:1045C00036E840E050E00E94362524E630E040E046
:1045D00050E00E946925C701B6010E943625650199
:1045E000EE24FF24A70196010E9469252901D80124
:1045F00019968D919C911A97281B390BBDEF233189
:104600003B0714F423E13DEFFE01E80DF91DA188FD
:10461000B288C501B7FC7AC0959587959595879521
:104620008C01000F111F080F191FC901E2E02E3E77
:104630003E0714F08DEE92E09C01B901882777FDCA
:104640008095982F2EEC36E540E050E00E9436250C
:10465000A70196010E948B2569017A0198012C0D12
:104660003D1DFE01E80DF91DC501820F931F97FD49
:104670004FC0082E892F000C881F990B000C881F33
:10468000991F96878587D301EC91F0E0EE0FFF1F0D
:10469000EC0FFD1F328B218BEC91F0E0EE0FFF1F32
:1046A000EC0FFD1F5286418688814C91242F30E00B
:1046B00090E0042E02C0959587950A94E2F780FD5C
:1046C00004C049A31BA22C9130E0F901EE0FFF1F9B
:1046D000EC0FFD1F168A158AD301EC91F0E0EE0F66
:1046E000FF1FEC0FFD1F148E138EDF91CF911F91D2
:1046F0000F91FF90EF90DF90CF90BF90AF909F9081
:104700008F907F906F905F904F900895039684CF25
:10471000CF96AFCFCF93DF93FC01DB018C91C82FF5
:10472000D0E0CC0FDD1FCE0FDF1F1C8E1B8E8C91B7
:10473000C82FD0E0CC0FDD1FCE0FDF1F1A861986E1
:104740008C91C82FD0E0CC0FDD1FCE0FDF1F1E864F
:104750001D868C91C82FD0E0CC0FDD1FCE0FDF1F40
:104760001A8A198A8C91C82FD0E0CC0FDD1FCE0F8A
:10477000DF1F1E8A1D8A808190E00C9002C09595F3
:1047800087950A94E2F780FD1EC083E080A38C9198
:1047900081A381E083A380858823A9F080818D7F18
:1047A00091E0E9F09295907F88B18F7E892B88B94E
:1047B00080818E7F91E051F09295990F907E88B123
:1047C0008F7D892B88B9DF91CF91089590E09295E4
:1047D000990F907E88B18F7D892B88B9F4CF90E0B6
:1047E000E1CF0F931F93CF93DF930F92CDB7DEB737
:1047F0008C01FC01838D948D0196948F838F258D80
:10480000368D2F5F3F4F368F258F6370278D209514
:104810002623678F222309F454C020FF02C0669527
:1048200062A3F801908180A1822B80958370892BEF
:10483000808320A32695298330E0F901EE0FFF1F26
:10484000E00FF11F858996890196968B858BD8019B
:10485000A20FB31F59968C9159978F5F59968C93DD
:104860005997838D948DF0E180309F0708F05FC0E9
:10487000F8018085882369F02981E20FF11D818D7F
:1048800090E08F709070009721F4222309F45BC0B0
:10489000359AF801808190E0837090700097D9F587
:1048A000F801038114812581368136952795179566
:1048B0000795B801C9010F90DF91CF911F910F911A
:1048C0000895198220E00CC02F5F29832230B8F4AC
:1048D000E22FF0E0EE0FFF1FE00FF11F838D948DAC
:1048E000F8EA8E349F0780F3C801BE016F5F7F4FE7
:1048F0000E948A2329812F5F2983223048F300E018
:1049000010E020E030E0B801C9010F90DF91CF91B5
:104910001F910F9108950381148125813681B8017B
:10492000C9010F90DF91CF911F910F910895C80198
:10493000BE016F5F7F4F0E94B922F80180858823F6
:1049400009F4A7CF99CF349AA4CFCF92DF92EF92F8
:10495000FF920F931F93CF93DF93EC018B01637052
:104960008D859E850E94F1236B017C01B8017695AF
:104970006795769567958F8598890E94F12329A17F
:10498000222311F06B017C01C114D104E104F10474
:1049900091F18B8D9C8DAD8DBE8D8C0D9D1DAE1DB1
:1049A000BF1D8B8F9C8FAD8FBE8FE989FA89A08345
:1049B0008B8D9C8DAD8DBE8DAC01BD0114E17695C6
:1049C0006795579547951A95D1F728A1421771F029
:1049D000EC81FD8180818F5F8083EE81FF8180810A
:1049E0008F5F80838B8D9C8DAD8DBE8D48A38A2F6C
:1049F0009F8DA91749F0DF91CF911F910F91FF90E3
:104A0000EF90DF90CF900895865F8F8FE9A1F0E05F
:104A1000EE0FFF1FEC0FFD1F0584F685E02D82A130
:104A20009781892780FF0CC088819981AA81BB81E9
:104A30000196A11DB11D88839983AA83BB83DBCF17
:104A400088819981AA81BB810197A109B1098883D5
:104A50009983AA83BB83CFCF81E090E00E94541951
:104A6000089580E090E00E9454190895629FD0015B
:104A7000739FF001829FE00DF11D649FE00DF11D19
:104A8000929FF00D839FF00D749FF00D659FF00DC8
:104A90009927729FB00DE11DF91F639FB00DE11DB5
:104AA000F91FBD01CF0111240895AA1BBB1B51E1C1
:104AB00007C0AA1FBB1FA617B70710F0A61BB70B8E
:104AC000881F991F5A95A9F780959095BC01CD0133
:104AD0000895A1E21A2EAA1BBB1BFD010DC0AA1F3F
:104AE000BB1FEE1FFF1FA217B307E407F50720F057
:104AF000A21BB30BE40BF50B661F771F881F991FD2
:104B00001A9469F760957095809590959B01AC011A
:104B1000BD01CF01089597FB092E05260ED057FD44
:104B200004D0D7DF0AD0001C38F45095409530955A
:104B300021953F4F4F4F5F4F0895F6F79095809521
:104B4000709561957F4F8F4F9F4F0895EE0FFF1F18
:104B50000590F491E02D0994CF93DF93AC0182305E
:104B6000910510F442E050E0E0913F09F0914009D6
:104B700020E030E0A0E0B0E024C080819181841783
:104B80009507D0F08417950771F48281938110976F
:104B900029F013969C938E9312972CC09093400902
:104BA00080933F0927C02115310519F0821793071B
:104BB00018F49C01BD01EF0192818381DF01E92F8F
:104BC000F82F3097D1F621153105F9F0C901841B72
:104BD000950B8430910580F48A819B816115710564
:104BE00021F0FB019383828304C09093400980935A
:104BF0003F09FE01329642C0FE01E80FF91F4193C2
:104C0000519302979983888339C080913D0990918F
:104C10003E09009741F480913301909134019093C3
:104C20003E0980933D0920913101309132012115D7
:104C3000310541F42DB73EB7809135019091360191
:104C4000281B390BE0913D09F0913E09E217F3076B
:104C500098F42E1B3F0B2417350770F0CA010296FB
:104C60002817390748F08E0F9F1F90933E098093B5
:104C70003D094193519302C0E0E0F0E0CF01DF91A4
:104C8000CF9108950F931F93CF93DF939C010097CB
:104C900009F48CC0DC01129713961C921E92129795
:104CA00060913F09709140096115710589F48D91FA
:104CB0009C911197820F931F20913D0930913E09DD
:104CC0002817390769F5B0933E09A0933D096EC0D6
:104CD000FB0140E050E001C0FC01EA17FB0730F4A3
:104CE00082819381AF010097B9F71FC0E901229734
:104CF000FB83EA8308811981C901800F911F8E17F8
:104D00009F0759F480819181800F911F02969983AA
:104D10008883828193819B838A834115510529F47D
:104D2000B0934009A0933F0941C0FA01B383A28325
:104D3000C191D191EC0FFD1FAE17BF0781F4F901AE
:104D4000929182918C0F9D1F0296DA0111969C938D
:104D50008E938281938113969C938E931297E0E0B9
:104D6000F0E002C0FB01BC01DB0112968D919C9129
:104D700013970097B9F7CB0102962D913C911197AB
:104D8000820F931F20913D0930913E092817390762
:104D900069F4309729F41092400910923F0902C03B
:104DA0001382128270933E0960933D09DF91CF9187
:104DB0001F910F910895F999FECF92BD81BDF89A88
:104DC000992780B50895A8E1B0E042E050E00C9446
:104DD000FC26262FF999FECF92BD81BDF89A019746
:104DE00000B4021631F020BD0FB6F894FA9AF99A81
:104DF0000FBE0895DC01CB01FC01F999FECF06C07E
:104E0000F2BDE1BDF89A319600B40D924150504088
:104E1000B8F7089510E0C6E9D0E004C0FE010E9492
:0E4E2000A8252296C839D107C9F7F894FFCF0C
:104E2E00011008040201080000000804020101013B
:104E3E0001001F2E314D52637C8C93A2BDC1DEEF5B
:104E4E00F00B14253A465968778798A9B6CAD5E467
:084E5E00FB00004109200000E7
:0400000300000110E8
:00000001FF
