:100000000C9488000C94350C0C94640C0C94930C98
:100010000C94C20C0C94F10C0C94200D0C944F0D0C
:100020000C947E0D0C94AD0D0C94DC0D0C940B0E09
:100030000C943A0E0C94690E0C94980E0C94C70E06
:100040000C94F60E0C94250F0C94540F0C94830F03
:100050000C94B20F0C94E10F0C9410100C943F1000
:100060000C946E100C949D100C94CC100C94FB10FE
:100070000C942A110C9459110C9488110C94B711FA
:100080000C94E6110C9415120C9444120C947312F7
:080090000C94A2124E415341F1
:100100000000000001831F210C277B0171DFD9FD56
:1001100011241FBECFEFD0E1DEBFCDBF11E0A0E0C4
:10012000B1E0EAEAF6E800E00BBF02C007900D92EA
:10013000A838B107D9F71BE0A8E8B1E001C01D92CB
:10014000A832B107E1F73C9A3D9A449A459A2DE0CE
:1001500088E190E00FB6F894A895809360000FBEF8
:1001600020936000259810E0C6E9D0E000E006C0CA
:1001700022970109FE010BBF0E94DB41C439D10760
:1001800080E00807A9F70E94901D0C9443430001EA
:10019000000200000003000000000000000000005A
:1001A0000000000000008D8C8B8A0706050400000B
:1001B000000000000000000000000000000000003F
:1001C000000000000000000000000000000000002F
:1001D000000000000000000000000000000000001F
:1001E00000000000000000000000000000008988FE
:1001F00000000300000000000000000000000000FC
:1002000000000000000002000001000000000000EB
:1002100000000000000000000000000000000000DE
:1002200000000000000000000000000000000000CE
:1002300000000000000000000000000000000000BE
:1002400000000000000000000000000000000000AE
:10025000000000000000000000000000000000009E
:10026000000000000000000000000000000000008E
:10027000000000000000000000000000000000007E
:10028000000000000000000000000000000000006E
:1002900000000000000000000000000000000895C1
:1002A0000895FC0184858F3F11F08F5F8487089546
:1002B0002FB7F8943FB7F8948091BA019091BB01A1
:1002C0009F779093BB018093BA013FBF2FBF0895E2
:1002D0008091AF018970893031F010928E0181E0F8
:1002E00080939301089581E080938E0108953F9259
:1002F0004F925F926F927F928F929F92AF92BF9236
:10030000CF92DF92EF92FF920F931F93CF93DF93E1
:10031000CDB7DEB72A970FB6F894DEBF0FBECDBFBC
:100320009A878987FB018081982F94749434D9F43B
:1003300085FD19C08580B82CBB0CBB0804811381D6
:10034000A985BA855F968C915F97882321F1909655
:100350001C93909791960C93919792968C9292976A
:100360009396BC9293972A960FB6F894DEBF0FBE71
:10037000CDBFDF91CF911F910F91FF90EF90DF9054
:10038000CF90BF90AF909F908F907F906F905F9035
:100390004F903F9008955696ED91FC915797549643
:1003A0008D919C9155970995292F30E0C901880FAF
:1003B000991F220F331F220F331F220F331F820F6B
:1003C000931F62E170E00E947741362EB3E0B617CA
:1003D00008F0D7C0A62EE0E1E61710F420E1A22E27
:1003E0004A2C552466247724C12ED02EE82CFB2CD1
:1003F000A985BA855A96ED91FC915B9758968D9197
:100400009C9159970995DC01CB01C81AD90AEA0ACF
:10041000FB0AC601D7FCD6C08F3F910509F00CF44A
:10042000BAC081E0E985FA85868FCC0CDD1CEE1C14
:10043000FF1CCC0CDD1CEE1CFF1CCC0CDD1CEE1CD0
:10044000FF1CCC0CDD1CEE1CFF1CC701B601A30178
:1004500092010E94C04129833A834B835C83C98007
:10046000DA80D7FCB3C0EE24D7FCE094FE2CB2E7D0
:10047000CB16B1E0DB06B0E0EB06B0E0FB0608F01F
:1004800088C0C701B601A70196010E9458414B01DF
:100490005C010E9458416D837E838F839887C501DC
:1004A000B40120E43CE940E050E00E9458412B01B7
:1004B0003C016D817E818F8198852CE630E040E0A3
:1004C00050E00E945841DC01CB01481A590A6A0ADF
:1004D0007B0AC501B40124E833E040E050E00E940B
:1004E00058414B015C01C701B60120E935E640E007
:1004F00050E00E945841DC01CB01881A990AAA0AEF
:10050000BB0A80E09AE6A8E1B0E0880E991EAA1E18
:10051000BB1E8D819E81AF81B885880F991FAA1F50
:10052000BB1F881A990AAA0ABB0AC301B201A50116
:1005300094010E949E4189819A81AB81BC81B7FD63
:100540004AC0422F552747FD5095232D30E0429F4A
:10055000C001439F900D529F900D112497FD3DC007
:10056000082E892F000C881F990B000C881F991FDB
:10057000A985BA855C968C935C975D961C925D9775
:10058000F2CE84E0482E512C612C712C94E0A92EDF
:100590002BCF80E0EDCF90E082959295907F9827C9
:1005A000807F98276A2D70E00E948B4181E06F3F29
:1005B000710509F00CF480E0A985BA855E968C93EC
:1005C0005E9733CF909581959F4F26CFD094C1945D
:1005D000D108D39448CF2195B4CFCF96C1CFFC0199
:1005E00087A9882331F017AA80916E008D7F8093B0
:1005F0006E000895109226010895FC0141815281F8
:10060000638174814F5F5F4F6F4F7F4F4183528390
:100610006383748378940895FC0186818430F1F0BB
:10062000853059F18630B1F1873019F08F5F8683BC
:100630000895A081B181AF70B070AE59BE4F8C915A
:100640008093CE008091C9008F7DA8ECB0E0119618
:100650008C93119786818F5F868308952181822FE5
:1006600082958F7090E08E599E4FDC018C91809323
:10067000CE0086818F5F86830895A181B0E0AF7040
:10068000B070AE59BE4F8C918093CE0086818F5F43
:1006900086830895A081B181B295A295AF70AB27F2
:1006A000BF70AB27ECCFDC01D396EC91D397F0E091
:1006B0003896EE0FFF1FE80FF91F0190F081E02D33
:1006C000848595850895FC0162817381848195817B
:1006D0000895FC018281882341F00284F385E02D96
:1006E00080818F3F11F08F5F808308958EBD0DB4A0
:1006F00007FEFDCF6EBD0DB407FEFDCF4EBD0DB4A0
:1007000007FEFDCF2EBD0DB407FEFDCF8EB50895BB
:10071000FC015C9AA8ECB0E08091C9008061119660
:100720008C9311978091B20096819830B1F09581A9
:10073000992391F01582813968F0805990E0880FF3
:10074000991F63E070E00E948B418481861720F43A
:10075000648308958EEF848308958091C80081603A
:100760008093C8005C9A8091C900806111968C9337
:10077000119716820895CF93DF93FC01ADEEB0E0A0
:100780008C9190E49C9340E050E060E078E94093E5
:10079000F0005093F1006093F2007093F3009081A9
:1007A000CAEFD0E098839181988392819883938156
:1007B00098839481988395E49093EF008C9381E0E3
:1007C000DF91CF910895CF93DF93FC01ADEEB0E0C0
:1007D0008C9190E49C9340E050E060E676EC40938E
:1007E000F0005093F1006093F2007093F300908159
:1007F000CAEFD0E098839181988392819883938106
:1008000098839481988395E49093EF008C9381E092
:10081000DF91CF910895CF93DF93FC01ADEEB0E06F
:100820008C9190E49C9340E050E060E07AE9409342
:10083000F0005093F1006093F2007093F300908108
:10084000CAEFD0E0988391819883928198839381B5
:1008500098839481988395E49093EF008C9381E042
:10086000DF91CF910895CF93DF93FC01ADEEB0E01F
:100870008C9190E49C9340E050E060E876EC4093EB
:10088000F0005093F1006093F2007093F3009081B8
:10089000CAEFD0E098839181988392819883938165
:1008A00098839481988395E49093EF008C9381E0F2
:1008B000DF91CF910895CF93DF93FC01ADEEB0E0CF
:1008C0008C9190E59C9340E050E060E470EF4093A1
:1008D000F0005093F1006093F2007093F300908168
:1008E000CAEFD0E098839181988392819883938115
:1008F0009883948198839581988396819883978132
:10090000988398E49093EF008C9381E0DF91CF91EE
:1009100008958091DC009091DD0080FD19C0209148
:10092000ED001092ED0080E090E0A0ECBAE1809341
:10093000F0009093F100A093F200B093F300609365
:10094000FA001092FA0082E48093EF002093ED0009
:100950000895FC0187A9882349F481E087AB16BC80
:10096000A99A80916E00826080936E000895CF9363
:10097000DF9300D000D000D0CDB7DEB749835A83D3
:100980006B837C838D839E83E8EFF3E09FB7F894BD
:10099000808581FD3DC0808582FD3AC08085846070
:1009A00080879FBF4FB7F8948091890490918A0403
:1009B000A0918B04B0918C044FBFA90160E070E05E
:1009C000480F591F6A1F7B1F6170707046835783E1
:1009D000962F917080858E7F892B8087CF01AE0105
:1009E0004F5F5F4F26E0DA010D90AD01DC010D9203
:1009F000CD012150C1F780858260808780858B7F03
:100A000080878091F7038F5F8093F70381E008C0B0
:100A10009FBF3996B4E0E838FB0709F0B7CF80E014
:100A200026960FB6F894DEBF0FBECDBFDF91CF91F3
:100A300008950F931F93CF93DF93EC0180914F02A2
:100A400081708F5F888380E390E00E941643DC0111
:100A5000CB0186309105A105B10578F509E110E0DB
:100A600088E390E00E941643AB01BC0180915302E1
:100A700090E08C599F4F2091520230E02F713070DE
:100A8000322F2227820F931F049F9001059F300D64
:100A9000149F300D1124820F931F9A8389839091A4
:100AA000500280E020915102820F911D9C838B8324
:100AB000DF91CF911F910F91089500E110E0D0CF09
:100AC000DC01ED91FC91119740A15FB7F894209162
:100AD0001E0B30911E0B3F5F30931E0B60911D0B60
:100AE0003617A9F05FBF30E0F901EE0FFF1FE20FEC
:100AF000F31FEE0FFF1FE35EFA4F9183808389EBB4
:100B000090E493838283448315827894089530918E
:100B10001D0B3F5F30931D0BE5CF009721F421E0C3
:100B200030E0C90108958130910521F422E030E0E0
:100B3000C90108958230910519F424E030E0F1CF25
:100B40008330910519F428E030E0EBCF8430910533
:100B500019F420E130E0E5CF8530910519F420E269
:100B600030E0DFCF8630910519F420E430E0D9CFB2
:100B700021E030E08730910559F480E890E0A90148
:100B8000489F9001499F300D589F300D1124C9CFC7
:100B90008830910519F480E091E0F1CF322F2227BF
:100BA000330F8930910509F4BCCF8A30910519F4CF
:100BB000220F331FB6CF8B30910529F4220F331F3C
:100BC000220F331FAECF8C30910539F4220F331F23
:100BD000220F331F220F331FA4CF8D30910539F41C
:100BE00022953295307F3227207F32279ACF8E3060
:100BF000910549F4220F331F22953295307F322719
:100C0000207F32278ECFAC01495050408F30910564
:100C100051F4002436952795079436952795079427
:100C2000322F202D7ECFCA01A5CFFC0183818823DE
:100C3000E1F4F0990DC0F09A8EB38695869586956D
:100C400080FD0DC0F39A838191E089278383089505
:100C5000F0988EB386958695869580FFF3CFF398AE
:100C6000838191E08927838308958EB3869580FDE3
:100C70000CC0F19A8EB38695869580FD0CC0F29AD1
:100C8000838191E0892783830895F1988EB38695B7
:100C9000869580FFF4CFF298838191E08927838342
:100CA00008950F931F93CF93DF938B01FB018081F6
:100CB000893009F1813021F1C82FD0E0CC0FDD1F40
:100CC000CC0FDD1FC05EDF4FCE01F80164810E94B2
:100CD0002243CE010196F80163810E942243CE0196
:100CE0000296F80162810E942243CE010396F80128
:100CF00061810E942243DF91CF911F910F9108954E
:100D000087E1FB018083CCE5D0E0DCCFCF93DF939C
:100D100000D000D00F92CDB7DEB71F9908C00F905A
:100D20000F900F900F900F90DF91CF9108952FB7F4
:100D3000F8946091890470918A0480918B04909159
:100D40008C042FBF2AE030E040E050E00E949E413A
:100D5000922F309191012093910121E020938F01F6
:100D6000E0918C01F0918D01808185FD41C0931B44
:100D70008062808350919001590F5093900194327A
:100D800058F160919201662309F04DC0550F5093C0
:100D90009001408140784066446010929201852F16
:100DA00084598931D8F54F7780919401481709F417
:100DB0005AC0E0918C01F0918D0180818F7B8083FE
:100DC00040939401109290010F900F900F900F900C
:100DD0000F90DF91CF910895809192018F5F809362
:100DE0009201833009F09BCF80818F7B808397CFE6
:100DF000CE01019635E0FC0111923A95E9F732E017
:100E000039832A832B831F9B25C02091DC003091DE
:100E1000DD0024FD84CF0E940B0481CF5D5A5A313E
:100E2000B8F44068C1CF40814078406622E030E0AD
:100E3000261B310981E090E002C0880F991F2A9596
:100E4000E2F78F71482B633008F4A7CF4F7BA5CF13
:100E50004F7BAACF2091DC003091DD0024FD5FCFD5
:100E60000E94BB035CCF46FFABCFE0918C01F091B9
:100E70008D018081842787FD11C08091930110929C
:100E80009801882329F0E0919601F0919701108252
:100E9000E0918C01F0918D01408392CF809193017C
:100EA000882331F01092930110929801408388CFEB
:100EB000E0919601F0919701809198018083DDCFB8
:100EC000DC0113968C911397882379F4ED91FC91B2
:100ED00011978081982F9F71943009F44CC09830FD
:100EE00039F0807A8061808303C013961C92139737
:100EF000E8EFF3E09FB7F894808581FD34C08085EA
:100F000082FD31C08085846080879FBF8FB7F89451
:100F10004091890450918A0460918B0470918C04F3
:100F20008FBF4053584F6F4F7F4F61707070468333
:100F30005783962F917080858E7F892B8087B18310
:100F4000A08380E697E09383828315821482808554
:100F50008260808780858B7F80878091F7038F5F99
:100F60008093F70308959FBF399684E0E838F80727
:100F700009F0C0CF0895982F991F9927991F909530
:100F800080729795992797958860892B8083B0CF39
:100F9000DC0112968C911297882359F486E090E038
:100FA000909319018093180180916F008D7F809339
:100FB0006F0012961C921297E8EFF3E09FB7F89437
:100FC000808581FD34C0808582FD31C0808584604C
:100FD00080879FBF8FB7F8944091890450918A040D
:100FE00060918B0470918C048FBF48515C4F6F4FA0
:100FF0007F4F6170707046835783962F9170808504
:101000008E7F892B8087B183A08388EC97E09383C0
:1010100082831582148280858260808780858B7FA1
:1010200080878091F7038F5F8093F70308959FBFB8
:10103000399684E0E838F80709F0C0CF0895CF93D7
:10104000DF9300D000D00F92CDB7DEB71F9908C054
:101050000F900F900F900F900F90DF91CF91089508
:10106000FB01908121E020938F01E0918C01F091B0
:101070008D01808185FF10C08F7D808380919001DC
:10108000890FECE8F1E084830F900F900F900F90A0
:101090000F90DF91CF910895CE01019635E0FC01CC
:1010A00011923A95E9F732E039832A831F9B09C0F0
:1010B0002091DC003091DD0024FDCACF0E940B049A
:1010C000C7CF2091DC003091DD0024FDC1CF0E940C
:1010D000BB03BECFCF93DF9300D000D00F92CDB72C
:1010E000DEB71F9908C00F900F900F900F900F90D0
:1010F000DF91CF9108952FB7F89460918904709192
:101100008A0480918B0490918C042FBF2AE030E0F8
:1011100040E050E00E949E41922F30919101209337
:10112000910121E020938F01E0918C01F0918D01DC
:10113000808185FF10C08F7D808380919001831B0B
:10114000890F809390010F900F900F900F900F9048
:10115000DF91CF910895CE01019635E0FC01119207
:101160003A95E9F732E039832A831F9B09C0209121
:10117000DC003091DD0024FDB6CF0E940B04B3CF1C
:101180002091DC003091DD0024FDADCF0E94BB0337
:10119000AACFCF93DF9300D000D00F92CDB7DEB7A8
:1011A0001F9B08C00F900F900F900F900F90DF9132
:1011B000CF910895FB01908121E020938F01E09170
:1011C0008C01F0918D01808185FF10C08F7D80831F
:1011D00080919001890FECE8F1E084830F900F90EB
:1011E0000F900F900F90DF91CF910895CE0101964F
:1011F00035E0FC0111923A95E9F732E039832A8310
:101200001F9B09C02091DC003091DD0024FDCACF76
:101210000E940B04C7CF2091DC003091DD0024FD3B
:10122000C1CF0E94BB03BECFCF93DF9300D000D0CD
:101230000F92CDB7DEB71F9B08C00F900F900F9095
:101240000F900F90DF91CF9108952FB7F894609190
:10125000890470918A0480918B0490918C042FBF33
:101260002AE030E040E050E00E949E41922F309111
:1012700091012093910121E020938F01E0918C0155
:10128000F0918D01808185FF10C08F7D80838091DA
:101290009001831B890F809390010F900F900F9006
:1012A0000F900F90DF91CF910895CE01019635E018
:1012B000FC0111923A95E9F732E039832A831F9BAA
:1012C00009C02091DC003091DD0024FDB6CF0E94E2
:1012D0000B04B3CF2091DC003091DD0024FDADCFB5
:1012E0000E94BB03AACFCF93DF9300D000D00F9210
:1012F000CDB7DEB71F9B08C00F900F900F900F90D7
:101300000F90DF91CF9108952FB7F89460918904E1
:1013100070918A0480918B0490918C042FBF2AE0F5
:1013200030E040E050E00E949E41922F30919101C8
:101330002093910121E020938F01E0918C01F091A5
:101340008D01808185FD41C0931B80628083509117
:101350009001590F50939001943258F1609192018D
:10136000662309F04DC0550F50939001408140789D
:101370004066446010929201852F84598931D8F5D6
:101380004F7780919401481709F45AC0E0918C017D
:10139000F0918D0180818F7B808340939401109226
:1013A00090010F900F900F900F900F90DF91CF91C1
:1013B0000895809192018F5F80939201833009F0AC
:1013C0009BCF80818F7B808397CFCE01019635E0C4
:1013D000FC0111923A95E9F732E039832A832B8395
:1013E0001F9B25C02091DC003091DD0024FD84CFBF
:1013F0000E940B0481CF5D5A5A31B8F44068C1CFC6
:1014000040814078406622E030E0261B310981E0CF
:1014100090E002C0880F991F2A95E2F78F71482B40
:10142000633008F4A7CF4F7BA5CF4F7BAACF209185
:10143000DC003091DD0024FD5FCF0E94BB035CCF58
:1014400046FFABCFE0918C01F0918D018081842724
:1014500087FD11C08091930110929801882329F093
:10146000E0919601F09197011082E0918C01F0914A
:101470008D01408392CF80919301882331F01092A7
:10148000930110929801408388CFE0919601F091EA
:101490009701809198018083DDCFCF93DF9300D0B7
:1014A00000D00F92CDB7DEB71F9B08C00F900F90F2
:1014B0000F900F900F90DF91CF910895FB019081D5
:1014C00021E020938F01E0918C01F0918D018081CA
:1014D00085FD43C08062808350919001590F5093E5
:1014E0009001943258F160919201662309F050C046
:1014F000550F5093900140814078406644601092AF
:101500009201852F84598931F0F54F7780919401AC
:10151000481709F45DC0E0918C01F0918D01808144
:101520008F7B808340939401109290010F900F90D5
:101530000F900F900F90DF91CF91089580919201BD
:101540008F5FACE8B1E016968C931697833009F064
:10155000ADCF80818F7B8083A9CFCE01019635E00E
:10156000FC0111923A95E9F732E039832A832B8303
:101570001F9B25C02091DC003091DD0024FD96CF1B
:101580000E940B0493CF5D5A5A31B8F44068BECF25
:1015900040814078406622E030E0261B310981E03E
:1015A00090E002C0880F991F2A95E2F78F71482BAF
:1015B000633008F4A4CF4F7BA2CF4F7BA7CF2091FD
:1015C000DC003091DD0024FD71CF0E94BB036ECFA3
:1015D00046FFA8CFE0918C01F0918D018081842796
:1015E00087FD11C08091930110929801882329F002
:1015F000E0919601F09197011082E0918C01F091B9
:101600008D0140838FCF80919301882331F0109218
:10161000930110929801408385CFE0919601F0915B
:101620009701809198018083DDCFCF93DF9300D025
:1016300000D00F92CDB7DEB71F9908C00F900F9062
:101640000F900F900F90DF91CF910895FB01908143
:1016500021E020938F01E0918C01F0918D01808138
:1016600085FD43C08062808350919001590F509353
:101670009001943258F160919201662309F050C0B4
:10168000550F50939001408140784066446010921D
:101690009201852F84598931F0F54F77809194011B
:1016A000481709F45DC0E0918C01F0918D018081B3
:1016B0008F7B808340939401109290010F900F9044
:1016C0000F900F900F90DF91CF910895809192012C
:1016D0008F5FACE8B1E016968C931697833009F0D3
:1016E000ADCF80818F7B8083A9CFCE01019635E07D
:1016F000FC0111923A95E9F732E039832A832B8372
:101700001F9B25C02091DC003091DD0024FD96CF89
:101710000E940B0493CF5D5A5A31B8F44068BECF93
:1017200040814078406622E030E0261B310981E0AC
:1017300090E002C0880F991F2A95E2F78F71482B1D
:10174000633008F4A4CF4F7BA2CF4F7BA7CF20916B
:10175000DC003091DD0024FD71CF0E94BB036ECF11
:1017600046FFA8CFE0918C01F0918D018081842704
:1017700087FD11C08091930110929801882329F070
:10178000E0919601F09197011082E0918C01F09127
:101790008D0140838FCF80919301882331F0109287
:1017A000930110929801408385CFE0919601F091CA
:1017B0009701809198018083DDCFF89428E088E13B
:1017C00090E00FB6F894A895809360000FBE209328
:1017D00060000000FECF1F9B0895FB0180818230D6
:1017E000D9F781818330C1F7828182FDF5CF2FB790
:1017F000F8948091890490918A04A0918B04B0910F
:101800008C042FBF89352BE1920720E0A20720E04E
:10181000B20710F380914F018823F1F20E94DD0B93
:101820001F990895FB0180818230D9F7818183302F
:10183000C1F7828182FDF5CF2FB7F894809189049A
:1018400090918A04A0918B04B0918C042FBF8935AC
:101850002BE1920720E0A20720E0B20710F380916D
:101860004F018823F1F20E94DD0B1F920F920FB6F9
:101870000F920BB60F9211242F933F934F935F93C8
:101880006F937F938F939F93AF93BF93EF93FF9348
:10189000E0911B05F0911C058091190590911A05A6
:1018A0000995FF91EF91BF91AF919F918F917F919A
:1018B0006F915F914F913F912F910F900BBE0F90C1
:1018C0000FBE0F901F9018951F920F920FB60F9298
:1018D0000BB60F9211242F933F934F935F936F9307
:1018E0007F938F939F93AF93BF93EF93FF93E09179
:1018F0001705F09118058091150590911605099529
:10190000FF91EF91BF91AF919F918F917F916F91D7
:101910005F914F913F912F910F900BBE0F900FBE93
:101920000F901F9018951F920F920FB60F920BB643
:101930000F9211242F933F934F935F936F937F9355
:101940008F939F93AF93BF93EF93FF93E091130512
:10195000F091140580911105909112050995FF9160
:10196000EF91BF91AF919F918F917F916F915F9117
:101970004F913F912F910F900BBE0F900FBE0F9084
:101980001F9018951F920F920FB60F920BB60F92E1
:1019900011242F933F934F935F936F937F938F9374
:1019A0009F93AF93BF93EF93FF93E0910F05F09157
:1019B000100580910D0590910E050995FF91EF910D
:1019C000BF91AF919F918F917F916F915F914F9157
:1019D0003F912F910F900BBE0F900FBE0F901F9055
:1019E00018951F920F920FB60F920BB60F921124FB
:1019F0002F933F934F935F936F937F938F939F9317
:101A0000AF93BF93EF93FF93E0910B05F0910C051B
:101A10008091090590910A050995FF91EF91BF9179
:101A2000AF919F918F917F916F915F914F913F9176
:101A30002F910F900BBE0F900FBE0F901F90189517
:101A40001F920F920FB60F920BB60F9211242F9385
:101A50003F934F935F936F937F938F939F93AF9336
:101A6000BF93EF93FF93E0910705F09108058091F4
:101A70000505909106050995FF91EF91BF91AF91F2
:101A80009F918F917F916F915F914F913F912F9196
:101A90000F900BBE0F900FBE0F901F9018951F92C6
:101AA0000F920FB60F920BB60F9211242F933F9304
:101AB0004F935F936F937F938F939F93AF93BF9356
:101AC000EF93FF93E0910305F091040580910105E8
:101AD000909102050995FF91EF91BF91AF919F9170
:101AE0008F917F916F915F914F913F912F910F90C7
:101AF0000BBE0F900FBE0F901F9018951F920F9264
:101B00000FB60F920BB60F9211242F933F934F9362
:101B10005F936F937F938F939F93AF93BF93EF9355
:101B2000FF93E091FF04F09100058091FD049091F6
:101B3000FE040995FF91EF91BF91AF919F918F9115
:101B40007F916F915F914F913F912F910F900BBEBD
:101B50000F900FBE0F901F9018951F920F920FB607
:101B60000F920BB60F9211242F933F934F935F93D5
:101B70006F937F938F939F93AF93BF93EF93FF9355
:101B8000E091FB04F091FC048091F9049091FA0437
:101B90000995FF91EF91BF91AF919F918F917F91A7
:101BA0006F915F914F913F912F910F900BBE0F90CE
:101BB0000FBE0F901F9018951F920F920FB60F92A5
:101BC0000BB60F9211242F933F934F935F936F9314
:101BD0007F938F939F93AF93BF93EF93FF93E09186
:101BE000F704F091F8048091F5049091F6040995BA
:101BF000FF91EF91BF91AF919F918F917F916F91E5
:101C00005F914F913F912F910F900BBE0F900FBEA0
:101C10000F901F9018951F920F920FB60F920BB650
:101C20000F9211242F933F934F935F936F937F9362
:101C30008F939F93AF93BF93EF93FF93E091F30440
:101C4000F091F4048091F1049091F2040995FF91D0
:101C5000EF91BF91AF919F918F917F916F915F9124
:101C60004F913F912F910F900BBE0F900FBE0F9091
:101C70001F9018951F920F920FB60F920BB60F92EE
:101C800011242F933F934F935F936F937F938F9381
:101C90009F93AF93BF93EF93FF93E091EF04F09185
:101CA000F0048091ED049091EE040995FF91EF917D
:101CB000BF91AF919F918F917F916F915F914F9164
:101CC0003F912F910F900BBE0F900FBE0F901F9062
:101CD00018951F920F920FB60F920BB60F92112408
:101CE0002F933F934F935F936F937F938F939F9324
:101CF000AF93BF93EF93FF93E091EB04F091EC046B
:101D00008091E9049091EA040995FF91EF91BF91C8
:101D1000AF919F918F917F916F915F914F913F9183
:101D20002F910F900BBE0F900FBE0F901F90189524
:101D30001F920F920FB60F920BB60F9211242F9392
:101D40003F934F935F936F937F938F939F93AF9343
:101D5000BF93EF93FF93E091E704F091E804809143
:101D6000E5049091E6040995FF91EF91BF91AF9141
:101D70009F918F917F916F915F914F913F912F91A3
:101D80000F900BBE0F900FBE0F901F9018951F92D3
:101D90000F920FB60F920BB60F9211242F933F9311
:101DA0004F935F936F937F938F939F93AF93BF9363
:101DB000EF93FF93E091E304F091E4048091E10458
:101DC0009091E2040995FF91EF91BF91AF919F919E
:101DD0008F917F916F915F914F913F912F910F90D4
:101DE0000BBE0F900FBE0F901F9018951F920F9271
:101DF0000FB60F920BB60F9211242F933F934F9370
:101E00005F936F937F938F939F93AF93BF93EF9362
:101E1000FF93E091DF04F091E0048091DD04909164
:101E2000DE040995FF91EF91BF91AF919F918F9142
:101E30007F916F915F914F913F912F910F900BBECA
:101E40000F900FBE0F901F9018951F920F920FB614
:101E50000F920BB60F9211242F933F934F935F93E2
:101E60006F937F938F939F93AF93BF93EF93FF9362
:101E7000E091DB04F091DC048091D9049091DA04C4
:101E80000995FF91EF91BF91AF919F918F917F91B4
:101E90006F915F914F913F912F910F900BBE0F90DB
:101EA0000FBE0F901F9018951F920F920FB60F92B2
:101EB0000BB60F9211242F933F934F935F936F9321
:101EC0007F938F939F93AF93BF93EF93FF93E09193
:101ED000D704F091D8048091D5049091D604099547
:101EE000FF91EF91BF91AF919F918F917F916F91F2
:101EF0005F914F913F912F910F900BBE0F900FBEAE
:101F00000F901F9018951F920F920FB60F920BB65D
:101F10000F9211242F933F934F935F936F937F936F
:101F20008F939F93AF93BF93EF93FF93E091D3046D
:101F3000F091D4048091D1049091D2040995FF913D
:101F4000EF91BF91AF919F918F917F916F915F9131
:101F50004F913F912F910F900BBE0F900FBE0F909E
:101F60001F9018951F920F920FB60F920BB60F92FB
:101F700011242F933F934F935F936F937F938F938E
:101F80009F93AF93BF93EF93FF93E091CF04F091B2
:101F9000D0048091CD049091CE040995FF91EF91EA
:101FA000BF91AF919F918F917F916F915F914F9171
:101FB0003F912F910F900BBE0F900FBE0F901F906F
:101FC00018951F920F920FB60F920BB60F92112415
:101FD0002F933F934F935F936F937F938F939F9331
:101FE000AF93BF93EF93FF93E091CB04F091CC04B8
:101FF0008091C9049091CA040995FF91EF91BF9116
:10200000AF919F918F917F916F915F914F913F9190
:102010002F910F900BBE0F900FBE0F901F90189531
:102020001F920F920FB60F920BB60F9211242F939F
:102030003F934F935F936F937F938F939F93AF9350
:10204000BF93EF93FF93E091C704F091C804809190
:10205000C5049091C6040995FF91EF91BF91AF918E
:102060009F918F917F916F915F914F913F912F91B0
:102070000F900BBE0F900FBE0F901F9018951F92E0
:102080000F920FB60F920BB60F9211242F933F931E
:102090004F935F936F937F938F939F93AF93BF9370
:1020A000EF93FF93E091C304F091C4048091C104C5
:1020B0009091C2040995FF91EF91BF91AF919F91CB
:1020C0008F917F916F915F914F913F912F910F90E1
:1020D0000BBE0F900FBE0F901F9018951F920F927E
:1020E0000FB60F920BB60F9211242F933F934F937D
:1020F0005F936F937F938F939F93AF93BF93EF9370
:10210000FF93E091BF04F091C0048091BD049091D1
:10211000BE040995FF91EF91BF91AF919F918F916F
:102120007F916F915F914F913F912F910F900BBED7
:102130000F900FBE0F901F9018951F920F920FB621
:102140000F920BB60F9211242F933F934F935F93EF
:102150006F937F938F939F93AF93BF93EF93FF936F
:10216000E091BB04F091BC048091B9049091BA0451
:102170000995FF91EF91BF91AF919F918F917F91C1
:102180006F915F914F913F912F910F900BBE0F90E8
:102190000FBE0F901F9018951F920F920FB60F92BF
:1021A0000BB60F9211242F933F934F935F936F932E
:1021B0007F938F939F93AF93BF93EF93FF93E091A0
:1021C000B704F091B8048091B5049091B6040995D4
:1021D000FF91EF91BF91AF919F918F917F916F91FF
:1021E0005F914F913F912F910F900BBE0F900FBEBB
:1021F0000F901F9018951F920F920FB60F920BB66B
:102200000F9211242F933F934F935F936F937F937C
:102210008F939F93AF93BF93EF93FF93E091B3049A
:10222000F091B4048091B1049091B2040995FF91AA
:10223000EF91BF91AF919F918F917F916F915F913E
:102240004F913F912F910F900BBE0F900FBE0F90AB
:102250001F9018951F920F920FB60F920BB60F9208
:1022600011242F933F934F935F936F937F938F939B
:102270009F93AF93BF93EF93FF93E091AF04F091DF
:10228000B0048091AD049091AE040995FF91EF9157
:10229000BF91AF919F918F917F916F915F914F917E
:1022A0003F912F910F900BBE0F900FBE0F901F907C
:1022B00018951F920F920FB60F920BB60F92112422
:1022C0002F933F934F935F936F937F938F939F933E
:1022D000AF93BF93EF93FF93E091AB04F091AC0405
:1022E0008091A9049091AA040995FF91EF91BF9163
:1022F000AF919F918F917F916F915F914F913F919E
:102300002F910F900BBE0F900FBE0F901F9018953E
:102310001F920F920FB60F920BB60F9211242F93AC
:102320003F934F935F936F937F938F939F93AF935D
:10233000BF93EF93FF93E091A704F091A8048091DD
:10234000A5049091A6040995FF91EF91BF91AF91DB
:102350009F918F917F916F915F914F913F912F91BD
:102360000F900BBE0F900FBE0F901F9018951F92ED
:102370000F920FB60F920BB60F9211242F933F932B
:102380004F935F936F937F938F939F93AF93BF937D
:10239000EF93FF93E091A304F091A4048091A10432
:1023A0009091A2040995FF91EF91BF91AF919F91F8
:1023B0008F917F916F915F914F913F912F910F90EE
:1023C0000BBE0F900FBE0F901F9018951F920F928B
:1023D0000FB60F920BB60F9211242F933F934F938A
:1023E0005F936F937F938F939F93AF93BF93EF937D
:1023F000FF93E0919F04F091A00480919D0490913F
:102400009E040995FF91EF91BF91AF919F918F919C
:102410007F916F915F914F913F912F910F900BBEE4
:102420000F900FBE0F901F9018951F920F920FB62E
:102430000F920BB60F9211242F933F934F935F93FC
:102440006F937F938F939F93AF93BF93EF93FF937C
:10245000E0919B04F0919C048091990490919A04DE
:102460000995FF91EF91BF91AF919F918F917F91CE
:102470006F915F914F913F912F910F900BBE0F90F5
:102480000FBE0F901F9018951F920F920FB60F92CC
:102490000BB60F9211242F933F934F935F936F933B
:1024A0007F938F939F93AF93BF93EF93FF93E091AD
:1024B0009704F09198048091950490919604099561
:1024C000FF91EF91BF91AF919F918F917F916F910C
:1024D0005F914F913F912F910F900BBE0F900FBEC8
:1024E0000F901F9018951F920F920FB60F920BB678
:1024F0000F9211242F933F934F935F936F937F938A
:102500008F939F93AF93BF93EF93FF93E0919304C7
:10251000F091940480919104909192040995FF9117
:10252000EF91BF91AF919F918F917F916F915F914B
:102530004F913F912F910F900BBE0F900FBE0F90B8
:102540001F9018951F920F920FB60F920BB60F9215
:1025500011242F933F934F935F936F937F938F93A8
:102560009F93AF93BF93EF93FF93E0918F04F0910C
:10257000900480918D0490918E040995FF91EF91C4
:10258000BF91AF919F918F917F916F915F914F918B
:102590003F912F910F900BBE0F900FBE0F901F9089
:1025A00018954F925F926F927F928F929F92AF9207
:1025B000BF92DF92EF92FF920F931F93CF93DF931F
:1025C0007C01DC011596ED91FC91169780812181AB
:1025D000813209F4FFC08232D0F0813309F424C182
:1025E000823308F455C0833309F428C1833308F0DB
:1025F00042C182E3F701858B0584F685E02D82E0F8
:10260000922F2FB7F894918380832FBF9BC0813185
:1026100009F4E0C0823108F05BC0833009F40EC1D8
:10262000843009F4C9C0882309F08CC0E7018D8982
:10263000813209F45EC1823208F421C1813309F488
:1026400012C3823309F411C2823209F07BC0E70160
:1026500088819981AA81BB814E895F89688D798D36
:1026600084179507A607B70708F435C3AC01BD0169
:102670004150504060407040652F6F70482F41506E
:10268000487F82EC20E00E94760388E799E624C127
:10269000833209F4D3C0833208F464C0843209F071
:1026A00051C0E701488159816A817B81DB01CA0100
:1026B0000197A109B1099F704150487F82EC692FB1
:1026C00020E00E94760388E799E60197F1F74EC073
:1026D000833109F4B3C0833108F046C082E1F701C9
:1026E000858B0780F085E02D8FB7F894408151816C
:1026F0008FBFD7011996ED91FC911A978FB7F89477
:10270000208131818FBFE701EB85FC856FB7F8949D
:10271000808191816FBFF701588349833A831B827F
:102720002E8B9F8B888F198E0584F685E02DAD81C9
:10273000BE8182E011969C9111972FB7F8949183F6
:1027400080832FBFDF91CF911F910F91FF90EF906A
:10275000DF90BF90AF909F908F907F906F905F9031
:102760004F90089582E2BBCF843161F7F701408139
:1027700051816281738141505040604070408A01B4
:102780009B01A9E03695279517950795AA95D1F74E
:10279000769567955795479540788CE4602F20E0B3
:1027A0000E9476038CEB94E30197F1F7D70115961D
:1027B000ED91FC9116972181E701ED85FE8584E07E
:1027C000922F2FB7F894918380832FBF24982C9A4F
:1027D0000E94DD0BF701858B0780F085E02D8FB718
:1027E000F894408151818FBFD7011996ED91FC91EA
:1027F0001A978FB7F894208131818FBFE701EB855D
:10280000FC856FB7F894808191816FBF58834983AD
:102810003A831B822E8B9F8B888F198EED85FE85C8
:10282000AD81BE8181E086CFD70155968C935597B7
:102830001D96ED91FC911E9781E0E2CE8CEA60E856
:1028400040E020E00E94760388E799E60197F1F7DF
:10285000E701AD85BE85ED81FE8183E091812FB7D3
:10286000F89411969C938E932FBFED85FE85AD81D4
:10287000BE8180E05FCF843309F064CF9DCF81318A
:1028800009F4F7C0823109F05DCF88819981AA816E
:10289000BB814E895F89688D798D84179507A6075E
:1028A000B70708F48AC30197A109B1098C019D01FA
:1028B00069E036952795179507956A95D1F7B695EE
:1028C000A79597958795482F40788CE4602F20E056
:1028D0000E9476038CEB94E30197F1F7D7011D96E4
:1028E000ED91FC911E9715960D90BC91A02D80E066
:1028F00021CFF7010F84D889C02D40816181677095
:1029000080EA20E00E947603D82ED7010D911D9118
:102910002D913C910F5F1F4F2F4F3F4FF7010083C9
:10292000118322833383612F677080EA402F20E078
:102930000E947603D7014D915D916D917C91139723
:102940004F5F5F4F6F4F7F4FF7014083518362832B
:102950007383282F3D2D8FB7F894398328838FBF39
:102960005196CD91DC9152974C9111966C91677074
:1029700080EA20E00E947603D82EF70100811181C1
:10298000228133810F5F1F4F2F4F3F4F00831183F1
:1029900022833383612F677080EA402F20E00E94FA
:1029A0007603F70140815181628173814F5F5F4FF0
:1029B0006F4F7F4F4083518362837383282F3D2D58
:1029C0008FB7F894398328838FBFC389D489408116
:1029D0006181677080EA20E00E947603D82ED701DB
:1029E0000D911D912D913C910F5F1F4F2F4F3F4F28
:1029F000F7010083118322833383612F677080EA9C
:102A0000402F20E00E947603D7014D915D916D919A
:102A10007C9113974F5F5F4F6F4F7F4FF70140835C
:102A2000518362837383282F3D2D8FB7F8943983A8
:102A300028838FBF4D915D916D917C911397569630
:102A40008D919D910D90BC91A02D84179507A6079F
:102A5000B70708F038C1D7010584F685E02D159633
:102A60000D90BC91A02D80E065CEED85FE8580E0C7
:102A7000C7CDF7010F84D889C02D00811181228133
:102A80003381802F8170880F880F880FB901A801CA
:102A9000A9E07695679557954795AA95D1F736950C
:102AA0002795179507958062642F402F20E00E949C
:102AB0007603D82ED7010D911D912D913C910F5F7A
:102AC0001F4F2F4F3F4FF701008311832283338322
:102AD000802F8170880F880F880FB901A80199E0B5
:102AE00076956795579547959A95D1F73695279599
:102AF000179507958062642F402F20E00E9476038F
:102B0000D7014D915D916D917C9113974F5F5F4F10
:102B10006F4F7F4FF7014083518362837383282F68
:102B20003D2D8FB7F894398328838FBF5196CD916F
:102B3000DC9152970D911D912D913C91802F8170C8
:102B4000880F880F880FB901A80199E076956795DD
:102B5000579547959A95D1F73695279517950795E7
:102B60008062642F402F20E00E947603D82EF70168
:102B700000811181228133810F5F1F4F2F4F3F4F03
:102B80000083118322833383802F8170880F880F05
:102B9000880FB901A80199E07695679557954795F3
:102BA0009A95D1F736952795179507958062642FEA
:102BB000402F20E00E947603F7014081518162811D
:102BC00073814F5F5F4F6F4F7F4F408351836283AD
:102BD0007383282F3D2D8FB7F894398328838FBFB7
:102BE000C389D4890081118122813381802F817032
:102BF000880F880F880FB901A80199E0769567952D
:102C0000579547959A95D1F7369527951795079536
:102C10008062642F402F20E00E947603D82ED701D7
:102C20000D911D912D913C9113970F5F1F4F2F4FC9
:102C30003F4FF7010083118322833383802F8170FC
:102C4000880F880F880FB901A80199E076956795DC
:102C5000579547959A95D1F73695279517950795E6
:102C60008062642FCDCE0F84D889C02D88E568E0BE
:102C700040E020E00E947603082F80E560E040E01D
:102C800020E00E947603202F382F8FB7F8943983E5
:102C900028838FBFD7015196CD91DC91529780E563
:102CA00068E040E020E00E94760320E0382F8FB7F4
:102CB000F894398328838FBFE701ED85FE85AD81C8
:102CC000BE8180E037CDE7010584F685E02DAD813A
:102CD000BE8181E02FCDEF81F8852FB7F8948081F8
:102CE00091812FBFD82E092F488159816A817B811C
:102CF000DB01CA0187709070A070B0700097A105C9
:102D0000B105A9F4DB01CA010197A109B1099F70BE
:102D10004150487F82EC692F20E00E94760388E7CB
:102D200099E60197F1F7488159816A817B81477063
:102D300081EC60E0202F0E947603E7018881998171
:102D4000AA81BB818C019D010F5F1F4F2F4F3F4F09
:102D5000088319832A833B83B901A8014770507007
:102D600060707070411551056105710589F4692F16
:102D70006F70402F4150487F82EC20E00E94760324
:102D800088E799E60197F1F7088119812A813B814B
:102D9000402F477081EC60E02D2D0E947603E70103
:102DA00088819981AA81BB810196A11DB11D88836B
:102DB0009983AA83BB834E895F89688D798D841737
:102DC0009507A607B70708F051CCE985FA852FB714
:102DD000F894808191812FBFD82E092F4881598185
:102DE0006A817B81DB01CA0187709070A070B0702E
:102DF0000097A105B105A9F4DB01CA010197A1095A
:102E0000B1099F704150487F82EC692F20E00E94F9
:102E1000760388E799E60197F1F7488159816A813D
:102E20007B81477081EC60E0202F0E947603F701E0
:102E300080819181A281B3818C019D010F5F1F4F21
:102E40002F4F3F4FE7010083118322833383B90162
:102E5000A801477050706070707041155105610590
:102E6000710589F4692F6F70402F4150487F82ECC3
:102E700020E00E94760388E799E60197F1F7088140
:102E800019812A813B81402F477081EC60E02D2D14
:102E90000E947603E70188819981AA81BB8101960E
:102EA000A11DB11D88839983AA83BB834E895F8945
:102EB000688D798D84179507A607B70708F0D6CBDC
:102EC000EB85FC852FB7F894808191812FBFD82E98
:102ED000092F488159816A817B81DB01CA01877092
:102EE0009070A070B0700097A105B105A9F4DB0146
:102EF000CA010197A109B1099F704150487F82EC36
:102F0000692F20E00E94760388E799E60197F1F7A0
:102F1000488159816A817B81477081EC60E0202F74
:102F20000E947603F70180819181A281B3818C0197
:102F30009D010F5F1F4F2F4F3F4FE701008311830C
:102F400022833383B901A80147705070607070709C
:102F5000411551056105710589F4692F6F70402F86
:102F60004150487F82EC20E00E94760388E799E692
:102F70000197F1F7088119812A813B81402F477021
:102F800081EC60E02D2D0E947603E7018881998114
:102F9000AA81BB810196A11DB11DF7018883998388
:102FA000AA83BB834E895F89688D798D84179507C5
:102FB000A607B70708F4B8CB59CBEF81F8852FB730
:102FC000F894808191812FBF082FD92E4881598193
:102FD0006A817B81442329F54A015B0108948108B9
:102FE0009108A108B1082401350129E0769467947D
:102FF000579447942A95D1F7B501A4017695679522
:103000005795479540788CE4642D20E00E94760324
:103010008CEB94E30197F1F7E701488159816A81CC
:103020007B81842F8170880F880F880F4A015B0194
:10303000B694A79497948794806460E0482D2D2DD2
:103040000E947603F70180819181A281B381AC0156
:10305000BD014F5F5F4F6F4F7F4FE701408351834B
:10306000628373834423E1F44C015D01F9E0B6947B
:10307000A79497948794FA95D1F7B695A7959795C5
:103080008795482F40788CE4682D20E00E947603D5
:103090008CEB94E30197F1F7488159816A817B8138
:1030A000842F8170880F880F880F4A015B01B694C6
:1030B000A79497948794806460E0482D202F0E9405
:1030C0007603E70188819981AA81BB810196A11DC0
:1030D000B11D88839983AA83BB834E895F89688DDC
:1030E000798D84179507A607B70708F0DCCBE9852B
:1030F000FA852FB7F894808191812FBF082FD92EA0
:10310000488159816A817B81442321F54A015B0111
:10311000089481089108A108B1082401350129E02B
:1031200076946794579447942A95D1F7B501A401F2
:10313000769567955795479540788CE4642D20E007
:103140000E9476038CEB94E30197F1F74881598153
:103150006A817B81842F8170880F880F880F4A01D4
:103160005B01B694A79497948794806460E0482D9F
:103170002D2D0E947603F70180819181A281B38178
:10318000AC01BD014F5F5F4F6F4F7F4FE701408341
:103190005183628373834423E1F44C015D01F9E0C0
:1031A000B694A79497948794FA95D1F7B695A79576
:1031B00097958795482F40788CE4682D20E00E94F1
:1031C00076038CEB94E30197F1F7488159816A818A
:1031D0007B81842F8170880F880F880F4A015B01E3
:1031E000B694A79497948794806460E0482D202F2C
:1031F0000E947603E70188819981AA81BB810196AB
:10320000A11DB11D88839983AA83BB834E895F89E1
:10321000688D798D84179507A607B70708F043CB0B
:10322000EB85FC852FB7F894808191812FBF082F03
:10323000D92E488159816A817B81442321F54A0135
:103240005B01089481089108A108B10824013501A7
:1032500029E076946794579447942A95D1F7B5015D
:10326000A401769567955795479540788CE4642D31
:1032700020E00E9476038CEB94E30197F1F74881FC
:1032800059816A817B81842F8170880F880F880F14
:103290004A015B01B694A79497948794806460E098
:1032A000482D2D2D0E947603F70180819181A28106
:1032B000B381AC01BD014F5F5F4F6F4F7F4FE7019F
:1032C00040835183628373834423E1F44C015D01A5
:1032D000F9E0B694A79497948794FA95D1F7B695A8
:1032E000A79597958795482F40788CE4682D20E026
:1032F0000E9476038CEB94E30197F1F748815981A2
:103300006A817B81842F8170880F880F880F4A0122
:103310005B01B694A79497948794806460E0482DED
:10332000202F0E947603E70188819981AA81BB81C1
:103330000196A11DB11DF70188839983AA83BB83E0
:103340004E895F89688D798D84179507A607B70721
:1033500008F4EAC9A8CA0E94D11208950F931F93D6
:10336000CF93DF9300D000D00F92CDB7DEB760913E
:103370006E0280916F02643061F0603151F00F9005
:103380000F900F900F900F90DF91CF911F910F91A1
:103390000895853001F1863009F4B8C08D3009F404
:1033A0007FC08E3009F452C0833049F7603139F75D
:1033B00080ED89831A821B821C821D821F9BD5C0CF
:1033C0008091DC009091DD0084FDD9CFCE01019683
:1033D0000E943304D4CFE4E0F1E0A491AA0FAA0F35
:1033E000AA0F09F4C0C09F0124503040A150B0E0A2
:1033F000AA0FBB1FAE5FBE4F40E050E0F9018591C0
:103400009491480F591F2E5F3F4F2A173B07B1F782
:10341000DE01119685E0FD0111928A95E9F7E5E05C
:10342000F1E0E491EA834D83643009F463C06031D4
:1034300009F0A5CF1F998DC08091DC009091DD002F
:1034400084FD9DCFCD010E94E30399CF1F9B97CFB1
:103450008E010F5F1F4F85E0F80111928A95E9F701
:1034600080ED898387E790E00E940E438A8386E798
:1034700090E00E940E438B8385E790E00E940E430C
:103480008C8384E790E00E940E438D838091DC0062
:103490009091DD0084FD73CFC8010E940B046FCFB3
:1034A0001F996DCF8E010F5F1F4F85E0F8011192BC
:1034B0008A95E9F780ED898387E790E00E940E43C3
:1034C0008A8386E790E00E940E438B8385E790E035
:1034D0000E940E438C8384E790E00E940E438D830C
:1034E0008091DC009091DD0084FD49CFC8010E94ED
:1034F000BB0345CF1F9923C08091DC009091DD0074
:1035000084FD3DCFCD010E94BB0339CF84E790E01D
:10351000609173020E94224385E790E060917202FD
:103520000E94224386E790E0609171020E9422434C
:1035300087E790E0609170020E94224320CF809143
:10354000DC009091DD0084FD1ACFCD010E940B04B8
:1035500016CF8091DC009091DD0084FD10CFCD016D
:103560000E9433040CCF40E053CF8091DC00909157
:10357000DD0084FD04CFCE0101960E94E303FFCE5F
:10358000CB010E94AE1908951F93CF93DF93EB01F7
:103590000E940E43182FCE010E940E4387FD15C0D6
:1035A0008F77412F50E09A01220F331F440F551F90
:1035B000440F551F440F551F240F351F280F311D71
:1035C000C901DF91CF911F910895412F50E09A01D9
:1035D000220F331F440F551F440F551F440F551F13
:1035E000240F351F8F77281B3109C901DF91CF9137
:1035F0001F9108950F931F93CF93DF93FC013581A3
:10360000832F90E02091BB0120783072232BDC01C6
:10361000AF70B070AE5ABE4F3C91232B807C90703F
:10362000009709F08DC02093BB01808185FF73C096
:1036300010923C01A0912801B09129011A961C9288
:10364000A0912A01B0912B011A961C921A9793818E
:1036500081E095FF80E0C0912801D0912901A091DF
:103660002A01B0912B018B871B968C932FB7F8946E
:103670008091890490918A04A0918B04B0918C046C
:103680002FBF40911F0B5091200B6091210B709127
:10369000220B8C019D01041B150B260B370BB90166
:1036A000A801413A1FE0510710E0610710E07107DF
:1036B00008F0A7C080931F0B9093200BA093210BC1
:1036C000B093220B868181FD37C02FB7F89480918B
:1036D000890490918A04A0918B04B0918C042FBF2F
:1036E00089352BE1920720E0A20720E0B20770F0B5
:1036F00080914F01882351F080915001882309F473
:1037000080C080915101882309F47BC0DF91CF9163
:103710001F910F91089581E080933C01A0912801B1
:10372000B09129011A968C93A0912A01B0912B0196
:103730001A968C931A978BCF878186FDE7CFC5CFDA
:103740002068A8EFB3E09FB7F89418968C9118976B
:1037500081FD4FC018968C91189782FD4AC018962B
:103760008C911897846018968C9318979FBF8FB789
:10377000F8944091890450918A0460918B0470916F
:103780008C048FBF48515C4F6F4F7F4F61707070DA
:1037900016964C93169717965C931797962F9170E1
:1037A00018968C9118978E7F892B18968C93189762
:1037B00011961C921E9288E591E013969C938E932D
:1037C000129715961C921E92149718968C91189722
:1037D000826018968C93189718968C9118978B7F07
:1037E00018968C9318978091F7038F5F8093F70357
:1037F0001ACF9FBF199634E0A838B30709F0A3CFBA
:1038000012CF0E94DD0B1F990895CB010E94FA1A76
:1038100008951F9B0895CB010E94FA1A08950F93F3
:103820001F93CF93DF930091B6011091B701812FC1
:1038300017FF03C091E090939B0186FF49C065E0AC
:1038400071E0FB01949131962491592F40E030E0D2
:10385000242B352B3093C3012093C201FB013296F8
:103860009491FB0133962491592F40E030E0242BB2
:10387000352B3093C1012093C001FB013496949104
:10388000FB0135962491592F40E030E0242B352B55
:103890003093BF012093BE01FB0136969491695F7E
:1038A0007F4FFB016491592F40E0262F30E0242BFD
:1038B000352B3093BD012093BC0185FDC2C0FEE0D5
:1038C0000E3F1F07F9F0DF91CF911F910F910895DF
:1038D00085FDB7C0E0912801F09129018081918197
:1038E0009093BF018093BE01E0912A01F0912B01DA
:1038F000808191819093BD018093BC01FEE00E3FD9
:103900001F0709F780914F01882309F0C3C08AE19E
:1039100090E00E94DF41DC0123982B9A229A219AA1
:10392000209A8CB580658CBD8CB59DB58C7F9E7FB3
:103930009DBD8CBD14961C92149743E052E020E686
:103940003AEE7CEA63E5249A2C98852F8A95F1F764
:103950002C9A852F8A95F1F72C98C9010197F1F7D8
:103960007EBD0DB407FEFDCF6EBD0DB407FEFDCFCD
:103970001EBC0DB407FEFDCF8EB51EBC0DB407FEF8
:10398000FDCF833509F48EC04150E9F614964C9171
:10399000149786EB91E016969C938E9315979C0155
:1039A0002250304018963C932E9317979C01245038
:1039B00030401A963C932E9319979C012650304024
:1039C0001C963C932E931B979C01245F3F4F1E96A1
:1039D0003C932E931D979C01265F3F4F50963C933E
:1039E0002E931F979C01285F3F4F52963C932E9336
:1039F0005197069654969C938E935397442309F0BF
:103A00008AC020E2822F9091B7012FB7F89490934B
:103A1000C3018093C2012FBFE5E9F1E0E491F0E03A
:103A2000EE0FFF1FEE0FFF1FEC55FE4FB2A3A1A339
:103A30008BEA99E194A383A3DF91CF911F910F911A
:103A40000895E801D070CC0FDD1FCC0FDD1FCC0F27
:103A5000DD1FCE010E941C439093C2018093C301DD
:103A6000CE0102960E941C439093C001E0ECF1E06D
:103A70008183CE0104960E941C439093BE018093E3
:103A8000BF01CE0106960E941C439093BC01809317
:103A9000BD0115CF10924F0180916E008D7F8093F4
:103AA0006E0035CF81E014968C93149786EB91E0ED
:103AB00016969C938E9315979C0122503040189631
:103AC0003C932E9317979C01245030401A963C93B8
:103AD0002E9319979C01265030401C963C932E93B0
:103AE0001B979C01245F3F4F1E963C932E931D977E
:103AF0009C01265F3F4F50963C932E931F979C014D
:103B0000285F3F4F52963C932E93519706965496BA
:103B10009C938E93539720E075CF0E940F1C0895BD
:103B2000CF93DF93CDB7DEB76C970FB6F894DEBFB7
:103B30000FBECDBF80E091E0FC01259134912115AD
:103B4000310509F46AC1FC01659174916295729521
:103B5000707F7627607F76276115710591F040E0D0
:103B600050E020E030E0F90185919491480F591F11
:103B70002E5F3F4F26173707B0F34115510509F067
:103B80004AC100000000000085E991E0FC01249199
:103B9000E22FF0E0EE0FFF1FEE0FFF1FEC55FE4F80
:103BA00012A211A22DE83DE134A323A3FC01349716
:103BB000E491F0E0EE0FFF1FEE0FFF1FEC55FE4FFC
:103BC00012A211A228E631E034A323A30697FC0138
:103BD0008491E82FF0E0EE0FFF1FEE0FFF1FEC5572
:103BE000FE4F88E891E092A381A325E635E234A355
:103BF00023A39093FF028093FE028AED95E29093B7
:103C00000103809300031F9B9EC11092C302109278
:103C1000C20280EC9AE19093C5028093C402109294
:103C2000CF021092CE0283E09CE19093D102809368
:103C3000D0021092D3021092D20289E09CE19093BC
:103C4000D5028093D4021092C7021092C60280E17E
:103C50009CE09093C9028093C8021092CB0210920C
:103C6000CA028BEE9BE09093CD028093CC0208E1D8
:103C700011E01093D7020093D60287E791E090936A
:103C8000D9028093D8021092DB021092DA0283E705
:103C900099E09093DD028093DC021092EB02109287
:103CA000EA028DE49AE09093ED028093EC02109288
:103CB000DF021092DE0284E199E09093E1028093AA
:103CC000E0021092EF021092EE0289EC98E09093DD
:103CD000F1028093F0021092E3021092E20286E871
:103CE00096E09093E5028093E4021092F302109222
:103CF000F20285E19BE09093F5028093F40210922A
:103D0000E7021092E6028AE698E09093E902809337
:103D1000E8021092F7021092F6028FE198E0909379
:103D2000F9028093F8021F999EC1789424E031E053
:103D3000F9016491660F660F660F09F4CDC1245036
:103D40003040615070E0660F771F6E5F7E4F40E03D
:103D500050E0F90185919491480F591F2E5F3F4F14
:103D600026173707B1F78E010B5F1F4F85E0D8018B
:103D70001D928A95E9F7E5E0F1E0E491EE8382E0B7
:103D80008F8381E2888749871F9B50C08091DC0028
:103D90009091DD0084FD03C0C8010E940B0480E304
:103DA00095E70197F1F78091DC009091DD0084FDAB
:103DB00003C0C8010E9433041F8A1E8A8AEF92E062
:103DC000682F998F888F1B8E1A8E40E05F89798DBE
:103DD00080E09B8D28E53BE10E94B70483B121E0A0
:103DE00030E085FD02C020E030E08091230B90E0C0
:103DF000822B932B8093230B009779F183B185FD60
:103E00002CC080E691E061E00E94224381E691E0CF
:103E100061E00E9422430E94DD0BFC013296259155
:103E200034912115310509F4ACCE8DCE8091DC00A2
:103E30009091DD0084FD03C0C8010E94BB0380E3B4
:103E400095E70197F1F78091DC009091DD0084FD0A
:103E5000B3CFC8010E94E303AFCF3FB7F89490916E
:103E60001D0B80911E0B981709F466C080911D0BE5
:103E700090E0DC01AA0FBB1FA80FB91FAA0FBB1F40
:103E8000A35EBA4F8D919C9111971296ED91FC9182
:103E9000139714966C91149715967C911597209111
:103EA0001D0B2F5F20931D0B3FBF309709F0099525
:103EB000A89508EF13E006C0075F1F4FF4E008382D
:103EC0001F07C1F1F801808581FFF6CF2FB7F89465
:103ED0008091890490918A04A0918B04B0918C0404
:103EE0002FBF89839A83AB83BC83D801908591705F
:103EF0008B818170981701F72681378189819A819A
:103F000028173907C8F6648175810280F381E02D96
:103F10008D919C910995F80180858D7F8087809196
:103F2000F70381508093F703075F1F4FF4E00838D1
:103F30001F0741F6A89552CF60E070E0EFE4F1E092
:103F400080E090E0B1CF81E090E00E94DF418C0101
:103F5000888B198B8AEC96E3682F9B8B8A8B1D8A42
:103F60001C8AA8017B8980E09D8924EF31E00E94B2
:103F7000B7040093AE021093AF0285EC9EE29093DB
:103F8000B1028093B0020093B2021093B3029093F7
:103F9000B5028093B4020093B6021093B7029093D7
:103FA000B9028093B8020093BA021093BB0281E574
:103FB00096E09093BD028093BC020093BE021093E2
:103FC000BF0289E89EE29093C1028093C00286E01E
:103FD00090E00E94DF418C01DC011C9214961C923F
:103FE0001E92139715961C9280E390E00E94164350
:103FF000DC01CB0186309105A105B10508F06AC04E
:1040000029E188E390E02C8F0E941643AB01BC01AC
:104010002C8D30E0249FC001259F900D349F900D82
:1040200011248C599F4FF801928381831093FB02D6
:104030000093FA0289E195E09093FD028093FC02DF
:10404000402F1B870A8782EF97E3682F9D878C8715
:104050001F861E865B857D8580E09F8524EF31E08D
:104060000E94B704D2CD8AE190E00E94DF41FC01BA
:10407000138212821586148617861686118A138B70
:10408000028B89EA94E0958B848B178B068B8FEEDD
:1040900092E0918F808FF0930703E09306038DEDFC
:1040A0009EE39093090380930803F0930F03E0933A
:1040B0000E0383EB90E39093110380931003F0932E
:1040C0001703E093160389EC9CE390931903809304
:1040D00018032BCE20E195CF40E050E044CEAC0158
:1040E000FC01E852FF4F845C9E4F2FE431E01182C7
:1040F0001082338322833496E817F907C1F7CA0187
:1041000080569E4F11821082338322833496E817A3
:10411000F907C1F78091D80081608093D800E2EE62
:10412000F0E08091E20081788A608093E2008091E3
:10413000E3008E6081838091E40081788B648283C8
:104140008091ED008F708093ED0088E08093EF0008
:1041500085E090E0A0EEBFEF8093F4009093F5002F
:10416000A093F600B093F7008091ED008F7080610E
:104170008093ED0088E08093EF0085E08093F40069
:104180009093F500A093F600B093F7008091ED00B6
:104190008F7080628093ED0088E08093EF0085E06F
:1041A0008093F4009093F500A093F600B093F7008D
:1041B0008091ED008F7080638093ED0088E08093A4
:1041C000EF0080E0A0ECB3E68093F0009093F10064
:1041D000A093F200B093F30085E0A0EEBFEF8093D0
:1041E000F4009093F500A093F600B093F70080914F
:1041F000ED008F7080648093ED0088E08093EF0085
:1042000085E08093F4009093F500A093F600B093BE
:10421000F7008091ED008F7080658093ED0088E05D
:104220008093EF0085E08093F4009093F500A093D5
:10423000F600B093F7008091ED008F708066809358
:10424000ED0088EC8093EF0080E0A0E0B9E080937F
:10425000F0009093F100A093F200B093F30085E09A
:10426000A0EEBFEF8093F4009093F500A093F600CA
:10427000B093F7008091ED008F7080678093ED0020
:1042800088E88093EF0080E0A0E0BAE08093F0003F
:104290009093F100A093F200B093F30085E0A0EAC0
:1042A000BEEF8093F4009093F500A093F600B093D6
:1042B000F7008091ED008F7080688093ED0088ECAE
:1042C0008093EF0080E0A0E0BEE08093F000909348
:1042D000F100A093F200B093F30085E0A0EEBFEFF1
:1042E0008093F4009093F500A093F600B093F7004C
:1042F0008091ED008F7080698093ED0088E8809355
:10430000EF0080E0A0E0B0E18093F0009093F10036
:10431000A093F200B093F30085E0A0E4BFEF809398
:10432000F4009093F500A093F600B093F70080910D
:10433000ED008F70806A8093ED0088E88093EF0035
:1043400080E0A0E2B2E48093F0009093F100A093AB
:10435000F200B093F30085E0A0E6BFEF8093F40095
:104360009093F500A093F600B093F7008091ED00D4
:104370008F70806B8093ED0088E88093EF0080E081
:10438000A0E4BAE48093F0009093F100A093F200CF
:10439000B093F30085E0A0E8B7ED8093F40090932C
:1043A000F500A093F600B093F7008091ED008F70B8
:1043B000806C8093ED0088E88093EF0080E0A0E0BF
:1043C000BDE88093F0009093F100A093F200B093C9
:1043D000F30085E0A0EEB8EF8093F4009093F50031
:1043E000A093F600B093F7008091ED008F70806D80
:1043F0008093ED0088EC8093EF0080E0A0E8BCEEB5
:104400008093F0009093F100A093F200B093F3003A
:1044100085E0A0EEBFEF8093F4009093F500A093A9
:10442000F600B093F7008091ED008F70806E80935E
:10443000ED0088E88093EF0080E0A0E0B0EF80938B
:10444000F0009093F100A093F200B093F30085E0A8
:10445000A0E8BFEF8093F4009093F500A093F600DE
:10446000B093F70080EE9FE79093DF008093DE002B
:104470008091DB00806B8093DB005093D6044093E7
:10448000D50487E99CE29093D8048093D704809167
:10449000D80082608093D8008091D90082FFFCCF41
:1044A00008952F923F924F925F926F927F928F92D8
:1044B0009F92AF92BF92CF92DF92EF92FF920F93B3
:1044C0001F93CF93DF9300D0CDB7DEB73C011B0124
:1044D000B9011A8309834F88588CDC0111963C92EC
:1044E0002E92FC0112821382148215821696CD92AE
:1044F000DD92ED92FC92199782869386A486B5860A
:1045000021E0268785E987BD84B580788A6084BDEF
:104510007092DE046092DD0480E695E09093E00402
:104520008093DF04758A648A83E593E0978B868B9A
:10453000718E608E83E693E0938F828F148E82E07B
:10454000858F168E278F90961D921D921D921C921C
:10455000939794961C92949796965C934E93959706
:1045600098967C936E939797E981FA819A96FC933B
:10457000EE9399979B961D921D921D921C929E9769
:104580008AE09F968C939F97D0961C92D097D29654
:104590001C921E92D197D3961C92D397D4961C92BC
:1045A000D497D5961C92D597D6961C92D697D79627
:1045B0001C92D797D8961C92D897D9961C9289E0CE
:1045C00090E00E940E43F82E882483948822C3B082
:1045D00084E290E00E94DF418C01FC015182408224
:1045E000B20180E090E02FE334E243E050E00E942B
:1045F000584128E630E140E050E00E949E41D80159
:1046000012962D933D934D935C93159716968C922D
:10461000169717961C92179718961C9218978C2D20
:104620008095881F8827881F19968C9319971A964A
:104630001C921A971D961C921E921C971F961C92F4
:104640001E921E9751961C921E92509753961C9242
:104650001E92529755961C921E92549756961C92F3
:10466000569757961C92579759961C921E92589798
:104670005B961C921E925A975C961C925C9791E0F6
:10468000811090E09170892F880F892BF801858F18
:10469000168E81E0878F3C9A3D9AD30151961C93E8
:1046A0000E9350978F2C86948822F3B084E290E08A
:1046B0000E94DF418C01298D3A8DFC0131832083DA
:1046C000B90180E090E02FE334E243E050E00E9443
:1046D000584128E630E140E050E00E949E41D80178
:1046E00012962D933D934D935C93159716968C924D
:1046F000169717961C92179718961C9218978F2D3D
:10470000881F8827881F19968C9319971A961C92D0
:104710001A971D961C921E921C971F961C921E9211
:104720001E9751961C921E92509753961C921E9261
:10473000529755961C921E92549756961C925697D5
:1047400057961C92579759961C921E9258975B96B3
:104750001C921E925A975C961C925C9791E0811075
:1047600090E09170892F880F892BF801858F168E24
:1047700081E0878F3C9A3D9AD30153961C930E9308
:104780005297F101B09611823C9A3D9A2FB7F89456
:1047900084E790E0E981FA81918380832FBF979627
:1047A000ED91FC9198978FB7F894118210828FBF8A
:1047B000E8EFF3E09FB7F894808581FD48C08085DD
:1047C00082FD45C08085846080879FBF2FB7F894A5
:1047D0008091890490918A04A0918B04B0918C04FB
:1047E0002FBF8C509E4FAF4FBF4FA170B0708683CC
:1047F00097839A2F917080858E7F892B8087718215
:10480000608288E596E39383828315821482808593
:104810008260808780858B7F80878091F7038F5FA0
:104820008093F7030F900F90DF91CF911F910F911D
:10483000FF90EF90DF90CF90BF90AF909F908F90C0
:104840007F906F905F904F903F902F9008959FBF03
:104850003996B4E0E838FB0709F0ACCFE3CF2F92EC
:104860003F924F925F926F927F928F929F92AF9200
:10487000BF92CF92DF92EF92FF920F931F93CF934D
:10488000DF93CDB7DEB72B970FB6F894DEBF0FBE20
:10489000CDBFFB01C080D180E280F380C701B601AB
:1048A0002CE030E040E050E00E9458416D837E8370
:1048B0008F8398878EE090E00E948D05880F991F66
:1048C000880F991F01972C0166247724160181E037
:1048D00090E09B878A8731C0682D592D4A2D7B2D0A
:1048E000862E952EA42EB72E281739070CF46AC0F1
:1048F0004B815C814B835C83281739070CF469C0BA
:1049000099818A8199838A834A855B8540345105E0
:1049100008F469C084E090E02A853B85289F7001F7
:10492000299FF00C389FF00C1124FB86EA86A70122
:1049300084E04130580708F061C02A853B85690151
:10494000EE24FF246D817E818F819885A7019601D9
:104950000E949E4189019A01015010402040304040
:10496000401651066206730610F493018201B801E5
:104970006F5F7F4F80E090E0A70196010E94584151
:104980002CE030E040E050E00E949E4169017A0155
:10499000C4018219930997FD2DC09601221933098C
:1049A00037FD24C0281739070CF096CF6C2D5D2DEC
:1049B0004E2D7F2D862E952EA42EB72E2817390723
:1049C0000CF096CFA8014B835C83281739070CF0B5
:1049D00097CF9A858B8599838A834A855B854034F6
:1049E000510508F097CF88E090E096CF309521955B
:1049F0003F4FD8CF909581959F4FCFCFEB80FC80D4
:104A0000F0928900E092880029813A8120343105B2
:104A100009F458C02134310508F442C049815A8153
:104A200081E04030580709F447C094E0403059070E
:104A300009F43FC09985977080918100887F892B08
:104A40008093810080918000909181008C7F977E7F
:104A5000986090938100809380008F738093800092
:104A600080916F00826080936F00B401C5012B9626
:104A70000FB6F894DEBF0FBECDBFDF91CF911F916F
:104A80000F91FF90EF90DF90CF90BF90AF909F90ED
:104A90008F907F906F905F904F903F902F900895F0
:104AA0002130310561F02830310521F6E2E0E98757
:104AB000C1CF35E03987BECF24E02987BBCF41E0A5
:104AC0004987B8CFF3E0F987B5CFAF92BF92CF92C5
:104AD000DF92EF92FF920F931F93CF93DF9300D05B
:104AE00000D0CDB7DEB75C011091AB018091AD0174
:104AF00081FF43C0112309F440C08EE190E0909300
:104B000019018093180180916F00826080936F007B
:104B1000F50181811817E1F11183E0912801F091ED
:104B200029016081718180E090E028EF36E041E06A
:104B300050E00E94584128EE33E040E050E00E94EF
:104B40009E4169017A01212F30E040E050E0C70129
:104B5000B6010E949E4189019A0109831A832B8321
:104B60003C83073911052105310590F0C501BE01CF
:104B70006F5F7F4F0E942F240BC086E090E09093E0
:104B800019018093180180916F008D7F80936F00D1
:104B900081E0F50182830F900F900F900F90DF91CD
:104BA000CF911F910F91FF90EF90DF90CF90BF902A
:104BB000AF900895AF92BF92CF92DF92EF92FF92A3
:104BC0000F931F93CF93DF9300D000D0CDB7DEB704
:104BD0005C0110918602112309F44BC08EE190E034
:104BE000909319018093180180916F0082608093E7
:104BF0006F00F5018181181751F11183E0912801AF
:104C0000F09129016081718180E090E028EF36E029
:104C100041E050E00E94584128EE33E040E050E08F
:104C20000E949E4169017A01212F30E040E050E06E
:104C3000C701B6010E949E4189019A0109831A8326
:104C40002B833C830739110521053105F0F481E000
:104C5000F50182830F900F900F900F90DF91CF910D
:104C60001F910F91FF90EF90DF90CF90BF90AF908A
:104C7000089586E090E09093190180931801809147
:104C80006F008D7F80936F00E2CFC501BE016F5F23
:104C90007F4F0E942F24DBCF4F925F926F927F92C3
:104CA0008F929F92AF92BF92CF92DF92EF92FF923C
:104CB0000F931F93CF93DF93CDB7DEB760970FB6F7
:104CC000F894DEBF0FBECDBF8130910529F100976A
:104CD00061F480912801909129010E947542809190
:104CE0002A0190912B010E94754260960FB6F894AC
:104CF000DEBF0FBECDBFDF91CF911F910F91FF900F
:104D0000EF90DF90CF90BF90AF909F908F907F906B
:104D10006F905F904F900895EDE1F5E02FE431E062
:104D2000118210828FE491E03383228336964BE028
:104D3000ED31F407A9F710921D0B10921E0B109283
:104D40001A051092190500E511E010931C05009357
:104D50001B05109216051092150510931805009367
:104D60001705109212051092110510931405009367
:104D7000130510920E0510920D0510931005009367
:104D80000F0510920A051092090510930C05009367
:104D90000B05109206051092050510930805009367
:104DA0000705109202051092010510930405009367
:104DB00003051092FE041092FD0410930005009369
:104DC000FF041092FA041092F9041093FC0400936B
:104DD000FB041092F6041092F5041093F80400936B
:104DE000F7041092F2041092F1041093F40400936B
:104DF000F3041092EE041092ED041093F00400936B
:104E0000EF041092EA041092E9041093EC0400936A
:104E1000EB041092E6041092E5041093E80400936A
:104E2000E7041092E2041092E1041093E40400936A
:104E3000E3041092DE041092DD041093E00400936A
:104E4000DF041092DA041092D9041093DC0400936A
:104E5000DB041092D6041092D5041093D80400936A
:104E6000D7041092D2041092D1041093D40400936A
:104E7000D3041092CE041092CD041093D00400936A
:104E8000CF041092CA041092C9041093CC0400936A
:104E9000CB041092C6041092C5041093C80400936A
:104EA000C7041092C2041092C1041093C40400936A
:104EB000C3041092BE041092BD041093C00400936A
:104EC000BF041092BA041092B9041093BC0400936A
:104ED000BB041092B6041092B5041093B80400936A
:104EE000B7041092B2041092B1041093B40400936A
:104EF000B3041092AA041092A9041093AC04009376
:104F0000AB041092A6041092A5041093A804009379
:104F1000A7041092A2041092A1041093A404009379
:104F2000A30410929E0410929D041093A004009379
:104F30009F0410929A041092990410939C04009379
:104F40009B04109296041092950410939804009379
:104F50009704109292041092910410939404009379
:104F6000930410928E0410928D0410939004009379
:104F70008F04109209002FED3EE2309399002093A8
:104F8000980020919100287F21602093910020912A
:104F90009000309191002C7F377E386030939100E3
:104FA000209390002F732093900028E834E03093F2
:104FB000AE042093AD042DEF32E03093B004209383
:104FC000AF041092890410928A0410928B041092FC
:104FD0008C041092950010929400C19A2091710057
:104FE0002260209371001092F9031092F8039093BD
:104FF000FB038093FA031092020410920104909331
:1050000004048093030410920B0410920A049093FA
:105010000D0480930C0410921404109213049093C6
:1050200016048093150410921D0410921C04909392
:105030001F0480931E04109226041092250490935E
:1050400028048093270410922F0410922E0490932A
:1050500031048093300410923804109237049093F6
:105060003A048093390410924104109240049093C2
:1050700043048093420410924A041092490490938E
:105080004C0480934B04109253041092520490935A
:1050900055048093540410925C0410925B04909326
:1050A0005E0480935D0410926504109264049093F2
:1050B00067048093660410926E0410926D049093BE
:1050C000700480936F04109277041092760490938A
:1050D0007904809378041092800410927F04909356
:1050E00082048093810486ED91E00E946F201092EB
:1050F000A4011092A3011093A6010093A5011092A0
:10510000A9011092A8011092AB011092AA0110926D
:10511000AD011092AC011092AF011092AE0110924D
:10512000B1011092B0011092B3011092B20110922D
:10513000B5011092B4011092B7011092B60110920D
:10514000B9011092B8011092BB011092BA011092ED
:10515000BD011092BC011092BF011092BE011092CD
:10516000C1011092C0011092C3011092C20155EC0E
:10517000E52E51E0F52ED70111961C921E92139642
:105180001C930E931297E4E0F0E0EE0EFF1EF5ED97
:10519000EF16F1E0FF0679F71092A1011092A0013D
:1051A0001092A201539A5B9A52985A9A549A27984D
:1051B0002F9A09E911E010939E0400939D0486E55F
:1051C0009EE29093A00480939F0410939604009312
:1051D000950488E893E09093980480939704109343
:1051E0009A04009399048CE093E090939C0480933C
:1051F0009B04E8ECF0E08091C80082608093C800D6
:105200008CE08093CC008091CD00807F8093CD0096
:105210009091C9008091CA008660877882839C6CD7
:10522000918321E0D80112962C9312978091C800A7
:1052300081608093C8005C9A8091C90080618183FD
:1052400016961C928FEF8093B3008091B000807807
:1052500082608093B000809170008C7F809370009A
:105260008CE8C82E81E0D82EC7014D9790938D0110
:1052700080938C0110928F011092900110929101F5
:1052800010929201209393018091B8018093940130
:1052900010929501C7014C979093970180939601C6
:1052A0001092980110928E014C2DDE82CD8280E604
:1052B00097E0682F98878F831A8619865E81788594
:1052C00080E09A8520ED37E00E94B704460199E618
:1052D000A92E93E0B92E260141E5642E41E0742EFB
:1052E00082E090E06CE070E00E94C41A6C0182E001
:1052F00090E06DE070E00E94C41A00D000D0EDB7DD
:10530000FEB7D282C1829483838388E191E066E014
:1053100070E0A8014D5F5F4F970123513040870136
:105320000551104075016401530142010E94512250
:1053300085E595E5A0E0B0E089839A83AB83BC83E3
:105340000F900F900F900F9008E811E0C801BE0178
:105350006F5F7F4F0E942F241093EE040093ED04A3
:1053600085E196E09093F0048093EF04402F1C8732
:105370000B8788EC97E0682F9E878D87188A1F8699
:105380005C857E8580E0988928EE33E00E94B70432
:10539000ACCCEF92FF920F931F93CF93DF93AC01AE
:1053A0006091ED008091EC00807F8093ED00809112
:1053B000EE0085FFB0C08091EE008F7D8093EE00FF
:1053C00078942091EF002F70C22FD0E03091F2003E
:1053D0003295369537707091F300E72FEE0FEE0F90
:1053E000EE0F8E2F832B972F929596959770880F9F
:1053F000991F82959295907F9827807F98278C0F90
:105400009D1F39E08530930709F4BCC03AE088302D
:10541000930709F4DFC13AE08834930709F478C1AF
:105420003BE08830930709F4E9C13BE088349307F7
:1054300009F4F2C13EE08130930709F4F4C130E190
:105440008030930709F4F6C130E18038930709F4FE
:10545000DCC130E18130930709F4F3C130E18138D8
:10546000930709F4F5C130E18032930709F4F7C1DD
:1054700030E1803A930709F4F9C130E181329307B2
:1054800009F4FBC130E1813A930709F4FDC132E42C
:105490008832930709F4FFC132E4883A930709F48C
:1054A000FDC13AE48534930709F407C232E685303A
:1054B000930709F405C232E68536930709F406C25C
:1054C0003DE88730930709F4FEC138E8853093073B
:1054D00009F4FFC13AE88530930709F41FC23CEE96
:1054E0008138930709F420C230EF8830930709F41C
:1054F00018C230EF8832930709F401C230EF8834C4
:10550000930709F4F9C130EF8836930709F05BC1BE
:10551000EAE1F0E039C08091EE008F7B8093EE00ED
:1055200078942091F2002295269527703091F3000F
:10553000732F770F770F770F872F822B932F9295EB
:1055400096959770880F991F82959295907F9827CE
:10555000807F98272091EF002F70820F911D20EF00
:105560008832920709F4A2C030EF8836930709F415
:1055700034C16093ED00DF91CF911F910F91FF90A7
:10558000EF900895E0E0F0E0222379F0EE0FFF1FA6
:10559000EE0FFF1FEE0FFF1FE40FF51F30E07091BD
:1055A000FA0071933F5F3217D0F332E685309307EC
:1055B00009F4B1C039E08530930709F417C13AE422
:1055C0008534930709F416C132E68536930709F44A
:1055D0001FC13EE08130930709F421C13DE88730C7
:1055E000930709F423C138E88530930709F409C10A
:1055F0003AE88530930709F420C13AE088309307F0
:1056000009F422C13BE08830930709F424C132E455
:105610008832930709F426C130E18030930709F4FA
:1056200028C130E18038930709F42AC130E1803283
:10563000930709F42CC130E1803A930709F431C192
:1056400030E18130930709F434C130E181389307A8
:1056500009F42BC130E18132930709F441C130E1F3
:10566000813A930709F438C132E4883A930709F480
:105670003FC13CEE8138930709F436C130EF8830E2
:10568000930709F443C130EF8834930709F43AC112
:1056900030EF8832930709F43DC130EF8836930725
:1056A00009F091C038E1E32EF12C37C0E0E0F0E0E2
:1056B0002FB7F89480911E0B90911E0B9F5F9093D3
:1056C0001E0B30911D0B931729F490911D0B9F5FBA
:1056D00090931D0B2FBF90E0E15BFF4FEE0FFF1F7C
:1056E000EE0FFF1FE40FF51F00811181228133812E
:1056F000FC01EE0FFF1FE80FF91FEE0FFF1FE35E27
:10570000FA4F00831183228333831582148231CFB1
:10571000E2E0F0E039CFEE24FF24DA01A05EBD4FD5
:105720003C91032F10E080E091E08C1B9D0B08174B
:10573000190724F01C9200E010E030E08091ED00A9
:10574000887F8093ED00230F8C91821760F49091F5
:10575000FA00FA01E80FF11DE056FE4F90838F5FCB
:105760008C938217A0F3980120563E4F240F351FCB
:105770007FB7F89490911E0B80911E0B8F5F8093E2
:105780001E0BE0911D0B8E1759F17FBFC92FD0E082
:10579000F701F696EE0FFF1FEE0FFF1FE40FF51F48
:1057A00080819181A281B381FE01EE0FFF1FEC0F7A
:1057B000FD1FEE0FFF1FE35EFA4F80839183A283EC
:1057C000B383358324838091EF008F738068809347
:1057D000EF00CFCEE1E0F0E0D7CEE1E0F0E068CF3F
:1057E00080911D0B8F5F80931D0BCFCF91E0E92E31
:1057F000F12C93CF82E0E82EF12C8FCFE3E0F0E0A4
:10580000C3CEA6E0EA2EF12C88CFE7E0F0E0BCCED4
:1058100003E0E02EF12C81CFE4E0F0E0B5CE14E01F
:10582000E12EF12C7ACFE5E0F0E0AECEB5E0EB2E44
:10583000F12C73CFE6E0F0E0A7CEF7E0EF2EF12CED
:105840006CCFE8E0F0E0A0CEE8E0EE2EF12C65CFE2
:10585000E9E0F0E099CE79E0E72EF12C5ECFEAE0C6
:10586000F0E092CE3AE0E32EF12C57CFEBE0F0E0FF
:105870008BCE9BE0E92EF12C50CFECE0F0E084CE13
:105880008CE0E82EF12C49CFEDE0F0E07DCE0DE08C
:10589000E02EF12C42CFEEE0F0E076CEEFE0F0E04B
:1058A00073CE1EE0E12EF12C38CFA0E1EA2EF12CD0
:1058B00034CFBFE0EB2EF12C30CFE0E1F0E064CE4E
:1058C000E1E1F0E061CEE3E1F0E05ECEE2E1F0E0C4
:1058D0005BCEE4E1F0E058CEE2E1EE2EF12C1DCFFC
:1058E000F1E1EF2EF12C19CF34E1E32EF12C15CF9D
:1058F00073E1E72EF12C11CFE9E1F0E045CEE8E1CC
:10590000F0E042CE86E1E82EF12C07CF95E1E92EBA
:10591000F12C03CF07E1E02EF12CFFCEE5E1F0E022
:1059200033CEE7E1F0E030CEE6E1F0E02DCE0E94AC
:10593000C9290895CF93DF93DC01C8ECD0E08091B2
:10594000C8008871B1F08091C9008091CE0080912B
:10595000C80081608093C8005C9A8091C900806112
:10596000E8ECF0E0818316961C921697DF91CF91B8
:1059700008959091C900969591708091CE00282F3E
:1059800022952F70E92FF0E0E295F295F07FFE2747
:10599000E07FFE27EE59FE4FE20FF11D30818317A5
:1059A000B1F616968C911697913009F094C0882321
:1059B000B9F506C0843009F0FBC016961C92169704
:1059C000922F990F990F990F19968C9119978770AB
:1059D000892B19968C9319978091C8008E7F80939C
:1059E000C80016968C911697823009F498C08330BF
:1059F00009F712968C911297882309F4A8CF129672
:105A00008C9112978F5F12968C93129712968C91AD
:105A10001297853009F09BCF12961C92129797CF60
:105A2000813011F719969C911997906819969C935B
:105A300019978F5F16968C931697883009F096CF3A
:105A40008091C80081608093C8005C9A8091C900F1
:105A50008061E8ECF0E0818316961C921697199607
:105A6000EC911997F0E0E256FE4FE491EF77F0E009
:105A700017968D919C911897DF01AA0FBB1FA8550F
:105A8000BE4F8C9311969C9311978091D50180FD08
:105A90006DCF8091D50182608093D5017894E257D3
:105AA000FE4FE491AE2FB0E0AA0FBB1FAA0FBB1FA1
:105AB000AC55BE4F9396ED91FC91949791968D9134
:105AC0009C91929709958091D5018D7F8093D50106
:105AD000DF91CF910895882309F439CF8130D9F02F
:105AE0008230E9F0833009F4B8C0843009F060C036
:105AF00018961C921E9217972295207F18969C91BB
:105B000018979F70922B18969C9318978F5F1696F4
:105B10008C9316972BCF82E016968C931697822F34
:105B200086958695817091E01F9B90E0891709F01A
:105B30000ECF922F969596959695990F990F199647
