:100000000C9488000C94490F0C94780F0C94A70F53
:100010000C94D60F0C9405100C9434100C946310AF
:100020000C9492100C94C1100C94F0100C941F11AD
:100030000C944E110C947D110C94AC110C94DB11AA
:100040000C940A120C9439120C9468120C949712A6
:100050000C94C6120C94F5120C9424130C945313A4
:100060000C9482130C94B1130C94E0130C940F14A1
:100070000C943E140C946D140C949C140C94CB149E
:100080000C94FA140C9429150C9458150C9487159B
:080090000C94B6151142164252
:100100000000000001831F210C277B0171DFD9FD56
:1001100011241FBECFEFD0E1DEBFCDBF11E0A0E0C4
:10012000B1E0E0E3F8E800E00BBF02C007900D92F9
:10013000A037B107D9F71BE0A0E7B1E001C01D92DD
:10014000AF36B107E1F73C9A3D9A449A459A2DE0C3
:1001500088E190E00FB6F894A895809360000FBEF8
:1001600020936000259810E0C6E9D0E000E006C0CA
:1001700022970109FE010BBF0E949E42C439D1079C
:1001800080E00807A9F70E9453180C940644000168
:10019000000200000003000000000000000000005A
:1001A0000000000000008D8C8B8A0706050400000B
:1001B000000000000000000000000000000000003F
:1001C000000000000000000000000000000000002F
:1001D000000000000000000000000000000000001F
:1001E00000000000000000000000000000008988FE
:1001F00000000300000000000000000000000000FC
:1002000000000000000002000001000000000000EB
:1002100000000000000000000000000000000000DE
:1002200000000000000000000000000000000000CE
:1002300000000000000000000000000000000000BE
:1002400000000000000000000000000000000000AE
:10025000000000000000000000000000000000009E
:10026000000000000000000000000000000000008E
:10027000000000000000000000000000000000007E
:10028000000000000000000000000000000000006E
:1002900000000000000000000000000000000895C1
:1002A0000895FC0184858F3F11F08F5F8487089546
:1002B0002FB7F8943FB7F8948091FD019091FE011B
:1002C0009F779093FE018093FD013FBF2FBF08955C
:1002D000FC0187A9882331F017AA80916E008D7FD9
:1002E00080936E0008958091F2018970893031F019
:1002F0001092D10181E08093D601089581E080932E
:10030000D10108953F924F925F926F927F928F92A8
:100310009F92AF92BF92CF92DF92EF92FF920F9394
:100320001F93CF93DF93CDB7DEB72A970FB6F8941C
:10033000DEBF0FBECDBF9A878987FB01808184769F
:100340008434C1F02A960FB6F894DEBF0FBECDBF3D
:10035000DF91CF911F910F91FF90EF90DF90CF90A1
:10036000BF90AF909F908F907F906F905F904F90D5
:100370003F9008951581012F000F000B8480C380EA
:10038000A985BA855F968C915F97882369F09096CE
:10039000CC92909791968C92919792961C9392976B
:1003A00093960C939397CECF5696ED91FC915797D9
:1003B00054968D919C9155970995292F30E0C9014C
:1003C000880F991F220F331F220F331F220F331F55
:1003D000820F931F62E170E00E943A42362EB3E032
:1003E000B61708F0DEC0F62EE0E1E61708F4FEC00E
:1003F0008F2D90E0A0E0B0E089839A83AB83BC832B
:100400004C2C582C612E702EA985BA855A96ED91E8
:10041000FC915B9758968D919C9159970995DC01B9
:10042000CB0193018201081B190B2A0B3B0BC8015E
:1004300017FDDFC08F3F910509F00CF4BFC081E0CC
:10044000E985FA85868F000F111F221F331F000FC9
:10045000111F221F331F000F111F221F331F000FF8
:10046000111F221F331FC901B80129813A814B8115
:100470005C810E94834229833A834B835C83C980D9
:10048000DA80D7FCBAC0EE24D7FCE094FE2CB2E7A9
:10049000CB16B1E0DB06B0E0EB06B0E0FB0608F0FF
:1004A0008BC0C701B601A70196010E941B424B01F8
:1004B0005C010E941B426D837E838F839887C501F8
:1004C000B40120E43CE940E050E00E941B422B01D3
:1004D0003C016D817E818F8198852CE630E040E083
:1004E00050E00E941B42DC01CB01481A590A6A0AFB
:1004F0007B0AC501B40124E833E040E050E00E94EB
:100500001B424B015C01C701B60120E935E640E022
:1005100050E00E941B42DC01CB01881A990AAA0A0A
:10052000BB0A80E09AE6A8E1B0E0880E991EAA1EF8
:10053000BB1E8D819E81AF81B885880F991FAA1F30
:10054000BB1F881A990AAA0ABB0AC301B201A501F6
:1005500094010E94614289819A81AB81BC81B7FD7F
:1005600051C0422F552747FD5095232D30E0429F23
:10057000C001439F900D529F900D112497FD44C0E0
:10058000082E892F000C881F990B000C881F991FBB
:10059000A985BA855C968C935C975D961C925D9755
:1005A000D1CE84E090E0A0E0B0E089839A83AB8371
:1005B000BC8324E0F22E24CF80E0EACF90E0829545
:1005C0009295907F9827807F98276F2D70E00E94EA
:1005D0004E4281E06F3F710539F034F0A985BA854C
:1005E0005E968C935E972FCF80E0F8CF30E1F32EAC
:1005F000FFCE909581959F4F1DCFD094C194D10887
:10060000D39441CF2195ADCFCF96BACF10920E01A2
:100610000895FC0141815281638174814F5F5F4F76
:100620006F4F7F4F4183528363837483789408951F
:10063000FC0186818430F1F0853059F18630B1F1CA
:10064000873019F08F5F86830895A081B181AF70E4
:10065000B070A65BBE4F8C918093CE008091C90094
:100660008F7DA8ECB0E011968C93119786818F5FF7
:10067000868308952181822F82958F7090E0865B1A
:100680009E4FDC018C918093CE0086818F5F8683A4
:100690000895A181B0E0AF70B070A65BBE4F8C91A1
:1006A0008093CE0086818F5F86830895A081B1817B
:1006B000B295A295AF70AB27BF70AB27ECCFDC0132
:1006C000D396EC91D397F0E03896EE0FFF1FE80F2A
:1006D000F91F0190F081E02D848595850895FC0136
:1006E000628173818481958108958091DC0080FD11
:1006F00014C08091ED00E0EFF0E01092F000118264
:1007000090EC92839AE193836093FA001092FA003E
:1007100092E49093EF008093ED0008950F931F9360
:10072000CF93DF9300D000D00F92CDB7DEB7FB019F
:100730008081893009F442C0813009F43FC0082F1C
:1007400010E0000F111F000F111F005E1F4F898363
:10075000C80103960E94D1438A83C80102960E9471
:10076000D1438B83C80101960E94D1438C83C80179
:100770000E94D1438D838091DC0084FD1FC0809155
:10078000ED00E0EFF0E01092F000118290E692832D
:1007900092E6938399819093FA009A819093FA005C
:1007A0009B819093FA009C819093FA009D81909395
:1007B000FA0095E49093EF008093ED000F900F9076
:1007C0000F900F900F90DF91CF911F910F9108958F
:1007D000FC018281882341F00284F385E02D808131
:1007E0008F3F11F08F5F80830895FC015C9AA8EC25
:1007F000B0E08091C900806111968C93119780912F
:10080000B20096819830B1F09581992391F01582CC
:10081000813968F0805990E0880F991F63E070E09B
:100820000E944E428481861720F4648308958EEFDF
:10083000848308958091C80081608093C8005C9A89
:100840008091C900806111968C931197168208954A
:10085000FC0187A9882349F481E087AB16BCA99ADB
:1008600080916E00826080936E000895CF93DF9335
:1008700000D000D000D0CDB7DEB749835A836B8358
:100880007C838D839E83EBE3F4E09FB7F8948085AF
:1008900081FD3DC0808582FD3AC08085846080876F
:1008A0009FBF4FB7F8948091CC049091CD04A09154
:1008B000CE04B091CF044FBFA90160E070E0480FB3
:1008C000591F6A1F7B1F6170707046835783962F74
:1008D000917080858E7F892B8087CF01AE014F5F1D
:1008E0005F4F26E0DA010D90AD01DC010D92CD01E4
:1008F0002150C1F780858260808780858B7F8087CB
:1009000080913A048F5F80933A0481E008C09FBFD2
:100910003996B4E0EB3CFB0709F0B7CF80E02696B0
:100920000FB6F894DEBF0FBECDBFDF91CF91089513
:100930000F931F93CF93DF93EC018091920283700A
:10094000E1F581E0888380E390E00E94D943DC01F7
:10095000CB0186309105A105B105A0F509E110E0B4
:1009600088E390E00E94D943AB01BC0180919602DC
:1009700090E08C599F4F2091950230E02F7130709C
:10098000322F2227820F931F049F9001059F300D65
:10099000149F300D1124820F931F9A8389839091A5
:1009A000930280E020919402820F911D9C838B839F
:1009B000DF91CF911F910F9108958130C9F782E0A7
:1009C0008883C1CF00E110E0CBCFDC01ED91FC9139
:1009D000119740A15FB7F8942091610B3091610BA2
:1009E0003F5F3093610B6091600B3617A9F05FBFDA
:1009F00030E0F901EE0FFF1FE20FF31FEE0FFF1FB4
:100A0000E05AFA4F918380838CE791E49383828349
:100A100044831582789408953091600B3F5F309342
:100A2000600BE5CF009721F421E030E0C901089583
:100A30008130910521F422E030E0C901089582302F
:100A4000910519F424E030E0F1CF8330910519F4D9
:100A500028E030E0EBCF8430910519F420E130E05C
:100A6000E5CF8530910519F420E230E0DFCF863004
:100A7000910519F420E430E0D9CF21E030E087304F
:100A8000910559F480E890E0A901489F9001499FA1
:100A9000300D589F300D1124C9CF8830910519F4BD
:100AA00080E091E0F1CF322F2227330F893091057A
:100AB00009F4BCCF8A30910519F4220F331FB6CF49
:100AC0008B30910529F4220F331F220F331FAECF35
:100AD0008C30910539F4220F331F220F331F220F60
:100AE000331FA4CF8D30910539F422953295307F94
:100AF0003227207F32279ACF8E30910549F4220F7A
:100B0000331F22953295307F3227207F32278ECFB8
:100B1000AC01495050408F30910551F40024369576
:100B200027950794369527950794322F202D7ECF51
:100B3000CA01A5CFFC0183818823E1F4F0990DC09F
:100B4000F09A8EB386958695869580FD0DC0F39AB2
:100B5000838191E0892783830895F0988EB38695E9
:100B60008695869580FFF3CFF398838191E089275E
:100B7000838308958EB3869580FD0CC0F19A8EB361
:100B80008695869580FD0CC0F29A838191E0892735
:100B900083830895F1988EB38695869580FFF4CF70
:100BA000F298838191E08927838308950F931F939F
:100BB000CF93DF938B01FB018081893009F1813074
:100BC00021F1C82FD0E0CC0FDD1FCC0FDD1FC05EA0
:100BD000DF4FCE01F80164810E94E543CE0101960A
:100BE000F80163810E94E543CE010296F80162811B
:100BF0000E94E543CE010396F80161810E94E5431E
:100C0000DF91CF911F910F91089587E1FB018083C0
:100C1000CCE5D0E0DCCFEF92FF920F931F93CF9300
:100C2000DF9300D000D00F92CDB7DEB77B01FB0180
:100C30000081093009F468C0013009F471C010E086
:100C4000000F111F000F111F005E1F4FC801F70199
:100C500064810E94E543C8010196F70163810E9407
:100C6000E543C8010296F70162810E94E543C8018D
:100C70000396F70161810E94E543F7018081893085
:100C800009F442C0813009F43FC0082F10E0000F82
:100C9000111F000F111F005E1F4F8983C8010396AB
:100CA0000E94D1438A83C80102960E94D1438B835C
:100CB000C80101960E94D1438C83C8010E94D14390
:100CC0008D838091DC0084FD1FC08091ED00E0EFFA
:100CD000F0E01092F000118290E6928392E6938306
:100CE00099819093FA009A819093FA009B81909356
:100CF000FA009C819093FA009D819093FA0095E40C
:100D00009093EF008093ED000F900F900F900F9055
:100D10000F90DF91CF911F910F91FF90EF90089569
:100D200087E1FB0180830CE510E08ECF0F931F93CA
:100D3000CF93DF93CDB7DEB767970FB6F894DEBFDA
:100D40000FBECDBFEBE3F4E03FB7F894208521FD63
:100D50001CC1208522FD19C12085246020873FBF4A
:100D60002FB7F8944091CC045091CD046091CE04FB
:100D70007091CF042FBF4C505E4F6F4F7F4F61700B
:100D8000707046835783362F317020852E7F232B3A
:100D900020879183808386E996E0938382831582FE
:100DA000148280858260808780858B7F8087809198
:100DB0003A048F5F80933A0411E0FE01319687E098
:100DC000DF011D928A95E9F788E690E00E94D14301
:100DD0008A8380E390E00E94D1438B8384E590E096
:100DE0000E94D1438C838CE690E00E94D1438D8396
:100DF0008DE690E00E94D143082F88E590E00E94A4
:100E0000DF4364E670E00E943A42079500270795A9
:100E1000062B0E8388E390E00E94D1438F8380915C
:100E2000DC0082FD25C08091ED00E0EFF0E0109243
:100E3000F000118290EE928393E6938399819093D0
:100E4000FA009A819093FA009B819093FA009C811A
:100E50009093FA009D819093FA009E819093FA00FE
:100E60009F819093FA0097E49093EF008093ED00B8
:100E7000FE01709688E0DF011D928A95E9F789E608
:100E800090E00E94D143898B88E690E00E94D14394
:100E90008A8B8DE490E00E94D1438B8B8CE490E0B0
:100EA0000E94D1438C8B1D8B80913A048E8B809154
:100EB000E0018F8B8091DC0083FD1BC098899093AB
:100EC000FA0099899093FA009A899093FA009B8985
:100ED0009093FA009C899093FA009D899093FA0070
:100EE0009E899093FA009F899093FA0098E49093DA
:100EF000EF001092E0018CE290E00E94DF438C0151
:100F0000FE01389688E0DF011D928A95E9F78CE7AB
:100F100090E00E94D143888709871A878091DC007E
:100F200084FD28C08091ED00E0EFF0E01092F00029
:100F3000118290EC928398E1938398859093FA00C4
:100F400099859093FA009A859093FA009B859093E7
:100F5000FA009C859093FA009D859093FA009E85F7
:100F60009093FA009F859093FA0098E49093EF0095
:100F70008093ED0067960FB6F894DEBF0FBECDBF2D
:100F8000DF91CF911F910F9108953FBF3996B4E043
:100F9000EB3CFB0709F0D8CE10E00FCFDC01129636
:100FA0008C911297882359F486E090E09093010188
:100FB0008093000180916F008D7F80936F00129667
:100FC0001C921297EBE3F4E09FB7F894808581FDC3
:100FD00034C0808582FD31C08085846080879FBF5A
:100FE0008FB7F8944091CC045091CD046091CE0419
:100FF0007091CF048FBF48515C4F6F4F7F4F61702E
:10100000707046835783962F917080858E7F892BD1
:101010008087B183A0838EEC97E0938382831582CF
:10102000148280858260808780858B7F8087809115
:101030003A048F5F80933A0408959FBF399684E005
:10104000EB3CF80709F0C0CF0895DC0113968C91B2
:101050001397882379F4ED91FC9111978081982F53
:101060009F71943009F44CC0983039F0807A8061D7
:10107000808303C013961C921397EBE3F4E09FB7B1
:10108000F894808581FD34C0808582FD31C08085E3
:10109000846080879FBF8FB7F8944091CC045091B3
:1010A000CD046091CE047091CF048FBF4053584F50
:1010B0006F4F7F4F6170707046835783962F91708A
:1010C00080858E7F892B8087B183A08385E298E01D
:1010D00093838283158214828085826080878085D5
:1010E0008B7F808780913A048F5F80933A040895C4
:1010F0009FBF399684E0EB3CF80709F0C0CF089514
:10110000982F991F9927991F9095807297959927E5
:1011100097958860892B8083B0CFFC0160E070E0F8
:1011200040814423B9F02381348180910201909160
:101130000301281B390B81819281820F931F009735
:1011400011F4108240E0C901019755E08B3D9507ED
:1011500008F483C08091DC0082FD7BC08091ED00AB
:10116000A0EFB0E01092F00011961C921197129629
:101170001C92129799E113969C934093FA00609306
:10118000FA007093FA0093E49093EF008093ED00DF
:101190001582ABE3B4E08FB7F89418969C9118973A
:1011A00091FD4FC018969C91189792FD4AC01896D1
:1011B0009C911897946018969C9318978FBF8FB73F
:1011C000F8944091CC045091CD046091CE0470917C
:1011D000CF048FBF4C505E4F6F4F7F4F6170707068
:1011E00016964C93169717965C931797962F9170B7
:1011F00018968C9118978E7F892B18968C93189738
:101200001196FC93EE938DE898E013969C938E9341
:10121000129715961C921E92149718968C911897F7
:10122000826018968C93189718968C9118978B7FDC
:1012300018968C93189780913A048F5F80933A04A4
:1012400008958FBF199684E0AB3CB80709F0A3CF8F
:1012500008958581843020F00895B90140817ACFC6
:101260008F5F8583ABE3B4E09FB7F89418968C91B9
:10127000189781FD1DC018968C91189782FD18C093
:1012800018968C911897846018968C9318979FBF26
:101290008FB7F8944091CC045091CD046091CE0466
:1012A0007091CF048FBF4C595F4F6F4F7F4F96CFD8
:1012B0009FBF199654E0AB3CB507B1F60895CF93A4
:1012C000DF9300D000D00F92CDB7DEB71F9908C0D2
:1012D0000F900F900F900F900F90DF91CF91089586
:1012E000DB012C9191E09093D201E091CF01F0913C
:1012F000D001808185FF10C08F7D80838091D301D4
:10130000820FEFECF1E084830F900F900F900F901D
:101310000F90DF91CF910895FE01319685E0DF01B6
:101320001D928A95E9F782E089839A831F9B23C0E7
:101330008091DC0084FDCCCF8091ED00E0EFF0E007
:101340001092F000118212829AE99383998190930E
:10135000FA009A819093FA009B819093FA009C8105
:101360009093FA009D819093FA0095E49093EF009A
:101370008093ED00ADCF8091DC0084FDA9CF8091FA
:10138000ED00E0EFF0E01092F0001182128298E997
:10139000DCCFCF93DF9300D000D00F92CDB7DEB774
:1013A0001F9908C00F900F900F900F900F90DF9132
:1013B000CF9108952FB7F8946091CC047091CD042B
:1013C0008091CE049091CF042FBF2AE030E040E01E
:1013D00050E00E9461424091D4012093D40191E0F9
:1013E0009093D201E091CF01F091D001808185FFEF
:1013F00010C08F7D80838091D301841B820F8093E6
:10140000D3010F900F900F900F900F90DF91CF911D
:101410000895FE01319685E0DF011D928A95E9F776
:1014200082E089839A831F9B23C08091DC0084FD26
:10143000B9CF8091ED00E0EFF0E01092F000118262
:1014400012829AE9938399819093FA009A819093FA
:10145000FA009B819093FA009C819093FA009D8101
:101460009093FA0095E49093EF008093ED009ACF6B
:101470008091DC0084FD96CF8091ED00E0EFF0E0FC
:101480001092F0001182128298E9DCCFCF93DF93A3
:1014900000D000D00F92CDB7DEB71F9B08C00F90D1
:1014A0000F900F900F900F90DF91CF910895DB0177
:1014B0002C9191E09093D201E091CF01F091D00175
:1014C000808185FF10C08F7D80838091D301820F42
:1014D000EFECF1E084830F900F900F900F900F903E
:1014E000DF91CF910895FE01319685E0DF011D92D5
:1014F0008A95E9F782E089839A831F9B23C08091B4
:10150000DC0084FDCCCF8091ED00E0EFF0E01092A4
:10151000F000118212829AE9938399819093FA00E4
:101520009A819093FA009B819093FA009C8190930A
:10153000FA009D819093FA0095E49093EF008093D8
:10154000ED00ADCF8091DC0084FDA9CF8091ED004E
:10155000E0EFF0E01092F0001182128298E9DCCF07
:10156000CF93DF9300D000D00F92CDB7DEB71F9B93
:1015700008C00F900F900F900F900F90DF91CF91B8
:1015800008952FB7F8946091CC047091CD048091A8
:10159000CE049091CF042FBF2AE030E040E050E02D
:1015A0000E9461424091D4012093D40191E0909334
:1015B000D201E091CF01F091D001808185FF10C070
:1015C0008F7D80838091D301841B820F8093D30110
:1015D0000F900F900F900F900F90DF91CF91089583
:1015E000FE01319685E0DF011D928A95E9F782E0E0
:1015F00089839A831F9B23C08091DC0084FDB9CF2F
:101600008091ED00E0EFF0E01092F0001182128284
:101610009AE9938399819093FA009A819093FA00C2
:101620009B819093FA009C819093FA009D81909306
:10163000FA0095E49093EF008093ED009ACF8091AB
:10164000DC0084FD96CF8091ED00E0EFF0E0109299
:10165000F0001182128298E9DCCFCF93DF9300D0A3
:1016600000D00F92CDB7DEB71F9B08C00F900F9030
:101670000F900F900F90DF91CF9108952FB7F894AE
:101680006091CC047091CD048091CE049091CF04F0
:101690002FBF2AE030E040E050E00E9461423091EC
:1016A000D4012093D40191E09093D201E091CF0135
:1016B000F091D001808185FD43C0922F931B806201
:1016C00080835091D301590F5093D301943260F12C
:1016D0006091D501662309F068C0550F5093D3017E
:1016E00040814078406644601092D501852F84592E
:1016F000893108F055C04F778091D701481709F418
:1017000079C0E091CF01F091D00180818F7B8083FF
:101710004093D7011092D3010F900F900F900F902C
:101720000F90DF91CF9108958091D5018F5F8093C5
:10173000D501833009F09ACF80818F7B808396CF4B
:10174000FE01319685E0DF011D928A95E9F782E07E
:1017500089839A839B831F9B3FC08091DC0084FD1B
:1017600085CF8091ED00E0EFF0E01092F000118263
:1017700012829AE9938399819093FA009A819093C7
:10178000FA009B819093FA009C819093FA009D81CE
:101790009093FA0095E49093EF008093ED0066CF6C
:1017A0005D5A5A31B8F44068A7CF4081407840660E
:1017B00022E030E0261B310981E090E002C0880F72
:1017C000991F2A95E2F78F71482B633008F48CCF6C
:1017D0004F7B8ACF4F7B90CF8091DC0084FD46CF3A
:1017E0008091ED00E0EFF0E01092F00011821282A3
:1017F00098E9C0CF46FF8CCFE091CF01F091D001A6
:101800008081842787FD11C08091D6011092DB0171
:10181000882329F0E091D901F091DA011082E0915A
:10182000CF01F091D001408373CF8091D6018823FE
:1018300031F01092D6011092DB01408369CFE09124
:10184000D901F091DA018091DB018083DDCFCF9364
:10185000DF9300D000D00F92CDB7DEB71F9908C03C
:101860000F900F900F900F900F90DF91CF910895F0
:101870002FB7F8946091CC047091CD048091CE0480
:101880009091CF042FBF2AE030E040E050E00E946A
:1018900061423091D4012093D40191E09093D20120
:1018A000E091CF01F091D001808185FD43C0922F5E
:1018B000931B806280835091D301590F5093D301C1
:1018C000943260F16091D501662309F068C0550F2C
:1018D0005093D30140814078406644601092D50116
:1018E000852F8459893108F055C04F778091D701F1
:1018F000481709F479C0E091CF01F091D0018081BF
:101900008F7B80834093D7011092D3010F900F906B
:101910000F900F900F90DF91CF9108958091D50196
:101920008F5F8093D501833009F09ACF80818F7BC0
:10193000808396CFFE01319685E0DF011D928A9566
:10194000E9F782E089839A839B831F9B3FC0809144
:10195000DC0084FD85CF8091ED00E0EFF0E0109297
:10196000F000118212829AE9938399819093FA0090
:101970009A819093FA009B819093FA009C819093B6
:10198000FA009D819093FA0095E49093EF00809384
:10199000ED0066CF5D5A5A31B8F44068A7CF408158
:1019A0004078406622E030E0261B310981E090E07B
:1019B00002C0880F991F2A95E2F78F71482B633078
:1019C00008F48CCF4F7B8ACF4F7B90CF8091DC0087
:1019D00084FD46CF8091ED00E0EFF0E01092F00042
:1019E0001182128298E9C0CF46FF8CCFE091CF01DF
:1019F000F091D0018081842787FD11C08091D601AC
:101A00001092DB01882329F0E091D901F091DA01ED
:101A10001082E091CF01F091D001408373CF80918B
:101A2000D601882331F01092D6011092DB01408359
:101A300069CFE091D901F091DA018091DB018083D7
:101A4000DDCFCF93DF9300D000D00F92CDB7DEB7BC
:101A50001F9B08C00F900F900F900F900F90DF9179
:101A6000CF910895DB012C9191E09093D201E09108
:101A7000CF01F091D001808185FD44C080628083D8
:101A80005091D301520F5093D301243260F16091F1
:101A9000D501662309F06BC0550F5093D3014081E7
:101AA0004078406644601092D501852F8459893171
:101AB00008F058C04F778091D701481709F47CC0CF
:101AC000E091CF01F091D00180818F7B80834093A2
:101AD000D7011092D3010F900F900F900F900F909D
:101AE000DF91CF9108958091D5018F5FAFECB1E088
:101AF00016968C931697833009F0ACCF80818F7B3C
:101B00008083A8CFFE01319685E0DF011D928A9582
:101B1000E9F782E089839A839B831F9B3FC0809172
:101B2000DC0084FD97CF8091ED00E0EFF0E01092B3
:101B3000F000118212829AE9938399819093FA00BE
:101B40009A819093FA009B819093FA009C819093E4
:101B5000FA009D819093FA0095E49093EF008093B2
:101B6000ED0078CF5D5A5A31B8F44068A4CF408177
:101B70004078406622E030E0261B310981E090E0A9
:101B800002C0880F991F2A95E2F78F71482B6330A6
:101B900008F489CF4F7B87CF4F7B8DCF8091DC00BE
:101BA00084FD58CF8091ED00E0EFF0E01092F0005E
:101BB0001182128298E9C0CF46FF89CFE091CF0110
:101BC000F091D0018081842787FD11C08091D601DA
:101BD0001092DB01882329F0E091D901F091DA011C
:101BE0001082E091CF01F091D001408370CF8091BD
:101BF000D601882331F01092D6011092DB01408388
:101C000066CFE091D901F091DA018091DB01808308
:101C1000DDCFCF93DF9300D000D00F92CDB7DEB7EA
:101C20001F9908C00F900F900F900F900F90DF91A9
:101C3000CF910895DB012C9191E09093D201E09136
:101C4000CF01F091D001808185FD44C08062808306
:101C50005091D301520F5093D301243260F160911F
:101C6000D501662309F06BC0550F5093D301408115
:101C70004078406644601092D501852F845989319F
:101C800008F058C04F778091D701481709F47CC0FD
:101C9000E091CF01F091D00180818F7B80834093D0
:101CA000D7011092D3010F900F900F900F900F90CB
:101CB000DF91CF9108958091D5018F5FAFECB1E0B6
:101CC00016968C931697833009F0ACCF80818F7B6A
:101CD0008083A8CFFE01319685E0DF011D928A95B1
:101CE000E9F782E089839A839B831F9B3FC08091A1
:101CF000DC0084FD97CF8091ED00E0EFF0E01092E2
:101D0000F000118212829AE9938399819093FA00EC
:101D10009A819093FA009B819093FA009C81909312
:101D2000FA009D819093FA0095E49093EF008093E0
:101D3000ED0078CF5D5A5A31B8F44068A4CF4081A5
:101D40004078406622E030E0261B310981E090E0D7
:101D500002C0880F991F2A95E2F78F71482B6330D4
:101D600008F489CF4F7B87CF4F7B8DCF8091DC00EC
:101D700084FD58CF8091ED00E0EFF0E01092F0008C
:101D80001182128298E9C0CF46FF89CFE091CF013E
:101D9000F091D0018081842787FD11C08091D60108
:101DA0001092DB01882329F0E091D901F091DA014A
:101DB0001082E091CF01F091D001408370CF8091EB
:101DC000D601882331F01092D6011092DB014083B6
:101DD00066CFE091D901F091DA018091DB01808337
:101DE000DDCFF89428E088E190E00FB6F894A8954C
:101DF000809360000FBE209360000000FECF1F990B
:101E00000895FB0180818230D9F781818330C1F749
:101E1000828182FDF5CF2FB7F8948091CC04909108
:101E2000CD04A091CE04B091CF042FBF89352BE112
:101E3000920720E0A20720E0B20710F3809137015B
:101E40008823F1F20E94F10E1F9B0895FB0180810F
:101E50008230D9F781818330C1F7828182FDF5CF4D
:101E60002FB7F8948091CC049091CD04A091CE042A
:101E7000B091CF042FBF89352BE1920720E0A20754
:101E800020E0B20710F3809137018823F1F20E941D
:101E9000F10E1F920F920FB60F920BB60F921124F4
:101EA0002F933F934F935F936F937F938F939F9362
:101EB000AF93BF93EF93FF93E0915E05F0915F05C1
:101EC00080915C0590915D050995FF91EF91BF911F
:101ED000AF919F918F917F916F915F914F913F91C2
:101EE0002F910F900BBE0F900FBE0F901F90189563
:101EF0001F920F920FB60F920BB60F9211242F93D1
:101F00003F934F935F936F937F938F939F93AF9381
:101F1000BF93EF93FF93E0915A05F0915B05809199
:101F20005805909159050995FF91EF91BF91AF9197
:101F30009F918F917F916F915F914F913F912F91E1
:101F40000F900BBE0F900FBE0F901F9018951F9211
:101F50000F920FB60F920BB60F9211242F933F934F
:101F60004F935F936F937F938F939F93AF93BF93A1
:101F7000EF93FF93E0915605F0915705809154053A
:101F8000909155050995FF91EF91BF91AF919F9168
:101F90008F917F916F915F914F913F912F910F9012
:101FA0000BBE0F900FBE0F901F9018951F920F92AF
:101FB0000FB60F920BB60F9211242F933F934F93AE
:101FC0005F936F937F938F939F93AF93BF93EF93A1
:101FD000FF93E0915205F091530580915005909147
:101FE00051050995FF91EF91BF91AF919F918F910D
:101FF0007F916F915F914F913F912F910F900BBE09
:102000000F900FBE0F901F9018951F920F920FB652
:102010000F920BB60F9211242F933F934F935F9320
:102020006F937F938F939F93AF93BF93EF93FF93A0
:10203000E0914E05F0914F0580914C0590914D0532
:102040000995FF91EF91BF91AF919F918F917F91F2
:102050006F915F914F913F912F910F900BBE0F9019
:102060000FBE0F901F9018951F920F920FB60F92F0
:102070000BB60F9211242F933F934F935F936F935F
:102080007F938F939F93AF93BF93EF93FF93E091D1
:102090004A05F0914B0580914805909149050995B5
:1020A000FF91EF91BF91AF919F918F917F916F9130
:1020B0005F914F913F912F910F900BBE0F900FBEEC
:1020C0000F901F9018951F920F920FB60F920BB69C
:1020D0000F9211242F933F934F935F936F937F93AE
:1020E0008F939F93AF93BF93EF93FF93E091460538
:1020F000F091470580914405909145050995FF9120
:10210000EF91BF91AF919F918F917F916F915F916F
:102110004F913F912F910F900BBE0F900FBE0F90DC
:102120001F9018951F920F920FB60F920BB60F9239
:1021300011242F933F934F935F936F937F938F93CC
:102140009F93AF93BF93EF93FF93E0914205F0917C
:10215000430580914005909141050995FF91EF91CC
:10216000BF91AF919F918F917F916F915F914F91AF
:102170003F912F910F900BBE0F900FBE0F901F90AD
:1021800018951F920F920FB60F920BB60F92112453
:102190002F933F934F935F936F937F938F939F936F
:1021A000AF93BF93EF93FF93E0913E05F0913F050E
:1021B00080913C0590913D050995FF91EF91BF916C
:1021C000AF919F918F917F916F915F914F913F91CF
:1021D0002F910F900BBE0F900FBE0F901F90189570
:1021E0001F920F920FB60F920BB60F9211242F93DE
:1021F0003F934F935F936F937F938F939F93AF938F
:10220000BF93EF93FF93E0913A05F0913B058091E6
:102210003805909139050995FF91EF91BF91AF91E4
:102220009F918F917F916F915F914F913F912F91EE
:102230000F900BBE0F900FBE0F901F9018951F921E
:102240000F920FB60F920BB60F9211242F933F935C
:102250004F935F936F937F938F939F93AF93BF93AE
:10226000EF93FF93E0913605F091370580913405A7
:10227000909135050995FF91EF91BF91AF919F9195
:102280008F917F916F915F914F913F912F910F901F
:102290000BBE0F900FBE0F901F9018951F920F92BC
:1022A0000FB60F920BB60F9211242F933F934F93BB
:1022B0005F936F937F938F939F93AF93BF93EF93AE
:1022C000FF93E0913205F0913305809130059091B4
:1022D00031050995FF91EF91BF91AF919F918F913A
:1022E0007F916F915F914F913F912F910F900BBE16
:1022F0000F900FBE0F901F9018951F920F920FB660
:102300000F920BB60F9211242F933F934F935F932D
:102310006F937F938F939F93AF93BF93EF93FF93AD
:10232000E0912E05F0912F0580912C0590912D05BF
:102330000995FF91EF91BF91AF919F918F917F91FF
:102340006F915F914F913F912F910F900BBE0F9026
:102350000FBE0F901F9018951F920F920FB60F92FD
:102360000BB60F9211242F933F934F935F936F936C
:102370007F938F939F93AF93BF93EF93FF93E091DE
:102380002A05F0912B058091280590912905099542
:10239000FF91EF91BF91AF919F918F917F916F913D
:1023A0005F914F913F912F910F900BBE0F900FBEF9
:1023B0000F901F9018951F920F920FB60F920BB6A9
:1023C0000F9211242F933F934F935F936F937F93BB
:1023D0008F939F93AF93BF93EF93FF93E091260565
:1023E000F091270580912405909125050995FF918D
:1023F000EF91BF91AF919F918F917F916F915F917D
:102400004F913F912F910F900BBE0F900FBE0F90E9
:102410001F9018951F920F920FB60F920BB60F9246
:1024200011242F933F934F935F936F937F938F93D9
:102430009F93AF93BF93EF93FF93E0912205F091A9
:10244000230580912005909121050995FF91EF9139
:10245000BF91AF919F918F917F916F915F914F91BC
:102460003F912F910F900BBE0F900FBE0F901F90BA
:1024700018951F920F920FB60F920BB60F92112460
:102480002F933F934F935F936F937F938F939F937C
:10249000AF93BF93EF93FF93E0911E05F0911F055B
:1024A00080911C0590911D050995FF91EF91BF91B9
:1024B000AF919F918F917F916F915F914F913F91DC
:1024C0002F910F900BBE0F900FBE0F901F9018957D
:1024D0001F920F920FB60F920BB60F9211242F93EB
:1024E0003F934F935F936F937F938F939F93AF939C
:1024F000BF93EF93FF93E0911A05F0911B05809134
:102500001805909119050995FF91EF91BF91AF9131
:102510009F918F917F916F915F914F913F912F91FB
:102520000F900BBE0F900FBE0F901F9018951F922B
:102530000F920FB60F920BB60F9211242F933F9369
:102540004F935F936F937F938F939F93AF93BF93BB
:10255000EF93FF93E0911605F09117058091140514
:10256000909115050995FF91EF91BF91AF919F91C2
:102570008F917F916F915F914F913F912F910F902C
:102580000BBE0F900FBE0F901F9018951F920F92C9
:102590000FB60F920BB60F9211242F933F934F93C8
:1025A0005F936F937F938F939F93AF93BF93EF93BB
:1025B000FF93E0911205F091130580911005909121
:1025C00011050995FF91EF91BF91AF919F918F9167
:1025D0007F916F915F914F913F912F910F900BBE23
:1025E0000F900FBE0F901F9018951F920F920FB66D
:1025F0000F920BB60F9211242F933F934F935F933B
:102600006F937F938F939F93AF93BF93EF93FF93BA
:10261000E0910E05F0910F0580910C0590910D054C
:102620000995FF91EF91BF91AF919F918F917F910C
:102630006F915F914F913F912F910F900BBE0F9033
:102640000FBE0F901F9018951F920F920FB60F920A
:102650000BB60F9211242F933F934F935F936F9379
:102660007F938F939F93AF93BF93EF93FF93E091EB
:102670000A05F0910B0580910805909109050995CF
:10268000FF91EF91BF91AF919F918F917F916F914A
:102690005F914F913F912F910F900BBE0F900FBE06
:1026A0000F901F9018951F920F920FB60F920BB6B6
:1026B0000F9211242F933F934F935F936F937F93C8
:1026C0008F939F93AF93BF93EF93FF93E091060592
:1026D000F091070580910405909105050995FF91FA
:1026E000EF91BF91AF919F918F917F916F915F918A
:1026F0004F913F912F910F900BBE0F900FBE0F90F7
:102700001F9018951F920F920FB60F920BB60F9253
:1027100011242F933F934F935F936F937F938F93E6
:102720009F93AF93BF93EF93FF93E0910205F091D6
:10273000030580910005909101050995FF91EF91A6
:10274000BF91AF919F918F917F916F915F914F91C9
:102750003F912F910F900BBE0F900FBE0F901F90C7
:1027600018951F920F920FB60F920BB60F9211246D
:102770002F933F934F935F936F937F938F939F9389
:10278000AF93BF93EF93FF93E091FE04F091FF04AA
:102790008091FC049091FD040995FF91EF91BF9108
:1027A000AF919F918F917F916F915F914F913F91E9
:1027B0002F910F900BBE0F900FBE0F901F9018958A
:1027C0001F920F920FB60F920BB60F9211242F93F8
:1027D0003F934F935F936F937F938F939F93AF93A9
:1027E000BF93EF93FF93E091FA04F091FB04809183
:1027F000F8049091F9040995FF91EF91BF91AF9181
:102800009F918F917F916F915F914F913F912F9108
:102810000F900BBE0F900FBE0F901F9018951F9238
:102820000F920FB60F920BB60F9211242F933F9376
:102830004F935F936F937F938F939F93AF93BF93C8
:10284000EF93FF93E091F604F091F7048091F40484
:102850009091F5040995FF91EF91BF91AF919F91F0
:102860008F917F916F915F914F913F912F910F9039
:102870000BBE0F900FBE0F901F9018951F920F92D6
:102880000FB60F920BB60F9211242F933F934F93D5
:102890005F936F937F938F939F93AF93BF93EF93C8
:1028A000FF93E091F204F091F3048091F004909191
:1028B000F1040995FF91EF91BF91AF919F918F9195
:1028C0007F916F915F914F913F912F910F900BBE30
:1028D0000F900FBE0F901F9018951F920F920FB67A
:1028E0000F920BB60F9211242F933F934F935F9348
:1028F0006F937F938F939F93AF93BF93EF93FF93C8
:10290000E091EE04F091EF048091EC049091ED04DD
:102910000995FF91EF91BF91AF919F918F917F9119
:102920006F915F914F913F912F910F900BBE0F9040
:102930000FBE0F901F9018951F920F920FB60F9217
:102940000BB60F9211242F933F934F935F936F9386
:102950007F938F939F93AF93BF93EF93FF93E091F8
:10296000EA04F091EB048091E8049091E904099560
:10297000FF91EF91BF91AF919F918F917F916F9157
:102980005F914F913F912F910F900BBE0F900FBE13
:102990000F901F9018951F920F920FB60F920BB6C3
:1029A0000F9211242F933F934F935F936F937F93D5
:1029B0008F939F93AF93BF93EF93FF93E091E604C0
:1029C000F091E7048091E4049091E5040995FF916A
:1029D000EF91BF91AF919F918F917F916F915F9197
:1029E0004F913F912F910F900BBE0F900FBE0F9004
:1029F0001F9018951F920F920FB60F920BB60F9261
:102A000011242F933F934F935F936F937F938F93F3
:102A10009F93AF93BF93EF93FF93E091E204F09104
:102A2000E3048091E0049091E1040995FF91EF9116
:102A3000BF91AF919F918F917F916F915F914F91D6
:102A40003F912F910F900BBE0F900FBE0F901F90D4
:102A500018951F920F920FB60F920BB60F9211247A
:102A60002F933F934F935F936F937F938F939F9396
:102A7000AF93BF93EF93FF93E091DE04F091DF04F7
:102A80008091DC049091DD040995FF91EF91BF9155
:102A9000AF919F918F917F916F915F914F913F91F6
:102AA0002F910F900BBE0F900FBE0F901F90189597
:102AB0001F920F920FB60F920BB60F9211242F9305
:102AC0003F934F935F936F937F938F939F93AF93B6
:102AD000BF93EF93FF93E091DA04F091DB048091D0
:102AE000D8049091D9040995FF91EF91BF91AF91CE
:102AF0009F918F917F916F915F914F913F912F9116
:102B00000F900BBE0F900FBE0F901F9018951F9245
:102B10000F920FB60F920BB60F9211242F933F9383
:102B20004F935F936F937F938F939F93AF93BF93D5
:102B3000EF93FF93E091D604F091D7048091D404F1
:102B40009091D5040995FF91EF91BF91AF919F911D
:102B50008F917F916F915F914F913F912F910F9046
:102B60000BBE0F900FBE0F901F9018951F920F92E3
:102B70000FB60F920BB60F9211242F933F934F93E2
:102B80005F936F937F938F939F93AF93BF93EF93D5
:102B9000FF93E091D204F091D3048091D0049091FE
:102BA000D1040995FF91EF91BF91AF919F918F91C2
:102BB0007F916F915F914F913F912F910F900BBE3D
:102BC0000F900FBE0F901F901895CF93DF9300D0FA
:102BD00000D00F92CDB7DEB76091B1028091B20202
:102BE000643051F0603141F00F900F900F900F90D2
:102BF0000F90DF91CF910895853021F1863009F44F
:102C0000CCC08D3009F484C08E3009F45BC08330B1
:102C100059F7603149F780ED89831A821B821C8243
:102C20001D821F9BE4C08091DC0084FDDDCF80917C
:102C3000ED00E0EFF0E01092F000118290E8928356
:102C400096EC8BC0E4E0F1E0A491AA0FAA0FAA0FC2
:102C500009F4CBC09F0124503040A150B0E0AA0F2E
:102C6000BB1FAE5FBE4F40E050E0F90185919491EB
:102C7000480F591F2E5F3F4F2A173B07B1F7FE0140
:102C8000319685E0DF011D928A95E9F7E5E0F1E0F4
:102C9000E491EA834D83643009F47CC0603109F02B
:102CA000A3CF1F9993C08091DC0084FD9DCF8091BC
:102CB000ED00E0EFF0E01092F000118290E69283D8
:102CC00096EC4BC01F9B90CF80ED898387E790E007
:102CD0000E94D1438A8386E790E00E94D1438B8390
:102CE00085E790E00E94D1438C8384E790E00E94C6
:102CF000D1438D838091DC0084FD76CF8091ED00FF
:102D0000E0EFF0E01092F000118212829AE925C003
:102D10001F996ACF80ED898387E790E00E94D143B5
:102D20008A8386E790E00E94D1438B8385E790E019
:102D30000E94D1438C8384E790E00E94D1438D832D
:102D40008091DC0084FD50CF8091ED00E0EFF0E059
:102D50001092F0001182128298E9938399819093E6
:102D6000FA009A819093FA009B819093FA009C81DB
:102D70009093FA009D819093FA0095E49093EF0070
:102D80008093ED000F900F900F900F900F90DF91B8
:102D9000CF9108951F99AECFD3CF84E790E0609193
:102DA000B6020E94E54385E790E06091B5020E947B
:102DB000E54386E790E06091B4020E94E54387E72F
:102DC00090E06091B3020E94E5430ECF8091DC0059
:102DD00084FD0ACF8091ED00E0EFF0E01092F0006A
:102DE000118290E8928396ECB8CF40E048CF809172
:102DF000DC0084FDF9CE8091ED00E0EFF0E0109270
:102E0000F000118290E61BCFCB010E94E5150895DA
:102E10001F93CF93DF93EB010E94D143182FCE0174
:102E20000E94D14387FD15C08F77412F50E09A0152
:102E3000220F331F440F551F440F551F440F551FBA
:102E4000240F351F280F311DC901DF91CF911F912C
:102E50000895412F50E09A01220F331F440F551F50
:102E6000440F551F440F551F240F351F8F77281B04
:102E70003109C901DF91CF911F9108950F931F93DD
:102E8000CF93DF93FC013581832F90E02091FE01E9
:102E900020783072232BDC01AF70B070A65CBE4F7F
:102EA0003C91232B807C9070009709F08DC020937B
:102EB000FE01808185FF73C010922401A091100152
:102EC000B09111011A961C92A0911201B0911301B8
:102ED0001A961C921A97938181E095FF80E0C09129
:102EE0001001D0911101A0911201B09113018B87B3
:102EF0001B968C932FB7F8948091CC049091CD04BD
:102F0000A091CE04B091CF042FBF4091620B50919D
:102F1000630B6091640B7091650B8C019D01041B28
:102F2000150B260B370BB901A801413A1FE05107D9
:102F300010E0610710E0710708F0A7C08093620BF2
:102F40009093630BA093640BB093650B868181FD16
:102F500037C02FB7F8948091CC049091CD04A09104
:102F6000CE04B091CF042FBF89352BE1920720E02A
:102F7000A20720E0B20770F080913701882351F05A
:102F800080913801882309F480C080913901882319
:102F900009F47BC0DF91CF911F910F91089581E0DB
:102FA00080932401A0911001B09111011A968C9385
:102FB000A0911201B09113011A968C931A978BCF9E
:102FC000878186FDE7CFC5CF2068ABE3B4E09FB72C
:102FD000F89418968C91189781FD4FC018968C9193
:102FE000189782FD4AC018968C911897846018969D
:102FF0008C9318979FBF8FB7F8944091CC04509151
:10300000CD046091CE047091CF048FBF48515C4FC6
:103010006F4F7F4F6170707016964C93169717968E
:103020005C931797962F917018968C9118978E7FB6
:10303000892B18968C93189711961C921E9288E5EE
:1030400091E013969C938E93129715961C921E9264
:10305000149718968C911897826018968C931897ED
:1030600018968C9118978B7F18968C93189780914F
:103070003A048F5F80933A041ACF9FBF199634E0C9
:10308000AB3CB30709F0A3CF12CF0E94F10E1F99FA
:103090000895CB010E943E1708951F9B0895CB0110
:1030A0000E943E170895CF93DF93CDB7DEB72F97D9
:1030B0000FB6F894DEBF0FBECDBF80E091E0FC01FB
:1030C000259134912115310509F400C2FC01659167
:1030D000749162957295707F7627607F762761156F
:1030E000710591F040E050E020E030E0F901859179
:1030F0009491480F591F2E5F3F4F26173707B0F3A3
:103100004115510509F0E0C100000000000085E90B
:1031100091E0FC012491E22FF0E0EE0FFF1FEE0F93
:10312000FF1FE951FE4F12A211A223E83CE134A394
:1031300023A3FC013497E491F0E0EE0FFF1FEE0FA4
:10314000FF1FE951FE4F12A211A223E731E034A381
:1031500023A30697FC018491E82FF0E0EE0FFF1FF8
:10316000EE0FFF1FE951FE4F84EC91E092A381A383
:103170002DEA34E234A323A39093420380934103C6
:1031800082E295E290934403809343031F993CC0ED
:103190008EEC91E09093F2028093F1022BE036E006
:1031A0003093F4022093F3029093F6028093F50299
:1031B0003093F8022093F7029093FA028093F90279
:1031C0003093FC022093FB029093FE028093FD0259
:1031D00026ED35E0309300032093FF029093020325
:1031E000809301038EE893E090930403809303039C
:1031F00088EC91E090933E0380933D0388E994E04E
:103200009093400380933F031092060310920503AE
:1032100084E097E1909308038093070310921203D0
:103220001092110387E498E19093140380931303A1
:1032300010921603109215038DE498E190931803F1
:103240008093170310920A03109209038FEF9EE0F8
:1032500090930C0380930B0310920E0310920D03B6
:1032600084E29FE09093100380930F0380E091E04D
:1032700090931A038093190382E891E090931C03C2
:1032800080931B0310921E0310921D038DE29BE09E
:103290009093200380931F0310922E0310922D030E
:1032A00081E29DE09093300380932F0310922203DC
:1032B0001092210380EB9AE09093240380932303E0
:1032C000109232031092310386E49AE09093340313
:1032D00080933303109226031092250387E29CE02B
:1032E000909328038093270310923603109235039E
:1032F00089E09EE0909338038093370310922A036D
:103300001092290389EC99E090932C0380932B036E
:1033100010923A03109239038FE599E090933C03A1
:1033200080933B031F9BDBC080E791E090934A03AF
:103330008093490320EA3FE330934C0320934B03EF
:10334000909352038093510325EC3EE23093540353
:103350002093530390935A038093590387E09DE38E
:1033600090935C0380935B0380913701882351F431
:1033700081E08093370116BCA99A80916E0082602B
:1033800080936E00789424E031E0F9016491660F37
:10339000660F660F09F47FC124503040615070E021
:1033A000660F771F6E5F7E4F40E050E0F901859118
:1033B0009491480F591F2E5F3F4F26173707B1F7DB
:1033C000FE01359685E0DF011D928A95E9F7E5E07B
:1033D000F1E0E491EE8349871F992CC12091DC0034
:1033E00024FD1EC08091ED00E0EFF0E01092F000AF
:1033F0001182128298E993839D819093FA009E81B5
:103400009093FA009F819093FA0098859093FA0028
:1034100099859093FA0095E49093EF008093ED00E6
:1034200080E395E70197F1F724FD1FC08091ED003F
:10343000E0EFF0E01092F000118290E6928396ECBB
:1034400093839D819093FA009E819093FA009F81CF
:103450009093FA0098859093FA0099859093FA00DA
:1034600095E49093EF008093ED001B861A8686E02A
:1034700093E0682F9D878C871F861E8640E05B85C2
:103480007D8580E09F8528E53BE10E94360483B17D
:1034900021E030E085FD02C020E030E08091660B45
:1034A00090E0822B932B8093660B0097C9F183B138
:1034B00085FD36C080E691E061E00E94E54381E64B
:1034C00091E061E00E94E5430E94F10EFC0132961A
:1034D000259134912115310509F416CEF7CD8DE8EB
:1034E00091E0909346038093450324E03CE33093BE
:1034F00048032093470390934E0380934D0327E1A5
:103500003DE23093500320934F03909356038093F2
:10351000550385E799E3909358038093570324CF8D
:103520008091670B9091680B01969093680B809344
:10353000670B23E0883E920709F476C03FB7F89402
:103540009091600B8091610B981709F466C080918F
:10355000600B90E0DC01AA0FBB1FA80FB91FAA0FD8
:10356000BB1FA05ABA4F8D919C9111971296ED9165
:10357000FC91139714966C91149715967C9115975E
:103580002091600B2F5F2093600B3FBF309709F0B5
:103590000995A8950BE314E006C0075F1F4FF4E000
:1035A0000B3C1F07C1F1F801808581FFF6CF2FB7D3
:1035B000F8948091CC049091CD04A091CE04B09168
:1035C000CF042FBF89839A83AB83BC83D8019085B6
:1035D00091708B818170981701F7268137818981DD
:1035E0009A8128173907C8F6648175810280F381B2
:1035F000E02D8D919C910995F80180858D7F8087C4
:1036000080913A04815080933A04075F1F4FF4E0A1
:103610000B3C1F0741F6A8953ACF60E070E0EFE45D
:10362000F1E080E090E0B1CF349A1092680B1092F4
:10363000670B84CF2091DC0024FD1EC08091ED003B
:10364000E0EFF0E01092F000118212829AE9938389
:103650009D819093FA009E819093FA009F819093B0
:10366000FA0098859093FA0099859093FA0095E472
:103670009093EF008093ED0080E395E70197F1F7D9
:1036800024FDF3CE8091ED00E0EFF0E01092F00029
:10369000118290E8D3CE40E050E092CE23982B9A4E
:1036A000229A219A209A2CB520652CBD2CB53DB5C7
:1036B0002C7F3E7F3DBD2CBD43E062E020E63AEE2C
:1036C000ACEA73E5249A2C98562F5A95F1F72C9A68
:1036D000562F5A95F1F72C98F9013197F1F7AEBDB5
:1036E0000DB407FEFDCF7EBD0DB407FEFDCF1EBCA1
:1036F0000DB407FEFDCF5EB51EBC0DB407FEFDCFB9
:10370000533521F04150F1F680E0089521E0FC01AD
:10371000248381E008950F931F93CF93DF9300914B
:10372000F9011091FA01812F17FF03C091E09093E6
:10373000DE01982F907619F5E0911001F0911101BA
:10374000808191819093020280930102E0911201A5
:10375000F091130180819181909300028093FF0189
:1037600080913701882309F4BDC0FEE00E3F1F079A
:1037700009F47EC0DF91CF911F910F910895909130
:103780003701992339F01092370190916E009D7F97
:1037900090936E0086FF3DC045E051E0FA019491A0
:1037A0003196E491392F20E0F0E0E22BF32BF093F7
:1037B0000602E0930502FA0132969491FA013396DB
:1037C000E491392F20E0F0E0E22BF32BF093040298
:1037D000E0930302FA0134969491FA013596E4914C
:1037E000392F20E0F0E0E22BF32BF0930202E0937C
:1037F0000102FA0136969491495F5F4FFA014491B4
:10380000392F20E050E0422B532B5093000240937D
:10381000FF0185FFAACFE801D070CC0FDD1FCC0FD0
:10382000DD1FCC0FDD1FCE010E94DF439093050208
:1038300080930602CE0102960E94DF43909303021A
:10384000E3E0F2E08183CE0104960E94DF4390938F
:10385000010280930202CE0106960E94DF439093FC
:10386000FF0180930002FEE00E3F1F0709F082CFA8
:1038700080913701882339F01092370180916E00D2
:103880008D7F80936E008AEA91E00E944E1B882310
:10389000C1F520E2E091B701F091B801A091AF012C
:1038A000B091B001822F11969C9111972FB7F89487
:1038B000918380832FBFE5E9F1E0E491F0E0EE0F22
:1038C000FF1FEE0FFF1FE951FE4F8AEA91E092A31E
:1038D00081A380ED91E294A383A3DF91CF911F9107
:1038E0000F91089581E08093370116BCA99A8091C9
:1038F0006E00826080936E000091F9011091FA01D0
:1039000034CF20E0C7CF0E948B1B0895FC01362FD7
:10391000272F80819181A281B381882309F452C02D
:10392000482F4170440F440F440F4064B695A7954B
:10393000979587954EBD0DB407FEFDCF1EBC0DB407
:1039400007FEFDCF8EBD0DB407FEFDCF3EBD0DB40D
:1039500007FEFDCF8EB54081518162817381DB010D
:10396000CA010196A11DB11D80839183A283B383F7
:10397000882309F455C0382F3170330F330F330FBC
:103980003064B695A795979587953EBD0DB407FE13
:10399000FDCF1EBC0DB407FEFDCF8EBD0DB407FEDE
:1039A000FDCF2EBD0DB407FEFDCF8EB58081918178
:1039B000A281B3810196A11DB11D80839183A28351
:1039C000B38308950197A109B109AC01BD01032E8C
:1039D00039E076956795579547953A95D1F7302D0B
:1039E000B695A7959795879580789CE49EBD0DB474
:1039F00007FEFDCF4EBD0DB407FEFDCF8EBD0DB44D
:103A000007FEFDCF1EBC0DB407FEFDCF8EB58CEBBF
:103A100094E30197F1F780819181A281B38180CFF6
:103A2000DB01CA0139E0B695A795979587953A9538
:103A3000D1F7769567955795479540789CE49EBD5C
:103A40000DB407FEFDCF8EBD0DB407FEFDCF4EBDFC
:103A50000DB407FEFDCF1EBC0DB407FEFDCF8EB525
:103A60008CEB94E30197F1F780819181A281B3817E
:103A700082CFFF920F931F93FC01262FF72E808198
:103A80009181A281B381AC01BD014770507060701B
:103A90007070411551056105710509F44FC08770BB
:103AA00091EC9EBD0DB407FEFDCF1EBC0DB407FE0C
:103AB000FDCF8EBD0DB407FEFDCF2EBD0DB407FEAC
:103AC000FDCF8EB580819181A281B3818C019D0152
:103AD0000F5F1F4F2F4F3F4F00831183228333838C
:103AE000B901A801477050706070707041155105A0
:103AF0006105710509F447C0077081EC8EBD0DB4F6
:103B000007FEFDCF1EBC0DB407FEFDCF0EBD0DB4EC
:103B100007FEFDCFFEBC0DB407FEFDCF8EB5808144
:103B20009181A281B3810196A11DB11D80839183F2
:103B3000A283B3831F910F91FF900895AC01BD0143
:103B40004150504060407040352F3F708150887F19
:103B500092EC9EBD0DB407FEFDCF3EBD0DB407FE39
:103B6000FDCF8EBD0DB407FEFDCF1EBC0DB407FE0C
:103B7000FDCF8EB588E799E60197F1F780819181B5
:103B8000A281B3818CCF892F8F700150087F92EC76
:103B90009EBD0DB407FEFDCF8EBD0DB407FEFDCF5B
:103BA0000EBD0DB407FEFDCF1EBC0DB407FEFDCF4C
:103BB0008EB588E799E60197F1F70081118122819E
:103BC00033819ACF0F931F93FC0180819181A28151
:103BD000B381282F2170220F220F220F2062AC0107
:103BE000BD0119E076956795579547951A95D1F7D8
:103BF000B695A795979587952EBD0DB407FEFDCF79
:103C00004EBD0DB407FEFDCF8EBD0DB407FEFDCF3A
:103C10001EBC0DB407FEFDCF8EB54081518162817F
:103C200073814F5F5F4F6F4F7F4F4083518362833C
:103C30007383942F9170990F990F990F90628A0155
:103C40009B01A9E03695279517950795AA95D1F779
:103C500076956795579547959EBD0DB407FEFDCFA8
:103C60000EBD0DB407FEFDCF4EBD0DB407FEFDCF5A
:103C70001EBC0DB407FEFDCF9EB54081518162810F
:103C800073814F5F5F4F6F4F7F4F408351836283DC
:103C900073831F910F910895FC018081918197702A
:103CA00020EA2EBD0DB407FEFDCF9EBD0DB407FE6C
:103CB000FDCF8EBD0DB407FEFDCF1EBC0DB407FEBB
:103CC000FDCF8EB540815181628173814F5F5F4F1F
:103CD0006F4F7F4F4083518362837383952F97701B
:103CE00020EA2EBD0DB407FEFDCF9EBD0DB407FE2C
:103CF000FDCF4EBD0DB407FEFDCF1EBC0DB407FEBB
:103D0000FDCF9EB540815181628173814F5F5F4FCE
:103D10006F4F7F4F408351836283738308950F9366
:103D20001F93CF93DF938C01DC011596ED91FC91ED
:103D3000169780812181813209F42AC18232F0F004
:103D4000813309F44FC1823308F472C0833309F41C
:103D500053C1833308F07AC182E3F801858B05846F
:103D6000F685E02D82E0922F2FB7F894918380831F
:103D70002FBFDF91CF911F910F910895813109F4E9
:103D800007C1823108F083C0833009F435C1843023
:103D900009F4F2C0882309F0B4C0E8018D898132AA
:103DA00009F4EAC1823208F455C1813309F490C1A3
:103DB000823309F489C1823209F0A3C0E801888105
:103DC0009981AA81BB814E895F89688D798D84171D
:103DD0009507A607B70708F43EC2AC01BD014150E4
:103DE000504060407040252F2F708150887F92ECAA
:103DF0009EBD0DB407FEFDCF2EBD0DB407FEFDCF59
:103E00008EBD0DB407FEFDCF1EBC0DB407FEFDCF69
:103E10008EB588E799E60197F1F7D8011D96ED91E7
:103E2000FC911E9715960D90BC91A02D80E061C06D
:103E3000833209F4E1C0833208F468C0843209F0A7
:103E400060C0E80188819981AA81BB81AC01BD0174
:103E50004150504060407040252F2F708150887F26
:103E600092EC9EBD0DB407FEFDCF2EBD0DB407FE36
:103E7000FDCF8EBD0DB407FEFDCF1EBC0DB407FEF9
:103E8000FDCF8EB588E799E60197F1F743C08331FE
:103E900009F4B2C0833108F03BC082E1F801858BA0
:103EA0000780F085E02D8FB7F894408151818FBF56
:103EB000D8011996ED91FC911A978FB7F89420814B
:103EC00031818FBFE801EB85FC856FB7F894808165
:103ED00091816FBFF801588349833A831B822E8BEF
:103EE0009F8B888F198E0584F685E02DAD81BE816C
:103EF00082E011969C9111972FB7F894918380835B
:103F00002FBFDF91CF911F910F91089582E2C6CF0D
:103F10008431B9F7F80180819181A281B381019741
:103F2000A109B109AC01BD0129E0769567955795C6
:103F300047952A95D1F7B695A79597958795807857
:103F40009CE49EBD0DB407FEFDCF4EBD0DB407FE33
:103F5000FDCF8EBD0DB407FEFDCF1EBC0DB407FE18
:103F6000FDCF8EB58CEB94E30197F1F7D801159650
:103F7000ED91FC9116972181E801ED85FE8584E0A5
:103F8000922F2FB7F894918380832FBF0E94F10E58
:103F9000F801858B0780F085E02D8FB7F89440817C
:103FA00051818FBFD8011996ED91FC911A978FB767
:103FB000F894208131818FBFE801EB85FC856FB7D4
:103FC000F894808191816FBF588349833A831B8223
:103FD0002E8B9F8B888F198EED85FE85AD81BE81DE
:103FE00081E087CFD80155968C9355971D96ED911A
:103FF000FC911E9781E0B7CE8CEA8EBD0DB407FE12
:10400000FDCF80E88EBD0DB407FEFDCF1EBC0DB404
:1040100007FEFDCF1EBC0DB407FEFDCF8EB588E7B1
:1040200099E60197F1F7E801AD85BE85ED81FE8146
:1040300083E091812FB7F89411969C938E932FBFB4
:10404000ED85FE85AD81BE8180E053CF843309F0DC
:1040500058CF92CF813109F4D4C0823109F051CFC9
:1040600088819981AA81BB814E895F89688D798D0C
:1040700084179507A607B70708F43DC10197A10962
:10408000B109AC01BD0129E0769567955795479533
:104090002A95D1F7B695A7959795879580789CE452
:1040A0009EBD0DB407FEFDCF4EBD0DB407FEFDCF86
:1040B0008EBD0DB407FEFDCF1EBC0DB407FEFDCFB7
:1040C0008EB58CEB94E3A7CEED85FE8580E04BCEDC
:1040D000E801EF85F88988E58EBD0DB407FEFDCFB8
:1040E00088E08EBD0DB407FEFDCF1EBC0DB407FEEB
:1040F000FDCF1EBC0DB407FEFDCF3EB580E58EBDE5
:104100000DB407FEFDCF1EBC0DB407FEFDCF1EBCD7
:104110000DB407FEFDCF1EBC0DB407FEFDCF2EB5BE
:10412000832F922F2FB7F894918380832FBFD801CC
:104130005196ED91FC91529780E58EBD0DB407FE2E
:10414000FDCF88E08EBD0DB407FEFDCF1EBC0DB4C3
:1041500007FEFDCF1EBC0DB407FEFDCF2EB580E0DF
:10416000922F2FB7F894918380832FBFE801ED85BC
:10417000FE85AD81BE81BDCE0F84D889C02DC8011A
:104180000E944C1E292F382F8FB7F894398328832B
:104190008FBFD8015196CD91DC915297C8010E94F2
:1041A0004C1E292F382F8FB7F894398328838FBF5F
:1041B000F801C389D489C8010E944C1E292F382FC9
:1041C0008FB7F894398328838FBFD8014D915D91C3
:1041D0006D917C91139756968D919D910D90BC9108
:1041E000A02D84179507A607B70770F5D8011D966F
:1041F000ED91FC911E9715960D90BC91A02D80E03D
:1042000078CE0F84D889C02DC8010E94E21D292FC5
:10421000382F8FB7F894398328838FBFD8015196F0
:10422000CD91DC915297C8010E94E21D292F382FB1
:104230008FB7F894398328838FBFF801C389D48955
:10424000C8010E94E21DBACFE801ED85FE85AD816F
:10425000BE8181E04ECEEF81F8858FB7F894208142
:1042600031818FBFC801632F722F0E94391D888151
:104270009981AA81BB814E895F89688D798D841768
:104280009507A607B70708F0A8CDE985FA858FB787
:10429000F894208131818FBFC801632F722F0E9453
:1042A000391D88819981AA81BB814E895F89688D7A
:1042B000798D84179507A607B70708F08ECDEB8593
:1042C000FC858FB7F894208131818FBFC801632F9F
:1042D000722F0E94391DF80188819981AA81BB81C2
:1042E0004E895F89688D798D84179507A607B70772
:1042F00008F4F9CD72CDEF81F8858FB7F89420815D
:1043000031818FBFC801632F722F0E94861CE80184
:1043100088819981AA81BB814E895F89688D798D59
:1043200084179507A607B70708F0A8CEE985FA8590
:104330008FB7F894208131818FBFC801632F722F0E
:104340000E94861C88819981AA81BB814E895F89E0
:10435000688D798D84179507A607B70708F08ECE6C
:10436000EB85FC858FB7F894208131818FBFC80120
:10437000632F722F0E94861C88819981AA81BB813C
:104380004E895F89688D798D84179507A607B707D1
:1043900008F074CEED85FE85AD81BE8182E0A9CDA9
:1043A0000E948F1E0895AC01FC01E852FF4F845C0F
:1043B0009E4F2FE431E011821082338322833496A2
:1043C000E817F907C1F7CA0180569E4F1182108283
:1043D000338322833496E817F907C1F78091D80018
:1043E00081608093D800E2EEF0E08091E200817875
:1043F0008A608093E2008091E3008E6081838091E7
:10440000E40081788B6482838091ED008F708093CB
:10441000ED0088E08093EF008FEFE4EFF0E095E0AF
:104420009093F400118290EE928383839091ED003B
:104430009F7090619093ED0098E09093EF0095E06D
:104440009093F4009091ED009F7090629093ED0036
:104450009091ED009F7090639093ED00A0EFB0E01D
:104460001092F00011961C92119790EC12969C936A
:10447000129793E613969C93139795E09093F4000C
:10448000118290EE928383839091ED009F709064EF
:104490009093ED0098E09093EF0095E09093F400F6
:1044A0009091ED009F7090659093ED009091ED00DC
:1044B0009F7090669093ED0098EC9093EF001092AF
:1044C000F00011961C92119712961C92129799E087
:1044D00013969C93139795E09093F400118290EEBD
:1044E000928383839091ED009F7090679093ED008D
:1044F00098E89093EF001092F00011961C9211979B
:1045000012961C9212979AE013969C93139795E03B
:104510009093F400118290EA92839EEF938390919E
:10452000ED009F7090689093ED0098EC9093EF00F1
:104530001092F00011961C92119712961C921297ED
:104540009EE013969C93139795E09093F40011824C
:1045500090EE928383839091ED009F709069909389
:10456000ED0098E89093EF001092F00011961C92E5
:10457000119712961C92129790E113969C931397A1
:1045800095E09093F400118290E49283838390915C
:10459000ED009F70906A9093ED0098E89093EF0083
:1045A0001092F00011961C92119790E212969C9333
:1045B000129792E413969C93139795E09093F400CE
:1045C000118290E6928383839091ED009F70906BAF
:1045D0009093ED0098E89093EF001092F000119600
:1045E0001C92119790E412969C9312979AE413965A
:1045F0009C93139795E09093F400118290E8928336
:1046000097ED93839091ED009F70906C9093ED00E7
:1046100098E89093EF001092F00011961C92119779
:1046200012961C9212979DE813969C93139795E00F
:104630009093F400118290EE928398EF938390917F
:10464000ED009F70906D9093ED0098EC9093EF00CB
:104650001092F00011961C92119790E812969C937C
:1046600012979CEE13969C93139795E09093F40009
:10467000118290EE928383839091ED009F70906EF3
:104680009093ED0098E89093EF001092F00011964F
:104690001C92119712961C92129790EF13969C936E
:1046A000139795E09093F400118290E892838383AE
:1046B00080EE9FE79093DF008093DE008091DB0027
:1046C000806B8093DB00509319054093180585EAB1
:1046D00091E390931B0580931A058091D800826026
:1046E0008093D8008091D90082FFFCCF08952F924B
:1046F0003F924F925F926F927F928F929F92AF9272
:10470000BF92CF92DF92EF92FF920F931F93CF93BE
:10471000DF93CDB7DEB72B970FB6F894DEBF0FBE91
:10472000CDBFFB01C080D180E280F380C701B6011C
:104730002CE030E040E050E00E941B426D837E831D
:104740008F8398878EE090E00E941205880F991F52
:10475000880F991F01972C0166247724160181E0A8
:1047600090E09B878A8731C0682D592D4A2D7B2D7B
:10477000862E952EA42EB72E281739070CF46AC062
:104780004B815C814B835C83281739070CF469C02B
:1047900099818A8199838A834A855B854034510552
:1047A00008F469C084E090E02A853B85289F700169
:1047B000299FF00C389FF00C1124FB86EA86A70194
:1047C00084E04130580708F061C02A853B856901C3
:1047D000EE24FF246D817E818F819885A70196014B
:1047E0000E94614289019A010150104020403040EE
:1047F000401651066206730610F493018201B80157
:104800006F5F7F4F80E090E0A70196010E941B42FE
:104810002CE030E040E050E00E94614269017A0102
:10482000C4018219930997FD2DC0960122193309FD
:1048300037FD24C0281739070CF096CF6C2D5D2D5D
:104840004E2D7F2D862E952EA42EB72E2817390794
:104850000CF096CFA8014B835C83281739070CF026
:1048600097CF9A858B8599838A834A855B85403467
:10487000510508F097CF88E090E096CF30952195CC
:104880003F4FD8CF909581959F4FCFCFEB80FC8045
:10489000F0928900E092880029813A812034310524
:1048A00009F458C02134310508F442C049815A81C5
:1048B00081E04030580709F447C094E04030590780
:1048C00009F43FC09985977080918100887F892B7A
:1048D0008093810080918000909181008C7F977EF1
:1048E000986090938100809380008F738093800004
:1048F00080916F00826080936F00B401C5012B9698
:104900000FB6F894DEBF0FBECDBFDF91CF911F91E0
:104910000F91FF90EF90DF90CF90BF90AF909F905E
:104920008F907F906F905F904F903F902F90089561
:104930002130310561F02830310521F6E2E0E987C8
:10494000C1CF35E03987BECF24E02987BBCF41E016
:104950004987B8CFF3E0F987B5CFAF92BF92CF9236
:10496000DF92EF92FF920F931F93CF93DF9300D0CC
:1049700000D0CDB7DEB75C011091EE018091F0015F
:1049800081FF43C0112309F440C08EE190E0909371
:1049900001018093000180916F00826080936F001D
:1049A000F50181811817E1F11183E0911001F09177
:1049B00011016081718180E090E028EF36E041E0F4
:1049C00050E00E941B4228EE33E040E050E00E949D
:1049D000614269017A01212F30E040E050E0C701D7
:1049E000B6010E94614289019A0109831A832B83CF
:1049F0003C83073911052105310590F0C501BE0141
:104A00006F5F7F4F0E9477230BC086E090E090930A
:104A100001018093000180916F008D7F80936F0072
:104A200081E0F50182830F900F900F900F90DF913E
:104A3000CF911F910F91FF90EF90DF90CF90BF909B
:104A4000AF900895AF92BF92CF92DF92EF92FF9214
:104A50000F931F93CF93DF9300D000D0CDB7DEB775
:104A60005C011091C902112309F44BC08EE190E062
:104A7000909301018093000180916F008260809388
:104A80006F00F5018181181751F11183E091100138
:104A9000F09111016081718180E090E028EF36E0B3
:104AA00041E050E00E941B4228EE33E040E050E03D
:104AB0000E94614269017A01212F30E040E050E01C
:104AC000C701B6010E94614289019A0109831A83D4
:104AD0002B833C830739110521053105F0F481E072
:104AE000F50182830F900F900F900F90DF91CF917F
:104AF0001F910F91FF90EF90DF90CF90BF90AF90FC
:104B0000089586E090E090930101809300018091E8
:104B10006F008D7F80936F00E2CFC501BE016F5F94
:104B20007F4F0E947723DBCF2F923F924F925F926D
:104B30006F927F928F929F92AF92BF92DF92EF928D
:104B4000FF920F931F93CF93DF93CDB7DEB7A2975A
:104B50000FB6F894DEBF0FBECDBF8130910531F1A5
:104B6000009761F480911001909111010E943843E7
:104B700080911201909113010E943843A2960FB6C2
:104B8000F894DEBF0FBECDBFDF91CF911F910F9183
:104B9000FF90EF90DF90BF90AF909F908F907F90AD
:104BA0006F905F904F903F902F900895E0E6F5E072
:104BB0002FE431E0118210828FE491E0338322836D
:104BC00036964BE0E036F407A9F71092600B10928E
:104BD000610B10925D0510925C0500E511E01093E9
:104BE0005F0500935E0510925905109258051093C9
:104BF0005B0500935A0510925505109254051093C9
:104C000057050093560510925105109250051093C8
:104C100053050093520510924D0510924C051093C8
:104C20004F0500934E0510924905109248051093C8
:104C30004B0500934A0510924505109244051093C8
:104C400047050093460510924105109240051093C8
:104C500043050093420510923D0510923C051093C8
:104C60003F0500933E0510923905109238051093C8
:104C70003B0500933A0510923505109234051093C8
:104C800037050093360510923105109230051093C8
:104C900033050093320510922D0510922C051093C8
:104CA0002F0500932E0510922905109228051093C8
:104CB0002B0500932A0510922505109224051093C8
:104CC00027050093260510922105109220051093C8
:104CD00023050093220510921D0510921C051093C8
:104CE0001F0500931E0510921905109218051093C8
:104CF0001B0500931A0510921505109214051093C8
:104D000017050093160510921105109210051093C7
:104D100013050093120510920D0510920C051093C7
:104D20000F0500930E0510920905109208051093C7
:104D30000B0500930A0510920505109204051093C7
:104D400007050093060510920105109200051093C7
:104D50000305009302051092FD041092FC041093C9
:104D6000FF040093FE041092F9041092F8041093CB
:104D7000FB040093FA041092F5041092F4041093CB
:104D8000F7040093F6041092ED041092EC041093D3
:104D9000EF040093EE041092E9041092E8041093DB
:104DA000EB040093EA041092E5041092E4041093DB
:104DB000E7040093E6041092E1041092E0041093DB
:104DC000E3040093E2041092DD041092DC041093DB
:104DD000DF040093DE041092D9041092D8041093DB
:104DE000DB040093DA041092D5041092D4041093DB
:104DF000D7040093D6041092D1041092D0041093DB
:104E0000D3040093D204109209002FED3EE23093B8
:104E100099002093980020919100287F2160209391
:104E2000910020919000309191002C7F377E386066
:104E300030939100209390002F73209390002BECDF
:104E400034E03093F1042093F00429E033E0309310
:104E5000F3042093F2041092CC041092CD0410922B
:104E6000CE041092CF041092950010929400C19A33
:104E70002091710022602093710010923C041092E6
:104E80003B0490933E0480933D041092450410929D
:104E90004404909347048093460410924E04109269
:104EA0004D049093500480934F0410925704109235
:104EB0005604909359048093580410926004109201
:104EC0005F049093620480936104109269041092CD
:104ED000680490936B0480936A0410927204109299
:104EE0007104909374048093730410927B04109265
:104EF0007A0490937D0480937C0410928404109231
:104F00008304909386048093850410928D041092FC
:104F10008C0490938F0480938E04109296041092C8
:104F20009504909398048093970410929F04109294
:104F30009E049093A1048093A0041092A804109260
:104F4000A7049093AA048093A9041092B10410922C
:104F5000B0049093B3048093B2041092BA041092F8
:104F6000B9049093BC048093BB041092C3041092C4
:104F7000C2049093C5048093C40489E192E00E9426
:104F8000D3211092E7011092E6011093E9010093FA
:104F9000E8011092EC011092EB011092EE011092D8
:104FA000ED011092F0011092EF011092F2011092B7
:104FB000F1011092F4011092F3011092F601109297
:104FC000F5011092F8011092F7011092FA01109277
:104FD000F9018BEF91E01092FC011092FB0110920D
:104FE000FE011092FD01109200021092FF0110923A
:104FF000020210920102F8E02F2E312C280E391EE9
:105000001092040210920302AAE04A2E512C480E7C
:10501000591E109206021092050210920902109277
:10502000080210930B0200930A0210920D021092D4
:105030000C0210930F0200930E02109211021092B4
:105040001002109313020093120210921502109294
:10505000140210931702009316021092E4011092AA
:10506000E3011092E501539A5B9A52985A9A549A26
:1050700027982F9A0CED11E01093E1040093E004BF
:105080002CE533E33093E3042093E2041093D90436
:105090000093D80425EF33E03093DB042093DA0447
:1050A0001093DD040093DC0428E133E03093DF0447
:1050B0002093DE04E8ECF0E02091C8002260209309
:1050C000C8002CE02093CC002091CD00207F2093BD
:1050D000CD003091C9002091CA0026602778228334
:1050E0003C6C3183DD24D394D8011296DC92129764
:1050F0002091C80021602093C8005C9A2091C900CB
:105100002061218316961C922FEF2093B3002091EB
:10511000B000207822602093B000209170002C7F96
:10512000209370002FECE22E21E0F22E9093D0011C
:105130008093CF011092D2011092D3011092D4012A
:105140001092D501D092D6012091FB012093D70176
:105150001092D80101969093DA018093D9011092B0
:10516000DB011092D1014E2DFE82ED8285E298E0A6
:10517000682F98878F831A8619865E81788580E0EC
:105180009A8520ED37E00E94360482E090E06CE0E2
:1051900070E00E9408174C0182E090E06DE070E042
:1051A0000E9408173C0140E0A42E41E0B42E86E0A6
:1051B00090E09093010180930001109202011092FF
:1051C00003011092040110920501F0920701E09290
:1051D000060188EE93E09093090180930801F09214
:1051E0000B01E0920A0181E591E090930D0180931B
:1051F0000C01D0920E0185E987BD84B580788A6064
:1052000084BDB0922105A092200585EE94E0909394
:10521000230580932205B0921501A09214018FE519
:1052200093E09093170180931601B0921901A09218
:1052300018018FE693E090931B0180931A0110925E
:105240001C0182E080931D0110921E01D0921F016B
:10525000109220011092210110922201109223013C
:1052600010922401C8010396909326018093250192
:10527000509228014092270130922A012092290160
:1052800010922B0110922C0110922D0110922E01E0
:105290008AE080932F011092300110923201109217
:1052A00031011092330110923401109235011092A5
:1052B000360110923701109238011092390189E0BD
:1052C00090E00E94D143E82E84E290E00E94A24246
:1052D0008C01FF24F394FE20FC0191828082B401B2
:1052E00080E090E02FE334E243E050E00E941B4274
:1052F00028E630E140E050E00E946142D801129679
:105300002D933D934D935C9315971696FC921697AB
:1053100017961C92179718961C92189719961C921C
:1053200019971A961C921A971D961C921E921C97FA
:105330001F961C921E921E9751961C921E92509779
:1053400053961C921E92529755961C921E925497F9
:1053500056961C92569757961C92579759961C92A0
:105360001E9258975B961C921E925A975C961C92BE
:105370005C9791E0FF2009F084C19170892F880F1C
:10538000892BF801858F168E81E0878F3C9A3D9A94
:10539000109311010093100184E290E00E94A24258
:1053A0008C01FE2CF694F1E0FF22DC0111967C9238
:1053B0006E92B30180E090E02FE334E243E050E0EE
:1053C0000E941B4228E630E140E050E00E9461422A
:1053D000F8012283338344835583F6821782108633
:1053E000118612861586148617861686118A108AEB
:1053F000138A128A158A148A168A178A118E108EB9
:10540000138E128E148E91E0FF2009F038C1917036
:10541000892F880F892BD8015D968C935D975E96B6
:105420001C925E9781E05F968C933C9A3D9A109314
:1054300013010093120117B83C9A3D9A2FB7F894C4
:1054400084E790E090930402809303022FBFE091E1
:105450002701F09128018FB7F894118210828FBF35
:105460004A2DBC86AB8683E798E3682F9E878D879D
:10547000188A1F865C857E8580E0988924EF31E05C
:105480000E9436041F9B16C103B100781092C80118
:105490001092CC011092CB011092CD0180E390E0EC
:1054A0000E94D943DC01CB0186309105A105B105ED
:1054B00008F0E9C019E188E390E00E94D943AB010C
:1054C000BC01212F30E0249FC001259F900D349F07
:1054D000900D11248C599F4F9093CA018093C9015C
:1054E000002309F4D2C085E595E5A0E0B0E089830A
:1054F0009A83AB83BC8304EC11E0C801BE016F5FEB
:105500007F4F0E94772310933105009330058AE97D
:1055100095E09093330580933205402F1E8F0D8FB9
:105520008EEC97E0682F98A38F8F1AA219A25E8D38
:1055300078A180E09AA128EE33E00E943604109210
:10554000AA011092AB011092AC011092AD014CB5C2
:105550004F7B4CBD24982C9A239822982198209810
:105560001092AE0129EF31E03093B0012093AF01EA
:10557000C90102979093B2018093B101C9010497C8
:105580009093B4018093B301C90106979093B6013B
:105590008093B5015092B8014092B7013092BA01A0
:1055A0002092B901C90108969093BC018093BB0178
:1055B0002A5F3F4F3093BE012093BD0110928D01B1
:1055C00010928E0110928F011092900124982C9AC3
:1055D000239822982198209810929101109293017B
:1055E0001092920110929D0110929C0110929F01C5
:1055F00010929E011092A101B092A301A092A2016B
:1056000028E234E03093A5012093A401B092A701D1
:10561000A092A60188E691E09093A9018093A80149
:105620001092700110927101109272011092730128
:1056300024982C9A239822982198209810927401EB
:1056400010927601109275011092800110927F01E4
:10565000109282011092810110928401B092860111
:10566000A09285013093880120938701B0928A012E
:10567000A092890190938C0180938B017FCA90E066
:10568000C6CE90E07ACE10E116CF88EC91E0482F9C
:10569000988F8F8B8DE898E0682F9A8F898F1C8E5A
:1056A0001B8E588D7A8D80E09C8D24EF31E00E9416
:1056B000360419CF8EEC91E0482F9A8B898B86E9BE
:1056C00096E0682F9C8B8B8B1E8A1D8A5A897C8959
:1056D00080E09E8924EF31E00E943604D5CE9F926F
:1056E000AF92BF92CF92DF92EF92FF920F931F93F0
:1056F000CF93DF93EC01FB018C89813081F1909194
:10570000DC0095FDFECF8091ED00E0EFF0E010921F
:10571000F0001182128290EF938396E09093FA004A
:105720001092FA001092FA001092FA001092FA0009
:105730001092FA001092FA001092FA0098E49093F6
:10574000EF008093ED00DF91CF911F910F91FF90BB
:10575000EF90DF90CF90BF90AF909F9008954881D9
:1057600059816A817B818F01085F1F4F31EC22ECE8
:10577000E22EA8E7CA2EA9E6DA2EBCE49B2E8CEB1B
:10578000A82E84E3B82E8B892081882309F055C088
:10579000442309F48FC0FF24F394F422FF0CFF0C80
:1057A000FF0C80E4F82ADB01CA01B695A79597950E
:1057B0008795FEBC0DB407FEFDCF1EBC0DB407FEE1
:1057C000FDCF8EBD0DB407FEFDCF2EBD0DB407FE7F
:1057D000FDCF8EB5488159816A817B814F5F5F4FD4
:1057E0006F4F7F4F488359836A837B8321918F85D5
:1057F00098898227082E8295807F8025092E982FF0
:1058000082958F700826869598278927880F880F9C
:10581000880F80258F87988B8D819E8101979E832D
:105820008D83009709F473C0E017F10709F48BCF5B
:105830008B892081882309F4ABCFDB01CA018770F3
:105840009070A070B0700097A105B10591F04770FD
:105850003EBD0DB407FEFDCF1EBC0DB407FEFDCF4F
:105860004EBD0DB407FEFDCF2EBD0DB407FEFDCF1E
:10587000B0CFDB01CA010197A109B1099F70415066
:10588000487FEEBC0DB407FEFDCF9EBD0DB407FEF4
:10589000FDCF4EBD0DB407FEFDCF1EBC0DB407FEFF
:1058A000FDCF8EB5C6010197F1F7488159816A8114
:1058B0007B81CDCF4150504060407040DB01CA0138
:1058C000072E79E0B695A795979587957A95D1F7A4
:1058D000702D769567955795479540789EBC0DB489
:1058E00007FEFDCF8EBD0DB407FEFDCF4EBD0DB43E
:1058F00007FEFDCF1EBC0DB407FEFDCF8EB5C50162
:105900000197F1F7488159816A817B8144CF1C8AD4
:10591000EF89F88D8D899E89099529893A898F8526
:10592000988928173907C1F03F8528899091DC00B4
:1059300095FDFECF8091ED00E0EFF0E01092F000D9
:105940001182128290EF938394E09093FA00309347
:10595000FA002093FA00E8CE8B89882309F040C032
:1059600088819981AA81BB810197A109B109AC0104
:10597000BD01E9E07695679557954795EA95D1F78A
:10598000B695A7959795879580789CE49EBD0DB4B4
:1059900007FEFDCF4EBD0DB407FEFDCF8EBD0DB48D
:1059A00007FEFDCF1EBC0DB407FEFDCF8EB58CEB00
:1059B00094E30197F1F79091DC0095FDFECF809183
:1059C000ED00E0EFF0E01092F0001182128290EF13
:1059D00093831092FA001092FA001092FA00A4CE6B
:1059E00088819981AA81BB81AC01BD0141505040A1
:1059F00060407040252F2F708150887F92EC9EBDB3
:105A00000DB407FEFDCF2EBD0DB407FEFDCF8EBD3C
:105A10000DB407FEFDCF1EBC0DB407FEFDCF8EB545
:105A200088E799E60197F1F79091DC00C6CF0E94D4
:105A30006F2B08959F92AF92BF92CF92DF92EF9219
:105A4000FF920F931F93CF93DF93EC01FB018C899F
:105A5000813089F19091DC0095FDFECF8091ED00C1
:105A6000E0EFF0E01092F000118290E4928390EF6A
:105A7000938396E09093FA001092FA001092FA0045
:105A80001092FA001092FA001092FA001092FA00A6
:105A90001092FA0098E49093EF008093ED00DF916C
:105AA000CF911F910F91FF90EF90DF90CF90BF901B
:105AB000AF909F900895488159816A817B818F01C1
:105AC000085F1F4F31EC22ECE22EA8E7CA2EA9E6B0
:105AD000DA2EBCE49B2E8CEBA82E84E3B82E8B89A7
:105AE0002081882309F055C0442309F48FC0FF2486
:105AF000F394F422FF0CFF0CFF0C80E4F82ADB0186
:105B0000CA01B695A79597958795FEBC0DB407FE7B
:105B1000FDCF1EBC0DB407FEFDCF8EBD0DB407FE3C
:105B2000FDCF2EBD0DB407FEFDCF8EB54881598146
:105B30006A817B814F5F5F4F6F4F7F4F48835983EF
