:100000000C9488000C9489090C94B4090C94DF09B1
:100010000C940A0A0C94350A0C94600A0C948B0A0E
:100020000C94B60A0C94E10A0C940C0B0C94370B4C
:100030000C94620B0C948D0B0C94B80B0C94E30B8A
:100040000C940E0C0C94390C0C94640C0C948F0CC6
:100050000C94BA0C0C94E50C0C94100D0C943B0D04
:100060000C94660D0C94910D0C94BC0D0C94E70D42
:100070000C94120E0C943D0E0C94680E0C94930E7E
:100080000C94BE0E0C94E90E0C94140F0C943F0FBC
:080090000C946A0F522C572C4E
:10010000000000000076191101010000A2DFD9FDF6
:1001100011241FBECFEFD0E1DEBFCDBF14BE88E1FA
:100120000FB6F89480936000109260000FBE11E04B
:10013000A0E0B1E0EAE7FCE502C005900D92A03630
:10014000B107D9F719E0A0E6B1E001C01D92A939C5
:10015000B107E1F73C9A3D9A449A459A2DE088E12F
:1001600090E00FB6F894A895809360000FBE20939E
:100170006000259810E0C6E9D0E004C02297FE0197
:100180000E94CE2CC439D107C9F70E9437160C94AF
:10019000302E0001000203000000040000000000F7
:1001A00000000000000000000000908F8E8D080706
:1001B0000605000000000000000000000000000034
:1001C000000000000000000000000000000000002F
:1001D000000000000000000000000000000000001F
:1001E000000000000000000000000000000000000F
:1001F00000008C8B8A8904030000000000000000CE
:1002000000000000000000000000020000010000EB
:1002100000000000000000000000000000000000DE
:1002200000000000000000000000000000000000CE
:1002300000000000000000000000000000000000BE
:1002400000000000000000000000000000000000AE
:10025000000000000000000000000000000000009E
:10026000000000000000000000000000000000008E
:10027000000000000000000000000000000000007E
:10028000000000000000000000000000000000006E
:10029000000000000000000000000000000000005E
:1002A0000000089508954FB7F8945FB7F89420912F
:1002B0008D0230918E0281E090E002C0880F991F7C
:1002C0006A95E2F7809590958223932390938E020E
:1002D00080938D025FBF4FBF08958091EE018093A0
:1002E00060028091EF01809361028091F001809320
:1002F00062028091EB01809366028091EC01809311
:1003000067028091ED01809368020895FC014181AC
:100310005281638174814F5F5F4F6F4F7F4F418385
:100320005283638374830895FC0187818430F1F0E4
:10033000853059F18630B1F1873019F08F5F8783AE
:100340000895A081B181AF70B070A65CBE4F8C9152
:100350008093CE008091C9008F7DA8ECB0E011960B
:100360008C93119787818F5F878308952181822FD6
:1003700082958F7090E0865C9E4FDC018C9180931B
:10038000CE0087818F5F87830895A181B0E0AF7031
:10039000B070A65CBE4F8C918093CE0087818F5F3A
:1003A00087830895A081B181B295A295AF70AB27E4
:1003B000BF70AB27ECCF8EBD0DB407FEFDCF6EBD79
:1003C0000DB407FEFDCF4EBD0DB407FEFDCF2EBD13
:1003D0000DB407FEFDCF8EB50895AB01BC01DB0166
:1003E000CA010197A109B1099F704150487F82EC71
:1003F000692F20E00E94DB0188E799E60197F1F779
:100400000895FC015C9AA8ECB0E08091C90080617D
:1004100011968C9311978781883009F00895809107
:10042000C80081608093C8005C9A8091C900806197
:1004300011968C931197178208951F93CF93DF9392
:1004400000D000D000D0CDB7DEB749835A836B838C
:100450007C838D839E83E1EBF2E005C03996B2E0A8
:10046000E93FFB07A9F19FB7F8948085482F4670B4
:1004700011F4846080879FBF108512FFEFCFC90100
:10048000A0E0B0E04091FA025091FB026091FC02C2
:100490007091FD02840F951FA61FB71F8683978357
:1004A0008A2F81701E7F182B1087CF01AE014F5FFE
:1004B0005F4F26E0DA010D90AD01DC010D92CD0118
:1004C0002150C1F7808582608B7F808781E001C0E9
:1004D00080E026960FB6F894DEBF0FBECDBFDF9149
:1004E000CF911F910895CF93DF939C014091ED0030
:1004F0008091EC00807F8093ED008091EE008F7DF5
:100500008093EE00B091EF00BF705091F2005295D1
:10051000569557706091F300762F770F770F770F0E
:10052000872F852B962F929596959770880F991FF8
:1005300082959295907F9827807F98278B0F911DA9
:1005400059E08530950709F462C0EAE088309E07DB
:1005500009F412C1FAE088349F0709F410C15BE086
:100560008830950709F425C1EBE088349E0709F42B
:1005700009C1FEE081309F0709F421C15CE08130B0
:10058000950709F428C1E0E180309E0709F429C1EC
:10059000F0E180389F0709F42AC150E181309507C6
:1005A00009F413C1E0E181389E0709F426C1F0E1A6
:1005B00080329F0709F427C150E1803A950709F47A
:1005C00025C1E0E181329E0709F429C1F0E1813AB9
:1005D0009F0709F427C158E1873E950709F42BC10D
:1005E000E2E488329E0709F42FC1FAE485349F07BC
:1005F00009F430C152E68530950709F428C1EDE8C9
:1006000087309E0709F0ADC063E170E002C060E092
:1006100070E0BB2381F0FB01EE0FFF1FEE0FFF1F09
:10062000EE0FFF1FE20FF31F50E0A091FA00A1931D
:100630005F5F5B17D0F3F2E685309F0709F457C080
:1006400059E08530950709F4AEC0EAE485349E0789
:1006500009F4ACC0FEE081309F0709F4ADC052E45C
:100660008832950709F49CC0EDE887309E0709F4AD
:10067000AFC0FAE088309F0709F4B0C05BE0883073
:10068000950709F4B1C0E8E1873E9E0709F49AC0D6
:10069000F0E180309F0709F4ADC050E18038950744
:1006A00009F4AEC0E0E180329E0709F4B2C0F0E187
:1006B000803A9F0709F4B0C050E18130950709F4F2
:1006C000B4C0E0E181389E0709F4B2C0F0E18132A4
:1006D0009F0709F4B6C050E1813A950709F4AEC00E
:1006E000ECE081309E07E9F581E190E002C080E016
:1006F00090E0EB01CC0FDD1FCC0FDD1FCC0FDD1F19
:10070000C20FD31F7FB7F894509191095F5F509348
:10071000910960919009509190095F5F5093900901
:10072000E0918F095E1789F17FBF70E08896880F8E
:10073000991F880F991F820F931FFC01808191815F
:10074000A281B381FB01EE0FFF1FE60FF71FEE0F33
:10075000FF1FE257FC4F81839283A383B483D68328
:10076000C5838091EF008F7380688093EF00409382
:10077000ED00DF91CF91089561E070E04ACF62E033
:1007800070E047CF64E070E044CF50918F095F5F25
:1007900050938F0950919109515050939109C4CFB2
:1007A00084E090E0A6CF81E090E0A3CF82E090E0EB
:1007B000A0CF63E070E02DCF83E090E09ACF65E0BA
:1007C00070E027CF88E090E094CF69E070E021CF1F
:1007D00085E090E08ECF66E070E01BCF86E090E091
:1007E00088CF67E070E015CF87E090E082CF68E0C7
:1007F00070E00FCF89E090E07CCF6AE070E009CF35
:100800008AE090E076CF6BE070E003CF6CE070E0C0
:1008100000CF8BE090E06DCF8CE090E06ACF6DE090
:1008200070E0F7CE6EE070E0F4CE8DE090E061CF46
:100830008EE090E05ECF6FE070E0EBCE80E190E084
:1008400058CF8FE090E055CF60E170E0E2CE62E1FA
:1008500070E0DFCE61E170E0DCCECF93DF93EB019F
:100860001F9920C06091FA027091FB028091FC02F6
:100870009091FD022AE030E040E050E00E948F2C91
:1008800020936A01988181E080936801E09166017C
:10089000F091670180818F7D808380916901890F4C
:1008A00080936901DF91CF910895CF93DF93EB019E
:1008B0001F9B20C06091FA027091FB028091FC02A4
:1008C0009091FD022AE030E040E050E00E948F2C41
:1008D00020936A01988181E080936801E09166012C
:1008E000F091670180818F7D808380916901890FFC
:1008F00080936901DF91CF910895009711F481E011
:1009000008958130910511F482E0089582309105B7
:1009100011F484E008958330910511F488E008957E
:100920008430910511F480E108958530910511F42A
:1009300080E208958630910511F480E4089541E045
:100940008730910529F480E8489F802D112408956F
:100950008830910511F480E0F7CF8930910511F4CA
:1009600080E008958A309105D9F38B309105C1F369
:100970008C309105A9F38D30910591F38E3091055E
:1009800079F39C012950304040E08F30910541F3CC
:10099000C901D6CF80918202982F9095209193091A
:1009A000922390FF03C091E090936C0183FD03C0FC
:1009B00091E090936C018093930908951F9922C050
:1009C0006091FA027091FB028091FC029091FD020D
:1009D0002AE030E040E050E00E948F2C90916A01C4
:1009E00020936A0181E080936801E0916601F091B3
:1009F000670180818F7D808380916901891B820FCF
:100A00008093690108951F9B22C06091FA02709142
:100A1000FB028091FC029091FD022AE030E040E070
:100A200050E00E948F2C90916A0120936A0181E02E
:100A300080936801E0916601F091670180818F7D6C
:100A4000808380916901891B820F809369010895D9
:100A5000DC01ED91FC91119740A19FB7F894809132
:100A600091098F5F8093910920919009809190095D
:100A70008F5F8093900930918F098317C9F09FBFD2
:100A800030E0C901880F991F820F931F880F991FAB
:100A9000FC01E157FC4FB183A08324EC3BE233839C
:100AA0002283FC01E257FC4F458316827894089517
:100AB00080918F098F5F80938F0980919109815078
:100AC00080939109DCCF9FB7F894809191098F5F53
:100AD0008093910920919009809190098F5F809374
:100AE000900930918F098317C1F09FBF30E0C90191
:100AF000880F991F820F931F880F991FFC01E157E0
:100B0000FC4F1182108224ED35E03383228382571B
:100B10009C4FFC0116821582089580918F098F5F8A
:100B200080938F0980919109815080939109DDCF45
:100B3000FC0183818823E1F4F0990DC0F09A8EB313
:100B400086958695869580FD0DC0F39A838191E008
:100B5000892783830895F0988EB386958695869528
:100B600080FFF3CFF398838191E0892783830895F1
:100B70008EB3869580FD0CC0F19A8EB386958695CE
:100B800080FD0CC0F29A838191E0892783830895C8
:100B9000F1988EB38695869580FFF4CFF298838185
:100BA00091E08927838308955FB7F8944091920973
:100BB000842F90E0FC01EE0FFF1FE80FF91FE65AAB
:100BC000FD4F6181728180918E0290E08F709070F4
:100BD000242F2295207F30E0822B932B90819093BD
:100BE0008D0280938E0270938B0260938C025FBFA4
:100BF0004F5F40939209453009F008951092920991
:100C0000089580916401882319F481E0809306019E
:100C100010926401E1EBF2E005C0399682E0E93F11
:100C2000F80751F19FB7F8948085282F267011F4AA
:100C3000846080879FBF208522FFEFCF8091FA02DA
:100C40009091FB02A091FC02B091FD028854944F58
:100C5000AF4FBF4F868397838A2F81702E7F282BBB
:100C60001182108281E096E0938382831582148240
:100C700022602B7F208708950895DC0180917E02F9
:100C800081FF3BC012968C9112978823B1F1129686
:100C90001C921297E1EBF2E005C0399682E0E93F41
:100CA000F807B9F19FB7F8948085282F267011F4C2
:100CB000846080879FBF808582FFEFCF4091FA02DA
:100CC0005091FB026091FC027091FD0248515C4F13
:100CD0006F4F7F4F46835783962F9170282F2E7F1B
:100CE000292BB183A0838DE396E0938382831582C1
:100CF000148222602B7F2087089586E090E09093F5
:100D0000010180930001809170008D7F80937000BD
:100D1000BECF0895DC0112968C911297882379F446
:100D2000ED91FC9111979081892F8F71843009F496
:100D30003DC0883039F090789061908303C012965E
:100D40001C921297E1EBF2E005C0399682E0E93F90
:100D5000F80759F19FB7F8948085282F267011F471
:100D6000846080879FBF808582FFEFCF4091FA0229
:100D70005091FB026091FC027091FD024053584F6C
:100D80006F4F7F4F46835783962F9170282F2E7F6A
:100D9000292BB183A0838AE896E09383828315820E
:100DA000148222602B7F208708950895991F992728
:100DB000991F909597959927979598609083C2CFA2
:100DC00010928E03E1EBF2E005C0399682E0E93F34
:100DD000F80751F19FB7F8948085282F267011F4F9
:100DE000846080879FBF208522FFEFCF8091FA0229
:100DF0009091FB02A091FC02B091FD02805F984DA2
:100E0000AF4FBF4F868397838A2F81702E7F282B09
:100E10001182108280EE96E0938382831582148281
:100E200022602B7F2087089508951F99089560916F
:100E3000FA027091FB028091FC029091FD022AE07F
:100E400030E040E050E00E948F2C80916A01922FA8
:100E5000981B20936A0181E080936801E09166010C
:100E6000F091670180818062808350916901590F00
:100E700050936901943210F160916B01662351F532
:100E8000550F50936901408140784066446010924C
:100E90006B01852F8459893188F54F7780916D01D9
:100EA000E0916601F0916701481769F180818F7BBD
:100EB000808340936D0110926901089580916B01C8
:100EC0008F5F80936B01833009F0B0CF80818F7B7F
:100ED0008083089540814078406622E030E0261B00
:100EE000310981E090E002C0880F991F2A95E2F74E
:100EF0008F71482B633058F24F7BC9CF5D5A5A31FE
:100F0000C8F44068CBCF46FF13C08081842787FD9B
:100F100013C080916C0110927101882329F0E09137
:100F20006F01F09170011082E0916601F09167010C
:100F30004083BFCF4F7BB2CF80916C01882331F0CB
:100F400010926C01109271014083B3CFE0916F0158
:100F5000F0917001809171018083DBCF1F9B089518
:100F60006091FA027091FB028091FC029091FD0267
:100F70002AE030E040E050E00E948F2C80916A012E
:100F8000922F981B20936A0181E080936801E09181
:100F90006601F091670180818062808350916901D0
:100FA000590F50936901943210F160916B016623DF
:100FB00051F5550F50936901408140784066446077
:100FC00010926B01852F8459893188F54F77809174
:100FD0006D01E0916601F0916701481769F1808128
:100FE0008F7B808340936D011092690108958091F9
:100FF0006B018F5F80936B01833009F0B0CF8081EC
:101000008F7B8083089540814078406622E030E005
:10101000261B310981E090E002C0880F991F2A95B4
:10102000E2F78F71482B633058F24F7BC9CF5D5A7E
:101030005A31C8F44068CBCF46FF13C08081842763
:1010400087FD13C080916C0110927101882329F0F3
:10105000E0916F01F09170011082E0916601F091D2
:1010600067014083BFCF4F7BB2CF80916C01882353
:1010700031F010926C01109271014083B3CFE09176
:101080006F01F0917001809171018083DBCFCF936C
:10109000DF93EB011F9B03C0DF91CF910895609117
:1010A000FA027091FB028091FC029091FD022AE00D
:1010B00030E040E050E00E948F2C20936A0198813C
:1010C00081E080936801E0916601F0916701808181
:1010D0008062808350916901590F50936901943265
:1010E00020F160916B01662379F5550F50936901EA
:1010F000408140784066446010926B01852F84598E
:101100008931B0F54F7780916D01E0916601F091E2
:101110006701481791F180818F7B808340936D0137
:1011200010926901DF91CF91089580916B018F5FDB
:10113000A6E6B1E015968C931597833009F0ACCFF5
:1011400080818F7B8083A8CF40814078406622E0F9
:1011500030E0261B310981E090E002C0880F991F22
:101160002A95E2F78F71482B633030F24F7BC4CF62
:101170005D5A5A31C8F44068C6CF46FF13C080811B
:10118000842787FD13C080916C0110927101882320
:1011900029F0E0916F01F09170011082E0916601F9
:1011A000F09167014083BACF4F7BADCF80916C0146
:1011B000882331F010926C01109271014083AECF00
:1011C000E0916F01F0917001809171018083DBCF1C
:1011D000CF93DF93EB011F9903C0DF91CF91089567
:1011E0006091FA027091FB028091FC029091FD02E5
:1011F0002AE030E040E050E00E948F2C20936A010A
:10120000988181E080936801E0916601F091670127
:1012100080818062808350916901590F50936901E8
:10122000943220F160916B01662379F5550F50934C
:101230006901408140784066446010926B01852FBF
:1012400084598931B0F54F7780916D01E091660145
:10125000F0916701481791F180818F7B80834093E3
:101260006D0110926901DF91CF91089580916B011A
:101270008F5FA6E6B1E015968C931597833009F041
:10128000ACCF80818F7B8083A8CF4081407840663F
:1012900022E030E0261B310981E090E002C0880F97
:1012A000991F2A95E2F78F71482B633030F24F7BFC
:1012B000C4CF5D5A5A31C8F44068C6CF46FF13C048
:1012C0008081842787FD13C080916C011092710189
:1012D000882329F0E0916F01F09170011082E09174
:1012E0006601F09167014083BACF4F7BADCF80910B
:1012F0006C01882331F010926C01109271014083CF
:10130000AECFE0916F01F091700180917101808307
:10131000DBCF1F920F920FB60F9211242F933F93A2
:101320004F935F936F937F938F939F93AF93BF93ED
:10133000EF93FF93E0918C03F0918D0380918A03EA
:1013400090918B030995FF91EF91BF91AF919F9180
:101350008F917F916F915F914F913F912F910F905E
:101360000FBE0F901F9018951F920F920FB60F92FD
:1013700011242F933F934F935F936F937F938F939A
:101380009F93AF93BF93EF93FF93E0918803F09106
:10139000890380918603909187030995FF91EF91CE
:1013A000BF91AF919F918F917F916F915F914F917D
:1013B0003F912F910F900FBE0F901F9018951F9285
:1013C0000F920FB60F9211242F933F934F935F9379
:1013D0006F937F938F939F93AF93BF93EF93FF93FD
:1013E000E0918403F09185038091820390918303BF
:1013F0000995FF91EF91BF91AF919F918F917F914F
:101400006F915F914F913F912F910F900FBE0F9071
:101410001F9018951F920F920FB60F9211242F93C1
:101420003F934F935F936F937F938F939F93AF936C
:10143000BF93EF93FF93E0918003F091810380913C
:101440007E0390917F030995FF91EF91BF91AF913A
:101450009F918F917F916F915F914F913F912F91CC
:101460000F900FBE0F901F9018951F920F920FB6FE
:101470000F9211242F933F934F935F936F937F931A
:101480008F939F93AF93BF93EF93FF93E0917C0370
:10149000F0917D0380917A0390917B030995FF91F0
:1014A000EF91BF91AF919F918F917F916F915F91DC
:1014B0004F913F912F910F900FBE0F901F90189555
:1014C0001F920F920FB60F9211242F933F934F93B9
:1014D0005F936F937F938F939F93AF93BF93EF939C
:1014E000FF93E0917803F0917903809176039091D6
:1014F00077030995FF91EF91BF91AF919F918F91E4
:101500007F916F915F914F913F912F910F900FBEFF
:101510000F901F9018951F920F920FB60F921124E3
:101520002F933F934F935F936F937F938F939F93EB
:10153000AF93BF93EF93FF93E0917403F091750322
:1015400080917203909173030995FF91EF91BF9180
:10155000AF919F918F917F916F915F914F913F914B
:101560002F910F900FBE0F901F9018951F920F9202
:101570000FB60F9211242F933F934F935F936F9366
:101580007F938F939F93AF93BF93EF93FF93E091DC
:101590007003F091710380916E0390916F03099530
:1015A000FF91EF91BF91AF919F918F917F916F913B
:1015B0005F914F913F912F910F900FBE0F901F9011
:1015C00018951F920F920FB60F9211242F933F93ED
:1015D0004F935F936F937F938F939F93AF93BF933B
:1015E000EF93FF93E0916C03F0916D0380916A0398
:1015F00090916B030995FF91EF91BF91AF919F91EE
:101600008F917F916F915F914F913F912F910F90AB
:101610000FBE0F901F9018951F920F920FB60F924A
:1016200011242F933F934F935F936F937F938F93E7
:101630009F93AF93BF93EF93FF93E0916803F09173
:10164000690380916603909167030995FF91EF917B
:10165000BF91AF919F918F917F916F915F914F91CA
:101660003F912F910F900FBE0F901F9018951F92D2
:101670000F920FB60F9211242F933F934F935F93C6
:101680006F937F938F939F93AF93BF93EF93FF934A
:10169000E0916403F091650380916203909163038C
:1016A0000995FF91EF91BF91AF919F918F917F919C
:1016B0006F915F914F913F912F910F900FBE0F90BF
:1016C0001F9018951F920F920FB60F9211242F930F
:1016D0003F934F935F936F937F938F939F93AF93BA
:1016E000BF93EF93FF93E0916003F09161038091CA
:1016F0005E0390915F030995FF91EF91BF91AF91C8
:101700009F918F917F916F915F914F913F912F9119
:101710000F900FBE0F901F9018951F920F920FB64B
:101720000F9211242F933F934F935F936F937F9367
:101730008F939F93AF93BF93EF93FF93E0915C03DD
:10174000F0915D0380915A0390915B030995FF919D
:10175000EF91BF91AF919F918F917F916F915F9129
:101760004F913F912F910F900FBE0F901F901895A2
:101770001F920F920FB60F9211242F933F934F9306
:101780005F936F937F938F939F93AF93BF93EF93E9
:10179000FF93E0915803F091590380915603909183
:1017A00057030995FF91EF91BF91AF919F918F9151
:1017B0007F916F915F914F913F912F910F900FBE4D
:1017C0000F901F9018951F920F920FB60F92112431
:1017D0002F933F934F935F936F937F938F939F9339
:1017E000AF93BF93EF93FF93E0915403F0915503B0
:1017F00080915203909153030995FF91EF91BF910E
:10180000AF919F918F917F916F915F914F913F9198
:101810002F910F900FBE0F901F9018951F920F924F
:101820000FB60F9211242F933F934F935F936F93B3
:101830007F938F939F93AF93BF93EF93FF93E09129
:101840005003F091510380914E0390914F030995FD
:10185000FF91EF91BF91AF919F918F917F916F9188
:101860005F914F913F912F910F900FBE0F901F905E
:1018700018951F920F920FB60F9211242F933F933A
:101880004F935F936F937F938F939F93AF93BF9388
:10189000EF93FF93E0914C03F0914D0380914A0345
:1018A00090914B030995FF91EF91BF91AF919F915B
:1018B0008F917F916F915F914F913F912F910F90F9
:1018C0000FBE0F901F9018951F920F920FB60F9298
:1018D00011242F933F934F935F936F937F938F9335
:1018E0009F93AF93BF93EF93FF93E0914803F091E1
:1018F000490380914603909147030995FF91EF9129
:10190000BF91AF919F918F917F916F915F914F9117
:101910003F912F910F900FBE0F901F9018951F921F
:101920000F920FB60F9211242F933F934F935F9313
:101930006F937F938F939F93AF93BF93EF93FF9397
:10194000E0914403F0914503809142039091430359
:101950000995FF91EF91BF91AF919F918F917F91E9
:101960006F915F914F913F912F910F900FBE0F900C
:101970001F9018951F920F920FB60F9211242F935C
:101980003F934F935F936F937F938F939F93AF9307
:10199000BF93EF93FF93E0914003F0914103809157
:1019A0003E0390913F030995FF91EF91BF91AF9155
:1019B0009F918F917F916F915F914F913F912F9167
:1019C0000F900FBE0F901F9018951F920F920FB699
:1019D0000F9211242F933F934F935F936F937F93B5
:1019E0008F939F93AF93BF93EF93FF93E0913C034B
:1019F000F0913D0380913A0390913B030995FF914B
:101A0000EF91BF91AF919F918F917F916F915F9176
:101A10004F913F912F910F900FBE0F901F901895EF
:101A20001F920F920FB60F9211242F933F934F9353
:101A30005F936F937F938F939F93AF93BF93EF9336
:101A4000FF93E0913803F091390380913603909130
:101A500037030995FF91EF91BF91AF919F918F91BE
:101A60007F916F915F914F913F912F910F900FBE9A
:101A70000F901F9018951F920F920FB60F9211247E
:101A80002F933F934F935F936F937F938F939F9386
:101A9000AF93BF93EF93FF93E0913403F09135033D
:101AA00080913203909133030995FF91EF91BF919B
:101AB000AF919F918F917F916F915F914F913F91E6
:101AC0002F910F900FBE0F901F9018951F920F929D
:101AD0000FB60F9211242F933F934F935F936F9301
:101AE0007F938F939F93AF93BF93EF93FF93E09177
:101AF0003003F091310380912E0390912F030995CB
:101B0000FF91EF91BF91AF919F918F917F916F91D5
:101B10005F914F913F912F910F900FBE0F901F90AB
:101B200018951F920F920FB60F9211242F933F9387
:101B30004F935F936F937F938F939F93AF93BF93D5
:101B4000EF93FF93E0912C03F0912D0380912A03F2
:101B500090912B030995FF91EF91BF91AF919F91C8
:101B60008F917F916F915F914F913F912F910F9046
:101B70000FBE0F901F9018951F920F920FB60F92E5
:101B800011242F933F934F935F936F937F938F9382
:101B90009F93AF93BF93EF93FF93E0912803F0914E
:101BA000290380912603909127030995FF91EF91D6
:101BB000BF91AF919F918F917F916F915F914F9165
:101BC0003F912F910F900FBE0F901F9018951F926D
:101BD0000F920FB60F9211242F933F934F935F9361
:101BE0006F937F938F939F93AF93BF93EF93FF93E5
:101BF000E0912403F0912503809122039091230327
:101C00000995FF91EF91BF91AF919F918F917F9136
:101C10006F915F914F913F912F910F900FBE0F9059
:101C20001F9018951F920F920FB60F9211242F93A9
:101C30003F934F935F936F937F938F939F93AF9354
:101C4000BF93EF93FF93E0912003F09121038091E4
:101C50001E0390911F030995FF91EF91BF91AF91E2
:101C60009F918F917F916F915F914F913F912F91B4
:101C70000F900FBE0F901F9018951F920F920FB6E6
:101C80000F9211242F933F934F935F936F937F9302
:101C90008F939F93AF93BF93EF93FF93E0911C03B8
:101CA000F0911D0380911A0390911B030995FF91F8
:101CB000EF91BF91AF919F918F917F916F915F91C4
:101CC0004F913F912F910F900FBE0F901F9018953D
:101CD0001F920F920FB60F9211242F933F934F93A1
:101CE0005F936F937F938F939F93AF93BF93EF9384
:101CF000FF93E0911803F0911903809116039091DE
:101D000017030995FF91EF91BF91AF919F918F912B
:101D10007F916F915F914F913F912F910F900FBEE7
:101D20000F901F9018951F920F920FB60F921124CB
:101D30002F933F934F935F936F937F938F939F93D3
:101D4000AF93BF93EF93FF93E0911403F0911503CA
:101D500080911203909113030995FF91EF91BF9128
:101D6000AF919F918F917F916F915F914F913F9133
:101D70002F910F900FBE0F901F9018951F920F92EA
:101D80000FB60F9211242F933F934F935F936F934E
:101D90007F938F939F93AF93BF93EF93FF93E091C4
:101DA0001003F091110380910E0390910F03099598
:101DB000FF91EF91BF91AF919F918F917F916F9123
:101DC0005F914F913F912F910F900FBE0F901F90F9
:101DD00018951F920F920FB60F9211242F933F93D5
:101DE0004F935F936F937F938F939F93AF93BF9323
:101DF000EF93FF93E0910C03F0910D0380910A03A0
:101E000090910B030995FF91EF91BF91AF919F9135
:101E10008F917F916F915F914F913F912F910F9093
:101E20000FBE0F901F9018951F920F920FB60F9232
:101E300011242F933F934F935F936F937F938F93CF
:101E40009F93AF93BF93EF93FF93E0910803F091BB
:101E5000090380910603909107030995FF91EF9183
:101E6000BF91AF919F918F917F916F915F914F91B2
:101E70003F912F910F900FBE0F901F9018951F92BA
:101E80000F920FB60F9211242F933F934F935F93AE
:101E90006F937F938F939F93AF93BF93EF93FF9332
:101EA000E0910403F09105038091020390910303F4
:101EB0000995FF91EF91BF91AF919F918F917F9184
:101EC0006F915F914F913F912F910F900FBE0F90A7
:101ED0001F9018951F920F920FB60F9211242F93F7
:101EE0003F934F935F936F937F938F939F93AF93A2
:101EF000BF93EF93FF93E0910003F0910103809172
:101F0000FE029091FF020995FF91EF91BF91AF9171
:101F10009F918F917F916F915F914F913F912F9101
:101F20000F900FBE0F901F901895FC01A781B085F0
:101F30008FB7F8944D915C918FBFA185B2858FB713
:101F4000F8942D913C918FBFA385B4856FB7F89419
:101F50008D919C9111976FBF50834183328313827F
:101F6000268B978B808F118E08958F929F92AF92C0
:101F7000BF92CF92DF92EF92FF920F931F93CF9376
:101F8000DF9300D000D000D0CDB7DEB77C01FC01DC
:101F90002081213009F447C0293009F444C0022FC0
:101FA00010E0000F111F000F111F005E1F4FC8012E
:101FB00064812E830E940F2E48010894811C911C7D
:101FC000C401F70163810E940F2E72E0A72EB12C8D
:101FD000A00EB11EC501F70162810E940F2EA3E081
:101FE000CA2ED12CC00ED11EC601F70161810E94FC
:101FF0000F2E2E812983C6010E94012E8A83C501DE
:102000000E94012E8B83C4010E94012E8C83C80183
:102010000E94012E8D831F9906C08091DC00909153
:10202000DD0084FF13C026960FB6F894DEBF0FBE06
:10203000CDBFDF91CF911F910F91FF90EF90DF9077
:10204000CF90BF90AF909F908F90089580E4809341
:10205000ED0080E090E0A0E6B2E68093F00090937F
:10206000F100A093F200B093F30089818093FA000D
:102070008A818093FA008B818093FA008C8180930F
:10208000FA008D818093FA0085E48093EF00CBCF36
:10209000CB010E94B50F08950F931F93CF93DF9349
:1020A00000D000D00F92CDB7DEB71F992AC0FC0137
:1020B0008081813031F1893021F1082F10E0000F4B
:1020C000111F000F111F005E1F4F8983C801039667
:1020D0000E94012E8A83C80102960E94012E8B83E2
:1020E000C80101960E94012E8C83C8010E94012E16
:1020F0008D831F9906C08091DC009091DD0084FFE4
:102100000AC00F900F900F900F900F90DF91CF911A
:102110001F910F91089580E48093ED0080E090E09E
:10212000A0E6B2E68093F0009093F100A093F20055
:10213000B093F30089818093FA008A818093FA003A
:102140008B818093FA008C818093FA008D8180933B
:10215000FA0085E48093EF00D4CFCB010E944C10AD
:102160000895CF93DF9300D000D00F92CDB7DEB7A4
:1021700020910A0230910B02243051F0203141F0BD
:102180000F900F900F900F900F90DF91CF910895C7
:10219000353099F1363009F4CDC03D3009F480C0B6
:1021A0003E3009F457C0333059F7203149F780EDFC
:1021B000898399B181E094FF80E08795882787958E
:1021C00090917002892B8A838091C8008B838091C3
:1021D000C9008C838091CA008D831F9BD2C08091DF
:1021E000DC009091DD0084FDCBCF80E48093ED0096
:1021F00080E090E0A0E8B6EC78C082E091E0FC01DD
:10220000549139964491DE011196FD0111923A954F
:10221000E9F70396FC0184918A83852F90E0841B63
:102220009109541B592B5D83243009F480C020315F
:1022300009F0A6CF1F9997C08091DC009091DD0036
:1022400084FD9ECF80E48093ED0080E090E0A0E6E6
:10225000B6EC4BC01F9B94CF80ED898387E790E05D
:102260000E94012E8A8386E790E00E94012E8B83D4
:1022700085E790E00E94012E8C8384E790E00E9425
:10228000012E8D838091DC009091DD0084FD78CF5C
:1022900080E48093ED0080E090E0A0E0BAE925C002
:1022A0001F996ECF80ED898387E790E00E94012E11
:1022B0008A8386E790E00E94012E8B8385E790E079
:1022C0000E94012E8C8384E790E00E94012E8D8372
:1022D0008091DC009091DD0084FD52CF80E48093FA
:1022E000ED0080E090E0A0E0B8E98093F0009093EA
:1022F000F100A093F200B093F30089818093FA007B
:102300008A818093FA008B818093FA008C8180937C
:10231000FA008D818093FA0085E48093EF000F909E
:102320000F900F900F900F90DF91CF9108951F990C
:10233000A9CFCECF84E790E060910F020E940F2ECC
:1023400085E790E060910E020E940F2E86E790E0F4
:1023500060910D020E940F2E87E790E060910C02C1
:102360000E940F2E0DCF8091DC009091DD0084FD46
:1023700007CF80E48093ED0080E090E0A0E8B6EC29
:10238000B4CF8091DC009091DD0084FDF9CE80E433
:102390008093ED0080E090E0A0E6B6ECA6CFCB0104
:1023A0000E94B11008958091A20186FF09C08F7329
:1023B000853209F44FC0863220F4813209F48EC090
:1023C0000895873209F4CEC08932D1F72FB7F89437
:1023D0003FB7F89480918D0290918E029160909316
:1023E0008E0280938D023FBF2FBFE1EBF2E006C06B
:1023F000399682E0E93FF80709F4F8C09FB7F894EE
:102400008085282F267011F4846080879FBF2085E7
:1024100022FFEECF8091FA029091FB02A091FC0284
:10242000B091FD0288519C4FAF4FBF4F8683978379
:102430008A2F81702E7F282B1182108283E591E0F4
:102440009383828388E090E09583848322602B7F4E
:10245000208708952FB7F8943FB7F89480918D02A4
:1024600090918E02946090938E0280938D023FBF74
:102470002FBFE1EBF2E006C0399682E0E93FF807B2
:1024800009F4B6C09FB7F8948085282F267011F400
:10249000846080879FBF208522FFEECF8091FA0263
:1024A0009091FB02A091FC02B091FD0288519C4FDB
:1024B000AF4FBF4F868397838A2F81702E7F282B43
:1024C0001182108283E591E0938382838AE090E019
:1024D0009583848322602B7F208708952FB7F894FB
:1024E0003FB7F89480918D0290918E029260909304
:1024F0008E0280938D023FBF2FBFE1EBF2E006C05A
:10250000399682E0E93FF80709F471C09FB7F89463
:102510008085282F267011F4846080879FBF2085D6
:1025200022FFEECF8091FA029091FB02A091FC0273
:10253000B091FD0288519C4FAF4FBF4F8683978368
:102540008A2F81702E7F282B1182108283E591E0E3
:102550009383828389E090E09583848322602B7F3C
:10256000208708952FB7F8943FB7F89480918D0293
:1025700090918E02986090938E0280938D023FBF5F
:102580002FBFE1EBF2E006C0399682E0E93FF807A1
:1025900009F416CF9FB7F8948085282F267011F480
:1025A000846080879FBF208522FFEECF8091FA0252
:1025B0009091FB02A091FC02B091FD0288519C4FCA
:1025C000AF4FBF4F868397838A2F81702E7F282B32
:1025D0001182108283E591E0938382838BE090E007
:1025E0009583848322602B7F208708950895089522
:1025F0000895CB010E94D31108951F93CF93DF93C9
:10260000EB010E94012E182FCE010E94012E87FDA2
:1026100015C08F77412F50E09A01220F331F440FCE
:10262000551F440F551F440F551F240F351F280FEA
:10263000311DC901DF91CF911F910895412F50E0C5
:102640009A01220F331F440F551F440F551F440F8B
:10265000551F240F351F8F77281B3109C901DF91C2
:10266000CF911F9108958091F20185FD8AC08474F5
:10267000843409F086C040E050E060E070E04091B2
:10268000F5015091F6018091F701682F87FD7FEFEA
:1026900080916501882319F581E08093650140935D
:1026A000020150930301609304017093050190911E
:1026B00027019923A1F4E0E0F1E087A316BCA99AD1
:1026C00080916E00826080936E001092850010925F
:1026D0008400B19A80916F00826080936F0081E0E6
:1026E00080936401E0912201F0E0EE0FFF1FE05FB4
:1026F000FE4F0190F081E02D22853385832F881FC6
:102700008827881F90E0220F331F822B932B8F3F47
:102710009105B9F1B0F18091020190910301A0916E
:102720000401B0910501481B590B6A0B7B0B9A0100
:1027300057FD2CC0E1E0253F3E0724F510920B0128
:1027400021E0473E3FEF53073FEF63073FEF73073B
:102750000CF420E0209306014A3151056105710512
:1027600084F07595679557954795480F591F6A1FCF
:102770007B1F409302015093030160930401709307
:102780000501089581E080930B010895309521950E
:102790003F4FD0CFCB010E9433130895FF920F9388
:1027A0001F93CF93DF9300D000D000D0CDB7DEB71A
:1027B0008C01FC01828180935A02818180935B02AB
:1027C0002381822F90E0807C9070959587959595D8
:1027D000879590819F74982B90935C02822F8F70C5
:1027E00090915E02892B80935E02848180935F02C8
:1027F0002581822F90E0F0909202F0E8FF22207273
:10280000F22AFC01EF70F070E65DFE4F2081F22AA3
:10281000807C9070009709F041C0F0929202F8011C
:10282000908181E095FD80E080930C0181E08093B0
:102830000D01F801868181FF03C0878186FD22C0DA
:102840008091FA029091FB02A091FC02B091FD02EE
:102850008137F7E19F07F0E0AF07F0E0BF0790F0A6
:1028600080912701882371F0F89428E088E190E0B6
:102870000FB6F894A895809360000FBE2093600077
:102880000000FECF26960FB6F894DEBF0FBECDBF78
:10289000DF91CF911F910F91FF90089520E8F22AC8
:1028A0001A82198283E591E0682F9C838B838FE0E5
:1028B00090E09E838D8340E05A817C819E8128EE4A
:1028C00033E00E941D02A9CF1F990895CB010E94F9
:1028D000CE1308951F9B0895CB010E94CE13089537
:1028E0000F931F93CF93DF930091890210918A0277
:1028F000812F912F17FF03C021E020936B0296FDDB
:102900003DC095FD3BC0E0911001F0911101808127
:1029100091819093960280939502E0911201F0913B
:10292000130180819181909394028093930280910E
:102930006501882309F43EC1809127018823A1F411
:1029400081E08093270116BCA99A80916E00826075
:1029500080936E001092850010928400B19A80914D
:102960006F00826080936F00FEE00E3F1F0709F446
:1029700081C0DF91CF911F910F9108959091270110
:10298000992361F01092270190916E009D7F9093A2
:102990006E0090916F009D7F90936F0086FF3BC00B
:1029A00065E071E0FB01949131962491592F40E04C
:1029B00030E0242B352B30939A0220939902FB01AF
:1029C00032969491FB0133962491592F40E030E0E8
:1029D000242B352B3093980220939702FB013496D9
:1029E000A591B4914B2F50E03A2F20E0242B352BAA
:1029F00030939602209395026A5F7F4FFB016591A9
:102A00007491272F30E0562F40E0242B352B309344
:102A100094022093930285FFA7CFE801D070CC0FDA
:102A2000DD1FCC0FDD1FCC0FDD1FCE010E94092E54
:102A30009093990280939A02CE0102960E94092EE9
:102A400090939702E7E9F2E08183CE0104960E9419
:102A5000092E9093950280939602CE0106960E94CD
:102A6000092E9093930280939402FEE00E3F1F077D
:102A700009F07FCF80912701882309F0ADC08AE15A
:102A800090E00E94D22CDC0123982B9A229A219A62
:102A9000209A8CB580658CBD8CB59DB58C7F9E7F52
:102AA00081609DBD8CBD14961C92149743E052E04A
:102AB00020E63AEE7CEA63E5249A2C98852F8A95E5
:102AC000F1F72C9A852F8A95F1F72C98C901019777
:102AD000F1F77EBD0DB407FEFDCF6EBD0DB407FE50
:102AE000FDCF1EBC0DB407FEFDCF8EB51EBC0DB4D0
:102AF00007FEFDCF833509F47CC04150E9F61496FA
:102B00004C91149789E892E016969C938E931597B2
:102B10009C012250304018963C932E9317979C01AD
:102B2000245030401A963C932E9319979C012650BE
:102B300030401C963C932E931B979C01205F3F4F87
:102B40001E963C932E931D979C01225F3F4F5096FB
:102B50003C932E931F979C01245F3F4F52963C93CA
:102B60002E9351970A9654969C938E935397442391
:102B700009F078C020E2822F90918A022FB7F89452
:102B800090939A02809399022FBFEAE9F1E0E491D1
:102B9000F0E0EE0FFF1FEE0FFF1FEB58FD4FB0A749
:102BA000A7A386E89CE192A781A7DF91CF911F910F
:102BB0000F9108958091FA029091FB02A091FC027E
:102BC000B091FD02893B2BE0920720E0A20720E0B4
:102BD000B20708F4C9CEB0CE1092270180916E00E2
:102BE0008D7F80936E0080916F008D7F80936F004A
:102BF00046CF81E014968C93149789E892E016965C
:102C00009C938E9315979C012250304018963C93CC
:102C10002E9317979C01245030401A963C932E9384
:102C200019979C01265030401C963C932E931B977D
:102C30009C01205F3F4F1E963C932E931D979C0155
:102C4000225F3F4F50963C932E931F979C01245F29
:102C50003F4F52963C932E9351970A9654969C93CD
:102C60008E93539720E087CF0E9470140895CF93DE
:102C7000DF93CDB7DEB761970FB6F894DEBF0FBE16
:102C8000CDBF8AE991E0FC012491E22FF0E0EE0F44
:102C9000FF1FEE0FFF1FEB58FD4F10A617A224E3F6
:102CA00036E132A721A7FC013497E491F0E0EE0F62
:102CB000FF1FEE0FFF1FEB58FD4F10A617A22AECC7
:102CC00034E032A721A7FC013597E491F0E0EE0F44
:102CD000FF1FEE0FFF1FEB58FD4F10A617A223E6B4
:102CE00035E032A721A70797FC018491E82FF0E097
:102CF000EE0FFF1FEE0FFF1FEB58FD4F80E691E038
:102D000090A787A386EA90E292A781A71092130268
:102D10001092120288E490E19093150280931402BD
:102D200010921702109216029093190280931802C3
:102D300010921B0210921A0290931D0280931C02A3
:102D400010921F0210921E028DEA90E190932102D0
:102D50008093200210922302109222028AEC93E1C7
:102D6000909325028093240210922702109226024B
:102D70008FEC91E1909329028093280210922B020C
:102D800010922A0284E694E190932D0280932C0203
:102D900010922F0210922E028AE694E19093310253
:102DA0008093300210923302109232028DE691E04D
:102DB000909335028093340210925702109256027B
:102DC00089EF92E190935902809358021092370252
:102DD0001092360285E197E0909339028093380291
:102DE000109247021092460287E498E090934902BD
:102DF0008093480210923B0210923A028EED94E0CA
:102E000090933D0280933C0210924B0210924A0232
:102E10008DE294E090934D0280934C0210923F0219
:102E200010923E028EEA97E0909341028093400216
:102E300010924F0210924E0288EE98E09093510249
:102E400080935002109243021092420283E095E078
:102E500090934502809344021092530210925202C2
:102E600085E594E09093550280935402789482E033
:102E700091E0FC01349139962491FE01319645E0B0
:102E8000DF011D924A95E9F70396FC0184918A833C
:102E9000832F90E0821B9109321B392B3D831F99B0
:102EA00010C18091DC009091DD0084FD21C080E4A0
:102EB0008093ED0080E090E0A0E0B8E98093F0001E
:102EC0009093F100A093F200B093F3008981809376
:102ED000FA008A818093FA008B818093FA008C81BA
:102EE0008093FA008D818093FA0085E48093EF004F
:102EF00080E395E70197F1F78091DC009091DD0088
:102F000084FD21C080E48093ED0080E090E0A0E6A5
:102F1000B6EC8093F0009093F100A093F200B09390
:102F2000F30089818093FA008A818093FA008B8173
:102F30008093FA008C818093FA008D818093FA004F
:102F400085E48093EF001D861C8680EE96E0682F56
:102F50009F878E87198A188A40E05D857F8580E08B
:102F6000998920E137E20E941D021F821E8281E0C2
:102F700096E0682F998788871B861A8640E05F81D4
:102F8000798580E09B8528EB3BE00E941D0283B1A0
:102F900021E030E085FD02C020E030E0809194091E
:102FA00090E0822B932B80939409009789F083B152
:102FB00085FD0EC0F89428E088E190E00FB6F89403
:102FC000A895809360000FBE209360000000FECFA4
:102FD0003FB7F89490918F0980919009981709F460
:102FE00069C080918F0990E0DC01AA0FBB1FA80F78
:102FF000B91FAA0FBB1FA157BC4F8D919C91119770
:103000001296ED91FC91139714966C911497159666
:103010007C91159720918F092F5F20938F09209124
:1030200091092150209391093FBF3091910920913E
:103030008E03231720F42091910920938E0330975B
:1030400009F00995A89501EB12E006C0075F1F4F34
:10305000F2E0093F1F0761F1D80118968C9118978B
:1030600081FFF4CF81709091FC029170891771F704
:1030700016962D913C9117978091FA029091FB0240
:103080002817390718F714966D917C9115971296A9
:10309000ED91FC9113978D919C910995F801808594
:1030A0008D7F8087075F1F4FF2E0093F1F07A1F662
:1030B000A8956DCF60E070E0E1E5F1E080E090E0A0
:1030C000B3CF8091DC009091DD0084FD21C080E4CD
:1030D0008093ED0080E090E0A0E0BAE98093F000FA
:1030E0009093F100A093F200B093F3008981809354
:1030F000FA008A818093FA008B818093FA008C8198
:103100008093FA008D818093FA0085E48093EF002C
:1031100080E395E70197F1F78091DC009091DD0065
:1031200084FD11CF80E48093ED0080E090E0A0E882
:10313000EFCEBF92CF92DF92EF92FF920F931F9349
:10314000CF93DF93EC01062FB72E488159816A8116
:103150007B81DB01CA018F779070A070B0700097FF
:10316000A105B105F9F441505040604070406A013A
:103170007B01A9E0F694E794D794C794AA95D1F778
:10318000769567955795479540788CE46C2D20E0AF
:103190000E94DB018CEB94E30197F1F748815981A0
:1031A0006A817B81842F8170880F880F880F6A0164
:1031B0007B01F694E794D794C794806460E04C2D2B
:1031C000202F0E94DB01088119812A813B81B901EE
:1031D000A8014F5F5F4F6F4F7F4F488359836A83CA
:1031E0007B83DB01CA018F779070A070B07000976D
:1031F000A105B105E9F46801790149E0F694E79485
:10320000D794C7944A95D1F7B901A80176956795E7
:103210005795479540788CE46C2D20E00E94DB01A7
:103220008CEB94E30197F1F7488159816A817B81A6
:10323000842F8170880F880F880F8A019B01369533
:10324000279517950795806460E0402F2B2D0E94ED
:10325000DB0188819981AA81BB810196A11DB11DE5
:1032600088839983AA83BB83DF91CF911F910F91AC
:10327000FF90EF90DF90CF90BF900895FF920F9353
:103280001F93CF93DF93EC01062FF72E48815981CE
:103290006A817B81DB01CA0187709070A070B07079
:1032A0000097A105B105A9F4DB01CA010197A109A5
:1032B000B1099F704150487F82EC692F20E00E9445
:1032C000DB0188E799E60197F1F7488159816A8126
:1032D0007B81477081EC60E0202F0E94DB018881B8
:1032E0009981AA81BB818C019D010F5F1F4F2F4FD8
:1032F0003F4F088319832A833B83B901A801477094
:10330000507060707070411551056105710589F448
:10331000692F6F70402F4150487F82EC20E00E945F
:10332000DB0188E799E60197F1F7088119812A8185
:103330003B81402F477081EC60E02F2D0E94DB0124
:1033400088819981AA81BB810196A11DB11D8883C5
:103350009983AA83BB83DF91CF911F910F91FF9037
:103360000895FF920F931F93CF93DF93EC01088191
:1033700019812A813B81802F8170880F880F880FE7
:10338000B901A801E9E07695679557954795EA95C3
:10339000D1F736952795179507958062642F402FB2
:1033A00020E00E94DB01F82E088119812A813B81EF
:1033B0000F5F1F4F2F4F3F4F088319832A833B8393
:1033C000802F8170880F880F880FB901A801A9E0AC
:1033D0007695679557954795AA95D1F73695279590
:1033E000179507958062642F402F20E00E94DB0133
:1033F000982F488159816A817B814F5F5F4F6F4F62
:103400007F4F488359836A837B838F2DDF91CF91D0
:103410001F910F91FF900895FF920F931F93CF93E9
:10342000DF93EC0148816981677080EA20E00E94A7
:10343000DB01F82E088119812A813B810F5F1F4F24
:103440002F4F3F4F088319832A833B83612F677077
:1034500080EA402F20E00E94DB01982F48815981AB
:103460006A817B814F5F5F4F6F4F7F4F48835983E6
:103470006A837B838F2DDF91CF911F910F91FF90F6
:103480000895FF920F931F93CF93DF938C01DC017C
:103490001596ED91FC91169780812181813209F476
:1034A000A8C0823208F067C0813109F4A2C082311D
:1034B00008F0F4C0833009F415C1843009F4D4C095
:1034C000882309F07BC0E8018D89813209F465C148
:1034D000823208F021C1813109F4F5C1823109F04D
:1034E0006DC0EF81F8858FB7F894208131818FBF4F
:1034F000C801632F722F0E949918E801E985FA85A7
:103500008FB7F894208131818FBFC801632F722F4C
:103510000E949918EB85FC858FB7F8942081318142
:103520008FBFC801632F722F0E94991888819981DB
:10353000AA81BB814E895F89688D798D8417950733
:10354000A607B70708F0A2C1AD85BE85ED81FE8153
:1035500082E091812FB7F89411969C938E932FBFA0
:10356000D8011D96ED91FC911E9715960D90BC917A
:10357000A02D80E01BC0813339F1823308F094C064
:10358000833209F4AFC0833208F03EC082E2F80112
:10359000858BC8010E94950FD8011D96ED91FC9175
:1035A0001E9715960D90BC91A02D82E011969C91CE
:1035B00011972FB7F894918380832FBFDF91CF911C
:1035C0001F910F91FF900895D80155968C935597B0
:1035D0001D96ED91FC911E9781E0922F2FB7F894E4
:1035E000918380832FBFDF91CF911F910F91FF9027
:1035F0000895E8018D8BC8010E94950FED85FE8529
:10360000AD81BE8181E0D2CF8432C1F6E80168810C
:1036100079818A819B810E94ED01F80180819181ED
:10362000A281B3810197A109B1099C01AD0169E0B3
:1036300056954795379527956A95D1F7B695A795ED
:1036400097958795982F90788CE4622F492F20E0EA
:103650000E94DB018CEB94E30197F1F7D8011596FA
:10366000ED91FC9116972181E801ED85FE8584E0BE
:10367000922F2FB7F894918380832FBF24982C9A90
:10368000F89428E088E190E00FB6F894A89580932C
:1036900060000FBE209360000000FECF833111F167
:1036A000833170F482E173CF8333E1F0833388F4A4
:1036B00082E3F801858B0584F685E02D82E08DCFCD
:1036C000843109F4AACFDF91CF911F910F91FF9020
:1036D0000895843309F4C8CFDF91CF911F910F91E2
:1036E000FF900895E801ED85FE8583E0922F2FB7C6
:1036F000F894918380832FBF8CEA60E840E020E05B
:103700000E94DB0188E799E60197F1F7ED85FE85D8
:10371000AD81BE8180E04ACF813309F487C0823316
:1037200009F480C0823209F049CFE801EF81F885C1
:103730008FB7F894208131818FBFC801632F722F1A
:103740000E943E19E985FA858FB7F894208131816E
:103750008FBFC801632F722F0E943E19EB85FC8535
:103760008FB7F894208131818FBFC801632F722FEA
:103770000E943E19688179818A819B812E893F89C7
:10378000488D598D621773078407950708F047C065
:10379000AD85BE85ED81FE81DBCE0F84D889C02D3D
:1037A000C8010E940C1A292F382F8FB7F89439833B
:1037B00028838FBFD8015196CD91DC915297C801D3
:1037C0000E940C1A292F382F8FB7F8943983288339
:1037D0008FBFF801C389D489C8010E940C1A292F10
:1037E000382F8FB7F894398328838FBFD8014D9134
:1037F0005D916D917C91139756968D919D910D9051
:10380000BC91A02D84179507A607B70708F4A8CE8A
:10381000E801ED85FE85AD81BE8181E0C7CE0E94C5
:10382000ED019ECEED85FE8580E0D7CE0F84D88950
:10383000C02D88E568E040E020E00E94DB01F82E22
:1038400080E560E040E020E00E94DB012F2D382F72
:103850008FB7F894398328838FBFD8015196CD91C3
:10386000DC91529780E568E040E020E00E94DB01B7
:1038700020E0382F8FB7F894398328838FBFE80171
:10388000ED85FE85AD81BE8180E090CE0197A109D6
:10389000B1099C01AD0169E056954795379527958B
:1038A0006A95D1F7B695A79597958795982F9078B3
:1038B0008CE4622F492F20E00E94DB018CEB94E323
:1038C0000197F1F74DCE0F84D889C02DC8010E9411
:1038D000B119292F382F8FB7F894398328838FBFD8
:1038E000D8015196CD91DC915297C8010E94B1192F
:1038F000292F382F8FB7F894398328838FBFF80189
:10390000C389D489C8010E94B11969CF0E94411AA4
:103910000895AC01FC01E056FF4F88519F4F21E50F
:1039200031E011821082338322833496E817F9073D
:10393000C1F78091D80081608093D800E2EEF0E07A
:103940008091E20081788A608093E2008091E300B8
:103950008E6081838091E40081788B648283809182
:10396000ED008F708093ED0088E08093EF0085E09C
:1039700090E0A0EEBFEF8093F4009093F500A09349
:10398000F600B093F7008091ED008F708061809316
:10399000ED0088E08093EF0085E08093F400909341
:1039A000F500A093F600B093F7008091ED008F70C2
:1039B00080628093ED0087E08093EF0080E0B3E6C3
:1039C0008093F0009093F100A093F200B093F30085
:1039D00085E0BFEF8093F4009093F500A093F6008C
:1039E000B093F7008091ED008F7080638093ED00BD
:1039F00088E08093EF0080E0A0ECB3E68093F000D5
:103A00009093F100A093F200B093F30085E0A0EE54
:103A1000BFEF8093F4009093F500A093F600B0936D
:103A2000F7008091ED008F7080648093ED0088E056
:103A30008093EF0085E08093F4009093F500A093CD
:103A4000F600B093F7008091ED008F708065809351
:103A5000ED0088EC8093EF0080E0A0E0B9E0809377
:103A6000F0009093F100A093F200B093F30085E092
:103A7000A0EEBFEF8093F4009093F500A093F600C2
:103A8000B093F7008091ED008F7080668093ED0019
:103A900088E88093EF0080E0A0E0BAE08093F00037
:103AA0009093F100A093F200B093F30085E0A0EAB8
:103AB000BFEF8093F4009093F500A093F600B093CD
:103AC000F7008091ED008F7080678093ED0088E8AB
:103AD0008093EF0080E0A0E0BBE08093F000909343
:103AE000F100A093F200B093F30085E0A0EABFEFED
:103AF0008093F4009093F500A093F600B093F70044
:103B00008091ED008F7080688093ED0088E880934D
:103B1000EF0080E0A0E0BEE08093F0009093F10021
:103B2000A093F200B093F30085E0A0EEBDEF809388
:103B3000F4009093F500A093F600B093F700809105
:103B4000ED008F7080698093ED0088E88093EF002E
:103B500080E0A0E0B0E18093F0009093F100A093AA
:103B6000F200B093F30085E0A0E6BFEF8093F4008D
:103B70009093F500A093F600B093F7008091ED00CC
:103B80008F70806A8093ED0088E88093EF0080E07A
:103B9000A0E2B0E18093F0009093F100A093F200D6
:103BA000B093F30085E0A0E6BFEF8093F40090931C
:103BB000F500A093F600B093F7008091ED008F70B0
:103BC000806B8093ED0088EC8093EF0080E0A0EEA6
:103BD000B8E18093F0009093F100A093F200B093CD
:103BE000F30085E0BFEF8093F4009093F500A0937D
:103BF000F600B093F7008091ED008F70806C809399
:103C0000ED0088EC8093EF0080E0A0E2B2E48093C6
:103C1000F0009093F100A093F200B093F30085E0E0
:103C2000A0EEBFEF8093F4009093F500A093F60010
:103C3000B093F7008091ED008F70806D8093ED0060
:103C400088E88093EF0080E0A0E4BAE48093F0007D
:103C50009093F100A093F200B093F30085E0A0EA06
:103C6000B7ED8093F4009093F500A093F600B09325
:103C7000F7008091ED008F70806E8093ED0088ECEE
:103C80008093EF0080E0A0E0BDE88093F000909387
:103C9000F100A093F200B093F30085E0A0EEBFEF37
:103CA0008093F4009093F500A093F600B093F70092
:103CB00080EE9FE79093DF008093DE008091DB0031
:103CC000806A8093DB00509347034093460383E769
:103CD00092E090934903809348038091D8008260DA
:103CE0008093D8008091D90082FFFCCF08954F9235
:103CF0005F926F927F928F929F92AF92BF92CF927C
:103D0000DF92EF92FF920F931F93CF93DF93CDB784
:103D1000DEB73C012B01FC017183608312821382A8
:103D20001482158281E08683F086E782D286C1867E
:103D300013861486158685E987BD84B580788A60E8
:103D400084BD70924F0360924E0388E295E0909399
:103D500051038093500383EE97E5909389008093FD
:103D6000880080918100887F8460809381008091A9
:103D70008000909181008C7F977E98609093810065
:103D8000809380008F738093800070925F036092B5
:103D90005E0383EE99E29093610380936003558BF9
:103DA000448B378B268B118F008F128E138E148EBF
:103DB000158E8AE0868F178E11A210A212A213A26E
:103DC00014A215A216A217A210A611A689E090E0CF
:103DD0000E94012EE82ECC24C394C822F3B082E2C4
:103DE00090E00E94D22C8C01FC01B182A082B5012E
:103DF00080E090E02FE334E243E050E00E945C2C4E
:103E000028E630E140E050E00E948F2CF801228348
:103E1000338344835583C682178210868F2D809505
:103E2000881F8827881F8187138612861586148627
:103E300017861686118A108A138A128A148A158A9E
:103E4000178A168A118E108E128E91E0C11090E0A2
:103E50009170892F880F892BF801838F148E81E050
:103E6000858F3C9A3D9AF301118B008BFE2CF694C2
:103E7000F822E3B082E290E00E94D22C8C01FC0197
:103E800091828082B40180E090E02FE334E243E04D
:103E900050E00E945C2C28E630E140E050E00E94B7
:103EA0008F2CF8012283338344835583F682178253
:103EB00010868E2D881F8827881F8187138612867B
:103EC0001586148617861686118A108A138A128A16
:103ED000148A158A178A168A118E108E128E91E016
:103EE000F11090E09170892F880F892BF801838F52
:103EF000148E81E0858F3C9A3D9AF301138B028BDF
:103F0000F201B09611823C9A3D9ADF91CF911F91B8
:103F10000F91FF90EF90DF90CF90BF90AF909F9068
:103F20008F907F906F905F904F9008953F924F9247
:103F30005F926F927F928F929F92AF92BF92CF9239
:103F4000DF92EF92FF920F931F93CF93DF93CDB742
:103F5000DEB72B970FB6F894DEBF0FBECDBFFB01C7
:103F6000C080D180E280F380C701B6012CE030E050
:103F700040E050E00E945C2C6D837E838F839887A5
:103F800086E090E00E947D04880F880F8150482EC3
:103F9000552466247724DC82CB8281E090E09B87E5
:103FA0008A872EC0682D592D4A2D7B2D862E952E61
:103FB000A42EB72E281739070CF0032D302E281702
:103FC00039070CF465C099818A8199838A832A858F
:103FD0003B852034310508F458C084E090E02A8500
:103FE0003B85289F7001299FF00C389FF00C11240D
:103FF000FB86EA86A70184E04130580708F053C0E9
:104000002A853B856901EE24FF246D817E818F81A5
:104010009885A70196010E948F2C89019A01015071
:10402000104020403040401651066206730610F4DE
:1040300093018201602F70E06F5F7F4F882777FDCB
:104040008095982FA70196010E945C2C2CE030E00F
:1040500040E050E00E948F2C69017A01C4014B813D
:104060005C81841B950B97FD1AC09601EB81FC8146
:104070002E1B3F0B37FD0FC0281739070CF092CFCE
:104080006C2D5D2D4E2D7F2D91CF88E090E0A7CF38
:104090009A858B859ACF309521953F4FEDCF90959E
:1040A00081959F4FE2CF0093B300E981FA81E0341C
:1040B000F10509F448C0E134F10598F129813A810C
:1040C00041E020303407C9F154E02030350791F148
:1040D000998597708091B000807B892B88608F7C58
:1040E0008093B00080917000826080937000B40172
:1040F000C5012B960FB6F894DEBF0FBECDBFDF9182
:10410000CF911F910F91FF90EF90DF90CF90BF90D4
:10411000AF909F908F907F906F905F904F903F9067
:104120000895E130F10561F0E830F10589F682E0AB
:104130008987CECFF7E0F987CBCFE6E0E987C8CF14
:1041400021E02987C5CF94E09987C2CFAF92BF9273
:10415000CF92DF92EF92FF920F931F93CF93DF9353
:1041600000D000D0CDB7DEB75C0110917C02809109
:104170007E0281FF43C0123008F440C08EE190E01F
:104180009093010180930001809170008260809380
:104190007000F50181811817E1F11183E0911001A0
:1041A000F09111016081718180E090E028EF36E0AC
:1041B00041E050E00E945C2C28EE33E040E050E00B
:1041C0000E948F2C69017A01212F30E040E050E0FD
:1041D000C701B6010E948F2C89019A0109831A83B5
:1041E0002B833C83073911052105310590F0C5016A
:1041F000BE016F5F7F4F0E94961F0BC086E090E06C
:104200009093010180930001809170008D7F8093D5
:10421000700081E0F50182830F900F900F900F9056
:10422000DF91CF911F910F91FF90EF90DF90CF9092
:10423000BF90AF9008958F929F92AF92BF92CF920E
:10424000DF92EF92FF920F931F93CF93DF93CDB73F
:10425000DEB760970FB6F894DEBF0FBECDBF8130DA
:10426000910509F1009761F480911001909111017D
:104270000E94682D80911201909113010E94682D77
:1042800060960FB6F894DEBF0FBECDBFDF91CF9121
:104290001F910F91FF90EF90DF90CF90BF90AF9064
:1042A0009F908F90089510928E03EFE8F3E081E5E0
:1042B00091E01182108293838283369629E0EF3851
:1042C000F207B9F710928F09109290091092910994
:1042D00010928B0310928A0322E531E030938D0314
:1042E00020938C03109287031092860330938903E6
:1042F00020938803109283031092820330938503E6
:104300002093840310927F0310927E0330938103E5
:104310002093800310927B0310927A0330937D03E5
:1043200020937C03109277031092760330937903E5
:1043300020937803109273031092720330937503E5
:104340002093740310926F0310926E0330937103E5
:104350002093700310926B0310926A0330936D03E5
:1043600020936C03109267031092660330936903E5
:1043700020936803109263031092620330936503E5
:104380002093640310925F0310925E0330936103E5
:104390002093600310925B0310925A0330935D03E5
:1043A00020935C03109257031092560330935903E5
:1043B00020935803109253031092520330935503E5
:1043C0002093540310924F0310924E0330935103E5
:1043D0002093500310924B0310924A0330934D03E5
:1043E00020934C03109247031092460330934903E5
:1043F00020934803109243031092420330934503E5
:104400002093440310923F0310923E0330934103E4
:104410002093400310923B0310923A0330933D03E4
:1044200020933C03109237031092360330933903E4
:1044300020933803109233031092320330933503E4
:104440002093340310922F0310922E0330933103E4
:104450002093300310922B0310922A0330932D03E4
:1044600020932C03109227031092260330932903E4
:1044700020932803109223031092220330932503E4
:104480002093240310921B0310921A0330931D03F0
:1044900020931C03109217031092160330931903F4
:1044A00020931803109213031092120330931503F4
:1044B0002093140310920F0310920E0330931103F4
:1044C0002093100310920B0310920A0330930D03F4
:1044D00020930C03109207031092060330930903F4
:1044E00020930803109203031092020330930503F4
:1044F000209304031092FF021092FE0230930103F6
:1045000020930003109209004FED5EE25093990052
:104510004093980040919100487F41604093910002
:1045200040919000509191004C7F577E586050937D
:104530009100409390004F734093900049EF52E0F8
:1045400050931F0340931E0346E851E0509321030C
:10455000409320031092FA021092FB021092FC0288
:104560001092FD021092950010929400C19A409111
:104570007100426040937100E1EBF2E01182108221
:1045800093838283399642E0E93FF407B9F71092AA
:104590007502109274023093770220937602109283
:1045A0007A021092790210927C0210927B02109291
:1045B0007E0210927D021092800210927F02109271
:1045C0008202109281021092840210928302109251
:1045D0008602109285021092880210928702109231
:1045E0008A021092890210928C0210928B02109211
:1045F0008E0210928D021092900210928F021092F1
:1046000092021092910210929402109293021092D0
:1046100096021092950210929802109297021092B0
:104620009A02109299020CE912E0D80111961C929C
:104630001E9213963C932E9312970C5F1F4FB2E07D
:10464000003B1B0791F710927202109271021092B8
:104650007302539A5B9A52985A9A549A27982F9AAF
:10466000E9E6EE2EE2E0FE2EF0920F03E0920E035A
:1046700080ED95E29093110380931003F09207036D
:10468000E092060381E092E090930903809308038F
:10469000F0920B03E0920A0384E991E090930D03FA
:1046A00080930C03E8ECF0E08091C8008260809376
:1046B000C8008CE08093CC008091CD00807F8093F7
:1046C000CD009091C9008091CA008660877882836E
:1046D0009C6C9183DD24D394D7011296DC921297BF
:1046E0008091C80081608093C8005C9A8091C90065
:1046F0008061818317961C9282E791E00E94891C59
:1047000026E6A22E21E0B22EC80181979093670180
:1047100080936601109268011092690110926A01FB
:1047200010926B01D0926C0180918F0280936D0189
:1047300010926E01C80180979093700180936F0171
:10474000109271014A2DBE82AD828AE896E0682FF0
:1047500098878F831A8619865E81788580E09A858E
:1047600020ED37E00E941D02C0906F01D0907001D3
:1047700082E090E06CE070E00E94FD124C0182E06B
:1047800090E06DE070E00E94FD12FC0180E091E09D
:1047900066E070E0A7014D5F5F4F98012751304000
:1047A0000951104076010F2EFBE0CF2EDD24F02DB5
:1047B000CA0CDB1C54014F010E94771E85E595E56C
:1047C000A0E0B0E089839A83AB83BC8300E611E06C
:1047D000C801BE016F5F7F4F0E94961F10936B034D
:1047E00000936A0388E995E090936D0380936C03CE
:1047F000402F1C870B878DE396E0682F9E878D875F
:10480000188A1F865C857E8580E0988928EE33E0D3
:104810000E941D0235CDCF93DF93DC01C8ECD0E0C0
:104820008091C8008871B1F08091C9008091CE005C
:104830008091C80081608093C8005C9A8091C90013
:104840008061E8ECF0E0818317961C921797DF9166
:10485000CF9108959091C900969591708091CE0066
:10486000282F22952F70E92FF0E0E295F295F07F46
:10487000FE27E07FFE27E65CFE4FE20FF11D308150
:104880008317B1F617968C911797913009F094C061
:104890008823B9F506C0843009F01EC117961C9212
:1048A0001797922F990F990F990F1A968C911A9723
:1048B0008770892B1A968C931A978091C8008E7FE7
:1048C0008093C80017968C911797823009F498C08E
:1048D000833009F712968C911297882309F4A8CF98
:1048E00012968C9112978F5F12968C931297129654
:1048F0008C911297853009F09BCF12961C921297DB
:1049000097CF813011F71A969C911A9790681A9652
:104910009C931A978F5F17968C931797883009F09E
:1049200096CF8091C80081608093C8005C9A809186
:10493000C9008061E8ECF0E0818317961C9217971C
:104940001A96EC911A97F0E0EE55FE4FE491EF774E
:10495000F0E018968D919C911997DF01AA0FBB1F6B
:10496000A758BD4F8C9311969C9311978091B002DC
:1049700080FD6DCF8091B00282608093B002789408
:10498000EE56FE4FE491AE2FB0E0AA0FBB1FAA0F68
:10499000BB1FAB58BD4F9996ED91FC919A97979696
:1049A0008D919C91989709958091B0028D7F80930D
:1049B000B002DF91CF910895882309F439CF813077
:1049C000D9F08230E9F0833009F4B0C0843009F0C6
:1049D00083C019961C921E9218972295207F1996D3
:1049E0008C9119978F70822B19968C93199785E06B
:1049F00017968C9317972BCF82E017968C93179767
:104A0000822F86958695817091E01F9B90E0891793
:104A100009F00ECF922F969596959695990F990F2E
:104A20001A968C911A97887F2370892B822B1A965D
:104A30008C931A9712968C911297882309F048C08C
:104A4000C8ECD0E08091C9008F7E89835C98139672
:104A5000EC911397F0E0EF70F070E65CFE4F808110
:104A60008093CE0083E017968C9317971A96EC915B
:104A70001A97F0E0EE55FE4FE491E7FD02C084E0A6
:104A8000B7CF9091B002969591708091B0028E7FD1
:104A9000892B8093B002F0E0EF77F070EE0FFF1FEC
:104AA000E758FD4F2FB7F894808191812FBF199659
:104AB0009C938E93189718968D919C9119978C932F
:104AC00011969C931197F8948091C9008062898314
:104AD00017968C9117971ECF853091F08630D1F0C4
:104AE000873009F017CF18968C911897807F822B0A
:104AF00018968C93189788E017968C93179711CF78
:104B000019968C911997807F822B19968C931997FF
:104B100086E06ECF2295207F18968C9118978F7023
:104B2000822B18968C93189787E062CF1A96EC9197
:104B30001A97F0E0EE55FE4FE491E7FFA0CF909179
:104B4000B002969591708091B0028E7F892B8093F0
:104B5000B002F0E0EF77F070EE0FFF1FE758FD4F67
:104B60002FB7F894808191812FBF19969C938E93D3
:104B700018978091C9008F7E89835C9818968D91D3
:104B80009C9119978C9311969C931197F89480910E
:104B9000C9008062898317968C9117978F5FBBCE6F
:104BA0000E940B240895CF92DF92EF92FF920F9311
:104BB0001F93CF93DF93CDB7DEB76F970FB6F894FF
:104BC000DEBF0FBECDBFFC01789460897189428938
:104BD0005389DB011A968D919C911B97805C9F4FA6
:104BE00001E0DA011A962D913C911B9782179307E9
:104BF00008F000E0DB015C969C91917080A58E7FAF
:104C0000892B80A7DA015C969C91917081A58E7F9B
:104C1000892B81A7DB015C968C915C978823E9F551
:104C2000DA015C968C915C978823B9F5A02FB0E0EF
:104C30001896AA0FBB1FAE0FBF1F0D90BC91A02DE1
:104C40001A966D917C911B9741E050E0002311F082
:104C500040E050E0DA011896AA0FBB1FAE0FBF1F4D
:104C60000D90BC91A02D1A968D919C911B979B0144
:104C7000281B390B37FD9DC3CB01969587959695DB
:104C8000879580509B4F8217930708F067C384A1D4
:104C90008F3709F486C38F5F84A380A5882319F515
:104CA00081A5882301F52485822F90E010E031E072
:104CB0008017910709F46FC3A32FB0E01896AA0FCD
:104CC000BB1FAE0FBF1F0D90BC91A02D5D968C91A8
:104CD0005D97882309F05AC332A313A21F9B18C003
:104CE0008091990117C080A5882309F030C380A561
:104CF000882309F457C080A5882319F081A5811164
:104D000002A383A18F3309F446C024851F99E8CFFD
:104D10008091890190E08370907031E0009709F4F0
:104D200030E0222309F444C0A089B1895D968C91BA
:104D30005D97882309F43CC0A289B3895D968C9164
:104D40005D978823A9F1332399F585A18F5F85A30A
:104D5000823931F480A5826080A781A5826081A715
:104D600086A18F3048F560E48F5F86A38585882310
:104D700039F18F5F8587883019F5F89428E088E14C
:104D800090E00FB6F894A895809360000FBE209332
:104D900060000000FECF80A58B7F80A781A58B7F60
:104DA00081A7B3CF81A5882309F4A5CF12A2A9CFEB
:104DB00015A286A18F30B8F260E085858823C9F6F8
:104DC000A089B1895B962C915B97217030E0169693
:104DD0008C91169790E041E02817390709F040E0E0
:104DE0006E7F642BA289B3895B962C915B972170AF
:104DF00030E016968C91169790E041E0281739071D
:104E000009F040E0440F6D7F642B92A1A92FB0E020
:104E10001896AA0FBB1FAE0FBF1F0D90BC91A02DFF
:104E20005D968C915D978170880F880F6B7F682BE2
:104E3000892F8170880F880F880F677F682B90A556
:104E400081E0911180E08295807F6F7E682B91A533
:104E500081E0911180E08295880F807E6F7D682BC4
:104E6000408D518D1C962D913C911D972038310518
:104E70000CF04FC1BFEF21383B070CF484C227FD73
:104E80009CC2922F80E0262F30E0282B392B8FB741
:104E9000F894DA0111963C932E938FBFA2A1B0E053
:104EA0001896AA0FBB1FAE0FBF1F0D90BC91A02D6F
:104EB0001A968D919C911B97292F221F2227221F22
:104EC00030E0880F991F282B392BA689B7898FB717
:104ED000F89411963C932E938FBF40895189DA0143
:104EE00018967C91E288F388D7011896DC90C090E0
:104EF0008E03388F298FA2A1B0E01896AA0FBB1F8E
:104F0000AE0FBF1F0D911C91D8011C968D919C91E5
:104F10001D97803891050CF0FAC0BFEF81389B07D0
:104F20000CF413C287FD39C28A8FDA018C91119675
:104F30009C919B8F8C8FD7018C9111969C919D8F0A
:104F40008E8F6F8FD8011A968D919C911B979C0123
:104F5000220F232F221F330B319540A151A124177B
:104F6000350708F0E9C1805A9F4F880F892F881FA5
:104F7000990B919591A380A3AC019E01205F3F4FB7
:104F800088E0D9011D928A95E9F764FDBEC065FDF0
:104F9000BCC082E0888BD8015B962C915B97217016
:104FA00030E016968C91169790E061E0281739074B
:104FB00009F060E0962F9795992797955170952B5A
:104FC000D8015D968C915D9721E08227880F880F2C
:104FD000892B898B4A8B83818B8B82818C8B8481FB
:104FE0008D8B83858295880F807E8E8B13861F998B
:104FF00093C08091DC009091DD0081FD2AC080E1AA
:105000008093ED0080E090E0A0E6B6E48093F000AD
:105010009093F100A093F200B093F300888D8093F9
:10502000FA00898D8093FA008A8D8093FA008B8D27
:105030008093FA008C8D8093FA008D8D8093FA0016
:105040008E8D8093FA008F8D8093FA0088E4809390
:10505000EF008091DC009091DD0080FD29C010926E
:10506000ED0080E090E0A0E8B8E18093F00090933C
:10507000F100A093F200B093F30088898093FA00C6
:1050800089898093FA008A898093FA008B898093BA
:10509000FA008C898093FA008D898093FA008E89BA
:1050A0008093FA008F898093FA0088E48093EF0060
:1050B0008091DC009091DD0084FD18C080E4809335
:1050C000ED0080E090E0A0E8B9E98093F0009093D3
:1050D000F100A093F200B093F3007093FA00D09225
:1050E000FA00C092FA0083E48093EF006F960FB647
:1050F000F894DEBF0FBECDBFDF91CF911F910F910E
:10510000FF90EF90DF90CF90089580E043CF8FE73E
:105110000BCF80E09FE7B7CE8091DC009091DD005F
:1051200081FD2AC080E18093ED0080E090E0A0E85E
:10513000B6E48093F0009093F100A093F200B09356
:10514000F300888D8093FA00898D8093FA008A8D10
:105150008093FA008B8D8093FA008C8D8093FA00F7
:105160008D8D8093FA008E8D8093FA008F8D8093C1
:10517000FA0088E48093EF008091DC009091DD00DC
:1051800080FD29C01092ED0080E090E0A0E8BAE137
:105190008093F0009093F100A093F200B093F3009D
:1051A00088898093FA0089898093FA008A8980939C
:1051B000FA008B898093FA008C898093FA008D899C
:1051C0008093FA008E898093FA008F898093FA0089
:1051D00088E48093EF008091DC009091DD0084FDF5
:1051E00018C080E48093ED0080E090E0A0EAB9E987
:1051F0008093F0009093F100A093F200B093F3003D
:105200007093FA00D092FA00C092FA0083E480937F
:10521000EF00FE01319687E0DF011D928A95E9F7E4
:1052200088E690E00E94012E8A8380E390E00E944D
:10523000012E8B8384E590E00E94012E8C838CE606
:1052400090E00E94012E8D838DE690E00E94012E59
:10525000082F88E590E00E94092E64E670E00E9425
:105260007B2C079500270795062B0E8388E390E09B
:105270000E94012E8F838091DC009091DD0082FDE1
:105280001BC080E28093ED0089818093FA008A81BF
:105290008093FA008B818093FA008C818093FA00CE
:1052A0008D818093FA008E818093FA008F818093A4
:1052B000FA0087E48093EF00FE01389688E0DF0172
:1052C0001D928A95E9F789E690E00E94012E898770
:1052D00088E690E00E94012E8A878DE490E00E948B
:1052E000012E8B878CE490E00E94012E8C878091A8
:1052F000DC009091DD0083FDF9CE80E38093ED002A
:1053000088858093FA0089858093FA008A85809346
:10531000FA008B858093FA008C858093FA008D8546
:105320008093FA008E858093FA008F858093FA002F
:1053300088E48093EF00DACE8096880F892F881F4B
:10534000990B919591A380A317CE8FEFEDCD81A5F9
:10535000882309F0CCCC81E082A3D3CC14A2A2A1F3
:10536000B0E01896AA0FBB1FAE0FBF1F0D90BC91E7
:10537000A02D5D968C915D97882309F08ECC83A13A
:105380008F5F83A38ACC80E09FEF7DCD81E0832770
:1053900082A313A2A3CC30E08FCC809580688F5F6E
:1053A000C3CDDA019896AE0FBF1F8C9184608C93A9
:1053B00074CC309521953F4F5FCC20952068922F7B
:1053C0009F5F80E060CD0E94D32508958F929F92C9
:1053D000AF92BF92CF92DF92EF92FF920F931F9303
:1053E000CF93DF93EC01FB0180819F81981721F01F
:1053F00088858F5F888780818F83808190E0FC0122
:105400003B96EE0FFF1FEC0FFD1F008111810896E8
:10541000880F991F8C0F9D1FFC01C080D1800894BC
:10542000C108D108EE24FF246881798180E090E0F2
:1054300024EA36E840E050E00E945C2C24E630E0AC
:1054400040E050E00E948F2CC701B6010E945C2C06
:105450006801EE24FF24A70196010E948F2C4901C8
:105460008A859B85B901681B790BFDEF63317F0746
:1054700014F463E17DEFAE84BF84C501B7FC40C086
:1054800095958795959587958C01000F111F080FAD
:10549000191F82E06E3E780714F06DEE72E08827E7
:1054A00077FD8095982F2EEC36E540E050E00E9485
:1054B0005C2CA70196010E94B12CC801820F931F9A
:1054C0009501280F391F37FD1DC0022E232F000C18
:1054D000221F330B000C221F331F3D872C879F8711
:1054E0008E879B868A86DF91CF911F910F91FF90C7
:1054F000EF90DF90CF90BF90AF909F908F900895E6
:105500000396BECF215C3F4FE0CFCF93DF93FC01EA
:10551000EB01A881B0E01B96AA0FBB1FA80FB91F13
:105520001D921C92A881B0E01896AA0FBB1FA80F6D
:10553000B91F11961C921E921386128681E0858FE8
:105540001586148617861686148E8185882351F059
:105550004498948D91709295990F907E88B18F7D2B
:10556000892B88B9DF91CF910895AF92BF92CF92E6
:10557000DF92EF92FF920F931F93CF93DF930F92DF
:10558000CDB7DEB78C01FC01868997890196978B90
:10559000868B208D318D2F5F3F4F318F208F637031
:1055A000428D40954623628F442309F4B2C046954C
:1055B0004983A42FB0E0FD013896EE0FFF1FE00FE6
:1055C000F11F208131812F5F3F4F31832083F8010C
:1055D000EA0FFB1F84898F5F848BFD013B96EE0FE2
:1055E000FF1FE00FF11F2130310509F4B9C0A08081
:1055F000B180E1E0F0E0442311F0E0E0F0E0389623
:10560000EE0FFF1FE00FF11F80819181821793073A
:1056100008F0A2C0F801C280D380E480F580F0E0F9
:10562000AF16F0E1BF0608F454C0281B390B37FD54
:10563000A5C081E0233031050CF497C0F801848FB8
:10564000A60FB11DB595A795A170838D982F96953E
:105650009170A91709F48EC0AA0F8D7F8A2BF801CB
:10566000838F80899189978F868F8289938991A36F
:1056700080A3C801BE016F5F7F4F0E94E629F80139
:10568000158E4981A42FB0E0FD013896EE0FFF1F63
:10569000E00FF11F81E090E091838083FD013B9654
:1056A000EE0FFF1FE00FF11F11821082442309F05B
:1056B0005EC0FC013896EE0FFF1FE00FF11F118254
:1056C00010820B96880F991F800F911FFC01118289
:1056D0001082F8018185882371F0A00FB11F5496C4
:1056E0008C91549790E08F709070009721F4442330
:1056F00009F448C0359AB601C7010F90DF91CF91E8
:105700001F910F91FF90EF90DF90CF90BF90AF90DF
:105710000895198220E00DC02F5F29832230C0F444
:10572000E22FF0E03B96EE0FFF1FE00FF11F8081AC
:105730009181F8EA8E349F0778F3C801BE016F5F4C
:105740007F4F0E94852A29812F5F2983223040F3D1
:10575000CC24DD247601CFCFCC24DD2476015FCFAD
:1057600011821082AA24BB2444CF80E067CF80E05E
:1057700090E09FCF8E7F8A2B838F6ECF30952195BF
:105780003F4F57CF349AB7CFCF92DF92EF92FF922D
:105790000F931F93CF93DF93EC018B016370888984
:1057A00099890E94B52A6B017C01B80176956795AD
:1057B000769567958A899B890E94B52A2AA122231A
:1057C00011F06B017C01C114D104E104F10491F1E9
:1057D0008A8D9B8DAC8DBD8D8C0D9D1DAE1DBF1D0D
:1057E0008A8F9B8FAC8FBD8FEC89FD89A0838A8DBA
:1057F0009B8DAC8DBD8DAC01BD0124E17695679587
:10580000579547952A95D1F72F8D421771F0EF8163
:10581000F88580818F5F8083E985FA8580818F5F3D
:1058200080838A8D9B8DAC8DBD8D4F8F8A2F9E8DF1
:10583000A91749F0DF91CF911F910F91FF90EF9041
:10584000DF90CF900895865F8E8FEAA1F0E03896C2
:10585000EE0FFF1FEC0FFD1F0190F081E02D838DF7
:10586000817090E0268130E08217930779F08E8175
:10587000882301F38A819B81AC81BD810196A11DA2
:10588000B11D8A839B83AC83BD83D4CF8A819B81E6
:10589000AC81BD810197A109B1098A839B83AC8347
:1058A000BD83C8CF81E090E00E941B21089580E075
:1058B00090E00E941B210895629FD001739FF00128
:1058C000829FE00DF11D649FE00DF11D929FF00D90
:1058D000839FF00D749FF00D659FF00D9927729FC7
:1058E000B00DE11DF91F639FB00DE11DF91FBD0152
:1058F000CF0111240895AA1BBB1B51E107C0AA1FA9
:10590000BB1FA617B70710F0A61BB70B881F991F60
:105910005A95A9F780959095BC01CD010895A1E213
:105920001A2EAA1BBB1BFD010DC0AA1FBB1FEE1F19
:10593000FF1FA217B307E407F50720F0A21BB30B64
:10594000E40BF50B661F771F881F991F1A9469F7E0
:1059500060957095809590959B01AC01BD01CF013C
:10596000089597FB092E05260ED057FD04D0D7DFEA
:105970000AD0001C38F450954095309521953F4F42
:105980004F4F5F4F0895F6F790958095709561950C
:105990007F4F8F4F9F4F0895EE0FFF1F0590F4919B
:1059A000E02D0994CF93DF93AC018230910510F480
:1059B00042E050E0E0919709F091980920E030E052
:1059C000A0E0B0E024C08081918184179507D0F0D9
:1059D0008417950771F482819381109729F01396AB
:1059E0009C938E9312972CC090939809809397095B
:1059F00027C02115310519F08217930718F49C016F
:105A0000BD01EF0192818381DF01E92FF82F3097EB
:105A1000D1F621153105F9F0C901841B950B8430AD
:105A2000910580F48A819B816115710521F0FB014C
:105A30009383828304C09093980980939709FE0111
:105A4000329642C0FE01E80FF91F4193519302972D
:105A50009983888339C08091950990919609009720
:105A600041F480915C0190915D019093960980933F
:105A7000950920915A0130915B012115310541F4BE
:105A80002DB73EB780915E0190915F01281B390BC5
:105A9000E0919509F0919609E217F30798F42E1B0F
:105AA0003F0B2417350770F0CA01029628173907F3
:105AB00048F08E0F9F1F909396098093950941930C
:105AC000519302C0E0E0F0E0CF01DF91CF91089563
:105AD0000F931F93CF93DF939C01009709F48CC021
:105AE000DC01129713961C921E92129760919709EF
:105AF000709198096115710589F48D919C911197A8
:105B0000820F931F20919509309196092817390724
:105B100069F5B0939609A09395096EC0FB0140E02A
:105B200050E001C0FC01EA17FB0730F48281938149
:105B3000AF010097B9F71FC0E9012297FB83EA8301
