:100000000C9488000C943F120C946E120C949D1268
:100010000C94CC120C94FB120C942A130C945913CC
:100020000C9488130C94B7130C94E6130C941514C9
:100030000C9444140C9473140C94A2140C94D114C6
:100040000C9400150C942F150C945E150C948D15C2
:100050000C94BC150C94EB150C941A160C944916C0
:100060000C9478160C94A7160C94D6160C940517BD
:100070000C9434170C9463170C9492170C94C117BA
:100080000C94F0170C941F180C944E180C947D18B7
:080090000C94AC18B33BB83B23
:100100000000000001841F210C277B0172DFD9FD54
:1001100011241FBECFEFD0E1DEBFCDBF11E0A0E0C4
:10012000B1E0E4E7FBE700E00BBF02C007900D92EF
:10013000A037B107D9F71AE0A0E7B1E001C01D92DE
:10014000A132B107E1F73C9A3D9A449A459A2DE0D5
:1001500088E190E00FB6F894A895809360000FBEF8
:1001600020936000259810E0C6E9D0E000E006C0CA
:1001700022970109FE010BBF0E94403CC439D10700
:1001800080E00807A9F70E944D250C94A83D0001C6
:100190000002030000000400000000000000000056
:1001A000000000000000908F8E8D080706050000FB
:1001B000000000000000000000000000000000003F
:1001C000000000000000000000000000000000002F
:1001D000000000000000000000000000000000001F
:1001E00000000000000000000000000000008C8BF8
:1001F0008A890403000000000000000000000000E5
:1002000000000000000002000001000000000000EB
:1002100000000000000000000000000000000000DE
:1002200000000000000000000000000000000000CE
:1002300000000000000000000000000000000000BE
:1002400000000000000000000000000000000000AE
:10025000000000000000000000000000000000009E
:10026000000000000000000000000000000000008E
:10027000000000000000000000000000000000007E
:10028000000000000000000000000000000000006E
:1002900000000000000000000000000000000895C1
:1002A00008954FB7F8945FB7F8942091B301309157
:1002B000B40181E090E002C0880F991F6A95E2F7CF
:1002C00080959095822393239093B4018093B301FA
:1002D0005FBF4FBF0895FC0184858F3F11F08F5F92
:1002E000848708952FB7F8943FB7F8948091B701A9
:1002F0009091B8019F779093B8018093B7013FBF69
:100300002FBF08958091A8018970893031F0109233
:10031000760181E080937B01089581E080937601EE
:1003200008953F924F925F926F927F928F929F9229
:10033000AF92BF92CF92DF92EF92FF920F931F93F3
:10034000CF93DF93CDB7DEB72A970FB6F894DEBF11
:100350000FBECDBF9A878987FB018081982F947447
:100360009434D9F485FD19C08580B82CBB0CBB082A
:1003700004811381A985BA855F968C915F97882344
:1003800021F190961C93909791960C939197929649
:100390008C9292979396BC9293972A960FB6F89464
:1003A000DEBF0FBECDBFDF91CF911F910F91FF90A8
:1003B000EF90DF90CF90BF90AF909F908F907F9005
:1003C0006F905F904F903F9008955696ED91FC91FD
:1003D000579754968D919C9155970995292F30E008
:1003E000C901880F991F220F331F220F331F220FBD
:1003F000331F820F931F62E170E00E94DC3B362EB8
:10040000B3E0B61708F0D7C0A62EE0E1E61710F467
:1004100020E1A22E4A2C552466247724C12ED02E0A
:10042000E82CFB2CA985BA855A96ED91FC915B9737
:1004300058968D919C9159970995DC01CB01C81A6A
:10044000D90AEA0AFB0AC601D7FCD6C08F3F91053C
:1004500009F00CF4BAC081E0E985FA85868FCC0CEE
:10046000DD1CEE1CFF1CCC0CDD1CEE1CFF1CCC0CA0
:10047000DD1CEE1CFF1CCC0CDD1CEE1CFF1CC701A0
:10048000B601A30192010E94253C29833A834B8344
:100490005C83C980DA80D7FCB3C0EE24D7FCE0943B
:1004A000FE2CB2E7CB16B1E0DB06B0E0EB06B0E025
:1004B000FB0608F088C0C701B601A70196010E949B
:1004C000BD3B4B015C010E94BD3B6D837E838F83EE
:1004D0009887C501B40120E43CE940E050E00E9467
:1004E000BD3B2B013C016D817E818F8198852CE67F
:1004F00030E040E050E00E94BD3BDC01CB01481AF7
:10050000590A6A0A7B0AC501B40124E833E040E0D5
:1005100050E00E94BD3B4B015C01C701B60120E9E0
:1005200035E640E050E00E94BD3BDC01CB01881A7B
:10053000990AAA0ABB0A80E09AE6A8E1B0E0880E10
:10054000991EAA1EBB1E8D819E81AF81B885880F22
:10055000991FAA1FBB1F881A990AAA0ABB0AC301BE
:10056000B201A50194010E94033C89819A81AB816B
:10057000BC81B7FD4AC0422F552747FD5095232D1A
:1005800030E0429FC001439F900D529F900D112477
:1005900097FD3DC0082E892F000C881F990B000C79
:1005A000881F991FA985BA855C968C935C975D9688
:1005B0001C925D97F2CE84E0482E512C612C712C58
:1005C00094E0A92E2BCF80E0EDCF90E0829592951C
:1005D000907F9827807F98276A2D70E00E94F03BDB
:1005E00081E06F3F710509F00CF480E0A985BA85C0
:1005F0005E968C935E9733CF909581959F4F26CFD3
:10060000D094C194D108D39448CF2195B4CFCF963C
:10061000C1CF10920E010895FC0141815281638186
:1006200074814F5F5F4F6F4F7F4F4183528363836E
:10063000748378940895FC0186818430F1F08530CC
:1006400059F18630B1F1873019F08F5F86830895B4
:10065000A081B181AF70B070A65BBE4F8C918093CA
:10066000CE008091C9008F7DA8ECB0E011968C93EC
:10067000119786818F5F868308952181822F8295CD
:100680008F7090E0865B9E4FDC018C918093CE0052
:1006900086818F5F86830895A181B0E0AF70B070CE
:1006A000A65BBE4F8C918093CE0086818F5F868340
:1006B0000895A081B181B295A295AF70AB27BF70AC
:1006C000AB27ECCFDC01D396EC91D397F0E03896D2
:1006D000EE0FFF1FE80FF91F0190F081E02D8485D8
:1006E00095850895FC0162817381848195810895C7
:1006F0008091DC009091DD0080FD19C02091ED001B
:100700001092ED0080E090E0A0ECBAE18093F00060
:100710009093F100A093F200B093F3006093FA007D
:100720001092FA0082E48093EF002093ED00089588
:10073000FC018281882341F00284F385E02D8081D1
:100740008F3F11F08F5F80830895EF92FF920F9398
:100750001F93CF93DF9300D000D00F92CDB7DEB7B9
:100760007B01FB010081093009F470C0013009F4FC
:1007700079C010E0000F111F000F111F005E1F4F06
:10078000C801F70164810E94873DC8010196F70105
:1007900063810E94873DC8010296F70162810E9431
:1007A000873DC8010396F70161810E94873DF701EB
:1007B0008081893009F44AC0813009F447C0082F8C
:1007C00010E0000F111F000F111F005E1F4F8983E3
:1007D000C80103960E94733D8A83C80102960E9455
:1007E000733D8B83C80101960E94733D8C83C801C1
:1007F0000E94733D8D838091DC009091DD0084FD2B
:1008000025C02091ED0080E48093ED0080E090E031
:10081000A0E6B2E68093F0009093F100A093F2007E
:10082000B093F30089818093FA008A818093FA0063
:100830008B818093FA008C818093FA008D81809364
:10084000FA0085E48093EF002093ED000F900F9065
:100850000F900F900F90DF91CF911F910F91FF900C
:10086000EF90089587E1FB0180830CE510E086CFCF
:100870008EBD0DB407FEFDCF6EBD0DB407FEFDCFDE
:100880004EBD0DB407FEFDCF2EBD0DB407FEFDCF4E
:100890008EB50895FC015C9AA8ECB0E08091C90087
:1008A000806111968C9311978091B2009681983057
:1008B000B1F09581992391F01582813968F08059C2
:1008C00090E0880F991F63E070E00E94F03B848104
:1008D000861720F4648308958EEF848308958091B1
:1008E000C80081608093C8005C9A8091C9008061D3
:1008F00011968C93119716820895CF93DF9300D0B1
:1009000000D000D0CDB7DEB749835A836B837C8398
:100910008D839E83E0EFF2E09FB7F894808581FDA0
:100920003DC0808582FD3AC08085846080879FBFFE
:100930004FB7F8948091810390918203A091830333
:10094000B09184034FBFA90160E070E0480F591FC8
:100950006A1F7B1F6170707046835783962F91705A
:1009600080858E7F892B8087CF01AE014F5F5F4FDF
:1009700026E0DA010D90AD01DC010D92CD01215090
:10098000C1F780858260808780858B7F808780919A
:10099000EF028F5F8093EF0281E008C09FBF39961E
:1009A000B3E0E038FB0709F0B7CF80E026960FB63A
:1009B000F894DEBF0FBECDBFDF91CF910895CF93E6
:1009C000DF939C014091ED008091EC00807F80934B
:1009D000ED008091EE008F7D8093EE007894B091D1
:1009E000EF00BF705091F20052955695577060918C
:1009F000F300762F770F770F770F872F852B962FA2
:100A0000929596959770880F991F82959295907FF1
:100A10009827807F98278B0F911D59E08530950787
:100A200009F476C0EAE088309E0709F435C1FAE09F
:100A300088349F0709F433C15BE08830950709F4D7
:100A400043C1EBE088349E0709F42CC1FEE08130FD
:100A50009F0709F43FC15CE08130950709F446C166
:100A6000E0E180309E0709F447C1F0E180389F073C
:100A700009F448C150E18130950709F431C1E0E142
:100A800081389E0709F444C1F0E180329F0709F4E0
:100A900045C150E1803A950709F443C1E0E1813254
:100AA0009E0709F447C1F0E1813A9F0709F445C167
:100AB00059E98138950709F449C1E2E488329E0773
:100AC00009F44DC1F2E4883A9F0709F44BC15AE496
:100AD0008534950709F45BC1E2E685309E0709F489
:100AE00053C1F2E685369F0709F44BC15DE88730B4
:100AF000950709F452C1E8E885309E0709F44AC118
:100B0000FAE885309F0709F0BCC067E170E002C0D9
:100B100060E070E0BB2381F0FB01EE0FFF1FEE0FE2
:100B2000FF1FEE0FFF1FE20FF31F50E0A091FA002E
:100B3000A1935F5F5B17D0F352E68530950709F408
:100B40006BC0E9E085309E0709F4B8C0FAE485344B
:100B50009F0709F4B6C052E68536950709F4B7C079
:100B6000EEE081309E0709F4A6C0FDE887309F07BC
:100B700009F4B9C058E88530950709F4BAC0EAE825
:100B800085309E0709F4BBC0FAE088309F0709F45E
:100B9000A4C05BE08830950709F4B7C0E2E488326E
:100BA0009E0709F4B8C0F0E180309F0709F4BCC08B
:100BB00050E18038950709F4BAC0E0E180329E0721
:100BC00009F4BEC0F0E1803A9F0709F4BCC050E1CF
:100BD0008130950709F4C0C0E0E181389E0709F42F
:100BE000B8C0F0E181329F0709F4C8C050E1813AF2
:100BF000950709F4C0C0ECE081309E0709F4B8C045
:100C0000F2E4883A9F0709F4B0C059E981389507A2
:100C1000C1F585E190E002C080E090E0EB01CC0FEF
:100C2000DD1FCC0FDD1FCC0FDD1FC20FD31F7FB721
:100C3000F8946091160A5091160A5F5F5093160A55
:100C4000E091150A5E1789F17FBF70E0C096880FAA
:100C5000991F880F991F820F931FFC01808191813A
:100C6000A281B381FB01EE0FFF1FE60FF71FEE0F0E
:100C7000FF1FEB5EFB4F80839183A283B383D583F9
:100C8000C4838091EF008F7380688093EF0040935E
:100C9000ED00DF91CF91089561E070E03BCF62E01D
:100CA00070E038CF64E070E035CF5091150A5F5F97
:100CB0005093150AC9CF84E090E0B0CF81E090E076
:100CC000ADCF82E090E0AACF63E070E023CF83E075
:100CD00090E0A4CF65E070E01DCF88E090E09ECF6B
:100CE00069E070E017CF85E090E098CF66E070E0B3
:100CF00011CF86E090E092CF67E070E00BCF87E005
:100D000090E08CCF68E070E005CF89E090E086CF7E
:100D10006AE070E0FFCE8AE090E080CF6BE070E0A8
:100D2000F9CE6CE070E0F6CE8BE090E077CF8CE00F
:100D300090E074CF6DE070E0EDCE6EE070E0EACE52
:100D40008DE090E06BCF8EE090E068CF6FE070E0D8
:100D5000E1CE80E190E062CF8FE090E05FCF60E194
:100D600070E0D8CE61E170E0D5CE84E190E056CF5E
:100D700083E190E053CF82E190E050CF81E190E0B9
:100D80004DCF64E170E0C6CE63E170E0C3CE62E1B6
:100D900070E0C0CE66E170E0BDCE65E170E0BACE35
:100DA0000F931F93CF93DF93EC01809160028170CA
:100DB0008F5F888380E390E00E947B3DDC01CB0164
:100DC00086309105A105B10578F509E110E088E3C9
:100DD00090E00E947B3DAB01BC018091640290E0F9
:100DE0008C599F4F2091630230E02F713070322F69
:100DF0002227820F931F049F9001059F300D149F9F
:100E0000300D1124820F931F9A8389839091610280
:100E100080E020916202820F911D9C838B83DF9181
:100E2000CF911F910F91089500E110E0D0CF2FB71F
:100E3000F8948091160A9091160A9F5F9093160A73
:100E40003091150A9317A1F02FBF90E0FC01EE0F2F
:100E5000FF1FE80FF91FEE0FFF1FEB5EFB4F118224
:100E600010828FE298E09383828315821482089522
:100E70009091150A9F5F9093150AE6CFDC01ED91E2
:100E8000FC91119740A15FB7F8942091160A309118
:100E9000160A3F5F3093160A6091150A3617A9F0BB
:100EA0005FBF30E0F901EE0FFF1FE20FF31FEE0FFF
:100EB000FF1FEB5EFB4F918380838EE19BE3938367
:100EC000828344831582789408953091150A3F5F98
:100ED0003093150AE5CF009721F421E030E0C901F5
:100EE00008958130910521F422E030E0C901089590
:100EF0008230910519F424E030E0F1CF8330910580
:100F000019F428E030E0EBCF8430910519F420E1AA
:100F100030E0E5CF8530910519F420E230E0DFCFF5
:100F20008630910519F420E430E0D9CF21E030E09B
:100F30008730910559F480E890E0A901489F90011D
:100F4000499F300D589F300D1124C9CF883091052D
:100F500019F480E091E0F1CF322F2227330F89304E
:100F6000910509F4BCCF8A30910519F4220F331F83
:100F7000B6CF8B30910529F4220F331F220F331F78
:100F8000AECF8C30910539F4220F331F220F331F5F
:100F9000220F331FA4CF8D30910539F4229532955D
:100FA000307F3227207F32279ACF8E30910549F447
:100FB000220F331F22953295307F3227207F322730
:100FC0008ECFAC01495050408F30910551F4002430
:100FD000369527950794369527950794322F202D1F
:100FE0007ECFCA01A5CFFC0183818823E1F4F0996B
:100FF0000DC0F09A8EB386958695869580FD0DC0BE
:10100000F39A838191E0892783830895F0988EB3C2
:1010100086958695869580FFF3CFF398838191E03E
:101020008927838308958EB3869580FD0CC0F19A3D
:101030008EB38695869580FD0CC0F29A838191E0EF
:10104000892783830895F1988EB38695869580FFCE
:10105000F4CFF298838191E08927838308955FB765
:10106000F8944091170A842F90E0FC01EE0FFF1FC7
:10107000E80FF91FEF57FE4F618172818091B40133
:1010800090E08F709070242F2295207F30E0822B8B
:10109000932B90819093B3018093B4017093B1012D
:1010A0006093B2015FBF4F5F4093170A453009F06C
:1010B00008951092170A08950F931F93CF93DF930B
:1010C0008B01FB018081893009F1813021F1C82F2A
:1010D000D0E0CC0FDD1FCC0FDD1FC05EDF4FCE0197
:1010E000F80164810E94873DCE010196F801638179
:1010F0000E94873DCE010296F80162810E94873DE1
:10110000CE010396F80161810E94873DDF91CF9166
:101110001F910F91089587E1FB018083CCE5D0E01A
:10112000DCCF0F931F93CF93DF9300D000D00F92AB
:10113000CDB7DEB7FB018081893009F44AC0813028
:1011400009F447C0082F10E0000F111F000F111FF6
:10115000005E1F4F8983C80103960E94733D8A83F6
:10116000C80102960E94733D8B83C80101960E94BC
:10117000733D8C83C8010E94733D8D838091DC0098
:101180009091DD0084FD25C02091ED0080E48093E6
:10119000ED0080E090E0A0E6B2E68093F00090934E
:1011A000F100A093F200B093F30089818093FA00DC
:1011B0008A818093FA008B818093FA008C818093DE
:1011C000FA008D818093FA0085E48093EF002093EC
:1011D000ED000F900F900F900F900F90DF91CF9137
:1011E0001F910F9108950F931F93CF93DF93CDB766
:1011F000DEB767970FB6F894DEBF0FBECDBFE0EF46
:10120000F2E03FB7F894208521FD35C1208522FD0D
:1012100032C12085246020873FBF2FB7F8944091CA
:1012200081035091820360918303709184032FBFE7
:101230004C505E4F6F4F7F4F617070704683578385
:10124000362F317020852E7F232B2087918380833A
:1012500083EF98E093838283158214828085826075
:10126000808780858B7F80878091EF028F5F80935E
:10127000EF0211E0FE01319687E0DF011D928A95B1
:10128000E9F788E690E00E94733D8A8380E390E06E
:101290000E94733D8B8384E590E00E94733D8C83B4
:1012A0008CE690E00E94733D8D838DE690E00E9475
:1012B000733D082F88E590E00E94813D64E670E070
:1012C0000E94DC3B079500270795062B0E8388E3D9
:1012D00090E00E94733D8F838091DC009091DD004F
:1012E00082FD2BC02091ED0080E28093ED0080E034
:1012F00090E0A0EEB3E68093F0009093F100A0930D
:10130000F200B093F30089818093FA008A81809380
:10131000FA008B818093FA008C818093FA008D8192
:101320008093FA008E818093FA008F818093FA0077
:1013300087E48093EF002093ED00FE01709688E033
:10134000DF011D928A95E9F789E690E00E94733DDE
:10135000898B88E690E00E94733D8A8B8DE490E053
:101360000E94733D8B8B8CE490E00E94733D8C8BCC
:101370001D8B8091EF028E8B809194018F8B8091D9
:10138000DC009091DD0083FD22C08091ED0090E3B0
:101390009093ED0098899093FA0099899093FA00C0
:1013A0009A899093FA009B899093FA009C89909374
:1013B000FA009D899093FA009E899093FA009F8984
:1013C0009093FA0098E49093EF008093ED001092D0
:1013D00094018CE290E00E94813D8C01FE013896E0
:1013E00088E0DF011D928A95E9F78CE790E00E9482
:1013F000733D888709871A878091DC009091DD0012
:1014000084FD2EC02091ED0080E48093ED0080E00B
:1014100090E0A0ECB8E18093F0009093F100A093ED
:10142000F200B093F30088858093FA008985809359
:10143000FA008A858093FA008B858093FA008C8568
:101440008093FA008D858093FA008E858093FA0050
:101450008F858093FA0088E48093EF002093ED005D
:1014600067960FB6F894DEBF0FBECDBFDF91CF9168
:101470001F910F9108953FBF3996B3E0E038FB0705
:1014800009F0BFCE10E0F6CEDC0112968C911297D7
:10149000882359F486E090E0909301018093000145
:1014A00080916F008D7F80936F0012961C9212972F
:1014B000E0EFF2E09FB7F894808581FD34C080852D
:1014C00082FD31C08085846080879FBF8FB7F8948C
:1014D0004091810350918203609183037091840352
:1014E0008FBF48515C4F6F4F7F4F61707070468364
:1014F0005783962F917080858E7F892B8087B1834B
:10150000A08384E49AE09383828315821482808589
:101510008260808780858B7F80878091EF028F5FDC
:101520008093EF0208959FBF399683E0E038F80773
:1015300009F0C0CF0895DC0113968C91139788238E
:1015400079F4ED91FC9111978081982F9F719430DF
:1015500009F44CC0983039F0807A8061808303C0F0
:1015600013961C921397E0EFF2E09FB7F8948085F2
:1015700081FD34C0808582FD31C080858460808794
:101580009FBF8FB7F894409181035091820360917F
:101590008303709184038FBF4053584F6F4F7F4F29
:1015A0006170707046835783962F917080858E7F0F
:1015B000892B8087B183A0838BE99AE09383828310
:1015C0001582148280858260808780858B7F8087EA
:1015D0008091EF028F5F8093EF0208959FBF39964D
:1015E00083E0E038F80709F0C0CF0895982F991FDD
:1015F0009927991F9095807297959927979588605C
:10160000892B8083B0CFEF92FF92CF93DF93FC01C1
:10161000C0E0D0E02081222361F14381548160E069
:1016200070E08091020190910301A0910401B091BA
:101630000501481B590B6A0B7B0B81819281A0E04D
:10164000B0E0840F951FA61FB71F181619061A06BB
:101650001B060CF0CFC0DB01CA010197A109B1093B
:101660008B3D35E0930730E0A30730E0B30708F483
:10167000B3C08091DC009091DD0082FD82C030918A
:10168000ED0080E28093ED0080E090E0A0E0B9E121
:101690008093F0009093F100A093F200B093F300D8
:1016A0002093FA00CE01C093FA009093FA0083E4ED
:1016B0008093EF003093ED001582A0EFB2E08FB77A
:1016C000F89418969C91189791FD53C018969C9188
:1016D000189792FD4EC018969C9118979460189692
:1016E0009C9318978FBF8FB7F894409181035091C6
:1016F000820360918303709184038FBF4C505E4FCF
:101700006F4F7F4F6170707016964C9316971796B7
:101710005C931797962F917018968C9118978E7FDF
:10172000892B18968C9318971196FC93EE9383E06F
:101730009BE013969C938E93129715961C921E9283
:10174000149718968C911897826018968C93189716
:1017500018968C9118978B7F18968C931897809178
:10176000EF028F5F8093EF02DF91CF91FF90EF90B8
:1017700008958FBF199633E0A038B30709F09FCFC3
:10178000F3CF8581843080F78F5F8583A0EFB2E04F
:101790009FB7F89418968C91189781FD20C01896E1
:1017A0008C91189782FD1BC018968C9118978460B5
:1017B00018968C9318979FBF8FB7F8944091810328
:1017C0005091820360918303709184038FBF4C59C1
:1017D0005F4F6F4F7F4F96CFEA0120814ACF9FBF67
:1017E000199683E0A038B80799F6DF91CF91FF9062
:1017F000EF900895108220E02ECFCF93DF9300D09A
:1018000000D00F92CDB7DEB71F9B08C00F900F908E
:101810000F900F900F90DF91CF9108952FB7F8940C
:10182000609181037091820380918303909184037E
:101830002FBF2AE030E040E050E00E94033C40919E
:1018400079012093790191E090937701E0917401FF
:10185000F0917501808185FF10C08F7D808380911C
:101860007801841B820F809378010F900F900F9066
:101870000F900F90DF91CF910895FE01319685E092
:10188000DF011D928A95E9F782E089839A831F9B85
:101890002CC08091DC009091DD0084FDB7CF2091B9
:1018A000ED0080E48093ED0080E090E0A0E0BAE9F4
:1018B0008093F0009093F100A093F200B093F300B6
:1018C00089818093FA008A818093FA008B818093CA
:1018D000FA008C818093FA008D818093FA0085E470
:1018E0008093EF002093ED0091CF8091DC009091E8
:1018F000DD0084FD8BCF2091ED0080E48093ED002E
:1019000080E090E0A0E0B8E9D3CFCF93DF9300D0A0
:1019100000D00F92CDB7DEB71F9B08C00F900F907D
:101920000F900F900F90DF91CF910895DB012C91D4
:1019300091E090937701E0917401F09175018081BD
:1019400085FF10C08F7D808380917801820FE4E74E
:10195000F1E084830F900F900F900F900F90DF9124
:10196000CF910895FE01319685E0DF011D928A95A1
:10197000E9F782E089839A831F9B2CC08091DC0069
:101980009091DD0084FDCACF2091ED0080E480932A
:10199000ED0080E090E0A0E0BAE98093F000909341
:1019A000F100A093F200B093F30089818093FA00D4
:1019B0008A818093FA008B818093FA008C818093D6
:1019C000FA008D818093FA0085E48093EF002093E4
:1019D000ED00A4CF8091DC009091DD0084FD9ECFCE
:1019E0002091ED0080E48093ED0080E090E0A0E0A5
:1019F000B8E9D3CFCF93DF9300D000D00F92CDB70B
:101A0000DEB71F9908C00F900F900F900F900F90A6
:101A1000DF91CF9108952FB7F89460918103709171
:101A2000820380918303909184032FBF2AE030E0EA
:101A300040E050E00E94033C4091790120937901FD
:101A400091E090937701E0917401F09175018081AC
:101A500085FF10C08F7D808380917801841B820F69
:101A6000809378010F900F900F900F900F90DF915F
:101A7000CF910895FE01319685E0DF011D928A9590
:101A8000E9F782E089839A831F9B2CC08091DC0058
:101A90009091DD0084FDB7CF2091ED0080E480932C
:101AA000ED0080E090E0A0E0BAE98093F000909330
:101AB000F100A093F200B093F30089818093FA00C3
:101AC0008A818093FA008B818093FA008C818093C5
:101AD000FA008D818093FA0085E48093EF002093D3
:101AE000ED0091CF8091DC009091DD0084FD8BCFE3
:101AF0002091ED0080E48093ED0080E090E0A0E094
:101B0000B8E9D3CFCF93DF9300D000D00F92CDB7F9
:101B1000DEB71F9908C00F900F900F900F900F9095
:101B2000DF91CF910895DB012C9191E090937701A3
:101B3000E0917401F0917501808185FF10C08F7D67
:101B4000808380917801820FE4E7F1E084830F9035
:101B50000F900F900F900F90DF91CF910895FE019D
:101B6000319685E0DF011D928A95E9F782E089834D
:101B70009A831F9B2CC08091DC009091DD0084FD36
:101B8000CACF2091ED0080E48093ED0080E090E0EA
:101B9000A0E0BAE98093F0009093F100A093F200E6
:101BA000B093F30089818093FA008A818093FA00D0
:101BB0008B818093FA008C818093FA008D818093D1
:101BC000FA0085E48093EF002093ED00A4CF80918C
:101BD000DC009091DD0084FD9ECF2091ED0080E43B
:101BE0008093ED0080E090E0A0E0B8E9D3CFCF9300
:101BF000DF9300D000D00F92CDB7DEB71F9B08C097
:101C00000F900F900F900F900F90DF91CF9108954C
:101C10002FB7F894609181037091820380918303C0
:101C2000909184032FBF2AE030E040E050E00E9412
:101C3000033C309179012093790191E090937701F1
:101C4000E0917401F0917501808185FD43C0922F70
:101C5000931B8062808350917801590F50937801D3
:101C6000943260F160917A01662309F071C0550FDA
:101C700050937801408140784066446010927A0128
:101C8000852F8459893108F05EC04F7780917C019F
:101C9000481709F484C0E0917401F09175018081C6
:101CA0008F7B808340937C01109278010F900F907E
:101CB0000F900F900F90DF91CF91089580917A014E
:101CC0008F5F80937A01833009F09ACF80818F7B78
:101CD000808396CFFE01319685E0DF011D928A95C3
:101CE000E9F782E089839A839B831F9B48C0809198
:101CF000DC009091DD0084FD83CF2091ED0080E435
:101D00008093ED0080E090E0A0E0BAE98093F000DD
:101D10009093F100A093F200B093F3008981809337
:101D2000FA008A818093FA008B818093FA008C817B
:101D30008093FA008D818093FA0085E48093EF0010
:101D40002093ED005DCF5D5A5A31B8F440689ECFC4
:101D500040814078406622E030E0261B310981E076
:101D600090E002C0880F991F2A95E2F78F71482BE7
:101D7000633008F483CF4F7B81CF4F7B87CF809137
:101D8000DC009091DD0084FD3BCF2091ED0080E4EC
:101D90008093ED0080E090E0A0E0B8E9B7CF46FF87
:101DA00081CFE0917401F09175018081842787FDD6
:101DB00011C080917B0110928001882329F0E0916D
:101DC0007E01F0917F011082E0917401F091750124
:101DD000408368CF80917B01882331F010927B0192
:101DE0001092800140835ECFE0917E01F0917F01EF
:101DF000809180018083DDCFCF93DF9300D000D02E
:101E00000F92CDB7DEB71F9908C00F900F900F90BB
:101E10000F900F90DF91CF9108952FB7F8946091B4
:101E200081037091820380918303909184032FBF7B
:101E30002AE030E040E050E00E94033C309179011C
:101E40002093790191E090937701E0917401F091F2
:101E50007501808185FD43C0922F931B8062808332
:101E600050917801590F50937801943260F160914C
:101E70007A01662309F071C0550F509378014081B3
:101E800040784066446010927A01852F84598931E8
:101E900008F05EC04F7780917C01481709F484C038
:101EA000E0917401F091750180818F7B8083409374
:101EB0007C01109278010F900F900F900F900F906F
:101EC000DF91CF91089580917A018F5F80937A019D
:101ED000833009F09ACF80818F7B808396CFFE017B
:101EE000319685E0DF011D928A95E9F782E08983CA
:101EF0009A839B831F9B48C08091DC009091DD00FA
:101F000084FD83CF2091ED0080E48093ED0080E09C
:101F100090E0A0E0BAE98093F0009093F100A093E4
:101F2000F200B093F30089818093FA008A81809354
:101F3000FA008B818093FA008C818093FA008D8166
:101F40008093FA0085E48093EF002093ED005DCF4D
:101F50005D5A5A31B8F440689ECF4081407840665F
:101F600022E030E0261B310981E090E002C0880FBA
:101F7000991F2A95E2F78F71482B633008F483CFBD
:101F80004F7B81CF4F7B87CF8091DC009091DD002C
:101F900084FD3BCF2091ED0080E48093ED0080E054
:101FA00090E0A0E0B8E9B7CF46FF81CFE09174019F
:101FB000F09175018081842787FD11C080917B019C
:101FC00010928001882329F0E0917E01F0917F0139
:101FD0001082E0917401F0917501408368CF809187
:101FE0007B01882331F010927B01109280014083A5
:101FF0005ECFE0917E01F0917F018091800180832E
:10200000DDCFCF93DF9300D000D00F92CDB7DEB7F6
:102010001F9B08C00F900F900F900F900F90DF91B3
:10202000CF910895DB012C9191E090937701E0919D
:102030007401F0917501808185FD44C080628083C8
:1020400050917801520F50937801243260F16091E1
:102050007A01662309F074C0550F509378014081CE
:1020600040784066446010927A01852F8459893106
:1020700008F061C04F7780917C01481709F487C050
:10208000E0917401F091750180818F7B8083409392
:102090007C01109278010F900F900F900F900F908D
:1020A000DF91CF91089580917A018F5FA4E7B1E02D
:1020B00016968C931697833009F0ACCF80818F7B76
:1020C0008083A8CFFE01319685E0DF011D928A95BD
:1020D000E9F782E089839A839B831F9B48C08091A4
:1020E000DC009091DD0084FD95CF2091ED0080E42F
:1020F0008093ED0080E090E0A0E0BAE98093F000EA
:102100009093F100A093F200B093F3008981809343
:10211000FA008A818093FA008B818093FA008C8187
:102120008093FA008D818093FA0085E48093EF001C
:102130002093ED006FCF5D5A5A31B8F440689BCFC1
:1021400040814078406622E030E0261B310981E082
:1021500090E002C0880F991F2A95E2F78F71482BF3
:10216000633008F480CF4F7B7ECF4F7B84CF80914C
:10217000DC009091DD0084FD4DCF2091ED0080E4E6
:102180008093ED0080E090E0A0E0B8E9B7CF46FF93
:102190007ECFE0917401F09175018081842787FDE5
:1021A00011C080917B0110928001882329F0E09179
:1021B0007E01F0917F011082E0917401F091750130
:1021C000408365CF80917B01882331F010927B01A1
:1021D0001092800140835BCFE0917E01F0917F01FE
:1021E000809180018083DDCFCF93DF9300D000D03A
:1021F0000F92CDB7DEB71F9908C00F900F900F90C8
:102200000F900F90DF91CF910895DB012C9191E019
:1022100090937701E0917401F0917501808185FDC3
:1022200044C08062808350917801520F50937801AE
:10223000243260F160917A01662309F074C0550F71
:1022400050937801408140784066446010927A0152
:10225000852F8459893108F061C04F7780917C01C6
:10226000481709F487C0E0917401F09175018081ED
:102270008F7B808340937C01109278010F900F90A8
:102280000F900F900F90DF91CF91089580917A0178
:102290008F5FA4E7B1E016968C931697833009F010
:1022A000ACCF80818F7B8083A8CFFE01319685E003
:1022B000DF011D928A95E9F782E089839A839B83E7
:1022C0001F9B48C08091DC009091DD0084FD95CF7C
:1022D0002091ED0080E48093ED0080E090E0A0E0AC
:1022E000BAE98093F0009093F100A093F200B093CC
:1022F000F30089818093FA008A818093FA008B81B0
:102300008093FA008C818093FA008D818093FA008B
:1023100085E48093EF002093ED006FCF5D5A5A3132
:10232000B8F440689BCF40814078406622E030E0BE
:10233000261B310981E090E002C0880F991F2A9581
:10234000E2F78F71482B633008F480CF4F7B7ECF4C
:102350004F7B84CF8091DC009091DD0084FD4DCFD8
:102360002091ED0080E48093ED0080E090E0A0E01B
:10237000B8E9B7CF46FF7ECFE0917401F0917501C7
:102380008081842787FD11C080917B01109280019C
:10239000882329F0E0917E01F0917F011082E09185
:1023A0007401F0917501408365CF80917B01882392
:1023B00031F010927B011092800140835BCFE0915D
:1023C0007E01F0917F01809180018083DDCFF894C0
:1023D00028E088E190E00FB6F894A895809360001B
:1023E0000FBE209360000000FECF1F990895FB01EF
:1023F00080818230D9F781818330C1F7828182FD6B
:10240000F5CF2FB7F8948091810390918203A0912A
:102410008303B09184032FBF89352BE1920720E01D
:10242000A20720E0B20710F3809137018823F1F270
:102430000E94E7111F9B0895FB0180818230D9F72C
:1024400081818330C1F7828182FDF5CF2FB7F89467
:102450008091810390918203A0918303B0918403C2
:102460002FBF89352BE1920720E0A20720E0B207B9
:1024700010F3809137018823F1F20E94E7111F9237
:102480000F920FB60F920BB60F9211242F933F931A
:102490004F935F936F937F938F939F93AF93BF936C
:1024A000EF93FF93E0911304F091140480911104D1
:1024B000909112040995FF91EF91BF91AF919F9177
:1024C0008F917F916F915F914F913F912F910F90DD
:1024D0000BBE0F900FBE0F901F9018951F920F927A
:1024E0000FB60F920BB60F9211242F933F934F9379
:1024F0005F936F937F938F939F93AF93BF93EF936C
:10250000FF93E0910F04F091100480910D049091DD
:102510000E040995FF91EF91BF91AF919F918F911B
:102520007F916F915F914F913F912F910F900BBED3
:102530000F900FBE0F901F9018951F920F920FB61D
:102540000F920BB60F9211242F933F934F935F93EB
:102550006F937F938F939F93AF93BF93EF93FF936B
:10256000E0910B04F0910C048091090490910A040D
:102570000995FF91EF91BF91AF919F918F917F91BD
:102580006F915F914F913F912F910F900BBE0F90E4
:102590000FBE0F901F9018951F920F920FB60F92BB
:1025A0000BB60F9211242F933F934F935F936F932A
:1025B0007F938F939F93AF93BF93EF93FF93E0919C
:1025C0000704F09108048091050490910604099590
:1025D000FF91EF91BF91AF919F918F917F916F91FB
:1025E0005F914F913F912F910F900BBE0F900FBEB7
:1025F0000F901F9018951F920F920FB60F920BB667
:102600000F9211242F933F934F935F936F937F9378
:102610008F939F93AF93BF93EF93FF93E091030446
:10262000F091040480910104909102040995FF91B6
:10263000EF91BF91AF919F918F917F916F915F913A
:102640004F913F912F910F900BBE0F900FBE0F90A7
:102650001F9018951F920F920FB60F920BB60F9204
:1026600011242F933F934F935F936F937F938F9397
:102670009F93AF93BF93EF93FF93E091FF03F0918C
:1026800000048091FD039091FE030995FF91EF9165
:10269000BF91AF919F918F917F916F915F914F917A
:1026A0003F912F910F900BBE0F900FBE0F901F9078
:1026B00018951F920F920FB60F920BB60F9211241E
:1026C0002F933F934F935F936F937F938F939F933A
:1026D000AF93BF93EF93FF93E091FB03F091FC0363
:1026E0008091F9039091FA030995FF91EF91BF91C1
:1026F000AF919F918F917F916F915F914F913F919A
:102700002F910F900BBE0F900FBE0F901F9018953A
:102710001F920F920FB60F920BB60F9211242F93A8
:102720003F934F935F936F937F938F939F93AF9359
:10273000BF93EF93FF93E091F703F091F80380913B
:10274000F5039091F6030995FF91EF91BF91AF9139
:102750009F918F917F916F915F914F913F912F91B9
:102760000F900BBE0F900FBE0F901F9018951F92E9
:102770000F920FB60F920BB60F9211242F933F9327
:102780004F935F936F937F938F939F93AF93BF9379
:10279000EF93FF93E091F303F091F4038091F10341
:1027A0009091F2030995FF91EF91BF91AF919F91A5
:1027B0008F917F916F915F914F913F912F910F90EA
:1027C0000BBE0F900FBE0F901F9018951F920F9287
:1027D0000FB60F920BB60F9211242F933F934F9386
:1027E0005F936F937F938F939F93AF93BF93EF9379
:1027F000FF93E091EF03F091F0038091ED0390914E
:10280000EE030995FF91EF91BF91AF919F918F9149
:102810007F916F915F914F913F912F910F900BBEE0
:102820000F900FBE0F901F9018951F920F920FB62A
:102830000F920BB60F9211242F933F934F935F93F8
:102840006F937F938F939F93AF93BF93EF93FF9378
:10285000E091EB03F091EC038091E9039091EA039E
:102860000995FF91EF91BF91AF919F918F917F91CA
:102870006F915F914F913F912F910F900BBE0F90F1
:102880000FBE0F901F9018951F920F920FB60F92C8
:102890000BB60F9211242F933F934F935F936F9337
:1028A0007F938F939F93AF93BF93EF93FF93E091A9
:1028B000E703F091E8038091E5039091E603099521
:1028C000FF91EF91BF91AF919F918F917F916F9108
:1028D0005F914F913F912F910F900BBE0F900FBEC4
:1028E0000F901F9018951F920F920FB60F920BB674
:1028F0000F9211242F933F934F935F936F937F9386
:102900008F939F93AF93BF93EF93FF93E091E30374
:10291000F091E4038091E1039091E2030995FF9126
:10292000EF91BF91AF919F918F917F916F915F9147
:102930004F913F912F910F900BBE0F900FBE0F90B4
:102940001F9018951F920F920FB60F920BB60F9211
:1029500011242F933F934F935F936F937F938F93A4
:102960009F93AF93BF93EF93FF93E091DF03F091B9
:10297000E0038091DD039091DE030995FF91EF91D3
:10298000BF91AF919F918F917F916F915F914F9187
:102990003F912F910F900BBE0F900FBE0F901F9085
:1029A00018951F920F920FB60F920BB60F9211242B
:1029B0002F933F934F935F936F937F938F939F9347
:1029C000AF93BF93EF93FF93E091DB03F091DC03B0
:1029D0008091D9039091DA030995FF91EF91BF910E
:1029E000AF919F918F917F916F915F914F913F91A7
:1029F0002F910F900BBE0F900FBE0F901F90189548
:102A00001F920F920FB60F920BB60F9211242F93B5
:102A10003F934F935F936F937F938F939F93AF9366
:102A2000BF93EF93FF93E091D703F091D803809188
:102A3000D5039091D6030995FF91EF91BF91AF9186
:102A40009F918F917F916F915F914F913F912F91C6
:102A50000F900BBE0F900FBE0F901F9018951F92F6
:102A60000F920FB60F920BB60F9211242F933F9334
:102A70004F935F936F937F938F939F93AF93BF9386
:102A8000EF93FF93E091D303F091D4038091D103AE
:102A90009091D2030995FF91EF91BF91AF919F91D2
:102AA0008F917F916F915F914F913F912F910F90F7
:102AB0000BBE0F900FBE0F901F9018951F920F9294
:102AC0000FB60F920BB60F9211242F933F934F9393
:102AD0005F936F937F938F939F93AF93BF93EF9386
:102AE000FF93E091CF03F091D0038091CD039091BB
:102AF000CE030995FF91EF91BF91AF919F918F9177
:102B00007F916F915F914F913F912F910F900BBEED
:102B10000F900FBE0F901F9018951F920F920FB637
:102B20000F920BB60F9211242F933F934F935F9305
:102B30006F937F938F939F93AF93BF93EF93FF9385
:102B4000E091CB03F091CC038091C9039091CA032B
:102B50000995FF91EF91BF91AF919F918F917F91D7
:102B60006F915F914F913F912F910F900BBE0F90FE
:102B70000FBE0F901F9018951F920F920FB60F92D5
:102B80000BB60F9211242F933F934F935F936F9344
:102B90007F938F939F93AF93BF93EF93FF93E091B6
:102BA000C703F091C8038091C5039091C6030995AE
:102BB000FF91EF91BF91AF919F918F917F916F9115
:102BC0005F914F913F912F910F900BBE0F900FBED1
:102BD0000F901F9018951F920F920FB60F920BB681
:102BE0000F9211242F933F934F935F936F937F9393
:102BF0008F939F93AF93BF93EF93FF93E091C303A2
:102C0000F091C4038091C1039091C2030995FF9193
:102C1000EF91BF91AF919F918F917F916F915F9154
:102C20004F913F912F910F900BBE0F900FBE0F90C1
:102C30001F9018951F920F920FB60F920BB60F921E
:102C400011242F933F934F935F936F937F938F93B1
:102C50009F93AF93BF93EF93FF93E091BF03F091E6
:102C6000C0038091BD039091BE030995FF91EF9140
:102C7000BF91AF919F918F917F916F915F914F9194
:102C80003F912F910F900BBE0F900FBE0F901F9092
:102C900018951F920F920FB60F920BB60F92112438
:102CA0002F933F934F935F936F937F938F939F9354
:102CB000AF93BF93EF93FF93E091BB03F091BC03FD
:102CC0008091B9039091BA030995FF91EF91BF915B
:102CD000AF919F918F917F916F915F914F913F91B4
:102CE0002F910F900BBE0F900FBE0F901F90189555
:102CF0001F920F920FB60F920BB60F9211242F93C3
:102D00003F934F935F936F937F938F939F93AF9373
:102D1000BF93EF93FF93E091B703F091B8038091D5
:102D2000B5039091B6030995FF91EF91BF91AF91D3
:102D30009F918F917F916F915F914F913F912F91D3
:102D40000F900BBE0F900FBE0F901F9018951F9203
:102D50000F920FB60F920BB60F9211242F933F9341
:102D60004F935F936F937F938F939F93AF93BF9393
:102D7000EF93FF93E091B303F091B4038091B1031B
:102D80009091B2030995FF91EF91BF91AF919F91FF
:102D90008F917F916F915F914F913F912F910F9004
:102DA0000BBE0F900FBE0F901F9018951F920F92A1
:102DB0000FB60F920BB60F9211242F933F934F93A0
:102DC0005F936F937F938F939F93AF93BF93EF9393
:102DD000FF93E091AF03F091B0038091AD03909128
:102DE000AE030995FF91EF91BF91AF919F918F91A4
:102DF0007F916F915F914F913F912F910F900BBEFB
:102E00000F900FBE0F901F9018951F920F920FB644
:102E10000F920BB60F9211242F933F934F935F9312
:102E20006F937F938F939F93AF93BF93EF93FF9392
:102E3000E091AB03F091AC038091A9039091AA03B8
:102E40000995FF91EF91BF91AF919F918F917F91E4
:102E50006F915F914F913F912F910F900BBE0F900B
:102E60000FBE0F901F9018951F920F920FB60F92E2
:102E70000BB60F9211242F933F934F935F936F9351
:102E80007F938F939F93AF93BF93EF93FF93E091C3
:102E9000A703F091A8038091A5039091A60309953B
:102EA000FF91EF91BF91AF919F918F917F916F9122
:102EB0005F914F913F912F910F900BBE0F900FBEDE
:102EC0000F901F9018951F920F920FB60F920BB68E
:102ED0000F9211242F933F934F935F936F937F93A0
:102EE0008F939F93AF93BF93EF93FF93E091A303CF
:102EF000F091A4038091A1039091A2030995FF9101
:102F0000EF91BF91AF919F918F917F916F915F9161
:102F10004F913F912F910F900BBE0F900FBE0F90CE
:102F20001F9018951F920F920FB60F920BB60F922B
:102F300011242F933F934F935F936F937F938F93BE
:102F40009F93AF93BF93EF93FF93E0919F03F09113
:102F5000A00380919D0390919E030995FF91EF91AD
:102F6000BF91AF919F918F917F916F915F914F91A1
:102F70003F912F910F900BBE0F900FBE0F901F909F
:102F800018951F920F920FB60F920BB60F92112445
:102F90002F933F934F935F936F937F938F939F9361
:102FA000AF93BF93EF93FF93E0919B03F0919C034A
:102FB0008091990390919A030995FF91EF91BF91A8
:102FC000AF919F918F917F916F915F914F913F91C1
:102FD0002F910F900BBE0F900FBE0F901F90189562
:102FE0001F920F920FB60F920BB60F9211242F93D0
:102FF0003F934F935F936F937F938F939F93AF9381
:10300000BF93EF93FF93E0919703F0919803809122
:103010009503909196030995FF91EF91BF91AF9120
:103020009F918F917F916F915F914F913F912F91E0
:103030000F900BBE0F900FBE0F901F9018951F9210
:103040000F920FB60F920BB60F9211242F933F934E
:103050004F935F936F937F938F939F93AF93BF93A0
:10306000EF93FF93E0919303F09194038091910388
:10307000909192030995FF91EF91BF91AF919F912C
:103080008F917F916F915F914F913F912F910F9011
:103090000BBE0F900FBE0F901F9018951F920F92AE
:1030A0000FB60F920BB60F9211242F933F934F93AD
:1030B0005F936F937F938F939F93AF93BF93EF93A0
:1030C000FF93E0918F03F091900380918D03909195
:1030D0008E030995FF91EF91BF91AF919F918F91D1
:1030E0007F916F915F914F913F912F910F900BBE08
:1030F0000F900FBE0F901F9018951F920F920FB652
:103100000F920BB60F9211242F933F934F935F931F
:103110006F937F938F939F93AF93BF93EF93FF939F
:10312000E0918B03F0918C038091890390918A0345
:103130000995FF91EF91BF91AF919F918F917F91F1
:103140006F915F914F913F912F910F900BBE0F9018
:103150000FBE0F901F9018951F920F920FB60F92EF
:103160000BB60F9211242F933F934F935F936F935E
:103170007F938F939F93AF93BF93EF93FF93E091D0
:103180008703F091880380918503909186030995C8
:10319000FF91EF91BF91AF919F918F917F916F912F
:1031A0005F914F913F912F910F900BBE0F900FBEEB
:1031B0000F901F901895CF92DF92EF92FF920F938E
:1031C0001F93CF93DF937C01DC011596ED91FC9169
:1031D000169780812181813209F4F8C08232D0F0C3
:1031E000813309F41DC1823308F455C0833309F4D7
:1031F00021C1833308F03BC182E3F701858B05844D
:10320000F685E02D82E0922F2FB7F894918380838A
:103210002FBF9BC0813109F4D9C0823108F05BC057
:10322000833009F407C1843009F4C2C0882309F04F
:103230008CC0E7018D89813209F457C1823208F4CC
:103240001AC1813309F40BC3823309F40AC28232F2
:1032500009F07BC0E70188819981AA81BB814E89F1
:103260005F89688D798D84179507A607B70708F4DD
:103270002EC3AC01BD014150504060407040652FED
:103280006F70482F4150487F82EC20E00E94380444
:1032900088E799E61DC1833209F4CCC0833208F473
:1032A0005DC0843209F051C0E701488159816A81CB
:1032B0007B81DB01CA010197A109B1099F704150CF
:1032C000487F82EC692F20E00E94380488E799E665
:1032D0000197F1F747C0833109F4ACC0833108F09E
:1032E0003FC082E1F701858B0780F085E02D8FB725
:1032F000F894408151818FBFD7011996ED91FC91CF
:103300001A978FB7F894208131818FBFE701EB8541
:10331000FC856FB7F894808191816FBFF701588366
:1033200049833A831B822E8B9F8B888F198E05844D
:10333000F685E02DAD81BE8182E011969C911197BA
:103340002FB7F894918380832FBFDF91CF911F9186
:103350000F91FF90EF90DF90CF90089582E2C2CF5F
:10336000843199F7F7014081518162817381415025
:103370005040604070408A019B01A9E03695279536
:1033800017950795AA95D1F776956795579547951F
:1033900040788CE4602F20E00E9438048CEB94E3AA
:1033A0000197F1F7D7011596ED91FC9116972181C0
:1033B000E701ED85FE8584E0922F2FB7F894918385
:1033C00080832FBF24982C9A0E94E711F701858BE8
:1033D0000780F085E02D8FB7F894408151818FBF31
:1033E000D7011996ED91FC911A978FB7F894208127
:1033F00031818FBFE701EB85FC856FB7F894808141
:1034000091816FBF588349833A831B822E8B9F8B98
:10341000888F198EED85FE85AD81BE8181E08DCFCF
:10342000D70155968C9355971D96ED91FC911E975B
:1034300081E0E9CE8CEA60E840E020E00E943804B8
:1034400088E799E60197F1F7E701AD85BE85ED8143
:10345000FE8183E091812FB7F89411969C938E930F
:103460002FBFED85FE85AD81BE8180E066CF8433C0
:1034700009F06BCF9DCF813109F4F7C0823109F09B
:1034800064CF88819981AA81BB814E895F89688DCB
:10349000798D84179507A607B70708F48AC30197A3
:1034A000A109B1098C019D0169E036952795179511
:1034B00007956A95D1F7B695A79597958795482F63
:1034C00040788CE4602F20E00E9438048CEB94E379
:1034D0000197F1F7D7011D96ED91FC911E97159676
:1034E0000D90BC91A02D80E028CFF7010F84D889E2
:1034F000C02D40816181677080EA20E00E9438041D
:10350000D82ED7010D911D912D913C910F5F1F4F2A
:103510002F4F3F4FF7010083118322833383612FA5
:10352000677080EA402F20E00E943804D7014D9157
:103530005D916D917C9113974F5F5F4F6F4F7F4F00
:10354000F7014083518362837383282F3D2D8FB70A
:10355000F894398328838FBF5196CD91DC9152978F
:103560004C9111966C91677080EA20E00E943804BB
:10357000D82EF70100811181228133810F5F1F4F07
:103580002F4F3F4F0083118322833383612F677056
:1035900080EA402F20E00E943804F70140815181E9
:1035A000628173814F5F5F4F6F4F7F4F40835183C5
:1035B00062837383282F3D2D8FB7F8943983288336
:1035C0008FBFC389D48940816181677080EA20E020
:1035D0000E943804D82ED7010D911D912D913C9158
:1035E0000F5F1F4F2F4F3F4FF7010083118322833F
:1035F0003383612F677080EA402F20E00E943804F7
:10360000D7014D915D916D917C9113974F5F5F4F05
:103610006F4F7F4FF7014083518362837383282F5D
:103620003D2D8FB7F894398328838FBF4D915D91DD
:103630006D917C91139756968D919D910D90BC91B3
:10364000A02D84179507A607B70708F038C1D70142
:103650000584F685E02D15960D90BC91A02D80E097
:103660006CCEED85FE8580E0CECDF7010F84D88944
:10367000C02D0081118122813381802F8170880FBC
:10368000880F880FB901A801A9E07695679557952D
:103690004795AA95D1F73695279517950795806296
:1036A000642F402F20E00E943804D82ED7010D91BE
:1036B0001D912D913C910F5F1F4F2F4F3F4FF701F1
:1036C0000083118322833383802F8170880F880FBA
:1036D000880FB901A80199E07695679557954795A8
:1036E0009A95D1F736952795179507958062642F9F
:1036F000402F20E00E943804D7014D915D916D91DB
:103700007C9113974F5F5F4F6F4F7F4FF70140835F
:10371000518362837383282F3D2D8FB7F8943983AB
:1037200028838FBF5196CD91DC9152970D911D91B9
:103730002D913C91802F8170880F880F880FB901DF
:10374000A80199E076956795579547959A95D1F791
:1037500036952795179507958062642F402F20E0B6
:103760000E943804D82EF701008111812281338113
:103770000F5F1F4F2F4F3F4F0083118322833383EF
:10378000802F8170880F880F880FB901A80199E0F8
:1037900076956795579547959A95D1F736952795DC
:1037A000179507958062642F402F20E00E9438040F
:1037B000F70140815181628173814F5F5F4F6F4F8D
:1037C0007F4F4083518362837383282F3D2D8FB7B2
:1037D000F894398328838FBFC389D48900811181EC
:1037E00022813381802F8170880F880F880FB90163
:1037F000A80199E076956795579547959A95D1F7E1
:1038000036952795179507958062642F402F20E005
:103810000E943804D82ED7010D911D912D913C9115
:1038200013970F5F1F4F2F4F3F4FF70100831183F7
:1038300022833383802F8170880F880F880FB9010E
:10384000A80199E076956795579547959A95D1F790
:1038500036952795179507958062642FCDCE0F84F6
:10386000D889C02D88E568E040E020E00E94380457
:10387000082F80E560E040E020E00E943804202F1F
:10388000382F8FB7F894398328838FBFD70151968B
:10389000CD91DC91529780E568E040E020E00E9405
:1038A000380420E0382F8FB7F894398328838FBFEE
:1038B000E701ED85FE85AD81BE8180E03ECDE7016B
:1038C0000584F685E02DAD81BE8181E036CDEF81A6
:1038D000F8852FB7F894808191812FBFD82E092FBA
:1038E000488159816A817B81DB01CA0187709070B0
:1038F000A070B0700097A105B105A9F4DB01CA0161
:103900000197A109B1099F704150487F82EC692F4E
:1039100020E00E94380488E799E60197F1F7488192
:1039200059816A817B81477081EC60E0202F0E9481
:103930003804E70188819981AA81BB818C019D01AE
:103940000F5F1F4F2F4F3F4F088319832A833B83FD
:10395000B901A80147705070607070704115510531
:103960006105710589F4692F6F70402F4150487FC0
:1039700082EC20E00E94380488E799E60197F1F78D
:10398000088119812A813B81402F477081EC60E0DA
:103990002D2D0E943804E70188819981AA81BB817D
:1039A0000196A11DB11D88839983AA83BB834E898B
:1039B0005F89688D798D84179507A607B70708F08A
:1039C00058CCE985FA852FB7F894808191812FBF73
:1039D000D82E092F488159816A817B81DB01CA0178
:1039E00087709070A070B0700097A105B105A9F420
:1039F000DB01CA010197A109B1099F704150487FBD
:103A000082EC692F20E00E94380488E799E601974C
:103A1000F1F7488159816A817B81477081EC60E0D0
:103A2000202F0E943804F70180819181A281B38107
:103A30008C019D010F5F1F4F2F4F3F4FE701008308
:103A4000118322833383B901A801477050706070DD
:103A50007070411551056105710589F4692F6F700A
:103A6000402F4150487F82EC20E00E94380488E7D4
:103A700099E60197F1F7088119812A813B81402F4E
:103A8000477081EC60E02D2D0E943804E7018881A9
:103A90009981AA81BB810196A11DB11D888399835B
:103AA000AA83BB834E895F89688D798D84179507BA
:103AB000A607B70708F0DDCBEB85FC852FB7F89498
:103AC000808191812FBFD82E092F488159816A8129
:103AD0007B81DB01CA0187709070A070B070009785
:103AE000A105B105A9F4DB01CA010197A109B1093A
:103AF0009F704150487F82EC692F20E00E9438047B
:103B000088E799E60197F1F7488159816A817B81BD
:103B1000477081EC60E0202F0E943804F70180811B
:103B20009181A281B3818C019D010F5F1F4F2F4FA7
:103B30003F4FE7010083118322833383B901A8013A
:103B400047705070607070704115510561057105C6
:103B500089F4692F6F70402F4150487F82EC20E03C
:103B60000E94380488E799E60197F1F708811981E6
:103B70002A813B81402F477081EC60E02D2D0E940F
:103B80003804E70188819981AA81BB810196A11D32
:103B9000B11DF70188839983AA83BB834E895F890E
:103BA000688D798D84179507A607B70708F4BFCBF2
:103BB00060CBEF81F8852FB7F894808191812FBF7A
:103BC0006C01088119812A813B81D901C8018F7755
:103BD0009070A070B0700097A105B10509F5015073
:103BE000104020403040B901A80189E076956795E2
:103BF000579547958A95D1F7369527951795079547
:103C000000788CE4642F402F20E00E9438048CEB75
:103C100094E30197F1F7E701088119812A813B813B
:103C2000802F8170880F880F880F369527951795FC
:103C30000795806460E0402F2D2D0E943804F70125
:103C40000081118122813381B901A8014F5F5F4F4B
:103C50006F4F7F4F4083518362837383DB01CA01BF
:103C60008F779070A070B0700097A105B105E9F44E
:103C7000B901A801F9E07695679557954795FA95AA
:103C8000D1F7369527951795079500788CE4642F22
:103C9000402F20E00E9438048CEB94E30197F1F769
:103CA000E701488159816A817B81842F8170880F67
:103CB000880F880F8A019B013695279517950795E0
:103CC000806460E0402F2C2D0E943804F701808131
:103CD0009181A281B3810196A11DB11DE70180836D
:103CE0009183A283B38346895789608D718D841730
:103CF0009507A607B70708F0D2CB0184F285E02D1F
:103D00002FB7F894808191812FBF6C0108811981B0
:103D10002A813B81D901C8018F779070A070B07063
:103D20000097A105B10501F5015010402040304039
:103D3000B901A80189E076956795579547958A95C9
:103D4000D1F7369527951795079500788CE4642F61
:103D5000402F20E00E9438048CEB94E30197F1F7A8
:103D6000088119812A813B81802F8170880F880FFB
:103D7000880F3695279517950795806460E0402F4A
:103D80002D2D0E943804E701088119812A813B8189
:103D9000B901A8014F5F5F4F6F4F7F4F4883598331
:103DA0006A837B83DB01CA018F779070A070B0704B
:103DB0000097A105B105E1F4B901A801F9E07695F4
:103DC000679557954795FA95D1F7369527951795A5
:103DD000079500788CE4642F402F20E00E9438047F
:103DE0008CEB94E30197F1F7488159816A817B81DB
:103DF000842F8170880F880F880F8A019B01369568
:103E0000279517950795806460E0402F2C2D0E9420
:103E10003804E70188819981AA81BB810196A11D9F
:103E2000B11D88839983AA83BB834E895F89688D7E
:103E3000798D84179507A607B70708F030CBEB8577
:103E4000FC852FB7F894808191812FBF6C01088188
:103E500019812A813B81D901C8018F779070A070A8
:103E6000B0700097A105B10501F501501040204048
:103E70003040B901A80189E0769567955795479537
:103E80008A95D1F7369527951795079500788CE494
:103E9000642F402F20E00E9438048CEB94E30197BC
:103EA000F1F7088119812A813B81802F8170880F69
:103EB000880F880F3695279517950795806460E0E1
:103EC000402F2D2D0E943804F7010081118122819D
:103ED0003381B901A8014F5F5F4F6F4F7F4F408320
:103EE000518362837383DB01CA018F779070A07066
:103EF000B0700097A105B105E9F4B901A801F9E096
:103F00007695679557954795FA95D1F73695279504
:103F10001795079500788CE4642F402F20E00E94CD
:103F200038048CEB94E30197F1F7E701488159815C
:103F30006A817B81842F8170880F880F880F8A01A6
:103F40009B013695279517950795806460E0402F73
:103F50002C2D0E943804F70180819181A281B381C8
:103F60000196A11DB11DE70180839183A283B383D4
:103F700046895789608D718D84179507A607B70705
:103F800008F08DCA0584F685E02DAD81BE8182E002
:103F9000D4C90E94DB180895CF93DF9300D000D0DE
:103FA0000F92CDB7DEB760917F02809180026430BE
:103FB00051F0603141F00F900F900F900F900F90E3
:103FC000DF91CF910895853029F1863009F4D9C069
:103FD0008D3009F488C08E3009F45DC0833059F704
:103FE000603149F780ED89831A821B821C821D8211
:103FF0001F9BF2C08091DC009091DD0084FDDBCF3F
:104000002091ED0080E48093ED0080E090E0A0E856
:10401000B6EC90C0E4E0F1E0A491AA0FAA0FAA0FB9
:1040200009F4D8C09F0124503040A150B0E0AA0F3D
:10403000BB1FAE5FBE4F40E050E0F9018591949107
:10404000480F591F2E5F3F4F2A173B07B1F7FE015C
:10405000319685E0DF011D928A95E9F7E5E0F1E010
:10406000E491EA834D83643009F488C0603109F03B
:10407000A2CF1F999FC08091DC009091DD0084FD4C
:104080009ACF2091ED0080E48093ED0080E090E0F5
:10409000A0E6B6EC4FC01F9B8ECF80ED898387E7EB
:1040A00090E00E94733D8A8386E790E00E94733D12
:1040B0008B8385E790E00E94733D8C8384E790E0DA
:1040C0000E94733D8D838091DC009091DD0084FD22
:1040D00072CF2091ED0080E48093ED0080E090E0CD
:1040E000A0E0BAE927C01F9966CF80ED898387E7F2
:1040F00090E00E94733D8A8386E790E00E94733DC2
:104100008B8385E790E00E94733D8C8384E790E089
:104110000E94733D8D838091DC009091DD0084FDD1
:104120004ACF2091ED0080E48093ED0080E090E0A4
:10413000A0E0B8E98093F0009093F100A093F20022
:10414000B093F30089818093FA008A818093FA000A
:104150008B818093FA008C818093FA008D8180930B
:10416000FA0085E48093EF002093ED000F900F900C
:104170000F900F900F90DF91CF9108951F99A3CFCB
:10418000CACF84E790E0609184020E94873D85E772
:1041900090E0609183020E94873D86E790E0609105
:1041A00082020E94873D87E790E0609181020E9431
:1041B000873D01CF8091DC009091DD0084FDFBCE36
:1041C0002091ED0080E48093ED0080E090E0A0E895
:1041D000B6ECB0CF40E03BCF8091DC009091DD00A9
:1041E00084FDE9CE2091ED0080E48093ED0080E035
:1041F00090E0A0E6B6EC9ECFCB010E94CC1F0895C4
:104200008091070286FF09C08F73853209F44AC086
:10421000863220F4813209F491C00895873209F47E
:10422000CCC08932D1F72FB7F8943FB7F89480917A
:10423000B3019091B40191609093B4018093B30164
:104240003FBF2FBFE0EFF2E09FB7F894808581FD7C
:10425000FAC0808582FDF7C08085846080879FBF1B
:104260002FB7F8948091810390918203A0918303EA
:10427000B09184032FBF88519C4FAF4FBF4FA170A7
:10428000B070868397839A2F917080858E7F892B5B
:1042900080871182108281E591E09383828388E098
:1042A00090E03EC02FB7F8943FB7F8948091B301E7
:1042B0009091B40194609093B4018093B3013FBF97
:1042C0002FBFE0EFF2E09FB7F894808581FDC3C077
:1042D000808582FDC0C08085846080879FBF2FB7A6
:1042E000F8948091810390918203A0918303B0910F
:1042F00084032FBF88519C4FAF4FBF4FA170B07048
:10430000868397839A2F917080858E7F892B8087F3
:104310001182108281E591E0938382838AE090E0AC
:104320009583848380858260808780858B7F80876A
:104330008091EF028F5F8093EF0208952FB7F8947A
:104340003FB7F8948091B3019091B401926090933B
:10435000B4018093B3013FBF2FBFE0EFF2E09FB7FE
:10436000F894808581FD7FC0808582FD7CC080853A
:10437000846080879FBF2FB7F894809181039091CC
:104380008203A0918303B09184032FBF88519C4F77
:10439000AF4FBF4FA170B070868397839A2F9170F3
:1043A00080858E7F892B80871182108281E591E044
:1043B0009383828389E090E0B3CF2FB7F8943FB71F
:1043C000F8948091B3019091B40198609093B401F6
:1043D0008093B3013FBF2FBFE0EFF2E09FB7F894A7
:1043E000808581FD29C0808582FD26C0808584600E
:1043F00080879FBF2FB7F8948091810390918203AB
:10440000A0918303B09184032FBF88519C4FAF4F7D
:10441000BF4FA170B070868397839A2F917080856B
:104420008E7F892B80871182108281E591E09383B2
:1044300082838BE090E074CF9FBF399683E0E038B1
:10444000F80761F608959FBF399683E0E038F807D2
:1044500009F0FACE08959FBF399683E0E038F80757
:1044600009F031CF08959FBF399683E0E038F8070F
:1044700009F075CF0895CB010E94002108951F9384
:10448000CF93DF93EB010E94733D182FCE010E9462
:10449000733D87FD15C08F77412F50E09A01220FA1
:1044A000331F440F551F440F551F440F551F240F32
:1044B000351F280F311DC901DF91CF911F9108953C
:1044C000412F50E09A01220F331F440F551F440F14
:1044D000551F440F551F240F351F8F77281B310997
:1044E000C901DF91CF911F9108950F931F93CF932F
:1044F000DF93FC018281809381018181809382011D
:104500002381822F90E0807C90709595879595957A
:10451000879590819F74982B90938301822F8F7041
:1045200090918501892B80938501848180938601F8
:104530003581832F90E02091B80120783072232BB1
:10454000DC01AF70B070A65CBE4F3C91232B807C29
:104550009070009709F08DC02093B801808185FF8D
:1045600073C010922401A0911001B09111011A960C
:104570001C92A0911201B09113011A961C921A97E5
:10458000938181E095FF80E0C0911001D0911101ED
:10459000A0911201B09113018B871B968C932FB7BA
:1045A000F8948091810390918203A0918303B0914C
:1045B00084032FBF4091180A5091190A60911A0A7A
:1045C00070911B0A8C019D01041B150B260B370BE8
:1045D000B901A801413A1FE0510710E0610710E05E
:1045E000710708F0A7C08093180A9093190AA09346
:1045F0001A0AB0931B0A868181FD37C02FB7F89441
:104600008091810390918203A0918303B0918403F0
:104610002FBF89352BE1920720E0A20720E0B207E7
:1046200070F080913701882351F080913801882300
:1046300009F480C080913901882309F47BC0DF919F
:10464000CF911F910F91089581E080932401A09153
:104650001001B09111011A968C93A0911201B091A2
:1046600013011A968C931A978BCF878186FDE7CF1B
:10467000C5CF2068A0EFB2E09FB7F89418968C9150
:10468000189781FD4FC018968C91189782FD4AC0EB
:1046900018968C911897846018968C9318979FBFE2
:1046A0008FB7F89440918103509182036091830306
:1046B000709184038FBF48515C4F6F4F7F4F617083
:1046C000707016964C93169717965C931797962FC3
:1046D000917018968C9118978E7F892B18968C93D1
:1046E000189711961C921E9282E791E013969C9364
:1046F0008E93129715961C921E92149718968C9171
:104700001897826018968C93189718968C91189722
:104710008B7F18968C9318978091EF028F5F809310
:10472000EF021ACF9FBF199633E0A038B30709F004
:10473000A3CF12CF0E94E7111F990895CB010E94C9
:10474000752208951F9B0895CB010E94752208953C
:104750000F931F93CF93DF930091AF011091B0019E
:10476000812F912F17FF03C021E02093920196FD26
:1047700025C095FD23C0E0911001F09111018081C9
:1047800091819093BC018093BB01E0911201F09163
:104790001301808191819093BA018093B901809136
:1047A0003701882309F424C1FEE00E3F1F0709F4F6
:1047B0007FC0DF91CF911F910F91089590913701A4
:1047C000992339F01092370190916E009D7F90935C
:1047D0006E0086FF3EC065E071E0FB01949131966A
:1047E0002491592F40E030E0242B352B3093C00129
:1047F0002093BF01FB0132969491FB0133962491E3
:10480000592F40E030E0242B352B3093BE0120930C
:10481000BD01FB0134969491FB0135962491592FEB
:1048200040E030E0242B352B3093BC012093BB01BA
:10483000FB0136969491695F7F4FFB016491592F7C
:1048400040E0262F30E0242B352B3093BA01209303
:10485000B90185FFA9CFE801D070CC0FDD1FCC0FC7
:10486000DD1FCC0FDD1FCE010E94813D9093BF0163
:104870008093C001CE0102960E94813D9093BD01BC
:10488000EDEBF1E08183CE0104960E94813D90938F
:10489000BB018093BC01CE0106960E94813D90939E
:1048A000B9018093BA01FEE00E3F1F0709F081CFE6
:1048B00080913701882309F0AAC08AE190E00E9424
:1048C000443CDC0123982B9A229A219A209A8CB599
:1048D00080658CBD8CB59DB58C7F9E7F81609DBDB4
:1048E0008CBD14961C92149743E052E020E63AEEF9
:1048F0007CEA63E5249A2C98852F8A95F1F72C9A07
:10490000852F8A95F1F72C98C9010197F1F77EBDA3
:104910000DB407FEFDCF6EBD0DB407FEFDCF1EBC6E
:104920000DB407FEFDCF8EB51EBC0DB407FEFDCF46
:10493000833509F474C04150E9F614964C911497EC
:104940008FEA91E016969C938E9315979C012250C6
:10495000304018963C932E9317979C01245030407A
:104960001A963C932E9319979C01265030401C9622
:104970003C932E931B979C01205F3F4F1E963C93C8
:104980002E931D979C01225F3F4F50963C932E9390
:104990001F979C01245F3F4F52963C932E93519753
:1049A0000A9654969C938E935397442309F070C0B3
:1049B00020E2822F9091B0012FB7F8949093C0011C
:1049C0008093BF012FBFE6E9F1E0E491F0E0EE0F44
:1049D000FF1FEE0FFF1FE556FE4FB0A7A7A389EC00
:1049E0009FE192A781A7DF91CF911F910F91089529
:1049F00081E08093370116BCA99A80916E00826095
:104A000080936E000091AF011091B001CDCE109255
:104A1000370180916E008D7F80936E004ECF81E0D4
:104A200014968C9314978FEA91E016969C938E932C
:104A300015979C012250304018963C932E9317975F
:104A40009C01245030401A963C932E9319979C0158
:104A5000265030401C963C932E931B979C01205F60
:104A60003F4F1E963C932E931D979C01225F3F4F14
:104A700050963C932E931F979C01245F3F4F529674
:104A80003C932E9351970A9654969C938E935397EA
:104A900020E08FCF0E94A8230895CF93DF93CDB756
:104AA000DEB76C970FB6F894DEBF0FBECDBF80E0C7
:104AB00091E0FC01259134912115310509F4C5C11E
:104AC000FC016591749162957295707F7627607F85
:104AD00076276115710591F040E050E020E030E06C
:104AE000F90185919491480F591F2E5F3F4F26176A
:104AF0003707B0F34115510509F0A5C1000086E95B
:104B000091E0FC012491E22FF0E0EE0FFF1FEE0F89
:104B1000FF1FE556FE4F10A617A22AE435E232A782
:104B200021A7FC013497E491F0E0EE0FFF1FEE0F98
:104B3000FF1FE556FE4F10A617A222E831E032A76C
:104B400021A7FC013597E491F0E0EE0FFF1FEE0F77
:104B5000FF1FE556FE4F10A617A227E137E032A748
:104B600021A70797FC018491E82FF0E0EE0FFF1FCB
:104B7000EE0FFF1FE556FE4F80E791E090A787A359
:104B800029E73DE232A721A79093EC028093EB0244
:104B90008EEE9DE29093EE028093ED021F9B1DC26C
:104BA0001092AC021092AB028CEF90E29093AE02A6
:104BB0008093AD021092B8021092B7028CE993E292
:104BC0009093BA028093B9021092BC021092BB0279
:104BD00082EA93E29093BE028093BD021092B002EB
:104BE0001092AF0285EF91E19093B2028093B102EF
:104BF0001092B4021092B3028AE192E19093B6024D
:104C00008093B5021092E4021092E3028BE392E2E9
:104C10009093E6028093E50280E091E09093C002D9
:104C20008093BF0281E991E09093C2028093C10218
:104C30001092C4021092C30287EF9DE09093C602C7
:104C40008093C5021092D4021092D30281E090E1C9
:104C50009093D6028093D5021092C8021092C70298
:104C60008DEF9BE09093CA028093C9021092D80204
:104C70001092D70285E89CE09093DA028093D902E3
:104C80001092CC021092CB028CEF9EE09093CE0259
:104C90008093CD021092DC021092DB0284EF90E14F
:104CA0009093DE028093DD021092D0021092CF0228
:104CB0008AEF9CE09093D2028093D1021092E0029E
:104CC0001092DF0282E89DE09093E2028093E1027D
:104CD00080913701882309F4FFC0789424E031E003
:104CE000F9016491660F660F660F09F407C224503C
:104CF0003040615070E0660F771F6E5F7E4F40E07E
:104D000050E0F90185919491480F591F2E5F3F4F54
:104D100026173707B1F7FE01359685E0DF011D92B2
:104D20008A95E9F7E5E0F1E0E491EE8349871F9B7E
:104D300095C08091DC009091DD0084FD25C020911C
:104D4000ED0080E48093ED0080E090E0A0E0BAE91F
:104D50008093F0009093F100A093F200B093F300E1
:104D60008D818093FA008E818093FA008F818093E9
:104D7000FA0088858093FA0089858093FA0085E49B
:104D80008093EF002093ED0080E395E70197F1F722
:104D90008091DC009091DD0084FD25C02091ED0024
:104DA00080E48093ED0080E090E0A0E8B6EC809392
:104DB000F0009093F100A093F200B093F3008D8186
:104DC0008093FA008E818093FA008F818093FA009D
:104DD00088858093FA0089858093FA0085E4809322
:104DE000EF002093ED001F8A1E8A89E093E0682F70
:104DF000998F888F1B8E1A8E40E05F89798D80E0B5
:104E00009B8D28E53BE10E947D0483B121E030E0E9
:104E100085FD02C020E030E080911C0A90E0822BEA
:104E2000932B80931C0A009709F461C083B185FD20
:104E30005EC080E691E061E00E94873D81E691E0FE
:104E400061E00E94873D0E94E711FC0132962591A6
:104E500034912115310509F451CE32CE8091DC0018
:104E60009091DD0084FD25C02091ED0080E48093C9
:104E7000ED0080E090E0A0E0B8E98093F00090932E
:104E8000F100A093F200B093F3008D818093FA00BB
:104E90008E818093FA008F818093FA0088858093B9
:104EA000FA0089858093FA0085E48093EF002093CF
:104EB000ED0080E395E70197F1F78091DC00909198
:104EC000DD0084FD90CF2091ED0080E48093ED0023
:104ED00080E090E0A0E66ACF81E08093370116BCC5
:104EE000A99A80916E00826080936E00F6CE3FB7E3
:104EF000F8949091150A8091160A981709F466C0E3
:104F00008091150A90E0DC01AA0FBB1FA80FB91F02
:104F1000AA0FBB1FAB5EBB4F8D919C911197129650
:104F2000ED91FC91139714966C91149715967C91C2
:104F300015972091150A2F5F2093150A3FBF3097D0
:104F400009F00995A89500EF12E006C0075F1F4F12
:104F5000F3E000381F07C1F1F801808581FFF6CF2B
:104F60002FB7F8948091810390918203A0918303DD
:104F7000B09184032FBF89839A83AB83BC83D8010C
:104F8000908591708B818170981701F72681378108
:104F900089819A8128173907C8F664817581028052
:104FA000F381E02D8D919C910995F80180858D7F8D
:104FB00080878091EF0281508093EF02075F1F4F3F
:104FC000F3E000381F0741F6A8951FCF60E070E0BE
:104FD000EFE4F1E080E090E0B1CF81E090E00E946A
:104FE000443C8C01888B198B83EF98E0682F9B8B56
:104FF0008A8B1D8A1C8AA8017B8980E09D8924EF09
:1050000031E00E947D04009397021093980285EA94
:1050100093E090939A028093990200939B021093DD
:105020009C0290939E0280939D0200939F02109396
:10503000A0029093A2028093A1020093A302109376
:10504000A4028CE598E09093A6028093A5020093B9
:10505000A7021093A80281E998E09093AA02809396
:10506000A90286E090E00E94443C8C01DC011C9285
:1050700014961C921E92139715961C9280E390E052
:105080000E947B3DDC01CB0186309105A105B10575
:1050900098F529E188E390E02C8F0E947B3DAB01DD
:1050A000BC012C8D30E0249FC001259F900D349FC2
:1050B000900D11248C599F4FF80192838183109396
:1050C000E8020093E70280ED96E09093EA02809375
:1050D000E902402F1B870A8783E09BE0682F9D87AA
:1050E0008C871F861E865B857D8580E09F8524EFEB
:1050F00031E00E947D0454CD20E1CCCF40E050E06F
:105100000ACEAC01FC01E054FF4F885E9E4F2FE4B5
:1051100031E011821082338322833496E817F90735
:10512000C1F78091D80081608093D800E2EEF0E072
:105130008091E20081788A608093E2008091E300B0
:105140008E6081838091E40081788B64828380917A
:10515000ED008F708093ED0088E08093EF0085E094
:1051600090E0A0EEBFEF8093F4009093F500A09341
:10517000F600B093F7008091ED008F70806180930E
:10518000ED0088E08093EF0085E08093F400909339
:10519000F500A093F600B093F7008091ED008F70BA
:1051A00080628093ED0088E08093EF0085E080933B
:1051B000F4009093F500A093F600B093F70080916F
:1051C000ED008F7080638093ED0088E08093EF00A6
:1051D00080E0A0ECB3E68093F0009093F100A09300
:1051E000F200B093F30085E0A0EEBFEF8093F400EF
:1051F0009093F500A093F600B093F7008091ED0036
:105200008F7080648093ED0088E08093EF0085E0EC
:105210008093F4009093F500A093F600B093F7000C
:105220008091ED008F7080658093ED0088EC809315
:10523000EF0080E0A0E0B9E08093F0009093F100EF
:10524000A093F200B093F30085E0A0EEBFEF80934F
:10525000F4009093F500A093F600B093F7008091CE
:10526000ED008F7080668093ED0088E88093EF00FA
:1052700080E0A0E0BAE08093F0009093F100A0936A
:10528000F200B093F30085E0A0EABFEF8093F40052
:105290009093F500A093F600B093F7008091ED0095
:1052A0008F7080678093ED0088E88093EF0080E046
:1052B000A0E0BBE08093F0009093F100A093F20097
:1052C000B093F30085E0A0EABFEF8093F4009093E1
:1052D000F500A093F600B093F7008091ED008F7079
:1052E00080688093ED0088E88093EF0080E0A0E084
:1052F000BEE08093F0009093F100A093F200B09391
:10530000F30085E0A0EEBDEF8093F4009093F500EC
:10531000A093F600B093F7008091ED008F70806944
:105320008093ED0088E88093EF0080E0A0E0B0E19A
:105330008093F0009093F100A093F200B093F300FB
:1053400085E0A0E6BFEF8093F4009093F500A09372
:10535000F600B093F7008091ED008F70806A809323
:10536000ED0088E88093EF0080E0A0E2B0E1809358
:10537000F0009093F100A093F200B093F30085E069
:10538000A0E6BFEF8093F4009093F500A093F600A1
:10539000B093F7008091ED008F70806B8093ED00EB
:1053A00088EC8093EF0080E0A0E8B9E98093F000FA
:1053B0009093F100A093F200B093F30085E0A0EE8B
:1053C000BFEF8093F4009093F500A093F600B093A4
:1053D000F7008091ED008F70806C8093ED0088E87D
:1053E0008093EF0080E0A0E2B2E48093F00090931D
:1053F000F100A093F200B093F30085E0A0E6BFEFC8
:105400008093F4009093F500A093F600B093F7001A
:105410008091ED008F70806D8093ED0088E880931F
:10542000EF0080E0A0E4BAE48093F0009093F100F4
:10543000A093F200B093F30085E0A0E8B7ED80936D
:10544000F4009093F500A093F600B093F7008091DC
:10545000ED008F70806E8093ED0088E88093EF0000
:1054600080E0A0E0BDE88093F0009093F100A0936D
:10547000F200B093F30085E0A0EEB8EF8093F40063
:105480009093F500A093F600B093F70080EE9FE7AD
:105490009093DF008093DE008091DB00806A809330
:1054A000DB005093CE034093CD038FED94E09093B7
:1054B000D0038093CF038091D80082608093D8007E
:1054C0008091D90082FFFCCF08952F923F924F9296
:1054D0005F926F927F928F929F92AF92BF92CF9284
:1054E000DF92EF92FF920F931F93CF93DF9300D041
:1054F000CDB7DEB73C011B01B9011A8309834F8880
:10550000588CDC0111963C922E92FC01128213827F
:10551000148215821696CD92DD92ED92FC92199727
:1055200082869386A486B58621E0268785E987BD95
:1055300084B580788A6084BD7092D6036092D5036A
:105540008EE397E09093D8038093D703758A648A9B
:1055500082E693E0978B868B718E608E82E793E074
:10556000938F828F148E82E0858F168E278F909670
:105570001D921D921D921C92939794961C92949743
:1055800096965C934E93959798967C936E93979787
:10559000E981FA819A96FC93EE9399979B961D92D6
:1055A0001D921D921C929E978AE09F968C939F97C6
:1055B000D0961C92D097D2961C921E92D197D396D9
:1055C0001C92D397D4961C92D497D5961C92D597BB
:1055D000D6961C92D697D7961C92D797D8961C929F
:1055E000D897D9961C9289E090E00E94733DF82EDE
:1055F000882483948822C3B084E290E00E94443CD3
:105600008C01FC0151824082B20180E090E02FE3E6
:1056100034E243E050E00E94BD3B28E630E140E048
:1056200050E00E94033CD80112962D933D934D9378
:105630005C93159716968C92169717961C9217974F
:1056400018961C9218978C2D8095881F8827881F84
:1056500019968C9319971A961C921A971D961C925C
:105660001E921C971F961C921E921E9751961C927A
:105670001E92509753961C921E92529755961C92CA
:105680001E92549756961C92569757961C9257976F
:1056900059961C921E9258975B961C921E925A978E
:1056A0005C961C925C9791E0811090E09170892F3C
:1056B000880F892BF801858F168E81E0878F3C9AA1
:1056C0003D9AD30151961C930E9350978F2C86943C
:1056D0008822F3B084E290E00E94443C8C01298D42
:1056E0003A8DFC0131832083B90180E090E02FE303
:1056F00034E243E050E00E94BD3B28E630E140E068
:1057000050E00E94033CD80112962D933D934D9397
:105710005C93159716968C92169717961C9217976E
:1057200018961C9218978F2D881F8827881F199606
:105730008C9319971A961C921A971D961C921E927A
:105740001C971F961C921E921E9751961C921E9299
:10575000509753961C921E92529755961C921E92E9
:10576000549756961C92569757961C92579759964F
:105770001C921E9258975B961C921E925A975C96AA
:105780001C925C9791E0811090E09170892F880FB6
:10579000892BF801858F168E81E0878F3C9A3D9A80
:1057A000D30153961C930E935297F101B096118238
:1057B0003C9A3D9A2FB7F89484E790E0E981FA810A
:1057C000918380832FBF9796ED91FC9198978FB727
:1057D000F894118210828FBFE0EFF2E09FB7F89447
:1057E000808581FD48C0808582FD45C080858460BC
:1057F00080879FBF2FB7F894809181039091820397
:10580000A0918303B09184032FBF8C509E4FAF4F64
:10581000BF4FA170B070868397839A2F9170808557
:105820008E7F892B80877182608282E499E39383E3
:1058300082831582148280858260808780858B7F39
:1058400080878091EF028F5F8093EF020F900F901F
:10585000DF91CF911F910F91FF90EF90DF90CF904C
:10586000BF90AF909F908F907F906F905F904F9080
:105870003F902F9008959FBF3996B3E0E038FB0723
:1058800009F0ACCFE3CF2F923F924F925F926F928D
:105890007F928F929F92AF92BF92CF92DF92EF92C0
:1058A000FF920F931F93CF93DF93CDB7DEB72B9764
:1058B0000FB6F894DEBF0FBECDBFFB01C080D18014
:1058C000E280F380C701B6012CE030E040E050E018
:1058D0000E94BD3B6D837E838F8398878EE090E02E
:1058E0000E946B07880F991F880F991F01972C0141
:1058F00066247724160181E090E09B878A8731C077
:10590000682D592D4A2D7B2D862E952EA42EB72E2F
:10591000281739070CF46AC04B815C814B835C8388
:10592000281739070CF469C099818A8199838A8381
:105930004A855B854034510508F469C084E090E0F5
:105940002A853B85289F7001299FF00C389FF00C19
:105950001124FB86EA86A70184E04130580708F04D
:1059600061C02A853B856901EE24FF246D817E811B
:105970008F819885A70196010E94033C89019A01B5
:105980000150104020403040401651066206730618
:1059900010F493018201B8016F5F7F4F80E090E0C7
:1059A000A70196010E94BD3B2CE030E040E050E0B2
:1059B0000E94033C69017A01C4018219930997FD91
:1059C0002DC096012219330937FD24C02817390745
:1059D0000CF096CF6C2D5D2D4E2D7F2D862E952EA5
:1059E000A42EB72E281739070CF096CFA8014B83A9
:1059F0005C83281739070CF097CF9A858B8599839C
:105A00008A834A855B854034510508F097CF88E04A
:105A100090E096CF309521953F4FD8CF90958195C6
:105A20009F4FCFCFEB80FC80F0928900E0928800FE
:105A300029813A812034310509F458C021343105D7
:105A400008F442C049815A8181E04030580709F486
:105A500047C094E04030590709F43FC099859770DA
:105A600080918100887F892B8093810080918000C4
:105A7000909181008C7F977E9860909381008093B5
:105A800080008F738093800080916F00826080938C
:105A90006F00B401C5012B960FB6F894DEBF0FBEA0
:105AA000CDBFDF91CF911F910F91FF90EF90DF90CD
:105AB000CF90BF90AF909F908F907F906F905F90AE
:105AC0004F903F902F9008952130310561F028309C
:105AD000310521F6E2E0E987C1CF35E03987BECF55
:105AE00024E02987BBCF41E04987B8CFF3E0F987AD
:105AF000B5CFAF92BF92CF92DF92EF92FF920F930A
:105B00001F93CF93DF9300D000D0CDB7DEB75C01F9
:105B10001091A2018091A40181FF43C0112309F4D7
:105B200040C08EE190E0909301018093000180914C
:105B30006F00826080936F00F50181811817E1F199
