:100000000C9488000C94AC140C94F8140C944415C3
:100010000C9490150C94DC150C9428160C94741602
:100020000C94C0160C940C170C9458170C94A4172D
:100030000C94F0170C943C180C9488180C94D41859
:100040000C9420190C946C190C94B8190C94041A83
:100050000C94501A0C949C1A0C94E81A0C94341BAF
:100060000C94801B0C94CC1B0C94181C0C94641CDA
:100070000C94B01C0C94FC1C0C94481D0C94941D06
:100080000C94E01D0C942C1E0C94781E0C94C41E31
:080090000C94101FB937BE37B4
:100100000000000000711911010100009DDFD9FD00
:1001100011241FBECFEFD0E1DEBFCDBF14BE88E1FA
:100120000FB6F89480936000109260000FBE11E04B
:10013000A0E0B1E0EEE4F3E700E00BBF02C00790FF
:100140000D92AE35B107D9F71CE0AEE5B1E001C0C4
:100150001D92A330B107E1F73C9A3D9A449A459A23
:100160002DE088E190E00FB6F894A89580936000A8
:100170000FBE20936000259810E0C6E9D0E000E0B3
:1001800006C022970109FE010BBF0E943338C43913
:10019000D10780E00807A9F70E9409280C94953937
:1001A0000001000203000000040000000000000045
:1001B0000000000000000000908F8E8D08070605EB
:1001C000000000000000000000000000000000002F
:1001D000000000000000000000000000000000001F
:1001E000000000000000000000000000000000000F
:1001F00000000000000000000000000000000000FF
:100200008C8B8A89040300000000000000000000BD
:1002100000000000000000000200000100000000DB
:1002200000000000000000000000000000000000CE
:1002300000000000000000000000000000000000BE
:1002400000000000000000000000000000000000AE
:10025000000000000000000000000000000000009E
:10026000000000000000000000000000000000008E
:10027000000000000000000000000000000000007E
:10028000000000000000000000000000000000006E
:10029000000000000000000000000000000000005E
:1002A000000000000000000000000000000000004E
:1002B00008955FB7F8944091FC0B842F90E0FC0107
:1002C000EE0FFF1FE80FF91FE658FD4F61817281A5
:1002D0008091AD0290E08F709070242F2295207F46
:1002E00030E0822B932B90819093AC028093AD02EF
:1002F0007093AA026093AB025FBF4F5F4093FC0B09
:10030000453009F008951092FC0B08952FB7F8942A
:100310003FB7F8948091AC029091AD029E7F90938C
:10032000AD028093AC023FBF2FBF08952FB7F89462
:100330003FB7F8948091AC029091AD029D7F90936D
:10034000AD028093AC023FBF2FBF08952FB7F89442
:100350003FB7F8948091AC029091AD029B7F90934F
:10036000AD028093AC023FBF2FBF08952FB7F89422
:100370003FB7F8948091AC029091AD02977F909333
:10038000AD028093AC023FBF2FBF08958091EA0178
:10039000809380028091EB01809381028091EC0137
:1003A000809382028091E701809386028091E80128
:1003B000809387028091E90180938802089580915B
:1003C000A102982F90952091FD0B922390FF03C0DE
:1003D00091E09093680183FD03C091E090936801E0
:1003E0008093FD0B08952FB7F8943FB7F894809150
:1003F000B0029091B1029F779093B1028093B002C6
:100400003FBF2FBF0895FC014181528163817481F8
:100410004F5F5F4F6F4F7F4F41835283638374837E
:100420000895CF93DF93DC01C8ECD0E08091C80041
:100430008871B1F08091C9008091CE008091C80090
:1004400081608093C8005C9A8091C9008061E8EC6B
:10045000F0E0818314961C921497DF91CF91089558
:100460009091C900969591708091CE00282F229589
:100470002F70E92FF0E0E295F295F07FFE27E07F04
:10048000FE27E85CFE4FE20FF11D30818317B1F6C5
:1004900014968C911497913009F0ADC08823B9F56A
:1004A00006C0843009F037C114961C921497922F1D
:1004B000990F990F990F17968C9117978770892B21
:1004C00017968C9317978091C8008E7F8093C800F1
:1004D00014968C911497823009F4B1C0833009F7D7
:1004E00012968C911297882309F4A8CF12968C91BA
:1004F00012978F5F12968C93129712968C91129787
:10050000853009F09BCF12961C92129797CF8130BD
:1005100011F717969C911797906817969C931797C9
:100520008F5F14968C931497883009F096CF809142
:10053000C80081608093C8005C9A8091C900806186
:10054000E8ECF0E0818314961C9214971796EC91D6
:100550001797F0E0E055FE4FE491EF77F0E0159645
:100560008D919C911697DF01AA0FBB1FA856BD4F16
:100570008C9311969C9311978091D90280FD6DCF39
:100580008091D90282608093D9027894E056FE4F20
:10059000E491F0E0DF01AA0FBB1FAE0FBF1FAA0F4F
:1005A000BB1FAE56BD4F99962D913C919A979B9645
:1005B0008D919D910D90BC91A02DFC01CD01A0FFCE
:1005C00015C095958795820F931FEC01A881B9817D
:1005D000AE0FBF1FEC911196FC9109958091D90245
:1005E0008D7F8093D902DF91CF910895959587955E
:1005F000820F931FF2CF882309F420CF8130D9F0E6
:100600008230E9F0833009F4B0C0843009F083C04F
:1006100016961C921E9215972295207F16968C9105
:1006200016978F70822B16968C93169785E01496EA
:100630008C93149712CF82E014968C931497822F88
:1006400086958695817091E01F9B90E0891709F04F
:10065000F5CE922F969596959695990F990F179698
:100660008C911797887F2370892B822B17968C93F8
:10067000179712968C911297882309F048C0C8ECFE
:10068000D0E08091C9008F7E89835C981396EC91AD
:100690001397F0E0EF70F070E85CFE4F808180937C
:1006A000CE0083E014968C9314971796EC911797CD
:1006B000F0E0E055FE4FE491E7FD02C084E0B7CFE3
:1006C0009091D902969591708091D9028E7F892B55
:1006D0008093D902F0E0EF77F070EE0FFF1FE8563D
:1006E000FD4F2FB7F894808191812FBF16969C9370
:1006F0008E93159715968D919C9116978C931196C4
:100700009C931197F8948091C90080628983149614
:100710008C91149705CF853091F08630D1F08730D9
:1007200009F0FECE15968C911597807F822B159639
:100730008C93159788E014968C931497F8CE1696A0
:100740008C911697807F822B16968C93169786E055
:100750006ECF2295207F15968C9115978F70822BE6
:1007600015968C93159787E062CF1796EC911797A3
:10077000F0E0E055FE4FE491E7FFA0CF9091D90261
:10078000969591708091D9028E7F892B8093D902A2
:10079000F0E0EF77F070EE0FFF1FE856FD4F2FB738
:1007A000F894808191812FBF16969C938E93159714
:1007B0008091C9008F7E89835C9815968D919C915C
:1007C00016978C9311969C931197F8948091C90079
:1007D0008062898314968C9114978F5FA2CEFC015E
:1007E00084818430F1F0853059F18630B1F1873061
:1007F00019F08F5F84830895A081B181AF70B070CC
:10080000A85CBE4F8C918093CE008091C9008F7DF3
:10081000A8ECB0E011968C93119784818F5F84834C
:1008200008952181822F82958F7090E0885C9E4F81
:10083000DC018C918093CE0084818F5F8483089546
:10084000A181B0E0AF70B070A85CBE4F8C91809376
:10085000CE0084818F5F84830895A081B181B29599
:10086000A295AF70AB27BF70AB27ECCFFC01CB01DB
:1008700009950895FC0109950895EF92FF921F9341
:10088000CF93DF93CDB7DEB7A1970FB6F894DEBF55
:100890000FBECDBFFC01789467857089418952896C
:1008A000DB0118968D919C911997805C9F4F11E008
:1008B000DA0118962D913C9119978217930708F049
:1008C00010E0DB015A969C91917085A18E7F892B57
:1008D00085A3DA015A969C91917086A18E7F892B0F
:1008E00086A3DB015A968C915A978823E9F5DA01A1
:1008F0005A968C915A978823B9F5A12FB0E0AA0F88
:10090000BB1FAE0FBF1F1F960D90BC91A02D189658
:100910006D917C91199741E050E0112311F040E076
:1009200050E0DA01AA0FBB1FAE0FBF1F1F960D903C
:10093000BC91A02D18968D919C9119979B01281B15
:10094000390B37FD3BC3CB019695879596958795D7
:1009500080509B4F8217930708F004C281A18F3704
:1009600009F424C38F5F81A385A1882321F586A183
:10097000882309F54385842F90E0212F30E051E052
:100980008217930709F406C3A52FB0E0AA0FBB1F77
:10099000AE0FBF1F1F960D90BC91A02D5B968C9142
:1009A0005B97882309F0F1C2578F10A21F9B18C0D4
:1009B0008091950117C085A1882309F0DFC285A128
:1009C000882309F457C085A1882319F086A18111D5
:1009D000178F80A18F3309F446C043851F99E8CF54
:1009E0008091850190E08370907021E0009709F478
:1009F00020E0442309F444C0A785B0895B968C911C
:100A00005B97882309F43CC0A189B2895B968C91DD
:100A10005B978823A9F1222399F582A18F5F82A396
:100A2000823931F485A1826085A386A1826086A384
:100A300083A18F3048F520E48F5F83A384858823CA
:100A400039F18F5F8487883019F5F89428E088E1C0
:100A500090E00FB6F894A895809360000FBE2093A5
:100A600060000000FECF85A18B7F85A386A18B7FD0
:100A700086A3B3CF86A1882309F4A5CF178EA9CF6B
:100A800012A283A18F30B8F220E084858823C9F6B2
:100A9000A785B08959964C91599750E016968C913C
:100AA000169790E031E04817590709F030E02E7FA3
:100AB000232BA189B28959964C91599750E01696EB
:100AC0008C91169790E031E04817590709F030E013
:100AD000330F2D7F232B978DA92FB0E0AA0FBB1FBB
:100AE000AE0FBF1F1F960D90BC91A02D5B968C91F1
:100AF0005B978170880F880F2B7F282B892F81703F
:100B0000880F880F880F277F282B95A181E09111EE
:100B100080E08295807F2F7E282B96A181E0911125
:100B200080E08295880F807E2F7D282B6789708DCD
:100B30001A964D915C911B97403851050CF00FC1EE
:100B4000BFEF41385B070CF416C2342F47FD28C2B3
:100B5000942F80E0422F50E0482B592B8FB7F89408
:100B6000DB0111965C934E938FBFA78DB0E0AA0F67
:100B7000BB1FAE0FBF1F1F960D90BC91A02D1896E6
:100B80008D919C911997492F441F4427441F50E091
:100B9000880F991F482B592BA589B6898FB7F894D0
:100BA00011965C934E938FBF152F588F498FA78D49
:100BB000B0E0AA0FBB1FAE0FBF1F1F966D917C91B7
:100BC0005097DB011A968D919C911B978038910567
:100BD0000CF0C3C0BFEF81389B070CF4D8C087FD71
:100BE000DBC18A8FA785B0898C9111969C919B8FD0
:100BF0008C8FA189B2898C9111969C919D8F8E8F3B
:100C00002F8FCE01409699A388A388E0A8A1B9A10F
:100C10001D928A95E9F724FD9EC025FD9CC082E0C7
:100C2000888BDB015B962C915B9781E0282730E075
:100C3000220F331F220F331F5996EC905997FF2430
:100C400016968C91169790E061E0E816F90609F087
:100C500060E0862F879588278795822B4170842BAB
:100C6000898B1A8B83818B8B82818C8B84818D8B7A
:100C700082858295880F807E8E8B12861F9989C00F
:100C80008091DC009091DD0081FD2AC080E180939D
:100C9000ED0080E090E0A0E6B6E48093F000909351
:100CA000F100A093F200B093F300888D8093FA00D6
:100CB000898D8093FA008A8D8093FA008B8D8093C2
:100CC000FA008C8D8093FA008D8D8093FA008E8DC2
:100CD0008093FA008F8D8093FA0088E48093EF0070
:100CE0008091DC009091DD0080FD29C01092ED0024
:100CF00080E090E0A0E8B8E18093F0009093F100EC
:100D0000A093F200B093F30088898093FA00898958
:100D10008093FA008A898093FA008B898093FA0085
:100D20008C898093FA008D898093FA008E89809354
:100D3000FA008F898093FA0088E48093EF00A196EF
:100D40000FB6F894DEBF0FBECDBFDF91CF911F91DC
:100D5000FF90EF90089580E063CF8FE742CF80E06F
:100D60009FE7F8CE11A2A78DB0E0AA0FBB1FAE0F70
:100D7000BF1F1F960D90BC91A02D5B968C915B9729
:100D8000882309F0F1CD80A18F5F80A3EDCD8FEF97
:100D900028CF8091DC009091DD0081FD2AC080E1A8
:100DA0008093ED0080E090E0A0E8B6E48093F0004E
:100DB0009093F100A093F200B093F300888D80939C
:100DC000FA00898D8093FA008A8D8093FA008B8DCA
:100DD0008093FA008C8D8093FA008D8D8093FA00B9
:100DE0008E8D8093FA008F8D8093FA0088E4809333
:100DF000EF008091DC009091DD0080FD29C0109211
:100E0000ED0080E090E0A0E8BAE18093F0009093DC
:100E1000F100A093F200B093F30088898093FA0068
:100E200089898093FA008A898093FA008B8980935C
:100E3000FA008C898093FA008D898093FA008E895C
:100E40008093FA008F898093FA0088E48093EF0002
:100E5000FE01319687E0DF011D928A95E9F788E669
:100E600090E00E9466398A8380E390E00E946639B0
:100E70008B8384E590E00E9466398C838CE690E059
:100E80000E9466398D838DE690E00E946639182FA6
:100E900088E590E00E946E3964E670E00E94E237D7
:100EA000179511271795162B1E8388E390E00E9453
:100EB00066398F838091DC009091DD0082FD1BC03C
:100EC00080E28093ED0089818093FA008A8180938B
:100ED000FA008B818093FA008C818093FA008D81D7
:100EE0008093FA008E818093FA008F818093FA00BC
:100EF00087E48093EF00FE01389688E0DF011D92C1
:100F00008A95E9F789E690E00E946639898788E644
:100F100090E00E9466398A878DE490E00E946639ED
:100F20008B878CE490E00E9466398C878091DC008E
:100F30009091DD0083FD03CF80E38093ED008885F1
:100F40008093FA0089858093FA008A858093FA005D
:100F50008B858093FA008C858093FA008D85809331
:100F6000FA008E858093FA008F858093FA0088E4DA
:100F70008093EF00E4CE80E09FEFECCD86A1882344
:100F800009F01DCD81E0878F24CD81E08527878FF3
:100F900010A20CCD50E0F8CC809580688F5F21CEF8
:100FA00030953068932F9F5F80E0D4CDDA0195961D
:100FB000AE0FBF1F8C9184608C93D6CC3095219559
:100FC0003F4FC1CC1F931F9B25C01FB7F894609162
:100FD0001D0370911E0380911F03909120032AE04E
:100FE00030E040E050E00E94F63790916601209397
:100FF00066011FBF81E080936401E0916201F0917E
:10100000630180818F7D808380916501891B820FC0
:10101000809365011F9108951F931F9925C01FB7E5
:10102000F89460911D0370911E0380911F039091AD
:1010300020032AE030E040E050E00E94F637909133
:101040006601209366011FBF81E080936401E091F7
:101050006201F091630180818F7D808380916501C1
:10106000891B820F809365011F9108958EBD0DB479
:1010700007FEFDCF6EBD0DB407FEFDCF4EBD0DB416
:1010800007FEFDCF2EBD0DB407FEFDCF8EB5089532
:10109000AB01BC01DB01CA010197A109B1099F7035
:1010A0004150487F82EC692F20E00E94360888E793
:1010B00099E60197F1F70895FC015C9AA8ECB0E07D
:1010C0008091C900806111968C931197848188303A
:1010D00009F008958091C80081608093C8005C9AEF
:1010E0008091C900806111968C93119714820895A4
:1010F000CF92DF92EF92FF920F931F93CF93DF93E4
:10110000CDB7DEB72C970FB6F894DEBF0FBECDBFBC
:101110008091EE0183FDC5C085FDB4C08474843424
:1011200009F0B0C019821A821B821C825091F10111
:1011300059834091F2014A832091F3012B8327FDCB
:10114000C6C03C8180912701882371F0109227014D
:1011500089819A81AB81BC818093020190930301C4
:10116000A0930401B09305015D834E832F833887DC
:10117000809102018987809103018A87809104010F
:101180008B87809105018C871F9994C08091DC002A
:101190009091DD0084FD2AC080E48093ED0080E022
:1011A00090E0A0ECB9E98093F0009093F100A09357
:1011B000F200B093F3008D818093FA008E818093CA
:1011C000FA008F818093FA0088858093FA008985E0
:1011D0008093FA008A858093FA008B858093FA00C9
:1011E0008C858093FA0088E48093EF00E0911F01E2
:1011F000F0E0EE0FFF1FE050FF4F0784F089E02D75
:1012000020853185832F881F8827881F90E0220F33
:10121000331F822B932B8F3F9105A1F198F1C09042
:101220000201D0900301E0900401F0900501498192
:101230005A816B817C814C195D096E097F09CA0155
:1012400057FD4DC021E0853F92070CF044C010923D
:101250000A018A319105B4F0CB01BA0122E030E0F5
:1012600040E050E00E94183889019A010C0D1D1DC4
:101270002E1D3F1D009302011093030120930401D2
:10128000309305012C960FB6F894DEBF0FBECDBF8C
:10129000DF91CF911F910F91FF90EF90DF90CF9052
:1012A000089510920201109203011092040110920D
:1012B0000501E8CF8091DC009091DD0084FD96CFA0
:1012C00080E48093ED0080E090E0A0EE6BCF8FEFA4
:1012D0008C833FEF37CF81E080930A01D3CF909585
:1012E00081959F4FAFCFEF92FF921F93CF93DF93E4
:1012F0001F9B32C0E82EE7017E01F92EE7011FB7E0
:10130000F89460911D0370911E0380911F039091CA
:1013100020032AE030E040E050E00E94F637422F00
:1013200030916601209366011FBF988181E0809310
:101330006401E0916201F091630180818F7D80837F
:1013400080916501890F8093650128818091DC007F
:101350009091DD0084FF06C0DF91CF911F91FF9037
:10136000EF90089580E48093ED0080E090E0A0EAA3
:10137000B9E98093F0009093F100A093F200B0934C
:10138000F3002093FA00431B4093FA0082E4809319
:10139000EF00DF91CF911F91FF90EF900895EF92B2
:1013A000FF921F93CF93DF931F9932C0E82EE7017E
:1013B0007E01F92EE7011FB7F89460911D0370912B
:1013C0001E0380911F03909120032AE030E040E04B
:1013D00050E00E94F637422F30916601209366015B
:1013E0001FBF988181E080936401E0916201F091D8
:1013F000630180818F7D808380916501890F809357
:10140000650128818091DC009091DD0084FF06C099
:10141000DF91CF911F91FF90EF90089580E480932A
:10142000ED0080E090E0A0E8B9E98093F0009093AF
:10143000F100A093F200B093F3002093FA00431B55
:101440004093FA0082E48093EF00DF91CF911F91E7
:10145000FF90EF9008958F929F92AF92BF92CF929C
:10146000DF92EF92FF920F931F93CF93DF9300D001
:1014700000D000D0CDB7DEB77C01FC012081213047
:1014800009F447C0293009F444C0022F10E0000FCE
:10149000111F000F111F005E1F4FC80164812E83B2
:1014A0000E94743948010894811C911CC401F70101
:1014B00063810E94743962E0A62EB12CA00EB11E89
:1014C000C501F70162810E94743973E0C72ED12CE7
:1014D000C00ED11EC601F70161810E9474392E81B0
:1014E0002983C6010E9466398A83C5010E94663934
:1014F0008B83C4010E9466398C83C8010E946639BF
:101500008D831F9906C08091DC009091DD0084FFDF
:1015100013C026960FB6F894DEBF0FBECDBFDF9185
:10152000CF911F910F91FF90EF90DF90CF90BF90E0
:10153000AF909F908F90089580E48093ED0080E0BD
:1015400090E0A0E6B2E68093F0009093F100A093C3
:10155000F200B093F30089818093FA008A8180932E
:10156000FA008B818093FA008C818093FA008D8140
:101570008093FA0085E48093EF00CBCFAF92BF92C7
:10158000CF92DF92EF92FF920F931F93CF93DF934F
:10159000EC0170E0FB013A96EE0FFF1FE80FF91F18
:1015A00000811181695F7F4F660F771F680F791F78
:1015B000FB01C080D1800894C108D108EE24FF242B
:1015C0006881798180E090E024EA36E840E050E0EC
:1015D0000E94C33724E630E040E050E00E94F63736
:1015E000C701B6010E94C3376801EE24FF24A7019A
:1015F00096010E94F637590188859985B901681BC3
:10160000790BFDEF63317F0714F463E17DEF0C8507
:101610001D8582E06E3E780714F06DEE72E088273B
:1016200077FD8095982F2EEC36E540E050E00E9443
:10163000C337A70196010E94183869017A01C801D1
:1016400017FD29C095958795959587959C01220F43
:10165000331F280F391F2C0D3D1DC801820F931F0A
:1016600097FD1BC0082E892F000C881F990B000CBA
:10167000881F991F9B878A873D872C87B986A886F4
:10168000DF91CF911F910F91FF90EF90DF90CF905E
:10169000BF90AF9008950396D5CFCF96E3CFCF9369
:1016A000DF93EC01EAEDF2E00BC08260828781E01B
:1016B0009FBF882371F43B9683E0EC31F807A1F1DA
:1016C0009FB7F894828581FFF0CF80E09FBF882389
:1016D00091F3CB01A0E0B0E040911D0350911E03B7
:1016E00060911F0370912003840F951FA61FB71FE1
:1016F000808791879A2F917082858E7F892B828730
:101700008A819B81AC81BD8182839383A483B583CD
:1017100088819981918380838E819F81978386833D
:1017200081E0DF91CF91089580E0DF91CF9108951E
:10173000FC0122833383448355837183608308953E
:10174000DC0111961C921E92E8E5F1E01396FC93E1
:10175000EE93129715961C921E9214970E94980B66
:101760000895FC012283338344835583718360830E
:101770000895DC0111961C921E92E8E5F1E01396A3
:10178000FC93EE93129715961C921E9214970E944A
:10179000B10B0895CF93DF939C014091ED008091B0
:1017A000EC00807F8093ED008091EE008F7D809330
:1017B000EE00B091EF00BF705091F2005295569537
:1017C00057706091F300762F770F770F770F872F81
:1017D000852B962F929596959770880F991F8295D5
:1017E0009295907F9827807F98278B0F911D59E0C5
:1017F0008530950709F462C05AE08830950709F4EE
:101800001DC15AE08834950709F41BC15BE088309C
:10181000950709F430C15BE08834950709F414C1D9
:101820005EE08130950709F42CC15CE081309507BA
:1018300009F433C150E18030950709F434C150E117
:101840008038950709F435C150E18130950709F4D6
:101850001EC150E18138950709F431C150E1803251
:10186000950709F432C150E1803A950709F430C177
:1018700050E18132950709F434C150E1813A95076E
:1018800009F432C158E1873E950709F436C152E4A4
:101890008832950709F43AC15AE48534950709F46A
:1018A0003BC152E68530950709F433C15DE88730C6
:1018B000950709F0B8C063E170E002C060E070E035
:1018C000BB2381F0FB01EE0FFF1FEE0FFF1FEE0F9A
:1018D000FF1FE20FF31F50E0A091FA00A1935F5F9A
:1018E0005B17D0F352E68530950709F458C059E0EC
:1018F0008530950709F4B9C05AE48534950709F491
:10190000B7C05EE08130950709F4B8C052E4883270
:10191000950709F4A7C05DE88730950709F4BAC0B8
:101920005AE08830950709F4BBC05BE08830950722
:1019300009F4BCC058E1873E950709F4A5C050E101
:101940008030950709F4B8C050E18038950709F454
:10195000B9C050E18032950709F4BDC050E1803A2A
:10196000950709F4BBC050E18130950709F4BFC069
:1019700050E18138950709F4BDC050E181329507E7
:1019800009F4C1C050E1813A950709F4B9C05CE09F
:101990008130950709F047C081E190E002C080E006
:1019A00090E0DC01AA0FBB1FA80FB91FAA0FBB1F35
:1019B000A056BF4FA20FB31F660F771F660F771F8A
:1019C000660F771F620F731F9FB7F8948091F9031A
:1019D0008F5F8093F903E091FB0B8091FB0B8F5F8E
:1019E0008093FB0B2091FA0B821789F19FBFF0E0E7
:1019F000EE0FFF1FEE0FFF1FEE0FFF1FE650FC4F15
:101A000012962D913C9113971496CD91DC911597D8
:101A10008D919C91119733832283D583C4839183C5
:101A20008083778366838091EF008F7380688093D3
:101A3000EF004093ED00DF91CF91089561E070E0F9
:101A40003FCF62E070E03CCF64E070E039CF80913E
:101A5000FA0B8F5F8093FA0B8091F903815080938A
:101A6000F903C4CF84E090E09CCF81E090E099CF6F
:101A700082E090E096CF63E070E022CF83E090E0D8
:101A800090CF65E070E01CCF88E090E08ACF69E0FD
:101A900070E016CF85E090E084CF66E070E010CF74
:101AA00086E090E07ECF67E070E00ACF87E090E0CC
:101AB00078CF68E070E004CF89E090E072CF6AE010
:101AC00070E0FECE8AE090E06CCF6BE070E0F8CE84
:101AD0006CE070E0F5CE8BE090E063CF8CE090E0BE
:101AE00060CF6DE070E0ECCE6EE070E0E9CE8DE0AE
:101AF00090E057CF8EE090E054CF6FE070E0E0CE02
:101B000080E190E04ECF8FE090E04BCF60E170E05D
:101B1000D7CE62E170E0D4CE61E170E0D1CE1F9308
:101B20001F9B02C01F9108951FB7F89460911D0379
:101B300070911E0380911F03909120032AE030E0F2
:101B400040E050E00E94F63780916601922F981B8A
:101B5000209366011FBF81E080936401E0916201E0
:101B6000F091630180818062808350916501590FFB
:101B700050936501943218F160916701662359F51D
:101B8000550F509365014081407840664460109243
:101B90006701852F8459893190F54F7780916901CC
:101BA000E0916201F0916301481771F180818F7BB0
:101BB000808340936901109265011F91089580917F
:101BC00067018F5F80936701833009F0ABCF80811D
:101BD0008F7B8083A7CF40814078406622E030E051
:101BE000261B310981E090E002C0880F991F2A95D9
:101BF000E2F78F71482B633050F24F7BC8CF5D5AAC
:101C00005A31C8F44068CACF46FF13C08081842788
:101C100087FD13C08091680110926D01882329F01F
:101C2000E0916B01F0916C011082E0916201F09102
:101C300063014083BECF4F7BB1CF80916801882381
:101C400031F01092680110926D014083B2CFE091A3
:101C50006B01F0916C0180916D018083DBCF009767
:101C600011F481E008958130910511F482E0089526
:101C70008230910511F484E008958330910511F4C8
:101C800088E008958430910511F480E1089585304D
:101C9000910511F480E208958630910511F480E4F5
:101CA000089541E08730910529F480E8489F802D10
:101CB000112408958830910511F480E0F7CF893020
:101CC000910511F480E008958A309105D9F38B30A5
:101CD0009105C1F38C309105A9F38D30910591F3F5
:101CE0008E30910579F39C012950304040E08F30CF
:101CF000910541F3C901D6CF0F931F93CF93DF9383
:101D000000D000D000D0CDB7DEB78C0128E237E399
:101D100040E050E0CE010196B8010E94B90BD80115
:101D2000ED91FC91119760A19FB7F8948091F90310
:101D30008F5F8093F903E091FB0B8091FB0B8F5F2A
:101D40008093FB0B2091FA0B821721F19FBFF0E0EB
:101D5000EE0FFF1FEE0FFF1FEE0FFF1FE650FC4FB1
:101D60002D813E8149815A818B819C81938382831D
:101D70003583248351834083668317827894269623
:101D80000FB6F894DEBF0FBECDBFDF91CF911F918C
:101D90000F9108958091FA0B8F5F8093FA0B8091D9
:101DA000F90381508093F903D1CFCF93DF9300D013
:101DB00000D000D0CDB7DEB786E394E0A0E0B0E07D
:101DC0008B839C83AD83BE8389E591E09A8389836D
:101DD0009FB7F8948091F9038F5F8093F903E091A6
:101DE000FB0B8091FB0B8F5F8093FB0B2091FA0B19
:101DF000821709F19FBFF0E0EE0FFF1FEE0FFF1FEC
:101E0000EE0FFF1FE650FC4F2D813E8149815A8124
:101E10008B819C8193838283358324835183408388
:101E20001782168226960FB6F894DEBF0FBECDBF7E
:101E3000DF91CF9108958091FA0B8F5F8093FA0B19
:101E40008091F90381508093F903D4CFFC01838101
:101E50008823E1F4F0990DC0F09A8EB386958695AB
:101E6000869580FD0DC0F39A838191E08927838355
:101E70000895F0988EB386958695869580FFF3CF6A
:101E8000F398838191E08927838308958EB38695A3
:101E900080FD0CC0F19A8EB38695869580FD0CC0AE
:101EA000F29A838191E0892783830895F1988EB314
:101EB0008695869580FFF4CFF298838191E08927FB
:101EC00083830895EF92FF921F93CF93DF931F9B1D
:101ED0007CC0E82EE7017E01F92EE7011FB7F894D8
:101EE00060911D0370911E0380911F039091200348
:101EF0002AE030E040E050E00E94F637522F409157
:101F00006601209366011FBF988181E08093640180
:101F1000E0916201F0916301808180628083709121
:101F20006501790F70936501943208F454C0A09153
:101F30006701AA2309F45AC060816078606622E0D4
:101F400030E02A1B310981E090E002C0880F991F20
:101F50002A95E2F78F71682BA33008F06F7B1092FF
:101F60006701872F8459893108F04EC06F778091BF
:101F70006901E0916201F0916301681709F449C0B9
:101F800080818F7B80836093690110926501288135
:101F90008091DC009091DD0084FD17C080E4809387
:101FA000ED0080E090E0A0EAB9E98093F000909322
:101FB000F100A093F200B093F3002093FA00541BB9
:101FC0005093FA0082E48093EF00DF91CF911F914C
:101FD000FF90EF900895809167018F5F8093670174
:101FE0008330A9F680818F7B8083D1CF770F709368
:101FF0006501608160786066646010926701872F78
:102000008459893108F4B2CF7D5A7A31C8F46068B6
:10201000AECF66FF13C08081862787FD13C08091F5
:10202000680110926D01882329F0E0916B01F09115
:102030006C011082E0916201F09163016083A3CF93
:102040006F7B95CF80916801882331F010926801F1
:1020500010926D01608397CFE0916B01F0916C015C
:1020600080916D018083DBCFEF92FF921F93CF931E
:10207000DF931F997CC0E82EE7017E01F92EE7016E
:102080001FB7F89460911D0370911E0380911F0388
:10209000909120032AE030E040E050E00E94F637C3
:1020A000522F40916601209366011FBF988181E005
:1020B00080936401E0916201F0916301808180620C
:1020C000808370916501790F70936501943208F4F3
:1020D00054C0A0916701AA2309F45AC060816078B6
:1020E000606622E030E02A1B310981E090E002C006
:1020F000880F991F2A95E2F78F71682BA33008F09B
:102100006F7B10926701872F8459893108F04EC088
:102110006F7780916901E0916201F0916301681726
:1021200009F449C080818F7B80836093690110929C
:10213000650128818091DC009091DD0084FD17C04D
:1021400080E48093ED0080E090E0A0E8B9E980931E
:10215000F0009093F100A093F200B093F30020936D
:10216000FA00541B5093FA0082E48093EF00DF9151
:10217000CF911F91FF90EF900895809167018F5F3D
:10218000809367018330A9F680818F7B8083D1CFD4
:10219000770F70936501608160786066646010926B
:1021A0006701872F8459893108F4B2CF7D5A7A317B
:1021B000C8F46068AECF66FF13C08081862787FDB4
:1021C00013C08091680110926D01882329F0E0917D
:1021D0006B01F0916C011082E0916201F09163015A
:1021E0006083A3CF6F7B95CF80916801882331F006
:1021F0001092680110926D01608397CFE0916B019E
:10220000F0916C0180916D018083DBCF1F931F994A
:1022100002C01F9108951FB7F89460911D0370913B
:102220001E0380911F03909120032AE030E040E0DC
:1022300050E00E94F63780916601922F981B209300
:1022400066011FBF81E080936401E0916201F0911B
:10225000630180818062808350916501590F5093A2
:102260006501943218F160916701662359F5550FA5
:102270005093650140814078406644601092670148
:10228000852F8459893190F54F7780916901E091CC
:102290006201F0916301481771F180818F7B808327
:1022A00040936901109265011F9108958091670123
:1022B0008F5F80936701833009F0ABCF80818F7B84
:1022C0008083A7CF40814078406622E030E0261B23
:1022D000310981E090E002C0880F991F2A95E2F74A
:1022E0008F71482B633050F24F7BC8CF5D5A5A3103
:1022F000C8F44068CACF46FF13C08081842787FD99
:1023000013C08091680110926D01882329F0E0913B
:102310006B01F0916C011082E0916201F091630118
:102320004083BECF4F7BB1CF80916801882331F0CD
:102330001092680110926D014083B2CFE0916B0161
:10234000F0916C0180916D018083DBCF0F931F931F
:10235000CF93DF9300D000D00F92CDB7DEB71F9997
:102360002AC0FC018081813031F1893021F1082FB0
:1023700010E0000F111F000F111F005E1F4F898317
:10238000C80103960E9466398A83C80102960E949A
:1023900066398B83C80101960E9466398C83C80117
:1023A0000E9466398D831F9906C08091DC00909150
:1023B000DD0084FF0AC00F900F900F900F900F90D8
:1023C000DF91CF911F910F91089580E48093ED00EC
:1023D00080E090E0A0E6B2E68093F0009093F100F8
:1023E000A093F200B093F30089818093FA008A8170
:1023F0008093FA008B818093FA008C818093FA009D
:102400008D818093FA0085E48093EF00D4CFCF9341
:10241000DF93CDB7DEB7A0970FB6F894DEBF0FBE3F
:10242000CDBF80919E0186FF09C08F73853209F46C
:1024300046C0863260F4813209F4A9C0A0960FB676
:10244000F894DEBF0FBECDBFDF91CF9108958732E4
:1024500009F469C0893291F72FB7F8943FB7F8941F
:102460008091AC029091AD0291609093AD02809307
:10247000AC023FBF2FBF86E394E0A0E0B0E08B8FBB
:102480009C8FAD8FBE8F86E891E09A8F898F18A2BE
:102490001F8EEAEDF2E00CC08260828781E09FBF70
:1024A000882309F016C13B9683E0EC31F80731F23E
:1024B0009FB7F894828581FFEFCF80E0F0CF2FB7F0
:1024C000F8943FB7F8948091AC029091AD0294607B
:1024D0009093AD028093AC023FBF2FBF86E394E0A0
:1024E000A0E0B0E08B879C87AD87BE8786EA91E04D
:1024F0009A878987188A1F86EAEDF2E00DC082600C
:10250000828781E09FBF882309F074C03B9683E0F7
:10251000EC31F80709F492CF9FB7F894828581FFD8
:10252000EECF80E0EFCF2FB7F8943FB7F8948091CB
:10253000AC029091AD0298609093AD028093AC0292
:102540003FBF2FBF86E394E0A0E0B0E08B839C8385
:10255000AD83BE8386EB91E09A83898318861F82C0
:10256000EAEDF2E00DC08260828781E09FBF8823A0
:1025700009F08AC03B9683E0EC31F80709F45ECF9E
:102580009FB7F894828581FFEECF80E0EFCF2FB721
:10259000F8943FB7F8948091AC029091AD029260AC
:1025A0009093AD028093AC023FBF2FBF86E394E0CF
:1025B000A0E0B0E08B8B9C8BAD8BBE8B86E991E06D
:1025C0009A8B898B188E1F8AEAEDF2E00CC082602C
:1025D000828781E09FBF882391F53B9683E0EC31B1
:1025E000F80709F42BCF9FB7F894828581FFEFCFCE
:1025F00080E0F0CF80911D0390911E03A0911F03F6
:10260000B091200388519C4FAF4FBF4F8087918777
:102610009A2F917082858E7F892B82878B859C85EE
:10262000AD85BE8582839383A483B58389859A858E
:10263000918380838F85988997838683FFCE80914D
:102640001D0390911E03A0911F03B0912003885198
:102650009C4FAF4FBF4F808791879A2F9170828593
:102660008E7F892B82878B899C89AD89BE898283E5
:102670009383A483B58389899A89918380838F8981
:10268000988D97838683DACE80911D0390911E03E7
:10269000A0911F03B091200388519C4FAF4FBF4FB3
:1026A000808791879A2F917082858E7F892B828770
:1026B0008B819C81AD81BE8182839383A483B5830A
:1026C00089819A81918380838F819885978386837E
:1026D000B5CE80911D0390911E03A0911F03B09170
:1026E000200388519C4FAF4FBF4F808791879A2F0F
:1026F000917082858E7F892B82878B8D9C8DAD8D8D
:10270000BE8D82839383A483B583898D9A8D9183B3
:1027100080838F8D98A19783868390CECF93DF930C
:1027200000D000D00F92CDB7DEB7209106023091D5
:102730000702243051F0203141F00F900F900F909C
:102740000F900F90DF91CF910895353099F1363089
:1027500009F4CDC03D3009F480C03E3009F457C0C3
:10276000333059F7203149F780ED898399B181E001
:1027700094FF80E087958827879590918D02892B1B
:102780008A838091C8008B838091C9008C8380915B
:10279000CA008D831F9BD2C08091DC009091DD0028
:1027A00084FDCBCF80E48093ED0080E090E0A0E852
:1027B000B6EC78C082E091E0FC01549139964491E6
:1027C000DE011196FD0111923A95E9F70396FC019D
:1027D00084918A83852F90E0841B9109541B592B87
:1027E0005D83243009F480C0203109F0A6CF1F9901
:1027F00097C08091DC009091DD0084FD9ECF80E445
:102800008093ED0080E090E0A0E6B6EC4BC01F9B0B
:1028100094CF80ED898387E790E00E9466398A83B0
:1028200086E790E00E9466398B8385E790E00E94FE
:1028300066398C8384E790E00E9466398D838091AD
:10284000DC009091DD0084FD78CF80E48093ED0082
:1028500080E090E0A0E0BAE925C01F996ECF80ED3E
:10286000898387E790E00E9466398A8386E790E053
:102870000E9466398B8385E790E00E9466398C83DD
:1028800084E790E00E9466398D838091DC0090910E
:10289000DD0084FD52CF80E48093ED0080E090E085
:1028A000A0E0B8E98093F0009093F100A093F200CB
:1028B000B093F30089818093FA008A818093FA00B3
:1028C0008B818093FA008C818093FA008D818093B4
:1028D000FA0085E48093EF000F900F900F900F9017
:1028E0000F90DF91CF9108951F99A9CFCECF84E7A4
:1028F00090E060910B020E94743985E790E060914E
:102900000A020E94743986E790E0609109020E94F1
:10291000743987E790E0609108020E9474390DCF06
:102920008091DC009091DD0084FD07CF80E48093EE
:10293000ED0080E090E0A0E8B6ECB4CF8091DC0040
:102940009091DD0084FDF9CE80E48093ED0080E07D
:1029500090E0A0E6B6ECA6CF1F920F920FB60F92B2
:102960000BB60F9211242F933F934F935F936F9366
:102970007F938F939F93AF93BF93CF93DF93EF9307
:10298000FF932091F3033091F4038091F50390912C
:10299000F603A091F703B091F803FC01CD01A0FF6D
:1029A00022C095958795820F931FEC01A881B9816C
:1029B000AE0FBF1FEC911196FC910995FF91EF911D
:1029C000DF91CF91BF91AF919F918F917F916F9147
:1029D0005F914F913F912F910F900BBE0F900FBEC3
:1029E0000F901F90189595958795820F931FE5CFAF
:1029F0001F920F920FB60F920BB60F9211242F93C6
:102A00003F934F935F936F937F938F939F93AF9376
:102A1000BF93CF93DF93EF93FF932091ED0330911A
:102A2000EE038091EF039091F003A091F103B09138
:102A3000F203FC01CD01A0FF22C095958795820F7E
:102A4000931FEC01A881B981AE0FBF1FEC911196C5
:102A5000FC910995FF91EF91DF91CF91BF91AF91DB
:102A60009F918F917F916F915F914F913F912F91A6
:102A70000F900BBE0F900FBE0F901F90189595955D
:102A80008795820F931FE5CF1F920F920FB60F927B
:102A90000BB60F9211242F933F934F935F936F9335
:102AA0007F938F939F93AF93BF93CF93DF93EF93D6
:102AB000FF932091E7033091E8038091E90390911F
:102AC000EA03A091EB03B091EC03FC01CD01A0FF60
:102AD00022C095958795820F931FEC01A881B9813B
:102AE000AE0FBF1FEC911196FC910995FF91EF91EC
:102AF000DF91CF91BF91AF919F918F917F916F9116
:102B00005F914F913F912F910F900BBE0F900FBE91
:102B10000F901F90189595958795820F931FE5CF7D
:102B20001F920F920FB60F920BB60F9211242F9394
:102B30003F934F935F936F937F938F939F93AF9345
:102B4000BF93CF93DF93EF93FF932091E1033091F5
:102B5000E2038091E3039091E403A091E503B09137
:102B6000E603FC01CD01A0FF22C095958795820F59
:102B7000931FEC01A881B981AE0FBF1FEC91119694
:102B8000FC910995FF91EF91DF91CF91BF91AF91AA
:102B90009F918F917F916F915F914F913F912F9175
:102BA0000F900BBE0F900FBE0F901F90189595952C
:102BB0008795820F931FE5CF1F920F920FB60F924A
:102BC0000BB60F9211242F933F934F935F936F9304
:102BD0007F938F939F93AF93BF93CF93DF93EF93A5
:102BE000FF932091DB033091DC038091DD03909112
:102BF000DE03A091DF03B091E003FC01CD01A0FF53
:102C000022C095958795820F931FEC01A881B98109
:102C1000AE0FBF1FEC911196FC910995FF91EF91BA
:102C2000DF91CF91BF91AF919F918F917F916F91E4
:102C30005F914F913F912F910F900BBE0F900FBE60
:102C40000F901F90189595958795820F931FE5CF4C
:102C50001F920F920FB60F920BB60F9211242F9363
:102C60003F934F935F936F937F938F939F93AF9314
:102C7000BF93CF93DF93EF93FF932091D5033091D0
:102C8000D6038091D7039091D803A091D903B09136
:102C9000DA03FC01CD01A0FF22C095958795820F34
:102CA000931FEC01A881B981AE0FBF1FEC91119663
:102CB000FC910995FF91EF91DF91CF91BF91AF9179
:102CC0009F918F917F916F915F914F913F912F9144
:102CD0000F900BBE0F900FBE0F901F9018959595FB
:102CE0008795820F931FE5CF1F920F920FB60F9219
:102CF0000BB60F9211242F933F934F935F936F93D3
:102D00007F938F939F93AF93BF93CF93DF93EF9373
:102D1000FF932091CF033091D0038091D103909104
:102D2000D203A091D303B091D403FC01CD01A0FF45
:102D300022C095958795820F931FEC01A881B981D8
:102D4000AE0FBF1FEC911196FC910995FF91EF9189
:102D5000DF91CF91BF91AF919F918F917F916F91B3
:102D60005F914F913F912F910F900BBE0F900FBE2F
:102D70000F901F90189595958795820F931FE5CF1B
:102D80001F920F920FB60F920BB60F9211242F9332
:102D90003F934F935F936F937F938F939F93AF93E3
:102DA000BF93CF93DF93EF93FF932091C9033091AB
:102DB000CA038091CB039091CC03A091CD03B09135
:102DC000CE03FC01CD01A0FF22C095958795820F0F
:102DD000931FEC01A881B981AE0FBF1FEC91119632
:102DE000FC910995FF91EF91DF91CF91BF91AF9148
:102DF0009F918F917F916F915F914F913F912F9113
:102E00000F900BBE0F900FBE0F901F9018959595C9
:102E10008795820F931FE5CF1F920F920FB60F92E7
:102E20000BB60F9211242F933F934F935F936F93A1
:102E30007F938F939F93AF93BF93CF93DF93EF9342
:102E4000FF932091C3033091C4038091C5039091F7
:102E5000C603A091C703B091C803FC01CD01A0FF38
:102E600022C095958795820F931FEC01A881B981A7
:102E7000AE0FBF1FEC911196FC910995FF91EF9158
:102E8000DF91CF91BF91AF919F918F917F916F9182
:102E90005F914F913F912F910F900BBE0F900FBEFE
:102EA0000F901F90189595958795820F931FE5CFEA
:102EB0001F920F920FB60F920BB60F9211242F9301
:102EC0003F934F935F936F937F938F939F93AF93B2
:102ED000BF93CF93DF93EF93FF932091BD03309186
:102EE000BE038091BF039091C003A091C103B09134
:102EF000C203FC01CD01A0FF22C095958795820FEA
:102F0000931FEC01A881B981AE0FBF1FEC91119600
:102F1000FC910995FF91EF91DF91CF91BF91AF9116
:102F20009F918F917F916F915F914F913F912F91E1
:102F30000F900BBE0F900FBE0F901F901895959598
:102F40008795820F931FE5CF1F920F920FB60F92B6
:102F50000BB60F9211242F933F934F935F936F9370
:102F60007F938F939F93AF93BF93CF93DF93EF9311
:102F7000FF932091B7033091B8038091B9039091EA
:102F8000BA03A091BB03B091BC03FC01CD01A0FF2B
:102F900022C095958795820F931FEC01A881B98176
:102FA000AE0FBF1FEC911196FC910995FF91EF9127
:102FB000DF91CF91BF91AF919F918F917F916F9151
:102FC0005F914F913F912F910F900BBE0F900FBECD
:102FD0000F901F90189595958795820F931FE5CFB9
:102FE0001F920F920FB60F920BB60F9211242F93D0
:102FF0003F934F935F936F937F938F939F93AF9381
:10300000BF93CF93DF93EF93FF932091B103309160
:10301000B2038091B3039091B403A091B503B09132
:10302000B603FC01CD01A0FF22C095958795820FC4
:10303000931FEC01A881B981AE0FBF1FEC911196CF
:10304000FC910995FF91EF91DF91CF91BF91AF91E5
:103050009F918F917F916F915F914F913F912F91B0
:103060000F900BBE0F900FBE0F901F901895959567
:103070008795820F931FE5CF1F920F920FB60F9285
:103080000BB60F9211242F933F934F935F936F933F
:103090007F938F939F93AF93BF93CF93DF93EF93E0
:1030A000FF932091AB033091AC038091AD039091DD
:1030B000AE03A091AF03B091B003FC01CD01A0FF1E
:1030C00022C095958795820F931FEC01A881B98145
:1030D000AE0FBF1FEC911196FC910995FF91EF91F6
:1030E000DF91CF91BF91AF919F918F917F916F9120
:1030F0005F914F913F912F910F900BBE0F900FBE9C
:103100000F901F90189595958795820F931FE5CF87
:103110001F920F920FB60F920BB60F9211242F939E
:103120003F934F935F936F937F938F939F93AF934F
:10313000BF93CF93DF93EF93FF932091A50330913B
:10314000A6038091A7039091A803A091A903B09131
:10315000AA03FC01CD01A0FF22C095958795820F9F
:10316000931FEC01A881B981AE0FBF1FEC9111969E
:10317000FC910995FF91EF91DF91CF91BF91AF91B4
:103180009F918F917F916F915F914F913F912F917F
:103190000F900BBE0F900FBE0F901F901895959536
:1031A0008795820F931FE5CF1F920F920FB60F9254
:1031B0000BB60F9211242F933F934F935F936F930E
:1031C0007F938F939F93AF93BF93CF93DF93EF93AF
:1031D000FF9320919F033091A0038091A1039091D0
:1031E000A203A091A303B091A403FC01CD01A0FF11
:1031F00022C095958795820F931FEC01A881B98114
:10320000AE0FBF1FEC911196FC910995FF91EF91C4
:10321000DF91CF91BF91AF919F918F917F916F91EE
:103220005F914F913F912F910F900BBE0F900FBE6A
:103230000F901F90189595958795820F931FE5CF56
:103240001F920F920FB60F920BB60F9211242F936D
:103250003F934F935F936F937F938F939F93AF931E
:10326000BF93CF93DF93EF93FF9320919903309116
:103270009A0380919B0390919C03A0919D03B09130
:103280009E03FC01CD01A0FF22C095958795820F7A
:10329000931FEC01A881B981AE0FBF1FEC9111966D
:1032A000FC910995FF91EF91DF91CF91BF91AF9183
:1032B0009F918F917F916F915F914F913F912F914E
:1032C0000F900BBE0F900FBE0F901F901895959505
:1032D0008795820F931FE5CF1F920F920FB60F9223
:1032E0000BB60F9211242F933F934F935F936F93DD
:1032F0007F938F939F93AF93BF93CF93DF93EF937E
:10330000FF932091930330919403809195039091C2
:103310009603A0919703B0919803FC01CD01A0FF03
:1033200022C095958795820F931FEC01A881B981E2
:10333000AE0FBF1FEC911196FC910995FF91EF9193
:10334000DF91CF91BF91AF919F918F917F916F91BD
:103350005F914F913F912F910F900BBE0F900FBE39
:103360000F901F90189595958795820F931FE5CF25
:103370001F920F920FB60F920BB60F9211242F933C
:103380003F934F935F936F937F938F939F93AF93ED
:10339000BF93CF93DF93EF93FF9320918D033091F1
:1033A0008E0380918F0390919003A0919103B0912F
:1033B0009203FC01CD01A0FF22C095958795820F55
:1033C000931FEC01A881B981AE0FBF1FEC9111963C
:1033D000FC910995FF91EF91DF91CF91BF91AF9152
:1033E0009F918F917F916F915F914F913F912F911D
:1033F0000F900BBE0F900FBE0F901F9018959595D4
:103400008795820F931FE5CF1F920F920FB60F92F1
:103410000BB60F9211242F933F934F935F936F93AB
:103420007F938F939F93AF93BF93CF93DF93EF934C
:10343000FF932091870330918803809189039091B5
:103440008A03A0918B03B0918C03FC01CD01A0FFF6
:1034500022C095958795820F931FEC01A881B981B1
:10346000AE0FBF1FEC911196FC910995FF91EF9162
:10347000DF91CF91BF91AF919F918F917F916F918C
:103480005F914F913F912F910F900BBE0F900FBE08
:103490000F901F90189595958795820F931FE5CFF4
:1034A0001F920F920FB60F920BB60F9211242F930B
:1034B0003F934F935F936F937F938F939F93AF93BC
:1034C000BF93CF93DF93EF93FF93209181033091CC
:1034D00082038091830390918403A0918503B0912E
:1034E0008603FC01CD01A0FF22C095958795820F30
:1034F000931FEC01A881B981AE0FBF1FEC9111960B
:10350000FC910995FF91EF91DF91CF91BF91AF9120
:103510009F918F917F916F915F914F913F912F91EB
:103520000F900BBE0F900FBE0F901F9018959595A2
:103530008795820F931FE5CF1F920F920FB60F92C0
:103540000BB60F9211242F933F934F935F936F937A
:103550007F938F939F93AF93BF93CF93DF93EF931B
:10356000FF9320917B0330917C0380917D039091A8
:103570007E03A0917F03B0918003FC01CD01A0FFE9
:1035800022C095958795820F931FEC01A881B98180
:10359000AE0FBF1FEC911196FC910995FF91EF9131
:1035A000DF91CF91BF91AF919F918F917F916F915B
:1035B0005F914F913F912F910F900BBE0F900FBED7
:1035C0000F901F90189595958795820F931FE5CFC3
:1035D0001F920F920FB60F920BB60F9211242F93DA
:1035E0003F934F935F936F937F938F939F93AF938B
:1035F000BF93CF93DF93EF93FF93209175033091A7
:1036000076038091770390917803A0917903B0912C
:103610007A03FC01CD01A0FF22C095958795820F0A
:10362000931FEC01A881B981AE0FBF1FEC911196D9
:10363000FC910995FF91EF91DF91CF91BF91AF91EF
:103640009F918F917F916F915F914F913F912F91BA
:103650000F900BBE0F900FBE0F901F901895959571
:103660008795820F931FE5CF1F920F920FB60F928F
:103670000BB60F9211242F933F934F935F936F9349
:103680007F938F939F93AF93BF93CF93DF93EF93EA
:10369000FF9320916F03309170038091710390919B
:1036A0007203A0917303B0917403FC01CD01A0FFDC
:1036B00022C095958795820F931FEC01A881B9814F
:1036C000AE0FBF1FEC911196FC910995FF91EF9100
:1036D000DF91CF91BF91AF919F918F917F916F912A
:1036E0005F914F913F912F910F900BBE0F900FBEA6
:1036F0000F901F90189595958795820F931FE5CF92
:103700001F920F920FB60F920BB60F9211242F93A8
:103710003F934F935F936F937F938F939F93AF9359
:10372000BF93CF93DF93EF93FF9320916903309181
:103730006A0380916B0390916C03A0916D03B0912B
:103740006E03FC01CD01A0FF22C095958795820FE5
:10375000931FEC01A881B981AE0FBF1FEC911196A8
:10376000FC910995FF91EF91DF91CF91BF91AF91BE
:103770009F918F917F916F915F914F913F912F9189
:103780000F900BBE0F900FBE0F901F901895959540
:103790008795820F931FE5CF1F920F920FB60F925E
:1037A0000BB60F9211242F933F934F935F936F9318
:1037B0007F938F939F93AF93BF93CF93DF93EF93B9
:1037C000FF9320916303309164038091650390918E
:1037D0006603A0916703B0916803FC01CD01A0FFCF
:1037E00022C095958795820F931FEC01A881B9811E
:1037F000AE0FBF1FEC911196FC910995FF91EF91CF
:10380000DF91CF91BF91AF919F918F917F916F91F8
:103810005F914F913F912F910F900BBE0F900FBE74
:103820000F901F90189595958795820F931FE5CF60
:103830001F920F920FB60F920BB60F9211242F9377
:103840003F934F935F936F937F938F939F93AF9328
:10385000BF93CF93DF93EF93FF9320915D0330915C
:103860005E0380915F0390916003A0916103B0912A
:103870006203FC01CD01A0FF22C095958795820FC0
:10388000931FEC01A881B981AE0FBF1FEC91119677
:10389000FC910995FF91EF91DF91CF91BF91AF918D
:1038A0009F918F917F916F915F914F913F912F9158
:1038B0000F900BBE0F900FBE0F901F90189595950F
:1038C0008795820F931FE5CF1F920F920FB60F922D
:1038D0000BB60F9211242F933F934F935F936F93E7
:1038E0007F938F939F93AF93BF93CF93DF93EF9388
:1038F000FF93209157033091580380915903909181
:103900005A03A0915B03B0915C03FC01CD01A0FFC1
:1039100022C095958795820F931FEC01A881B981EC
:10392000AE0FBF1FEC911196FC910995FF91EF919D
:10393000DF91CF91BF91AF919F918F917F916F91C7
:103940005F914F913F912F910F900BBE0F900FBE43
:103950000F901F90189595958795820F931FE5CF2F
:103960001F920F920FB60F920BB60F9211242F9346
:103970003F934F935F936F937F938F939F93AF93F7
:10398000BF93CF93DF93EF93FF9320915103309137
:1039900052038091530390915403A0915503B09129
:1039A0005603FC01CD01A0FF22C095958795820F9B
:1039B000931FEC01A881B981AE0FBF1FEC91119646
:1039C000FC910995FF91EF91DF91CF91BF91AF915C
:1039D0009F918F917F916F915F914F913F912F9127
:1039E0000F900BBE0F900FBE0F901F9018959595DE
:1039F0008795820F931FE5CF1F920F920FB60F92FC
:103A00000BB60F9211242F933F934F935F936F93B5
:103A10007F938F939F93AF93BF93CF93DF93EF9356
:103A2000FF9320914B0330914C0380914D03909173
:103A30004E03A0914F03B0915003FC01CD01A0FFB4
:103A400022C095958795820F931FEC01A881B981BB
:103A5000AE0FBF1FEC911196FC910995FF91EF916C
:103A6000DF91CF91BF91AF919F918F917F916F9196
:103A70005F914F913F912F910F900BBE0F900FBE12
:103A80000F901F90189595958795820F931FE5CFFE
:103A90001F920F920FB60F920BB60F9211242F9315
:103AA0003F934F935F936F937F938F939F93AF93C6
:103AB000BF93CF93DF93EF93FF9320914503309112
:103AC00046038091470390914803A0914903B09128
:103AD0004A03FC01CD01A0FF22C095958795820F76
:103AE000931FEC01A881B981AE0FBF1FEC91119615
:103AF000FC910995FF91EF91DF91CF91BF91AF912B
:103B00009F918F917F916F915F914F913F912F91F5
:103B10000F900BBE0F900FBE0F901F9018959595AC
:103B20008795820F931FE5CF1F920F920FB60F92CA
:103B30000BB60F9211242F933F934F935F936F9384
:103B40007F938F939F93AF93BF93CF93DF93EF9325
:103B5000FF9320913F033091400380914103909166
:103B60004203A0914303B0914403FC01CD01A0FFA7
:103B700022C095958795820F931FEC01A881B9818A
:103B8000AE0FBF1FEC911196FC910995FF91EF913B
:103B9000DF91CF91BF91AF919F918F917F916F9165
:103BA0005F914F913F912F910F900BBE0F900FBEE1
:103BB0000F901F90189595958795820F931FE5CFCD
:103BC0001F920F920FB60F920BB60F9211242F93E4
:103BD0003F934F935F936F937F938F939F93AF9395
:103BE000BF93CF93DF93EF93FF93209139033091ED
:103BF0003A0380913B0390913C03A0913D03B09127
:103C00003E03FC01CD01A0FF22C095958795820F50
:103C1000931FEC01A881B981AE0FBF1FEC911196E3
:103C2000FC910995FF91EF91DF91CF91BF91AF91F9
:103C30009F918F917F916F915F914F913F912F91C4
:103C40000F900BBE0F900FBE0F901F90189595957B
:103C50008795820F931FE5CF1F920F920FB60F9299
:103C60000BB60F9211242F933F934F935F936F9353
:103C70007F938F939F93AF93BF93CF93DF93EF93F4
:103C8000FF93209133033091340380913503909159
:103C90003603A0913703B0913803FC01CD01A0FF9A
:103CA00022C095958795820F931FEC01A881B98159
:103CB000AE0FBF1FEC911196FC910995FF91EF910A
:103CC000DF91CF91BF91AF919F918F917F916F9134
:103CD0005F914F913F912F910F900BBE0F900FBEB0
:103CE0000F901F90189595958795820F931FE5CF9C
:103CF0001F920F920FB60F920BB60F9211242F93B3
:103D00003F934F935F936F937F938F939F93AF9363
:103D1000BF93CF93DF93EF93FF9320912D033091C7
:103D20002E0380912F0390913003A0913103B09125
:103D30003203FC01CD01A0FF22C095958795820F2B
:103D4000931FEC01A881B981AE0FBF1FEC911196B2
:103D5000FC910995FF91EF91DF91CF91BF91AF91C8
:103D60009F918F917F916F915F914F913F912F9193
:103D70000F900BBE0F900FBE0F901F90189595954A
:103D80008795820F931FE5CF1F920F920FB60F9268
:103D90000BB60F9211242F933F934F935F936F9322
:103DA0007F938F939F93AF93BF93CF93DF93EF93C3
:103DB000FF9320912703309128038091290390914C
:103DC0002A03A0912B03B0912C03FC01CD01A0FF8D
:103DD00022C095958795820F931FEC01A881B98128
:103DE000AE0FBF1FEC911196FC910995FF91EF91D9
:103DF000DF91CF91BF91AF919F918F917F916F9103
:103E00005F914F913F912F910F900BBE0F900FBE7E
:103E10000F901F90189595958795820F931FE5CF6A
:103E20001F920F920FB60F920BB60F9211242F9381
:103E30003F934F935F936F937F938F939F93AF9332
:103E4000BF93CF93DF93EF93FF93209121033091A2
:103E500022038091230390912403A0912503B09124
:103E60002603FC01CD01A0FF22C095958795820F06
:103E7000931FEC01A881B981AE0FBF1FEC91119681
:103E8000FC910995FF91EF91DF91CF91BF91AF9197
:103E90009F918F917F916F915F914F913F912F9162
:103EA0000F900BBE0F900FBE0F901F901895959519
:103EB0008795820F931FE5CFFC01A781B0858FB74F
:103EC000F8944D915C918FBFA185B2858FB7F8941E
:103ED0002D913C918FBFA385B4856FB7F8948D91D8
:103EE0009C9111976FBF5083418332831382268B3D
:103EF000978B808F118E08951F93CF93DF93EB01E3
:103F00000E946639182FCE010E94663987FD15C0C0
:103F10008F77412F50E09A01220F331F440F551F16
:103F2000440F551F440F551F240F351F280F311DF7
:103F3000C901DF91CF911F910895412F50E09A015F
:103F4000220F331F440F551F440F551F440F551F99
:103F5000240F351F8F77281B3109C901DF91CF91BD
:103F60001F910895CF93DF93CDB7DEB728970FB693
:103F7000F894DEBF0FBECDBFFC01828180937A0230
:103F8000818180937B022381822F90E0807C9070DE
:103F9000959587959595879590819F74982B90938B
:103FA0007C02822F8F7090917E02892B80937E02FB
:103FB000848180937F023581832F90E02091B1022C
:103FC00020783072232BDC01AF70B070A85DBE4F3B
:103FD0003C91232B807C9070009709F45BC0206893
:103FE00086E394E0A0E0B0E08B839C83AD83BE8346
:103FF00083EF91E09A83898318861F82AAEDB2E04D
:104000000DC082601A968C931A9781E09FBF882317
:1040100081F41B9683E0AC31B807E1F19FB7F894C7
:104020001A968C911A9781FFECCF80E09FBF88236E
:1040300081F340911D0350911E0360911F03709105
:10404000200348515C4F6F4F7F4F18964C93189741
:1040500019965C931997962F91701A968C911A97CE
:104060008E7F892B1A968C931A974B815C816D8178
:104070007E8112964D935D936D937C931597898104
:104080009A8111969C938E938F81988517969C9315
:104090008E9316972093B102908181E095FD80E088
:1040A00080930B0181E080930C0128960FB6F89461
:1040B000DEBF0FBECDBFDF91CF9108951F9B089546
:1040C0000E94B21F08951F9908950E94B21F08957B
:1040D000BF92CF92DF92EF92FF920F931F93CF93F5
:1040E000DF93EC01062FB72E488159816A817B81CD
:1040F000DB01CA018F779070A070B0700097A105A6
:10410000B105F9F441505040604070406A017B01B4
:1041100039E0F694E794D794C7943A95D1F7769519
:1041200067955795479540788CE46C2D20E00E9468
:1041300036088CEB94E30197F1F7488159816A8145
:104140007B81842F8170880F880F880F6A017B0123
:10415000F694E794D794C794806460E04C2D202FA8
:104160000E943608088119812A813B81B901A80182
:104170004F5F5F4F6F4F7F4F488359836A837B83C5
:10418000DB01CA018F779070A070B0700097A10515
:10419000B105E9F46801790189E0F694E794D794D0
:1041A000C7948A95D1F7B901A80176956795579577
:1041B000479540788CE46C2D20E00E9436088CEB0B
:1041C00094E30197F1F7488159816A817B81842FBB
:1041D0008170880F880F880F8A019B01369527957B
:1041E00017950795806460E0402F2B2D0E943608BC
:1041F00088819981AA81BB810196A11DB11D888307
:104200009983AA83BB83DF91CF911F910F91FF9078
:10421000EF90DF90CF90BF900895FF920F931F9380
:10422000CF93DF93EC01062FF72E488159816A81E5
:104230007B81DB01CA0187709070A070B07000971D
:10424000A105B105A9F4DB01CA010197A109B109D2
:104250009F704150487F82EC692F20E00E94360811
:1042600088E799E60197F1F7488159816A817B8156
:10427000477081EC60E0202F0E9436088881998188
:10428000AA81BB818C019D010F5F1F4F2F4F3F4FB4
:10429000088319832A833B83B901A80147705070B2
:1042A00060707070411551056105710589F4692FC1
:1042B0006F70402F4150487F82EC20E00E9436080A
:1042C00088E799E60197F1F7088119812A813B81F6
:1042D000402F477081EC60E02F2D0E9436088881C6
:1042E0009981AA81BB810196A11DB11D8883998303
:1042F000AA83BB83DF91CF911F910F91FF90089507
:10430000FF920F931F93CF93DF93EC0108811981E4
:104310002A813B81802F8170880F880F880FB90117
:10432000A801F9E07695679557954795FA95D1F7E5
:1043300036952795179507958062642F402F20E0CA
:104340000E943608F82E088119812A813B810F5F6F
:104350001F4F2F4F3F4F088319832A833B83802FA2
:104360008170880F880F880FB901A801B9E0769590
:10437000679557954795BA95D1F73695279517952F
:1043800007958062642F402F20E00E943608982F06
:10439000488159816A817B814F5F5F4F6F4F7F4FAB
:1043A000488359836A837B838F2DDF91CF911F913F
:1043B0000F91FF900895FF920F931F93CF93DF9378
:1043C000EC0148816981677080EA20E00E9436082C
:1043D000F82E088119812A813B810F5F1F4F2F4FD3
:1043E0003F4F088319832A833B83612F677080EADC
:1043F000402F20E00E943608982F488159816A8119
:104400007B814F5F5F4F6F4F7F4F488359836A8334
:104410007B838F2DDF91CF911F910F91FF90089596
:10442000FF920F931F93CF93DF938C01DC011596BE
:10443000ED91FC91169780812181813209F4A8C009
:10444000823208F067C0813109F4A2C0823108F0DD
:10445000F4C0833009F415C1843009F4D4C0882332
:1044600009F07BC0E8018D89813209F465C182328F
:1044700008F021C1813109F4F5C1823109F06DC024
:10448000EF81F8858FB7F894208131818FBFC80103
:10449000632F722F0E946820E801E985FA858FB7A3
:1044A000F894208131818FBFC801632F722F0E9441
:1044B0006820EB85FC858FB7F894208131818FBF10
:1044C000C801632F722F0E94682088819981AA8178
:1044D000BB814E895F89688D798D84179507A60702
:1044E000B70708F0A2C1AD85BE85ED81FE8182E0EF
:1044F00091812FB7F89411969C938E932FBFD8017A
:104500001D96ED91FC911E9715960D90BC91A02DD6
:1045100080E01BC0813339F1823308F094C08332CC
:1045200009F4AFC0833208F03EC082E2F801858B07
:10453000C8010E945C1FD8011D96ED91FC911E9749
:1045400015960D90BC91A02D82E011969C9111972B
:104550002FB7F894918380832FBFDF91CF911F9164
:104560000F91FF900895D80155968C9355971D96FD
:10457000ED91FC911E9781E0922F2FB7F8949183D3
:1045800080832FBFDF91CF911F910F91FF900895EE
:10459000E8018D8BC8010E945C1FED85FE85AD8111
:1045A000BE8181E0D2CF8432C1F6E8016881798191
:1045B0008A819B810E944808F80180819181A281B3
:1045C000B3810197A109B1099C01AD0169E056953C
:1045D0004795379527956A95D1F7B695A7959795FD
:1045E0008795982F90788CE4622F492F20E00E94C5
:1045F00036088CEB94E30197F1F7D8011596ED910D
:10460000FC9116972181E801ED85FE8584E0922FCB
:104610002FB7F894918380832FBF24982C9AF89415
:1046200028E088E190E00FB6F894A89580936000A8
:104630000FBE209360000000FECF833111F1833163
:1046400070F482E173CF8333E1F0833388F482E343
:10465000F801858B0584F685E02D82E08DCF8431CD
:1046600009F4AACFDF91CF911F910F91FF90089588
:10467000843309F4C8CFDF91CF911F910F91FF9040
:104680000895E801ED85FE8583E0922F2FB7F89419
:10469000918380832FBF8CEA60E840E020E00E9495
:1046A000360888E799E60197F1F7ED85FE85AD813B
:1046B000BE8180E04ACF813309F487C0823309F498
:1046C00080C0823209F049CFE801EF81F8858FB7C9
:1046D000F894208131818FBFC801632F722F0E940F
:1046E0000D21E985FA858FB7F894208131818FBF3C
:1046F000C801632F722F0E940D21EB85FC858FB7B7
:10470000F894208131818FBFC801632F722F0E94DE
:104710000D21688179818A819B812E893F89488D0D
:10472000598D621773078407950708F047C0AD8558
:10473000BE85ED81FE81DBCE0F84D889C02DC801F6
:104740000E94DB21292F382F8FB7F89439832883D3
:104750008FBFD8015196CD91DC915297C8010E942C
:10476000DB21292F382F8FB7F894398328838FBF07
:10477000F801C389D489C8010E94DB21292F382F71
:104780008FB7F894398328838FBFD8014D915D91FD
:104790006D917C91139756968D919D910D90BC9142
:1047A000A02D84179507A607B70708F4A8CEE8013F
:1047B000ED85FE85AD81BE8181E0C7CE0E944808AF
:1047C0009ECEED85FE8580E0D7CE0F84D889C02DA2
:1047D00088E568E040E020E00E943608F82E80E599
:1047E00060E040E020E00E9436082F2D382F8FB780
:1047F000F894398328838FBFD8015196CD91DC91ED
:10480000529780E568E040E020E00E94360820E012
:10481000382F8FB7F894398328838FBFE801ED854F
:10482000FE85AD81BE8180E090CE0197A109B109DE
:104830009C01AD0169E056954795379527956A9596
:10484000D1F7B695A79597958795982F90788CE492
:10485000622F492F20E00E9436088CEB94E30197E9
:10486000F1F74DCE0F84D889C02DC8010E94802158
:10487000292F382F8FB7F894398328838FBFD80119
:104880005196CD91DC915297C8010E948021292F29
:10489000382F8FB7F894398328838FBFF801C389E5
:1048A000D489C8010E94802169CFCF93DF9300D0C3
:1048B00000D000D0CDB7DEB7BC01FC01E056FF4F01
:1048C000DC01AE55BF4F845F9E4F28E531E0118279
:1048D000108211963C932E9313961C921E9212975F
:1048E00036961696E817F90791F78091D8008160FF
:1048F0008093D800E2EEF0E08091E20081788A6057
:104900008093E2008091E3008E6081838091E400D7
:1049100081788B6482838091ED008F708093ED00AD
:1049200088E08093EF0085E090E0A0EEBFEF8093F9
:10493000F4009093F500A093F600B093F7008091F7
:10494000ED008F7080618093ED0088E08093EF0030
:1049500085E08093F4009093F500A093F600B09367
:10496000F7008091ED008F7080628093ED0087E00A
:104970008093EF0080E0B3E68093F0009093F10025
:10498000A093F200B093F30085E0BFEF8093F400B2
:104990009093F500A093F600B093F7008091ED009E
:1049A0008F7080638093ED0088E08093EF0080E05B
:1049B000A0ECB3E68093F0009093F100A093F20096
:1049C000B093F30085E0A0EEBFEF8093F4009093E6
:1049D000F500A093F600B093F7008091ED008F7082
:1049E00080648093ED0088E08093EF0085E0809301
:1049F000F4009093F500A093F600B093F700809137
:104A0000ED008F7080658093ED0088EC8093EF005F
:104A100080E0A0E0B9E08093F0009093F100A093D3
:104A2000F200B093F30085E0A0EEBFEF8093F400B6
:104A30009093F500A093F600B093F7008091ED00FD
:104A40008F7080668093ED0088E88093EF0080E0AF
:104A5000A0E0BAE08093F0009093F100A093F20000
:104A6000B093F30085E0A0EABFEF8093F400909349
:104A7000F500A093F600B093F7008091ED008F70E1
:104A800080678093ED0088E88093EF0080E0A0E0ED
:104A9000BBE08093F0009093F100A093F200B093FC
:104AA000F30085E0A0EABFEF8093F4009093F50057
:104AB000A093F600B093F7008091ED008F708068AE
:104AC0008093ED0088E88093EF0080E0A0E0BEE0F6
:104AD0008093F0009093F100A093F200B093F30064
:104AE00085E0A0EEBDEF8093F4009093F500A093D5
:104AF000F600B093F7008091ED008F70806980938D
:104B0000ED0088E88093EF0080E0A0E0B0E18093C2
:104B1000F0009093F100A093F200B093F30085E0D1
:104B2000A0E6BFEF8093F4009093F500A093F60009
:104B3000B093F7008091ED008F70806A8093ED0054
:104B400088E88093EF0080E0A0E2B0E18093F0007D
:104B50009093F100A093F200B093F30085E0A0E6FB
:104B6000BFEF8093F4009093F500A093F600B0930C
:104B7000F7008091ED008F70806B8093ED0088ECE2
:104B80008093EF0080E0A0EEB8E18093F000909376
:104B9000F100A093F200B093F30085E0BFEF8093A3
:104BA000F4009093F500A093F600B093F700809185
:104BB000ED008F70806C8093ED0088EC8093EF00A7
:104BC00080E0A0E2B2E48093F0009093F100A09323
:104BD000F200B093F30085E0A0EEBFEF8093F40005
:104BE0009093F500A093F600B093F7008091ED004C
:104BF0008F70806D8093ED0088E88093EF0080E0F7
:104C0000A0E4BAE48093F0009093F100A093F20046
:104C1000B093F30085E0A0EAB7ED8093F4009093A1
:104C2000F500A093F600B093F7008091ED008F702F
:104C3000806E8093ED0088EC8093EF0080E0A0E030
:104C4000BDE88093F0009093F100A093F200B09340
:104C5000F30085E0A0EEBFEF8093F4009093F500A1
:104C6000A093F600B093F70080EE9FE79093DF00EB
:104C70008093DE008091DB00806A8093DB002AEC69
:104C80003BE040E050E0CE0101960E94A00B8B81FA
:104C90009C81AD81BE8180938F0390939003A093FC
:104CA0009103B093920389819A8190938E038093AC
:104CB0008D038091D80082608093D8008091D900C4
:104CC00082FFFCCF26960FB6F894DEBF0FBECDBF95
:104CD000DF91CF9108953F924F925F926F927F92B2
:104CE0008F929F92AF92BF92CF92DF92EF92FF92FC
:104CF0000F931F93CF93DF93CDB7DEB72B970FB6EC
:104D0000F894DEBF0FBECDBFFB01C080D180E28032
:104D1000F380C701B6012CE030E040E050E00E9493
:104D2000C3376D837E838F83988786E090E00E94EF
:104D30002F0E880F880F8150482E55246624772423
:104D4000DC82CB8281E090E09B878A872EC0682D31
:104D5000592D4A2D7B2D862E952EA42EB72E281741
:104D600039070CF0032D302E281739070CF465C0D5
:104D700099818A8199838A832A853B8520343105EC
:104D800008F458C084E090E02A853B85289F700194
:104D9000299FF00C389FF00C1124FB86EA86A701AE
:104DA00084E04130580708F053C02A853B856901EB
:104DB000EE24FF246D817E818F819885A701960165
:104DC0000E94F63789019A0101501040204030407E
:104DD000401651066206730610F493018201602F9B
:104DE00070E06F5F7F4F882777FD8095982FA70130
:104DF00096010E94C3372CE030E040E050E00E9472
:104E0000F63769017A01C4014B815C81841B950BE3
:104E100097FD1AC09601EB81FC812E1B3F0B37FDDD
:104E20000FC0281739070CF092CF6C2D5D2D4E2D39
:104E30007F2D91CF88E090E0A7CF9A858B859ACF80
:104E4000309521953F4FEDCF909581959F4FE2CFC3
:104E50000093B300E981FA81E034F10509F448C018
:104E6000E134F10598F129813A8141E0203034079D
:104E7000C9F154E02030350791F199859770809100
:104E8000B000807B892B88608F7C8093B0008091FC
:104E90007000826080937000B401C5012B960FB63C
:104EA000F894DEBF0FBECDBFDF91CF911F910F9160
:104EB000FF90EF90DF90CF90BF90AF909F908F903A
:104EC0007F906F905F904F903F900895E130F10593
:104ED00061F0E830F10589F682E08987CECFF7E00E
:104EE000F987CBCFE6E0E987C8CF21E02987C5CF96
:104EF00094E09987C2CFAF92BF92CF92DF92EF92A8
:104F0000FF920F931F93CF93DF9300D000D0CDB7C4
:104F1000DEB75C0110919B0280919D0281FF43C02E
:104F2000123008F440C08EE190E09093010180932C
:104F3000000180917000826080937000F501818192
:104F40008117E1F11183E0910F01F091100160816F
:104F5000718180E090E028EF36E041E050E00E946F
:104F6000C33728EE33E040E050E00E94F637690195
:104F70007A01212F30E040E050E0C701B6010E94E5
:104F8000F63789019A0109831A832B833C830739F9
:104F900011052105310590F0C501BE016F5F7F4FFE
:104FA0000E946B260BC086E090E0909301018093F5
:104FB0000001809170008D7F8093700081E0F50189
:104FC00082830F900F900F900F90DF91CF911F91E0
:104FD0000F91FF90EF90DF90CF90BF90AF9008952A
:104FE000FC01228333834483558371836083089556
:104FF000DC0111961C921E92E8E5F1E01396FC93F9
:10500000EE93129715961C921E9214970E94F02709
:105010000895CF93DF93CDB7DEB7CB58D0400FB60E
:10502000F894DEBF0FBECDBF28EA31E0F9018491CC
:1050300090E0FC01EE0FFF1FE80FF91FEE0FFF1FBE
:10504000EE56FD4F8AE394E0A0E0B0E0CA57DF4F90
:1050500088839983AA83BB83C658D04083A794A72B
:10506000A5A7B6A784E09EE292A781A7F90134978D
:10507000849190E0FC01EE0FFF1FE80FF91FEE0F87
:10508000FF1FEE56FD4F8AE394E0A0E0B0E0C05869
:10509000DF4F88839983AA83BB83C058D04083A7FE
:1050A00094A7A5A7B6A78FED91E092A781A7F901D4
:1050B0003597849190E0FC01EE0FFF1FE80FF91F78
:1050C000EE0FFF1FEE56FD4F8AE394E0A0E0B0E044
:1050D000EE968CAF9DAFAEAFBFAFEE9783A794A710
:1050E000A5A7B6A785ED9EE092A781A727503040DF
:1050F000F901849190E07C01EE0CFF1CE80EF91E92
:10510000EE0CFF1C82E992E0E80EF91ED701999699
:10511000C657DF4FB983A883CA58D0402BE737E280
:1051200040E050E0CE018E589F4F6EE571E00E9446
:10513000F827E8968CAD9DADAEADBFADE897C657EC
:10514000DF4FE881F981CA58D04082839383A483DA
:10515000B583E4968EAD9FADE497D7019A969C9364
:105160008E93999786E394E0A0E0B0E0E2968CAF4E
:105170009DAFAEAFBFAFE297809310029093110244
:10518000A0931202B09313022BE23AE030930F0285
:1051900020930E0286E394E0A0E0B0E0AC968CAFE2
:1051A0009DAFAEAFBFAFAC9780931602909317023E
:1051B000A0931802B09319023093150220931402A1
:1051C00086E394E0A0E0B0E0A6968CAF9DAFAEAFD2
:1051D000BFAFA69780931C0290931D02A0931E025E
:1051E000B0931F0230931B0220931A0286E394E0CF
:1051F000A0E0B0E0A0968CAF9DAFAEAFBFAFA097E0
:105200008093220290932302A0932402B09325025C
:1052100086EA91E1909321028093200286E394E054
:10522000A0E0B0E06A968CAF9DAFAEAFBFAF6A971B
:105230008093280290932902A0932A02B0932B0214
:1052400088E798E0909327028093260286E394E013
:10525000A0E0B0E064968CAF9DAFAEAFBFAF6497F7
:1052600080932E0290932F02A0933002B0933102CC
:105270008EE893E190932D0280932C0286E394E0D4
:10528000A0E0B0E02E968CAF9DAFAEAFBFAF2E9733
:105290008093340290933502A0933602B093370284
:1052A00083E690E2909333028093320286E394E0A7
:1052B000A0E0B0E028968CAF9DAFAEAFBFAF28970F
:1052C00080933A0290933B02A0933C02B0933D023C
:1052D0008EE590E2909339028093380286E394E061
:1052E000A0E0B0E022968CAF9DAFAEAFBFAF2297EB
:1052F0008093400290934102A0934202B0934302F4
:1053000086EC91E090933F0280933E0286E394E026
:10531000A0E0B0E088AF99AFAAAFBBAF80937602B0
:1053200090937702A0937802B093790287E092E19C
:10533000909375028093740286E394E0A0E0B0E05D
:105340008AAB9BABACABBDAB80934602909347025C
:10535000A0934802B09349028FE89DE090934502E4
:105360008093440286E394E0A0E0B0E08CA79DA780
:10537000AEA7BFA780935E0290935F02A0936002E6
:10538000B093610284E390E190935D0280935C02AC
:1053900086E394E0A0E0B0E08EA39FA3A8A7B9A7FE
:1053A00080934C0290934D02A0934E02B0934F0213
:1053B0008CE098E090934B0280934A0286E394E05D
:1053C000A0E0B0E088A399A3AAA3BBA38093640242
:1053D00090936502A0936602B09367028FEC99E008
:1053E000909363028093620286E394E0A0E0B0E0D1
:1053F0008A8F9B8FAC8FBD8F809352029093530204
:10540000A0935402B093550286E091E1909351022B
:105410008093500286E394E0A0E0B0E08C8B9D8BFB
:10542000AE8BBF8B80936A0290936B02A0936C0249
:10543000B0936D0282E69FE09093690280936802C8
:1054400086E394E0A0E0B0E08E879F87A88BB98BBD
:105450008093580290935902A0935A02B0935B0232
:1054600082EE97E0909357028093560286E394E091
:10547000A0E0B0E088879987AA87BB8780937002F5
:1054800090937102A0937202B093730283E799E044
:1054900090936F0280936E02809124018823A1F47F
:1054A00081E08093240116BCA99A80916E008260ED
:1054B00080936E001092850010928400B19A8091C2
:1054C0006F00826080936F00789482E091E0FC012D
:1054D000249139963491FE01319645E0DF011D9209
:1054E0004A95E9F70396FC0184918A83822F90E024
:1054F000831B9109231B292B2D831F99A8C28091FF
:10550000DC009091DD0084FD21C080E48093ED00FB
:1055100080E090E0A0E0B8E98093F0009093F10083
:10552000A093F200B093F30089818093FA008A81FE
:105530008093FA008B818093FA008C818093FA002B
:105540008D818093FA0085E48093EF0080E395E7F6
:105550000197F1F78091DC009091DD0084FD21C07E
:1055600080E48093ED0080E090E0A0E6B6EC8093CC
:10557000F0009093F100A093F200B093F3008981C2
:105580008093FA008A818093FA008B818093FA00DD
:105590008C818093FA008D818093FA0085E480935A
:1055A000EF0083B121E030E085FD02C020E030E073
:1055B0008091FE0B90E0822B932B8093FE0B009743
:1055C00089F083B185FD0EC0F89428E088E190E071
:1055D0000FB6F894A895809360000FBE20936000EA
:1055E0000000FECF7FB7F8949091FA0B8091FB0BEF
:1055F000981709F452C1E091FA0BF0E0EE0FFF1F8B
:10560000EE0FFF1FEE0FFF1FE650FC4F82819381CC
:105610004481558120813181C680D7806091FA0B09
:105620006F5F6093FA0B6091F90361506093F90327
:105630007FBF2115310509F43BC1A82FB92FCA013D
:1056400040FF21C195958795820F931FFC01208112
:1056500031812A0F3B1FF901A081B181B601FD0103
:105660000995A8956FB7F8944091E40241FF08C0EE
:10567000942F917080911F038170981709F447C18E
:1056800020E030E088E591E040E050E06FBFE82F97
:10569000F92FC90120FFFCC095958795840F951FB0
:1056A000DC012D913C912E0F3F1FD901EC911196F9
:1056B000FC91B80109956FB7F8944091EF0241FF52
:1056C00008C0942F917080911F038170981709F47E
:1056D0009EC120E030E088E591E040E050E06FBFFF
:1056E000E82FF92FC90120FFC4C095958795840F35
:1056F000951FDC012D913C912E0F3F1FD901EC919C
:105700001196FC91B80109956FB7F8944091FA028F
:1057100041FF08C0942F917080911F0381709817EA
:1057200009F4D5C020E030E088E591E040E050E0A9
:105730006FBFE82FF92FC90120FFA0C0959587956D
:10574000840F951FDC012D913C912E0F3F1FD90135
:10575000EC911196FC91B80109956FB7F8944091BE
:10576000050341FF08C0942F917080911F03817041
:10577000981709F40CC120E030E088E591E040E0A2
:1057800050E06FBFE82FF92FC90120FF6DC095953C
:105790008795840F951FDC012D913C912E0F3F1FA3
:1057A000D901EC911196FC91B80109956FB7F89465
:1057B0004091100341FF08C0942F917080911F0306
:1057C0008170981709F403C120E030E088E591E08A
:1057D00040E050E06FBFE82FF92FC90120FF3AC029
:1057E00095958795840F951FDC012D913C912E0F87
:1057F0003F1FD901EC911196FC91B80109956FB743
:10580000F89440911B0341FF08C0942F9170809140
:105810001F038170981709F49AC020E030E088E5F2
:1058200091E040E050E06FBFE82FF92FC90120FF61
:1058300016C095958795840F951FDC012D913C919D
:105840002E0F3F1FD901EC911196FC91B8010995DB
:10585000A895A7CE95958795840F951FCECF959542
:105860008795840F951FF2CF95958795840F951F87
:105870009BCF95958795840F951F44CF95958795D8
:10588000840F951F68CF95958795820F931FE6CE5D
:1058900095958795840F951F0CCF20E030E040E070
:1058A00050E088E591E07FBF2115310509F0C5CEB4
:1058B000F1E088359F0709F0C0CE4115510509F484
:1058C000D0CE009709F0B9CE40FFCBCEB6CE209116
:1058D000F8023091F90280911D0390911E03281760
:1058E000390708F01FCF4D7F4093FA028091F202F2
:1058F0009091F3022091F4023091F5024091F00270
:105900005091F1020091F6021091F70211CF20910F
:10591000E2023091E30280911D0390911E0328174B
:10592000390708F0ADCE4D7F4093E4028091DC0250
:105930009091DD022091DE023091DF024091DA0287
:105940005091DB020091E0021091E1029FCE209184
:10595000190330911A0380911D0390911E0328179B
:10596000390708F05ACF4D7F40931B0380911303F2
:105970009091140320911503309116034091110367
:105980005091120300911703109118034CCF2091EE
:1059900003033091040380911D0390911E03281787
:1059A000390708F0E8CE4D7F409305038091FD0252
:1059B0009091FE022091FF02309100034091FB0282
:1059C0005091FC020091010310910203DACE209164
:1059D0000E0330910F0380911D0390911E03281731
:1059E000390708F0F1CE4D7F4093100380910803F2
:1059F0009091090320910A0330910B034091060313
:105A00005091070300910C0310910D03E3CE2091F8
:105A1000ED023091EE0280911D0390911E03281734
:105A2000390708F056CE4D7F4093EF028091E70290
:105A30009091E8022091E9023091EA024091E5025A
:105A40005091E6020091EB021091EC0248CE809159
:105A5000DC009091DD0084FD21C080E48093ED00A6
:105A600080E090E0A0E0BAE98093F0009093F1002C
:105A7000A093F200B093F30089818093FA008A81A9
:105A80008093FA008B818093FA008C818093FA00D6
:105A90008D818093FA0085E48093EF0080E395E7A1
:105AA0000197F1F78091DC009091DD0084FD79CDC4
:105AB00080E48093ED0080E090E0A0E857CDFC0109
:105AC0002283338344835583718360830895DC018B
:105AD00011961C921E92E8E5F1E01396FC93EE936A
:105AE000129715961C921E9214970E945F2D08958E
:105AF0000E94672D0895CF93DF93CDB7DEB7289727
:105B00000FB6F894DEBF0FBECDBFBC0180919D02E1
:105B100081FD5BC086E090E09093010180930001DD
:105B2000809170008D7F80937000FB0112822BE7C3
:105B30003DE240E050E0CE0101960E94782D1886AB
