:100000000C9488000C94D70D0C94020E0C942D0EB9
:100010000C94580E0C94830E0C94AE0E0C94D90EC6
:100020000C94040F0C942F0F0C945A0F0C94850F02
:100030000C94B00F0C94DB0F0C9406100C94311040
:100040000C945C100C9487100C94B2100C94DD107E
:100050000C9408110C9433110C945E110C948911BA
:100060000C94B4110C94DF110C940A120C943512F8
:100070000C9460120C948B120C94B6120C94E11236
:100080000C940C130C9437130C9462130C948D1372
:080090000C94B813C334C8340A
:1001000000000000017D1921010100B900DFD9FDC7
:1001100011241FBECFEFD0E1DEBFCDBF11E0A0E0C4
:10012000B1E0E2E8FDE602C005900D92A037B1070C
:10013000D9F71AE0A0E7B1E001C01D92A831B107DC
:10014000E1F73C9A3D9A449A459A2DE088E190E087
:100150000FB6F894A895809360000FBE20936000BE
:10016000259810E0C6E9D0E004C02297FE010E9465
:100170005235C439D107C9F70E9420200C94B436F7
:100180000001000203000000040000000000000065
:100190000000000000000000908F8E8D080706050B
:1001A000000000000000000000000000000000004F
:1001B000000000000000000000000000000000003F
:1001C000000000000000000000000000000000002F
:1001D000000000000000000000000000000000001F
:1001E0008C8B8A89040300000000000000000000DE
:1001F00000000000000000000200000100000000FC
:1002000000000000000000000000000000000000EE
:1002100000000000000000000000000000000000DE
:1002200000000000000000000000000000000000CE
:1002300000000000000000000000000000000000BE
:1002400000000000000000000000000000000000AE
:10025000000000000000000000000000000000009E
:10026000000000000000000000000000000000008E
:10027000000000000000000000000000000000007E
:10028000000000000000000000000000000000006E
:10029000089508954FB7F8945FB7F8942091C0027D
:1002A0003091C10281E090E002C0880F991F6A95E9
:1002B000E2F780959095822393239093C1028093D7
:1002C000C0025FBF4FBF0895FC0184858F3F11F0CE
:1002D0008F5F848708952FB7F8943FB7F894809183
:1002E000C4029091C5029F779093C5028093C40287
:1002F0003FBF2FBF08958091B5028970893031F0DA
:100300001092760181E080937B01089581E08093D3
:10031000760108958091FD01809393028091FE0102
:10032000809394028091FF01809395028091FA015D
:10033000809399028091FB0180939A028091FC0145
:1003400080939B0208953F924F925F926F927F92AB
:100350008F929F92AF92BF92CF92DF92EF92FF92D5
:100360000F931F93CF93DF93CDB7DEB72A970FB6C6
:10037000F894DEBF0FBECDBF9A878987FB018081CD
:10038000982F94749434D9F485FD19C08580B82CC5
:10039000BB0CBB0804811381A985BA855F968C913B
:1003A0005F97882321F190961C93909791960C93D8
:1003B000919792968C9292979396BC9293972A9645
:1003C0000FB6F894DEBF0FBECDBFDF91CF911F9166
:1003D0000F91FF90EF90DF90CF90BF90AF909F90E4
:1003E0008F907F906F905F904F903F9008955696BA
:1003F000ED91FC91579754968D919C915597099545
:10040000292F30E0C901880F991F220F331F220FB7
:10041000331F220F331F820F931F62E170E00E948F
:10042000EC34362EB3E0B61708F0D7C0A62EE0E1C4
:10043000E61710F420E1A22E4A2C552466247724D6
:10044000C12ED02EE82CFB2CA985BA855A96ED91A9
:10045000FC915B9758968D919C9159970995DC0179
:10046000CB01C81AD90AEA0AFB0AC601D7FCD6C0D2
:100470008F3F910509F00CF4BAC081E0E985FA8557
:10048000868FCC0CDD1CEE1CFF1CCC0CDD1CEE1C86
:10049000FF1CCC0CDD1CEE1CFF1CCC0CDD1CEE1C70
:1004A000FF1CC701B601A30192010E9435352983C3
:1004B0003A834B835C83C980DA80D7FCB3C0EE24D7
:1004C000D7FCE094FE2CB2E7CB16B1E0DB06B0E03F
:1004D000EB06B0E0FB0608F088C0C701B601A70133
:1004E00096010E94CD344B015C010E94CD346D8396
:1004F0007E838F839887C501B40120E43CE940E006
:1005000050E00E94CD342B013C016D817E818F81B2
:1005100098852CE630E040E050E00E94CD34DC01CC
:10052000CB01481A590A6A0A7B0AC501B40124E8BA
:1005300033E040E050E00E94CD344B015C01C70144
:10054000B60120E935E640E050E00E94CD34DC0100
:10055000CB01881A990AAA0ABB0A80E09AE6A8E1A8
:10056000B0E0880E991EAA1EBB1E8D819E81AF81B0
:10057000B885880F991FAA1FBB1F881A990AAA0A53
:10058000BB0AC301B201A50194010E941335898100
:100590009A81AB81BC81B7FD4AC0422F552747FDE8
:1005A0005095232D30E0429FC001439F900D529FF4
:1005B000900D112497FD3DC0082E892F000C881F37
:1005C000990B000C881F991FA985BA855C968C939E
:1005D0005C975D961C925D97F2CE84E0482E512C7C
:1005E000612C712C94E0A92E2BCF80E0EDCF90E010
:1005F00082959295907F9827807F98276A2D70E04A
:100600000E94003581E06F3F710509F00CF480E035
:10061000A985BA855E968C935E9733CF9095819528
:100620009F4F26CFD094C194D108D39448CF219521
:10063000B4CFCF96C1CF10920E010895FC01418135
:100640005281638174814F5F5F4F6F4F7F4F418352
:100650005283638374830895FC0187818430F1F0B1
:10066000853059F18630B1F1873019F08F5F87837B
:100670000895A081B181AF70B070A65BBE4F8C9120
:100680008093CE008091C9008F7DA8ECB0E01196D8
:100690008C93119787818F5F878308952181822FA3
:1006A00082958F7090E0865B9E4FDC018C918093E9
:1006B000CE0087818F5F87830895A181B0E0AF70FE
:1006C000B070A65BBE4F8C918093CE0087818F5F08
:1006D00087830895A081B181B295A295AF70AB27B1
:1006E000BF70AB27ECCFDC01D396EC91D397F0E051
:1006F0003896EE0FFF1FE80FF91F0190F081E02DF3
:10070000838594850895FC0162817381848195813C
:1007100008951F9B11C0FB01908181E080937701B8
:10072000E0917401F091750180818F7D80838091CB
:100730007801890F8093780108951F9911C0FB01FA
:10074000908181E080937701E0917401F0917501CF
:1007500080818F7D808380917801890F80937801DB
:100760000895FC018281882341F00284F385E02D05
:1007700080818F3F11F08F5F808308958EBD0DB40F
:1007800007FEFDCF6EBD0DB407FEFDCF4EBD0DB40F
:1007900007FEFDCF2EBD0DB407FEFDCF8EB508952B
:1007A000FC015C9AA8ECB0E08091C90080611196D0
:1007B0008C9311978781883009F008958091C80043
:1007C00081608093C8005C9A8091C9008061119615
:1007D0008C931197178208950F931F93CF93DF93F4
:1007E00000D000D00F92CDB7DEB7FB0180818930F9
:1007F00009F446C0813009F443C0082F10E0000F0F
:10080000111F000F111F005E1F4F8983C80103963F
:100810000E9485368A83C80102960E9485368B83A2
:10082000C80101960E9485368C83C8010E948536D6
:100830008D838091DC009091DD0084FD21C080E4F7
:100840008093ED0080E090E0A0E6B2E68093F000B7
:100850009093F100A093F200B093F300898180930C
:10086000FA008A818093FA008B818093FA008C8150
:100870008093FA008D818093FA0085E48093EF00E5
:100880000F900F900F900F900F90DF91CF911F91CD
:100890000F910895CF93DF9300D000D000D0CDB753
:1008A000DEB749835A836B837C838D839E83E5EE19
:1008B000F2E09FB7F894808581FD3DC0808582FD80
:1008C0003AC08085846080879FBF4FB7F89480913D
:1008D000760390917703A0917803B09179034FBF8D
:1008E000A90160E070E0480F591F6A1F7B1F61700B
:1008F000707046835783962F917080858E7F892BE9
:100900008087CF01AE014F5F5F4F26E0DA010D9087
:10091000AD01DC010D92CD012150C1F780858260CF
:10092000808780858B7F80878091E4028F5F8093B2
:10093000E40281E008C09FBF3996B3E0E537FB07CA
:1009400009F0B7CF80E026960FB6F894DEBF0FBE51
:10095000CDBFDF91CF910895CF93DF93AC0160912C
:10096000ED008091EC00807F8093ED008091EE009F
:100970008F7D8093EE00B091EF00BF702091F20068
:100980002295269527703091F300732F770F770FFC
:10099000770F872F822B932F929596959770880FBC
:1009A000991F82959295907F9827807F98278B0F2B
:1009B000911D29E08530920709F472C07AE08830F1
:1009C000970709F442C1EAE088349E0709F441C15F
:1009D000FBE088309F0709F44DC12BE08834920773
:1009E00009F43BC17EE08130970709F44AC1ECE08D
:1009F00081309E0709F453C1F0E180309F0709F46C
:100A000055C120E18038920709F457C170E1813067
:100A1000970709F43DC1E0E181389E0709F454C10C
:100A2000F0E180329F0709F456C120E1803A920735
:100A300009F458C170E18132970709F45AC1E0E125
:100A4000813A9E0709F459C1F8E1873E9F0709F4EE
:100A50005BC122E48832920709F45DC17AE48534EF
:100A6000970709F462C1E2E685309E0709F465C183
:100A7000F2E685369F0709F45CC12DE887309207BE
:100A800009F462C178E88530970709F46BC1EAE898
:100A900085309E0709F462C12FEF30E07FEF03C07D
:100AA00020E030E070E078947F3F09F4C2C0BB23BF
:100AB00081F0F901EE0FFF1FEE0FFF1FEE0FFF1F7A
:100AC000E40FF51F70E0A091FA00A1937F5F7B1700
:100AD000D0F3F2E685309F0709F467C079E08530EE
:100AE000970709F4C1C0EAE485349E0709F4BFC042
:100AF000F2E685369F0709F4C1C07EE08130970792
:100B000009F4AFC0EDE887309E0709F4C5C0F8E8E6
:100B100085309F0709F4C7C07AE88530970709F444
:100B2000C9C0EAE088309E0709F4AFC0FBE0883016
:100B30009F0709F4C6C078E1873E970709F4C8C04B
:100B4000E2E488329E0709F4CAC0F0E180309F07D2
:100B500009F4CCC070E18038970709F4D2C0E0E115
:100B600080329E0709F4D4C0F0E1803A9F0709F46F
:100B7000D9C070E18130970709F4D1C0E0E1813834
:100B80009E0709F4E8C0F0E181329F0709F4E0C054
:100B900070E1813A970709F4D4C0ECE081309E07F8
:100BA00009F047C084E190E002C080E090E0E901F4
:100BB000CC0FDD1FCC0FDD1FCC0FDD1FC40FD51FE9
:100BC0007FB7F89420910D0A2F5F20930D0A209192
:100BD0000C0A30910C0A3F5F30930C0AE0910B0A2B
:100BE0003E1751F430910B0A3F5F30930B0A30915E
:100BF0000D0A315030930D0A7FBF30E08E96880F7A
:100C0000991F880F991F840F951FFC018081918186
:100C1000A281B381F901EE0FFF1FE20FF31FEE0F68
:100C2000FF1FE65FFB4F81839283A383B483D68348
:100C3000C583F8948091EF008F7380688093EF00F4
:100C40006093ED00DF91CF91089521E030E071E0F5
:100C50002ACF22E030E072E026CF24E030E074E0DA
:100C600022CF84E090E0A3CF81E090E0A0CF82E0AB
:100C700090E09DCF23E030E073E015CF83E090E07B
:100C800096CF25E030E075E00ECF88E090E08FCF82
:100C900029E030E079E007CF85E090E088CF26E0DA
:100CA00030E076E000CF86E090E081CF27E030E0D2
:100CB00077E0F9CE87E090E07ACF28E030E078E086
:100CC000F2CE89E090E073CF2AE030E07AE0EBCE1C
:100CD0008AE090E06CCF2BE030E07BE0E4CE8BE06C
:100CE00090E065CF2CE030E07CE0DDCE8CE090E061
:100CF0005ECF2DE030E07DE0D6CE2EE030E07EE02D
:100D0000D2CE8DE090E053CF2FE030E07FE0CBCE2D
:100D10008EE090E04CCF20E130E070E1C4CE80E185
:100D200090E045CF8FE090E042CF21E130E071E1EB
:100D3000BACE23E130E073E1B6CE22E130E072E1D9
:100D4000B2CE83E190E033CF24E130E074E1ABCE6A
:100D500082E190E02CCF81E190E029CF26E130E0E4
:100D600076E1A1CE25E130E075E19DCE009721F43A
:100D700021E030E0C90108958130910521F422E09D
:100D800030E0C90108958230910519F424E030E083
:100D9000F1CF8330910519F428E030E0EBCF8430B7
:100DA000910519F420E130E0E5CF8530910519F483
:100DB00020E230E0DFCF8630910519F420E430E006
:100DC000D9CF21E030E08730910559F480E890E0F8
:100DD000A901489F9001499F300D589F300D112463
:100DE000C9CF8830910519F480E091E0F1CF322F1E
:100DF0002227330F8930910509F4BCCF8A30910541
:100E000019F4220F331FB6CF8B30910529F4220F2E
:100E1000331F220F331FAECF8C30910539F4220FD0
:100E2000331F220F331F220F331FA4CF8D309105A4
:100E300039F422953295307F3227207F32279ACF9E
:100E40008E30910549F4220F331F22953295307F61
:100E50003227207F32278ECFAC01495050408F304F
:100E6000910551F4002436952795079436952795DA
:100E70000794322F202D7ECFCA01A5CFDC01ED9142
:100E8000FC91119740A19FB7F89480910D0A8F5F54
:100E900080930D0A20910C0A80910C0A8F5F809339
:100EA0000C0A30910B0A8317C9F09FBF30E0C901CB
:100EB000880F991F820F931F880F991FFC01E55F10
:100EC000FB4FB183A08327E334E333832283FC0108
:100ED000E65FFB4F458316827894089580910B0A54
:100EE0008F5F80930B0A80910D0A815080930D0AC9
:100EF000DCCF9FB7F89480910D0A8F5F80930D0A25
:100F000020910C0A80910C0A8F5F80930C0A30911B
:100F10000B0A8317C1F09FBF30E0C901880F991FEA
:100F2000820F931F880F991FFC01E55FFB4F118211
:100F300010822AE338E033832283865F9B4FFC01D3
:100F400016821582089580910B0A8F5F80930B0A99
:100F500080910D0A815080930D0ADDCF1F9925C025
:100F60002FB7F8946091760370917703809178039E
:100F7000909179032FBF2AE030E040E050E00E94DA
:100F80001335909179012093790181E08093770165
:100F9000E0917401F091750180818F7D8083809153
:100FA0007801891B820F8093780108951F9B25C0CB
:100FB0002FB7F8946091760370917703809178034E
:100FC000909179032FBF2AE030E040E050E00E948A
:100FD0001335909179012093790181E08093770115
:100FE000E0917401F091750180818F7D8083809103
:100FF0007801891B820F809378010895FC01838119
:101000008823E1F4F0990DC0F09A8EB38695869509
:10101000869580FD0DC0F39A838191E089278383B3
:101020000895F0988EB386958695869580FFF3CFC8
:10103000F398838191E08927838308958EB3869501
:1010400080FD0CC0F19A8EB38695869580FD0CC00C
:10105000F29A838191E0892783830895F1988EB372
:101060008695869580FFF4CFF298838191E0892759
:10107000838308955FB7F89440910E0A842F90E01F
:10108000FC01EE0FFF1FE80FF91FE357FD4F6181D1
:1010900072818091C10290E08F709070242F229510
:1010A000207F30E0822B932B90819093C00280931D
:1010B000C1027093BE026093BF025FBF4F5F409357
:1010C0000E0A453009F0089510920E0A08950F9304
:1010D0001F93CF93DF938B01FB018081893009F14E
:1010E000813021F1C82FD0E0CC0FDD1FCC0FDD1FE8
:1010F000C05EDF4FCE01F80164810E949336CE01BD
:101100000196F80163810E949336CE010296F801A0
:1011100062810E949336CE010396F80161810E949C
:101120009336DF91CF911F910F91089587E1FB01D5
:101130008083CCE5D0E0DCCFEF92FF920F931F933A
:10114000CF93DF9300D000D00F92CDB7DEB77B01F5
:10115000FB010081093009F46CC0013009F475C04D
:1011600010E0000F111F000F111F005E1F4FC8017C
:10117000F70164810E949336C8010196F7016381EB
:101180000E949336C8010296F70162810E9493364D
:10119000C8010396F70161810E949336F7018081AF
:1011A000893009F446C0813009F443C0082F10E0AB
:1011B000000F111F000F111F005E1F4F8983C80110
:1011C00003960E9485368A83C80102960E9485365E
:1011D0008B83C80101960E9485368C83C8010E94CA
:1011E00085368D838091DC009091DD0084FD21C0E7
:1011F00080E48093ED0080E090E0A0E6B2E680938A
:10120000F0009093F100A093F200B093F300898175
:101210008093FA008A818093FA008B818093FA0090
:101220008C818093FA008D818093FA0085E480930D
:10123000EF000F900F900F900F900F90DF91CF91D4
:101240001F910F91FF90EF90089587E1FB0180833C
:101250000CE510E08ACF0F931F93CF93DF93CDB7A8
:10126000DEB72F970FB6F894DEBF0FBECDBFE5EE09
:10127000F2E03FB7F894208521FDD5C0208522FDFE
:10128000D2C02085246020873FBF2FB7F8944091BB
:1012900076035091770360917803709179032FBFA3
:1012A0004C505E4F6F4F7F4F617070704683578315
:1012B000362F317020852E7F232B208791838083CA
:1012C0008BE299E093838283158214828085826009
:1012D000808780858B7F80878091E4028F5F8093F9
:1012E000E40211E0FE01319687E0DF011D928A954C
:1012F000E9F788E690E00E9485368A8380E390E0F3
:101300000E9485368B8384E590E00E9485368C832D
:101310008CE690E00E9485368D838DE690E00E94F9
:101320008536082F88E590E00E948D3664E670E0EF
:101330000E94EC34079500270795062B0E8388E35F
:1013400090E00E9485368F838091DC009091DD00D3
:1013500082FD1BC080E28093ED0089818093FA00BA
:101360008A818093FA008B818093FA008C8180932C
:10137000FA008D818093FA008E818093FA008F812C
:101380008093FA0087E48093EF00FE01389688E0AE
:10139000DF011D928A95E9F789E690E00E94853683
:1013A000898788E690E00E9485368A878DE490E000
:1013B0000E9485368B878CE490E00E9485368C876E
:1013C0001D878091E4028E878091DC009091DD0082
:1013D00083FD1EC080E38093ED0088858093FA0032
:1013E00089858093FA008A858093FA008B858093A3
:1013F000FA008C858093FA008D858093FA008E85A3
:101400008093FA008F858093FA0088E48093EF0040
:101410002F960FB6F894DEBF0FBECDBFDF91CF91F0
:101420001F910F9108953FBF3996B3E0E537FB0751
:1014300009F01FCF10E056CFDC018091B10281FF8F
:1014400044C012968C911297882309F43EC01296DC
:101450001C921297E5EEF2E09FB7F894808581FD2B
:1014600040C0808582FD3DC08085846080879FBFAD
:101470008FB7F89440917603509177036091780389
:10148000709179038FBF48515C4F6F4F7F4F6170F0
:10149000707046835783962F917080858E7F892B3D
:1014A0008087B183A0838CE19AE093838283158245
:1014B000148280858260808780858B7F8087809181
:1014C000E4028F5F8093E402089586E090E09093B9
:1014D00001018093000180916F008D7F80936F00E8
:1014E000B6CF9FBF399683E0E537F80709F0B4CF50
:1014F0000895DC0113968C911397882379F4ED916C
:10150000FC9111979081892F8F71843009F44CC020
:10151000883039F090789061908303C013961C92C4
:101520001397E5EEF2E09FB7F894808581FD34C013
:10153000808582FD31C08085846080879FBF8FB7A2
:10154000F8944091760350917703609178037091FD
:1015500079038FBF4053584F6F4F7F4F617070704A
:1015600046835783962F917080858E7F892B808745
:10157000B183A08389E79AE09383828315821482E2
:1015800080858260808780858B7F80878091E40260
:101590008F5F8093E40208959FBF399683E0E5371B
:1015A000F80709F0C0CF0895991F9927991F9095C2
:1015B00097959927979598609083B3CF10920A04D6
:1015C000E5EEF2E09FB7F894808581FD34C0808518
:1015D00082FD31C08085846080879FBF2FB7F894DB
:1015E0008091760390917703A0917803B09179036D
:1015F0002FBF805F984DAF4FBF4FA170B0708683F3
:1016000097839A2F917080858E7F892B8087118296
:1016100010828EED9AE093838283158214828085F6
:101620008260808780858B7F80878091E4028F5FD6
:101630008093E40208959FBF399683E0E537F80769
:1016400009F0C0CF08951F9908952FB7F8946091BD
:1016500076037091770380917803909179032FBF7F
:101660002AE030E040E050E00E941335809179019B
:10167000922F981B2093790181E080937701E0916C
:101680007401F091750180818062808350917801AE
:10169000590F50937801943210F160917A016623CA
:1016A00051F5550F50937801408140784066446071
:1016B00010927A01852F8459893188F54F7780916E
:1016C0007C01481789F1E0917401F09175018081E6
:1016D0008F7B808340937C011092780108958091E4
:1016E0007A018F5F80937A01833009F0ADCF8081DA
:1016F0008F7B8083089540814078406622E030E00F
:10170000261B310981E090E002C0880F991F2A95BD
:10171000E2F78F71482B633058F24F7BC9CF5D5A87
:101720005A31E8F44068CBCF46FFD4CFE091740142
:10173000F09175018081842787FD13C080917B0122
:1017400010928001882329F0E0917E01F0917F01C1
:101750001082E0917401F09175014083BBCF4F7B03
:10176000AECF80917B01882331F010927B011092E3
:1017700080014083AFCFE0917E01F0917F018091A5
:1017800080018083DBCF1F9B0895FB01908181E066
:1017900080937701E0917401F091750180818062FE
:1017A000808350917801590F50937801943210F151
:1017B00060917A01662369F5550F50937801408155
:1017C00040784066446010927A01852F84598931AF
:1017D000A0F54F7780917C014817A1F1E091740149
:1017E000F091750180818F7B808340937C01109202
:1017F0007801089580917A018F5FA4E7B1E0169691
:101800008C931697833009F0BFCF80818F7B8083C4
:10181000089540814078406622E030E0261B31097F
:1018200081E090E002C0880F991F2A95E2F78F713E
:10183000482B633040F24F7BC6CF5D5A5A31E8F4F3
:101840004068C8CF46FFD1CFE0917401F091750197
:101850008081842787FD13C080917B0110928001D5
:10186000882329F0E0917E01F0917F011082E091C0
:101870007401F09175014083B8CF4F7BABCF80915D
:101880007B01882331F010927B011092800140830C
:10189000ACCFE0917E01F0917F0180918001808347
:1018A000DBCF1F9B08952FB7F8946091760370915A
:1018B000770380917803909179032FBF2AE030E07D
:1018C00040E050E00E94133580917901922F981BDF
:1018D0002093790181E080937701E0917401F09188
:1018E000750180818062808350917801590F5093F7
:1018F0007801943210F160917A01662351F5550F09
:1019000050937801408140784066446010927A019B
:10191000852F8459893188F54F7780917C0148174C
:1019200089F1E0917401F091750180818F7B808352
:1019300040937C0110927801089580917A018F5F25
:1019400080937A01833009F0ADCF80818F7B8083D3
:10195000089540814078406622E030E0261B31093E
:1019600081E090E002C0880F991F2A95E2F78F71FD
:10197000482B633058F24F7BC9CF5D5A5A31E8F497
:101980004068CBCF46FFD4CFE0917401F091750150
:101990008081842787FD13C080917B011092800194
:1019A000882329F0E0917E01F0917F011082E0917F
:1019B0007401F09175014083BBCF4F7BAECF809116
:1019C0007B01882331F010927B01109280014083CB
:1019D000AFCFE0917E01F0917F0180918001808303
:1019E000DBCF1F990895FB01908181E080937701FF
:1019F000E0917401F0917501808180628083509143
:101A00007801590F50937801943210F160917A0166
:101A1000662369F5550F5093780140814078406600
:101A2000446010927A01852F84598931A0F54F774F
:101A300080917C014817A1F1E0917401F09175014A
:101A400080818F7B808340937C0110927801089580
:101A500080917A018F5FA4E7B1E016968C93169778
:101A6000833009F0BFCF80818F7B808308954081D0
:101A70004078406622E030E0261B310981E090E0AA
:101A800002C0880F991F2A95E2F78F71482B6330A7
:101A900040F24F7BC6CF5D5A5A31E8F44068C8CF58
:101AA00046FFD1CFE0917401F091750180818427C8
:101AB00087FD13C080917B0110928001882329F05B
:101AC000E0917E01F0917F011082E0917401F0912C
:101AD00075014083B8CF4F7BABCF80917B018823CA
:101AE00031F010927B01109280014083ACCFE091E5
:101AF0007E01F0917F01809180018083DBCFF8949B
:101B000028E088E190E00FB6F894A89580936000F3
:101B10000FBE209360000000FECF1F9B0895FB01C5
:101B200080818230D9F781818330C1F7828182FD43
:101B3000F5CF2FB7F8948091760390917703A09119
:101B40007803B09179032FBF89352BE1920720E00C
:101B5000A20720E0B20710F3809137018823F1F249
:101B60000E947F0D1F990895FB0180818230D9F773
:101B700081818330C1F7828182FDF5CF2FB7F89440
:101B80008091760390917703A0917803B0917903C7
:101B90002FBF89352BE1920720E0A20720E0B20792
:101BA00010F3809137018823F1F20E947F0D1F927C
:101BB0000F920FB60F9211242F933F934F935F9381
:101BC0006F937F938F939F93AF93BF93EF93FF9305
:101BD000E0910804F09109048091060490910704B3
:101BE0000995FF91EF91BF91AF919F918F917F9157
:101BF0006F915F914F913F912F910F900FBE0F907A
:101C00001F9018951F920F920FB60F9211242F93C9
:101C10003F934F935F936F937F938F939F93AF9374
:101C2000BF93EF93FF93E0910404F091050480913A
:101C30000204909103040995FF91EF91BF91AF9138
:101C40009F918F917F916F915F914F913F912F91D4
:101C50000F900FBE0F901F9018951F920F920FB606
:101C60000F9211242F933F934F935F936F937F9322
:101C70008F939F93AF93BF93EF93FF93E0910004F3
:101C8000F09101048091FE039091FF030995FF916B
:101C9000EF91BF91AF919F918F917F916F915F91E4
:101CA0004F913F912F910F900FBE0F901F9018955D
:101CB0001F920F920FB60F9211242F933F934F93C1
:101CC0005F936F937F938F939F93AF93BF93EF93A4
:101CD000FF93E091FC03F091FD038091FA03909152
:101CE000FB030995FF91EF91BF91AF919F918F9168
:101CF0007F916F915F914F913F912F910F900FBE08
:101D00000F901F9018951F920F920FB60F921124EB
:101D10002F933F934F935F936F937F938F939F93F3
:101D2000AF93BF93EF93FF93E091F803F091F90322
:101D30008091F6039091F7030995FF91EF91BF9180
:101D4000AF919F918F917F916F915F914F913F9153
:101D50002F910F900FBE0F901F9018951F920F920A
:101D60000FB60F9211242F933F934F935F936F936E
:101D70007F938F939F93AF93BF93EF93FF93E091E4
:101D8000F403F091F5038091F2039091F303099528
:101D9000FF91EF91BF91AF919F918F917F916F9143
:101DA0005F914F913F912F910F900FBE0F901F9019
:101DB00018951F920F920FB60F9211242F933F93F5
:101DC0004F935F936F937F938F939F93AF93BF9343
:101DD000EF93FF93E091F003F091F1038091EE0314
:101DE0009091EF030995FF91EF91BF91AF919F9172
:101DF0008F917F916F915F914F913F912F910F90B4
:101E00000FBE0F901F9018951F920F920FB60F9252
:101E100011242F933F934F935F936F937F938F93EF
:101E20009F93AF93BF93EF93FF93E091EC03F091F7
:101E3000ED038091EA039091EB030995FF91EF91F7
:101E4000BF91AF919F918F917F916F915F914F91D2
:101E50003F912F910F900FBE0F901F9018951F92DA
:101E60000F920FB60F9211242F933F934F935F93CE
:101E70006F937F938F939F93AF93BF93EF93FF9352
:101E8000E091E803F091E9038091E6039091E70384
:101E90000995FF91EF91BF91AF919F918F917F91A4
:101EA0006F915F914F913F912F910F900FBE0F90C7
:101EB0001F9018951F920F920FB60F9211242F9317
:101EC0003F934F935F936F937F938F939F93AF93C2
:101ED000BF93EF93FF93E091E403F091E5038091CA
:101EE000E2039091E3030995FF91EF91BF91AF91C8
:101EF0009F918F917F916F915F914F913F912F9122
:101F00000F900FBE0F901F9018951F920F920FB653
:101F10000F9211242F933F934F935F936F937F936F
:101F20008F939F93AF93BF93EF93FF93E091E00361
:101F3000F091E1038091DE039091DF030995FF9119
:101F4000EF91BF91AF919F918F917F916F915F9131
:101F50004F913F912F910F900FBE0F901F901895AA
:101F60001F920F920FB60F9211242F933F934F930E
:101F70005F936F937F938F939F93AF93BF93EF93F1
:101F8000FF93E091DC03F091DD038091DA039091FF
:101F9000DB030995FF91EF91BF91AF919F918F91D5
:101FA0007F916F915F914F913F912F910F900FBE55
:101FB0000F901F9018951F920F920FB60F92112439
:101FC0002F933F934F935F936F937F938F939F9341
:101FD000AF93BF93EF93FF93E091D803F091D903B0
:101FE0008091D6039091D7030995FF91EF91BF910E
:101FF000AF919F918F917F916F915F914F913F91A1
:102000002F910F900FBE0F901F9018951F920F9257
:102010000FB60F9211242F933F934F935F936F93BB
:102020007F938F939F93AF93BF93EF93FF93E09131
:10203000D403F091D5038091D2039091D3030995F5
:10204000FF91EF91BF91AF919F918F917F916F9190
:102050005F914F913F912F910F900FBE0F901F9066
:1020600018951F920F920FB60F9211242F933F9342
:102070004F935F936F937F938F939F93AF93BF9390
:10208000EF93FF93E091D003F091D1038091CE03C1
:102090009091CF030995FF91EF91BF91AF919F91DF
:1020A0008F917F916F915F914F913F912F910F9001
:1020B0000FBE0F901F9018951F920F920FB60F92A0
:1020C00011242F933F934F935F936F937F938F933D
:1020D0009F93AF93BF93EF93FF93E091CC03F09165
:1020E000CD038091CA039091CB030995FF91EF91A5
:1020F000BF91AF919F918F917F916F915F914F9120
:102100003F912F910F900FBE0F901F9018951F9227
:102110000F920FB60F9211242F933F934F935F931B
:102120006F937F938F939F93AF93BF93EF93FF939F
:10213000E091C803F091C9038091C6039091C70351
:102140000995FF91EF91BF91AF919F918F917F91F1
:102150006F915F914F913F912F910F900FBE0F9014
:102160001F9018951F920F920FB60F9211242F9364
:102170003F934F935F936F937F938F939F93AF930F
:10218000BF93EF93FF93E091C403F091C503809157
:10219000C2039091C3030995FF91EF91BF91AF9155
:1021A0009F918F917F916F915F914F913F912F916F
:1021B0000F900FBE0F901F9018951F920F920FB6A1
:1021C0000F9211242F933F934F935F936F937F93BD
:1021D0008F939F93AF93BF93EF93FF93E091C003CF
:1021E000F091C1038091BE039091BF030995FF91C7
:1021F000EF91BF91AF919F918F917F916F915F917F
:102200004F913F912F910F900FBE0F901F901895F7
:102210001F920F920FB60F9211242F933F934F935B
:102220005F936F937F938F939F93AF93BF93EF933E
:10223000FF93E091BC03F091BD038091BA039091AC
:10224000BB030995FF91EF91BF91AF919F918F9142
:102250007F916F915F914F913F912F910F900FBEA2
:102260000F901F9018951F920F920FB60F92112486
:102270002F933F934F935F936F937F938F939F938E
:10228000AF93BF93EF93FF93E091B803F091B9033D
:102290008091B6039091B7030995FF91EF91BF919B
:1022A000AF919F918F917F916F915F914F913F91EE
:1022B0002F910F900FBE0F901F9018951F920F92A5
:1022C0000FB60F9211242F933F934F935F936F9309
:1022D0007F938F939F93AF93BF93EF93FF93E0917F
:1022E000B403F091B5038091B2039091B3030995C3
:1022F000FF91EF91BF91AF919F918F917F916F91DE
:102300005F914F913F912F910F900FBE0F901F90B3
:1023100018951F920F920FB60F9211242F933F938F
:102320004F935F936F937F938F939F93AF93BF93DD
:10233000EF93FF93E091B003F091B1038091AE036E
:102340009091AF030995FF91EF91BF91AF919F914C
:102350008F917F916F915F914F913F912F910F904E
:102360000FBE0F901F9018951F920F920FB60F92ED
:1023700011242F933F934F935F936F937F938F938A
:102380009F93AF93BF93EF93FF93E091AC03F091D2
:10239000AD038091AA039091AB030995FF91EF9152
:1023A000BF91AF919F918F917F916F915F914F916D
:1023B0003F912F910F900FBE0F901F9018951F9275
:1023C0000F920FB60F9211242F933F934F935F9369
:1023D0006F937F938F939F93AF93BF93EF93FF93ED
:1023E000E091A803F091A9038091A6039091A7031F
:1023F0000995FF91EF91BF91AF919F918F917F913F
:102400006F915F914F913F912F910F900FBE0F9061
:102410001F9018951F920F920FB60F9211242F93B1
:102420003F934F935F936F937F938F939F93AF935C
:10243000BF93EF93FF93E091A403F091A5038091E4
:10244000A2039091A3030995FF91EF91BF91AF91E2
:102450009F918F917F916F915F914F913F912F91BC
:102460000F900FBE0F901F9018951F920F920FB6EE
:102470000F9211242F933F934F935F936F937F930A
:102480008F939F93AF93BF93EF93FF93E091A0033C
:10249000F091A10380919E0390919F030995FF9174
:1024A000EF91BF91AF919F918F917F916F915F91CC
:1024B0004F913F912F910F900FBE0F901F90189545
:1024C0001F920F920FB60F9211242F933F934F93A9
:1024D0005F936F937F938F939F93AF93BF93EF938C
:1024E000FF93E0919C03F0919D0380919A0390915A
:1024F0009B030995FF91EF91BF91AF919F918F91B0
:102500007F916F915F914F913F912F910F900FBEEF
:102510000F901F9018951F920F920FB60F921124D3
:102520002F933F934F935F936F937F938F939F93DB
:10253000AF93BF93EF93FF93E0919803F0919903CA
:1025400080919603909197030995FF91EF91BF9128
:10255000AF919F918F917F916F915F914F913F913B
:102560002F910F900FBE0F901F9018951F920F92F2
:102570000FB60F9211242F933F934F935F936F9356
:102580007F938F939F93AF93BF93EF93FF93E091CC
:102590009403F09195038091920390919303099590
:1025A000FF91EF91BF91AF919F918F917F916F912B
:1025B0005F914F913F912F910F900FBE0F901F9001
:1025C00018951F920F920FB60F9211242F933F93DD
:1025D0004F935F936F937F938F939F93AF93BF932B
:1025E000EF93FF93E0919003F091910380918E031C
:1025F00090918F030995FF91EF91BF91AF919F91BA
:102600008F917F916F915F914F913F912F910F909B
:102610000FBE0F901F9018951F920F920FB60F923A
:1026200011242F933F934F935F936F937F938F93D7
:102630009F93AF93BF93EF93FF93E0918C03F0913F
:102640008D0380918A0390918B030995FF91EF91FF
:10265000BF91AF919F918F917F916F915F914F91BA
:102660003F912F910F900FBE0F901F9018951F92C2
:102670000F920FB60F9211242F933F934F935F93B6
:102680006F937F938F939F93AF93BF93EF93FF933A
:10269000E0918803F09189038091860390918703EC
:1026A0000995FF91EF91BF91AF919F918F917F918C
:1026B0006F915F914F913F912F910F900FBE0F90AF
:1026C0001F9018951F920F920FB60F9211242F93FF
:1026D0003F934F935F936F937F938F939F93AF93AA
:1026E000BF93EF93FF93E0918403F0918503809172
:1026F0008203909183030995FF91EF91BF91AF9170
:102700009F918F917F916F915F914F913F912F9109
:102710000F900FBE0F901F9018951F920F920FB63B
:102720000F9211242F933F934F935F936F937F9357
:102730008F939F93AF93BF93EF93FF93E0918003A9
:10274000F091810380917E0390917F030995FF9121
:10275000EF91BF91AF919F918F917F916F915F9119
:102760004F913F912F910F900FBE0F901F90189592
:102770001F920F920FB60F9211242F933F934F93F6
:102780005F936F937F938F939F93AF93BF93EF93D9
:10279000FF93E0917C03F0917D0380917A03909107
:1027A0007B030995FF91EF91BF91AF919F918F911D
:1027B0007F916F915F914F913F912F910F900FBE3D
:1027C0000F901F9018958F929F92AF92BF92CF92C9
:1027D000DF92EF92FF920F931F93CF93DF937C01D1
:1027E000DC011596ED91FC91169780812181813253
:1027F00009F466C28232C8F0813309F48EC2823392
:1028000008F4A4C1833309F48FC2833308F0A6C24D
:1028100082E3E7018D8BED85FE8582E0922F2FB755
:10282000F894918380832FBFF6C1813109F448C2A7
:10283000823108F0ABC1833009F476C2843009F4E8
:1028400031C2882309F0E7C1D70155968C9155977D
:10285000813209F4E4C5823208F484C2813309F478
:1028600084C4823309F47CC4823209F0D4C1E70104
:10287000EF81F8852FB7F894808191812FBFD82EF2
:10288000092F488159816A817B81DB01CA018770E8
:102890009070A070B0700097A105B105A9F4DB019C
:1028A000CA010197A109B1099F704150487F82EC8C
:1028B000692F20E00E94BE0388E799E60197F1F7AF
:1028C000488159816A817B81477081EC60E0202FCB
:1028D0000E94BE03E70188819981AA81BB818C0196
:1028E0009D010F5F1F4F2F4F3F4F088319832A838E
:1028F0003B83B901A801477050706070707041153A
:1029000051056105710589F4692F6F70402F4150A1
:10291000487F82EC20E00E94BE0388E799E6019799
:10292000F1F7088119812A813B81402F477081ECA2
:1029300060E02D2D0E94BE03E70188819981AA8164
:10294000BB810196A11DB11D88839983AA83BB8396
:10295000E985FA852FB7F894808191812FBFD82E11
:10296000092F488159816A817B81DB01CA01877007
:102970009070A070B0700097A105B105A9F4DB01BB
:10298000CA010197A109B1099F704150487F82ECAB
:10299000692F20E00E94BE0388E799E60197F1F7CE
:1029A000488159816A817B81477081EC60E0202FEA
:1029B0000E94BE03F70180819181A281B3818C01C5
:1029C0009D010F5F1F4F2F4F3F4FE7010083118382
:1029D00022833383B901A801477050706070707012
:1029E000411551056105710589F4692F6F70402FFC
:1029F0004150487F82EC20E00E94BE0388E799E6C0
:102A00000197F1F7088119812A813B81402F477096
:102A100081EC60E02D2D0E94BE03E7018881998141
:102A2000AA81BB810196A11DB11D88839983AA83C8
:102A3000BB83EB85FC852FB7F894808191812FBFF4
:102A4000D82E092F488159816A817B81DB01CA0117
:102A500087709070A070B0700097A105B105A9F4BF
:102A6000DB01CA010197A109B1099F704150487F5C
:102A700082EC692F20E00E94BE0388E799E6019767
:102A8000F1F7488159816A817B81477081EC60E070
:102A9000202F0E94BE03F70180819181A281B38122
:102AA0008C019D010F5F1F4F2F4F3F4FE7010083A8
:102AB000118322833383B901A8014770507060707D
:102AC0007070411551056105710589F4692F6F70AA
:102AD000402F4150487F82EC20E00E94BE0388E7EF
:102AE00099E60197F1F7088119812A813B81402FEE
:102AF000477081EC60E02D2D0E94BE03E7018881C4
:102B00009981AA81BB818C019D010F5F1F4F2F4FBF
:102B10003F4FF701088319832A833B834E895F89DE
:102B2000688D798D041715072607370708F400C349
:102B3000692F6F70402F4150487F82EC20E00E9447
:102B4000BE0388E799E60197F1F7FFC2833209F4E3
:102B5000EBC0833208F46CC0843209F05CC0E7013A
:102B6000488159816A817B81DB01CA010197A109F2
:102B7000B1099F704150487F82EC692F20E00E948C
:102B8000BE0388E799E60197F1F766C0833109F43F
:102B9000CBC0833108F05EC082E1F701858B0780EE
:102BA000F085E02D8FB7F894208131818FBFD70158
:102BB0001996ED91FC911A978FB7F894A081B18185
:102BC0008FBFE701EB85FC854FB7F8948081918139
:102BD0004FBFF70130832183B28313824A2F592FCD
:102BE000682F70E04150504060407040D701468BE4
:102BF000578B608F718F0584F685E02D15960D90AB
:102C0000BC91A02D82E011969C9111972FB7F8945A
:102C1000918380832FBFDF91CF911F910F91FF9000
:102C2000EF90DF90CF90BF90AF909F908F900895DE
:102C300082E2E7018D8BEF81F8858FB7F8942081D0
:102C400031818FBFE985FA858FB7F894A081B18172
:102C50008FBFB8CF8431F9F6F7014081518162818D
:102C6000738141505040604070408A019B01A9E04F
:102C70003695279517950795AA95D1F77695679577
:102C80005795479540788CE4602F20E00E94BE0362
:102C90008CEB94E30197F1F7D7011596ED91FC9138
:102CA00016972181E701ED85FE8584E0922F2FB7ED
:102CB000F894918380832FBF24982C9A0E947F0DD3
:102CC000E7018D8BEF81F8858FB7F89420813181F2
:102CD0008FBFE985FA858FB7F894A081B1818FBF46
:102CE000EB85FC854FB7F894808191814FBF388385
:102CF0002983BA831B824A2F592F682F70E04150D5
:102D00005040604070404E8B5F8B688F798FED85AF
:102D1000FE85AD81BE8181E076CFF701858B05848C
:102D2000F685E02D81E07ACDE701ED85FE8583E033
:102D3000922F2FB7F894918380832FBF8CEA60E89D
:102D400040E020E00E94BE0388E799E60197F1F792
:102D5000ED85FE85AD81BE8180E055CF843309F0DD
:102D60005ACFA0CF813109F430C2823109F053CF5C
:102D7000D7011796ED91FC9118972FB7F8948081A1
:102D800091812FBF6C01E701088119812A813B8164
:102D9000D901C8018F779070A070B0700097A1051D
:102DA000B10509F50150104020403040480159015B
:102DB00049E0B694A794979487944A95D1F7B901BE
:102DC000A801769567955795479540788CE4682DCE
:102DD00020E00E94BE038CEB94E30197F1F7088199
:102DE00019812A813B81802F8170880F880F880F7D
:102DF0003695279517950795806460E0402F2D2D17
:102E00000E94BE03D7010D911D912D913C91B901F6
:102E1000A8014F5F5F4F6F4F7F4FE7014883598392
:102E20006A837B83DB01CA018F779070A070B070DA
:102E30000097A105B105E9F448015901A9E0B6944C
:102E4000A79497948794AA95D1F7B901A80176958C
:102E500067955795479540788CE4682D20E00E944F
:102E6000BE038CEB94E30197F1F7488159816A81A5
:102E70007B81842F8170880F880F880F8A019B01C6
:102E80003695279517950795806460E0402F2C2D87
:102E90000E94BE03E70188819981AA81BB810196C6
:102EA000A11DB11D88839983AA83BB83E985FA8517
:102EB0002FB7F894808191812FBF6C01088119810F
:102EC0002A813B81D901C8018F779070A070B070C2
:102ED0000097A105B10509F5015010402040304090
:102EE0004801590149E0B694A794979487944A956C
:102EF000D1F7B901A8017695679557954795407820
:102F00008CE4682D20E00E94BE038CEB94E30197D3
:102F1000F1F7088119812A813B81802F8170880F08
:102F2000880F880F3695279517950795806460E080
:102F3000402F2D2D0E94BE03F701008111812281B7
:102F40003381B901A8014F5F5F4F6F4F7F4F4083BF
:102F5000518362837383DB01CA018F779070A07005
:102F6000B0700097A105B105F1F448015901A9E03D
:102F7000B694A79497948794AA95D1F7B901A8011C
:102F8000769567955795479540788CE4682D20E0B5
:102F90000E94BE038CEB94E30197F1F7E7014881AF
:102FA00059816A817B81842F8170880F880F880FF7
:102FB0008A019B013695279517950795806460E0F7
:102FC000402F2C2D0E94BE03F70180819181A281A8
:102FD000B3810196A11DB11DE70180839183A28376
:102FE000B3830384F485E02D2FB7F8948081918119
:102FF0002FBF6C01088119812A813B81D901C80149
:103000008F779070A070B0700097A105B10509F599
:1030100001501040204030404801590149E0B69429
:10302000A794979487944A95D1F7B901A80176950A
:1030300067955795479540788CE4682D20E00E946D
:10304000BE038CEB94E30197F1F7088119812A8183
:103050003B81802F8170880F880F880F36952795C8
:1030600017950795806460E0402F2D2D0E94BE03C8
:10307000E701088119812A813B81B901A8014F5FCD
:103080005F4F6F4F7F4F488359836A837B83DB0198
:10309000CA018F779070A070B0700097A105B1053C
:1030A000E9F448015901B9E0B694A794979487943C
:1030B000BA95D1F7B901A8017695679557954795C7
:1030C00040788CE4682D20E00E94BE038CEB94E3F2
:1030D0000197F1F7488159816A817B81842F817042
:1030E000880F880F880F8A019B01369527951795C1
:1030F0000795806460E0402F2C2D0E94BE03E701FD
:10310000488159816A817B81DB01CA010196A11D39
:10311000B11DF70188839983AA83BB830E891F8918
:10312000288D398D80179107A207B30708F0FFC1DA
:10313000A585B6850580F681E02D82E091812FB7C7
:10314000F89411969C938E932FBFD7011D96ED9105
:10315000FC911E9715960D90BC91A02D80E053CD4B
:10316000E701ED85FE8580E059CBF701C785D08961
:1031700088E568E040E020E00E94BE03082F80E57B
:1031800060E040E020E00E94BE03202F382F8FB780
:10319000F894398328838FBFD7015196CD91DC9164
:1031A000529780E568E040E020E00E94BE0320E006
:1031B000382F8FB7F894398328838FBFE701ED85C7
:1031C000FE85AD81BE8180E01ECDF701C785D08927
:1031D0000081118122813381802F8170880F880FB7
:1031E000880FB901A801A9E076956795579547958D
:1031F000AA95D1F736952795179507958062642F84
:10320000402F20E00E94BE03D82ED7010D911D91C2
:103210002D913C910F5F1F4F2F4F3F4FF7010083C0
:10322000118322833383802F8170880F880F880F4A
:10323000B901A80199E076956795579547959A95B4
:10324000D1F736952795179507958062642F402F03
:1032500020E00E94BE03D7014D915D916D917C915C
:1032600013974F5F5F4F6F4F7F4FF701408351833D
:1032700062837383282F3D2D8FB7F8943983288379
:103280008FBF5196CD91DC9152970D911D912D914B
:103290003C91802F8170880F880F880FB901A80199
:1032A00099E076956795579547959A95D1F7369514
:1032B0002795179507958062642F402F20E00E9484
:1032C000BE03D82EF70100811181228133810F5F67
:1032D0001F4F2F4F3F4F0083118322833383802F53
:1032E0008170880F880F880FB901A80199E0769541
:1032F0006795579547959A95D1F7369527951795E0
:1033000007958062642F402F20E00E94BE03F701E2
:1033100040815181628173814F5F5F4F6F4F7F4F5B
:103320004083518362837383282F3D2D8FB7F89498
:10333000398328838FBFC389D48900811181228179
:103340003381802F8170880F880F880FB901A80101
:1033500099E076956795579547959A95D1F7369563
:103360002795179507958062642F402F20E00E94D3
:10337000BE03D82ED7010D911D912D913C910F5F69
:103380001F4F2F4F3F4FF701008311832283338359
:10339000802F8170880F880F880FB901A80199E0EC
:1033A00076956795579547959A95D1F736952795D0
:1033B000179507958062642F402F20E00E94BE037E
:1033C000D7014D915D916D917C9113974F5F5F4F48
:1033D0006F4F7F4FF7014083518362837383282FA0
:1033E0003D2D8FB7F894398328838FBF4D915D9120
:1033F0006D917C91139756968D919D910D90BC91F6
:10340000A02D84179507A607B70708F49ECEE701FD
:103410000584F685E02DAD81BE8181E0F4CBF70116
:10342000C785D08940816181677080EA20E00E9471
:10343000BE03D82ED7010D911D912D913C910F5FA8
:103440001F4F2F4F3F4FF701008311832283338398
:10345000612F677080EA402F20E00E94BE03D701F1
:103460004D915D916D917C9113974F5F5F4F6F4FC1
:103470007F4FF7014083518362837383282F3D2D53
:103480008FB7F894398328838FBF5196CD91DC9103
:1034900052974C9111966C91677080EA20E00E94DF
:1034A000BE03D82EF70100811181228133810F5F85
:1034B0001F4F2F4F3F4F0083118322833383612F90
:1034C000677080EA402F20E00E94BE03F701408130
:1034D0005181628173814F5F5F4F6F4F7F4F408398
:1034E000518362837383282F3D2D8FB7F8943983DE
:1034F00028838FBFC389D48940816181677080EA46
:1035000020E00E94BE03D82ED7010D911D912D9170
:103510003C9113970F5F1F4F2F4F3F4FF7010083D1
:10352000118322833383612F677080EA45CF8A013C
:103530009B01E9E03695279517950795EA95D1F710
:10354000769567955795479540788CE4602F20E0F5
:103550000E94BE038CEB94E30197F1F7F6CD0E9435
:10356000E3130895CF93DF9300D000D00F92CDB72F
:10357000DEB76091210280912202643051F0603107
:1035800041F00F900F900F900F900F90DF91CF911F
:103590000895853099F1863009F4DFC08D3009F443
:1035A00092C08E3009F469C0833059F7603149F711
:1035B00080ED898399B181E094FF80E08795882729
:1035C00087959091A302892B8A838091C8008B8371
:1035D0008091C9008C838091CA008D831F9BE6C0B7
:1035E0008091DC009091DD0084FDCBCF80E480935E
:1035F000ED0080E090E0A0E8B6EC8AC0E4E0F1E005
:10360000A491AA0FAA0FAA0F09F4CEC09F012450BB
:103610003040A150B0E0AA0FBB1FAE5FBE4F40E0EC
:1036200050E0F90185919491480F591F2E5F3F4F4B
:103630002A173B07B1F7FE01319685E0DF011D92A5
:103640008A95E9F7E5E0F1E0E491EA834D8364309F
:1036500009F480C0603109F094CF1F9997C0809120
:10366000DC009091DD0084FD8CCF80E48093ED0040
:1036700080E090E0A0E6B6EC4BC01F9B82CF80EDCF
:10368000898387E790E00E9485368A8386E790E009
:103690000E9485368B8385E790E00E9485368C8377
:1036A00084E790E00E9485368D838091DC009091C4
:1036B000DD0084FD66CF80E48093ED0080E090E043
:1036C000A0E0BAE925C01F995CCF80ED898387E728
:1036D00090E00E9485368A8386E790E00E948536D6
:1036E0008B8385E790E00E9485368C8384E790E0A9
:1036F0000E9485368D838091DC009091DD0084FDF1
:1037000040CF80E48093ED0080E090E0A0E0B8E955
:103710008093F0009093F100A093F200B093F30037
:1037200089818093FA008A818093FA008B8180934B
:10373000FA008C818093FA008D818093FA0085E4F1
:103740008093EF000F900F900F900F900F90DF91EC
:10375000CF9108951F99A9CFCECF84E790E06091D3
:1037600026020E94933685E790E0609125020E9430
:10377000933686E790E0609124020E94933687E7B3
:1037800090E0609123020E949336FBCE8091DC0092
:103790009091DD0084FDF5CE80E48093ED0080E023
:1037A00090E0A0E8B6ECB4CF40E045CF8091DC00DB
:1037B0009091DD0084FDE5CE80E48093ED0080E013
:1037C00090E0A0E6B6ECA4CFCB010E94B21A089517
:1037D0008091B10186FF09C08F73853209F44AC018
:1037E000863220F4813209F491C00895873209F4B9
:1037F000CCC08932D1F72FB7F8943FB7F8948091B5
:10380000C0029091C10291609093C1028093C00266
:103810003FBF2FBFE5EEF2E09FB7F894808581FDB2
:10382000FAC0808582FDF7C08085846080879FBF55
:103830002FB7F8948091760390917703A091780345
:10384000B09179032FBF88519C4FAF4FBF4FA170EC
:10385000B070868397839A2F917080858E7F892B95
:103860008087118210828AE491E09383828388E0CA
:1038700090E03EC02FB7F8943FB7F8948091C00213
:103880009091C10294609093C1028093C0023FBFA7
:103890002FBFE5EEF2E09FB7F894808581FDC3C0AD
:1038A000808582FDC0C08085846080879FBF2FB7E0
:1038B000F8948091760390917703A0917803B0916A
:1038C00079032FBF88519C4FAF4FBF4FA170B0708D
:1038D000868397839A2F917080858E7F892B80872E
:1038E000118210828AE491E0938382838AE090E0DF
:1038F0009583848380858260808780858B7F8087A5
:103900008091E4028F5F8093E40208952FB7F894CA
:103910003FB7F8948091C0029091C1029260909359
:10392000C1028093C0023FBF2FBFE5EEF2E09FB718
:10393000F894808581FD7FC0808582FD7CC0808574
:10394000846080879FBF2FB7F89480917603909111
:103950007703A0917803B09179032FBF88519C4FD2
:10396000AF4FBF4FA170B070868397839A2F91702D
:1039700080858E7F892B8087118210828AE491E076
:103980009383828389E090E0B3CF2FB7F8943FB759
:10399000F8948091C0029091C10298609093C10206
:1039A0008093C0023FBF2FBFE5EEF2E09FB7F894CF
:1039B000808581FD29C0808582FD26C08085846048
:1039C00080879FBF2FB7F8948091760390917703FB
:1039D000A0917803B09179032FBF88519C4FAF4FCE
:1039E000BF4FA170B070868397839A2F91708085A6
:1039F0008E7F892B8087118210828AE491E09383E5
:103A000082838BE090E074CF9FBF399683E0E537E7
:103A1000F80761F608959FBF399683E0E537F80708
:103A200009F0FACE08959FBF399683E0E537F8078D
:103A300009F031CF08959FBF399683E0E537F80745
:103A400009F075CF0895CB010E94E81B08951F93DC
:103A5000CF93DF93EB010E948536182FCE010E9491
:103A6000853687FD15C08F77412F50E09A01220FD0
:103A7000331F440F551F440F551F440F551F240F6C
:103A8000351F280F311DC901DF91CF911F91089576
:103A9000412F50E09A01220F331F440F551F440F4E
:103AA000551F440F551F240F351F8F77281B3109D1
:103AB000C901DF91CF911F9108950F931F93FC01CE
:103AC000828180938D02818180938E022381822F57
:103AD00090E0807C907095958795959587959081DD
:103AE0009F74982B90938F02822F8F7090919102E8
:103AF000892B809391028481809392023581832F58
:103B000090E02091C50220783072232BDC01AF7049
:103B1000B070A65CBE4F3C91232B807C90700097C8
:103B200009F07BC02093C502808185FF61C010929F
:103B30002401A0911001B09111011A961C92A0913C
:103B40001201B09113011A961C922FB7F89480912C
:103B5000760390917703A0917803B09179032FBFFA
:103B600040910F0A5091100A6091110A7091120A47
:103B70008C019D01041B150B260B370BB901A80105
:103B8000413A1FE0510710E0610710E0710708F0AB
:103B9000A5C080930F0A9093100AA093110AB093C6
:103BA000120A868181FD35C02FB7F8948091760383
:103BB00090917703A0917803B09179032FBF893555
:103BC0002BE1920720E0A20720E0B20770F080917D
:103BD0003701882351F080913801882309F47EC091
:103BE00080913901882309F479C01F910F910895BC
:103BF00081E080932401A0911001B09111011A96E7
:103C00008C93A0911201B09113011A968C931A977C
:103C10009CCF878186FDE9CFC7CF2068A5EEB2E0B3
:103C20009FB7F89418968C91189781FD4FC01896FD
:103C30008C91189782FD4AC018968C9118978460D1
:103C400018968C9318979FBF8FB7F894409176037E
:103C50005091770360917803709179038FBF485139
:103C60005C4F6F4F7F4F6170707016964C93169734
:103C700017965C931797962F917018968C911897BA
:103C80008E7F892B18968C93189711961C921E92F2
:103C90008BE691E013969C938E93129715961C9247
:103CA0001E92149718968C911897826018968C9390
:103CB000189718968C9118978B7F18968C93189755
:103CC0008091E4028F5F8093E4022CCF9FBF19960E
:103CD00033E0A537B30709F0A3CF24CF0E947F0DAF
:103CE0001F990895CB010E945D1D08951F9B0895A3
:103CF000CB010E945D1D08950F931F93CF93DF9317
:103D00000091BC021091BD02812F912F17FF03C0BB
:103D100021E020939E0296FD25C095FD23C0E091F1
:103D20001001F0911101808191819093C9028093DB
:103D3000C802E0911201F09113018081918190936A
:103D4000C7028093C60280913701882309F423C1FA
:103D5000FEE00E3F1F0709F47EC0DF91CF911F9157
:103D60000F91089590913701992339F010923701FE
:103D700090916E009D7F90936E0086FF3DC065E040
:103D800071E0FB01949131962491592F40E030E08D
:103D9000242B352B3093CD022093CC02FB0132969D
:103DA0009491FB0133962491592F40E030E0242B6D
:103DB000352B3093CB022093CA02FB013496A59198
:103DC000B4914B2F50E03A2F20E0242B352B309329
:103DD000C9022093C802FB01379694916A5F7F4F16
:103DE000FB016491592F40E0262F30E0242B352B26
:103DF0003093C7022093C60285FFAACFE801D07096
:103E0000CC0FDD1FCC0FDD1FCC0FDD1FCE010E94BC
:103E10008D369093CC028093CD02CE0102960E9403
:103E20008D369093CA02EAECF2E08183CE010496CB
:103E30000E948D369093C8028093C902CE010696E7
:103E40000E948D369093C6028093C702FEE00E3F1B
:103E50001F0709F082CF80913701882309F0AAC09B
:103E60008AE190E00E945635DC0123982B9A229A31
:103E7000219A209A8CB580658CBD8CB59DB58C7FC0
:103E80009E7F81609DBD8CBD14961C92149743E06B
:103E900052E020E63AEE7CEA63E5249A2C98852FDE
:103EA0008A95F1F72C9A852F8A95F1F72C98C901FC
:103EB0000197F1F77EBD0DB407FEFDCF6EBD0DB4C9
:103EC00007FEFDCF1EBC0DB407FEFDCF8EB51EBC98
:103ED0000DB407FEFDCF833509F474C04150E9F6F7
:103EE00014964C9114978CEB92E016969C938E93BB
:103EF00015979C012250304018963C932E931797AB
:103F00009C01245030401A963C932E9319979C01A3
:103F1000265030401C963C932E931B979C01205FAB
:103F20003F4F1E963C932E931D979C01225F3F4F5F
:103F300050963C932E931F979C01245F3F4F5296BF
:103F40003C932E9351970A9654969C938E93539735
:103F5000442309F070C020E2822F9091BD022FB758
:103F6000F8949093CD028093CC022FBFE8E8F1E063
:103F7000E491F0E0EE0FFF1FEE0FFF1FE855FD4F3D
:103F8000B0A7A7A38FEA9AE192A781A7DF91CF916B
:103F90001F910F91089581E08093370116BCA99A73
:103FA00080916E00826080936E000091BC0210913F
:103FB000BD02CECE1092370180916E008D7F80932E
:103FC0006E004ECF81E014968C9314978CEB92E0A8
:103FD00016969C938E9315979C012250304018960C
:103FE0003C932E9317979C01245030401A963C9393
:103FF0002E9319979C01265030401C963C932E938B
:104000001B979C01205F3F4F1E963C932E931D975C
:104010009C01225F3F4F50963C932E931F979C012B
:10402000245F3F4F52963C932E9351970A96549695
:104030009C938E93539720E08FCF0E947C1E08950F
:10404000CF93DF93CDB7DEB76B970FB6F894DEBF93
:104050000FBECDBF88E891E0FC012491E22FF0E093
:10406000EE0FFF1FEE0FFF1FE855FD4F10A617A222
:104070002DE130E232A721A7FC013497E491F0E072
:10408000EE0FFF1FEE0FFF1FE855FD4F10A617A202
:104090002BE731E032A721A7FC013597E491F0E04E
:1040A000EE0FFF1FEE0FFF1FE855FD4F10A617A2E2
:1040B00029E737E032A721A70797FC018491E82F71
:1040C000F0E0EE0FFF1FEE0FFF1FE855FD4F80E7FA
:1040D00091E090A787A386EE97E292A781A78E0131
:1040E0000B5F1F4F1F9B2CC210924E0210924D026D
:1040F00084EE9BE19093500280934F0210925A02FB
:104100001092590280E79EE190935C0280935B02DB
:1041100010925E0210925D0286E79EE1909360022B
:1041200080935F02109252021092510282EB9DE046
:1041300090935402809353021092560210925502AB
:104140008DE89DE09093580280935702109262028E
:10415000109261028AE891E0909364028093630276
:1041600010928A021092890283E29DE190938C0260
:1041700080938B0280E091E09093660280936502C9
:1041800083EA91E0909368028093670210926A023A
:104190001092690283E29BE090936C0280936B0221
:1041A00010927A021092790281EF9CE090937C0247
:1041B00080937B0210926E0210926D028EEA97E05D
:1041C0009093700280936F0210927E0210927D0293
:1041D0008DE993E09093800280937F0210927202A7
:1041E0001092710281E59CE09093740280937302B7
:1041F000109282021092810283EC9BE090938402E1
:1042000080938302109276021092750286ED97E0F9
:104210009093780280937702109286021092850222
:1042200089E893E090938802809387028091370118
:10423000882351F481E08093370116BCA99A8091BC
:104240006E00826080936E00789424E031E0F90182
:104250006491660F660F660F09F4B3C124503040B5
:10426000615070E0660F771F6E5F7E4F40E050E058
:10427000F90185919491480F591F2E5F3F4F2617E2
:104280003707B1F785E0D8011D928A95E9F7E5E097
:10429000F1E0E491EE8349871F9938C08091DC00FA
:1042A0009091DD0084FD21C080E48093ED0080E0EA
:1042B00090E0A0E0B8E98093F0009093F100A09323
:1042C000F200B093F3008D818093FA008E81809389
:1042D000FA008F818093FA0088858093FA0089859F
:1042E0008093FA0085E48093EF0080E395E70197DF
:1042F000F1F78091DC009091DD0084FD59C080E4ED
:104300008093ED0080E090E0A0E637C08091DC0073
:104310009091DD0084FD21C080E48093ED0080E079
:1043200090E0A0E0BAE98093F0009093F100A093B0
:10433000F200B093F3008D818093FA008E81809318
:10434000FA008F818093FA0088858093FA0089852E
:104350008093FA0085E48093EF0080E395E701976E
:10436000F1F78091DC009091DD0084FD21C080E4B4
:104370008093ED0080E090E0A0E8B6EC8093F00040
:104380009093F100A093F200B093F3008D8180939D
:10439000FA008E818093FA008F818093FA008885DD
:1043A0008093FA0089858093FA0085E48093EF007A
:1043B0001F8A1E8A8EED9AE0682F998F888F1B8E38
:1043C0001A8E40E05F89798D80E09B8D20E137E295
:1043D0000E944A04198A188A8BE193E0682F9B8B0C
:1043E0008A8B1D8A1C8A40E059897B8980E09D89DF
:1043F00028E53BE10E944A0483B121E030E085FDDD
:1044000002C020E030E08091130A90E0822B932BD1
:104410008093130A009779F083B185FD0CC080E684
:1044200091E061E00E94933681E691E061E00E94B4
:1044300093360E947F0D3FB7F89490910B0A8091BC
:104440000C0A981709F475C080910B0A90E0DC0102
:10445000AA0FBB1FA80FB91FAA0FBB1FA55FBB4F99
:104460008D919C9111971296ED91FC911397149652
:104470006C91149715967C91159720910B0A2F5FDC
:1044800020930B0A20910D0A215020930D0A3FBF63
:1044900030910D0A20910A04231720F420910D0A6F
:1044A00020930A04309709F00995A89505EE12E0CB
:1044B00006C0075F1F4FF3E005371F07C1F1F80182
:1044C000808581FFF6CF2FB7F89480917603909185
:1044D0007703A0917803B09179032FBF89839A83E2
:1044E000AB83BC83D801908591708B8181709817C4
:1044F00001F72681378189819A8128173907C8F603
:10450000648175810280F381E02D8D919C910995E4
:10451000F80180858D7F80878091E40281508093AF
:10452000E402075F1F4FF3E005371F0741F6A89528
:1045300063CF60E070E0E8E4F1E080E090E0A7CFD6
:10454000402F1B870A878BE299E0682F9D878C8715
:104550001F861E865B857D8580E09F8524EF31E088
:104560000E944A0410933A02009339028CE998E0C1
:1045700090933C0280933B0210933E0200933D02D5
:104580009093400280933F021093420200934102B5
:104590009093440280934302109346020093450295
:1045A00087E698E0909348028093470210934A026E
:1045B000009349028CEE93E090934C0280934B025F
:1045C00093CD40E050E05ECEAC01FC01E854FF4FDB
:1045D000845F9E4F28E431E011821082338322836E
:1045E0003496E817F907C1F78091D800816080936D
:1045F000D800E2EEF0E08091E20081788A6080935A
:10460000E2008091E3008E6081838091E4008178F4
:104610008B6482838091ED008F708093ED0088E041
:104620008093EF0085E090E0A0EEBFEF8093F40070
:104630009093F500A093F600B093F7008091ED0001
:104640008F7080618093ED0088E08093EF0085E0BB
:104650008093F4009093F500A093F600B093F700D8
:104660008091ED008F7080628093ED0087E08093F1
:10467000EF0080E0B3E68093F0009093F100A09308
:10468000F200B093F30085E0BFEF8093F4009093C5
:10469000F500A093F600B093F7008091ED008F70C5
:1046A00080638093ED0088E08093EF0080E0A0ECD1
:1046B000B3E68093F0009093F100A093F200B093E2
:1046C000F30085E0A0EEBFEF8093F4009093F50037
:1046D000A093F600B093F7008091ED008F70806496
:1046E0008093ED0088E08093EF0085E08093F400F4
:1046F0009093F500A093F600B093F7008091ED0041
:104700008F7080658093ED0088EC8093EF0080E0EF
:10471000A0E0B9E08093F0009093F100A093F20044
:10472000B093F30085E0A0EEBFEF8093F400909388
:10473000F500A093F600B093F7008091ED008F7024
:1047400080668093ED0088E88093EF0080E0A0E031
:10475000BAE08093F0009093F100A093F200B09340
:10476000F30085E0A0EABFEF8093F4009093F5009A
:10477000A093F600B093F7008091ED008F708067F2
:104780008093ED0088E88093EF0080E0A0E0BBE03C
:104790008093F0009093F100A093F200B093F300A7
:1047A00085E0A0EABFEF8093F4009093F500A0931A
:1047B000F600B093F7008091ED008F7080688093D1
:1047C000ED0088E88093EF0080E0A0E0BEE08093F9
:1047D000F0009093F100A093F200B093F30085E015
:1047E000A0EEBDEF8093F4009093F500A093F60047
:1047F000B093F7008091ED008F7080698093ED0099
:1048000088E88093EF0080E0A0E0B0E18093F000C2
:104810009093F100A093F200B093F30085E0A0E63E
:10482000BFEF8093F4009093F500A093F600B0934F
:10483000F7008091ED008F70806A8093ED0088E82A
:104840008093EF0080E0A0E2B0E18093F0009093CD
:10485000F100A093F200B093F30085E0A0E6BFEF73
:104860008093F4009093F500A093F600B093F700C6
:104870008091ED008F70806B8093ED0088EC8093C9
:10488000EF0080E0A0EEB8E18093F0009093F1009B
:10489000A093F200B093F30085E0BFEF8093F400A3
:1048A0009093F500A093F600B093F7008091ED008F
:1048B0008F70806C8093ED0088EC8093EF0080E037
:1048C000A0E2B2E48093F0009093F100A093F20094
:1048D000B093F30085E0A0EEBFEF8093F4009093D7
:1048E000F500A093F600B093F7008091ED008F7073
:1048F000806D8093ED0088E88093EF0080E0A0E475
:10490000BAE48093F0009093F100A093F200B0938A
:10491000F30085E0A0E8B7ED8093F4009093F500F4
:10492000A093F600B093F7008091ED008F70806E39
:104930008093ED0088E88093EF0080E0A0E0BDE880
:104940008093F0009093F100A093F200B093F300F5
:1049500085E0A0EEB8EF8093F4009093F500A0936B
:10496000F600B093F70080EE9FE79093DF0080930E
:10497000DE008091DB00806A8093DB005093C303EC
:104980004093C2038CEA94E09093C5038093C403E0
:104990008091D80082608093D8008091D90082FFF6
:1049A000FCCF08952F923F924F925F926F927F9229
:1049B0008F929F92AF92BF92CF92DF92EF92FF922F
:1049C0000F931F93CF93DF9300D0CDB7DEB73C0199
:1049D0001B01B9011A8309834F88588CDC01119699
:1049E0003C922E92FC01128213821482158216963A
:1049F000CD92DD92ED92FC92199782869386A486E1
:104A0000B58621E0268785E987BD84B580788A60F0
:104A100084BD7092CB036092CA038EE397E09093BB
:104A2000CD038093CC03758A648A83E793E0978BE8
:104A3000868B718E608E83E893E0938F828F148EC5
:104A400082E0858F168E278F90961D921D921D9263
:104A50001C92939794961C92949796965C934E937F
:104A6000959798967C936E939797E981FA819A9699
:104A7000FC93EE9399979B961D921D921D921C920A
:104A80009E978AE09F968C939F97D0961C92D09782
:104A9000D2961C921E92D197D3961C92D397D496FD
:104AA0001C92D497D5961C92D597D6961C92D697E1
:104AB000D7961C92D797D8961C92D897D9961C92C5
:104AC00089E090E00E948536F82E8824839488221D
:104AD000C3B083E290E00E9456358C01FC01518204
:104AE0004082B20180E090E02FE334E243E050E006
:104AF0000E94CD3428E630E140E050E00E941335BA
:104B0000D80112962D933D934D935C93159716966D
:104B10008C92169717961C92179718961C921897B6
:104B20008C2D8095881F8827881F19968C9319973C
:104B30001A961C921A971C961C921E921B971E96F0
:104B40001C921E921D9750961C921E921F97529671
:104B50001C921E92519754961C921E9253975596F2
:104B60001C92559756961C92569758961C921E92D8
:104B700057975A961C921E9259975B961C925B9778
:104B800091E0811090E09170892F880F892BF801B6
:104B9000848F158E81E0868F3C9A3D9AD301519681
:104BA0001C930E9350978F2C86948822F3B083E247
:104BB00090E00E9456358C01298D3A8DFC0131839D
:104BC0002083B90180E090E02FE334E243E050E03D
:104BD0000E94CD3428E630E140E050E00E941335D9
:104BE000D80112962D933D934D935C93159716968D
:104BF0008C92169717961C92179718961C921897D6
:104C00008F2D881F8827881F19968C9319971A96BD
:104C10001C921A971C961C921E921B971E961C9211
:104C20001E921D9750961C921E921F9752961C9290
:104C30001E92519754961C921E92539755961C9211
:104C4000559756961C92569758961C921E925797B7
:104C50005A961C921E9259975B961C925B9791E014
:104C6000811090E09170892F880F892BF801848F33
:104C7000158E81E0868F3C9A3D9AD30153961C9302
:104C80000E935297F101B09611823C9A3D9A2FB73C
:104C9000F89484E790E0E981FA81918380832FBFC3
:104CA0009796ED91FC9198978FB7F89411821082A6
:104CB0008FBFE5EEF2E09FB7F894808581FD48C094
:104CC000808582FD45C08085846080879FBF2FB727
:104CD000F8948091760390917703A0917803B09136
:104CE00079032FBF8C509E4FAF4FBF4FA170B07054
:104CF000868397839A2F917080858E7F892B8087FA
:104D00007182608286E792E39383828315821482A4
:104D100080858260808780858B7F80878091E40298
:104D20008F5F8093E4020F900F90DF91CF911F91DE
:104D30000F91FF90EF90DF90CF90BF90AF909F903A
:104D40008F907F906F905F904F903F902F9008953D
:104D50009FBF3996B3E0E537FB0709F0ACCFE3CF4F
:104D60002F923F924F925F926F927F928F929F927B
:104D7000AF92BF92CF92DF92EF92FF920F931F9369
:104D8000CF93DF93CDB7DEB72B970FB6F894DEBF86
:104D90000FBECDBFFB01C080D180E280F380C70190
:104DA000B6012CE030E040E050E00E94CD346D834D
:104DB0007E838F8398878EE090E00E94B606880FEE
:104DC000991F880F991F01972C01662477241601DB
:104DD00081E090E09B878A8731C0682D592D4A2D4C
:104DE0007B2D862E952EA42EB72E281739070CF46E
:104DF0006AC04B815C814B835C83281739070CF4B4
:104E000069C099818A8199838A834A855B85403408
:104E1000510508F469C084E090E02A853B85289F0D
:104E20007001299FF00C389FF00C1124FB86EA8654
:104E3000A70184E04130580708F061C02A853B850E
:104E40006901EE24FF246D817E818F819885A70101
:104E500096010E94133589019A01015010402040AB
:104E60003040401651066206730610F49301820129
:104E7000B8016F5F7F4F80E090E0A70196010E942C
:104E8000CD342CE030E040E050E00E941335690161
:104E90007A01C4018219930997FD2DC09601221948
:104EA000330937FD24C0281739070CF096CF6C2D35
:104EB0005D2D4E2D7F2D862E952EA42EB72E2817D4
:104EC00039070CF096CFA8014B835C83281739076C
:104ED0000CF097CF9A858B8599838A834A855B8569
:104EE0004034510508F097CF88E090E096CF309598
:104EF00021953F4FD8CF909581959F4FCFCFEB8095
:104F0000FC80F0928900E092880029813A81203467
:104F1000310509F458C02134310508F442C04981F3
:104F20005A8181E04030580709F447C094E040308E
:104F3000590709F43FC09985977080918100887F57
:104F4000892B8093810080918000909181008C7FDB
:104F5000977E986090938100809380008F738093F8
:104F6000800080916F00826080936F00B401C50162
:104F70002B960FB6F894DEBF0FBECDBFDF91CF9159
:104F80001F910F91FF90EF90DF90CF90BF90AF9067
:104F90009F908F907F906F905F904F903F902F9059
:104FA00008952130310561F02830310521F6E2E025
:104FB000E987C1CF35E03987BECF24E02987BBCF51
:104FC00041E04987B8CFF3E0F987B5CFAF92BF9200
:104FD000CF92DF92EF92FF920F931F93CF93DF93C5
:104FE00000D000D0CDB7DEB75C011091AF02809148
:104FF000B10281FF43C0112309F440C08EE190E06B
:10500000909301018093000180916F0082608093F2
:105010006F00F50181811817E1F11183E091100112
:10502000F09111016081718180E090E028EF36E01D
:1050300041E050E00E94CD3428EE33E040E050E003
:105040000E94133569017A01212F30E040E050E0E1
:10505000C701B6010E94133589019A0109831A8399
:105060002B833C83073911052105310590F0C501DB
:10507000BE016F5F7F4F0E94B0260BC086E090E0BC
:10508000909301018093000180916F008D7F809348
:105090006F0081E0F50182830F900F900F900F90C9
:1050A000DF91CF911F910F91FF90EF90DF90CF9004
:1050B000BF90AF9008954F925F926F927F928F92C0
:1050C0009F92AF92BF92CF92DF92EF92FF920F9397
:1050D0001F93CF93DF93CDB7DEB760970FB6F894E9
:1050E000DEBF0FBECDBF8130910529F1009761F47D
:1050F00080911001909111010E94EC358091120174
:10510000909113010E94EC3560960FB6F894DEBFC3
:105110000FBECDBFDF91CF911F910F91FF90EF9008
:10512000DF90CF90BF90AF909F908F907F906F90C7
:105130005F904F90089510920A04EBE0F4E028E4A9
:1051400031E01182108288E491E033832283369625
:105150004AE0EB30F407A9F710920B0A10920C0A00
:1051600010920D0A109207041092060429E431E00F
:10517000309309042093080410920304109202044F
:1051800030930504209304041092FF031092FE0351
:1051900030930104209300041092FB031092FA0351
:1051A0003093FD032093FC031092F7031092F60353
:1051B0003093F9032093F8031092F3031092F20353
:1051C0003093F5032093F4031092EF031092EE0353
:1051D0003093F1032093F0031092EB031092EA0353
:1051E0003093ED032093EC031092E7031092E60353
:1051F0003093E9032093E8031092E3031092E20353
:105200003093E5032093E4031092DF031092DE0352
:105210003093E1032093E0031092DB031092DA0352
:105220003093DD032093DC031092D7031092D60352
:105230003093D9032093D8031092D3031092D20352
:105240003093D5032093D4031092CF031092CE0352
:105250003093D1032093D0031092CB031092CA0352
:105260003093CD032093CC031092C7031092C60352
:105270003093C9032093C8031092C3031092C20352
:105280003093C5032093C4031092BF031092BE0352
:105290003093C1032093C0031092BB031092BA0352
:1052A0003093BD032093BC031092B7031092B60352
:1052B0003093B9032093B8031092B3031092B20352
:1052C0003093B5032093B4031092AF031092AE0352
:1052D0003093B1032093B0031092AB031092AA0352
:1052E0003093AD032093AC031092A7031092A60352
:1052F0003093A9032093A8031092A3031092A20352
:105300003093A5032093A40310929F0310929E0351
:105310003093A1032093A003109297031092960359
:105320003093990320939803109293031092920361
:10533000309395032093940310928F0310928E0361
:10534000309391032093900310928B0310928A0361
:1053500030938D0320938C03109287031092860361
:105360003093890320938803109283031092820361
:10537000309385032093840310927F0310927E0361
:10538000309381032093800310927B0310927A0361
:1053900030937D0320937C03109209004FED5EE271
:1053A000509399004093980040919100487F41604C
:1053B0004093910040919000509191004C7F577E16
:1053C000586050939100409390004F734093900029
:1053D00045E753E050939B0340939A034EE153E01B
:1053E00050939D0340939C03109276031092770391
:1053F0001092780310927903109295001092940005
:10540000C19A409171004260409371001092E6028F
:105410001092E5029093E8028093E7021092EF0267
:105420001092EE029093F1028093F0021092F80233
:105430001092F7029093FA028093F90210920103FE
:1054400010920003909303038093020310920A03C7
:105450001092090390930C0380930B031092130393
:1054600010921203909315038093140310921C035F
:1054700010921B0390931E0380931D03109225032B
:1054800010922403909327038093260310922E03F7
:1054900010922D039093300380932F0310923703C3
:1054A000109236039093390380933803109240038F
:1054B00010923F039093420380934103109249035B
:1054C0001092480390934B0380934A031092520327
:1054D00010925103909354038093530310925B03F3
:1054E00010925A0390935D0380935C0310926403BF
:1054F00010926303909366038093650310926D038B
:1055000010926C0390936F0380936E031092A80225
:105510001092A7023093AA022093A9021092AD0222
:105520001092AC021092AF021092AE021092B10231
:105530001092B0021092B3021092B2021092B50211
:105540001092B4021092B7021092B6021092B902F1
:105550001092B8021092BB021092BA021092BD02D1
:105560001092BC021092BF021092BE021092C102B1
:105570001092C0021092C3021092C2021092C50291
:105580001092C4021092C7021092C6021092C90271
:105590001092C8021092CB021092CA021092CD0251
:1055A0001092CC020FEC12E0D80111961C921E92C0
:1055B00013963C932E9312970C5F1F4FB2E0033E5D
:1055C0001B0791F71092A5021092A4021092A60256
:1055D000539A5B9A52985A9A549A27982F9A8CE920
:1055E000E82E82E0F82EF0928B03E0928A038CE999
:1055F0009DE290938D0380938C03F0928303E0925D
:10560000820380ED93E09093850380938403F0926E
:105610008703E09286038CE293E090938903809362
:105620008803E8ECF0E08091C80082608093C800B5
:105630008CE08093CC008091CD00807F8093CD0062
:105640009091C9008091CA008660877882839C6CA3
:10565000918388248394D70112968C92129780911B
:10566000C80081608093C8005C9A8091C900806105
:10567000818317961C9281E891E00E94E42224E73E
:10568000C22E21E0D22EC80181979093750180939C
:1056900074011092770110927801109279011092A2
:1056A0007A0180927B018091C20280937C011092EA
:1056B0007D01C801809790937F0180937E011092B5
:1056C0008001109276014C2DDE82CD8289E79AE02E
:1056D000682F98878F831A8619865E81788580E087
:1056E0009A8520ED37E00E944A04460141EBA42E42
:1056F00043E0B42E260154E6652E51E0752E82E07B
:1057000090E06CE070E00E94271D6C0182E090E068
:105710006DE070E00E94271D00D000D0EDB7FEB70D
:10572000D282C1829483838380E091E066E070E05E
:10573000A7014D5F5F4F980127513040095110403C
:1057400075016401530142010E94D22485E595E56B
:10575000A0E0B0E089839A83AB83BC830F900F9065
:105760000F900F9000E711E0C801BE016F5F7F4FFF
:105770000E94B0261093DB030093DA038EEF97E0CC
:105780009093DD038093DC03402F1C870B878CE113
:105790009AE0682F9E878D87188A1F865C857E8594
:1057A00080E0988928EE33E00E944A04ADCCCF9384
:1057B000DF93DC01C8ECD0E08091C8008871B1F0C3
:1057C0008091C9008091CE008091C8008160809353
:1057D000C8005C9A8091C9008061E8ECF0E08183A8
:1057E00017961C921797DF91CF9108959091C90059
:1057F000969591708091CE00282F22952F70E92FD9
:10580000F0E0E295F295F07FFE27E07FFE27E65B71
:10581000FE4FE20FF11D30818317B1F617968C9180
:105820001797913009F094C08823B9F506C08430E9
:1058300009F01EC117961C921797922F990F990F76
:10584000990F1A968C911A978770892B1A968C93B8
:105850001A978091C8008E7F8093C80017968C910C
:105860001797823009F498C0833009F712968C910B
:105870001297882309F4A8CF12968C9112978F5F04
:1058800012968C93129712968C911297853009F08C
:105890009BCF12961C92129797CF813011F71A96D0
:1058A0009C911A9790681A969C931A978F5F1796F7
:1058B0008C931797883009F096CF8091C80081604B
:1058C0008093C8005C9A8091C9008061E8ECF0E0A8
:1058D000818317961C9217971A96EC911A97F0E00D
:1058E000E057FE4FE491EF77F0E018968D919C9190
:1058F0001997DF01AA0FBB1FA455BD4F8C931196BA
:105900009C9311978091E30280FD6DCF8091E3021B
:1059100082608093E3027894E058FE4FE491AE2FCA
:10592000B0E0AA0FBB1FAA0FBB1FA855BD4F999689
:10593000ED91FC919A9797968D919C9198970995E6
:105940008091E3028D7F8093E302DF91CF910895F0
:10595000882309F439CF8130D9F08230E9F08330DF
:1059600009F4B0C0843009F083C019961C921E92CD
:1059700018972295207F19968C9119978F70822BFA
:1059800019968C93199785E017968C9317972BCFC0
:1059900082E017968C931797822F86958695817053
:1059A00091E01F9B90E0891709F00ECF922F9695FA
:1059B00096959695990F990F1A968C911A97887FBC
:1059C0002370892B822B1A968C931A9712968C919E
:1059D0001297882309F048C0C8ECD0E08091C90034
:1059E0008F7E89835C981396EC911397F0E0EF70AB
:1059F000F070E65BFE4F80818093CE0083E01796C7
:105A00008C9317971A96EC911A97F0E0E057FE4F97
:105A1000E491E7FD02C084E0B7CF9091E302969550
:105A200091708091E3028E7F892B8093E302F0E0F6
:105A3000EF77F070EE0FFF1FE455FD4F2FB7F8948E
:105A4000808191812FBF19969C938E9318971896F9
:105A50008D919C9119978C9311969C931197F89422
:105A60008091C9008062898317968C9117971ECF09
:105A7000853091F08630D1F0873009F017CF189635
:105A80008C911897807F822B18968C93189788E0BA
:105A900017968C93179711CF19968C911997807F31
:105AA000822B19968C93199786E06ECF2295207FD2
:105AB00018968C9118978F70822B18968C93189744
:105AC00087E062CF1A96EC911A97F0E0E057FE4F0C
:105AD000E491E7FFA0CF9091E302969591708091B9
:105AE000E3028E7F892B8093E302F0E0EF77F07082
:105AF000EE0FFF1FE455FD4F2FB7F8948081918181
:105B00002FBF19969C938E9318978091C9008F7E12
:105B100089835C9818968D919C9119978C93119616
:105B20009C931197F8948091C9008062898317969D
:105B30008C9117978F5FBBCE0E94D72B08956F92E1
