:100000000C9488000C9490090C94BF090C94EE0990
:100010000C941D0A0C944C0A0C947B0A0C94AA0AAA
:100020000C94D90A0C94080B0C94370B0C94660BA7
:100030000C94950B0C94C40B0C94F30B0C94220CA5
:100040000C94510C0C94800C0C94AF0C0C94DE0CA2
:100050000C940D0D0C943C0D0C946B0D0C949A0D9E
:100060000C94C90D0C94F80D0C94270E0C94560E9C
:100070000C94850E0C94B40E0C94E30E0C94120F99
:100080000C94410F0C94700F0C949F0F0C94CE0F96
:080090000C94FD0FC62CCB2CD3
:10010000000000000074191101010000A0DFD9FDFA
:1001100011241FBECFEFD0E1DEBFCDBF14BE88E1FA
:100120000FB6F89480936000109260000FBE11E04B
:10013000A0E0B1E0E8E6FDE500E00BBF02C00790FB
:100140000D92A236B107D9F719E0A2E6B1E001C0DD
:100150001D92AA39B107E1F73C9A3D9A449A459A13
:100160002DE088E190E00FB6F894A89580936000A8
:100170000FBE20936000259810E0C6E9D0E000E0B3
:1001800006C022970109FE010BBF0E94402DC43911
:10019000D10780E00807A9F70E9493160C94A22EBD
:1001A0000001000203000000040000000000000045
:1001B0000000000000000000908F8E8D08070605EB
:1001C000000000000000000000000000000000002F
:1001D000000000000000000000000000000000001F
:1001E000000000000000000000000000000000000F
:1001F00000000000000000000000000000000000FF
:100200008C8B8A89040300000000000000000000BD
:1002100000000000000000000200000100000000DB
:1002200000000000000000000000000000000000CE
:1002300000000000000000000000000000000000BE
:1002400000000000000000000000000000000000AE
:10025000000000000000000000000000000000009E
:10026000000000000000000000000000000000008E
:10027000000000000000000000000000000000007E
:10028000000000000000000000000000000000006E
:10029000000000000000000000000000000000005E
:1002A000000000000000000000000000000000004E
:1002B000089508954FB7F8945FB7F89420918E028F
:1002C00030918F0281E090E002C0880F991F6A95FB
:1002D000E2F7809590958223932390938F028093E9
:1002E0008E025FBF4FBF08958091EF01809361023E
:1002F0008091F001809362028091F101809363020A
:100300008091EC01809367028091ED0180936802F7
:100310008091EE01809369020895FC014181528130
:10032000638174814F5F5F4F6F4F7F4F4183528373
:10033000638374830895FC0187818430F1F08530F4
:1003400059F18630B1F1873019F08F5F87830895B6
:10035000A081B181AF70B070A55CBE4F8C918093CD
:10036000CE008091C9008F7DA8ECB0E011968C93EF
:10037000119787818F5F878308952181822F8295CE
:100380008F7090E0855C9E4FDC018C918093CE0055
:1003900087818F5F87830895A181B0E0AF70B070CF
:1003A000A55CBE4F8C918093CE0087818F5F878341
:1003B0000895A081B181B295A295AF70AB27BF70AF
:1003C000AB27ECCF8EBD0DB407FEFDCF6EBD0DB4D7
:1003D00007FEFDCF4EBD0DB407FEFDCF2EBD0DB403
:1003E00007FEFDCF8EB50895AB01BC01DB01CA014C
:1003F0000197A109B1099F704150487F82EC692F94
:1004000020E00E94E20188E799E60197F1F708955C
:10041000FC015C9AA8ECB0E08091C9008061119663
:100420008C9311978781883009F008958091C800D6
:1004300081608093C8005C9A8091C90080611196A8
:100440008C931197178208951F93CF93DF9300D059
:1004500000D000D0CDB7DEB749835A836B837C834D
:100460008D839E83E2EBF2E005C03996B2E0EA3F6D
:10047000FB07A9F19FB7F8948085482F467011F4C7
:10048000846080879FBF108512FFEFCFC901A0E075
:10049000B0E04091FB025091FC026091FD0270912E
:1004A000FE02840F951FA61FB71F868397838A2F8E
:1004B00081701E7F182B1087CF01AE014F5F5F4FF9
:1004C00026E0DA010D90AD01DC010D92CD01215045
:1004D000C1F7808582608B7F808781E001C080E0EA
:1004E00026960FB6F894DEBF0FBECDBFDF91CF9139
:1004F0001F910895CF93DF939C014091ED0080916F
:10050000EC00807F8093ED008091EE008F7D8093E2
:10051000EE00B091EF00BF705091F20052955695E9
:1005200057706091F300762F770F770F770F872F33
:10053000852B962F929596959770880F991F829587
:100540009295907F9827807F98278B0F911D59E077
:100550008530950709F462C0EAE088309E0709F407
:1005600012C1FAE088349F0709F410C15BE08830BB
:10057000950709F425C1EBE088349E0709F409C109
:10058000FEE081309F0709F421C15CE081309507CE
:1005900009F428C1E0E180309E0709F429C1F0E1A7
:1005A00080389F0709F42AC150E18130950709F48A
:1005B00013C1E0E181389E0709F426C1F0E18032E1
:1005C0009F0709F427C150E1803A950709F425C136
:1005D000E0E181329E0709F429C1F0E1813A9F07E9
:1005E00009F427C158E1873E950709F42BC1E2E4DD
:1005F00088329E0709F42FC1FAE485349F0709F475
:1006000030C152E68530950709F428C1EDE88730FE
:100610009E0709F0ADC063E170E002C060E070E0E9
:10062000BB2381F0FB01EE0FFF1FEE0FFF1FEE0F4C
:10063000FF1FE20FF31F50E0A091FA00A1935F5F4C
:100640005B17D0F3F2E685309F0709F457C059E0F5
:100650008530950709F4AEC0EAE485349E0709F4B5
:10066000ACC0FEE081309F0709F4ADC052E488328F
:10067000950709F49CC0EDE887309E0709F4AFC0E8
:10068000FAE088309F0709F4B0C05BE08830950736
:1006900009F4B1C0E8E1873E9E0709F49AC0F0E191
:1006A00080309F0709F4ADC050E18038950709F408
:1006B000AEC0E0E180329E0709F4B2C0F0E1803ABA
:1006C0009F0709F4B0C050E18130950709F4B4C028
:1006D000E0E181389E0709F4B2C0F0E181329F0762
:1006E00009F4B6C050E1813A950709F4AEC0ECE0D8
:1006F00081309E07E9F581E190E002C080E090E062
:10070000EB01CC0FDD1FCC0FDD1FCC0FDD1FC20FA7
:10071000D31F7FB7F894509192095F5F509392096D
:1007200060919109509191095F5F50939109E09117
:1007300090095E1789F17FBF70E08896880F991F36
:10074000880F991F820F931FFC0180819181A281E4
:10075000B381FB01EE0FFF1FE60FF71FEE0FFF1F28
:10076000E157FC4F81839283A383B483D683C583EF
:100770008091EF008F7380688093EF004093ED00CD
:10078000DF91CF91089561E070E04ACF62E070E0C0
:1007900047CF64E070E044CF509190095F5F509381
:1007A000900950919209515050939209C4CF84E01E
:1007B00090E0A6CF81E090E0A3CF82E090E0A0CFD0
:1007C00063E070E02DCF83E090E09ACF65E070E0C9
:1007D00027CF88E090E094CF69E070E021CF85E0FA
:1007E00090E08ECF66E070E01BCF86E090E088CF8F
:1007F00067E070E015CF87E090E082CF68E070E0BE
:100800000FCF89E090E07CCF6AE070E009CF8AE00A
:1008100090E076CF6BE070E003CF6CE070E000CF4B
:100820008BE090E06DCF8CE090E06ACF6DE070E0FF
:10083000F7CE6EE070E0F4CE8DE090E061CF8EE018
:1008400090E05ECF6FE070E0EBCE80E190E058CFBB
:100850008FE090E055CF60E170E0E2CE62E170E0C1
:10086000DFCE61E170E0DCCECF93DF93EB011F9927
:1008700020C06091FB027091FC028091FD0290917A
:10088000FE022AE030E040E050E00E94032D209379
:100890006B01988181E080936901E0916701F0919B
:1008A000680180818F7D808380916A01890F8093A8
:1008B0006A01DF91CF910895CF93DF93EB011F9BE6
:1008C00020C06091FB027091FC028091FD0290912A
:1008D000FE022AE030E040E050E00E94032D209329
:1008E0006B01988181E080936901E0916701F0914B
:1008F000680180818F7D808380916A01890F809358
:100900006A01DF91CF910895009711F481E0089575
:100910008130910511F482E008958230910511F43F
:1009200084E008958330910511F488E008958430BF
:10093000910511F480E108958530910511F480E26C
:1009400008958630910511F480E4089541E08730E0
:10095000910529F480E8489F802D1124089588305E
:10096000910511F480E0F7CF8930910511F480E012
:1009700008958A309105D9F38B309105C1F38C30FD
:100980009105A9F38D30910591F38E30910579F39E
:100990009C012950304040E08F30910541F3C9015E
:1009A000D6CF80918302982F90952091940992231D
:1009B00090FF03C091E090936D0183FD03C091E02F
:1009C00090936D018093940908951F9922C06091BE
:1009D000FB027091FC028091FD029091FE022AE0E0
:1009E00030E040E050E00E94032D90916B01209395
:1009F0006B0181E080936901E0916701F0916801EA
:100A000080818F7D808380916A01891B820F809312
:100A10006A0108951F9B22C06091FB027091FC0245
:100A20008091FD029091FE022AE030E040E050E02B
:100A30000E94032D90916B0120936B0181E08093C4
:100A40006901E0916701F091680180818F7D808369
:100A500080916A01891B820F80936A010895DC01ED
:100A6000ED91FC91119740A19FB7F8948091920964
:100A70008F5F8093920920919109809191098F5FF6
:100A800080939109309190098317C9F09FBF30E09E
:100A9000C901880F991F820F931F880F991FFC01AE
:100AA000E057FC4FB183A08328E33CE233832283E9
:100AB000FC01E157FC4F458316827894089580919C
:100AC00090098F5F80939009809192098150809363
:100AD0009209DCCF9FB7F894809192098F5F809341
:100AE000920920919109809191098F5F80939109DA
:100AF000309190098317C1F09FBF30E0C901880F82
:100B0000991F820F931F880F991FFC01E057FC4F1C
:100B1000118210822BED35E03383228381579C4F65
:100B2000FC01168215820895809190098F5F809351
:100B3000900980919209815080939209DDCFFC0148
:100B400083818823E1F4F0990DC0F09A8EB38695E5
:100B50008695869580FD0DC0F39A838191E0892763
:100B600083830895F0988EB386958695869580FF49
:100B7000F3CFF398838191E08927838308958EB31F
:100B8000869580FD0CC0F19A8EB38695869580FD82
:100B90000CC0F29A838191E0892783830895F198AC
:100BA0008EB38695869580FFF4CFF298838191E08D
:100BB0008927838308955FB7F89440919309842F20
:100BC00090E0FC01EE0FFF1FE80FF91FE55AFD4F03
:100BD0006181728180918F0290E08F709070242FDC
:100BE0002295207F30E0822B932B908190938E0270
:100BF00080938F0270938C0260938D025FBF4F5F72
:100C000040939309453009F008951092930908958F
:100C100080916601882319F481E080930601109287
:100C20006601E2EBF2E005C0399682E0EA3FF807A0
:100C300051F19FB7F8948085282F267011F48460B5
:100C400080879FBF208522FFEFCF8091FB0290918C
:100C5000FC02A091FD02B091FE028854944FAF4F68
:100C6000BF4F868397838A2F81702E7F282B118216
:100C7000108288E096E0938382831582148222603A
:100C80002B7F208708950895DC0180917F0281FFEA
:100C90003BC012968C9112978823B1F112961C9248
:100CA0001297E2EBF2E005C0399682E0EA3FF807DE
:100CB000B9F19FB7F8948085282F267011F48460CD
:100CC00080879FBF808582FFEFCF4091FB025091CC
:100CD000FC026091FD027091FE0248515C4F6F4F23
:100CE0007F4F46835783962F9170282F2E7F292B75
:100CF000B183A08384E496E0938382831582148277
:100D000022602B7F2087089586E090E09093010178
:100D100080930001809170008D7F80937000BECF22
:100D20000895DC0112968C911297882379F4ED9145
:100D3000FC9111979081892F8F71843009F43DC007
:100D4000883039F090789061908303C012961C929D
:100D50001297E2EBF2E005C0399682E0EA3FF8072D
:100D600059F19FB7F8948085282F267011F484607C
:100D700080879FBF808582FFEFCF4091FB0250911B
:100D8000FC026091FD027091FE024053584F6F4F7C
:100D90007F4F46835783962F9170282F2E7F292BC4
:100DA000B183A08381E996E09383828315821482C4
:100DB00022602B7F208708950895991F9927991FF6
:100DC000909597959927979598609083C2CF1092A8
:100DD0008F03E2EBF2E005C0399682E0EA3FF807C4
:100DE00051F19FB7F8948085282F267011F4846004
:100DF00080879FBF208522FFEFCF8091FB029091DB
:100E0000FC02A091FD02B091FE02805F984DAF4FB1
:100E1000BF4F868397838A2F81702E7F282B118264
:100E2000108287EE96E0938382831582148222607B
:100E30002B7F2087089508951F9908956091FB02E4
:100E40007091FC028091FD029091FE022AE030E058
:100E500040E050E00E94032D80916B01922F981B7F
:100E600020936B0181E080936901E0916701F0912B
:100E7000680180818062808350916A01590F50938C
:100E80006A01943210F160916C01662351F5550F9F
:100E900050936A01408140784066446010926C0132
:100EA000852F8459893188F54F7780916E01E091C3
:100EB0006701F0916801481769F180818F7B808319
:100EC00040936E0110926A01089580916C018F5FCA
:100ED00080936C01833009F0B0CF80818F7B808359
:100EE000089540814078406622E030E0261B3109B9
:100EF00081E090E002C0880F991F2A95E2F78F7178
:100F0000482B633058F24F7BC9CF5D5A5A31C8F431
:100F10004068CBCF46FF13C08081842787FD13C074
:100F200080916D0110927201882329F0E091700187
:100F3000F09171011082E0916701F09168014083A6
:100F4000BFCF4F7BB2CF80916D01882331F01092DB
:100F50006D01109272014083B3CFE0917001F09166
:100F60007101809172018083DBCF1F9B0895609196
:100F7000FB027091FC028091FD029091FE022AE03A
:100F800030E040E050E00E94032D80916B01922FF1
:100F9000981B20936B0181E080936901E0916701C8
:100FA000F091680180818062808350916A01590FBD
:100FB00050936A01943210F160916C01662351F5EF
:100FC000550F50936A01408140784066446010920A
:100FD0006C01852F8459893188F54F7780916E0196
:100FE000E0916701F0916801481769F180818F7B7A
:100FF000808340936E0110926A01089580916C0184
:101000008F5F80936C01833009F0B0CF80818F7B3C
:101010008083089540814078406622E030E0261BBE
:10102000310981E090E002C0880F991F2A95E2F70C
:101030008F71482B633058F24F7BC9CF5D5A5A31BC
:10104000C8F44068CBCF46FF13C08081842787FD5A
:1010500013C080916D0110927201882329F0E091F4
:101060007001F09171011082E0916701F0916801C7
:101070004083BFCF4F7BB2CF80916D01882331F089
:1010800010926D01109272014083B3CFE091700114
:10109000F0917101809172018083DBCFCF93DF9358
:1010A000EB011F9B03C0DF91CF9108956091FB027C
:1010B0007091FC028091FD029091FE022AE030E0E6
:1010C00040E050E00E94032D20936B01988181E065
:1010D00080936901E0916701F091680180818062ED
:1010E000808350916A01590F50936A01943220F124
:1010F00060916C01662379F5550F50936A01408128
:1011000040784066446010926C01852F8459893183
:10111000B0F54F7780916E01E0916701F091680121
:10112000481791F180818F7B808340936E011092EC
:101130006A01DF91CF91089580916C018F5FA7E6DE
:10114000B1E015968C931597833009F0ACCF808170
:101150008F7B8083A8CF40814078406622E030E0DA
:10116000261B310981E090E002C0880F991F2A9563
:10117000E2F78F71482B633030F24F7BC4CF5D5A5A
:101180005A31C8F44068C6CF46FF13C08081842717
:1011900087FD13C080916D0110927201882329F0A0
:1011A000E0917001F09171011082E0916701F0917E
:1011B00068014083BACF4F7BADCF80916D0188230A
:1011C00031F010926D01109272014083AECFE09128
:1011D0007001F0917101809172018083DBCFCF9318
:1011E000DF93EB011F9903C0DF91CF9108956091C8
:1011F000FB027091FC028091FD029091FE022AE0B8
:1012000030E040E050E00E94032D20936B01988174
:1012100081E080936901E0916701F091680180812C
:101220008062808350916A01590F50936A01943211
:1012300020F160916C01662379F5550F50936A0196
:10124000408140784066446010926C01852F84593B
:101250008931B0F54F7780916E01E0916701F0918F
:101260006801481791F180818F7B808340936E01E4
:1012700010926A01DF91CF91089580916C018F5F88
:10128000A7E6B1E015968C931597833009F0ACCFA3
:1012900080818F7B8083A8CF40814078406622E0A8
:1012A00030E0261B310981E090E002C0880F991FD1
:1012B0002A95E2F78F71482B633030F24F7BC4CF11
:1012C0005D5A5A31C8F44068C6CF46FF13C08081CA
:1012D000842787FD13C080916D01109272018823CD
:1012E00029F0E0917001F09171011082E0916701A5
:1012F000F09168014083BACF4F7BADCF80916D01F3
:10130000882331F010926D01109272014083AECFAC
:10131000E0917001F0917101809172018083DBCFC7
:101320001F920F920FB60F920BB60F9211242F93AC
:101330003F934F935F936F937F938F939F93AF935D
:10134000BF93EF93FF93E0918D03F0918E03809113
:101350008B0390918C030995FF91EF91BF91AF9111
:101360009F918F917F916F915F914F913F912F91BD
:101370000F900BBE0F900FBE0F901F9018951F92ED
:101380000F920FB60F920BB60F9211242F933F932B
:101390004F935F936F937F938F939F93AF93BF937D
:1013A000EF93FF93E0918903F0918A038091870383
:1013B000909188030995FF91EF91BF91AF919F9113
:1013C0008F917F916F915F914F913F912F910F90EE
:1013D0000BBE0F900FBE0F901F9018951F920F928B
:1013E0000FB60F920BB60F9211242F933F934F938A
:1013F0005F936F937F938F939F93AF93BF93EF937D
:10140000FF93E0918503F09186038091830390918F
:1014100084030995FF91EF91BF91AF919F918F91B7
:101420007F916F915F914F913F912F910F900BBEE4
:101430000F900FBE0F901F9018951F920F920FB62E
:101440000F920BB60F9211242F933F934F935F93FC
:101450006F937F938F939F93AF93BF93EF93FF937C
:10146000E0918103F091820380917F03909180034A
:101470000995FF91EF91BF91AF919F918F917F91CE
:101480006F915F914F913F912F910F900BBE0F90F5
:101490000FBE0F901F9018951F920F920FB60F92CC
:1014A0000BB60F9211242F933F934F935F936F933B
:1014B0007F938F939F93AF93BF93EF93FF93E091AD
:1014C0007D03F0917E0380917B0390917C030995CD
:1014D000FF91EF91BF91AF919F918F917F916F910C
:1014E0005F914F913F912F910F900BBE0F900FBEC8
:1014F0000F901F9018951F920F920FB60F920BB678
:101500000F9211242F933F934F935F936F937F9389
:101510008F939F93AF93BF93EF93FF93E0917903E2
:10152000F0917A0380917703909178030995FF9168
:10153000EF91BF91AF919F918F917F916F915F914B
:101540004F913F912F910F900BBE0F900FBE0F90B8
:101550001F9018951F920F920FB60F920BB60F9215
:1015600011242F933F934F935F936F937F938F93A8
:101570009F93AF93BF93EF93FF93E0917503F09127
:10158000760380917303909174030995FF91EF9115
:10159000BF91AF919F918F917F916F915F914F918B
:1015A0003F912F910F900BBE0F900FBE0F901F9089
:1015B00018951F920F920FB60F920BB60F9211242F
:1015C0002F933F934F935F936F937F938F939F934B
:1015D000AF93BF93EF93FF93E0917103F091720388
:1015E00080916F03909170030995FF91EF91BF91E6
:1015F000AF919F918F917F916F915F914F913F91AB
:101600002F910F900BBE0F900FBE0F901F9018954B
:101610001F920F920FB60F920BB60F9211242F93B9
:101620003F934F935F936F937F938F939F93AF936A
:10163000BF93EF93FF93E0916D03F0916E03809160
:101640006B0390916C030995FF91EF91BF91AF915E
:101650009F918F917F916F915F914F913F912F91CA
:101660000F900BBE0F900FBE0F901F9018951F92FA
:101670000F920FB60F920BB60F9211242F933F9338
:101680004F935F936F937F938F939F93AF93BF938A
:10169000EF93FF93E0916903F0916A0380916703F0
:1016A000909168030995FF91EF91BF91AF919F9140
:1016B0008F917F916F915F914F913F912F910F90FB
:1016C0000BBE0F900FBE0F901F9018951F920F9298
:1016D0000FB60F920BB60F9211242F933F934F9397
:1016E0005F936F937F938F939F93AF93BF93EF938A
:1016F000FF93E0916503F0916603809163039091FD
:1017000064030995FF91EF91BF91AF919F918F91E4
:101710007F916F915F914F913F912F910F900BBEF1
:101720000F900FBE0F901F9018951F920F920FB63B
:101730000F920BB60F9211242F933F934F935F9309
:101740006F937F938F939F93AF93BF93EF93FF9389
:10175000E0916103F091620380915F0390916003D7
:101760000995FF91EF91BF91AF919F918F917F91DB
:101770006F915F914F913F912F910F900BBE0F9002
:101780000FBE0F901F9018951F920F920FB60F92D9
:101790000BB60F9211242F933F934F935F936F9348
:1017A0007F938F939F93AF93BF93EF93FF93E091BA
:1017B0005D03F0915E0380915B0390915C0309955A
:1017C000FF91EF91BF91AF919F918F917F916F9119
:1017D0005F914F913F912F910F900BBE0F900FBED5
:1017E0000F901F9018951F920F920FB60F920BB685
:1017F0000F9211242F933F934F935F936F937F9397
:101800008F939F93AF93BF93EF93FF93E09159030F
:10181000F0915A0380915703909158030995FF91D5
:10182000EF91BF91AF919F918F917F916F915F9158
:101830004F913F912F910F900BBE0F900FBE0F90C5
:101840001F9018951F920F920FB60F920BB60F9222
:1018500011242F933F934F935F936F937F938F93B5
:101860009F93AF93BF93EF93FF93E0915503F09154
:10187000560380915303909154030995FF91EF9182
:10188000BF91AF919F918F917F916F915F914F9198
:101890003F912F910F900BBE0F900FBE0F901F9096
:1018A00018951F920F920FB60F920BB60F9211243C
:1018B0002F933F934F935F936F937F938F939F9358
:1018C000AF93BF93EF93FF93E0915103F0915203D5
:1018D00080914F03909150030995FF91EF91BF9133
:1018E000AF919F918F917F916F915F914F913F91B8
:1018F0002F910F900BBE0F900FBE0F901F90189559
:101900001F920F920FB60F920BB60F9211242F93C6
:101910003F934F935F936F937F938F939F93AF9377
:10192000BF93EF93FF93E0914D03F0914E038091AD
:101930004B0390914C030995FF91EF91BF91AF91AB
:101940009F918F917F916F915F914F913F912F91D7
:101950000F900BBE0F900FBE0F901F9018951F9207
:101960000F920FB60F920BB60F9211242F933F9345
:101970004F935F936F937F938F939F93AF93BF9397
:10198000EF93FF93E0914903F0914A03809147035D
:10199000909148030995FF91EF91BF91AF919F916D
:1019A0008F917F916F915F914F913F912F910F9008
:1019B0000BBE0F900FBE0F901F9018951F920F92A5
:1019C0000FB60F920BB60F9211242F933F934F93A4
:1019D0005F936F937F938F939F93AF93BF93EF9397
:1019E000FF93E0914503F09146038091430390916A
:1019F00044030995FF91EF91BF91AF919F918F9112
:101A00007F916F915F914F913F912F910F900BBEFE
:101A10000F900FBE0F901F9018951F920F920FB648
:101A20000F920BB60F9211242F933F934F935F9316
:101A30006F937F938F939F93AF93BF93EF93FF9396
:101A4000E0914103F091420380913F039091400364
:101A50000995FF91EF91BF91AF919F918F917F91E8
:101A60006F915F914F913F912F910F900BBE0F900F
:101A70000FBE0F901F9018951F920F920FB60F92E6
:101A80000BB60F9211242F933F934F935F936F9355
:101A90007F938F939F93AF93BF93EF93FF93E091C7
:101AA0003D03F0913E0380913B0390913C030995E7
:101AB000FF91EF91BF91AF919F918F917F916F9126
:101AC0005F914F913F912F910F900BBE0F900FBEE2
:101AD0000F901F9018951F920F920FB60F920BB692
:101AE0000F9211242F933F934F935F936F937F93A4
:101AF0008F939F93AF93BF93EF93FF93E09139033D
:101B0000F0913A0380913703909138030995FF9142
:101B1000EF91BF91AF919F918F917F916F915F9165
:101B20004F913F912F910F900BBE0F900FBE0F90D2
:101B30001F9018951F920F920FB60F920BB60F922F
:101B400011242F933F934F935F936F937F938F93C2
:101B50009F93AF93BF93EF93FF93E0913503F09181
:101B6000360380913303909134030995FF91EF91EF
:101B7000BF91AF919F918F917F916F915F914F91A5
:101B80003F912F910F900BBE0F900FBE0F901F90A3
:101B900018951F920F920FB60F920BB60F92112449
:101BA0002F933F934F935F936F937F938F939F9365
:101BB000AF93BF93EF93FF93E0913103F091320322
:101BC00080912F03909130030995FF91EF91BF9180
:101BD000AF919F918F917F916F915F914F913F91C5
:101BE0002F910F900BBE0F900FBE0F901F90189566
:101BF0001F920F920FB60F920BB60F9211242F93D4
:101C00003F934F935F936F937F938F939F93AF9384
:101C1000BF93EF93FF93E0912D03F0912E038091FA
:101C20002B0390912C030995FF91EF91BF91AF91F8
:101C30009F918F917F916F915F914F913F912F91E4
:101C40000F900BBE0F900FBE0F901F9018951F9214
:101C50000F920FB60F920BB60F9211242F933F9352
:101C60004F935F936F937F938F939F93AF93BF93A4
:101C7000EF93FF93E0912903F0912A0380912703CA
:101C8000909128030995FF91EF91BF91AF919F919A
:101C90008F917F916F915F914F913F912F910F9015
:101CA0000BBE0F900FBE0F901F9018951F920F92B2
:101CB0000FB60F920BB60F9211242F933F934F93B1
:101CC0005F936F937F938F939F93AF93BF93EF93A4
:101CD000FF93E0912503F0912603809123039091D7
:101CE00024030995FF91EF91BF91AF919F918F913F
:101CF0007F916F915F914F913F912F910F900BBE0C
:101D00000F900FBE0F901F9018951F920F920FB655
:101D10000F920BB60F9211242F933F934F935F9323
:101D20006F937F938F939F93AF93BF93EF93FF93A3
:101D3000E0912103F091220380911F0390912003F1
:101D40000995FF91EF91BF91AF919F918F917F91F5
:101D50006F915F914F913F912F910F900BBE0F901C
:101D60000FBE0F901F9018951F920F920FB60F92F3
:101D70000BB60F9211242F933F934F935F936F9362
:101D80007F938F939F93AF93BF93EF93FF93E091D4
:101D90001D03F0911E0380911B0390911C03099574
:101DA000FF91EF91BF91AF919F918F917F916F9133
:101DB0005F914F913F912F910F900BBE0F900FBEEF
:101DC0000F901F9018951F920F920FB60F920BB69F
:101DD0000F9211242F933F934F935F936F937F93B1
:101DE0008F939F93AF93BF93EF93FF93E09119036A
:101DF000F0911A0380911703909118030995FF91B0
:101E0000EF91BF91AF919F918F917F916F915F9172
:101E10004F913F912F910F900BBE0F900FBE0F90DF
:101E20001F9018951F920F920FB60F920BB60F923C
:101E300011242F933F934F935F936F937F938F93CF
:101E40009F93AF93BF93EF93FF93E0911503F091AE
:101E5000160380911303909114030995FF91EF915C
:101E6000BF91AF919F918F917F916F915F914F91B2
:101E70003F912F910F900BBE0F900FBE0F901F90B0
:101E800018951F920F920FB60F920BB60F92112456
:101E90002F933F934F935F936F937F938F939F9372
:101EA000AF93BF93EF93FF93E0911103F09112036F
:101EB00080910F03909110030995FF91EF91BF91CD
:101EC000AF919F918F917F916F915F914F913F91D2
:101ED0002F910F900BBE0F900FBE0F901F90189573
:101EE0001F920F920FB60F920BB60F9211242F93E1
:101EF0003F934F935F936F937F938F939F93AF9392
:101F0000BF93EF93FF93E0910D03F0910E03809147
:101F10000B0390910C030995FF91EF91BF91AF9145
:101F20009F918F917F916F915F914F913F912F91F1
:101F30000F900BBE0F900FBE0F901F9018951F9221
:101F40000F920FB60F920BB60F9211242F933F935F
:101F50004F935F936F937F938F939F93AF93BF93B1
:101F6000EF93FF93E0910903F0910A038091070337
:101F7000909108030995FF91EF91BF91AF919F91C7
:101F80008F917F916F915F914F913F912F910F9022
:101F90000BBE0F900FBE0F901F9018951F920F92BF
:101FA0000FB60F920BB60F9211242F933F934F93BE
:101FB0005F936F937F938F939F93AF93BF93EF93B1
:101FC000FF93E0910503F091060380910303909144
:101FD00004030995FF91EF91BF91AF919F918F916C
:101FE0007F916F915F914F913F912F910F900BBE19
:101FF0000F900FBE0F901F9018951F920F920FB663
:102000000F920BB60F9211242F933F934F935F9330
:102010006F937F938F939F93AF93BF93EF93FF93B0
:10202000E0910103F09102038091FF02909100037F
:102030000995FF91EF91BF91AF919F918F917F9102
:102040006F915F914F913F912F910F900BBE0F9029
:102050000FBE0F901F901895FC01A781B0858FB718
:10206000F8944D915C918FBFA185B2858FB7F8949C
:102070002D913C918FBFA385B4856FB7F8948D9156
:102080009C9111976FBF5083418332831382268BBB
:10209000978B808F118E08958F929F92AF92BF92EF
:1020A000CF92DF92EF92FF920F931F93CF93DF9324
:1020B00000D000D000D0CDB7DEB77C01FC0120817C
:1020C000213009F447C0293009F444C0022F10E040
:1020D000000F111F000F111F005E1F4FC801648108
:1020E0002E830E94812E48010894811C911CC401FA
:1020F000F70163810E94812E72E0A72EB12CA00E01
:10210000B11EC501F70162810E94812EA3E0CA2E93
:10211000D12CC00ED11EC601F70161810E94812E13
:102120002E812983C6010E94732E8A83C5010E94D5
:10213000732E8B83C4010E94732E8C83C8010E946E
:10214000732E8D831F9906C08091DC009091DD0075
:1021500084FF13C026960FB6F894DEBF0FBECDBF26
:10216000DF91CF911F910F91FF90EF90DF90CF9073
:10217000BF90AF909F908F90089580E48093ED0082
:1021800080E090E0A0E6B2E68093F0009093F1004A
:10219000A093F200B093F30089818093FA008A81C2
:1021A0008093FA008B818093FA008C818093FA00EF
:1021B0008D818093FA0085E48093EF00CBCFCB0133
:1021C0000E944C1008950F931F93CF93DF9300D07C
:1021D00000D00F92CDB7DEB71F992AC0FC018081D5
:1021E000813031F1893021F1082F10E0000F111FEB
:1021F000000F111F005E1F4F8983C80103960E94C4
:10220000732E8A83C80102960E94732E8B83C801A5
:1022100001960E94732E8C83C8010E94732E8D83B9
:102220001F9906C08091DC009091DD0084FF0AC0F8
:102230000F900F900F900F900F90DF91CF911F9103
:102240000F91089580E48093ED0080E090E0A0E697
:10225000B2E68093F0009093F100A093F200B09367
:10226000F30089818093FA008A818093FA008B8140
:102270008093FA008C818093FA008D818093FA001C
:1022800085E48093EF00D4CFCB010E94E310089542
:10229000CF93DF9300D000D00F92CDB7DEB720915F
:1022A0000B0230910C02243051F0203141F00F909C
:1022B0000F900F900F900F90DF91CF9108953530D0
:1022C00099F1363009F4CDC03D3009F480C03E307C
:1022D00009F457C0333059F7203149F780ED89832D
:1022E00099B181E094FF80E0879588278795909148
:1022F0007102892B8A838091C8008B838091C900E9
:102300008C838091CA008D831F9BD2C08091DC009A
:102310009091DD0084FDCBCF80E48093ED0080E0E0
:1023200090E0A0E8B6EC78C082E091E0FC01549126
:1023300039964491DE011196FD0111923A95E9F723
:102340000396FC0184918A83852F90E0841B910978
:10235000541B592B5D83243009F480C0203109F0CF
:10236000A6CF1F9997C08091DC009091DD0084FD7D
:102370009ECF80E48093ED0080E090E0A0E6B6EC94
:102380004BC01F9B94CF80ED898387E790E00E942C
:10239000732E8A8386E790E00E94732E8B8385E7F5
:1023A00090E00E94732E8C8384E790E00E94732E4D
:1023B0008D838091DC009091DD0084FD78CF80E4F6
:1023C0008093ED0080E090E0A0E0BAE925C01F997D
:1023D0006ECF80ED898387E790E00E94732E8A8319
:1023E00086E790E00E94732E8B8385E790E00E9441
:1023F000732E8C8384E790E00E94732E8D838091EE
:10240000DC009091DD0084FD52CF80E48093ED00EC
:1024100080E090E0A0E0B8E98093F0009093F100B4
:10242000A093F200B093F30089818093FA008A812F
:102430008093FA008B818093FA008C818093FA005C
:102440008D818093FA0085E48093EF000F900F90C8
:102450000F900F900F90DF91CF9108951F99A9CF02
:10246000CECF84E790E0609110020E94812E85E734
:1024700090E060910F020E94812E86E790E06091CB
:102480000E020E94812E87E790E060910D020E946B
:10249000812E0DCF8091DC009091DD0084FD07CF6F
:1024A00080E48093ED0080E090E0A0E8B6ECB4CF4B
:1024B0008091DC009091DD0084FDF9CE80E4809372
:1024C000ED0080E090E0A0E6B6ECA6CFCB010E9444
:1024D000481108958091A30186FF09C08F7385324A
:1024E00009F44FC0863220F4813209F48EC0089579
:1024F000873209F4CEC08932D1F72FB7F8943FB7AD
:10250000F89480918E0290918F02916090938F0247
:1025100080938E023FBF2FBFE2EBF2E006C03996F8
:1025200082E0EA3FF80709F4F8C09FB7F894808585
:10253000282F267011F4846080879FBF208522FF9A
:10254000EECF8091FB029091FC02A091FD02B09130
:10255000FE0288519C4FAF4FBF4F868397838A2FCF
:1025600081702E7F282B118210828AE591E093835F
:10257000828388E090E09583848322602B7F20878C
:1025800008952FB7F8943FB7F89480918E029091F8
:102590008F02946090938F0280938E023FBF2FBF73
:1025A000E2EBF2E006C0399682E0EA3FF80709F470
:1025B000B6C09FB7F8948085282F267011F48460E8
:1025C00080879FBF208522FFEECF8091FB029091F4
:1025D000FC02A091FD02B091FE0288519C4FAF4FCA
:1025E000BF4F868397838A2F81702E7F282B11827D
:1025F00010828AE591E0938382838AE090E095835C
:10260000848322602B7F208708952FB7F8943FB7EB
:10261000F89480918E0290918F02926090938F0235
:1026200080938E023FBF2FBFE2EBF2E006C03996E7
:1026300082E0EA3FF80709F471C09FB7F8948085FB
:10264000282F267011F4846080879FBF208522FF89
:10265000EECF8091FB029091FC02A091FD02B0911F
:10266000FE0288519C4FAF4FBF4F868397838A2FBE
:1026700081702E7F282B118210828AE591E093834E
:10268000828389E090E09583848322602B7F20877A
:1026900008952FB7F8943FB7F89480918E029091E7
:1026A0008F02986090938F0280938E023FBF2FBF5E
:1026B000E2EBF2E006C0399682E0EA3FF80709F45F
:1026C00016CF9FB7F8948085282F267011F4846068
:1026D00080879FBF208522FFEECF8091FB029091E3
:1026E000FC02A091FD02B091FE0288519C4FAF4FB9
:1026F000BF4F868397838A2F81702E7F282B11826C
:1027000010828AE591E0938382838BE090E0958349
:10271000848322602B7F208708950895089508956B
:10272000CB010E946A1208951F93CF93DF93EB01B0
:102730000E94732E182FCE010E94732E87FD15C0A4
:102740008F77412F50E09A01220F331F440F551FFE
:10275000440F551F440F551F240F351F280F311DDF
:10276000C901DF91CF911F910895412F50E09A0147
:10277000220F331F440F551F440F551F440F551F81
:10278000240F351F8F77281B3109C901DF91CF91A5
:102790001F9108958091F30185FD71C08474843484
:1027A00009F06DC040E050E060E070E04091F6015B
:1027B0005091F7018091F801682F87FD7FEF80919C
:1027C0002A01882351F010922A014093020150936C
:1027D0000301609304017093050181E08093660119
:1027E000E0912201F0E0EE0FFF1FE05FFE4F01904D
:1027F000F081E02D22853385832F881F8827881F4D
:1028000090E0220F331F822B932B8F3F9105B9F15C
:10281000B0F18091020190910301A0910401B09167
:102820000501481B590B6A0B7B0B9A0157FD2CC005
:10283000E1E0253F3E0724F510920B0121E0473EE1
:102840003FEF53073FEF63073FEF73070CF420E0C0
:10285000209306014A3151056105710584F0759593
:10286000679557954795480F591F6A1F7B1F4093DF
:1028700002015093030160930401709305010895D0
:1028800081E080930B010895309521953F4FD0CF83
:10289000CB010E94CA130895FC01828180935B02E0
:1028A000818180935C022381822F90E0807C9070F4
:1028B000959587959595879590819F74982B909382
:1028C0005D02822F8F7090915F02892B80935F024F
:1028D0008481809360023581832F90E02091930260
:1028E00020783072232BDC01AF70B070A55DBE4F35
:1028F0003C91232B807C9070009761F4209393028D
:10290000908181E095FD80E080930C0181E08093CF
:102910000D0108952068A2EBB2E005C0199682E08F
:10292000AA3FB80759F39FB7F89418968C91189757
:10293000382F367021F4846018968C9318979FBFB7
:1029400018968C91189782FFE9CF4091FB02509125
:10295000FC026091FD027091FE0248515C4F6F4F86
:102960007F4F16964C93169717965C931797962F52
:102970009170382F3E7F392B11961C921E928AE55A
:1029800091E013969C938E9312978FE090E01596AA
:102990009C938E93149732603B7F18963C931897C4
:1029A000ADCF1F990895CB010E944C1408951F9B31
:1029B0000895CB010E944C1408950F931F93CF9359
:1029C000DF9300918A0210918B02812F912F17FFC4
:1029D00003C021E020936C0296FD25C095FD23C025
:1029E000E0911001F0911101808191819093970203
:1029F00080939602E0911201F09113018081918100
:102A0000909395028093940280912701882309F482
:102A100026C1FEE00E3F1F0709F481C0DF91CF9170
:102A20001F910F91089590912701992361F01092C1
:102A3000270190916E009D7F90936E0090916F00A2
:102A40009D7F90936F0086FF3BC065E071E0FB01C6
:102A5000949131962491592F40E030E0242B352B6E
:102A600030939B0220939A02FB0132969491FB01D2
:102A700033962491592F40E030E0242B352B3093AE
:102A8000990220939802FB013496A591B4914B2FA3
:102A900050E03A2F20E0242B352B309397022093DF
:102AA00096026A5F7F4FFB0165917491272F30E09A
:102AB000562F40E0242B352B30939502209394021F
:102AC00085FFA7CFE801D070CC0FDD1FCC0FDD1F35
:102AD000CC0FDD1FCE010E947B2E90939A02809333
:102AE0009B02CE0102960E947B2E90939802E8E909
:102AF000F2E08183CE0104960E947B2E9093960291
:102B000080939702CE0106960E947B2E90939402AA
:102B100080939502FEE00E3F1F0709F07FCF809162
:102B20002701882309F0B4C08AE190E00E94442D77
:102B3000DC0123982B9A229A219A209A8CB58065E1
:102B40008CBD8CB59DB58C7F9E7F81609DBD8CBDFD
:102B500014961C92149743E052E020E63AEE7CEA89
:102B600063E5249A2C98852F8A95F1F72C9A852F66
:102B70008A95F1F72C98C9010197F1F77EBD0DB444
:102B800007FEFDCF6EBD0DB407FEFDCF1EBC0DB41C
:102B900007FEFDCF8EB51EBC0DB407FEFDCF8335FD
:102BA00009F483C04150E9F614964C9114978AE8D1
:102BB00092E016969C938E9315979C01225030407C
:102BC00018963C932E9317979C01245030401A96E8
:102BD0003C932E9319979C01265030401C963C93B1
:102BE0002E931B979C01205F3F4F1E963C932E9384
:102BF0001D979C01225F3F4F50963C932E931F9749
:102C00009C01245F3F4F52963C932E9351970A9616
:102C100054969C938E935397442309F07FC020E2EF
:102C2000822F90918B022FB7F89490939B02809300
:102C30009A022FBFE8EAF1E0E491F0E0EE0FFF1F07
:102C4000EE0FFF1FEA58FD4FB0A7A7A38AEF9CE144
:102C500092A781A7DF91CF911F910F91089581E0F5
:102C60008093270116BCA99A80916E0082608093A0
:102C70006E001092850010928400B19A80916F00CE
:102C8000826080936F0000918A0210918B02C1CE06
:102C90001092270180916E008D7F80936E0080914D
:102CA0006F008D7F80936F003FCF81E014968C93EF
:102CB00014978AE892E016969C938E9315979C0140
:102CC0002250304018963C932E9317979C01245025
:102CD00030401A963C932E9319979C012650304011
:102CE0001C963C932E931B979C01205F3F4F1E9692
:102CF0003C932E931D979C01225F3F4F50963C932F
:102D00002E931F979C01245F3F4F52963C932E9326
:102D100051970A9654969C938E93539720E080CFB8
:102D20000E94DD140895CF93DF93CDB7DEB761978E
:102D30000FB6F894DEBF0FBECDBF88EA91E0FC016C
:102D40002491E22FF0E0EE0FFF1FEE0FFF1FEA5875
:102D5000FD4F10A617A220E936E132A721A7FC01FA
:102D60003497E491F0E0EE0FFF1FEE0FFF1FEA58DB
:102D7000FD4F10A617A221ED34E032A721A7FC01D8
:102D80003597E491F0E0EE0FFF1FEE0FFF1FEA58BA
:102D9000FD4F10A617A22AE635E032A721A7079714
:102DA000FC018491E82FF0E0EE0FFF1FEE0FFF1FF4
:102DB000EA58FD4F82E691E090A787A38AE191E26D
:102DC00092A781A710921402109213028FED90E146
:102DD0009093160280931502109218021092170217
:102DE00090931A028093190210921C0210921B02F7
:102DF00090931E0280931D021092200210921F02D7
:102E000084E491E1909322028093210210922402A3
:102E10001092230288E494E1909326028093250285
:102E2000109228021092270286E692E190932A02DD
:102E30008093290210922C0210922B0281ED94E1D2
:102E400090932E0280932D021092300210922F0246
:102E500087ED94E190933202809331021092340214
:102E60001092330284E791E090933602809335020A
:102E7000109258021092570280E993E190935A02FF
:102E80008093590210923802109237028CE197E039
:102E900090933A02809339021092480210924702AE
:102EA0008EE498E090934A028093490210923C028B
:102EB00010923B0285EE94E090933E0280933D0297
:102EC00010924C0210924B0284E394E090934E02D5
:102ED00080934D021092400210923F0285EB97E0E2
:102EE00090934202809341021092500210924F023E
:102EF0008FEE98E090935202809351021092440218
:102F0000109243028AE095E0909346028093450236
:102F100010925402109253028CE594E09093560262
:102F200080935502809127018823A1F481E080934A
:102F3000270116BCA99A80916E00826080936E0072
:102F40001092850010928400B19A80916F00826087
:102F500080936F00789482E091E0FC01349139967F
:102F60002491FE01319645E0DF011D924A95E9F773
:102F70000396FC0184918A83832F90E0821B910940
:102F8000321B392B3D831F9910C18091DC00909139
:102F9000DD0084FD21C080E48093ED0080E090E0BE
:102FA000A0E0B8E98093F0009093F100A093F200C4
:102FB000B093F30089818093FA008A818093FA00AC
:102FC0008B818093FA008C818093FA008D818093AD
:102FD000FA0085E48093EF0080E395E70197F1F72D
:102FE0008091DC009091DD0084FD21C080E480931D
:102FF000ED0080E090E0A0E6B6EC8093F0009093C6
:10300000F100A093F200B093F30089818093FA005D
:103010008A818093FA008B818093FA008C8180935F
:10302000FA008D818093FA0085E48093EF001D867D
:103030001C8687EE96E0682F9F878E87198A188AEC
:1030400040E05D857F8580E0998920E137E20E943C
:1030500024021F821E8288E096E0682F9987888765
:103060001B861A8640E05F81798580E09B8528EB8E
:103070003BE00E94240283B121E030E085FD02C0E4
:1030800020E030E08091950990E0822B932B809393
:103090009509009789F083B185FD0EC0F89428E06A
:1030A00088E190E00FB6F894A895809360000FBE79
:1030B000209360000000FECF3FB7F89490919009F4
:1030C00080919109981709F469C08091900990E066
:1030D000DC01AA0FBB1FA80FB91FAA0FBB1FA05767
:1030E000BC4F8D919C9111971296ED91FC91139785
:1030F00014966C91149715967C91159720919009D0
:103100002F5F2093900920919209215020939209DA
:103110003FBF3091920920918F03231720F4209113
:10312000920920938F03309709F00995A89502EB37
:1031300012E006C0075F1F4FF2E00A3F1F0761F170
:10314000D80118968C91189781FFF4CF81709091D7
:10315000FD029170891771F716962D913C91179782
:103160008091FB029091FC022817390718F71496FA
:103170006D917C9115971296ED91FC9113978D911D
:103180009C910995F80180858D7F8087075F1F4F8F
:10319000F2E00A3F1F07A1F6A8956DCF60E070E04E
:1031A000E8E5F1E080E090E0B3CF8091DC00909121
:1031B000DD0084FD21C080E48093ED0080E090E09C
:1031C000A0E0BAE98093F0009093F100A093F200A0
:1031D000B093F30089818093FA008A818093FA008A
:1031E0008B818093FA008C818093FA008D8180938B
:1031F000FA0085E48093EF0080E395E70197F1F70B
:103200008091DC009091DD0084FD11CF80E48093FB
:10321000ED0080E090E0A0E8EFCEBF92CF92DF9289
:10322000EF92FF920F931F93CF93DF93EC01062F42
:10323000B72E488159816A817B81DB01CA018F7772
:103240009070A070B0700097A105B105F9F44150DD
:103250005040604070406A017B01A9E0F694E79419
:10326000D794C794AA95D1F77695679557954795C2
:1032700040788CE46C2D20E00E94E2018CEB94E31A
:103280000197F1F7488159816A817B81842F817090
:10329000880F880F880F6A017B01F694E794D79412
:1032A000C794806460E04C2D202F0E94E2010881C9
:1032B00019812A813B81B901A8014F5F5F4F6F4F90
:1032C0007F4F488359836A837B83DB01CA018F77F1
:1032D0009070A070B0700097A105B105E9F4680185
:1032E000790149E0F694E794D794C7944A95D1F7C9
:1032F000B901A801769567955795479540788CE474
:103300006C2D20E00E94E2018CEB94E30197F1F731
:10331000488159816A817B81842F8170880F880F51
:10332000880F8A019B01369527951795079580642C
:1033300060E0402F2B2D0E94E20188819981AA81B3
:10334000BB810196A11DB11D88839983AA83BB838C
:10335000DF91CF911F910F91FF90EF90DF90CF9071
:10336000BF900895FF920F931F93CF93DF93EC01CB
:10337000062FF72E488159816A817B81DB01CA01C2
:1033800087709070A070B0700097A105B105A9F486
:10339000DB01CA010197A109B1099F704150487F23
:1033A00082EC692F20E00E94E20188E799E601970C
:1033B000F1F7488159816A817B81477081EC60E037
:1033C000202F0E94E20188819981AA81BB818C0112
:1033D0009D010F5F1F4F2F4F3F4F088319832A8393
:1033E0003B83B901A801477050706070707041153F
:1033F00051056105710589F4692F6F70402F4150A7
:10340000487F82EC20E00E94E20188E799E601977C
:10341000F1F7088119812A813B81402F477081ECA7
:1034200060E02F2D0E94E20188819981AA81BB81F1
:103430000196A11DB11D88839983AA83BB83DF9167
:10344000CF911F910F91FF900895FF920F931F93BB
:10345000CF93DF93EC01088119812A813B81802F72
:103460008170880F880F880FB901A801E9E076956F
:10347000679557954795EA95D1F73695279517950E
:1034800007958062642F402F20E00E94E201F82E11
:10349000088119812A813B810F5F1F4F2F4F3F4FBA
:1034A000088319832A833B83802F8170880F880FBC
:1034B000880FB901A801A9E07695679557954795BA
:1034C000AA95D1F736952795179507958062642FB1
:1034D000402F20E00E94E201982F488159816A81A3
:1034E0007B814F5F5F4F6F4F7F4F488359836A8364
:1034F0007B838F2DDF91CF911F910F91FF900895C6
:10350000FF920F931F93CF93DF93EC014881698162
:10351000677080EA20E00E94E201F82E088119819C
:103520002A813B810F5F1F4F2F4F3F4F0883198325
:103530002A833B83612F677080EA402F20E00E943E
:10354000E201982F488159816A817B814F5F5F4FEB
:103550006F4F7F4F488359836A837B838F2DDF9121
:10356000CF911F910F91FF900895FF920F931F939A
:10357000CF93DF938C01DC011596ED91FC911697AA
:1035800080812181813209F4A8C0823208F067C0AD
:10359000813109F4A2C0823108F0F4C0833009F40B
:1035A00015C1843009F4D4C0882309F07BC0E80138
:1035B0008D89813209F465C1823208F021C18131DF
:1035C00009F4F5C1823109F06DC0EF81F8858FB73C
:1035D000F894208131818FBFC801632F722F0E9420
:1035E0000D19E801E985FA858FB7F89420813181BA
:1035F0008FBFC801632F722F0E940D19EB85FC85C8
:103600008FB7F894208131818FBFC801632F722F4B
:103610000E940D1988819981AA81BB814E895F8999
:10362000688D798D84179507A607B70708F0A2C1A2
:10363000AD85BE85ED81FE8182E091812FB7F89442
:1036400011969C938E932FBFD8011D96ED91FC91FE
:103650001E9715960D90BC91A02D80E01BC0813364
:1036600039F1823308F094C0833209F4AFC0833259
:1036700008F03EC082E2F801858BC8010E942C1040
:10368000D8011D96ED91FC911E9715960D90BC9159
:10369000A02D82E011969C9111972FB7F8949183F9
:1036A00080832FBFDF91CF911F910F91FF900895DD
:1036B000D80155968C9355971D96ED91FC911E97C8
:1036C00081E0922F2FB7F894918380832FBFDF91F1
:1036D000CF911F910F91FF900895E8018D8BC80144
:1036E0000E942C10ED85FE85AD81BE8181E0D2CF98
:1036F0008432C1F6E801688179818A819B810E94C8
:10370000F401F80180819181A281B3810197A1091F
:10371000B1099C01AD0169E056954795379527950C
:103720006A95D1F7B695A79597958795982F907834
:103730008CE4622F492F20E00E94E2018CEB94E39D
:103740000197F1F7D8011596ED91FC91169721811B
:10375000E801ED85FE8584E0922F2FB7F8949183E0
:1037600080832FBF24982C9AF89428E088E190E079
:103770000FB6F894A895809360000FBE2093600068
:103780000000FECF833111F1833170F482E173CFF9
:103790008333E1F0833388F482E3F801858B058479
:1037A000F685E02D82E08DCF843109F4AACFDF9138
:1037B000CF911F910F91FF900895843309F4C8CFE2
:1037C000DF91CF911F910F91FF900895E801ED8552
:1037D000FE8583E0922F2FB7F894918380832FBFCB
:1037E0008CEA60E840E020E00E94E20188E799E688
:1037F0000197F1F7ED85FE85AD81BE8180E04ACF6E
:10380000813309F487C0823309F480C0823209F021
:1038100049CFE801EF81F8858FB7F8942081318195
:103820008FBFC801632F722F0E94B219E985FA85F4
:103830008FB7F894208131818FBFC801632F722F19
:103840000E94B219EB85FC858FB7F89420813181F5
:103850008FBFC801632F722F0E94B21968817981CE
:103860008A819B812E893F89488D598D6217730704
:103870008407950708F047C0AD85BE85ED81FE81C0
:10388000DBCE0F84D889C02DC8010E94801A292F51
:10389000382F8FB7F894398328838FBFD80151967A
:1038A000CD91DC915297C8010E94801A292F382FA0
:1038B0008FB7F894398328838FBFF801C389D489DF
:1038C000C8010E94801A292F382F8FB7F8943983A6
:1038D00028838FBFD8014D915D916D917C91139795
:1038E00056968D919D910D90BC91A02D84179507B2
:1038F000A607B70708F4A8CEE801ED85FE85AD81DF
:10390000BE8181E0C7CE0E94F4019ECEED85FE858A
:1039100080E0D7CE0F84D889C02D88E568E040E0EC
:1039200020E00E94E201F82E80E560E040E020E027
:103930000E94E2012F2D382F8FB7F8943983288306
:103940008FBFD8015196CD91DC91529780E568E008
:1039500040E020E00E94E20120E0382F8FB7F89489
:10396000398328838FBFE801ED85FE85AD81BE8157
:1039700080E090CE0197A109B1099C01AD0169E0F9
:1039800056954795379527956A95D1F7B695A7959A
:1039900097958795982F90788CE4622F492F20E097
:1039A0000E94E2018CEB94E30197F1F74DCE0F8476
:1039B000D889C02DC8010E94251A292F382F8FB70A
:1039C000F894398328838FBFD8015196CD91DC912B
:1039D0005297C8010E94251A292F382F8FB7F894C3
:1039E000398328838FBFF801C389D489C8010E9415
:1039F000251A69CF0E94B51A0895AC01FC01E05662
:103A0000FF4F88519F4F28E531E0118210823383A8
:103A100022833496E817F907C1F78091D8008160B6
:103A20008093D800E2EEF0E08091E20081788A6035
:103A30008093E2008091E3008E6081838091E400B6
:103A400081788B6482838091ED008F708093ED008C
:103A500088E08093EF0085E090E0A0EEBFEF8093D8
:103A6000F4009093F500A093F600B093F7008091D6
:103A7000ED008F7080618093ED0088E08093EF000F
:103A800085E08093F4009093F500A093F600B09346
:103A9000F7008091ED008F7080628093ED0087E0E9
:103AA0008093EF0080E0B3E68093F0009093F10004
:103AB000A093F200B093F30085E0BFEF8093F40091
:103AC0009093F500A093F600B093F7008091ED007D
:103AD0008F7080638093ED0088E08093EF0080E03A
:103AE000A0ECB3E68093F0009093F100A093F20075
:103AF000B093F30085E0A0EEBFEF8093F4009093C5
:103B0000F500A093F600B093F7008091ED008F7060
:103B100080648093ED0088E08093EF0085E08093DF
:103B2000F4009093F500A093F600B093F700809115
:103B3000ED008F7080658093ED0088EC8093EF003E
:103B400080E0A0E0B9E08093F0009093F100A093B2
:103B5000F200B093F30085E0A0EEBFEF8093F40095
:103B60009093F500A093F600B093F7008091ED00DC
:103B70008F7080668093ED0088E88093EF0080E08E
:103B8000A0E0BAE08093F0009093F100A093F200DF
:103B9000B093F30085E0A0EABFEF8093F400909328
:103BA000F500A093F600B093F7008091ED008F70C0
:103BB00080678093ED0088E88093EF0080E0A0E0CC
:103BC000BBE08093F0009093F100A093F200B093DB
:103BD000F30085E0A0EABFEF8093F4009093F50036
:103BE000A093F600B093F7008091ED008F7080688D
:103BF0008093ED0088E88093EF0080E0A0E0BEE0D5
:103C00008093F0009093F100A093F200B093F30042
:103C100085E0A0EEBDEF8093F4009093F500A093B3
:103C2000F600B093F7008091ED008F70806980936B
:103C3000ED0088E88093EF0080E0A0E0B0E18093A1
:103C4000F0009093F100A093F200B093F30085E0B0
:103C5000A0E6BFEF8093F4009093F500A093F600E8
:103C6000B093F7008091ED008F70806A8093ED0033
:103C700088E88093EF0080E0A0E2B0E18093F0005C
:103C80009093F100A093F200B093F30085E0A0E6DA
:103C9000BFEF8093F4009093F500A093F600B093EB
:103CA000F7008091ED008F70806B8093ED0088ECC1
:103CB0008093EF0080E0A0EEB8E18093F000909355
:103CC000F100A093F200B093F30085E0BFEF809382
:103CD000F4009093F500A093F600B093F700809164
:103CE000ED008F70806C8093ED0088EC8093EF0086
:103CF00080E0A0E2B2E48093F0009093F100A09302
:103D0000F200B093F30085E0A0EEBFEF8093F400E3
:103D10009093F500A093F600B093F7008091ED002A
:103D20008F70806D8093ED0088E88093EF0080E0D5
:103D3000A0E4BAE48093F0009093F100A093F20025
:103D4000B093F30085E0A0EAB7ED8093F400909380
:103D5000F500A093F600B093F7008091ED008F700E
:103D6000806E8093ED0088EC8093EF0080E0A0E00F
:103D7000BDE88093F0009093F100A093F200B0931F
:103D8000F30085E0A0EEBFEF8093F4009093F50080
:103D9000A093F600B093F70080EE9FE79093DF00CA
:103DA0008093DE008091DB00806A8093DB0050937B
:103DB0004803409347038AE792E090934A03809335
:103DC00049038091D80082608093D8008091D90007
:103DD00082FFFCCF08954F925F926F927F928F92F5
:103DE0009F92AF92BF92CF92DF92EF92FF920F938A
:103DF0001F93CF93DF93CDB7DEB73C012B01FC01BE
:103E000071836083128213821482158281E086831B
:103E1000F086E782D286C18613861486158685E9E8
:103E200087BD84B580788A6084BD709250036092AB
:103E30004F038FE295E0909352038093510383EEFA
:103E400097E5909389008093880080918100887F16
:103E500084608093810080918000909181008C7FAC
:103E6000977E986090938100809380008F738093F9
:103E700080007092600360925F0387E59AE29093FE
:103E8000620380936103558B448B378B268B118F94
:103E9000008F128E138E148E158E8AE0868F178EE9
:103EA00011A210A212A213A214A215A216A217A266
:103EB00010A611A689E090E00E94732EE82ECC2473
:103EC000C394C822F3B082E290E00E94442D8C019A
:103ED000FC01B182A082B50180E090E02FE334E2E2
:103EE00043E050E00E94D02C28E630E140E050E072
:103EF0000E94032DF8012283338344835583C682B5
:103F0000178210868F2D8095881F8827881F8187AC
:103F1000138612861586148617861686118A108ACD
:103F2000138A128A148A158A178A168A118E108E9D
:103F3000128E91E0C11090E09170892F880F892B2B
:103F4000F801838F148E81E0858F3C9A3D9AF301AE
:103F5000118B008BFE2CF694F822E3B082E290E005
:103F60000E94442D8C01FC0191828082B40180E08A
:103F700090E02FE334E243E050E00E94D02C28E6AA
:103F800030E140E050E00E94032DF80122833383AA
:103F900044835583F682178210868E2D881F8827CA
:103FA000881F8187138612861586148617861686C3
:103FB000118A108A138A128A148A158A178A168A15
:103FC000118E108E128E91E0F11090E09170892F79
:103FD000880F892BF801838F148E81E0858F3C9A9E
:103FE0003D9AF301138B028BF201B09611823C9A39
:103FF0003D9ADF91CF911F910F91FF90EF90DF904D
:10400000CF90BF90AF909F908F907F906F905F9078
:104010004F9008953F924F925F926F927F928F924E
:104020009F92AF92BF92CF92DF92EF92FF920F9347
:104030001F93CF93DF93CDB7DEB72B970FB6F894CE
:10404000DEBF0FBECDBFFB01C080D180E280F38018
:10405000C701B6012CE030E040E050E00E94D02CD7
:104060006D837E838F83988786E090E00E9484042E
:10407000880F880F8150482E552466247724DC82CF
:10408000CB8281E090E09B878A872EC0682D592DD6
:104090004A2D7B2D862E952EA42EB72E2817390754
:1040A0000CF0032D302E281739070CF465C09981C8
:1040B0008A8199838A832A853B852034310508F4D7
:1040C00058C084E090E02A853B85289F7001299F95
:1040D000F00C389FF00C1124FB86EA86A70184E0DF
:1040E0004130580708F053C02A853B856901EE240A
:1040F000FF246D817E818F819885A70196010E94A2
:10410000032D89019A010150104020403040401693
:1041100051066206730610F493018201602F70E06D
:104120006F5F7F4F882777FD8095982FA7019601B5
:104130000E94D02C2CE030E040E050E00E94032DA3
:1041400069017A01C4014B815C81841B950B97FD49
:104150001AC09601EB81FC812E1B3F0B37FD0FC06F
:10416000281739070CF092CF6C2D5D2D4E2D7F2D29
:1041700091CF88E090E0A7CF9A858B859ACF309534
:1041800021953F4FEDCF909581959F4FE2CF0093C2
:10419000B300E981FA81E034F10509F448C0E13463
:1041A000F10598F129813A8141E020303407C9F1C5
:1041B00054E02030350791F1998597708091B000D7
:1041C000807B892B88608F7C8093B0008091700009
:1041D000826080937000B401C5012B960FB6F894ED
:1041E000DEBF0FBECDBFDF91CF911F910F91FF902A
:1041F000EF90DF90CF90BF90AF909F908F907F9087
:104200006F905F904F903F900895E130F10561F01D
:10421000E830F10589F682E08987CECFF7E0F987AB
:10422000CBCFE6E0E987C8CF21E02987C5CF94E06E
:104230009987C2CFAF92BF92CF92DF92EF92FF9257
:104240000F931F93CF93DF9300D000D0CDB7DEB78D
:104250005C0110917D0280917F0281FF43C012308A
:1042600008F440C08EE190E090930101809300013A
:1042700080917000826080937000F5018181181731
:10428000E1F11183E0911001F091110160817181E0
:1042900080E090E028EF36E041E050E00E94D02C32
:1042A00028EE33E040E050E00E94032D69017A01DE
:1042B000212F30E040E050E0C701B6010E94032DFD
:1042C00089019A0109831A832B833C8307391105DD
:1042D0002105310590F0C501BE016F5F7F4F0E943F
:1042E0000A200BC086E090E09093010180930001CA
:1042F000809170008D7F8093700081E0F501828352
:104300000F900F900F900F90DF91CF911F910F9111
:10431000FF90EF90DF90CF90BF90AF9008958F9275
:104320009F92AF92BF92CF92DF92EF92FF920F9344
:104330001F93CF93DF93CDB7DEB760970FB6F89496
:10434000DEBF0FBECDBF8130910509F1009761F44A
:1043500080911001909111010E94DA2D809112013B
:10436000909113010E94DA2D60960FB6F894DEBF8B
:104370000FBECDBFDF91CF911F910F91FF90EF90B6
:10438000DF90CF90BF90AF909F908F900895109244
:104390008F03E0E9F3E088E591E0118210829383D6
:1043A0008283369629E0E039F207B9F71092900936
:1043B000109291091092920910928C0310928B0323
:1043C00029E531E030938E0320938D03109288030A
:1043D0001092870330938A032093890310928403F9
:1043E00010928303309386032093850310928003F9
:1043F00010927F03309382032093810310927C03F9
:1044000010927B0330937E0320937D0310927803F8
:104410001092770330937A032093790310927403F8
:1044200010927303309376032093750310927003F8
:1044300010926F03309372032093710310926C03F8
:1044400010926B0330936E0320936D0310926803F8
:104450001092670330936A032093690310926403F8
:1044600010926303309366032093650310926003F8
:1044700010925F03309362032093610310925C03F8
:1044800010925B0330935E0320935D0310925803F8
:104490001092570330935A032093590310925403F8
:1044A00010925303309356032093550310925003F8
:1044B00010924F03309352032093510310924C03F8
:1044C00010924B0330934E0320934D0310924803F8
:1044D0001092470330934A032093490310924403F8
:1044E00010924303309346032093450310924003F8
:1044F00010923F03309342032093410310923C03F8
:1045000010923B0330933E0320933D0310923803F7
:104510001092370330933A032093390310923403F7
:1045200010923303309336032093350310923003F7
:1045300010922F03309332032093310310922C03F7
:1045400010922B0330932E0320932D0310922803F7
:104550001092270330932A032093290310922403F7
:1045600010922303309326032093250310921C03FB
:1045700010921B0330931E0320931D031092180307
:104580001092170330931A03209319031092140307
:104590001092130330931603209315031092100307
:1045A00010920F03309312032093110310920C0307
:1045B00010920B0330930E0320930D031092080307
:1045C0001092070330930A03209309031092040307
:1045D0001092030330930603209305031092000307
:1045E0001092FF02309302032093010310920900FE
:1045F0004FED5EE2509399004093980040919100F6
:10460000487F41604093910040919000509191000B
:104610004C7F577E586050939100409390004F73A9
:10462000409390004AEF52E05093200340931F03C1
:104630004DE851E050932203409321031092FB0276
:104640001092FC021092FD021092FE021092950050
:1046500010929400C19A40917100426040937100A1
:10466000E2EBF2E01182108293838283399642E07A
:10467000EA3FF407B9F71092760210927502309370
:1046800078022093770210927B0210927A021092A5
:104690007D0210927C0210927F0210927E02109294
:1046A0008102109280021092830210928202109274
:1046B0008502109284021092870210928602109254
:1046C00089021092880210928B0210928A02109234
:1046D0008D0210928C0210928F0210928E02109214
:1046E00091021092900210929302109292021092F4
:1046F00095021092940210929702109296021092D4
:1047000099021092980210929B0210929A020DE95F
:1047100012E0D80111961C921E9213963C932E9390
:1047200012970C5F1F4FB2E0013B1B0791F71092ED
:1047300073021092720210927402539A5B9A52980A
:104740005A9A549A27982F9AEAE6EE2EE2E0FE2E25
:10475000F0921003E0920F0384E496E29093120328
:1047600080931103F0920803E092070388E092E03F
:1047700090930A0380930903F0920C03E0920B03D9
:104780008BE991E090930E0380930D03E8ECF0E049
:104790008091C80082608093C8008CE08093CC0038
:1047A0008091CD00807F8093CD009091C900809151
:1047B000CA008660877882839C6C9183DD24D394C1
:1047C000D7011296DC9212978091C8008160809385
:1047D000C8005C9A8091C9008061818317961C9201
:1047E00083E791E00E94FD1C27E6A22E21E0B22E75
:1047F000C8018197909368018093670110926901C5
:1048000010926A0110926B0110926C01D0926D01AE
:104810008091900280936E0110926F01C801809781
:104820009093710180937001109272014A2DBE82A3
:10483000AD8281E996E0682F98878F831A86198662
:104840005E81788580E09A8520ED37E00E94240221
:10485000C0907001D090710182E090E06CE070E057
:104860000E9494134C0182E090E06DE070E00E94A1
:104870009413FC0180E091E066E070E0A7014D5FD9
:104880005F4F9801275130400951104076010F2E9B
:10489000FBE0CF2EDD24F02DCA0CDB1C54014F01B0
:1048A0000E94EB1E85E595E5A0E0B0E089839A8340
:1048B000AB83BC8302E611E0C801BE016F5F7F4F8E
:1048C0000E940A2010936C0300936B038FE995E01C
:1048D00090936E0380936D03402F1C870B8784E4B5
:1048E00096E0682F9E878D87188A1F865C857E8557
:1048F00080E0988928EE33E00E94240235CDCF93E2
:10490000DF93DC01C8ECD0E08091C8008871B1F081
:104910008091C9008091CE008091C8008160809311
:10492000C8005C9A8091C9008061E8ECF0E0818366
:1049300017961C921797DF91CF9108959091C90017
:10494000969591708091CE00282F22952F70E92F97
:10495000F0E0E295F295F07FFE27E07FFE27E55C30
:10496000FE4FE20FF11D30818317B1F617968C913F
:104970001797913009F094C08823B9F506C08430A8
:1049800009F01EC117961C921797922F990F990F35
:10499000990F1A968C911A978770892B1A968C9377
:1049A0001A978091C8008E7F8093C80017968C91CB
:1049B0001797823009F498C0833009F712968C91CA
:1049C0001297882309F4A8CF12968C9112978F5FC3
:1049D00012968C93129712968C911297853009F04B
:1049E0009BCF12961C92129797CF813011F71A968F
:1049F0009C911A9790681A969C931A978F5F1796B6
:104A00008C931797883009F096CF8091C800816009
:104A10008093C8005C9A8091C9008061E8ECF0E066
:104A2000818317961C9217971A96EC911A97F0E0CB
:104A3000E055FE4FE491EF77F0E018968D919C9150
:104A40001997DF01AA0FBB1FA658BD4F8C93119673
:104A50009C9311978091B10280FD6DCF8091B1023E
:104A600082608093B1027894E056FE4FE491AE2FBD
:104A7000B0E0AA0FBB1FAA0FBB1FAA58BD4F999643
:104A8000ED91FC919A9797968D919C9198970995A5
:104A90008091B1028D7F8093B102DF91CF91089513
:104AA000882309F439CF8130D9F08230E9F083309E
:104AB00009F4B0C0843009F083C019961C921E928C
:104AC00018972295207F19968C9119978F70822BB9
:104AD00019968C93199785E017968C9317972BCF7F
:104AE00082E017968C931797822F86958695817012
:104AF00091E01F9B90E0891709F00ECF922F9695B9
:104B000096959695990F990F1A968C911A97887F7A
:104B10002370892B822B1A968C931A9712968C915C
:104B20001297882309F048C0C8ECD0E08091C900F2
:104B30008F7E89835C981396EC911397F0E0EF7069
:104B4000F070E55CFE4F80818093CE0083E0179685
:104B50008C9317971A96EC911A97F0E0E055FE4F58
:104B6000E491E7FD02C084E0B7CF9091B102969541
:104B700091708091B1028E7F892B8093B102F0E019
:104B8000EF77F070EE0FFF1FE658FD4F2FB7F89448
:104B9000808191812FBF19969C938E9318971896B8
:104BA0008D919C9119978C9311969C931197F894E1
:104BB0008091C9008062898317968C9117971ECFC8
:104BC000853091F08630D1F0873009F017CF1896F4
:104BD0008C911897807F822B18968C93189788E079
:104BE00017968C93179711CF19968C911997807FF0
:104BF000822B19968C93199786E06ECF2295207F91
:104C000018968C9118978F70822B18968C93189702
:104C100087E062CF1A96EC911A97F0E0E055FE4FCC
:104C2000E491E7FFA0CF9091B102969591708091A9
:104C3000B1028E7F892B8093B102F0E0EF77F070A4
:104C4000EE0FFF1FE658FD4F2FB7F894808191813A
:104C50002FBF19969C938E9318978091C9008F7ED1
:104C600089835C9818968D919C9119978C931196D5
:104C70009C931197F8948091C9008062898317965C
:104C80008C9117978F5FBBCE0E947F240895CF929F
:104C9000DF92EF92FF920F931F93CF93DF93CDB7E5
:104CA000DEB76F970FB6F894DEBF0FBECDBFFC0125
:104CB00078946089718942895389DB011A968D91B4
:104CC0009C911B97805C9F4F01E0DA011A962D9111
:104CD0003C911B978217930708F000E0DB015C967C
:104CE0009C91917080A58E7F892B80A7DA015C96BC
:104CF0009C91917081A58E7F892B81A7DB015C96A9
:104D00008C915C978823E9F5DA015C968C915C972D
:104D10008823B9F5A02FB0E01896AA0FBB1FAE0FDD
:104D2000BF1F0D90BC91A02D1A966D917C911B9781
:104D300041E050E0002311F040E050E0DA01189625
:104D4000AA0FBB1FAE0FBF1F0D90BC91A02D1A96CE
:104D50008D919C911B979B01281B390B37FD9DC39F
:104D6000CB01969587959695879580509B4F821796
:104D7000930708F067C384A18F3709F486C38F5F58
:104D800084A380A5882319F581A5882301F52485AE
:104D9000822F90E010E031E08017910709F46FC393
:104DA000A32FB0E01896AA0FBB1FAE0FBF1F0D9028
:104DB000BC91A02D5D968C915D97882309F05AC314
:104DC00032A313A21F9B18C080919A0117C080A51F
:104DD000882309F030C380A5882309F457C080A533
:104DE000882319F081A5811102A383A18F3309F4CF
:104DF00046C024851F99E8CF80918A0190E0837096
:104E0000907031E0009709F430E0222309F444C0A7
:104E1000A089B1895D968C915D97882309F43CC087
:104E2000A289B3895D968C915D978823A9F133237C
:104E300099F585A18F5F85A3823931F480A58260C1
:104E400080A781A5826081A786A18F3048F560E4A4
:104E50008F5F86A38585882339F18F5F85878830AA
:104E600019F5F89428E088E190E00FB6F894A89539
:104E7000809360000FBE209360000000FECF80A5ED
:104E80008B7F80A781A58B7F81A7B3CF81A5882346
:104E900009F4A5CF12A2A9CF15A286A18F30B8F22E
:104EA00060E085858823C9F6A089B1895B962C913D
:104EB0005B97217030E016968C91169790E041E058
:104EC0002817390709F040E06E7F642BA289B38967
:104ED0005B962C915B97217030E016968C9116971B
:104EE00090E041E02817390709F040E0440F6D7F5A
:104EF000642B92A1A92FB0E01896AA0FBB1FAE0F8A
:104F0000BF1F0D90BC91A02D5D968C915D97817017
:104F1000880F880F6B7F682B892F8170880F880F0F
:104F2000880F677F682B90A581E0911180E08295C2
:104F3000807F6F7E682B91A581E0911180E0829542
:104F4000880F807E6F7D682B408D518D1C962D9132
:104F50003C911D97203831050CF04FC1BFEF21382F
:104F60003B070CF484C227FD9CC2922F80E0262FC1
:104F700030E0282B392B8FB7F894DA0111963C9347
:104F80002E938FBFA2A1B0E01896AA0FBB1FAE0F41
:104F9000BF1F0D90BC91A02D1A968D919C911B97CF
:104FA000292F221F2227221F30E0880F991F282B2C
:104FB000392BA689B7898FB7F89411963C932E9315
:104FC0008FBF40895189DA0118967C91E288F38875
:104FD000D7011896DC90C0908F03388F298FA2A13B
:104FE000B0E01896AA0FBB1FAE0FBF1F0D911C910A
:104FF000D8011C968D919C911D97803891050CF0DD
:10500000FAC0BFEF81389B070CF413C287FD39C289
:105010008A8FDA018C9111969C919B8F8C8FD7018E
:105020008C9111969C919D8F8E8F6F8FD8011A96BF
:105030008D919C911B979C01220F232F221F330BD4
:10504000319540A151A12417350708F0E9C1805AD4
:105050009F4F880F892F881F990B919591A380A34B
:10506000AC019E01205F3F4F88E0D9011D928A95D7
:10507000E9F764FDBEC065FDBCC082E0888BD80145
:105080005B962C915B97217030E016968C91169769
:1050900090E061E02817390709F060E0962F9795B6
:1050A000992797955170952BD8015D968C915D97B6
:1050B00021E08227880F880F892B898B4A8B838177
:1050C0008B8B82818C8B84818D8B83858295880FDD
:1050D000807E8E8B13861F9993C08091DC00909107
:1050E000DD0081FD2AC080E18093ED0080E090E04A
:1050F000A0E6B6E48093F0009093F100A093F20054
:10510000B093F300888D8093FA00898D8093FA0024
:105110008A8D8093FA008B8D8093FA008C8D80931A
:10512000FA008D8D8093FA008E8D8093FA008F8D1A
:105130008093FA0088E48093EF008091DC009091E6
:10514000DD0080FD29C01092ED0080E090E0A0E835
:10515000B8E18093F0009093F100A093F200B09337
:10516000F30088898093FA0089898093FA008A89FC
:105170008093FA008B898093FA008C898093FA00DF
:105180008D898093FA008E898093FA008F898093AD
:10519000FA0088E48093EF008091DC009091DD00BC
:1051A00084FD18C080E48093ED0080E090E0A0E8EA
:1051B000B9E98093F0009093F100A093F200B093CE
:1051C000F3007093FA00D092FA00C092FA0083E4E0
:1051D0008093EF006F960FB6F894DEBF0FBECDBF81
:1051E000DF91CF911F910F91FF90EF90DF90CF90C3
:1051F000089580E043CF8FE70BCF80E09FE7B7CEE5
:105200008091DC009091DD0081FD2AC080E18093D7
:10521000ED0080E090E0A0E8B6E48093F000909389
:10522000F100A093F200B093F300888D8093FA0010
:10523000898D8093FA008A8D8093FA008B8D8093FC
:10524000FA008C8D8093FA008D8D8093FA008E8DFC
:105250008093FA008F8D8093FA0088E48093EF00AA
:105260008091DC009091DD0080FD29C01092ED005E
:1052700080E090E0A0E8BAE18093F0009093F10024
:10528000A093F200B093F30088898093FA00898993
:105290008093FA008A898093FA008B898093FA00C0
:1052A0008C898093FA008D898093FA008E8980938F
:1052B000FA008F898093FA0088E48093EF00809150
:1052C000DC009091DD0084FD18C080E48093ED0047
:1052D00080E090E0A0EAB9E98093F0009093F100BB
:1052E000A093F200B093F3007093FA00D092FA000A
:1052F000C092FA0083E48093EF00FE01319687E0CC
:10530000DF011D928A95E9F788E690E00E94732EEE
:105310008A8380E390E00E94732E8B8384E590E083
:105320000E94732E8C838CE690E00E94732E8D83F6
:105330008DE690E00E94732E082F88E590E00E9491
:105340007B2E64E670E00E94EF2C079500270795FE
:10535000062B0E8388E390E00E94732E8F8380914A
:10536000DC009091DD0082FD1BC080E28093ED00A7
:1053700089818093FA008A818093FA008B818093DF
:10538000FA008C818093FA008D818093FA008E81DF
:105390008093FA008F818093FA0087E48093EF0076
:1053A000FE01389688E0DF011D928A95E9F789E6CB
:1053B00090E00E94732E898788E690E00E94732E09
:1053C0008A878DE490E00E94732E8B878CE490E0B6
:1053D0000E94732E8C878091DC009091DD0083FD0C
:1053E000F9CE80E38093ED0088858093FA0089856B
:1053F0008093FA008A858093FA008B858093FA0067
:105400008C858093FA008D858093FA008E85809339
:10541000FA008F858093FA0088E48093EF00DACE5B
:105420008096880F892F881F990B919591A380A34F
:1054300017CE8FEFEDCD81A5882309F0CCCC81E08C
:1054400082A3D3CC14A2A2A1B0E01896AA0FBB1FCE
:10545000AE0FBF1F0D90BC91A02D5D968C915D97F6
:10546000882309F08ECC83A18F5F83A38ACC80E050
:105470009FEF7DCD81E0832782A313A2A3CC30E0F0
:105480008FCC809580688F5FC3CDDA019896AE0F80
:10549000BF1F8C9184608C9374CC309521953F4FC5
:1054A0005FCC20952068922F9F5F80E060CD0E94A6
:1054B000472608958F929F92AF92BF92CF92DF922C
:1054C000EF92FF920F931F93CF93DF93EC01FB01B9
:1054D00080819F81981721F088858F5F88878081E0
:1054E0008F83808190E0FC013B96EE0FFF1FEC0F55
:1054F000FD1F008111810896880F991F8C0F9D1F39
:10550000FC01C080D1800894C108D108EE24FF249A
:105510006881798180E090E024EA36E840E050E05C
:105520000E94D02C24E630E040E050E00E94032DA1
:10553000C701B6010E94D02C6801EE24FF24A70108
:1055400096010E94032D49018A859B85B901681B3C
:10555000790BFDEF63317F0714F463E17DEFAE84D7
:10556000BF84C501B7FC40C09595879595958795F3
:105570008C01000F111F080F191F82E06E3E780783
:1055800014F06DEE72E0882777FD8095982F2EEC51
:1055900036E540E050E00E94D02CA70196010E9421
:1055A000252DC801820F931F9501280F391F37FD44
:1055B0001DC0022E232F000C221F330B000C221FB4
:1055C000331F3D872C879F878E879B868A86DF9136
:1055D000CF911F910F91FF90EF90DF90CF90BF90F0
:1055E000AF909F908F9008950396BECF215C3F4F60
:1055F000E0CFCF93DF93FC01EB01A881B0E01B96D5
:10560000AA0FBB1FA80FB91F1D921C92A881B0E062
:105610001896AA0FBB1FA80FB91F11961C921E92B5
:105620001386128681E0858F158614861786168666
:10563000148E8185882351F04498948D91709295B1
:10564000990F907E88B18F7D892B88B9DF91CF919A
:105650000895AF92BF92CF92DF92EF92FF920F9395
:105660001F93CF93DF930F92CDB7DEB78C01FC0170
:10567000868997890196978B868B208D318D2F5F38
:105680003F4F318F208F6370428D40954623628F4C
:10569000442309F4B2C046954983A42FB0E0FD012C
:1056A0003896EE0FFF1FE00FF11F208131812F5F31
:1056B0003F4F31832083F801EA0FFB1F84898F5FFE
:1056C000848BFD013B96EE0FFF1FE00FF11F213091
:1056D000310509F4B9C0A080B180E1E0F0E04423D5
:1056E00011F0E0E0F0E03896EE0FFF1FE00FF11F41
:1056F000808191818217930708F0A2C0F801C280CF
:10570000D380E480F580F0E0AF16F0E1BF0608F446
:1057100054C0281B390B37FDA5C081E0233031056B
:105720000CF497C0F801848FA60FB11DB595A7950D
:10573000A170838D982F96959170A91709F48EC04A
:10574000AA0F8D7F8A2BF801838F80899189978F8B
:10575000868F8289938991A380A3C801BE016F5F60
:105760007F4F0E945A2AF801158E4981A42FB0E07C
:10577000FD013896EE0FFF1FE00FF11F81E090E072
:1057800091838083FD013B96EE0FFF1FE00FF11F19
:1057900011821082442309F05EC0FC013896EE0F9E
:1057A000FF1FE00FF11F118210820B96880F991FC7
:1057B000800F911FFC0111821082F80181858823DE
:1057C00071F0A00FB11F54968C91549790E08F7098
:1057D0009070009721F4442309F448C0359AB6012B
:1057E000C7010F90DF91CF911F910F91FF90EF9024
:1057F000DF90CF90BF90AF900895198220E00DC048
:105800002F5F29832230C0F4E22FF0E03B96EE0FA9
:10581000FF1FE00FF11F80819181F8EA8E349F070E
:1058200078F3C801BE016F5F7F4F0E94F92A29817A
:105830002F5F2983223040F3CC24DD247601CFCFA3
:10584000CC24DD2476015FCF11821082AA24BB24F0
:1058500044CF80E067CF80E090E09FCF8E7F8A2B9F
:10586000838F6ECF309521953F4F57CF349AB7CF66
:10587000CF92DF92EF92FF920F931F93CF93DF931C
:10588000EC018B016370888999890E94292B6B0137
:105890007C01B80176956795769567958A899B898D
:1058A0000E94292B2AA1222311F06B017C01C11433
:1058B000D104E104F10491F18A8D9B8DAC8DBD8DF5
:1058C0008C0D9D1DAE1DBF1D8A8F9B8FAC8FBD8F14
:1058D000EC89FD89A0838A8D9B8DAC8DBD8DAC013B
:1058E000BD0124E176956795579547952A95D1F79F
:1058F0002F8D421771F0EF81F88580818F5F808353
:10590000E985FA8580818F5F80838A8D9B8DAC8D40
:10591000BD8D4F8F8A2F9E8DA91749F0DF91CF91B2
:105920001F910F91FF90EF90DF90CF900895865FC9
:105930008E8FEAA1F0E03896EE0FFF1FEC0FFD1FEF
:105940000190F081E02D838D817090E0268130E020
:105950008217930779F08E81882301F38A819B81D6
:10596000AC81BD810196A11DB11D8A839B83AC834F
:10597000BD83D4CF8A819B81AC81BD810197A10970
:10598000B1098A839B83AC83BD83C8CF81E090E05B
:105990000E948F21089580E090E00E948F21089559
:1059A000629FD001739FF001829FE00DF11D649F03
:1059B000E00DF11D929FF00D839FF00D749FF00D8F
:1059C000659FF00D9927729FB00DE11DF91F639F30
:1059D000B00DE11DF91FBD01CF0111240895AA1BCF
:1059E000BB1B51E107C0AA1FBB1FA617B70710F0CA
:1059F000A61BB70B881F991F5A95A9F780959095FC
:105A0000BC01CD010895A1E21A2EAA1BBB1BFD010A
:105A10000DC0AA1FBB1FEE1FFF1FA217B307E4078D
:105A2000F50720F0A21BB30BE40BF50B661F771FE5
:105A3000881F991F1A9469F76095709580959095C5
:105A40009B01AC01BD01CF01089597FB092E0526EE
:105A50000ED057FD04D0D7DF0AD0001C38F4509583
:105A60004095309521953F4F4F4F5F4F0895F6F782
:105A700090958095709561957F4F8F4F9F4F0895BA
:105A80000790F691E02D0994CF93DF93AC0182301B
:105A9000910510F442E050E0E0919809F0919909E5
:105AA00020E030E0A0E0B0E024C080819181841744
:105AB0009507D0F08417950771F482819381109730
:105AC00029F013969C938E9312972CC0909399096A
:105AD0008093980927C02115310519F08217930783
:105AE00018F49C01BD01EF0192818381DF01E92F50
:105AF000F82F3097D1F621153105F9F0C901841B33
:105B0000950B8430910580F48A819B816115710524
:105B100021F0FB019383828304C0909399098093C1
:105B20009809FE01329642C0FE01E80FF91F419329
:105B3000519302979983888339C0809196099091F7
