:100000000C9488000C94AE0E0C94DD0E0C940C0F26
:100010000C943B0F0C946A0F0C94990F0C94C80F1E
:100020000C94F70F0C9426100C9455100C9484101B
:100030000C94B3100C94E2100C9411110C94401118
:100040000C946F110C949E110C94CD110C94FC1116
:100050000C942B120C945A120C9489120C94B81212
:100060000C94E7120C9416130C9445130C9474130F
:100070000C94A3130C94D2130C9401140C9430140C
:100080000C945F140C948E140C94BD140C94EC140A
:080090000C941B1569356E3557
:1001000000000000007C192101010000B8DFD9FDCA
:1001100011241FBECFEFD0E1DEBFCDBF11E0A0E0C4
:10012000B1E0E4EDFEE600E00BBF02C007900D92E7
:10013000A237B107D9F719E0A2E7B1E001C01D92DB
:10014000A33EB107E1F73C9A3D9A449A459A2DE0C7
:1001500088E190E00FB6F894A895809360000FBEF8
:1001600020936000259810E0C6E9D0E000E006C0CA
:1001700022970109FE010BBF0E94F635C439D10751
:1001800080E00807A9F70E945A210C945837000113
:100190000002030000000400000000000000000056
:1001A000000000000000908F8E8D080706050000FB
:1001B000000000000000000000000000000000003F
:1001C000000000000000000000000000000000002F
:1001D000000000000000000000000000000000001F
:1001E00000000000000000000000000000008C8BF8
:1001F0008A890403000000000000000000000000E5
:1002000000000000000002000001000000000000EB
:1002100000000000000000000000000000000000DE
:1002200000000000000000000000000000000000CE
:1002300000000000000000000000000000000000BE
:1002400000000000000000000000000000000000AE
:10025000000000000000000000000000000000009E
:10026000000000000000000000000000000000008E
:10027000000000000000000000000000000000007E
:10028000000000000000000000000000000000006E
:1002900000000000000000000000000000000895C1
:1002A00008954FB7F8945FB7F8942091C202309147
:1002B000C30281E090E002C0880F991F6A95E2F7BF
:1002C00080959095822393239093C3028093C202DA
:1002D0005FBF4FBF0895FC0184858F3F11F08F5F92
:1002E000848708952FB7F8943FB7F8948091C60299
:1002F0009091C7029F779093C7028093C6023FBF39
:100300002FBF08958091B7028970893031F0109223
:10031000780181E080937D01089581E080937801E8
:1003200008958091FF01809395028091000280934F
:10033000960280910102809397028091FC01809344
:100340009B028091FD0180939C028091FE0180932D
:100350009D0208953F924F925F926F927F928F928B
:100360009F92AF92BF92CF92DF92EF92FF920F9344
:100370001F93CF93DF93CDB7DEB72A970FB6F894CC
:10038000DEBF0FBECDBF9A878987FB018081982F82
:1003900094749434D9F485FD19C08580B82CBB0CB5
:1003A000BB0804811381A985BA855F968C915F97FC
:1003B000882321F190961C93909791960C93919796
:1003C00092968C9292979396BC9293972A960FB698
:1003D000F894DEBF0FBECDBFDF91CF911F910F917B
:1003E000FF90EF90DF90CF90BF90AF909F908F9055
:1003F0007F906F905F904F903F9008955696ED914B
:10040000FC91579754968D919C9155970995292F5A
:1004100030E0C901880F991F220F331F220F331FAD
:10042000220F331F820F931F62E170E00E9492350A
:10043000362EB3E0B61708F0D7C0A62EE0E1E617D7
:1004400010F420E1A22E4A2C552466247724C12ED4
:10045000D02EE82CFB2CA985BA855A96ED91FC91FB
:100460005B9758968D919C9159970995DC01CB012A
:10047000C81AD90AEA0AFB0AC601D7FCD6C08F3FC0
:10048000910509F00CF4BAC081E0E985FA85868F00
:10049000CC0CDD1CEE1CFF1CCC0CDD1CEE1CFF1C70
:1004A000CC0CDD1CEE1CFF1CCC0CDD1CEE1CFF1C60
:1004B000C701B601A30192010E94DB3529833A836B
:1004C0004B835C83C980DA80D7FCB3C0EE24D7FCB1
:1004D000E094FE2CB2E7CB16B1E0DB06B0E0EB0611
:1004E000B0E0FB0608F088C0C701B601A70196017D
:1004F0000E9473354B015C010E9473356D837E83CE
:100500008F839887C501B40120E43CE940E050E0C6
:100510000E9473352B013C016D817E818F8198850E
:100520002CE630E040E050E00E947335DC01CB0166
:10053000481A590A6A0A7B0AC501B40124E833E063
:1005400040E050E00E9473354B015C01C701B601E9
:1005500020E935E640E050E00E947335DC01CB0134
:10056000881A990AAA0ABB0A80E09AE6A8E1B0E0D4
:10057000880E991EAA1EBB1E8D819E81AF81B885F3
:10058000880F991FAA1FBB1F881A990AAA0ABB0ABB
:10059000C301B201A50194010E94B93589819A81F4
:1005A000AB81BC81B7FD4AC0422F552747FD50950E
:1005B000232D30E0429FC001439F900D529F900D2C
:1005C000112497FD3DC0082E892F000C881F990B20
:1005D000000C881F991FA985BA855C968C935C973F
:1005E0005D961C925D97F2CE84E0482E512C612CD2
:1005F000712C94E0A92E2BCF80E0EDCF90E0829576
:100600009295907F9827807F98276A2D70E00E94AE
:10061000A63581E06F3F710509F00CF480E0A985F3
:10062000BA855E968C935E9733CF909581959F4F58
:1006300026CFD094C194D108D39448CF2195B4CF7C
:10064000CF96C1CF10920E010895FC0141815281D5
:10065000638174814F5F5F4F6F4F7F4F4183528340
:10066000638374830895FC0187818430F1F08530C1
:1006700059F18630B1F1873019F08F5F8783089583
:10068000A081B181AF70B070A45BBE4F8C9180939C
:10069000CE008091C9008F7DA8ECB0E011968C93BC
:1006A000119787818F5F878308952181822F82959B
:1006B0008F7090E0845B9E4FDC018C918093CE0024
:1006C00087818F5F87830895A181B0E0AF70B0709C
:1006D000A45BBE4F8C918093CE0087818F5F878310
:1006E0000895A081B181B295A295AF70AB27BF707C
:1006F000AB27ECCFDC01D596EC91D597F0E038969E
:10070000EE0FFF1FE80FF91F0190F081E02D8385A8
:1007100094850895FC016281738184819581089597
:100720001F9B11C0FB01908181E080937901E091D2
:100730007601F091770180818F7D808380917A01AD
:10074000890F80937A0108951F9911C0FB01908150
:1007500081E080937901E0917601F09177018081C9
:100760008F7D808380917A01890F80937A0108952B
:10077000FC018281882341F00284F385E02D808191
:100780008F3F11F08F5F808308958EBD0DB407FEFB
:10079000FDCF6EBD0DB407FEFDCF4EBD0DB407FEFF
:1007A000FDCF2EBD0DB407FEFDCF8EB50895FC0123
:1007B0005C9AA8ECB0E08091C900806111968C939E
:1007C00011978781883009F008958091C800816071
:1007D0008093C8005C9A8091C900806111968C93C7
:1007E000119717820895EF92FF920F931F93CF9363
:1007F000DF9300D000D00F92CDB7DEB77B01FB01B5
:100800000081093009F46CC0013009F475C010E0B2
:10081000000F111F000F111F005E1F4FC801F701CD
:1008200064810E943737C8010196F70163810E94F5
:100830003737C8010296F70162810E943737C80135
:100840000396F70161810E943737F7018081893073
:1008500009F446C0813009F443C0082F10E0000FAE
:10086000111F000F111F005E1F4F8983C8010396DF
:100870000E9429378A83C80102960E9429378B83F8
:10088000C80101960E9429378C83C8010E9429372C
:100890008D838091DC009091DD0084FD21C080E497
:1008A0008093ED0080E090E0A0E6B2E68093F00057
:1008B0009093F100A093F200B093F30089818093AC
:1008C000FA008A818093FA008B818093FA008C81F0
:1008D0008093FA008D818093FA0085E48093EF0085
:1008E0000F900F900F900F900F90DF91CF911F916D
:1008F0000F91FF90EF90089587E1FB0180830CE555
:1009000010E08ACFCF93DF9300D000D000D0CDB7D6
:10091000DEB749835A836B837C838D839E83E6EEA7
:10092000F2E09FB7F894808581FD38C0808582FD14
:1009300035C08085846080879FBF4FB7F8948091D1
:10094000410390914203A0914303B09144034FBFF0
:10095000A90160E070E0480F591F6A1F7B1F61709A
:10096000707046835783962F917080858E7F892B78
:100970008087CF01AE014F5F5F4F26E0DA010D9017
:10098000AD01DC010D92CD012150C1F7808582605F
:10099000808780858B7F808781E008C09FBF3996E4
:1009A000B3E0E034FB0709F0BCCF80E026960FB639
:1009B000F894DEBF0FBECDBFDF91CF910895CF93E6
:1009C000DF93AC016091ED008091EC00807F80931B
:1009D000ED008091EE008F7D8093EE00B091EF00EE
:1009E000BF702091F2002295269527703091F30078
:1009F000732F770F770F770F872F822B932F929577
:100A000096959770880F991F82959295907F982759
:100A1000807F98278B0F911D29E08530920709F47C
:100A200072C07AE08830970709F442C1EAE088345E
:100A30009E0709F441C1FBE088309F0709F44DC1CE
:100A40002BE08834920709F43BC17EE081309707A0
:100A500009F44AC1ECE081309E0709F453C1F0E18A
:100A600080309F0709F455C120E18038920709F4CE
:100A700057C170E18130970709F43DC1E0E1813849
:100A80009E0709F454C1F0E180329F0709F456C172
:100A900020E1803A920709F458C170E1813297074A
:100AA00009F45AC1E0E1813A9E0709F459C1F8E11D
:100AB000873E9F0709F45BC122E48832920709F45C
:100AC0005DC17AE48534970709F462C1E2E68530B6
:100AD0009E0709F465C1F2E685369F0709F45CC1FB
:100AE0002DE88730920709F462C178E885309707CE
:100AF00009F46BC1EAE885309E0709F462C12FEF63
:100B000030E07FEF03C020E030E070E078947F3F7A
:100B100009F4C2C0BB2381F0F901EE0FFF1FEE0FF5
:100B2000FF1FEE0FFF1FE40FF51F70E0A091FA000A
:100B3000A1937F5F7B17D0F3F2E685309F0709F41E
:100B400067C079E08530970709F4C1C0EAE48534CD
:100B50009E0709F4BFC0F2E685369F0709F4C1C0BD
:100B60007EE08130970709F4AFC0EDE887309E073B
:100B700009F4C5C0F8E885309F0709F4C7C07AE8D2
:100B80008530970709F4C9C0EAE088309E0709F468
:100B9000AFC0FBE088309F0709F4C6C078E1873E0C
:100BA000970709F4C8C0E2E488329E0709F4CAC076
:100BB000F0E180309F0709F4CCC070E180389707DE
:100BC00009F4D2C0E0E180329E0709F4D4C0F0E11C
:100BD000803A9F0709F4D9C070E18130970709F482
:100BE000D1C0E0E181389E0709F4E8C0F0E181322C
:100BF0009F0709F4E0C070E1813A970709F4D4C077
:100C0000ECE081309E0709F047C084E190E002C02B
:100C100080E090E0E901CC0FDD1FCC0FDD1FCC0F91
:100C2000DD1FC40FD51F7FB7F8942091D8092F5F1F
:100C30002093D8092091D7093091D7093F5F30938D
:100C4000D709E091D6093E1751F43091D6093F5F9C
:100C50003093D6093091D80931503093D8097FBFED
:100C600030E08E96880F991F880F991F840F951F6B
:100C7000FC0180819181A281B381F901EE0FFF1FF8
:100C8000E20FF31FEE0FFF1FEB52FC4F81839283A5
:100C9000A383B483D683C583F8948091EF008F73C8
:100CA00080688093EF006093ED00DF91CF9108950D
:100CB00021E030E071E02ACF22E030E072E026CF80
:100CC00024E030E074E022CF84E090E0A3CF81E024
:100CD00090E0A0CF82E090E09DCF23E030E073E091
:100CE00015CF83E090E096CF25E030E075E00ECFA1
:100CF00088E090E08FCF29E030E079E007CF85E011
:100D000090E088CF26E030E076E000CF86E090E00B
:100D100081CF27E030E077E0F9CE87E090E07ACF2E
:100D200028E030E078E0F2CE89E090E073CF2AE06E
:100D300030E07AE0EBCE8AE090E06CCF2BE030E060
:100D40007BE0E4CE8BE090E065CF2CE030E07CE00F
:100D5000DDCE8CE090E05ECF2DE030E07DE0D6CEC1
:100D60002EE030E07EE0D2CE8DE090E053CF2FE059
:100D700030E07FE0CBCE8EE090E04CCF20E130E061
:100D800070E1C4CE80E190E045CF8FE090E042CFAB
:100D900021E130E071E1BACE23E130E073E1B6CE7B
:100DA00022E130E072E1B2CE83E190E033CF24E182
:100DB00030E074E1ABCE82E190E02CCF81E190E0B5
:100DC00029CF26E130E076E1A1CE25E130E075E1E2
:100DD0009DCE009721F421E030E0C90108958130D3
:100DE000910521F422E030E0C90108958230910597
:100DF00019F424E030E0F1CF8330910519F428E0B4
:100E000030E0EBCF8430910519F420E130E0E5CFFC
:100E10008530910519F420E230E0DFCF863091056E
:100E200019F420E430E0D9CF21E030E0873091059B
:100E300059F480E890E0A901489F9001499F300D46
:100E4000589F300D1124C9CF8830910519F480E0E6
:100E500091E0F1CF322F2227330F8930910509F429
:100E6000BCCF8A30910519F4220F331FB6CF8B30D7
:100E7000910529F4220F331F220F331FAECF8C3080
:100E8000910539F4220F331F220F331F220F331F16
:100E9000A4CF8D30910539F422953295307F3227D9
:100EA000207F32279ACF8E30910549F4220F331FCD
:100EB00022953295307F3227207F32278ECFAC01AA
:100EC000495050408F30910551F4002436952795B4
:100ED0000794369527950794322F202D7ECFCA018F
:100EE000A5CFDC01ED91FC91119740A19FB7F8943B
:100EF0008091D8098F5F8093D8092091D70980917C
:100F0000D7098F5F8093D7093091D6098317C9F02D
:100F10009FBF30E0C901880F991F820F931F880F70
:100F2000991FFC01EA52FC4FB183A0832DED34E3FD
:100F300033832283FC01EB52FC4F45831682789465
:100F400008958091D6098F5F8093D6098091D80942
:100F500081508093D809DCCF9FB7F8948091D8094D
:100F60008F5F8093D8092091D7098091D7098F5F2F
:100F70008093D7093091D6098317C1F09FBF30E025
:100F8000C901880F991F820F931F880F991FFC01B9
:100F9000EA52FC4F118210822DE638E0338322831F
:100FA0008B529C4FFC011682158208958091D609C0
:100FB0008F5F8093D6098091D80981508093D8099A
:100FC000DDCF1F9925C02FB7F89460914103709130
:100FD000420380914303909144032FBF2AE030E005
:100FE00040E050E00E94B93590917B0120937B0155
:100FF00081E080937901E0917601F0917701808121
:101000008F7D808380917A01891B820F80937A0182
:1010100008951F9B25C02FB7F894609141037091EC
:10102000420380914303909144032FBF2AE030E0B4
:1010300040E050E00E94B93590917B0120937B0104
:1010400081E080937901E0917601F09177018081D0
:101050008F7D808380917A01891B820F80937A0132
:101060000895FC0183818823E1F4F0990DC0F09A82
:101070008EB386958695869580FD0DC0F39A838103
:1010800091E0892783830895F0988EB3869586959D
:10109000869580FFF3CFF398838191E0892783833E
:1010A00008958EB3869580FD0CC0F19A8EB3869517
:1010B000869580FD0CC0F29A838191E08927838315
:1010C0000895F1988EB38695869580FFF4CFF298B7
:1010D000838191E08927838308955FB7F8944091D5
:1010E000D909842F90E0FC01EE0FFF1FE80FF91FD4
:1010F000E157FD4F618172818091C30290E08F7052
:101100009070242F2295207F30E0822B932B9081AA
:101110009093C2028093C3027093C0026093C10295
:101120005FBF4F5F4093D909453009F00895109291
:10113000D90908950F931F93CF93DF938B01FB0180
:101140008081893009F1813021F1C82FD0E0CC0FA6
:10115000DD1FCC0FDD1FC05EDF4FCE01F8016481C3
:101160000E943737CE010196F80163810E9437371C
:10117000CE010296F80162810E943737CE010396B4
:10118000F80161810E943737DF91CF911F910F9154
:10119000089587E1FB018083CCE5D0E0DCCF0F939D
:1011A0001F93CF93DF9300D000D00F92CDB7DEB75F
:1011B000FB018081893009F446C0813009F443C0C5
:1011C000082F10E0000F111F000F111F005E1F4FAE
:1011D0008983C80103960E9429378A83C801029631
:1011E0000E9429378B83C80101960E9429378C837E
:1011F000C8010E9429378D838091DC009091DD0029
:1012000084FD21C080E48093ED0080E090E0A0E6C2
:10121000B2E68093F0009093F100A093F200B093B7
:10122000F30089818093FA008A818093FA008B8190
:101230008093FA008C818093FA008D818093FA006C
:1012400085E48093EF000F900F900F900F900F9018
:10125000DF91CF911F910F910895FC018381882325
:10126000E9F4A081B1818C91982F9F71943009F499
:101270008CC0983019F0807880618C932C911F99E4
:1012800069C08091DC009091DD0084FD08C080E49D
:101290008093ED0080E090E0A0EC68C01382A6EEA1
:1012A000B2E09FB7F89418968C91189781FD4AC0C8
:1012B00018968C91189782FD45C018968C911897B6
:1012C000846018968C9318979FBF8FB7F8944091BD
:1012D00041035091420360914303709144038FBFD7
:1012E0004053584F6F4F7F4F6170707016964C93FC
:1012F000169717965C931797962F917018968C9166
:1013000018978E7F892B18968C9318971196FC93BB
:10131000EE938DE299E013969C938E931297159617
:101320001C921E92149718968C91189782601896AA
:101330008C93189718968C9118978B7F18968C938E
:10134000189708959FBF199683E0A034B80709F055
:10135000A8CF08958091DC009091DD0084FD9FCF9F
:1013600080E48093ED0080E090E0A0EEB9E9809306
:10137000F0009093F100A093F200B093F30020935B
:10138000FA0081E48093EF008ACF881F8827881FA6
:10139000809587958827879588608C936FCFFF927B
:1013A0000F931F93CF93DF93CDB7DEB72F970FB671
:1013B000F894DEBF0FBECDBF8C01FE01319687E0F1
:1013C000DF011D928A95E9F788E690E00E942937AF
:1013D0008A8380E390E00E9429378B8384E590E044
:1013E0000E9429378C838CE690E00E9429378D83F8
:1013F0008DE690E00E942937F82E88E590E00E9463
:10140000313764E670E00E949235F794FF24F79438
:10141000F62AFE8288E390E00E9429378F8380912C
:10142000DC009091DD0082FD1BC080E28093ED0026
:1014300089818093FA008A818093FA008B8180935E
:10144000FA008C818093FA008D818093FA008E815E
:101450008093FA008F818093FA0087E48093EF00F5
:10146000FE01389688E0DF011D928A95E9F789E64A
:1014700090E00E942937898788E690E00E9429370A
:101480008A878DE490E00E9429378B878CE490E076
:101490000E9429378C878091DC009091DD0083FDCC
:1014A0001EC080E38093ED0088858093FA008985D3
:1014B0008093FA008A858093FA008B858093FA00E6
:1014C0008C858093FA008D858093FA008E858093B9
:1014D000FA008F858093FA0088E48093EF00E6EEAF
:1014E000F2E09FB7F894808581FD3AC0808582FD47
:1014F00037C08085846080879FBF2FB7F894809124
:10150000410390914203A0914303B09144032FBF44
:101510008C509E4FAF4FBF4FA170B07086839783A2
:101520009A2F917080858E7F892B8087118300830D
:101530008FEC99E093838283158214828085826088
:10154000808780858B7F80872F960FB6F894DEBFCB
:101550000FBECDBFDF91CF911F910F91FF900895E6
:101560009FBF3996B3E0E034FB0709F0BACFECCF68
:10157000DC018091B30281FF3EC012968C911297DC
:101580008823C9F112961C921297E6EEF2E09FB7FB
:10159000F894808581FD3BC0808582FD38C08085C0
:1015A000846080879FBF8FB7F8944091410350912A
:1015B000420360914303709144038FBF48515C4FD5
:1015C0006F4F7F4F6170707046835783962F917075
:1015D00080858E7F892B8087B183A08388EB9AE0FA
:1015E00093838283158214828085826080878085C0
:1015F0008B7F8087089586E090E09093010180932F
:10160000000180916F008D7F80936F00BBCF9FBFE3
:10161000399683E0E034F80709F0B9CF08951092C5
:10162000D503E6EEF2E09FB7F894808581FD2FC0E8
:10163000808582FD2CC08085846080879FBF2FB706
:10164000F8948091410390914203A0914303B0919B
:1016500044032FBF805F984DAF4FBF4FA170B07054
:10166000868397839A2F917080858E7F892B8087C0
:10167000118210828FE09BE0938382831582148213
:1016800080858260808780858B7F808708959FBF5B
:10169000399683E0E034F80731F608951F9B0895EA
:1016A000FB01908181E080937901E0917601F091D6
:1016B000770180818062808350917A01590F509325
:1016C0007A01943208F442C060917C01662309F0EB
:1016D0004CC0550F50937A01408140784066446079
:1016E00010927C01852F8459893108F060C04F77B2
:1016F00080917E01E0917601F0917701481709F41D
:101700005BC080818F7B808340937E0110927A0141
:1017100020811F993FC08091DC009091DD0084FD05
:10172000BECF80E48093ED0080E090E0A0ECB9E9CA
:101730008093F0009093F100A093F200B093F30037
:101740002093FA0081E48093EF00089580917C015A
:101750008F5FA6E7B1E016968C931697833009F059
:101760009ECF80818F7B8083089540814078406642
:1017700022E030E0261B310981E090E002C0880FB2
:10178000991F2A95E2F78F71482B633008F4A8CF90
:101790004F7BA6CF8091DC009091DD0084FD7FCF50
:1017A00080E48093ED0080E090E0A0EEC0CF5D5A31
:1017B0005A31C8F440689CCF46FFA6CF8081842769
:1017C00087FD13C080917D0110928201882329F04A
:1017D000E0918001F09181011082E0917601F09119
:1017E0007701408391CF4F7B83CF80917D01882308
:1017F00031F010927D0110928201408385CFE091FB
:101800008001F0918101809182018083DBCF1F9B59
:1018100008952FB7F894609141037091420380912D
:101820004303909144032FBF2AE030E040E050E0B2
:101830000E94B93580917B01922F981B20937B01E8
:1018400081E080937901E0917601F09177018081C8
:101850008062808350917A01590F50937A019432BB
:1018600008F442C060917C01662309F049C0550F1D
:1018700050937A01408140784066446010927C0128
:10188000852F8459893108F05DC04F7780917E01A2
:10189000E0917601F0917701481709F458C08081F2
:1018A0008F7B808340937E0110927A0120811F9963
:1018B0003CC08091DC009091DD0084FDA9CF80E4E4
:1018C0008093ED0080E090E0A0ECB9E98093F00017
:1018D0009093F100A093F200B093F3002093FA00EC
:1018E00081E48093EF00089580917C018F5F809365
:1018F0007C01833009F08CCF80818F7B80830895B9
:1019000040814078406622E030E0261B310981E0CA
:1019100090E002C0880F991F2A95E2F78F71482B3B
:10192000633008F4ABCF4F7BA9CF8091DC0090915E
:10193000DD0084FD6DCF80E48093ED0080E090E0D9
:10194000A0EEC3CF5D5A5A31C8F440689FCF46FF1E
:10195000A9CF8081842787FD13C080917D011092DB
:101960008201882329F0E0918001F09181011082A9
:10197000E0917601F0917701408394CF4F7B86CF41
:1019800080917D01882331F010927D0110928201B7
:10199000408388CFE0918001F091810180918201A4
:1019A0008083DBCF1F990895FB01908181E08093B4
:1019B0007901E0917601F0917701808180628083E6
:1019C00050917A01590F50937A01943208F442C031
:1019D00060917C01662309F04CC0550F50937A0149
:1019E000408140784066446010927C01852F845984
:1019F000893108F060C04F7780917E01E0917601D7
:101A0000F0917701481709F45BC080818F7B808358
:101A100040937E0110927A0120811F993FC08091EE
:101A2000DC009091DD0084FDBECF80E48093ED006A
:101A300080E090E0A0ECB9E98093F0009093F10091
:101A4000A093F200B093F3002093FA0081E4809316
:101A5000EF00089580917C018F5FA6E7B1E01696B4
:101A60008C931697833009F09ECF80818F7B808383
:101A7000089540814078406622E030E0261B31091D
:101A800081E090E002C0880F991F2A95E2F78F71DC
:101A9000482B633008F4A8CF4F7BA6CF8091DC00A1
:101AA0009091DD0084FD7FCF80E48093ED0080E0A5
:101AB00090E0A0EEC0CF5D5A5A31C8F440689CCF88
:101AC00046FFA6CF8081842787FD13C080917D01CA
:101AD00010928201882329F0E0918001F091810128
:101AE0001082E0917601F0917701408391CF4F7B96
:101AF00083CF80917D01882331F010927D01109277
:101B00008201408385CFE0918001F0918101809135
:101B100082018083DBCF1F9908952FB7F8946091DD
:101B200041037091420380914303909144032FBF7E
:101B30002AE030E040E050E00E94B93580917B011E
:101B4000922F981B20937B0181E080937901E09193
:101B50007601F091770180818062808350917A01D3
:101B6000590F50937A01943208F442C060917C017D
:101B7000662309F049C0550F50937A01408140789F
:101B80004066446010927C01852F8459893108F0A9
:101B90005DC04F7780917E01E0917601F0917701F1
:101BA000481709F458C080818F7B808340937E0161
:101BB00010927A0120811F993CC08091DC009091A5
:101BC000DD0084FDA9CF80E48093ED0080E090E00B
:101BD000A0ECB9E98093F0009093F100A093F2009B
:101BE000B093F3002093FA0081E48093EF0008950E
:101BF00080917C018F5F80937C01833009F08CCFD2
:101C000080818F7B8083089540814078406622E008
:101C100030E0261B310981E090E002C0880F991F57
:101C20002A95E2F78F71482B633008F4ABCF4F7BD6
:101C3000A9CF8091DC009091DD0084FD6DCF80E420
:101C40008093ED0080E090E0A0EEC3CF5D5A5A3162
:101C5000C8F440689FCF46FFA9CF8081842787FDC5
:101C600013C080917D0110928201882329F0E091B8
:101C70008001F09181011082E0917601F09177016D
:101C8000408394CF4F7B86CF80917D01882331F0B4
:101C900010927D0110928201408388CFE0918001F3
:101CA000F0918101809182018083DBCFF89428E05C
:101CB00088E190E00FB6F894A895809360000FBE7D
:101CC000209360000000FECF1F990895FB018081E2
:101CD0008230D9F781818330C1F7828182FDF5CFCF
:101CE0002FB7F8948091410390914203A091430350
:101CF000B09144032FBF89352BE1920720E0A20762
:101D000020E0B20710F3809139018823F1F20E949C
:101D1000560E1F9B0895FB0180818230D9F7818187
:101D20008330C1F7828182FDF5CF2FB7F89480917F
:101D3000410390914203A0914303B09144032FBF0C
:101D400089352BE1920720E0A20720E0B20710F3CB
:101D5000809139018823F1F20E94560E1F920F9252
:101D60000FB60F920BB60F9211242F933F934F9300
:101D70005F936F937F938F939F93AF93BF93EF93F3
:101D8000FF93E091D303F091D4038091D10390911C
:101D9000D2030995FF91EF91BF91AF919F918F91E0
:101DA0007F916F915F914F913F912F910F900BBE5B
:101DB0000F900FBE0F901F9018951F920F920FB6A5
:101DC0000F920BB60F9211242F933F934F935F9373
:101DD0006F937F938F939F93AF93BF93EF93FF93F3
:101DE000E091CF03F091D0038091CD039091CE0389
:101DF0000995FF91EF91BF91AF919F918F917F9145
:101E00006F915F914F913F912F910F900BBE0F906B
:101E10000FBE0F901F9018951F920F920FB60F9242
:101E20000BB60F9211242F933F934F935F936F93B1
:101E30007F938F939F93AF93BF93EF93FF93E09123
:101E4000CB03F091CC038091C9039091CA0309950B
:101E5000FF91EF91BF91AF919F918F917F916F9182
:101E60005F914F913F912F910F900BBE0F900FBE3E
:101E70000F901F9018951F920F920FB60F920BB6EE
:101E80000F9211242F933F934F935F936F937F9300
:101E90008F939F93AF93BF93EF93FF93E091C7030B
:101EA000F091C8038091C5039091C6030995FF91F5
:101EB000EF91BF91AF919F918F917F916F915F91C2
:101EC0004F913F912F910F900BBE0F900FBE0F902F
:101ED0001F9018951F920F920FB60F920BB60F928C
:101EE00011242F933F934F935F936F937F938F931F
:101EF0009F93AF93BF93EF93FF93E091C303F09150
:101F0000C4038091C1039091C2030995FF91EF91A1
:101F1000BF91AF919F918F917F916F915F914F9101
:101F20003F912F910F900BBE0F900FBE0F901F90FF
:101F300018951F920F920FB60F920BB60F921124A5
:101F40002F933F934F935F936F937F938F939F93C1
:101F5000AF93BF93EF93FF93E091BF03F091C00362
:101F60008091BD039091BE030995FF91EF91BF91C0
:101F7000AF919F918F917F916F915F914F913F9121
:101F80002F910F900BBE0F900FBE0F901F901895C2
:101F90001F920F920FB60F920BB60F9211242F9330
:101FA0003F934F935F936F937F938F939F93AF93E1
:101FB000BF93EF93FF93E091BB03F091BC0380913B
:101FC000B9039091BA030995FF91EF91BF91AF9139
:101FD0009F918F917F916F915F914F913F912F9141
:101FE0000F900BBE0F900FBE0F901F9018951F9271
:101FF0000F920FB60F920BB60F9211242F933F93AF
:102000004F935F936F937F938F939F93AF93BF9300
:10201000EF93FF93E091B703F091B8038091B5037C
:102020009091B6030995FF91EF91BF91AF919F9168
:102030008F917F916F915F914F913F912F910F9071
:102040000BBE0F900FBE0F901F9018951F920F920E
:102050000FB60F920BB60F9211242F933F934F930D
:102060005F936F937F938F939F93AF93BF93EF9300
:10207000FF93E091B303F091B4038091B103909189
:10208000B2030995FF91EF91BF91AF919F918F910D
:102090007F916F915F914F913F912F910F900BBE68
:1020A0000F900FBE0F901F9018951F920F920FB6B2
:1020B0000F920BB60F9211242F933F934F935F9380
:1020C0006F937F938F939F93AF93BF93EF93FF9300
:1020D000E091AF03F091B0038091AD039091AE0316
:1020E0000995FF91EF91BF91AF919F918F917F9152
:1020F0006F915F914F913F912F910F900BBE0F9079
:102100000FBE0F901F9018951F920F920FB60F924F
:102110000BB60F9211242F933F934F935F936F93BE
:102120007F938F939F93AF93BF93EF93FF93E09130
:10213000AB03F091AC038091A9039091AA03099598
:10214000FF91EF91BF91AF919F918F917F916F918F
:102150005F914F913F912F910F900BBE0F900FBE4B
:102160000F901F9018951F920F920FB60F920BB6FB
:102170000F9211242F933F934F935F936F937F930D
:102180008F939F93AF93BF93EF93FF93E091A70338
:10219000F091A8038091A5039091A6030995FF9162
:1021A000EF91BF91AF919F918F917F916F915F91CF
:1021B0004F913F912F910F900BBE0F900FBE0F903C
:1021C0001F9018951F920F920FB60F920BB60F9299
:1021D00011242F933F934F935F936F937F938F932C
:1021E0009F93AF93BF93EF93FF93E091A303F0917D
:1021F000A4038091A1039091A2030995FF91EF910F
:10220000BF91AF919F918F917F916F915F914F910E
:102210003F912F910F900BBE0F900FBE0F901F900C
:1022200018951F920F920FB60F920BB60F921124B2
:102230002F933F934F935F936F937F938F939F93CE
:10224000AF93BF93EF93FF93E0919F03F091A003AF
:1022500080919D0390919E030995FF91EF91BF910D
:10226000AF919F918F917F916F915F914F913F912E
:102270002F910F900BBE0F900FBE0F901F901895CF
:102280001F920F920FB60F920BB60F9211242F933D
:102290003F934F935F936F937F938F939F93AF93EE
:1022A000BF93EF93FF93E0919B03F0919C03809188
:1022B000990390919A030995FF91EF91BF91AF9186
:1022C0009F918F917F916F915F914F913F912F914E
:1022D0000F900BBE0F900FBE0F901F9018951F927E
:1022E0000F920FB60F920BB60F9211242F933F93BC
:1022F0004F935F936F937F938F939F93AF93BF930E
:10230000EF93FF93E0919703F091980380919503E9
:10231000909196030995FF91EF91BF91AF919F9195
:102320008F917F916F915F914F913F912F910F907E
:102330000BBE0F900FBE0F901F9018951F920F921B
:102340000FB60F920BB60F9211242F933F934F931A
:102350005F936F937F938F939F93AF93BF93EF930D
:10236000FF93E0919303F0919403809191039091F6
:1023700092030995FF91EF91BF91AF919F918F913A
:102380007F916F915F914F913F912F910F900BBE75
:102390000F900FBE0F901F9018951F920F920FB6BF
:1023A0000F920BB60F9211242F933F934F935F938D
:1023B0006F937F938F939F93AF93BF93EF93FF930D
:1023C000E0918F03F091900380918D0390918E03A3
:1023D0000995FF91EF91BF91AF919F918F917F915F
:1023E0006F915F914F913F912F910F900BBE0F9086
:1023F0000FBE0F901F9018951F920F920FB60F925D
:102400000BB60F9211242F933F934F935F936F93CB
:102410007F938F939F93AF93BF93EF93FF93E0913D
:102420008B03F0918C038091890390918A03099525
:10243000FF91EF91BF91AF919F918F917F916F919C
:102440005F914F913F912F910F900BBE0F900FBE58
:102450000F901F9018951F920F920FB60F920BB608
:102460000F9211242F933F934F935F936F937F931A
:102470008F939F93AF93BF93EF93FF93E091870365
:10248000F091880380918503909186030995FF91CF
:10249000EF91BF91AF919F918F917F916F915F91DC
:1024A0004F913F912F910F900BBE0F900FBE0F9049
:1024B0001F9018951F920F920FB60F920BB60F92A6
:1024C00011242F933F934F935F936F937F938F9339
:1024D0009F93AF93BF93EF93FF93E0918303F091AA
:1024E000840380918103909182030995FF91EF917C
:1024F000BF91AF919F918F917F916F915F914F911C
:102500003F912F910F900BBE0F900FBE0F901F9019
:1025100018951F920F920FB60F920BB60F921124BF
:102520002F933F934F935F936F937F938F939F93DB
:10253000AF93BF93EF93FF93E0917F03F0918003FC
:1025400080917D0390917E030995FF91EF91BF915A
:10255000AF919F918F917F916F915F914F913F913B
:102560002F910F900BBE0F900FBE0F901F901895DC
:102570001F920F920FB60F920BB60F9211242F934A
:102580003F934F935F936F937F938F939F93AF93FB
:10259000BF93EF93FF93E0917B03F0917C038091D5
:1025A000790390917A030995FF91EF91BF91AF91D3
:1025B0009F918F917F916F915F914F913F912F915B
:1025C0000F900BBE0F900FBE0F901F9018951F928B
:1025D0000F920FB60F920BB60F9211242F933F93C9
:1025E0004F935F936F937F938F939F93AF93BF931B
:1025F000EF93FF93E0917703F09178038091750357
:10260000909176030995FF91EF91BF91AF919F91C2
:102610008F917F916F915F914F913F912F910F908B
:102620000BBE0F900FBE0F901F9018951F920F9228
:102630000FB60F920BB60F9211242F933F934F9327
:102640005F936F937F938F939F93AF93BF93EF931A
:10265000FF93E0917303F091740380917103909163
:1026600072030995FF91EF91BF91AF919F918F9167
:102670007F916F915F914F913F912F910F900BBE82
:102680000F900FBE0F901F9018951F920F920FB6CC
:102690000F920BB60F9211242F933F934F935F939A
:1026A0006F937F938F939F93AF93BF93EF93FF931A
:1026B000E0916F03F091700380916D0390916E0330
:1026C0000995FF91EF91BF91AF919F918F917F916C
:1026D0006F915F914F913F912F910F900BBE0F9093
:1026E0000FBE0F901F9018951F920F920FB60F926A
:1026F0000BB60F9211242F933F934F935F936F93D9
:102700007F938F939F93AF93BF93EF93FF93E0914A
:102710006B03F0916C038091690390916A030995B2
:10272000FF91EF91BF91AF919F918F917F916F91A9
:102730005F914F913F912F910F900BBE0F900FBE65
:102740000F901F9018951F920F920FB60F920BB615
:102750000F9211242F933F934F935F936F937F9327
:102760008F939F93AF93BF93EF93FF93E091670392
:10277000F091680380916503909166030995FF913C
:10278000EF91BF91AF919F918F917F916F915F91E9
:102790004F913F912F910F900BBE0F900FBE0F9056
:1027A0001F9018951F920F920FB60F920BB60F92B3
:1027B00011242F933F934F935F936F937F938F9346
:1027C0009F93AF93BF93EF93FF93E0916303F091D7
:1027D000640380916103909162030995FF91EF91E9
:1027E000BF91AF919F918F917F916F915F914F9129
:1027F0003F912F910F900BBE0F900FBE0F901F9027
:1028000018951F920F920FB60F920BB60F921124CC
:102810002F933F934F935F936F937F938F939F93E8
:10282000AF93BF93EF93FF93E0915F03F091600349
:1028300080915D0390915E030995FF91EF91BF91A7
:10284000AF919F918F917F916F915F914F913F9148
:102850002F910F900BBE0F900FBE0F901F901895E9
:102860001F920F920FB60F920BB60F9211242F9357
:102870003F934F935F936F937F938F939F93AF9308
:10288000BF93EF93FF93E0915B03F0915C03809122
:10289000590390915A030995FF91EF91BF91AF9120
:1028A0009F918F917F916F915F914F913F912F9168
:1028B0000F900BBE0F900FBE0F901F9018951F9298
:1028C0000F920FB60F920BB60F9211242F933F93D6
:1028D0004F935F936F937F938F939F93AF93BF9328
:1028E000EF93FF93E0915703F091580380915503C4
:1028F000909156030995FF91EF91BF91AF919F91F0
:102900008F917F916F915F914F913F912F910F9098
:102910000BBE0F900FBE0F901F9018951F920F9235
:102920000FB60F920BB60F9211242F933F934F9334
:102930005F936F937F938F939F93AF93BF93EF9327
:10294000FF93E0915303F0915403809151039091D0
:1029500052030995FF91EF91BF91AF919F918F9194
:102960007F916F915F914F913F912F910F900BBE8F
:102970000F900FBE0F901F9018951F920F920FB6D9
:102980000F920BB60F9211242F933F934F935F93A7
:102990006F937F938F939F93AF93BF93EF93FF9327
:1029A000E0914F03F091500380914D0390914E03BD
:1029B0000995FF91EF91BF91AF919F918F917F9179
:1029C0006F915F914F913F912F910F900BBE0F90A0
:1029D0000FBE0F901F9018951F920F920FB60F9277
:1029E0000BB60F9211242F933F934F935F936F93E6
:1029F0007F938F939F93AF93BF93EF93FF93E09158
:102A00004B03F0914C038091490390914A0309953F
:102A1000FF91EF91BF91AF919F918F917F916F91B6
:102A20005F914F913F912F910F900BBE0F900FBE72
:102A30000F901F9018951F920F920FB60F920BB622
:102A40000F9211242F933F934F935F936F937F9334
:102A50008F939F93AF93BF93EF93FF93E0914703BF
:102A6000F091480380914503909146030995FF91A9
:102A7000EF91BF91AF919F918F917F916F915F91F6
:102A80004F913F912F910F900BBE0F900FBE0F9063
:102A90001F9018958F929F92AF92BF92CF92DF9224
:102AA000EF92FF920F931F93CF93DF937C01DC0192
:102AB0001596ED91FC91169780812181813209F460
:102AC00048C28232D0F0813309F46DC2823308F4F7
:102AD000A3C1833309F471C2833308F088C282E34F
:102AE000F701858B0584F685E02D82E0922F2FB7C4
:102AF000F894918380832FBFE7C1813109F429C203
:102B0000823108F0A9C1833009F457C2843009F436
:102B100012C2882309F0D8C1E7018D89813209F4F6
:102B2000C4C5823208F467C2813309F463C48233B6
:102B300009F45CC4823209F0C7C1E701EF81F8856E
:102B40002FB7F894808191812FBFD82E092F48810B
:102B500059816A817B81DB01CA0187709070A07006
:102B6000B0700097A105B105A9F4DB01CA01019776
:102B7000A109B1099F704150487F82EC692F20E084
:102B80000E94C50388E799E60197F1F748815981CA
:102B90006A817B81477081EC60E0202F0E94C50331
:102BA000E70188819981AA81BB818C019D010F5F1A
:102BB0001F4F2F4F3F4F088319832A833B83B9014F
:102BC000A801477050706070707041155105610523
:102BD000710589F4692F6F70402F4150487F82EC56
:102BE00020E00E94C50388E799E60197F1F7088184
:102BF00019812A813B81402F477081EC60E02D2DA7
:102C00000E94C503E70188819981AA81BB81019651
:102C1000A11DB11D88839983AA83BB83E985FA85A9
:102C20002FB7F894808191812FBFD82E092F48812A
:102C300059816A817B81DB01CA0187709070A07025
:102C4000B0700097A105B105A9F4DB01CA01019795
:102C5000A109B1099F704150487F82EC692F20E0A3
:102C60000E94C50388E799E60197F1F748815981E9
:102C70006A817B81477081EC60E0202F0E94C50350
:102C8000F70180819181A281B3818C019D010F5F49
:102C90001F4F2F4F3F4FE701008311832283338360
:102CA000B901A801477050706070707041155105EE
:102CB0006105710589F4692F6F70402F4150487F7D
:102CC00082EC20E00E94C50388E799E60197F1F7BE
:102CD000088119812A813B81402F477081EC60E097
:102CE0002D2D0E94C503E70188819981AA81BB81AE
:102CF0000196A11DB11D88839983AA83BB83EB85AF
:102D0000FC852FB7F894808191812FBFD82E092F91
:102D1000488159816A817B81DB01CA01877090708B
:102D2000A070B0700097A105B105A9F4DB01CA013C
:102D30000197A109B1099F704150487F82EC692F2A
:102D400020E00E94C50388E799E60197F1F74881E2
:102D500059816A817B81477081EC60E0202F0E945D
:102D6000C503F70180819181A281B3818C019D010E
:102D70000F5F1F4F2F4F3F4FE701008311832283C7
:102D80003383B901A80147705070607070704115AD
:102D900051056105710589F4692F6F70402F41500D
:102DA000487F82EC20E00E94C50388E799E60197FE
:102DB000F1F7088119812A813B81402F477081EC0E
:102DC00060E02D2D0E94C503E70188819981AA81C9
:102DD000BB818C019D010F5F1F4F2F4F3F4FF701AC
:102DE000088319832A833B834E895F89688D798D97
:102DF000041715072607370708F4E0C2692F6F701C
:102E0000402F4150487F82EC20E00E94C50388E7B4
:102E100099E60197F1F7DFC2833209F4CEC083321D
:102E200008F45FC0843209F04FC0E701488159813E
:102E30006A817B81DB01CA010197A109B1099F70F9
:102E40004150487F82EC692F20E00E94C50388E74B
:102E500099E60197F1F749C0833109F4AEC0833197
:102E600008F041C082E1F701858B0780F085E02DF5
:102E70008FB7F894408151818FBFD7011996ED919A
:102E8000FC911A978FB7F894208131818FBFE701A9
:102E9000EB85FC856FB7F894808191816FBF588373
:102EA00049833A831B822E8B9F8B888F198EED85E9
:102EB000FE85AD81BE8182E011969C9111972FB75E
:102EC000F894918380832FBFDF91CF911F910F9151
:102ED000FF90EF90DF90CF90BF90AF909F908F903A
:102EE000089582E2C0CF843179F7F70140815181A2
:102EF0006281738141505040604070408A019B0163
:102F0000A9E03695279517950795AA95D1F7769557
:102F100067955795479540788CE4602F20E00E9494
:102F2000C5038CEB94E30197F1F7D7011596ED916A
:102F3000FC9116972181E701ED85FE8584E0922FB3
:102F40002FB7F894918380832FBF24982C9A0E94E6
:102F5000560EF701858B0780F085E02D8FB7F8942A
:102F6000408151818FBFD7011996ED91FC911A973D
:102F70008FB7F894208131818FBFE701EB85FC8505
:102F80006FB7F894808191816FBF588349833A83EA
:102F90001B822E8B9F8B888F198EED85FE85AD81D0
:102FA000BE8181E089CFD70155968C9355971D96A8
:102FB000ED91FC911E9781E099CDE701ED85FE85AD
:102FC00083E0922F2FB7F894918380832FBF8CEAF0
:102FD00060E840E020E00E94C50388E799E6019799
:102FE000F1F7ED85FE85AD81BE8180E065CF84334C
:102FF00009F06ACFA0CF813109F42CC2823109F0E7
:1030000063CFEF81F8852FB7F894808191812FBF2E
:103010006C01E701088119812A813B81D901C8012E
:103020008F779070A070B0700097A105B10509F579
:1030300001501040204030404801590149E0B69409
:10304000A794979487944A95D1F7B901A8017695EA
:1030500067955795479540788CE4682D20E00E944D
:10306000C5038CEB94E30197F1F7088119812A815C
:103070003B81802F8170880F880F880F36952795A8
:1030800017950795806460E0402F2D2D0E94C503A1
:10309000D7010D911D912D913C91B901A8014F5F70
:1030A0005F4F6F4F7F4FE701488359836A837B836C
:1030B000DB01CA018F779070A070B0700097A105F6
:1030C000B105E9F448015901A9E0B694A794979491
:1030D0008794AA95D1F7B901A80176956795579578
:1030E000479540788CE4682D20E00E94C5038CEB66
:1030F00094E30197F1F7488159816A817B81842F9C
:103100008170880F880F880F8A019B01369527955B
:1031100017950795806460E0402F2C2D0E94C50311
:10312000E70188819981AA81BB810196A11DB11D0A
:1031300088839983AA83BB83E985FA852FB7F8949E
:10314000808191812FBF6C01088119812A813B8187
:10315000D901C8018F779070A070B0700097A10559
:10316000B10509F501501040204030404801590197
:1031700049E0B694A794979487944A95D1F7B901FA
:10318000A801769567955795479540788CE4682D0A
:1031900020E00E94C5038CEB94E30197F1F70881CE
:1031A00019812A813B81802F8170880F880F880FB9
:1031B0003695279517950795806460E0402F2D2D53
:1031C0000E94C503F7010081118122813381B90179
:1031D000A8014F5F5F4F6F4F7F4F408351836283E2
:1031E0007383DB01CA018F779070A070B070009775
:1031F000A105B105F1F448015901A9E0B694A794DD
:1032000097948794AA95D1F7B901A8017695679507
:103210005795479540788CE4682D20E00E94C503BF
:103220008CEB94E30197F1F7E701488159816A81BA
:103230007B81842F8170880F880F880F8A019B0102
:103240003695279517950795806460E0402F2C2DC3
:103250000E94C503F70180819181A281B38101960B
:10326000A11DB11DE70180839183A283B3830384F1
:10327000F485E02D2FB7F894808191812FBF6C01E8
:10328000088119812A813B81D901C8018F7790700B
:10329000A070B0700097A105B10509F5015010406C
:1032A000204030404801590149E0B694A7949794D2
:1032B00087944A95D1F7B901A801769567955795F6
:1032C000479540788CE4682D20E00E94C5038CEB84
:1032D00094E30197F1F7088119812A813B81802FBE
:1032E0008170880F880F880F369527951795079559
:1032F000806460E0402F2D2D0E94C503E701088106
:1033000019812A813B81B901A8014F5F5F4F6F4F3F
:103310007F4F488359836A837B83DB01CA018F77A0
:103320009070A070B0700097A105B105E9F4480154
:103330005901B9E0B694A79497948794BA95D1F7B8
:10334000B901A801769567955795479540788CE423
:10335000682D20E00E94C5038CEB94E30197F1F700
:10336000488159816A817B81842F8170880F880F01
:10337000880F8A019B0136952795179507958064DC
:1033800060E0402F2C2D0E94C503E7014881598140
:103390006A817B81DB01CA010196A11DB11DF70184
:1033A00088839983AA83BB830E891F89288D398DD1
:1033B00080179107A207B30708F000C2A585B6855C
:1033C0000580F681E02D82E091812FB7F894119667
:1033D0009C938E932FBFD7011D96ED91FC911E9764
:1033E00015960D90BC91A02D80E066CDED85FE85F3
:1033F00080E07CCB0F84D889C02D88E568E040E070
:1034000020E00E94C503082F80E560E040E020E056
:103410000E94C503202F382F8FB7F8943983288353
:103420008FBFD7015196CD91DC91529780E568E02E
:1034300040E020E00E94C50320E0382F8FB7F894C9
:10344000398328838FBFE701ED85FE85AD81BE817D
:1034500080E032CDF7010F84D889C02D0081118121
:1034600022813381802F8170880F880F880FB901E6
:10347000A801A9E07695679557954795AA95D1F744
:1034800036952795179507958062642F402F20E089
:103490000E94C503D82ED7010D911D912D913C910D
:1034A0000F5F1F4F2F4F3F4FF70100831183228380
:1034B0003383802F8170880F880F880FB901A8018E
:1034C00099E076956795579547959A95D1F73695F2
:1034D0002795179507958062642F402F20E00E9462
:1034E000C503D7014D915D916D917C9113974F5F0D
:1034F0005F4F6F4F7F4FF701408351836283738328
:10350000282F3D2D8FB7F894398328838FBF51968C
:10351000CD91DC9152970D911D912D913C91802F71
:103520008170880F880F880FB901A80199E07695FE
:103530006795579547959A95D1F73695279517959D
:1035400007958062642F402F20E00E94C503D82E8B
:10355000F70100811181228133810F5F1F4F2F4FAF
:103560003F4F0083118322833383802F8170880F24
:10357000880F880FB901A80199E07695679557954E
:1035800047959A95D1F736952795179507958062B7
:10359000642F402F20E00E94C503F7014081518134
:1035A000628173814F5F5F4F6F4F7F4F40835183C5
:1035B00062837383282F3D2D8FB7F8943983288336
:1035C0008FBFC389D4890081118122813381802FEB
:1035D0008170880F880F880FB901A80199E076954E
:1035E0006795579547959A95D1F7369527951795ED
:1035F00007958062642F402F20E00E94C503D82EDB
:10360000D7010D911D912D913C910F5F1F4F2F4FB1
:103610003F4FF7010083118322833383802F817012
:10362000880F880F880FB901A80199E076956795F2
:10363000579547959A95D1F73695279517950795FC
:103640008062642F402F20E00E94C503D7014D9176
:103650005D916D917C9113974F5F5F4F6F4F7F4FDF
:10366000F7014083518362837383282F3D2D8FB7E9
:10367000F894398328838FBF4D915D916D917C9132
:10368000139756968D919D910D90BC91A02D841706
:103690009507A607B70708F49ECEE7010584F685CF
:1036A000E02DAD81BE8181E007CCF7010F84D88980
:1036B000C02D40816181677080EA20E00E94C503CF
:1036C000D82ED7010D911D912D913C910F5F1F4F69
:1036D0002F4F3F4FF7010083118322833383612FE4
:1036E000677080EA402F20E00E94C503D7014D910A
:1036F0005D916D917C9113974F5F5F4F6F4F7F4F3F
:10370000F7014083518362837383282F3D2D8FB748
:10371000F894398328838FBF5196CD91DC915297CD
:103720004C9111966C91677080EA20E00E94C5036D
:10373000D82EF70100811181228133810F5F1F4F45
:103740002F4F3F4F0083118322833383612F677094
:1037500080EA402F20E00E94C503F701408151819B
:10376000628173814F5F5F4F6F4F7F4F4083518303
:1037700062837383282F3D2D8FB7F8943983288374
:103780008FBFC389D48940816181677080EA20E05E
:103790000E94C503D82ED7010D911D912D913C910A
:1037A00013970F5F1F4F2F4F3F4FF7010083118378
:1037B00022833383612F677080EA44CF8A019B01A3
:1037C000E9E03695279517950795EA95D1F776950F
:1037D00067955795479540788CE4602F20E00E94CC
:1037E000C5038CEB94E30197F1F7F5CD0E944A15E0
:1037F0000895CF93DF9300D000D00F92CDB7DEB7FE
:103800008091230290912402843051F0803141F064
:103810000F900F900F900F900F90DF91CF91089520
:10382000953099F1963009F4D1C09D3009F484C0E7
:103830009E3009F45BC0933059F7803149F780ED31
:10384000898399B181E094FF80E0879588278795E7
:103850009091A502892B8A838091C8008B838091E7
:10386000C9008C838091CA008D831F9BD6C0809134
:10387000DC009091DD0084FDCBCF80E48093ED00EF
:1038800080E090E0A0E8B6EC7CC022E031E0F901F5
:1038900065917491F901399645915491FE013196E3
:1038A000DF011D929A95E9F72D5F3F4FF9012491B1
:1038B0002A83252F30E0220F331F260F371F2D8339
:1038C000843009F480C0803109F0A2CF1F9997C0DD
:1038D0008091DC009091DD0084FD9ACF80E480939C
:1038E000ED0080E090E0A0E6B6EC4BC01F9B90CFCF
:1038F00080ED898387E790E00E9429378A8386E7F5
:1039000090E00E9429378B8385E790E00E94293759
:103910008C8384E790E00E9429378D838091DC00BE
:103920009091DD0084FD74CF80E48093ED0080E011
:1039300090E0A0E0BAE925C01F996ACF80ED8983A5
:1039400087E790E00E9429378A8386E790E00E940B
:1039500029378B8385E790E00E9429378C8384E7A1
:1039600090E00E9429378D838091DC009091DD00EA
:1039700084FD4ECF80E48093ED0080E090E0A0E0F5
:10398000B8E98093F0009093F100A093F200B09317
:10399000F30089818093FA008A818093FA008B81F9
:1039A0008093FA008C818093FA008D818093FA00D5
:1039B00085E48093EF000F900F900F900F900F9081
:1039C000DF91CF9108951F99A9CFCECF84E790E0E2
:1039D000609128020E94373785E790E060912702C6
:1039E0000E94373786E790E0609126020E943737C1
:1039F00087E790E0609125020E94373709CF8091D8
:103A0000DC009091DD0084FD03CF80E48093ED0025
:103A100080E090E0A0E8B6ECB4CF8091DC0090911B
:103A2000DD0084FDF5CE80E48093ED0080E090E041
:103A3000A0E6B6ECA6CFCB010E94F91B08958091B9
:103A4000B30186FF09C08F73853209F44AC08632FC
:103A500020F4813209F48CC00895873209F4C7C07C
:103A60008932D1F72FB7F8943FB7F8948091C2020A
:103A70009091C30291609093C3028093C2023FBFB2
:103A80002FBFE6EEF2E09FB7F894808581FDF5C088
:103A9000808582FDF2C08085846080879FBF2FB7BC
:103AA000F8948091410390914203A0914303B09117
:103AB00044032FBF88519C4FAF4FBF4FA170B070D0
:103AC000868397839A2F917080858E7F892B80873C
:103AD0001182108281E591E09383828388E090E0F7
:103AE0003EC02FB7F8943FB7F8948091C2029091EE
:103AF000C30294609093C3028093C2023FBF2FBF62
:103B0000E6EEF2E09FB7F894808581FDBEC0808527
:103B100082FDBBC08085846080879FBF2FB7F894EB
:103B20008091410390914203A0914303B0914403DB
:103B30002FBF88519C4FAF4FBF4FA170B07086838D
:103B400097839A2F917080858E7F892B8087118231
:103B5000108281E591E0938382838AE090E09583EF
:103B6000848380858260808780858B7F80870895AD
:103B70002FB7F8943FB7F8948091C2029091C30296
:103B800092609093C3028093C2023FBF2FBFE6EEC4
:103B9000F2E09FB7F894808581FD7FC0808582FD2B
:103BA0007CC08085846080879FBF2FB7F894809108
:103BB000410390914203A0914303B09144032FBF6E
:103BC00088519C4FAF4FBF4FA170B07086839783D1
:103BD0009A2F917080858E7F892B80871182108229
:103BE00081E591E09383828389E090E0B8CF2FB79D
:103BF000F8943FB7F8948091C2029091C302986004
:103C00009093C3028093C2023FBF2FBFE6EEF2E063
:103C10009FB7F894808581FD29C0808582FD26C0EC
:103C20008085846080879FBF2FB7F894809141037F
:103C300090914203A0914303B09144032FBF885158
:103C40009C4FAF4FBF4FA170B070868397839A2F60
:103C5000917080858E7F892B80871182108281E50B
:103C600091E0938382838BE090E079CF9FBF399678
:103C700083E0E034F80761F608959FBF399683E04A
:103C8000E034F80709F0FFCE08959FBF399683E02E
:103C9000E034F80709F036CF08959FBF399683E0E6
:103CA000E034F80709F075CF0895CB010E941F1D7D
:103CB00008951F93CF93DF93EB010E942937182FAC
:103CC000CE010E94293787FD15C08F77412F50E024
:103CD0009A01220F331F440F551F440F551F440FE5
:103CE000551F240F351F280F311DC901DF91CF91BA
:103CF0001F910895412F50E09A01220F331F440F66
:103D0000551F440F551F440F551F240F351F8F7724
:103D1000281B3109C901DF91CF911F9108950F939D
:103D20001F93FC01828180938F0281818093900296
:103D30002381822F90E0807C907095958795959552
:103D4000879590819F74982B90939102822F8F700A
:103D500090919302892B80939302848180939402A3
:103D60003581832F90E02091C70220783072232B79
:103D7000DC01AF70B070A45CBE4F3C91232B807C03
:103D80009070009709F08AC02093C702808185FF58
:103D900063C010922401A0911001B09111011A96F4
:103DA0001C92A0911201B09113011A961C921092CC
:103DB00038012FB7F8948091410390914203A0916C
:103DC0004303B09144032FBF4091DA095091DB09BE
:103DD0006091DC097091DD098C019D01041B150BBC
:103DE000260B370BB901A801413A1FE0510710E03B
:103DF000610710E0710708F0ADC08093DA09909375
:103E0000DB09A093DC09B093DD09868181FD42C006
:103E10002FB7F8948091410390914203A0914303FE
:103E2000B09144032FBF89352BE1920720E0A20710
:103E300020E0B20770F080913901882351F0809121
:103E40003A01882309F486C080913B01882309F454
:103E500081C01F910F91089581E080932401A0916A
:103E60001001B09111011A968C93A0911201B0919A
:103E700013011A968C931092380180912B01909126
:103E80002C01A0912D01B0912E01B0933201A0938D
:103E900031018FCF878186FDDCCFBACF2068A6EEB7
:103EA000B2E09FB7F89418968C91189781FD4AC09C
:103EB00018968C91189782FD45C018968C9118978A
:103EC000846018968C9318979FBF8FB7F894409191
:103ED00041035091420360914303709144038FBFAB
:103EE00048515C4F6F4F7F4F6170707016964C93C6
:103EF000169717965C931797962F917018968C913A
:103F000018978E7F892B18968C93189711961C9270
:103F10001E9282E791E013969C938E9312971596CA
:103F20001C921E92149718968C911897826018967E
:103F30008C93189718968C9118978B7F18968C9362
:103F4000189722CF9FBF199633E0A034B30709F02A
:103F5000A8CF1ACF0E94560E1F990895CB010E9438
:103F60008F1E08951F9B0895CB010E948F1E0895F8
:103F70000F931F93CF93DF930091BE021091BF0266
:103F8000812F912F17FF03C021E02093A00296FDFF
:103F900025C095FD23C0E0911001F09111018081B1
:103FA00091819093CB028093CA02E0911201F0912B
:103FB0001301808191819093C9028093C8028091FE
:103FC0003901882309F421C1FEE00E3F1F0709F4DF
:103FD0007CC0DF91CF911F910F910895909139018D
:103FE000992339F01092390190916E009D7F909342
:103FF0006E0086FF3BC065E071E0FB019491319655
:104000002491592F40E030E0242B352B3093CF0200
:104010002093CE02FB0132969491FB0133962491BA
:10402000592F40E030E0242B352B3093CD022093E4
:10403000CC02FB013496A591B4914B2F50E03A2F5E
:1040400020E0242B352B3093CB022093CA026A5FE9
:104050007F4FFB0165917491272F30E0562F40E090
:10406000242B352B3093C9022093C80285FFACCF97
:10407000E801D070CC0FDD1FCC0FDD1FCC0FDD1F92
:10408000CE010E9431379093CE028093CF02CE01B1
:1040900002960E9431379093CC02ECECF2E08183DF
:1040A000CE0104960E9431379093CA028093CB02CE
:1040B000CE0106960E9431379093C8028093C902C0
:1040C000FEE00E3F1F0709F084CF8091390188235D
:1040D00009F0AAC08AE190E00E94FA35DC01239839
:1040E0002B9A229A219A209A8CB580658CBD8CB52A
:1040F0009DB58C7F9E7F81609DBD8CBD14961C926A
:10410000149743E052E020E63AEE7CEA63E5249A15
:104110002C98852F8A95F1F72C9A852F8A95F1F79F
:104120002C98C9010197F1F77EBD0DB407FEFDCFB4
:104130006EBD0DB407FEFDCF1EBC0DB407FEFDCF56
:104140008EB51EBC0DB407FEFDCF833509F474C0D7
:104150004150E9F614964C9114978EEB92E0169626
:104160009C938E9315979C012250304018963C9357
:104170002E9317979C01245030401A963C932E930F
:1041800019979C01265030401C963C932E931B9708
:104190009C01205F3F4F1E963C932E931D979C01E0
:1041A000225F3F4F50963C932E931F979C01245FB4
:1041B0003F4F52963C932E9351970A9654969C9358
:1041C0008E935397442309F070C020E2822F909180
:1041D000BF022FB7F8949093CF028093CE022FBFE7
:1041E000E6E9F1E0E491F0E0EE0FFF1FEE0FFF1FB4
:1041F000E655FD4FB0A7A7A386EF9BE192A781A745
:10420000DF91CF911F910F91089581E08093390143
:1042100016BCA99A80916E00826080936E00009116
:10422000BE021091BF02D0CE1092390180916E0073
:104230008D7F80936E004ECF81E014968C931497FF
:104240008EEB92E016969C938E9315979C012250CC
:10425000304018963C932E9317979C012450304081
:104260001A963C932E9319979C01265030401C9629
:104270003C932E931B979C01205F3F4F1E963C93CF
:104280002E931D979C01225F3F4F50963C932E9397
:104290001F979C01245F3F4F52963C932E9351975A
:1042A0000A9654969C938E93539720E08FCF0E944A
:1042B000B81F0895CF93DF93CDB7DEB76B970FB6D6
:1042C000F894DEBF0FBECDBF86E991E0FC012491DA
:1042D000E22FF0E0EE0FFF1FEE0FFF1FE655FD4F40
:1042E00010A617A227E531E232A721A7FC013497D7
:1042F000E491F0E0EE0FFF1FEE0FFF1FE655FD4FBC
:1043000010A617A222E831E032A721A7FC013597B9
:10431000E491F0E0EE0FFF1FEE0FFF1FE655FD4F9B
:1043200010A617A22CEA37E032A721A70797FC01B5
:104330008491E82FF0E0EE0FFF1FEE0FFF1FE65510
:10434000FD4F82E791E090A787A38EEF98E292A7B6
:1043500081A78E010B5F1F4F1F9B12C2109250024C
:1043600010924F028BE19DE1909352028093510293
:1043700010925C0210925B028CEA9FE190935E02C5
:1043800080935D021092600210925F0282EB9FE1C7
:104390009093620280936102109254021092530231
:1043A00084E69EE090935602809355021092580244
:1043B0001092570289E89EE090935A028093590226
:1043C000109264021092630281E991E09093660278
:1043D0008093650210928C0210928B0285E59EE11B
:1043E00090938E0280938D0280E091E0909368021A
:1043F000809367028AEA91E090936A02809369024F
:1044000010926C0210926B028BE89DE090936E020A
:1044100080936D0210927C0210927B0282ED9CE0F0
:1044200090937E0280937D021092700210926F0230
:1044300081EE97E090937202809371021092800255
:1044400010927F0284EA93E090938202809381022B
:10445000109274021092730287E09CE090937602AF
:104460008093750210928402109283028EE49BE086
:1044700090938602809385021092780210927702C0
:1044800089E098E090937A028093790210928802F2
:104490001092870280E993E090938A0280938902C8
:1044A00080913901882351F481E08093390116BC51
:1044B000A99A80916E00826080936E00789482E069
:1044C00091E0FC0125913491FC013996459154917C
:1044D00045E0D8011D924A95E9F70396FC018491C5
:1044E0008E83852F90E0880F991F820F931F8987F5
:1044F0001F9938C08091DC009091DD0084FD21C0BF
:1045000080E48093ED0080E090E0A0E0B8E9809343
:10451000F0009093F100A093F200B093F3008D812E
:104520008093FA008E818093FA008F818093FA0045
:1045300088858093FA0089858093FA0085E48093CA
:10454000EF0080E395E70197F1F78091DC0090910F
:10455000DD0084FD59C080E48093ED0080E090E0B0
:10456000A0E637C08091DC009091DD0084FD21C081
:1045700080E48093ED0080E090E0A0E0BAE98093D1
:10458000F0009093F100A093F200B093F3008D81BE
:104590008093FA008E818093FA008F818093FA00D5
:1045A00088858093FA0089858093FA0085E480935A
:1045B000EF0080E395E70197F1F78091DC0090919F
:1045C000DD0084FD21C080E48093ED0080E090E078
:1045D000A0E8B6EC8093F0009093F100A093F20075
:1045E000B093F3008D818093FA008E818093FA005E
:1045F0008F818093FA0088858093FA008985809363
:10460000FA0085E48093EF001F8A1E8A8FE09BE00A
:10461000682F998F888F1B8E1A8E40E05F89798D65
:1046200080E09B8D20E137E20E948204198A188A7B
:1046300082E293E0682F9B8B8A8B1D8A1C8A40E064
:1046400059897B8980E09D8928E53BE10E948204AD
:1046500083B121E030E085FD02C020E030E08091B0
:10466000DE0990E0822B932B8093DE09009729F0DE
:1046700083B185FD02C00E94560E3FB7F894909119
:10468000D6098091D709981709F473C08091D6098B
:1046900090E0DC01AA0FBB1FA80FB91FAA0FBB1F18
:1046A000AA52BC4F8D919C9111971296ED91FC915D
:1046B000139714966C91149715967C9115972091E9
:1046C000D6092F5F2093D6092091D8092150209335
:1046D000D8093FBF3091D8092091D503231720F482
:1046E0002091D8092093D503309709F00995A89512
:1046F00006EE12E006C0075F1F4FF3E000341F070D
:10470000B1F1D80118968C91189781FFF4CF2FB78B
:10471000F8948091410390914203A0914303B0919A
:1047200044032FBF89839A83AB83BC83F8019085B0
:1047300091708B8181709817F1F62681378189817C
:104740009A8128173907B8F6648175810280F38150
:10475000E02DD8018D919C910995F80180858D7F80
:104760008087075F1F4FF3E000341F0751F6A895BD
:104770006FCF60E070E0EFE4F1E080E090E0A9CF7F
:10478000402F1B870A878FEC99E0682F9D878C87C5
:104790001F861E865B857D8580E09F8524EF31E046
:1047A0000E94820410933C0200933B0283EF93E04B
:1047B00090933E0280933D021093400200933F028B
:1047C000909342028093410210934402009343026B
:1047D000909346028093450210934802009347024B
:1047E0008AE998E090934A028093490210934C0220
:1047F00000934B028FEC98E090934E0280934D0211
:10480000ADCDAC01FC01E854FF4F845F9E4F2FE417
:1048100031E011821082338322833496E817F9073E
:10482000C1F78091D80081608093D800E2EEF0E07B
:104830008091E20081788A608093E2008091E300B9
:104840008E6081838091E40081788B648283809183
:10485000ED008F708093ED0088E08093EF0085E09D
:1048600090E0A0EEBFEF8093F4009093F500A0934A
:10487000F600B093F7008091ED008F708061809317
:10488000ED0088E08093EF0085E08093F400909342
:10489000F500A093F600B093F7008091ED008F70C3
:1048A00080628093ED0087E08093EF0080E0B3E6C4
:1048B0008093F0009093F100A093F200B093F30086
:1048C00085E0BFEF8093F4009093F500A093F6008D
:1048D000B093F7008091ED008F7080638093ED00BE
:1048E00088E08093EF0080E0A0ECB3E68093F000D6
:1048F0009093F100A093F200B093F30085E0A0EE56
:10490000BFEF8093F4009093F500A093F600B0936E
:10491000F7008091ED008F7080648093ED0088E057
:104920008093EF0085E08093F4009093F500A093CE
:10493000F600B093F7008091ED008F708065809352
:10494000ED0088EC8093EF0080E0A0E0B9E0809378
:10495000F0009093F100A093F200B093F30085E093
:10496000A0EEBFEF8093F4009093F500A093F600C3
:10497000B093F7008091ED008F7080668093ED001A
:1049800088E88093EF0080E0A0E0BAE08093F00038
:104990009093F100A093F200B093F30085E0A0EAB9
:1049A000BFEF8093F4009093F500A093F600B093CE
:1049B000F7008091ED008F7080678093ED0088E8AC
:1049C0008093EF0080E0A0E0BBE08093F000909344
:1049D000F100A093F200B093F30085E0A0EABFEFEE
:1049E0008093F4009093F500A093F600B093F70045
:1049F0008091ED008F7080688093ED0088E880934F
:104A0000EF0080E0A0E0BEE08093F0009093F10022
:104A1000A093F200B093F30085E0A0EEBDEF809389
:104A2000F4009093F500A093F600B093F700809106
:104A3000ED008F7080698093ED0088E88093EF002F
:104A400080E0A0E0B0E18093F0009093F100A093AB
:104A5000F200B093F30085E0A0E6BFEF8093F4008E
:104A60009093F500A093F600B093F7008091ED00CD
:104A70008F70806A8093ED0088E88093EF0080E07B
:104A8000A0E2B0E18093F0009093F100A093F200D7
:104A9000B093F30085E0A0E6BFEF8093F40090931D
:104AA000F500A093F600B093F7008091ED008F70B1
:104AB000806B8093ED0088EC8093EF0080E0A0EEA7
:104AC000B8E18093F0009093F100A093F200B093CE
:104AD000F30085E0BFEF8093F4009093F500A0937E
:104AE000F600B093F7008091ED008F70806C80939A
:104AF000ED0088EC8093EF0080E0A0E2B2E48093C8
:104B0000F0009093F100A093F200B093F30085E0E1
:104B1000A0EEBFEF8093F4009093F500A093F60011
:104B2000B093F7008091ED008F70806D8093ED0061
:104B300088E88093EF0080E0A0E4BAE48093F0007E
:104B40009093F100A093F200B093F30085E0A0E809
:104B5000B7ED8093F4009093F500A093F600B09326
:104B6000F7008091ED008F70806E8093ED0088E8F3
:104B70008093EF0080E0A0E0BDE88093F000909388
:104B8000F100A093F200B093F30085E0A0EEB8EF3F
:104B90008093F4009093F500A093F600B093F70093
:104BA00080EE9FE79093DF008093DE008091DB0032
:104BB000806A8093DB0050938E0340938D038FEDCA
:104BC00094E09093900380938F038091D80082604B
:104BD0008093D8008091D90082FFFCCF08952F9256
:104BE0003F924F925F926F927F928F929F92AF927D
:104BF000BF92CF92DF92EF92FF920F931F93CF93CA
:104C0000DF9300D0CDB7DEB73C011B01B9011A8399
:104C100009834F88588CDC0111963C922E92FC013E
:104C200012821382148215821696CD92DD92ED9235
:104C3000FC92199782869386A486B58621E0268702
:104C400085E987BD84B580788A6084BD70929603BB
:104C50006092950381E797E0909398038093970380
:104C6000758A648A8AE793E0978B868B718E608E53
:104C70008AE893E0938F828F148E82E0858F168E60
:104C8000278F90961D921D921D921C929397949639
:104C90001C92949796965C934E93959798967C93D6
:104CA0006E939797E981FA819A96FC93EE93999780
:104CB0009B961D921D921D921C929E978AE09F9634
:104CC0008C939F97D0961C92D097D4961C921E924C
:104CD000D397D5961C92D597D6961C92D697D796F1
:104CE0001C92D797D8961C92D897D9961C92D99790
:104CF000DA961C92DA97DB961C9289E090E00E948B
:104D00002937F82E882483948822C3B083E290E068
:104D10000E94FA358C01FC0151824082B20180E090
:104D200090E02FE334E243E050E00E94733528E640
:104D300030E140E050E00E94B935D80112962D9341
:104D40003D934D935C93159716968C9216971796F4
:104D50001C92179718961C9218978C2D8095881F77
:104D60008827881F19968C9319971A961C921A9760
:104D70001C961C921E921B971E961C921E921D97AB
:104D800050961C921E921F9752961C921E925197FB
:104D900054961C921E92539755961C925597569670
:104DA0001C92569758961C921E9257975A961C9290
:104DB0001E9259975B961C925B9791E0811090E050
:104DC0009170892F880F892BF801848F158E81E0CF
:104DD000868F3C9A3D9AD30151961C930E9350971F
:104DE0008F2C86948822F3B083E290E00E94FA35FB
:104DF0008C01298D3A8DFC0131832083B90180E03B
:104E000090E02FE334E243E050E00E94733528E65F
:104E100030E140E050E00E94B935D80112962D9360
:104E20003D934D935C93159716968C921697179613
:104E30001C92179718961C9218978F2D881F8827F9
:104E4000881F19968C9319971A961C921A971C967C
:104E50001C921E921B971E961C921E921D97509696
:104E60001C921E921F9752961C921E925197549616
:104E70001C921E92539755961C92559756961C92CB
:104E8000569758961C921E9257975A961C921E92AD
:104E900059975B961C925B9791E0811090E091701E
:104EA000892F880F892BF801848F158E81E0868FDA
:104EB0003C9A3D9AD30153961C930E935297F1015D
:104EC000B09611823C9A3D9A2FB7F89484E790E00F
:104ED000E981FA81918380832FBF9796ED91FC91B0
:104EE00098978FB7F894118210828FBFE6EEF2E0A8
:104EF0009FB7F894808581FD43C0808582FD40C0C6
:104F00008085846080879FBF2FB7F894809141038C
:104F100090914203A0914303B09144032FBF8C5062
:104F20009E4FAF4FBF4FA170B070868397839A2F6B
:104F3000917080858E7F892B80877182608285E069
:104F400093E39383828315821482808582608087B5
:104F500080858B7F80870F900F90DF91CF911F917D
:104F60000F91FF90EF90DF90CF90BF90AF909F9008
:104F70008F907F906F905F904F903F902F9008950B
:104F80009FBF3996B3E0E034FB0709F0B1CFE3CF20
:104F90002F923F924F925F926F927F928F929F9249
:104FA000AF92BF92CF92DF92EF92FF920F931F9337
:104FB000CF93DF93CDB7DEB72B970FB6F894DEBF54
:104FC0000FBECDBFFB01C080D180E280F380C7015E
:104FD000B6012CE030E040E050E00E9473356D8374
:104FE0007E838F8398878EE090E00E94E906880F89
:104FF000991F880F991F01972C01662477241601A9
:1050000081E090E09B878A8731C0682D592D4A2D19
:105010007B2D862E952EA42EB72E281739070CF43B
:105020006AC04B815C814B835C83281739070CF481
:1050300069C099818A8199838A834A855B854034D6
:10504000510508F469C084E090E02A853B85289FDB
:105050007001299FF00C389FF00C1124FB86EA8622
:10506000A70184E04130580708F061C02A853B85DC
:105070006901EE24FF246D817E818F819885A701CF
:1050800096010E94B93589019A01015010402040D3
:105090003040401651066206730610F493018201F7
:1050A000B8016F5F7F4F80E090E0A70196010E94FA
:1050B00073352CE030E040E050E00E94B9356901E2
:1050C0007A01C4018219930997FD2DC09601221916
:1050D000330937FD24C0281739070CF096CF6C2D03
:1050E0005D2D4E2D7F2D862E952EA42EB72E2817A2
:1050F00039070CF096CFA8014B835C83281739073A
:105100000CF097CF9A858B8599838A834A855B8536
:105110004034510508F097CF88E090E096CF309565
:1051200021953F4FD8CF909581959F4FCFCFEB8062
:10513000FC80F0928900E092880029813A81203435
:10514000310509F458C02134310508F442C04981C1
:105150005A8181E04030580709F447C094E040305C
:10516000590709F43FC09985977080918100887F25
:10517000892B8093810080918000909181008C7FA9
:10518000977E986090938100809380008F738093C6
:10519000800080916F00826080936F00B401C50130
:1051A0002B960FB6F894DEBF0FBECDBFDF91CF9127
:1051B0001F910F91FF90EF90DF90CF90BF90AF9035
:1051C0009F908F907F906F905F904F903F902F9027
:1051D00008952130310561F02830310521F6E2E0F3
:1051E000E987C1CF35E03987BECF24E02987BBCF1F
:1051F00041E04987B8CFF3E0F987B5CFAF92BF92CE
:10520000CF92DF92EF92FF920F931F93CF93DF9392
:1052100000D000D0CDB7DEB75C011091B102809113
:10522000B30281FF43C0123008F440C08EE190E029
:10523000909301018093000180916F0082608093C0
:105240006F00F50181811817E1F11183E0911001E0
:10525000F09111016081718180E090E028EF36E0EB
:1052600041E050E00E94733528EE33E040E050E02A
:105270000E94B93569017A01212F30E040E050E009
:10528000C701B6010E94B93589019A0109831A83C1
:105290002B833C83073911052105310590F0C501A9
:1052A000BE016F5F7F4F0E94C8270BC086E090E071
:1052B000909301018093000180916F008D7F809316
:1052C0006F0081E0F50182830F900F900F900F9097
:1052D000DF91CF911F910F91FF90EF90DF90CF90D2
:1052E000BF90AF9008954F925F926F927F928F928E
:1052F0009F92AF92BF92CF92DF92EF92FF920F9365
:105300001F93CF93DF93CDB7DEB760970FB6F894B6
:10531000DEBF0FBECDBF8130910529F1009761F44A
:1053200080911001909111010E949036809112019C
:10533000909113010E94903660960FB6F894DEBFEC
:105340000FBECDBFDF91CF911F910F91FF90EF90D6
:10535000DF90CF90BF90AF909F908F907F906F9095
:105360005F904F9008951092D503E6EDF3E02FE49F
:1053700031E0118210828FE491E0338322833696EC
:1053800049E0E63DF407A9F71092D6091092D70933
:105390001092D8091092D2031092D10320E531E087
:1053A0003093D4032093D3031092CE031092CD03F5
:1053B0003093D0032093CF031092CA031092C903F5
:1053C0003093CC032093CB031092C6031092C503F5
:1053D0003093C8032093C7031092C2031092C103F5
:1053E0003093C4032093C3031092BE031092BD03F5
:1053F0003093C0032093BF031092BA031092B903F5
:105400003093BC032093BB031092B6031092B503F4
:105410003093B8032093B7031092B2031092B103F4
:105420003093B4032093B3031092AE031092AD03F4
:105430003093B0032093AF031092AA031092A903F4
:105440003093AC032093AB031092A6031092A503F4
:105450003093A8032093A7031092A2031092A103F4
:105460003093A4032093A30310929E0310929D03F4
:105470003093A00320939F0310929A0310929903F4
:1054800030939C0320939B031092960310929503F4
:1054900030939803209397031092920310929103F4
:1054A000309394032093930310928E0310928D03F4
:1054B0003093900320938F0310928A0310928903F4
:1054C00030938C0320938B031092860310928503F4
:1054D00030938803209387031092820310928103F4
:1054E000309384032093830310927E0310927D03F4
:1054F0003093800320937F0310927A0310927903F4
:1055000030937C0320937B031092760310927503F3
:1055100030937803209377031092720310927103F3
:10552000309374032093730310926E0310926D03F3
:105530003093700320936F0310926A0310926903F3
:1055400030936C0320936B031092620310926103FB
:10555000309364032093630310925E0310925D0303
:105560003093600320935F0310925A031092590303
:1055700030935C0320935B03109256031092550303
:105580003093580320935703109252031092510303
:10559000309354032093530310924E0310924D0303
:1055A0003093500320934F0310924A031092490303
:1055B00030934C0320934B03109246031092450303
:1055C0003093480320934703109209004FED5EE2A9
:1055D000509399004093980040919100487F41601A
:1055E0004093910040919000509191004C7F577EE4
:1055F000586050939100409390004F7340939000F7
:1056000040E453E0509366034093650345E253E062
:105610005093680340936703109241031092420332
:10562000109243031092440310929500109294003C
:10563000C19A409171004260409371001092E7025C
:105640001092E6029093E9028093E8021092F00231
:105650001092EF029093F2028093F1021092F902FD
:105660001092F8029093FB028093FA0210920203C8
:1056700010920103909304038093030310920B0391
:1056800010920A0390930D0380930C03109214035D
:1056900010921303909316038093150310921D0329
:1056A00010921C0390931F0380931E0310922603F5
:1056B00010922503909328038093270310922F03C1
:1056C00010922E039093310380933003109238038D
:1056D0001092370390933A03809339031092AA02F1
:1056E0001092A9023093AC022093AB021092AF0249
:1056F0001092AE021092B1021092B0021092B30258
:105700001092B2021092B5021092B4021092B70237
:105710001092B6021092B9021092B8021092BB0217
:105720001092BA021092BD021092BC021092BF02F7
:105730001092BE021092C1021092C0021092C302D7
:105740001092C2021092C5021092C4021092C702B7
:105750001092C6021092C9021092C8021092CB0297
:105760001092CA021092CD021092CC021092CF0277
:105770001092CE0201ED12E0D80111961C921E92F9
:1057800013963C932E9312970C5F1F4FB2E0053E89
:105790001B0791F71092A7021092A6021092A8027E
:1057A000539A5B9A52985A9A549A27982F9A8EE94C
:1057B000E82E82E0F82EF0925603E092550384E83A
:1057C0009EE29093580380935703F0924E03E09229
:1057D0004D0387ED93E09093500380934F03F09235
:1057E0005203E092510383E393E090935403809338
:1057F0005303E8ECF0E08091C80082608093C80019
:105800008CE08093CC008091CD00807F8093CD0090
:105810009091C9008091CA008660877882839C6CD1
:10582000918388248394D70112968C921297809149
:10583000C80081608093C8005C9A8091C900806133
:10584000818317961C9283E891E00E94012426E749
:10585000C22E21E0D22EC8018197909377018093C8
:1058600076011092790110927A0110927B011092C8
:105870007C0180927D018091C40280937E01109210
:105880007F01C801809790938101809380011092DD
:105890008201109278014C2DDE82CD828DE299E05A
:1058A000682F98878F831A8619865E81788580E0B5
:1058B0009A8520ED37E00E948204460148EBA42E31
:1058C00043E0B42E26015BE6652E51E0752E82E0A2
:1058D00090E06CE070E00E94591E6C0182E090E064
:1058E0006DE070E00E94591E00D000D0EDB7FEB709
:1058F000D282C1829483838380E091E066E070E08D
:10590000A7014D5F5F4F980127513040095110406A
:1059100075016401530142010E94EF2585E595E57B
:10592000A0E0B0E089839A83AB83BC830F900F9093
:105930000F900F9002E711E0C801BE016F5F7F4F2B
:105940000E94C8271093A6030093A50381E398E063
:105950009093A8038093A703402F1C870B8788EBA5
:105960009AE0682F9E878D87188A1F865C857E85C2
:1059700080E0988928EE33E00E948204DDCCCF934A
:10598000DF93DC01C8ECD0E08091C8008871B1F0F1
:105990008091C9008091CE008091C8008160809381
:1059A000C8005C9A8091C9008061E8ECF0E08183D6
:1059B00017961C921797DF91CF9108959091C90087
:1059C000969591708091CE00282F22952F70E92F07
:1059D000F0E0E295F295F07FFE27E07FFE27E45BA2
:1059E000FE4FE20FF11D30818317B1F617968C91AF
:1059F0001797913009F094C08823B9F506C0843018
:105A000009F01EC117961C921797922F990F990FA4
:105A1000990F1A968C911A978770892B1A968C93E6
:105A20001A978091C8008E7F8093C80017968C913A
:105A30001797823009F498C0833009F712968C9139
:105A40001297882309F4A8CF12968C9112978F5F32
:105A500012968C93129712968C911297853009F0BA
:105A60009BCF12961C92129797CF813011F71A96FE
:105A70009C911A9790681A969C931A978F5F179625
:105A80008C931797883009F096CF8091C800816079
:105A90008093C8005C9A8091C9008061E8ECF0E0D6
:105AA000818317961C9217971A96EC911A97F0E03B
:105AB000E256FE4FE491EF77F0E018968D919C91BD
:105AC0001997DF01AA0FBB1FA255BD4F8C931196EA
:105AD0009C9311978091E50280FD6DCF8091E50246
:105AE00082608093E5027894E257FE4FE491AE2FF6
:105AF000B0E0AA0FBB1FAA0FBB1FA655BD4F9996BA
:105B0000ED91FC919A9797968D919C919897099514
:105B10008091E5028D7F8093E502DF91CF9108951A
:105B2000882309F439CF8130D9F08230E9F083300D
:105B300009F4B0C0843009F083C019961C921E92FB
