:100000000C9488000C940C0B0C94370B0C94620B22
:100010000C948D0B0C94B80B0C94E30B0C940E0CFD
:100020000C94390C0C94640C0C948F0C0C94BA0C3A
:100030000C94E50C0C94100D0C943B0D0C94660D77
:100040000C94910D0C94BC0D0C94E70D0C94120EB5
:100050000C943D0E0C94680E0C94930E0C94BE0EF2
:100060000C94E90E0C94140F0C943F0F0C946A0F2F
:100070000C94950F0C94C00F0C94EB0F0C9416106D
:100080000C9441100C946C100C9497100C94C210AA
:080090000C94ED108B2990295E
:100100000000000001C81F210C277B01B6DFD9FDCC
:1001100011241FBECFEFD0E1DEBFCDBF11E0A0E0C4
:10012000B1E0E2E1F7E502C005900D92A036B1071B
:10013000D9F719E0A0E6B1E001C01D92AB36B107D6
:10014000E1F73C9A3D9A449A459A2DE088E190E087
:100150000FB6F894A895809360000FBE20936000BE
:10016000259810E0C6E9D0E004C02297FE010E9465
:100170001A2AC439D107C9F70E94CD1A0C947C2BD6
:100180000001000200000003000000000000000069
:1001900000000000000000008F8E8D8C0706050413
:1001A000000000000000000000000000000000004F
:1001B000000000000000000000000000000000003F
:1001C000000000000000000000000000000000002F
:1001D000000000000000000000000000000000001F
:1001E0008B8A8988030000000000000000000000E6
:1001F00000000000000000000200000100000000FC
:1002000000000000000000000000000000000000EE
:1002100000000000000000000000000000000000DE
:1002200000000000000000000000000000000000CE
:1002300000000000000000000000000000000000BE
:1002400000000000000000000000000000000000AE
:10025000000000000000000000000000000000009E
:10026000000000000000000000000000000000008E
:10027000000000000000000000000000000000007E
:10028000000000000000000000000000000000006E
:1002900008950895FC0184858F3F11F08F5F848756
:1002A00008952FB7F8943FB7F894809196019091F4
:1002B00097019F7790939701809396013FBF2FBF3F
:1002C0000895809187018970893031F0109266011C
:1002D00081E080936B01089581E080936601089529
:1002E00010920E010895FC01418152816381748155
:1002F0004F5F5F4F6F4F7F4F4183528363837483A0
:1003000078940895CF93DF939C016091ED008091E4
:10031000EC00807F8093ED008091EE008F7D8093D4
:10032000EE007894B091EF00BF704091F2004295DA
:10033000469547705091F300752F770F770F770F21
:10034000872F842B952F929596959770880F991FDC
:1003500082959295907F9827807F98278B0F911D8B
:1003600040E180309407D1F170E18032970709F4C1
:10037000BCC0E0E180389E0709F4BAC0F0E1803AE1
:100380009F0709F4CAC040E18130940709F4B3C063
:1003900070E18132970709F4C6C0E0E181389E0719
:1003A00009F4CDC0F0E1813A9F0709F4CEC04AE0DC
:1003B0008830940709F4CFC07BE08830970709F4B0
:1003C000B8C0EAE088349E0709F4C8C0FBE088346E
:1003D0009F0709F07FC04BE050E002C040E050E0D2
:1003E000BB2381F0FA01EE0FFF1FEE0FFF1FEE0F90
:1003F000FF1FE20FF31F70E0A091FA00A1937F5F4F
:100400007B17D0F370E18030970779F1E0E180321B
:100410009E0709F47CC0F0E180389F0709F47AC098
:1004200070E1803A970709F47BC0E0E181309E07D4
:1004300009F46AC0F0E181329F0709F47DC070E1E0
:100440008138970709F47EC0E0E1813A9E0709F4FC
:100450007FC0FAE088309F0709F468C07BE08830ED
:100460009707C1F589E090E002C080E090E0EA01E2
:10047000CC0FDD1FCC0FDD1FCC0FDD1FC20FD31F34
:100480007FB7F89440916109509161095F5F509383
:100490006109E09160095E1789F17FBF50E04896DD
:1004A000880F991F880F991F820F931FFC0180816D
:1004B0009181A281B381FA01EE0FFF1FE40FF51FB6
:1004C000EE0FFF1FE05AFC4F80839183A283B3831A
:1004D000D583C4838091EF008F7380688093EF0091
:1004E0006093ED00DF91CF91089541E050E078CF27
:1004F00042E050E075CF44E050E072CF5091600987
:100500005F5F50936009C9CF84E090E0B0CF81E095
:1005100090E0ADCF82E090E0AACF43E050E060CF22
:1005200083E090E0A4CF45E050E05ACF88E090E02F
:100530009ECF49E050E054CF85E090E098CF46E070
:1005400050E04ECF86E090E092CF47E050E048CFB9
:1005500087E090E08CCF48E050E042CF4AE050E0A6
:100560003FCFFC0186818430F1F0853059F186302F
:10057000B1F1873019F08F5F86830895A081B18132
:10058000AF70B070A65CBE4F8C918093CE0080910E
:10059000C9008F7DA8ECB0E011968C9311978681ED
:1005A0008F5F868308952181822F82958F7090E0DE
:1005B000865C9E4FDC018C918093CE0086818F5F9C
:1005C00086830895A181B0E0AF70B070A65CBE4F85
:1005D0008C918093CE0086818F5F86830895A08161
:1005E000B181B295A295AF70AB27BF70AB27ECCFAE
:1005F000DC01ED91FC91119740A15FB7F894209137
:100600006109309161093F5F309361096091600930
:100610003617A9F05FBF30E0F901EE0FFF1FE20FC0
:10062000F31FEE0FFF1FE05AFC4F9183808386EF8C
:1006300098E293838283448315827894089530915D
:1006400060093F5F30936009E5CFFC018281882318
:1006500041F00284F385E02D80818F3F11F08F5FA0
:10066000808308958EBD0DB407FEFDCF6EBD0DB421
:1006700007FEFDCF4EBD0DB407FEFDCF2EBD0DB460
:1006800007FEFDCF8EB50895FC015C9AA8ECB0E0A2
:100690008091C900806111968C9311978091B2006E
:1006A00096819830B1F09581992391F01582813926
:1006B00068F0805990E0880F991F63E070E00E9415
:1006C000B4298481861720F4648308958EEF84838F
:1006D00008958091C80081608093C8005C9A8091E1
:1006E000C900806111968C93119716820895CF935B
:1006F000DF9300D000D000D0CDB7DEB749835A8356
:100700006B837C838D839E83EBE3F2E09FB7F89449
:10071000808581FD3DC0808582FD3AC080858460F2
:1007200080879FBF4FB7F8948091CC029091CD0203
:10073000A091CE02B091CF024FBFA90160E070E05E
:10074000480F591F6A1F7B1F617070704683578363
:10075000962F917080858E7F892B8087CF01AE0187
:100760004F5F5F4F26E0DA010D90AD01DC010D9285
:10077000CD012150C1F780858260808780858B7F85
:10078000808780913A028F5F80933A0281E008C0AF
:100790009FBF3996B2E0EB3CFB0709F0B7CF80E092
:1007A00026960FB6F894DEBF0FBECDBFDF91CF9176
:1007B00008951F9B08952FB7F8946091CC02709113
:1007C000CD028091CE029091CF022FBF2AE030E07F
:1007D00040E050E00E94C729922F30916901209398
:1007E000690181E080936701E0916401F091650106
:1007F000808185FFDFCF8F7D808380916801831B9F
:10080000890F8093680108951F9B0895FB019081D3
:1008100081E080936701E0916401F091650180813E
:1008200085FFF3CF8F7D808380916801890FE4E697
:10083000F1E0848308951F990895FB01908181E080
:1008400080936701E0916401F0916501808185FFEB
:10085000F3CF8F7D808380916801890FE4E6F1E01A
:1008600084830895009721F421E030E0C9010895C0
:100870008130910521F422E030E0C90108958230F1
:10088000910519F424E030E0F1CF8330910519F49B
:1008900028E030E0EBCF8430910519F420E130E01E
:1008A000E5CF8530910519F420E230E0DFCF8630C6
:1008B000910519F420E430E0D9CF21E030E0873011
:1008C000910559F480E890E0A901489F9001499F63
:1008D000300D589F300D1124C9CF8830910519F47F
:1008E00080E091E0F1CF322F2227330F893091053C
:1008F00009F4BCCF8A30910519F4220F331FB6CF0B
:100900008B30910529F4220F331F220F331FAECFF6
:100910008C30910539F4220F331F220F331F220F21
:10092000331FA4CF8D30910539F422953295307F55
:100930003227207F32279ACF8E30910549F4220F3B
:10094000331F22953295307F3227207F32278ECF7A
:10095000AC01495050408F30910551F40024369538
:1009600027950794369527950794322F202D7ECF13
:10097000CA01A5CFFC0183818823E1F4F0990DC061
:10098000F09A8EB386958695869580FD0DC0F39A74
:10099000838191E0892783830895F0988EB38695AB
:1009A0008695869580FFF3CFF398838191E0892720
:1009B000838308958EB3869580FD0CC0F19A8EB323
:1009C0008695869580FD0CC0F29A838191E08927F7
:1009D00083830895F1988EB38695869580FFF4CF32
:1009E000F298838191E08927838308951F99089560
:1009F0002FB7F8946091CC027091CD028091CE0215
:100A00009091CF022FBF2AE030E040E050E00E94FA
:100A1000C729922F309169012093690181E0809369
:100A20006701E0916401F0916501808185FFDFCF6E
:100A30008F7D808380916801831B890F809368017B
:100A40000895AF92BF92CF92DF92EF92FF920F93F1
:100A50001F93CF93DF937C01DC0197968C9197973E
:100A6000882309F48BC150960D90BC91A02DE7010D
:100A7000CA88DB881C968D919C911D97805C9F4F46
:100A800071E0F601248535858217930708F000C2CE
:100A90005E968C915E978170E70158A55E7F582B1A
:100AA00058A7F601868D817049A54E7F482B49A72E
:100AB0005E968C915E978823D1F5868D8823B9F553
:100AC000E72FF0E03896EE0FFF1FEE0DFF1D0190AF
:100AD000F081E02D24853585F5E021303F0708F4CD
:100AE000F2C1C1E0D0E0772311F0C0E0D0E0FE0118
:100AF0003896EE0FFF1FEE0DFF1D0190F081E02DE7
:100B000084859585F901E81BF90BF7FD44C2C901FD
:100B100096958795969587958E179F0708F0D3C170
:100B2000F70185A18F3709F429C28F5F85A3E701FB
:100B300088A5882309F06FC189A5882309F06BC1B6
:100B4000E7016C89262F30E0872F90E001E028171D
:100B5000390709F411C2202F30E0285F3F4FF90117
:100B6000EE0FFF1FEE0DFF1D0190F081E02D878D30
:100B7000882309F0E8C1E7010BA3E7011CA21F9B32
:100B800062C18091110261C1E7018EA1882311F039
:100B900081508EA3F901EE0FFF1FEE0DFF1DA08007
:100BA000B180E701EE85E170E295EE0FEE0FE07C9B
:100BB0001B968C911B97C82FD0E05D966C915D972A
:100BC000617070E016962C91169730E081E090E00D
:100BD0006217730711F080E090E011E0C817D907A1
:100BE00009F486C11E2BE601EB85F0E06D8D617086
:100BF00070E02E8130E081E090E06217730711F021
:100C000080E090E021E0E817F90709F480C1220FA5
:100C10001D7F122BF501878D8170880F880F1B7F38
:100C2000182B0170000F000F000F177F102B50FFC3
:100C300010C01C968D919C911D97F2E081309F070A
:100C400040F021E0E6018C859D85E2E081309E0741
:100C500008F420E040FF12C01C968D919C911D97D6
:100C6000F2E081309F0750F031E0D6011C968D9163
:100C70009C911D97B2E081309B0708F430E022235D
:100C800021F452FD02C081E051FD80E08295807F19
:100C90001F7E182B332321F442FD02C081E041FD69
:100CA00080E08295880F807E1F7D182B14FF22C163
:100CB00015FF27C1E701EBA1F0E03896EE0FFF1F0B
:100CC000EE0DFF1DC081D1818F8D8823E9F01F9922
:100CD00020C180E691E00E944D2B91E0811190E0CF
:100CE0009295907F88B18F7E892B88B980E691E0BC
:100CF0000E944D2B91E0811190E09295990F907E8A
:100D000088B18F7D892B88B9D7015996ED91FC91D7
:100D10005A978E859F85803891050CF0D1C0BFEF22
:100D200081389B070CF40CC187FD39C1382F20E0B6
:100D3000812F90E0822B932B2FB7F894918380839F
:100D40002FBFE701EBA1F0E03896EE0FFF1FEE0D8D
:100D5000FF1D0190F081E02D24853585832F881FAC
:100D60008827881F90E0220F331F822B932BEF8957
:100D7000F88D2FB7F894918380832FBFEBE3F2E0D7
:100D80009FB7F894808581FD3EC0808582FD3BC081
:100D90008085846080879FBF2FB7F8948091CC02B4
:100DA0009091CD02A091CE02B091CF022FBF8C5076
:100DB0009E4FAF4FBF4FA170B070868397839A2F1D
:100DC000917080858E7F892B8087F182E08281E21D
:100DD00095E0938382831582148280858260808768
:100DE00080858B7F808780913A028F5F80933A0263
:100DF000DF91CF911F910F91FF90EF90DF90CF90F7
:100E0000BF90AF9008959FBF399622E0EB3CF20768
:100E100009F0B6CFEDCFF70180A58823D9F1F7010E
:100E200081A58823B9F581E0F70183A3E7018CA1AF
:100E30008F3309F491C06C890BA1202F30E0285F1B
:100E40003F4F1F999ECE8091090290E08370907071
:100E500071E0009709F470E0662309F495CE7723DA
:100E600009F092CEF901EE0FFF1FEE0DFF1DA080DD
:100E7000B180E5018F8DF701882309F478C086A140
:100E80008C3808F476C0526050A7426041A789CEE2
:100E900070E0FECDE70188A5882331F489A5882379
:100EA00019F0E7011BA2C2CFF70180A5882309F43E
:100EB000BDCF81A5882309F4B9CFF70173A3B6CFBD
:100EC00020E03FE735CFF70115A2E3A1F0E0389627
:100ED000EE0FFF1FEE0DFF1D0190F081E02D878DBD
:100EE000882309F024CEF70184A18F5F84A31FCE4D
:100EF00010E078CE80E691E060E00E945B2B15FD6B
:100F0000D9CE81E691E060E00E945B2BD3CE20E059
:100F10007ECE81E691E00E944D2B91E0811190E020
:100F20009295907F88B18F7E892B88B981E691E078
:100F30000E944D2B91E0882309F4DFCE90E0DDCEB6
:100F400020E03FEFF5CE81E00827F70103A3202F33
:100F500030E0285F3F4F11CE5B7F58A74B7F49A7FA
:100F60006C890BA1202F30E0285F3F4F6ACF16A27B
:100F700018CE8F5F86A315CE00E0EDCDA896CE0DDE
:100F8000DF1D888184608883A089B189C288D38865
:100F900050A541A5CCCDF095E195FF4FB8CD8095FA
:100FA0008068382F3F5F20E0C3CEDC01809185014F
:100FB00081FF44C012968C911297882309F43EC099
:100FC00012961C921297EBE3F2E09FB7F89480859B
:100FD00081FD40C0808582FD3DC080858460808722
:100FE0009FBF8FB7F8944091CC025091CD02609191
:100FF000CE027091CF028FBF48515C4F6F4F7F4F31
:101000006170707046835783962F917080858E7FB4
:10101000892B8087B183A08385ED97E093838283BA
:101020001582148280858260808780858B7F80878F
:1010300080913A028F5F80933A02089586E090E0B3
:10104000909301018093000180916F008D7F8093C8
:101050006F00B6CF9FBF399682E0EB3CF80709F0EE
:10106000B4CF0895DC0113968C911397882379F4FB
:10107000ED91FC9111978081982F9F71943009F424
:101080004CC0983039F0807A8061808303C0139619
:101090001C921397EBE3F2E09FB7F894808581FDF3
:1010A00034C0808582FD31C08085846080879FBF89
:1010B0008FB7F8944091CC025091CD026091CE024E
:1010C0007091CF028FBF4053584F6F4F7F4F617069
:1010D000707046835783962F917080858E7F892B01
:1010E0008087B183A08382E398E093838283158213
:1010F000148280858260808780858B7F8087809145
:101100003A028F5F80933A0208959FBF399682E03A
:10111000EB3CF80709F0C0CF0895982F991F992745
:10112000991F909580729795992797958860892B3C
:101130008083B0CF1F990895FB01908181E0809357
:101140006701E0916401F0916501808185FDF3CF35
:101150008062808350916801590F509368019432E6
:1011600010F160916A01662369F5550F509368018B
:10117000408140784066446010926A01852F84590E
:101180008931A0F54F7780916C014817B1F1E0915A
:101190006401F091650180818F7B808340936C01B5
:1011A00010926801089580916A018F5FA4E6B1E012
:1011B00016968C931697833009F0BDCF80818F7B74
:1011C0008083089540814078406622E030E0261B0D
:1011D000310981E090E002C0880F991F2A95E2F75B
:1011E0008F71482B633040F24F7BC6CF5D5A5A3126
:1011F00010F44068C8CF4F7BC6CF46FFCFCFE091F9
:101200006401F09165018081842787FD11C0809180
:101210006B0110927001882329F0E0916E01F0912A
:101220006F011082E0916401F09165014083B6CFB7
:1012300080916B01882331F010926B011092700144
:101240004083ACCFE0916E01F0916F01809170010D
:101250008083DDCF1F9908952FB7F8946091CC0259
:101260007091CD028091CE029091CF022FBF2AE0E3
:1012700030E040E050E00E94C729922F3091690190
:101280002093690181E080936701E0916401F0910E
:101290006501808185FDDFCF931B80628083509143
:1012A0006801590F50936801943210F160916A01FE
:1012B000662351F5550F5093680140814078406690
:1012C000446010926A01852F8459893188F54F77DF
:1012D00080916C01481799F1E0916401F0916501EA
:1012E00080818F7B808340936C0110926801089508
:1012F00080916A018F5F80936A01833009F0ABCFE0
:1013000080818F7B8083089540814078406622E011
:1013100030E0261B310981E090E002C0880F991F60
:101320002A95E2F78F71482B633058F24F7BC9CF73
:101330005D5A5A3110F44068CBCF4F7BC9CF46FF7E
:10134000D2CFE0916401F09165018081842787FD0F
:1013500011C080916B0110927001882329F0E091F7
:101360006E01F0916F011082E0916401F0916501CE
:101370004083B9CF80916B01882331F010926B01CB
:10138000109270014083AFCFE0916E01F0916F0138
:10139000809170018083DDCF1F9B08952FB7F89453
:1013A0006091CC027091CD028091CE029091CF02DB
:1013B0002FBF2AE030E040E050E00E94C729922F82
:1013C000309169012093690181E080936701E09188
:1013D0006401F0916501808185FDDFCF931B806200
:1013E000808350916801590F50936801943210F135
:1013F00060916A01662351F5550F50936801408151
:1014000040784066446010926A01852F8459893182
:1014100088F54F7780916C01481799F1E09164014C
:10142000F091650180818F7B808340936C011092E5
:101430006801089580916A018F5F80936A0183300B
:1014400009F0ABCF80818F7B808308954081407805
:10145000406622E030E0261B310981E090E002C0C6
:10146000880F991F2A95E2F78F71482B633058F245
:101470004F7BC9CF5D5A5A3110F44068CBCF4F7BB8
:10148000C9CF46FFD2CFE0916401F0916501808120
:10149000842787FD11C080916B0110927001882311
:1014A00029F0E0916E01F0916F011082E0916401EA
:1014B000F09165014083B9CF80916B01882331F0B1
:1014C00010926B01109270014083AFCFE0916E01DA
:1014D000F0916F01809170018083DDCF1F9B089593
:1014E000FB01908181E080936701E0916401F091BC
:1014F0006501808185FDF3CF806280835091680112
:10150000590F50936801943210F160916A0166237B
:1015100069F5550F509368014081407840664460FA
:1015200010926A01852F84598931A0F54F778091F7
:101530006C014817B1F1E0916401F091650180817F
:101540008F7B808340936C01109268010895809195
:101550006A018F5FA4E6B1E016968C9316978330EC
:1015600009F0BDCF80818F7B8083089540814078D2
:10157000406622E030E0261B310981E090E002C0A5
:10158000880F991F2A95E2F78F71482B633040F23C
:101590004F7BC6CF5D5A5A3110F44068C8CF4F7B9D
:1015A000C6CF46FFCFCFE0916401F0916501808105
:1015B000842787FD11C080916B01109270018823F0
:1015C00029F0E0916E01F0916F011082E0916401C9
:1015D000F09165014083B6CF80916B01882331F093
:1015E00010926B01109270014083ACCFE0916E01BC
:1015F000F0916F01809170018083DDCFF89428E035
:1016000088E190E00FB6F894A895809360000FBE33
:10161000209360000000FECF1F920F920FB60F9232
:1016200011242F933F934F935F936F937F938F93E7
:101630009F93AF93BF93EF93FF93E0915E03F0917D
:101640005F0380915C0390915D030995FF91EF9199
:10165000BF91AF919F918F917F916F915F914F91CA
:101660003F912F910F900FBE0F901F9018951F92D2
:101670000F920FB60F9211242F933F934F935F93C6
:101680006F937F938F939F93AF93BF93EF93FF934A
:10169000E0915A03F0915B038091580390915903B4
:1016A0000995FF91EF91BF91AF919F918F917F919C
:1016B0006F915F914F913F912F910F900FBE0F90BF
:1016C0001F9018951F920F920FB60F9211242F930F
:1016D0003F934F935F936F937F938F939F93AF93BA
:1016E000BF93EF93FF93E0915603F09157038091DE
:1016F0005403909155030995FF91EF91BF91AF91DC
:101700009F918F917F916F915F914F913F912F9119
:101710000F900FBE0F901F9018951F920F920FB64B
:101720000F9211242F933F934F935F936F937F9367
:101730008F939F93AF93BF93EF93FF93E0915203E7
:10174000F091530380915003909151030995FF91BB
:10175000EF91BF91AF919F918F917F916F915F9129
:101760004F913F912F910F900FBE0F901F901895A2
:101770001F920F920FB60F9211242F933F934F9306
:101780005F936F937F938F939F93AF93BF93EF93E9
:10179000FF93E0914E03F0914F0380914C039091A1
:1017A0004D030995FF91EF91BF91AF919F918F915B
:1017B0007F916F915F914F913F912F910F900FBE4D
:1017C0000F901F9018951F920F920FB60F92112431
:1017D0002F933F934F935F936F937F938F939F9339
:1017E000AF93BF93EF93FF93E0914A03F0914B03C4
:1017F00080914803909149030995FF91EF91BF9122
:10180000AF919F918F917F916F915F914F913F9198
:101810002F910F900FBE0F901F9018951F920F924F
:101820000FB60F9211242F933F934F935F936F93B3
:101830007F938F939F93AF93BF93EF93FF93E09129
:101840004603F09147038091440390914503099525
:10185000FF91EF91BF91AF919F918F917F916F9188
:101860005F914F913F912F910F900FBE0F901F905E
:1018700018951F920F920FB60F9211242F933F933A
:101880004F935F936F937F938F939F93AF93BF9388
:10189000EF93FF93E0914203F09143038091400363
:1018A000909141030995FF91EF91BF91AF919F9165
:1018B0008F917F916F915F914F913F912F910F90F9
:1018C0000FBE0F901F9018951F920F920FB60F9298
:1018D00011242F933F934F935F936F937F938F9335
:1018E0009F93AF93BF93EF93FF93E0913E03F091EB
:1018F0003F0380913C0390913D030995FF91EF9147
:10190000BF91AF919F918F917F916F915F914F9117
:101910003F912F910F900FBE0F901F9018951F921F
:101920000F920FB60F9211242F933F934F935F9313
:101930006F937F938F939F93AF93BF93EF93FF9397
:10194000E0913A03F0913B03809138039091390381
:101950000995FF91EF91BF91AF919F918F917F91E9
:101960006F915F914F913F912F910F900FBE0F900C
:101970001F9018951F920F920FB60F9211242F935C
:101980003F934F935F936F937F938F939F93AF9307
:10199000BF93EF93FF93E0913603F091370380916B
:1019A0003403909135030995FF91EF91BF91AF9169
:1019B0009F918F917F916F915F914F913F912F9167
:1019C0000F900FBE0F901F9018951F920F920FB699
:1019D0000F9211242F933F934F935F936F937F93B5
:1019E0008F939F93AF93BF93EF93FF93E091320355
:1019F000F091330380913003909131030995FF9169
:101A0000EF91BF91AF919F918F917F916F915F9176
:101A10004F913F912F910F900FBE0F901F901895EF
:101A20001F920F920FB60F9211242F933F934F9353
:101A30005F936F937F938F939F93AF93BF93EF9336
:101A4000FF93E0912E03F0912F0380912C0390914E
:101A50002D030995FF91EF91BF91AF919F918F91C8
:101A60007F916F915F914F913F912F910F900FBE9A
:101A70000F901F9018951F920F920FB60F9211247E
:101A80002F933F934F935F936F937F938F939F9386
:101A9000AF93BF93EF93FF93E0912A03F0912B0351
:101AA00080912803909129030995FF91EF91BF91AF
:101AB000AF919F918F917F916F915F914F913F91E6
:101AC0002F910F900FBE0F901F9018951F920F929D
:101AD0000FB60F9211242F933F934F935F936F9301
:101AE0007F938F939F93AF93BF93EF93FF93E09177
:101AF0002603F091270380912403909125030995F3
:101B0000FF91EF91BF91AF919F918F917F916F91D5
:101B10005F914F913F912F910F900FBE0F901F90AB
:101B200018951F920F920FB60F9211242F933F9387
:101B30004F935F936F937F938F939F93AF93BF93D5
:101B4000EF93FF93E0912203F09123038091200310
:101B5000909121030995FF91EF91BF91AF919F91D2
:101B60008F917F916F915F914F913F912F910F9046
:101B70000FBE0F901F9018951F920F920FB60F92E5
:101B800011242F933F934F935F936F937F938F9382
:101B90009F93AF93BF93EF93FF93E0911E03F09158
:101BA0001F0380911C0390911D030995FF91EF91F4
:101BB000BF91AF919F918F917F916F915F914F9165
:101BC0003F912F910F900FBE0F901F9018951F926D
:101BD0000F920FB60F9211242F933F934F935F9361
:101BE0006F937F938F939F93AF93BF93EF93FF93E5
:101BF000E0911A03F0911B0380911803909119034F
:101C00000995FF91EF91BF91AF919F918F917F9136
:101C10006F915F914F913F912F910F900FBE0F9059
:101C20001F9018951F920F920FB60F9211242F93A9
:101C30003F934F935F936F937F938F939F93AF9354
:101C4000BF93EF93FF93E0911603F09117038091F8
:101C50001403909115030995FF91EF91BF91AF91F6
:101C60009F918F917F916F915F914F913F912F91B4
:101C70000F900FBE0F901F9018951F920F920FB6E6
:101C80000F9211242F933F934F935F936F937F9302
:101C90008F939F93AF93BF93EF93FF93E0911203C2
:101CA000F091130380911003909111030995FF9116
:101CB000EF91BF91AF919F918F917F916F915F91C4
:101CC0004F913F912F910F900FBE0F901F9018953D
:101CD0001F920F920FB60F9211242F933F934F93A1
:101CE0005F936F937F938F939F93AF93BF93EF9384
:101CF000FF93E0910E03F0910F0380910C039091FC
:101D00000D030995FF91EF91BF91AF919F918F9135
:101D10007F916F915F914F913F912F910F900FBEE7
:101D20000F901F9018951F920F920FB60F921124CB
:101D30002F933F934F935F936F937F938F939F93D3
:101D4000AF93BF93EF93FF93E0910A03F0910B03DE
:101D500080910803909109030995FF91EF91BF913C
:101D6000AF919F918F917F916F915F914F913F9133
:101D70002F910F900FBE0F901F9018951F920F92EA
:101D80000FB60F9211242F933F934F935F936F934E
:101D90007F938F939F93AF93BF93EF93FF93E091C4
:101DA0000603F091070380910403909105030995C0
:101DB000FF91EF91BF91AF919F918F917F916F9123
:101DC0005F914F913F912F910F900FBE0F901F90F9
:101DD00018951F920F920FB60F9211242F933F93D5
:101DE0004F935F936F937F938F939F93AF93BF9323
:101DF000EF93FF93E0910203F091030380910003BE
:101E0000909101030995FF91EF91BF91AF919F913F
:101E10008F917F916F915F914F913F912F910F9093
:101E20000FBE0F901F9018951F920F920FB60F9232
:101E300011242F933F934F935F936F937F938F93CF
:101E40009F93AF93BF93EF93FF93E091FE02F091C6
:101E5000FF028091FC029091FD020995FF91EF91A4
:101E6000BF91AF919F918F917F916F915F914F91B2
:101E70003F912F910F900FBE0F901F9018951F92BA
:101E80000F920FB60F9211242F933F934F935F93AE
:101E90006F937F938F939F93AF93BF93EF93FF9332
:101EA000E091FA02F091FB028091F8029091F90220
:101EB0000995FF91EF91BF91AF919F918F917F9184
:101EC0006F915F914F913F912F910F900FBE0F90A7
:101ED0001F9018951F920F920FB60F9211242F93F7
:101EE0003F934F935F936F937F938F939F93AF93A2
:101EF000BF93EF93FF93E091F602F091F702809188
:101F0000F4029091F5020995FF91EF91BF91AF9185
:101F10009F918F917F916F915F914F913F912F9101
:101F20000F900FBE0F901F9018951F920F920FB633
:101F30000F9211242F933F934F935F936F937F934F
:101F40008F939F93AF93BF93EF93FF93E091F20230
:101F5000F091F3028091F0029091F1020995FF91C6
:101F6000EF91BF91AF919F918F917F916F915F9111
:101F70004F913F912F910F900FBE0F901F9018958A
:101F80001F920F920FB60F9211242F933F934F93EE
:101F90005F936F937F938F939F93AF93BF93EF93D1
:101FA000FF93E091EE02F091EF028091EC029091AC
:101FB000ED020995FF91EF91BF91AF919F918F91A4
:101FC0007F916F915F914F913F912F910F900FBE35
:101FD0000F901F9018951F920F920FB60F92112419
:101FE0002F933F934F935F936F937F938F939F9321
:101FF000AF93BF93EF93FF93E091EA02F091EB026E
:102000008091E8029091E9020995FF91EF91BF91CB
:10201000AF919F918F917F916F915F914F913F9180
:102020002F910F900FBE0F901F9018951F920F9237
:102030000FB60F9211242F933F934F935F936F939B
:102040007F938F939F93AF93BF93EF93FF93E09111
:10205000E602F091E7028091E4029091E502099591
:10206000FF91EF91BF91AF919F918F917F916F9170
:102070005F914F913F912F910F900FBE0F901F9046
:1020800018951F920F920FB60F9211242F933F9322
:102090004F935F936F937F938F939F93AF93BF9370
:1020A000EF93FF93E091E202F091E3028091E0026E
:1020B0009091E1020995FF91EF91BF91AF919F91AE
:1020C0008F917F916F915F914F913F912F910F90E1
:1020D0000FBE0F901F9018951F920F920FB60F9280
:1020E00011242F933F934F935F936F937F938F931D
:1020F0009F93AF93BF93EF93FF93E091DE02F09134
:10210000DF028091DC029091DD020995FF91EF9151
:10211000BF91AF919F918F917F916F915F914F91FF
:102120003F912F910F900FBE0F901F9018951F9207
:102130000F920FB60F9211242F933F934F935F93FB
:102140006F937F938F939F93AF93BF93EF93FF937F
:10215000E091DA02F091DB028091D8029091D902ED
:102160000995FF91EF91BF91AF919F918F917F91D1
:102170006F915F914F913F912F910F900FBE0F90F4
:102180001F9018951F920F920FB60F9211242F9344
:102190003F934F935F936F937F938F939F93AF93EF
:1021A000BF93EF93FF93E091D602F091D702809115
:1021B000D4029091D5020995FF91EF91BF91AF9113
:1021C0009F918F917F916F915F914F913F912F914F
:1021D0000F900FBE0F901F9018951F920F920FB681
:1021E0000F9211242F933F934F935F936F937F939D
:1021F0008F939F93AF93BF93EF93FF93E091D2029E
:10220000F091D3028091D0029091D1020995FF9173
:10221000EF91BF91AF919F918F917F916F915F915E
:102220004F913F912F910F900FBE0F901F901895D7
:10223000CF92DF92EF92FF920F931F93CF93DF9392
:102240007C01DC011596ED91FC911697808121812E
:10225000813209F4F8C08232D0F0813309F41DC113
:10226000823308F455C0833309F421C1833308F065
:102270003BC182E3F701858B0584F685E02D82E082
:10228000922F2FB7F894918380832FBF9BC0813109
:1022900009F4D9C0823108F05BC0833009F407C16A
:1022A000843009F4C2C0882309F08CC0E7018D890D
:1022B000813209F457C1823208F41AC1813309F41A
:1022C0000BC3823309F40AC2823209F07BC0E701F2
:1022D00088819981AA81BB814E895F89688D798DBA
:1022E00084179507A607B70708F42EC3AC01BD01F4
:1022F0004150504060407040652F6F70482F4150F2
:10230000487F82EC20E00E94320388E799E61DC1F5
:10231000833209F4CCC0833208F45DC0843209F002
:1023200051C0E701488159816A817B81DB01CA0183
:102330000197A109B1099F704150487F82EC692F34
:1023400020E00E94320388E799E60197F1F747C041
:10235000833109F4ACC0833108F03FC082E1F7015A
:10236000858B0780F085E02D8FB7F89440815181EF
:102370008FBFD7011996ED91FC911A978FB7F894FA
:10238000208131818FBFE701EB85FC856FB7F89421
:10239000808191816FBFF701588349833A831B8203
:1023A0002E8B9F8B888F198E0584F685E02DAD814D
:1023B000BE8182E011969C9111972FB7F89491837A
:1023C00080832FBFDF91CF911F910F91FF90EF90EE
:1023D000DF90CF90089582E2C2CF843199F7F70160
:1023E0004081518162817381415050406040704012
:1023F0008A019B01A9E03695279517950795AA951F
:10240000D1F7769567955795479540788CE4602F7E
:1024100020E00E9432038CEB94E30197F1F7D7019F
:102420001596ED91FC9116972181E701ED85FE85CA
:1024300084E0922F2FB7F894918380832FBF249844
:102440002C9A0E94FE0AF701858B0780F085E02D0B
:102450008FB7F894408151818FBFD7011996ED91C4
:10246000FC911A978FB7F894208131818FBFE701D3
:10247000EB85FC856FB7F894808191816FBF58839D
:1024800049833A831B822E8B9F8B888F198EED8513
:10249000FE85AD81BE8181E08DCFD70155968C93AD
:1024A00055971D96ED91FC911E9781E0E9CE8CEA3F
:1024B00060E840E020E00E94320388E799E6019757
:1024C000F1F7E701AD85BE85ED81FE8183E0918165
:1024D0002FB7F89411969C938E932FBFED85FE85B0
:1024E000AD81BE8180E066CF843309F06BCF9DCF94
:1024F000813109F4F7C0823109F064CF8881998174
:10250000AA81BB814E895F89688D798D8417950773
:10251000A607B70708F48AC30197A109B1098C017E
:102520009D0169E036952795179507956A95D1F72E
:10253000B695A79597958795482F40788CE4602F9E
:1025400020E00E9432038CEB94E30197F1F7D7016E
:102550001D96ED91FC911E9715960D90BC91A02DA6
:1025600080E028CFF7010F84D889C02D4081618198
:10257000677080EA20E00E943203D82ED7010D91C7
:102580001D912D913C910F5F1F4F2F4F3F4FF70132
:102590000083118322833383612F677080EA402F89
:1025A00020E00E943203D7014D915D916D917C91A5
:1025B00013974F5F5F4F6F4F7F4FF70140835183FA
:1025C00062837383282F3D2D8FB7F8943983288336
:1025D0008FBF5196CD91DC9152974C9111966C9191
:1025E000677080EA20E00E943203D82EF701008154
:1025F0001181228133810F5F1F4F2F4F3F4F008387
:10260000118322833383612F677080EA402F20E09B
:102610000E943203F70140815181628173814F5FD3
:102620005F4F6F4F7F4F4083518362837383282FA7
:102630003D2D8FB7F894398328838FBFC389D48900
:1026400040816181677080EA20E00E943203D82EC9
:10265000D7010D911D912D913C910F5F1F4F2F4F71
:102660003F4FF7010083118322833383612F67700B
:1026700080EA402F20E00E943203D7014D915D9106
:102680006D917C9113974F5F5F4F6F4F7F4FF701B5
:102690004083518362837383282F3D2D8FB7F89435
:1026A000398328838FBF4D915D916D917C911397F4
:1026B00056968D919D910D90BC91A02D84179507F4
:1026C000A607B70708F038C1D7010584F685E02DC5
:1026D00015960D90BC91A02D80E06CCEED85FE8509
:1026E00080E0CECDF7010F84D889C02D0081118103
:1026F00022813381802F8170880F880F880FB90164
:10270000A80199E076956795579547959A95D1F7E1
:1027100036952795179507958062642F402F20E006
:102720000E943203D82ED7010D911D912D913C911D
:102730000F5F1F4F2F4F3F4FF701008311832283FD
:102740003383802F8170880F880F880FB901A8010B
:1027500099E076956795579547959A95D1F736956F
:102760002795179507958062642F402F20E00E94DF
:102770003203D7014D915D916D917C9113974F5F1D
:102780005F4F6F4F7F4FF7014083518362837383A5
:10279000282F3D2D8FB7F894398328838FBF51960A
:1027A000CD91DC9152970D911D912D913C91802FEF
:1027B0008170880F880F880FB901A80199E076957C
:1027C0006795579547959A95D1F73695279517951B
:1027D00007958062642F402F20E00E943203D82E9C
:1027E000F70100811181228133810F5F1F4F2F4F2D
:1027F0003F4F0083118322833383802F8170880FA2
:10280000880F880FB901A80199E0769567955795CB
:1028100047959A95D1F73695279517950795806234
:10282000642F402F20E00E943203F7014081518144
:10283000628173814F5F5F4F6F4F7F4F4083518342
:1028400062837383282F3D2D8FB7F89439832883B3
:102850008FBFC389D4890081118122813381802F68
:102860008170880F880F880FB901A80199E07695CB
:102870006795579547959A95D1F73695279517956A
:1028800007958062642F402F20E00E943203D82EEB
:10289000D7010D911D912D913C9113970F5F1F4F03
:1028A0002F4F3F4FF7010083118322833383802F03
:1028B0008170880F880F880FB901A80199E076957B
:1028C0006795579547959A95D1F73695279517951A
:1028D00007958062642FCDCE0F84D889C02D88E5FE
:1028E00068E040E020E00E943203082F80E560E0CD
:1028F00040E020E00E943203202F382F8FB7F89459
:10290000398328838FBFD7015196CD91DC9152979F
:1029100080E568E040E020E00E94320320E0382FAC
:102920008FB7F894398328838FBFE701ED85FE8543
:10293000AD81BE8180E03ECDE7010584F685E02DC6
:10294000AD81BE8181E036CDEF81F8852FB7F89457
:10295000808191812FBFD82E092F488159816A81AA
:102960007B81DB01CA0187709070A070B070009706
:10297000A105B105A9F4DB01CA010197A109B109BB
:102980009F704150487F82EC692F20E00E94320303
:1029900088E799E60197F1F7488159816A817B813F
:1029A000477081EC60E0202F0E943203E7018881AC
:1029B0009981AA81BB818C019D010F5F1F4F2F4F11
:1029C0003F4F088319832A833B83B901A8014770CD
:1029D000507060707070411551056105710589F482
:1029E000692F6F70402F4150487F82EC20E00E9499
:1029F000320388E799E60197F1F7088119812A8166
:102A00003B81402F477081EC60E02D2D0E94320306
:102A1000E70188819981AA81BB810196A11DB11D21
:102A200088839983AA83BB834E895F89688D798D5A
:102A300084179507A607B70708F058CCE985FA85EB
:102A40002FB7F894808191812FBFD82E092F48810C
:102A500059816A817B81DB01CA0187709070A07007
:102A6000B0700097A105B105A9F4DB01CA01019777
:102A7000A109B1099F704150487F82EC692F20E085
:102A80000E94320388E799E60197F1F7488159815E
:102A90006A817B81477081EC60E0202F0E943203C5
:102AA000F70180819181A281B3818C019D010F5F2B
:102AB0001F4F2F4F3F4FE701008311832283338342
:102AC000B901A801477050706070707041155105D0
:102AD0006105710589F4692F6F70402F4150487F5F
:102AE00082EC20E00E94320388E799E60197F1F733
:102AF000088119812A813B81402F477081EC60E079
:102B00002D2D0E943203E70188819981AA81BB8122
:102B10000196A11DB11D88839983AA83BB834E8929
:102B20005F89688D798D84179507A607B70708F028
:102B3000DDCBEB85FC852FB7F894808191812FBF89
:102B4000D82E092F488159816A817B81DB01CA0116
:102B500087709070A070B0700097A105B105A9F4BE
:102B6000DB01CA010197A109B1099F704150487F5B
:102B700082EC692F20E00E94320388E799E60197F2
:102B8000F1F7488159816A817B81477081EC60E06F
:102B9000202F0E943203F70180819181A281B381AD
:102BA0008C019D010F5F1F4F2F4F3F4FE7010083A7
:102BB000118322833383B901A8014770507060707C
:102BC0007070411551056105710589F4692F6F70A9
:102BD000402F4150487F82EC20E00E94320388E77A
:102BE00099E60197F1F7088119812A813B81402FED
:102BF000477081EC60E02D2D0E943203E70188814F
:102C00009981AA81BB810196A11DB11DF70188831D
:102C10009983AA83BB834E895F89688D798D8417D8
:102C20009507A607B70708F4BFCB60CBEF81F885FF
:102C30002FB7F894808191812FBF6C010881198191
:102C40002A813B81D901C8018F779070A070B07044
:102C50000097A105B10509F5015010402040304012
:102C6000B901A80189E076956795579547958A95AA
:102C7000D1F7369527951795079500788CE4642F42
:102C8000402F20E00E9432038CEB94E30197F1F790
:102C9000E701088119812A813B81802F8170880F8B
:102CA000880F880F3695279517950795806460E003
:102CB000402F2D2D0E943203F701008111812281C6
:102CC0003381B901A8014F5F5F4F6F4F7F4F408342
:102CD000518362837383DB01CA018F779070A07088
:102CE000B0700097A105B105E9F4B901A801F9E0B8
:102CF0007695679557954795FA95D1F73695279527
:102D00001795079500788CE4642F402F20E00E94EF
:102D100032038CEB94E30197F1F7E7014881598185
:102D20006A817B81842F8170880F880F880F8A01C8
:102D30009B013695279517950795806460E0402F95
:102D40002C2D0E943203F70180819181A281B381F1
:102D50000196A11DB11DE70180839183A283B383F6
:102D600046895789608D718D84179507A607B70727
:102D700008F0D2CB0184F285E02D2FB7F894808142
:102D800091812FBF6C01088119812A813B81D90172
:102D9000C8018F779070A070B0700097A105B10541
:102DA00001F50150104020403040B901A80189E0F0
:102DB00076956795579547958A95D1F736952795D6
:102DC0001795079500788CE4642F402F20E00E942F
:102DD00032038CEB94E30197F1F7088119812A8182
:102DE0003B81802F8170880F880F880F369527953B
:102DF00017950795806460E0402F2D2D0E943203C7
:102E0000E701088119812A813B81B901A8014F5F3F
:102E10005F4F6F4F7F4F488359836A837B83DB010A
:102E2000CA018F779070A070B0700097A105B105AE
:102E3000E1F4B901A801F9E07695679557954795B2
:102E4000FA95D1F7369527951795079500788CE474
:102E5000642F402F20E00E9432038CEB94E3019713
:102E6000F1F7488159816A817B81842F8170880FB5
:102E7000880F880F8A019B0136952795179507952E
:102E8000806460E0402F2C2D0E943203E70188818E
:102E90009981AA81BB810196A11DB11D8883998367
:102EA000AA83BB834E895F89688D798D84179507C6
:102EB000A607B70708F030CBEB85FC852FB7F89451
:102EC000808191812FBF6C01088119812A813B810A
:102ED000D901C8018F779070A070B0700097A105DC
:102EE000B10501F50150104020403040B901A80162
:102EF00089E076956795579547958A95D1F73695E8
:102F000027951795079500788CE4642F402F20E0D3
:102F10000E9432038CEB94E30197F1F70881198149
:102F20002A813B81802F8170880F880F880F36950A
:102F3000279517950795806460E0402F2D2D0E94FE
:102F40003203F7010081118122813381B901A80187
:102F50004F5F5F4F6F4F7F4F408351836283738317
:102F6000DB01CA018F779070A070B0700097A10547
:102F7000B105E9F4B901A801F9E07695679557958F
:102F80004795FA95D1F736952795179507950078C7
:102F90008CE4642F402F20E00E9432038CEB94E3FA
:102FA0000197F1F7E701488159816A817B81842F7C
:102FB0008170880F880F880F8A019B0136952795AD
:102FC00017950795806460E0402F2C2D0E943203F6
:102FD000F70180819181A281B3810196A11DB11D6C
:102FE000E70180839183A283B38346895789608DEB
:102FF000718D84179507A607B70708F08DCA058459
:10300000F685E02DAD81BE8182E0D4C90E94181101
:1030100008951F93CF93DF93EB010E944D2B182F40
:10302000CE010E944D2B87FD15C08F77412F50E0B8
:103030009A01220F331F440F551F440F551F440F91
:10304000551F240F351F280F311DC901DF91CF9166
:103050001F910895412F50E09A01220F331F440F12
:10306000551F440F551F440F551F240F351F8F77D1
:10307000281B3109C901DF91CF911F9108950F934A
:103080001F93FC013581832F90E0209197012078D8
:103090003072232BDC01AF70B070A65DBE4F3C9147
:1030A000232B807C9070009709F063C020939701D8
:1030B000808185FF4DC010921401A0911001B09144
:1030C00011011A961C92A0911201B09113011A9647
:1030D0001C921A97938181E095FF80E0A0911001E6
:1030E000B0911101E0911201F09113011B968C93A4
:1030F00083872FB7F8948091CC029091CD02A09154
:10310000CE02B091CF022FBF409162095091630966
:1031100060916409709165098C019D01041B150B78
:10312000260B370BB901A801413A1FE0510710E007
:10313000610710E0710708F07DC0809362099093E9
:103140006309A0936409B09365091F910F910895D5
:1031500081E080931401A0911001B09111011A96A1
:103160008C93A0911201B09113011A968C931A9727
:10317000B1CF2068ABE3B2E09FB7F89418968C917A
:10318000189781FD4FC018968C91189782FD4AC000
:1031900018968C911897846018968C9318979FBFF7
:1031A0008FB7F8944091CC025091CD026091CE023D
:1031B0007091CF028FBF48515C4F6F4F7F4F61704E
:1031C000707016964C93169717965C931797962FD8
:1031D000917018968C9118978E7F892B18968C93E6
:1031E000189711961C921E9281E591E013969C937C
:1031F0008E93129715961C921E92149718968C9186
:103200001897826018968C93189718968C91189737
:103210008B7F18968C93189780913A028F5F8093DA
:103220003A0244CF9FBF199632E0AB3CB30709F096
:10323000A3CF3CCF0E94FE0A1F990895CB010E94A4
:103240003F1808951F9B0895CB010E943F180895D1
:103250000F931F93CF93DF9300918E0110918F01F5
:10326000812F912F17FF03C021E02093730196FD5A
:1032700025C095FD23C0E0911001F09111018081DE
:10328000918190939B0180939A01E0911201F091BA
:10329000130180819181909399018093980180918D
:1032A0002701882309F424C1FEE00E3F1F0709F41B
:1032B0007FC0DF91CF911F910F91089590912701C9
:1032C000992339F01092270190916E009D7F909381
:1032D0006E0086FF3EC065E071E0FB01949131967F
:1032E0002491592F40E030E0242B352B30939F015F
:1032F00020939E01FB0132969491FB013396249119
:10330000592F40E030E0242B352B30939D01209342
:103310009C01FB0134969491FB0135962491592F21
:1033200040E030E0242B352B30939B0120939A0111
:10333000FB0136969491695F7F4FFB016491592F91
:1033400040E0262F30E0242B352B30939901209339
:10335000980185FFA9CFE801D070CC0FDD1FCC0FFD
:10336000DD1FCC0FDD1FCE010E94552B90939E01D7
:1033700080939F01CE0102960E94552B90939C0151
:10338000ECE9F1E08183CE0104960E94552B9093E5
:103390009A0180939B01CE0106960E94552B909333
:1033A000980180939901FEE00E3F1F0709F081CF3D
:1033B00080912701882309F0AAC08AE190E00E9449
:1033C0001E2ADC0123982B9A229A219A209A8CB5E6
:1033D00080658CBD8CB59DB58C7F9E7F81609DBDC9
:1033E0008CBD14961C92149743E052E020E63AEE0E
:1033F0007CEA63E5249A2C98852F8A95F1F72C9A1C
:10340000852F8A95F1F72C98C9010197F1F77EBDB8
:103410000DB407FEFDCF6EBD0DB407FEFDCF1EBC83
:103420000DB407FEFDCF8EB51EBC0DB407FEFDCF5B
:10343000833509F474C04150E9F614964C91149701
:103440008EE891E016969C938E9315979C012250DE
:10345000304018963C932E9317979C01245030408F
:103460001A963C932E9319979C01265030401C9637
:103470003C932E931B979C01205F3F4F1E963C93DD
:103480002E931D979C01225F3F4F50963C932E93A5
:103490001F979C01245F3F4F52963C932E93519768
:1034A0000A9654969C938E935397442309F070C0C8
:1034B00020E2822F90918F012FB7F89490939F0173
:1034C00080939E012FBFE7E8F1E0E491F0E0EE0F7A
:1034D000FF1FEE0FFF1FE458FE4FB6A3A5A386E023
:1034E00098E190A787A3DF91CF911F910F91089545
:1034F00081E08093270116BCA99A80916E008260BA
:1035000080936E0000918E0110918F01CDCE1092AC
:10351000270180916E008D7F80936E004ECF81E0F9
:1035200014968C9314978EE891E016969C938E9344
:1035300015979C012250304018963C932E93179774
:103540009C01245030401A963C932E9319979C016D
:10355000265030401C963C932E931B979C01205F75
:103560003F4F1E963C932E931D979C01225F3F4F29
:1035700050963C932E931F979C01245F3F4F529689
:103580003C932E9351970A9654969C938E935397FF
:1035900020E08FCF0E9428190895CF93DF93CDB7F5
:1035A000DEB72A970FB6F894DEBF0FBECDBF80E01E
:1035B00091E0FC01259134912115310509F469C18F
:1035C000FC016591749162957295707F7627607F9A
:1035D00076276115710591F040E050E020E030E081
:1035E000F90185919491480F591F2E5F3F4F26177F
:1035F0003707B0F34115510509F0D0C000000000B5
:1036000087E891E0FC012491E22FF0E0EE0FFF1F2C
:10361000EE0FFF1FE458FE4F16A215A22AEC3AE166
:1036200030A727A3FC013497E491F0E0EE0FFF1FD1
:10363000EE0FFF1FE458FE4F16A215A221E631E05F
:1036400030A727A30697FC018491E82FF0E0EE0F46
:10365000FF1FEE0FFF1FE458FE4F80E691E096A398
:1036600085A384E691E290A787A31092330210927B
:1036700032028CE199E190933502809334021092EA
:1036800037021092360282E299E1909339028093D8
:10369000380210921302109212028AE299E090937B
:1036A00015028093140210922302109222028AE9DA
:1036B00098E0909325028093240210921B021092AE
:1036C0001A0286EF94E090931D0280931C021092E0
:1036D0002B0210922A028BE194E090932D028093AA
:1036E0002C0210921702109216028CEC99E0909323
:1036F00019028093180210922702109226028EE679
:103700009AE0909329028093280210921F0210924F
:103710001E0289ED93E09093210280932002109283
:103720002F0210922E0284E094E090933102809355
:10373000300280912701882309F4B4C078941E8256
:103740001D8280E791E0682F98878F831A861986FB
:1037500040E05E81788580E09A8528E53BE10E9423
:10376000770383B121E030E085FD02C020E030E046
:103770008091660990E0822B932B809366090097D5
:1037800079F083B185FD0CC080E691E061E00E9494
:103790005B2B81E691E061E00E945B2B0E94FE0AB8
:1037A0003FB7F8949091600980916109981709F4E6
:1037B00069C08091600990E0DC01AA0FBB1FA80FCF
:1037C000B91FAA0FBB1FA05ABC4F8D919C91119796
:1037D0001296ED91FC91139714966C91149715968F
:1037E0007C911597209160092F5F209360093FBF5E
:1037F000309709F00995A8950BE312E006C0075F22
:103800001F4FF2E00B3C1F07D9F1D80118968C919D
:10381000189781FFF4CF2FB7F8948091CC02909144
:10382000CD02A091CE02B091CF022FBF89839A839F
:10383000AB83BC83F801908591708B818170981760
:10384000F1F62681378189819A8128173907B8F6E0
:10385000648175810280F381E02DD8018D919C9166
:103860000995F80180858D7F808780913A0281508B
:1038700080933A02075F1F4FF2E00B3C1F0729F6C7
:10388000A8956FCF60E070E0E8E4F1E080E090E0C0
:10389000AECFFC013296259134912115310509F402
:1038A000ADCE8ECE81E08093270116BCA99A80917F
:1038B0006E00826080936E0041CF9C01FC01E05A53
:1038C000FF4F1182108288E491E093838283F90193
:1038D000EC59FF4F1182108293838283F901E859DA
:1038E000FF4F1182108293838283F901E459FF4FC5
:1038F0001182108293838283F901E059FF4F118274
:10390000108293838283F901EC58FF4F1182108259
:1039100093838283F901E858FF4F118210829383C9
:103920008283F901E458FF4F1182108293838283CE
:10393000F901E058FF4F1182108293838283F901CD
:10394000EC57FF4F11821082938382838091D800BD
:1039500081608093D800E2EEF0E08091E20081780F
:103960008A608093E2008091E3008E608183809181
:10397000E40081788B6482838091ED008F70809366
:10398000ED0088EC8093EF0080E090E0A0E0B0E1F3
:103990008093F0009093F100A093F200B093F300B5
:1039A00085E0A0EEBFEF8093F4009093F500A09324
:1039B000F600B093F7008091ED008F7080618093E6
:1039C000ED0088EC8093EF0080E0A0E2B0E180930E
:1039D000F0009093F100A093F200B093F30085E023
:1039E000A0EEBFEF8093F4009093F500A093F60053
:1039F000B093F7008091ED008F7080628093ED00AE
:103A000088EC8093EF0080E0A0E8B0E18093F000C4
:103A10009093F100A093F200B093F30085E0A0EE44
:103A2000BFEF8093F4009093F500A093F600B0935D
:103A3000F7008091ED008F7080638093ED0088EC3B
:103A40008093EF0080E0A0EAB0E18093F0009093D3
:103A5000F100A093F200B093F30085E0A0EEBFEF79
:103A60008093F4009093F500A093F600B093F700D4
:103A70008091ED008F7080648093ED0088EC8093DE
:103A8000EF0080E0A0E0B0E18093F0009093F100BF
:103A9000A093F200B093F30085E0A0EEBFEF809317
:103AA000F4009093F500A093F600B093F700809196
:103AB000ED008F7080658093ED0088EC8093EF00BF
:103AC00080E0A0E2B0E18093F0009093F100A09339
:103AD000F200B093F30085E0A0EEBFEF8093F40016
:103AE0009093F500A093F600B093F7008091ED005D
:103AF0008F7080668093ED0088EC8093EF0080E00B
:103B0000A0E8B0E18093F0009093F100A093F20060
:103B1000B093F30085E0A0EEBFEF8093F4009093A4
:103B2000F500A093F600B093F7008091ED008F7040
:103B300080678093ED0088EC8093EF0080E0A0EA3E
:103B4000B0E18093F0009093F100A093F200B09365
:103B5000F30085E0A0EEBFEF8093F4009093F500B2
:103B6000A093F600B093F7008091ED008F7080680D
:103B70008093ED0088EC8093EF0080E0A0E0BAE055
:103B80008093F0009093F100A093F200B093F300C3
:103B900085E0A0EEBFEF8093F4009093F500A09332
:103BA000F600B093F7008091ED008F7080698093EC
:103BB000ED0088EC8093EF0080E0A0E0BBE0809314
:103BC000F0009093F100A093F200B093F30085E031
:103BD000A0EEBFEF8093F4009093F500A093F60061
:103BE000B093F7008091ED008F70806A8093ED00B4
:103BF00088EC8093EF0080E0A0E4BAE08093F000CE
:103C00009093F100A093F200B093F30085E0A0EE52
:103C1000BFEF8093F4009093F500A093F600B0936B
:103C2000F7008091ED008F70806B8093ED0088EC41
:103C30008093EF0080E0A0E4BBE08093F0009093DD
:103C4000F100A093F200B093F30085E0A0EEBFEF87
:103C50008093F4009093F500A093F600B093F700E2
:103C60008091ED008F70806C8093ED008091EF006B
:103C70008F738093EF008091ED008F70806D809343
:103C8000ED008091EF008F738093EF008091ED0045
:103C90008F70806E8093ED008091EF008F73809322
:103CA000EF008FEF9FE09093DF008093DE00809124
:103CB000DB00806A8093DB003093190320931803A4
:103CC00082E891E090931B0380931A038091D800BF
:103CD00082608093D8008091D90082FFFCCF089544
:103CE0002F923F924F925F926F927F928F929F920C
:103CF000AF92BF92CF92DF92EF92FF920F931F93FA
:103D0000CF93DF9300D0CDB7DEB73C011B011A8300
:103D100009834F88588CDC0111967C936E93FC01CB
:103D200012821382148215821696CD92DD92ED9244
:103D3000FC92199782869386A486B58681E0868751
:103D400085E987BD84B580788A6084BD709221033F
:103D50006092200388EF92E09093230380932203E4
:103D6000148A568B458B308F278B29813A81328F6D
:103D7000218F5B961D921D921D921C925E978AE088
:103D80005F968C935F9790961C92909792961C9258
:103D90001E92919793961C92939794961C92949747
:103DA00095961C92959796961C92969797961C922C
:103DB000979798961C92989799961C9289E090E014
:103DC0000E944D2BF82E882483948822C3B084E26D
:103DD00090E00E941E2A8C01FC0151824082B201B7
:103DE00080E090E02FE334E243E050E00E94952928
:103DF00028E630E140E050E00E94C729D801129641
:103E00002D933D934D935C93159716968C92169730
:103E100017961C92179718961C9218978C2D8095C0
:103E2000881F8827881F19968C9319971A961C92B9
:103E30001A971D961C921E921C971F961C921E92FA
:103E40001E9751961C921E92509753961C921E924A
:103E5000529755961C921E92549756961C925697BE
:103E600057961C92579759961C921E9258975B969C
:103E70001C921E925A975C961C925C9791E081105E
:103E800090E09170892F880F892BF801858F168E0D
:103E900081E0878F3C9A3D9AD30151961C930E93F3
:103EA00050978F2C86948822F3B084E290E00E9491
:103EB0001E2A8C01298D3A8DFC0131832083B901A2
:103EC00080E090E02FE334E243E050E00E94952947
:103ED00028E630E140E050E00E94C729D801129660
:103EE0002D933D934D935C93159716968C92169750
:103EF00017961C92179718961C9218978F2D881F4B
:103F00008827881F19968C9319971A961C921A97CE
:103F10001D961C921E921C971F961C921E921E9715
:103F200051961C921E92509753961C921E92529735
:103F300055961C921E92549756961C9256975796D9
:103F40001C92579759961C921E9258975B961C92FA
:103F50001E925A975C961C925C9791E0811090E0BB
:103F60009170892F880F892BF801858F168E81E03B
:103F7000878F3C9A3D9AD30153961C930E93529788
:103F8000F101B09611823C9A3D9A2FB7F89484E7DC
:103F900090E0E981FA81918380832FBF5796ED915C
:103FA000FC9158978FB7F894118210828FBFEBE382
:103FB000F2E09FB7F894808581FD48C0808582FD3E
:103FC00045C08085846080879FBF2FB7F89480911B
:103FD000CC029091CD02A091CE02B091CF022FBF22
:103FE0008C509E4FAF4FBF4FA170B07086839783A8
:103FF0009A2F917080858E7F892B80877182608255
:1040000081E295E0938382831582148280858260A9
:10401000808780858B7F808780913A028F5F809335
:104020003A020F900F90DF91CF911F910F91FF9067
:10403000EF90DF90CF90BF90AF909F908F907F9048
:104040006F905F904F903F902F9008959FBF39964B
:10405000B2E0EB3CFB0709F0ACCFE3CF2F923F92ED
:104060004F925F926F927F928F929F92AF92BF9288
:10407000CF92DF92EF92FF920F931F93CF93DF9334
:10408000CDB7DEB72B970FB6F894DEBF0FBECDBF0E
:10409000FB01C080D180E280F380C701B6012CE033
:1040A00030E040E050E00E9495296D837E838F834D
:1040B00098878EE090E00E943204880F991F880F45
:1040C000991F01972C0166247724160181E090E066
:1040D0009B878A8731C0682D592D4A2D7B2D862ECE
:1040E000952EA42EB72E281739070CF46AC04B81E1
:1040F0005C814B835C83281739070CF469C0998174
:104100008A8199838A834A855B854034510508F406
:1041100069C084E090E02A853B85289F7001299F33
:10412000F00C389FF00C1124FB86EA86A70184E08E
:104130004130580708F061C02A853B856901EE24AB
:10414000FF246D817E818F819885A70196010E9451
:10415000C72989019A010150104020403040401683
:1041600051066206730610F493018201B8016F5F75
:104170007F4F80E090E0A70196010E9495292CE0F6
:1041800030E040E050E00E94C72969017A01C40193
:104190008219930997FD2DC096012219330937FD25
:1041A00024C0281739070CF096CF6C2D5D2D4E2DAD
:1041B0007F2D862E952EA42EB72E281739070CF0AA
:1041C00096CFA8014B835C83281739070CF097CF53
:1041D0009A858B8599838A834A855B85403451050E
:1041E00008F097CF88E090E096CF309521953F4F2B
:1041F000D8CF909581959F4FCFCFEB80FC80F092E8
:104200008900E092880029813A812034310509F43F
:1042100058C02134310508F442C049815A8181E0F7
:104220004030580709F447C094E04030590709F47A
:104230003FC09985977080918100887F892B8093FA
:10424000810080918000909181008C7F977E9860A2
:1042500090938100809380008F7380938000809181
:104260006F00826080936F00B401C5012B960FB67A
:10427000F894DEBF0FBECDBFDF91CF911F910F919C
:10428000FF90EF90DF90CF90BF90AF909F908F9076
:104290007F906F905F904F903F902F9008952130C6
:1042A000310561F02830310521F6E2E0E987C1CF20
:1042B00035E03987BECF24E02987BBCF41E049876D
:1042C000B8CFF3E0F987B5CFAF92BF92CF92DF922C
:1042D000EF92FF920F931F93CF93DF9300D000D004
:1042E000CDB7DEB75C01109183018091850181FF1C
:1042F00043C0112309F440C08EE190E09093010186
:104300008093000180916F00826080936F00F501BF
:1043100081811817E1F11183E0911001F0911101F1
:104320006081718180E090E028EF36E041E050E06C
:104330000E94952928EE33E040E050E00E94C72912
:1043400069017A01212F30E040E050E0C701B60159
:104350000E94C72989019A0109831A832B833C8310
:10436000073911052105310590F0C501BE016F5FC8
:104370007F4F0E942E200BC086E090E090930101B9
:104380008093000180916F008D7F80936F0081E0AA
:10439000F50182830F900F900F900F90DF91CF91D6
:1043A0001F910F91FF90EF90DF90CF90BF90AF9053
:1043B00008954F925F926F927F928F929F92AF92E9
:1043C000BF92CF92DF92EF92FF920F931F93CF9302
:1043D000DF93CDB7DEB760970FB6F894DEBF0FBEA0
:1043E000CDBF8130910529F1009761F480911001D2
:1043F000909111010E94B42A8091120190911301B1
:104400000E94B42A60960FB6F894DEBF0FBECDBFEF
:10441000DF91CF911F910F91FF90EF90DF90CF90A0
:10442000BF90AF909F908F907F906F905F904F90D4
:104430000895E0E6F3E028E431E01182108288E498
:1044400091E033832283369649E0E036F407A9F7FA
:10445000109260091092610910925D0310925C0342
:1044600009E411E010935F0300935E031092590377
:104470001092580310935B0300935A031092550354
:104480001092540310935703009356031092510354
:1044900010925003109353030093520310924D0354
:1044A00010924C0310934F0300934E031092490354
:1044B0001092480310934B0300934A031092450354
:1044C0001092440310934703009346031092410354
:1044D00010924003109343030093420310923D0354
:1044E00010923C0310933F0300933E031092390354
:1044F0001092380310933B0300933A031092350354
:104500001092340310933703009336031092310353
:1045100010923003109333030093320310922D0353
:1045200010922C0310932F0300932E031092290353
:104530001092280310932B0300932A031092250353
:104540001092240310932703009326031092210353
:1045500010922003109323030093220310921D0353
:1045600010921C0310931F0300931E031092190353
:104570001092180310931B0300931A031092150353
:104580001092140310931703009316031092110353
:1045900010921003109313030093120310920D0353
:1045A00010920C0310930F0300930E031092090353
:1045B0001092080310930B0300930A031092050353
:1045C0001092040310930703009306031092010353
:1045D0001092000310930303009302031092FD0254
:1045E0001092FC021093FF020093FE021092F90257
:1045F0001092F8021093FB020093FA021092F50257
:104600001092F4021093F7020093F6021092ED025A
:104610001092EC021093EF020093EE021092E90266
:104620001092E8021093EB020093EA021092E50266
:104630001092E4021093E7020093E6021092E10266
:104640001092E0021093E3020093E2021092DD0266
:104650001092DC021093DF020093DE021092D90266
:104660001092D8021093DB020093DA021092D50266
:104670001092D4021093D7020093D6021092D10266
:104680001092D0021093D3020093D202109209002C
:104690002FED3EE2309399002093980020919100F5
:1046A000287F21602093910020919000309191000B
:1046B0002C7F377E386030939100209390002F73C9
:1046C000209390002BEC32E03093F1022093F00223
:1046D00023E731E03093F3022093F2021092CC02F0
:1046E0001092CD021092CE021092CF02109295003D
:1046F00010929400C19A2091710022602093710061
:1047000010923C0210923B0290933E0280933D0235
:104710001092450210924402909347028093460201
:1047200010924E0210924D029093500280934F02CD
:104730001092570210925602909359028093580299
:104740001092600210925F02909362028093610265
:10475000109269021092680290936B0280936A0231
:1047600010927202109271029093740280937302FD
:1047700010927B0210927A0290937D0280937C02C9
:104780001092840210928302909386028093850295
:1047900010928D0210928C0290938F0280938E0261
:1047A000109296021092950290939802809397022D
:1047B00010929F0210929E029093A1028093A002F9
:1047C0001092A8021092A7029093AA028093A902C5
:1047D0001092B1021092B0029093B3028093B20291
:1047E0001092BA021092B9029093BC028093BB025D
:1047F0001092C3021092C2029093C5028093C40229
:1048000082EB91E00E945D1C10927C0110927B0172
:1048100010937E0100937D0110928101109280011E
:1048200010928301109282011092850110928401EE
:1048300010928701109286011092890110928801CE
:1048400010928B0110928A0110928D0110928C01AE
:1048500010928F0110928E0110929101109290018E
:10486000109293011092920110929501109294016E
:10487000109297011092960110929901109298014E
:1048800010929B0110929A0110929D0110929C012E
:1048900010929F0110929E0151EAE52E51E0F52EF3
:1048A000D70111961C921E9213961C930E93129789
:1048B000E4E0F0E0EE0EFF1EF1EBEF16F1E0FF0694
:1048C00079F7109279011092780110927A01539A37
:1048D0005B9A52985A9A549A27982F9A01E711E0B6
:1048E0001093E1020093E0028AE197E29093E302E1
:1048F0008093E2021093D9020093D80284E493E0FB
:104900009093DB028093DA021093DD020093DC02C5
:1049100081EB92E09093DF028093DE02E8ECF0E01E
:104920008091C80082608093C8008CE08093CC00A6
:104930008091CD00807F8093CD009091C9008091BF
:10494000CA008660877882839C6C918321E0D801BD
:1049500012962C9312978091C80081608093C800B2
:104960005C9A8091C9008061818316961C928FEFBA
:104970008093B3008091B000807882608093B00013
:10498000809170008C7F8093700084E6C82E81E057
:10499000D82EC7014D9790936501809364011092C2
:1049A0006701109268011092690110926A012093C8
:1049B0006B018091940180936C0110926D01C7018D
:1049C0004C9790936F0180936E011092700110923A
:1049D00066014C2DDE82CD8282E398E0682F9887B5
:1049E0008F831A8619865E81788580E09A8520ED0E
:1049F00037E00E947703460195E2A92E93E0B92E95
:104A000026014AE4642E41E0742E82E090E06CE0DE
:104A100070E00E9409186C0182E090E06DE070E0A7
:104A20000E94091800D000D0EDB7FEB7D282C18233
:104A30009483838380E091E066E070E0A8014D5F9D
:104A40005F4F970123513040870105511040750198
:104A50006401530142010E94701E85E595E5A0E0C6
:104A6000B0E089839A83AB83BC830F900F900F9043
:104A70000F9000E611E0C801BE016F5F7F4F0E94FA
:104A80002E2010933103009330038AEB94E090932F
:104A9000330380933203402F1C870B8785ED97E00B
:104AA000682F9E878D87188A1F865C857E8580E0AB
:104AB000988928EE33E00E947703A4CCCF93DF934C
:104AC000DC01C8ECD0E08091C8008871B1F0809121
:104AD000C9008091CE008091C80081608093C80099
:104AE0005C9A8091C9008061E8ECF0E081831696C1
:104AF0001C921697DF91CF9108959091C9009695D9
:104B000091708091CE00282F22952F70E92FF0E030
:104B1000E295F295F07FFE27E07FFE27E65CFE4FF0
:104B2000E20FF11D30818317B1F616968C9116971E
:104B3000913009F094C08823B9F506C0843009F09B
:104B4000FBC016961C921697922F990F990F990FEA
:104B500019968C9119978770892B19968C931997B0
:104B60008091C8008E7F8093C80016968C9116970E
:104B7000823009F498C0833009F712968C9112970D
:104B8000882309F4A8CF12968C9112978F5F129602
:104B90008C93129712968C911297853009F09BCFC7
:104BA00012961C92129797CF813011F719969C910B
:104BB0001997906819969C9319978F5F16968C9306
:104BC0001697883009F096CF8091C8008160809355
:104BD000C8005C9A8091C9008061E8ECF0E08183B4
:104BE00016961C9216971996EC911997F0E0E057DB
:104BF000FE4FE491EF77F0E017968D919C91189716
:104C0000DF01AA0FBB1FA058BE4F8C9311969C9337
:104C100011978091B10180FD6DCF8091B1018260CB
:104C20008093B1017894E058FE4FE491AE2FB0E04C
:104C3000AA0FBB1FAA0FBB1FA458BE4F9796ED919A
:104C4000FC91989795968D919C9196970995809156
:104C5000B1018D7F8093B101DF91CF9108958823B9
:104C600009F439CF8130D9F08230E9F0833009F48A
:104C7000B8C0843009F060C018961C921E92179735
:104C80002295207F18969C9118979F70922B1896CA
:104C90009C9318978F5F16968C9316972BCF82E074
:104CA00016968C931697822F86958695817091E043
:104CB0001F9B90E0891709F00ECF922F969596953D
:104CC0009695990F990F19968C911997887F237053
:104CD000892B822B19968C93199712968C91129787
:104CE000882309F066C0C8ECD0E08091C9008F7EAF
:104CF00089835C981396EC911397F0E0EF70F07055
:104D0000E65CFE4F80818093CE0083E016968C9304
:104D100016971996EC911997F0E0E057FE4FE49141
:104D2000E7FD20C081E015968C9315971092B20094
:104D300016968C91169741CF853009F43EC0863087
:104D400009F444C0873009F038CF17968C91179733
:104D5000807F822B17968C93179788E016968C93FA
:104D6000169732CF9091B101969591708091B101D3
:104D70008E7F892B8093B101F0E0EF77F070EE0F1A
:104D8000FF1FE058FE4F2FB7F894808191812FBF0D
:104D900018969C938E93179717968D919C911897C0
:104DA0008C9311969C931197F8948091C90080621E
:104DB000898316968C91169700CF18969C91189718
:104DC000907F922B18969C93189764CF2295207F02
:104DD00017969C9117979F70922B17969C931797F5
:104DE00059CF1996EC911997F0E0E057FE4FE491F6
:104DF000E7FF50CF9091B101969591708091B101EC
:104E00008E7F892B8093B101F0E0EF77F070EE0F89
:104E1000FF1FE058FE4F2FB7F894808191812FBF7C
:104E200018969C938E9317978091C9008F7E8983E3
:104E30005C98B2CF0E945E2508958F929F92AF92A8
:104E4000BF92CF92DF92EF92FF920F931F93CF9377
:104E5000DF93EC01FB0180819F81981721F0888509
:104E60008F5F888780818F83808190E0FC013C96F2
:104E7000EE0FFF1FEC0FFD1F008111810996880FB7
:104E8000991F8C0F9D1FFC01C080D1800894C10820
:104E9000D108EE24FF246881798180E090E024EA43
:104EA00036E840E050E00E94952924E630E040E0FA
:104EB00050E00E94C729C701B6010E9495296801E8
:104EC000EE24FF24A70196010E94C72949018C8581
:104ED0009D85B901681B790BFDEF63317F0714F4E1
:104EE00063E17DEFA888B988C501B7FC40C09595FE
:104EF0008795959587958C01000F111F080F191F35
:104F000082E06E3E780714F06DEE72E0882777FD40
:104F10008095982F2EEC36E540E050E00E949529D0
:104F2000A70196010E94E929C801820F931F9501EC
:104F3000280F391F37FD1DC0022E232F000C221F02
:104F4000330B000C221F331F3F872E87998B888BD2
:104F50009D868C86DF91CF911F910F91FF90EF90EE
:104F6000DF90CF90BF90AF909F908F900895039661
:104F7000BECF215C3F4FE0CFCF93DF93FC01EB012D
:104F8000A881B0E01C96AA0FBB1FA80FB91F1D92E5
:104F90001C92A881B0E01996AA0FBB1FA80FB91FD9
:104FA00011961C921E921586148681E0878F1786B3
:104FB0001686118A108A168EDF91CF910895AF92CE
:104FC000BF92CF92DF92EF92FF920F931F93CF93F6
:104FD000DF930F92CDB7DEB78C01FC01808D918DF0
:104FE0000196918F808F228D338D2F5F3F4F338FAE
:104FF000228F6370448D40954623648F442309F4C7
:10500000B8C046954983A42FB0E0FD013996EE0F54
:10501000FF1FE00FF11F80819181019691838083B2
:10502000F801EA0FFB1F26892F5F268BFD013C96B6
:10503000EE0FFF1FE00FF11F8130910509F4C0C092
:10504000A080B180E1E0F0E0442311F0E0E0F0E086
:105050003996EE0FFF1FE00FF11F208131812817D5
:10506000390708F0A9C0F801C280D380E480F58038
:10507000F0E0AF16F0E1BF0608F45BC0F80152851E
:10508000552309F4A2C0821B930B97FDA9C021E010
:10509000823091050CF4A8C0F801268FCD01860F4F
:1050A000911D959587958170958D292F2695217055
:1050B000821709F491C0880F9D7F982BF801958F76
:1050C0008289938991A380A38489958993A382A3DC
:1050D000C801BE016F5F7F4F0E941D27F801178E28
:1050E0004981A42FB0E0FD013996EE0FFF1FE00FBC
:1050F000F11F81E090E091838083FD013C96EE0FEB
:10510000FF1FE00FF11F11821082442311F080E095
:1051100090E0FC013996EE0FFF1FE00FF11F1182A6
:1051200010820C96880F991F800F911FFC0111822D
:105130001082F8018185882371F0A00FB11F569667
:105140008C91569790E08F709070009721F44423D3
:1051500009F440C0359AB601C7010F90DF91CF9195
:105160001F910F91FF90EF90DF90CF90BF90AF9085
:105170000895198220E00DC02F5F29832230C0F4EA
:10518000E22FF0E03C96EE0FFF1FE00FF11F808151
:105190009181F0E481309F0778F3C801BE016F5F11
:1051A0007F4F0E94BC2729812F5F2983223040F343
:1051B000CC24DD247601CFCFCC24DD24760158CF5A
:1051C00011821082AA24BB243DCF8430910508F4BB
:1051D000B0CF59CF349ABFCF9E7F982B958F6BCF8E
:1051E000909581959F4F53CF20E056CFCF92DF927D
:1051F000EF92FF920F931F93CF93DF93EC018B01FC
:105200006370888999890E94DF276B017C01B8014E
:1052100076956795769567958A899B890E94DF27A1
:105220002BA1222311F06B017C01C114D104E104F4
:10523000F10499F18B8D9C8DAD8DBE8D8C0D9D1DD6
:10524000AE1DBF1D8B8F9C8FAD8FBE8FED89FE89EC
:10525000A0838B8D9C8DAD8DBE8DAC01BD0114E105
:1052600076956795579547951A95D1F7042F28A1FC
:10527000421771F0E885F9858E819F810995EC854B
:10528000FD858A859B8509958B8D9C8DAD8DBE8D09
:1052900008A38A2F9F8DA91749F0DF91CF911F9105
:1052A0000F91FF90EF90DF90CF900895865F8F8FE2
:1052B000EBA1F0E03896EE0FFF1FEC0FFD1F019001
:1052C000F081E02D638570E0458D417050E02681CE
:1052D00030E081E090E04217530711F080E090E069
:1052E0006817790761F08A819B81AC81BD81019744
:1052F000A109B1098A839B83AC83BD83CECF8A8108
:105300009B81AC81BD810196A11DB11D8A839B83C8
:10531000AC83BD83C2CF81E090E00E94D921089583
:1053200080E090E00E94D9210895629FD001739F90
:10533000F001829FE00DF11D649FE00DF11D929F31
:10534000F00D839FF00D749FF00D659FF00D992770
:10535000729FB00DE11DF91F639FB00DE11DF91F94
:10536000BD01CF011124089597FB092E07260AD00D
:1053700077FD04D049D006D000201AF470956195CD
:105380007F4F0895F6F7909581959F4F0895A1E27C
:105390001A2EAA1BBB1BFD010DC0AA1FBB1FEE1FAF
:1053A000FF1FA217B307E407F50720F0A21BB30BFA
:1053B000E40BF50B661F771F881F991F1A9469F776
:1053C00060957095809590959B01AC01BD01CF01D2
:1053D000089597FB092E05260ED057FD04D0D7DF80
:1053E0000AD0001C38F450954095309521953F4FD8
:1053F0004F4F5F4F0895F6F79095809570956195A2
:105400007F4F8F4F9F4F0895AA1BBB1B51E107C0D1
:10541000AA1FBB1FA617B70710F0A61BB70B881F44
:10542000991F5A95A9F780959095BC01CD010895D3
:10543000EE0FFF1F0590F491E02D0994CF93DF93B9
:10544000AC018230910510F442E050E0E09169092E
:10545000F0916A0920E030E0A0E0B0E024C0808153
:10546000918184179507D0F08417950771F4828194
:105470009381109729F013969C938E9312972CC0CA
:1054800090936A098093690927C02115310519F0A5
:105490008217930718F49C01BD01EF01928183816B
:1054A000DF01E92FF82F3097D1F621153105F9F0FA
:1054B000C901841B950B8430910580F48A819B81FE
:1054C0006115710521F0FB019383828304C09093E1
:1054D0006A0980936909FE01329642C0FE01E80F15
:1054E000F91F4193519302979983888339C0809122
:1054F000670990916809009741F480915C0190914F
:105500005D01909368098093670920915A01309159
:105510005B012115310541F42DB73EB780915E0145
:1055200090915F01281B390BE0916709F0916809A0
:10553000E217F30798F42E1B3F0B2417350770F082
:10554000CA0102962817390748F08E0F9F1F9093C3
:105550006809809367094193519302C0E0E0F0E04D
:10556000CF01DF91CF9108950F931F93CF93DF93D6
:105570009C01009709F48CC0DC01129713961C92D1
:105580001E9212976091690970916A0961157105FF
:1055900089F48D919C911197820F931F2091670937
:1055A000309168092817390769F5B0936809A09305
:1055B00067096EC0FB0140E050E001C0FC01EA1742
:1055C000FB0730F482819381AF010097B9F71FC0C8
:1055D000E9012297FB83EA8308811981C901800FC1
:1055E000911F8E179F0759F480819181800F911F21
:1055F000029699838883828193819B838A83411554
:10560000510529F4B0936A09A093690941C0FA01D0
:10561000B383A283C191D191EC0FFD1FAE17BF07D9
:1056200081F4F901929182918C0F9D1F0296DA010B
:1056300011969C938E938281938113969C938E9363
:105640001297E0E0F0E002C0FB01BC01DB01129622
:105650008D919C9113970097B9F7CB0102962D91EC
:105660003C911197820F931F20916709309168092F
:105670002817390769F4309729F410926A091092B3
:10568000690902C0138212827093680960936709E6
:10569000DF91CF911F910F910895F999FECF92BD9F
:1056A00081BDF89A992780B50895A8E1B0E042E05D
:1056B00050E00C946E2B262FF999FECF92BD81BD40
:1056C000F89A019700B4021631F020BD0FB6F89495
:1056D000FA9AF99A0FBE0895DC01CB01FC01F99901
:1056E000FECF06C0F2BDE1BDF89A319600B40D922E
:1056F00041505040B8F7089510E0C6E9D0E004C02A
:10570000FE010E941A2A2296C839D107C9F7F894D7
:02571000FFCFC9
:10571200FFFF000000000000000000000000000089
:105722000000000000000000000000000000000077
:105732000000000000000000000010080402010840
:1057420000000008040201010101001F2E314D5228
:10575200637C8C93A2BDC1DEEFF00B14253A46594F
:1057620068778798A9B6CAD5E4FB00006B092000C8
:0400000300000110E8
:00000001FF
