:100000000C9488000C944B0D0C94760D0C94A10D5F
:100010000C94CC0D0C94F70D0C94220E0C944D0EF8
:100020000C94780E0C94A30E0C94CE0E0C94F90E36
:100030000C94240F0C944F0F0C947A0F0C94A50F72
:100040000C94D00F0C94FB0F0C9426100C945110B0
:100050000C947C100C94A7100C94D2100C94FD10EE
:100060000C9428110C9453110C947E110C94A9112A
:100070000C94D4110C94FF110C942A120C94551268
:100080000C9480120C94AB120C94D6120C940113A5
:080090000C942C1312341734F8
:1001000000000000007B191101010000A7DFD9FDEC
:1001100011241FBECFEFD0E1DEBFCDBF11E0A0E0C4
:10012000B1E0E0E2FCE602C005900D92A637B1070F
:10013000D9F719E0A6E7B1E001C01D92A33EB107CF
:10014000E1F73C9A3D9A449A459A2DE088E190E087
:100150000FB6F894A895809360000FBE20936000BE
:10016000259810E0C6E9D0E004C02297FE010E9465
:10017000A134C439D107C9F70E94321F0C94033649
:100180000001000203000000040000000000000065
:100190000000000000000000908F8E8D080706050B
:1001A000000000000000000000000000000000004F
:1001B000000000000000000000000000000000003F
:1001C000000000000000000000000000000000002F
:1001D000000000000000000000000000000000001F
:1001E0008C8B8A89040300000000000000000000DE
:1001F00000000000000000000200000100000000FC
:1002000000000000000000000000000000000000EE
:1002100000000000000000000000000000000000DE
:1002200000000000000000000000000000000000CE
:1002300000000000000000000000000000000000BE
:1002400000000000000000000000000000000000AE
:10025000000000000000000000000000000000009E
:10026000000000000000000000000000000000008E
:10027000000000000000000000000000000000007E
:10028000000000000000000000000000000000006E
:10029000089508954FB7F8945FB7F8942091C1027C
:1002A0003091C20281E090E002C0880F991F6A95E8
:1002B000E2F780959095822393239093C2028093D6
:1002C000C1025FBF4FBF0895FC0184858F3F11F0CD
:1002D0008F5F848708952FB7F8943FB7F894809183
:1002E000C5029091C6029F779093C6028093C50283
:1002F0003FBF2FBF08958091B6028970893031F0D9
:1003000010927C0181E080938101089581E08093C7
:100310007C010895809103028093950280910402EC
:10032000809396028091050280939702809100024B
:1003300080939B028091010280939C028091020233
:1003400080939D020895109213010895FC0141814C
:100350005281638174814F5F5F4F6F4F7F4F418345
:100360005283638374830895FC0186818430F1F0A5
:10037000853059F18630B1F1873019F08F5F86836F
:100380000895A081B181AF70B070A05BBE4F8C9119
:100390008093CE008091C9008F7DA8ECB0E01196CB
:1003A0008C93119786818F5F868308952181822F98
:1003B00082958F7090E0805B9E4FDC018C918093E2
:1003C000CE0086818F5F86830895A181B0E0AF70F3
:1003D000B070A05BBE4F8C918093CE0086818F5F02
:1003E00086830895A081B181B295A295AF70AB27A5
:1003F000BF70AB27ECCF1F9B11C0FB01908181E048
:1004000080937D01E0917A01F0917B0180818F7D65
:10041000808380917E01890F80937E0108951F99CA
:1004200011C0FB01908181E080937D01E0917A0110
:10043000F0917B0180818F7D808380917E01890F87
:1004400080937E010895FC018281882341F002841B
:10045000F385E02D80818F3F11F08F5F80830895B9
:100460000F931F93CF93DF938B01FB018081893022
:1004700009F1813021F1C82FD0E0CC0FDD1FCC0F66
:10048000DD1FC05EDF4FCE01F80164810E94E235BE
:10049000CE010196F80163810E94E235CE010296F9
:1004A000F80162810E94E235CE010396F801618174
:1004B0000E94E235DF91CF911F910F91089587E15E
:1004C000FB018083CCE5D0E0DCCF8EBD0DB407FE10
:1004D000FDCF6EBD0DB407FEFDCF4EBD0DB407FEC2
:1004E000FDCF2EBD0DB407FEFDCF8EB50895FC01E6
:1004F0005C9AA8ECB0E08091C900806111968C9361
:1005000011978091B20096819830B1F0958199232E
:1005100091F01582813968F0805990E0880F991F19
:1005200063E070E00E944F348481861720F4648376
:1005300008958EEF848308958091C8008160809330
:10054000C8005C9A8091C900806111968C931197C4
:10055000168208950F931F93CF93DF9300D000D09E
:100560000F92CDB7DEB7FB018081893009F446C018
:10057000813009F443C0082F10E0000F111F000F55
:10058000111F005E1F4F8983C80103960E94D43556
:100590008A83C80102960E94D4358B83C8010196D4
:1005A0000E94D4358C83C8010E94D4358D838091FC
:1005B000DC009091DD0084FD21C080E48093ED009B
:1005C00080E090E0A0E6B2E68093F0009093F10026
:1005D000A093F200B093F30089818093FA008A819E
:1005E0008093FA008B818093FA008C818093FA00CB
:1005F0008D818093FA0085E48093EF000F900F9037
:100600000F900F900F90DF91CF911F910F91089550
:10061000CF93DF9300D000D000D0CDB7DEB74983B1
:100620005A836B837C838D839E83E6EEF2E09FB7D3
:10063000F894808581FD3DC0808582FD3AC080852B
:10064000846080879FBF4FB7F89480914103909159
:100650004203A0914303B09144034FBFA90160E05E
:1006600070E0480F591F6A1F7B1F617070704683CE
:100670005783962F917080858E7F892B8087CF013D
:10068000AE014F5F5F4F26E0DA010D90AD01DC0156
:100690000D92CD012150C1F78085826080878085D1
:1006A0008B7F80878091E5028F5F8093E50281E0F8
:1006B00008C09FBF3996B3E0E034FB0709F0B7CF1D
:1006C00080E026960FB6F894DEBF0FBECDBFDF9157
:1006D000CF910895CF93DF93AC016091ED008091AD
:1006E000EC00807F8093ED008091EE008F7D809301
:1006F000EE00B091EF00BF702091F2002295269598
:1007000027703091F300732F770F770F770F872FB4
:10071000822B932F929596959770880F991F8295AB
:100720009295907F9827807F98278B0F911D29E0C5
:100730008530920709F472C07AE08830970709F48F
:100740003DC1EAE088349E0709F43CC1FBE08830F3
:100750009F0709F448C12BE08834920709F436C199
:100760007EE08130970709F445C1ECE081309E07B7
:1007700009F44EC1F0E180309F0709F450C120E137
:100780008038920709F452C170E18130970709F46B
:1007900038C1E0E181389E0709F44FC1F0E18032B1
:1007A0009F0709F451C120E1803A920709F453C12F
:1007B00070E18132970709F455C1E0E1813A9E0763
:1007C00009F454C1F8E1873E9F0709F459C122E4B6
:1007D0008832920709F458C17AE48534970709F4FE
:1007E0005DC1E2E685309E0709F46AC1F2E685360E
:1007F0009F0709F461C12DE88730920709F458C1B9
:1008000078E88530970709F463C1EAE885309E07E8
:1008100009F45AC12FEF30E07FEF03C020E030E051
:1008200070E078947F3F09F4BDC0BB2381F0F901EB
:10083000EE0FFF1FEE0FFF1FEE0FFF1FE40FF51F60
:1008400070E0A091FA00A1937F5F7B17D0F3F2E6EE
:1008500085309F0709F462C079E08530970709F475
:10086000BCC0EAE485349E0709F4BAC0F2E68536D6
:100870009F0709F4BCC07EE08130970709F4AAC045
:10088000EDE887309E0709F4C0C0F8E885309F077F
:1008900009F4C2C07AE88530970709F4C4C0EAE0D9
:1008A00088309E0709F4AAC0FBE088309F0709F44E
:1008B000C1C078E1873E970709F4C3C0E0E180300A
:1008C0009E0709F4C5C0F0E180389F0709F4C7C04E
:1008D00070E18032970709F4CDC0E0E1803A9E07CD
:1008E00009F4CBC0F0E181309F0709F4D4C070E176
:1008F0008138970709F4CCC0E0E181329E0709F402
:10090000D4C0F0E1813A9F0709F4CCC07CE081308B
:10091000970709F047C083E190E002C080E090E0D3
:10092000E901CC0FDD1FCC0FDD1FCC0FDD1FC40F85
:10093000D51F7FB7F8942091D8092F5F2093D8094D
:100940002091D7093091D7093F5F3093D709E091C3
:10095000D6093E1751F43091D6093F5F3093D6093E
:100960003091D80931503093D8097FBF30E08E964E
:10097000880F991F880F991F840F951FFC01808194
:100980009181A281B381F901EE0FFF1FE20FF31FE6
:10099000EE0FFF1FEB52FC4F81839283A383B4833E
:1009A000D683C583F8948091EF008F73806880931D
:1009B000EF006093ED00DF91CF91089521E030E0EA
:1009C00071E02FCF22E030E072E02BCF24E030E066
:1009D00074E027CF84E090E0A3CF81E090E0A0CF47
:1009E00082E090E09DCF23E030E073E01ACF83E017
:1009F00090E096CF25E030E075E013CF88E090E0FE
:100A00008FCF29E030E079E00CCF85E090E088CF0F
:100A100026E030E076E005CF86E090E081CF27E069
:100A200030E077E0FECE87E090E07ACF28E030E05B
:100A300078E0F7CE89E090E073CF2AE030E07AE00A
:100A4000F0CE8AE090E06CCF2BE030E07BE0E9CEA6
:100A50008BE090E065CF2CE030E07CE0E2CE8CE0F3
:100A600090E05ECF2DE030E07DE0DBCE2EE030E0A8
:100A70007EE0D7CE8DE090E053CF8EE090E050CF77
:100A80002FE030E07FE0CDCE20E130E070E1C9CE54
:100A900080E190E045CF8FE090E042CF21E130E06F
:100AA00071E1BFCE82E190E03BCF81E190E038CFB1
:100AB00024E130E074E1B5CE23E130E073E1B1CE62
:100AC00022E130E072E1ADCE26E130E076E1A9CE60
:100AD00025E130E075E1A5CE009721F421E030E07A
:100AE000C90108958130910521F422E030E0C90167
:100AF00008958230910519F424E030E0F1CF83307D
:100B0000910519F428E030E0EBCF8430910519F419
:100B100020E130E0E5CF8530910519F420E230E0A6
:100B2000DFCF8630910519F420E430E0D9CF21E001
:100B300030E08730910559F480E890E0A901489FA2
:100B40009001499F300D589F300D1124C9CF883036
:100B5000910519F480E091E0F1CF322F2227330F75
:100B60008930910509F4BCCF8A30910519F4220F20
:100B7000331FB6CF8B30910529F4220F331F220F7C
:100B8000331FAECF8C30910539F4220F331F220F63
:100B9000331F220F331FA4CF8D30910539F42295D6
:100BA0003295307F3227207F32279ACF8E309105C1
:100BB00049F4220F331F22953295307F3227207F50
:100BC00032278ECFAC01495050408F30910551F4FF
:100BD0000024369527950794369527950794322F4C
:100BE000202D7ECFCA01A5CFDC01ED91FC9111979C
:100BF00040A19FB7F8948091D8098F5F8093D8095E
:100C00002091D7098091D7098F5F8093D7093091C0
:100C1000D6098317C9F09FBF30E0C901880F991F1B
:100C2000820F931F880F991FFC01EA52FC4FB1837A
:100C3000A08321E733E333832283FC01EB52FC4F93
:100C400045831682789408958091D6098F5F8093AA
:100C5000D6098091D80981508093D809DCCF9FB7FD
:100C6000F8948091D8098F5F8093D8092091D70993
:100C70008091D7098F5F8093D7093091D609831768
:100C8000C1F09FBF30E0C901880F991F820F931FE9
:100C9000880F991FFC01EA52FC4F1182108220EF4D
:100CA00036E0338322838B529C4FFC0116821582DF
:100CB00008958091D6098F5F8093D6098091D809D5
:100CC00081508093D809DDCF1F9B25C02FB7F894A2
:100CD00060914103709142038091430390914403DA
:100CE0002FBF2AE030E040E050E00E946234909153
:100CF0007F0120937F0181E080937D01E0917A0163
:100D0000F0917B0180818F7D808380917E01891BA2
:100D1000820F80937E0108951F9925C02FB7F89404
:100D20006091410370914203809143039091440389
:100D30002FBF2AE030E040E050E00E946234909102
:100D40007F0120937F0181E080937D01E0917A0112
:100D5000F0917B0180818F7D808380917E01891B52
:100D6000820F80937E010895FC0183818823E1F442
:100D7000F0990DC0F09A8EB386958695869580FD84
:100D80000DC0F39A838191E0892783830895F098B9
:100D90008EB386958695869580FFF3CFF3988381F1
:100DA00091E08927838308958EB3869580FD0CC0DA
:100DB000F19A8EB38695869580FD0CC0F29A838158
:100DC00091E0892783830895F1988EB3869586955F
:100DD00080FFF4CFF298838191E08927838308957F
:100DE0005FB7F8944091D909842F90E0FC01EE0F91
:100DF000FF1FE80FF91FE157FD4F6181728180915C
:100E0000C20290E08F709070242F2295207F30E0F6
:100E1000822B932B90819093C1028093C202709396
:100E2000BF026093C0025FBF4F5F4093D909453056
:100E300009F008951092D9090895EF92FF920F9347
:100E40001F93CF93DF9300D000D00F92CDB7DEB7C2
:100E50007B01FB010081093009F46CC0013009F409
:100E600075C010E0000F111F000F111F005E1F4F13
:100E7000C801F70164810E94E235C8010196F701BB
:100E800063810E94E235C8010296F70162810E94E7
:100E9000E235C8010396F70161810E94E235F7014E
:100EA0008081893009F446C0813009F443C0082F9D
:100EB00010E0000F111F000F111F005E1F4F8983EC
:100EC000C80103960E94D4358A83C80102960E9405
:100ED000D4358B83C80101960E94D4358C83C80118
:100EE0000E94D4358D838091DC009091DD0084FDDB
:100EF00021C080E48093ED0080E090E0A0E6B2E6BF
:100F00008093F0009093F100A093F200B093F3006F
:100F100089818093FA008A818093FA008B81809383
:100F2000FA008C818093FA008D818093FA0085E429
:100F30008093EF000F900F900F900F900F90DF9124
:100F4000CF911F910F91FF90EF90089587E1FB01E2
:100F500080830CE510E08ACF0F931F93CF93DF932C
:100F6000CDB7DEB72F970FB6F894DEBF0FBECDBF5B
:100F7000E6EEF2E03FB7F894208521FDDAC0208547
:100F800022FDD7C02085246020873FBF2FB7F8946B
:100F90004091410350914203609143037091440397
:100FA0002FBF4C505E4F6F4F7F4F61707070468304
:100FB0005783362F317020852E7F232B20879183F6
:100FC00080838CEA97E093838283158214828085E4
:100FD0008260808780858B7F80878091E5028F5F2C
:100FE0008093E50211E0FE01319687E0DF011D925A
:100FF0008A95E9F788E690E00E94D4358A8380E3F9
:1010000090E00E94D4358B8384E590E00E94D43533
:101010008C838CE690E00E94D4358D838DE690E041
:101020000E94D435082F88E590E00E94DC3564E604
:1010300070E00E943B34079500270795062B0E832E
:1010400088E390E00E94D4358F838091DC009091FA
:10105000DD0082FD1BC080E28093ED0089818093DA
:10106000FA008A818093FA008B818093FA008C8148
:101070008093FA008D818093FA008E818093FA002C
:101080008F818093FA0087E48093EF00FE01389609
:1010900088E0DF011D928A95E9F789E690E00E94D9
:1010A000D435898788E690E00E94D4358A878DE41C
:1010B00090E00E94D4358B878CE490E00E94D43578
:1010C0008C871D878091E5028E878091A2028F8791
:1010D0008091DC009091DD0083FD1EC080E3809351
:1010E000ED0088858093FA0089858093FA008A85CF
:1010F0008093FA008B858093FA008C858093FA00A8
:101100008D858093FA008E858093FA008F85809379
:10111000FA0088E48093EF001092A2022F960FB697
:10112000F894DEBF0FBECDBFDF91CF911F910F911D
:1011300008953FBF3996B3E0E034FB0709F01ACFBA
:1011400010E051CFFC0183818823E9F4A081B181B3
:101150008C91982F9F71943009F491C0983019F0B8
:10116000807880618C932C911F996EC08091DC00F7
:101170009091DD0084FD08C080E48093ED0080E064
:1011800090E0A0EC6DC01382A6EEB2E09FB7F89499
:1011900018968C91189781FD4FC018968C911897CE
:1011A00082FD4AC018968C911897846018968C938B
:1011B00018979FBF8FB7F894409141035091420315
:1011C00060914303709144038FBF4053584F6F4F5A
:1011D0007F4F6170707016964C93169717965C93BC
:1011E0001797962F917018968C9118978E7F892B50
:1011F00018968C9318971196FC93EE9382EA98E0D8
:1012000013969C938E93129715961C921E92149788
:1012100018968C911897826018968C931897189648
:101220008C9118978B7F18968C9318978091E50274
:101230008F5F8093E50208959FBF199683E0A034E5
:10124000B80709F0A3CF08958091DC009091DD00EC
:1012500084FD9ACF80E48093ED0080E090E0A0EEE2
:10126000B9E98093F0009093F100A093F200B0935D
:10127000F3002093FA0081E48093EF0085CF881F6C
:101280008827881F809587958827879588608C9305
:101290006ACFDC018091B20281FF44C012968C912A
:1012A0001297882309F43EC012961C921297E6EE1C
:1012B000F2E09FB7F894808581FD40C0808582FD73
:1012C0003DC08085846080879FBF8FB7F894409130
:1012D00041035091420360914303709144038FBFD7
:1012E00048515C4F6F4F7F4F6170707046835783DA
:1012F000962F917080858E7F892B8087B183A08304
:1013000089E499E0938382831582148280858260C8
:10131000808780858B7F80878091E5028F5F8093B7
:10132000E502089586E090E090930101809300012A
:1013300080916F008D7F80936F00B6CF9FBF3996ED
:1013400083E0E034F80709F0B4CF08951092D50394
:10135000E6EEF2E09FB7F894808581FD34C0808589
:1013600082FD31C08085846080879FBF2FB7F8944D
:101370008091410390914203A0914303B0914403B3
:101380002FBF805F984DAF4FBF4FA170B070868365
:1013900097839A2F917080858E7F892B8087118209
:1013A000108286EA99E09383828315821482808575
:1013B0008260808780858B7F80878091E5028F5F48
:1013C0008093E50208959FBF399683E0E034F807E3
:1013D00009F0C0CF08951F9B0895FB01908181E023
:1013E00080937D01E0917A01F0917B0180818062A0
:1013F000808350917E01590F50937E01943208F4FE
:1014000042C060918001662309F04CC0550F509393
:101410007E01408140784066446010928001852FB3
:101420008459893108F060C04F7780918201E09142
:101430007A01F0917B01481709F45BC080818F7BB2
:1014400080834093820110927E0120811F993FC0CA
:101450008091DC009091DD0084FDBECF80E480931C
:10146000ED0080E090E0A0ECB9E98093F00090936B
:10147000F100A093F200B093F3002093FA0081E40E
:101480008093EF000895809180018F5FAAE7B1E01B
:1014900016968C931697833009F09ECF80818F7BB0
:1014A0008083089540814078406622E030E0261B2A
:1014B000310981E090E002C0880F991F2A95E2F778
:1014C0008F71482B633008F4A8CF4F7BA6CF809153
:1014D000DC009091DD0084FD7FCF80E48093ED00FF
:1014E00080E090E0A0EEC0CF5D5A5A31C8F4406869
:1014F0009CCF46FFA6CF8081842787FD13C08091B3
:10150000810110928601882329F0E0918401F091F5
:1015100085011082E0917A01F0917B01408391CFA7
:101520004F7B83CF80918101882331F0109281011C
:1015300010928601408385CFE0918401F09185016E
:10154000809186018083DBCF1F9908952FB7F8948F
:101550006091410370914203809143039091440351
:101560002FBF2AE030E040E050E00E9462348091DA
:101570007F01922F981B20937F0181E080937D0152
:10158000E0917A01F0917B018081806280835091AB
:101590007E01590F50937E01943208F442C060914D
:1015A0008001662309F049C0550F50937E014081A8
:1015B00040784066446010928001852F84598931BB
:1015C00008F05DC04F7780918201E0917A01F0913F
:1015D0007B01481709F458C080818F7B808340933A
:1015E000820110927E0120811F993CC08091DC0015
:1015F0009091DD0084FDA9CF80E48093ED0080E030
:1016000090E0A0ECB9E98093F0009093F100A093F2
:10161000F200B093F3002093FA0081E48093EF008E
:101620000895809180018F5F80938001833009F05D
:101630008CCF80818F7B8083089540814078406685
:1016400022E030E0261B310981E090E002C0880FE3
:10165000991F2A95E2F78F71482B633008F4ABCFBE
:101660004F7BA9CF8091DC009091DD0084FD6DCF90
:1016700080E48093ED0080E090E0A0EEC3CF5D5A5F
:101680005A31C8F440689FCF46FFA9CF8081842794
:1016900087FD13C08091810110928601882329F073
:1016A000E0918401F09185011082E0917A01F0913E
:1016B0007B01408394CF4F7B86CF8091810188232B
:1016C00031F01092810110928601408388CFE09121
:1016D0008401F0918501809186018083DBCF1F9981
:1016E0000895FB01908181E080937D01E0917A0172
:1016F000F0917B0180818062808350917E01590F3F
:1017000050937E01943208F442C0609180016623B8
:1017100009F04CC0550F50937E01408140784066DF
:10172000446010928001852F8459893108F060C08F
:101730004F7780918201E0917A01F0917B01481707
:1017400009F45BC080818F7B80834093820110927B
:101750007E0120811F993FC08091DC009091DD00C7
:1017600084FDBECF80E48093ED0080E090E0A0ECAB
:10177000B9E98093F0009093F100A093F200B09348
:10178000F3002093FA0081E48093EF0008958091A4
:1017900080018F5FAAE7B1E016968C93169783308D
:1017A00009F09ECF80818F7B8083089540814078AF
:1017B000406622E030E0261B310981E090E002C063
:1017C000880F991F2A95E2F78F71482B633008F430
:1017D000A8CF4F7BA6CF8091DC009091DD0084FDE7
:1017E0007FCF80E48093ED0080E090E0A0EEC0CF5A
:1017F0005D5A5A31C8F440689CCF46FFA6CF80811D
:10180000842787FD13C0809181011092860188236F
:1018100029F0E0918401F09185011082E0917A0134
:10182000F0917B01408391CF4F7B83CF80918101E9
:10183000882331F01092810110928601408385CF78
:10184000E0918401F0918501809186018083DBCF56
:101850001F9B08952FB7F894609141037091420344
:1018600080914303909144032FBF2AE030E040E091
:1018700050E00E94623480917F01922F981B209348
:101880007F0181E080937D01E0917A01F0917B01FD
:1018900080818062808350917E01590F50937E0138
:1018A000943208F442C060918001662309F049C077
:1018B000550F50937E0140814078406644601092FD
:1018C0008001852F8459893108F05DC04F77809160
:1018D0008201E0917A01F0917B01481709F458C028
:1018E00080818F7B80834093820110927E012081D2
:1018F0001F993CC08091DC009091DD0084FDA9CF50
:1019000080E48093ED0080E090E0A0ECB9E9809362
:10191000F0009093F100A093F200B093F3002093B5
:10192000FA0081E48093EF000895809180018F5F39
:1019300080938001833009F08CCF80818F7B8083FE
:10194000089540814078406622E030E0261B31094E
:1019500081E090E002C0880F991F2A95E2F78F710D
:10196000482B633008F4ABCF4F7BA9CF8091DC00CC
:101970009091DD0084FD6DCF80E48093ED0080E0E8
:1019800090E0A0EEC3CF5D5A5A31C8F440689FCFB3
:1019900046FFA9CF8081842787FD13C080918101F4
:1019A00010928601882329F0E0918401F09185014D
:1019B0001082E0917A01F0917B01408394CF4F7BBC
:1019C00086CF80918101882331F01092810110929D
:1019D0008601408388CFE0918401F0918501809158
:1019E00086018083DBCFF89428E088E190E00FB691
:1019F000F894A895809360000FBE209360000000CB
:101A0000FECF1F990895FB0180818230D9F7818133
:101A10008330C1F7828182FDF5CF2FB7F894809192
:101A2000410390914203A0914303B09144032FBF1F
:101A300089352BE1920720E0A20720E0B20710F3DE
:101A400080913D018823F1F20E94F30C1F9B0895C1
:101A5000FB0180818230D9F781818330C1F7828197
:101A600082FDF5CF2FB7F894809141039091420306
:101A7000A0914303B09144032FBF89352BE1920716
:101A800020E0A20720E0B20710F380913D018823F7
:101A9000F1F20E94F30C1F920F920FB60F921124D5
:101AA0002F933F934F935F936F937F938F939F9366
:101AB000AF93BF93EF93FF93E091D303F091D403DF
:101AC0008091D1039091D2030995FF91EF91BF913D
:101AD000AF919F918F917F916F915F914F913F91C6
:101AE0002F910F900FBE0F901F9018951F920F927D
:101AF0000FB60F9211242F933F934F935F936F93E1
:101B00007F938F939F93AF93BF93EF93FF93E09156
:101B1000CF03F091D0038091CD039091CE0309952E
:101B2000FF91EF91BF91AF919F918F917F916F91B5
:101B30005F914F913F912F910F900FBE0F901F908B
:101B400018951F920F920FB60F9211242F933F9367
:101B50004F935F936F937F938F939F93AF93BF93B5
:101B6000EF93FF93E091CB03F091CC038091C903F5
:101B70009091CA030995FF91EF91BF91AF919F9109
:101B80008F917F916F915F914F913F912F910F9026
:101B90000FBE0F901F9018951F920F920FB60F92C5
:101BA00011242F933F934F935F936F937F938F9362
:101BB0009F93AF93BF93EF93FF93E091C703F0918F
:101BC000C8038091C5039091C6030995FF91EF91D9
:101BD000BF91AF919F918F917F916F915F914F9145
:101BE0003F912F910F900FBE0F901F9018951F924D
:101BF0000F920FB60F9211242F933F934F935F9341
:101C00006F937F938F939F93AF93BF93EF93FF93C4
:101C1000E091C303F091C4038091C1039091C2038A
:101C20000995FF91EF91BF91AF919F918F917F9116
:101C30006F915F914F913F912F910F900FBE0F9039
:101C40001F9018951F920F920FB60F9211242F9389
:101C50003F934F935F936F937F938F939F93AF9334
:101C6000BF93EF93FF93E091BF03F091C003809186
:101C7000BD039091BE030995FF91EF91BF91AF9184
:101C80009F918F917F916F915F914F913F912F9194
:101C90000F900FBE0F901F9018951F920F920FB6C6
:101CA0000F9211242F933F934F935F936F937F93E2
:101CB0008F939F93AF93BF93EF93FF93E091BB03F9
:101CC000F091BC038091B9039091BA030995FF91FB
:101CD000EF91BF91AF919F918F917F916F915F91A4
:101CE0004F913F912F910F900FBE0F901F9018951D
:101CF0001F920F920FB60F9211242F933F934F9381
:101D00005F936F937F938F939F93AF93BF93EF9363
:101D1000FF93E091B703F091B8038091B5039091E0
:101D2000B6030995FF91EF91BF91AF919F918F916C
:101D30007F916F915F914F913F912F910F900FBEC7
:101D40000F901F9018951F920F920FB60F921124AB
:101D50002F933F934F935F936F937F938F939F93B3
:101D6000AF93BF93EF93FF93E091B303F091B4036C
:101D70008091B1039091B2030995FF91EF91BF91CA
:101D8000AF919F918F917F916F915F914F913F9113
:101D90002F910F900FBE0F901F9018951F920F92CA
:101DA0000FB60F9211242F933F934F935F936F932E
:101DB0007F938F939F93AF93BF93EF93FF93E091A4
:101DC000AF03F091B0038091AD039091AE030995FC
:101DD000FF91EF91BF91AF919F918F917F916F9103
:101DE0005F914F913F912F910F900FBE0F901F90D9
:101DF00018951F920F920FB60F9211242F933F93B5
:101E00004F935F936F937F938F939F93AF93BF9302
:101E1000EF93FF93E091AB03F091AC038091A903A2
:101E20009091AA030995FF91EF91BF91AF919F9176
:101E30008F917F916F915F914F913F912F910F9073
:101E40000FBE0F901F9018951F920F920FB60F9212
:101E500011242F933F934F935F936F937F938F93AF
:101E60009F93AF93BF93EF93FF93E091A703F091FC
:101E7000A8038091A5039091A6030995FF91EF9186
:101E8000BF91AF919F918F917F916F915F914F9192
:101E90003F912F910F900FBE0F901F9018951F929A
:101EA0000F920FB60F9211242F933F934F935F938E
:101EB0006F937F938F939F93AF93BF93EF93FF9312
:101EC000E091A303F091A4038091A1039091A20358
:101ED0000995FF91EF91BF91AF919F918F917F9164
:101EE0006F915F914F913F912F910F900FBE0F9087
:101EF0001F9018951F920F920FB60F9211242F93D7
:101F00003F934F935F936F937F938F939F93AF9381
:101F1000BF93EF93FF93E0919F03F091A003809113
:101F20009D0390919E030995FF91EF91BF91AF9111
:101F30009F918F917F916F915F914F913F912F91E1
:101F40000F900FBE0F901F9018951F920F920FB613
:101F50000F9211242F933F934F935F936F937F932F
:101F60008F939F93AF93BF93EF93FF93E0919B0366
:101F7000F0919C038091990390919A030995FF91A8
:101F8000EF91BF91AF919F918F917F916F915F91F1
:101F90004F913F912F910F900FBE0F901F9018956A
:101FA0001F920F920FB60F9211242F933F934F93CE
:101FB0005F936F937F938F939F93AF93BF93EF93B1
:101FC000FF93E0919703F09198038091950390918E
:101FD00096030995FF91EF91BF91AF919F918F91DA
:101FE0007F916F915F914F913F912F910F900FBE15
:101FF0000F901F9018951F920F920FB60F921124F9
:102000002F933F934F935F936F937F938F939F9300
:10201000AF93BF93EF93FF93E0919303F0919403F9
:1020200080919103909192030995FF91EF91BF9157
:10203000AF919F918F917F916F915F914F913F9160
:102040002F910F900FBE0F901F9018951F920F9217
:102050000FB60F9211242F933F934F935F936F937B
:102060007F938F939F93AF93BF93EF93FF93E091F1
:102070008F03F091900380918D0390918E030995C9
:10208000FF91EF91BF91AF919F918F917F916F9150
:102090005F914F913F912F910F900FBE0F901F9026
:1020A00018951F920F920FB60F9211242F933F9302
:1020B0004F935F936F937F938F939F93AF93BF9350
:1020C000EF93FF93E0918B03F0918C038091890350
:1020D00090918A030995FF91EF91BF91AF919F91E4
:1020E0008F917F916F915F914F913F912F910F90C1
:1020F0000FBE0F901F9018951F920F920FB60F9260
:1021000011242F933F934F935F936F937F938F93FC
:102110009F93AF93BF93EF93FF93E0918703F09169
:10212000880380918503909186030995FF91EF9133
:10213000BF91AF919F918F917F916F915F914F91DF
:102140003F912F910F900FBE0F901F9018951F92E7
:102150000F920FB60F9211242F933F934F935F93DB
:102160006F937F938F939F93AF93BF93EF93FF935F
:10217000E0918303F0918403809181039091820325
:102180000995FF91EF91BF91AF919F918F917F91B1
:102190006F915F914F913F912F910F900FBE0F90D4
:1021A0001F9018951F920F920FB60F9211242F9324
:1021B0003F934F935F936F937F938F939F93AF93CF
:1021C000BF93EF93FF93E0917F03F09180038091A1
:1021D0007D0390917E030995FF91EF91BF91AF919F
:1021E0009F918F917F916F915F914F913F912F912F
:1021F0000F900FBE0F901F9018951F920F920FB661
:102200000F9211242F933F934F935F936F937F937C
:102210008F939F93AF93BF93EF93FF93E0917B03D3
:10222000F0917C038091790390917A030995FF9155
:10223000EF91BF91AF919F918F917F916F915F913E
:102240004F913F912F910F900FBE0F901F901895B7
:102250001F920F920FB60F9211242F933F934F931B
:102260005F936F937F938F939F93AF93BF93EF93FE
:10227000FF93E0917703F09178038091750390913B
:1022800076030995FF91EF91BF91AF919F918F9147
:102290007F916F915F914F913F912F910F900FBE62
:1022A0000F901F9018951F920F920FB60F92112446
:1022B0002F933F934F935F936F937F938F939F934E
:1022C000AF93BF93EF93FF93E0917303F091740387
:1022D00080917103909172030995FF91EF91BF91E5
:1022E000AF919F918F917F916F915F914F913F91AE
:1022F0002F910F900FBE0F901F9018951F920F9265
:102300000FB60F9211242F933F934F935F936F93C8
:102310007F938F939F93AF93BF93EF93FF93E0913E
:102320006F03F091700380916D0390916E03099596
:10233000FF91EF91BF91AF919F918F917F916F919D
:102340005F914F913F912F910F900FBE0F901F9073
:1023500018951F920F920FB60F9211242F933F934F
:102360004F935F936F937F938F939F93AF93BF939D
:10237000EF93FF93E0916B03F0916C0380916903FD
:1023800090916A030995FF91EF91BF91AF919F9151
:102390008F917F916F915F914F913F912F910F900E
:1023A0000FBE0F901F9018951F920F920FB60F92AD
:1023B00011242F933F934F935F936F937F938F934A
:1023C0009F93AF93BF93EF93FF93E0916703F091D7
:1023D000680380916503909166030995FF91EF91E1
:1023E000BF91AF919F918F917F916F915F914F912D
:1023F0003F912F910F900FBE0F901F9018951F9235
:102400000F920FB60F9211242F933F934F935F9328
:102410006F937F938F939F93AF93BF93EF93FF93AC
:10242000E0916303F09164038091610390916203F2
:102430000995FF91EF91BF91AF919F918F917F91FE
:102440006F915F914F913F912F910F900FBE0F9021
:102450001F9018951F920F920FB60F9211242F9371
:102460003F934F935F936F937F938F939F93AF931C
:10247000BF93EF93FF93E0915F03F091600380912E
:102480005D0390915E030995FF91EF91BF91AF912C
:102490009F918F917F916F915F914F913F912F917C
:1024A0000F900FBE0F901F9018951F920F920FB6AE
:1024B0000F9211242F933F934F935F936F937F93CA
:1024C0008F939F93AF93BF93EF93FF93E0915B0341
:1024D000F0915C038091590390915A030995FF9103
:1024E000EF91BF91AF919F918F917F916F915F918C
:1024F0004F913F912F910F900FBE0F901F90189505
:102500001F920F920FB60F9211242F933F934F9368
:102510005F936F937F938F939F93AF93BF93EF934B
:10252000FF93E0915703F0915803809155039091E8
:1025300056030995FF91EF91BF91AF919F918F91B4
:102540007F916F915F914F913F912F910F900FBEAF
:102550000F901F9018951F920F920FB60F92112493
:102560002F933F934F935F936F937F938F939F939B
:10257000AF93BF93EF93FF93E0915303F091540314
:1025800080915103909152030995FF91EF91BF9172
:10259000AF919F918F917F916F915F914F913F91FB
:1025A0002F910F900FBE0F901F9018951F920F92B2
:1025B0000FB60F9211242F933F934F935F936F9316
:1025C0007F938F939F93AF93BF93EF93FF93E0918C
:1025D0004F03F091500380914D0390914E03099564
:1025E000FF91EF91BF91AF919F918F917F916F91EB
:1025F0005F914F913F912F910F900FBE0F901F90C1
:1026000018951F920F920FB60F9211242F933F939C
:102610004F935F936F937F938F939F93AF93BF93EA
:10262000EF93FF93E0914B03F0914C0380914903AA
:1026300090914A030995FF91EF91BF91AF919F91BE
:102640008F917F916F915F914F913F912F910F905B
:102650000FBE0F901F9018951F920F920FB60F92FA
:1026600011242F933F934F935F936F937F938F9397
:102670009F93AF93BF93EF93FF93E0914703F09144
:10268000480380914503909146030995FF91EF918E
:10269000BF91AF919F918F917F916F915F914F917A
:1026A0003F912F910F900FBE0F901F9018958F9212
:1026B0009F92AF92BF92CF92DF92EF92FF920F93D1
:1026C0001F93CF93DF937C01DC011596ED91FC9174
:1026D000169780812181813209F448C28232D0F07C
:1026E000813309F46DC2823308F4A3C1833309F442
:1026F00071C2833308F088C282E3F701858B0584B9
:10270000F685E02D82E0922F2FB7F8949183808395
:102710002FBFE7C1813109F429C2823108F0A9C174
:10272000833009F457C2843009F412C2882309F0B7
:10273000D8C1E7018D89813209F4C4C5823208F419
:1027400067C2813309F463C4823309F45CC4823202
:1027500009F0C7C1E701EF81F8852FB7F8948081B0
:1027600091812FBFD82E092F488159816A817B81A1
:10277000DB01CA0187709070A070B0700097A1054E
:10278000B105A9F4DB01CA010197A109B1099F7044
:102790004150487F82EC692F20E00E94650288E763
:1027A00099E60197F1F7488159816A817B814770E9
:1027B00081EC60E0202F0E946502E7018881998109
:1027C000AA81BB818C019D010F5F1F4F2F4F3F4F8F
:1027D000088319832A833B83B901A801477050708D
:1027E00060707070411551056105710589F4692F9C
:1027F0006F70402F4150487F82EC20E00E946502BC
:1028000088E799E60197F1F7088119812A813B81D0
:10281000402F477081EC60E02D2D0E946502E7019A
:1028200088819981AA81BB810196A11DB11D8883F0
:102830009983AA83BB83E985FA852FB7F8948081B1
:1028400091812FBFD82E092F488159816A817B81C0
:10285000DB01CA0187709070A070B0700097A1056D
:10286000B105A9F4DB01CA010197A109B1099F7063
:102870004150487F82EC692F20E00E94650288E782
:1028800099E60197F1F7488159816A817B81477008
:1028900081EC60E0202F0E946502F7018081918128
:1028A000A281B3818C019D010F5F1F4F2F4F3F4FBE
:1028B000E7010083118322833383B901A8014770A4
:1028C000507060707070411551056105710589F493
:1028D000692F6F70402F4150487F82EC20E00E94AA
:1028E000650288E799E60197F1F7088119812A8145
:1028F0003B81402F477081EC60E02D2D0E946502E6
:10290000E70188819981AA81BB810196A11DB11D32
:1029100088839983AA83BB83EB85FC852FB7F894C2
:10292000808191812FBFD82E092F488159816A81DA
:102930007B81DB01CA0187709070A070B070009736
:10294000A105B105A9F4DB01CA010197A109B109EB
:102950009F704150487F82EC692F20E00E94650201
:1029600088E799E60197F1F7488159816A817B816F
:10297000477081EC60E0202F0E946502F7018081A2
:102980009181A281B3818C019D010F5F1F4F2F4F59
:102990003F4FE7010083118322833383B901A801EC
:1029A0004770507060707070411551056105710578
:1029B00089F4692F6F70402F4150487F82EC20E0EE
:1029C0000E94650288E799E60197F1F7088119816D
:1029D0002A813B81402F477081EC60E02D2D0E94C1
:1029E0006502E70188819981AA81BB818C019D01E3
:1029F0000F5F1F4F2F4F3F4FF701088319832A8323
:102A00003B834E895F89688D798D041715072607EA
:102A1000370708F4E0C2692F6F70402F4150487F9C
:102A200082EC20E00E94650288E799E60197F1F7C1
:102A3000DFC2833209F4CEC0833208F45FC084322F
:102A400009F04FC0E701488159816A817B81DB0130
:102A5000CA010197A109B1099F704150487F82ECDA
:102A6000692F20E00E94650288E799E60197F1F757
:102A700049C0833109F4AEC0833108F041C082E11E
:102A8000F701858B0780F085E02D8FB7F8944081A2
:102A900051818FBFD7011996ED91FC911A978FB78D
:102AA000F894208131818FBFE701EB85FC856FB7FA
:102AB000F894808191816FBF588349833A831B8248
:102AC0002E8B9F8B888F198EED85FE85AD81BE8103
:102AD00082E011969C9111972FB7F894918380838F
:102AE0002FBFDF91CF911F910F91FF90EF90DF905B
:102AF000CF90BF90AF909F908F90089582E2C0CF0B
:102B0000843179F7F70140815181628173814150AD
:102B10005040604070408A019B01A9E0369527959E
:102B200017950795AA95D1F7769567955795479587
:102B300040788CE4602F20E00E9465028CEB94E3E7
:102B40000197F1F7D7011596ED91FC911697218128
:102B5000E701ED85FE8584E0922F2FB7F8949183ED
:102B600080832FBF24982C9A0E94F30CF701858B49
:102B70000780F085E02D8FB7F894408151818FBF99
:102B8000D7011996ED91FC911A978FB7F89420818F
:102B900031818FBFE701EB85FC856FB7F8948081A9
:102BA00091816FBF588349833A831B822E8B9F8B01
:102BB000888F198EED85FE85AD81BE8181E089CF3C
:102BC000D70155968C9355971D96ED91FC911E97C4
:102BD00081E099CDE701ED85FE8583E0922F2FB747
:102BE000F894918380832FBF8CEA60E840E020E076
:102BF0000E94650288E799E60197F1F7ED85FE8569
:102C0000AD81BE8180E065CF843309F06ACFA0CF6B
:102C1000813109F42CC2823109F063CFEF81F8854C
:102C20002FB7F894808191812FBF6C01E701088153
:102C300019812A813B81D901C8018F779070A070DA
:102C4000B0700097A105B10509F501501040204072
:102C500030404801590149E0B694A794979487946D
:102C60004A95D1F7B901A80176956795579547958B
:102C700040788CE4682D20E00E9465028CEB94E3A0
:102C80000197F1F7088119812A813B81802F81709A
:102C9000880F880F880F36952795179507958064BC
:102CA00060E0402F2D2D0E946502D7010D911D91EE
:102CB0002D913C91B901A8014F5F5F4F6F4F7F4F3E
:102CC000E701488359836A837B83DB01CA018F77DD
:102CD0009070A070B0700097A105B105E9F44801AB
:102CE0005901A9E0B694A79497948794AA95D1F72F
:102CF000B901A801769567955795479540788CE47A
:102D0000682D20E00E9465028CEB94E30197F1F7B7
:102D1000488159816A817B81842F8170880F880F57
:102D2000880F8A019B013695279517950795806432
:102D300060E0402F2C2D0E946502E7018881998177
:102D4000AA81BB810196A11DB11D88839983AA83A5
:102D5000BB83E985FA852FB7F894808191812FBFD5
:102D60006C01088119812A813B81D901C8018F77C3
:102D70009070A070B0700097A105B10509F50150E1
:102D80001040204030404801590149E0B694A794D2
:102D9000979487944A95D1F7B901A80176956795DC
:102DA0005795479540788CE4682D20E00E94650295
:102DB0008CEB94E30197F1F7088119812A813B811B
:102DC000802F8170880F880F880F3695279517956B
:102DD0000795806460E0402F2D2D0E946502F70169
:102DE0000081118122813381B901A8014F5F5F4FBA
:102DF0006F4F7F4F4083518362837383DB01CA012E
:102E00008F779070A070B0700097A105B105F1F4B4
:102E100048015901A9E0B694A79497948794AA957C
:102E2000D1F7B901A80176956795579547954078F0
:102E30008CE4682D20E00E9465028CEB94E30197FE
:102E4000F1F7E701488159816A817B81842F817084
:102E5000880F880F880F8A019B0136952795179553
:102E60000795806460E0402F2C2D0E946502F701D9
:102E700080819181A281B3810196A11DB11DE701DD
:102E800080839183A283B3830384F485E02D2FB7DD
:102E9000F894808191812FBF6C01088119812A816A
:102EA0003B81D901C8018F779070A070B0700097F6
:102EB000A105B10509F501501040204030404801FE
:102EC000590149E0B694A794979487944A95D1F70D
:102ED000B901A801769567955795479540788CE498
:102EE000682D20E00E9465028CEB94E30197F1F7D6
:102EF000088119812A813B81802F8170880F880F7A
:102F0000880F3695279517950795806460E0402FC8
:102F10002D2D0E946502E701088119812A813B81DC
:102F2000B901A8014F5F5F4F6F4F7F4F48835983AF
:102F30006A837B83DB01CA018F779070A070B070C9
:102F40000097A105B105E9F448015901B9E0B6942B
:102F5000A79497948794BA95D1F7B901A80176956B
:102F600067955795479540788CE4682D20E00E943E
:102F700065028CEB94E30197F1F7488159816A81EE
:102F80007B81842F8170880F880F880F8A019B01B5
:102F90003695279517950795806460E0402F2C2D76
:102FA0000E946502E701488159816A817B81DB01CA
:102FB000CA010196A11DB11DF70188839983AA83D7
:102FC000BB830E891F89288D398D80179107A20731
:102FD000B30708F000C2A585B6850580F681E02D0F
:102FE00082E091812FB7F89411969C938E932FBF16
:102FF000D7011D96ED91FC911E9715960D90BC91F1
:10300000A02D80E066CDED85FE8580E07CCB0F8431
:10301000D889C02D88E568E040E020E00E94650284
:10302000082F80E560E040E020E00E946502202F4C
:10303000382F8FB7F894398328838FBFD7015196E3
:10304000CD91DC91529780E568E040E020E00E945D
:10305000650220E0382F8FB7F894398328838FBF1B
:10306000E701ED85FE85AD81BE8180E032CDF701BF
:103070000F84D889C02D0081118122813381802F56
:103080008170880F880F880FB901A80199E07695A3
:103090006795579547959A95D1F736952795179542
:1030A00007958062642F402F20E00E946502D82E91
:1030B000D7010D911D912D913C910F5F1F4F2F4F07
:1030C0003F4FF7010083118322833383802F817068
:1030D000880F880F880FB901A80199E07695679548
:1030E000579547959A95D1F7369527951795079552
:1030F0008062642F402F20E00E946502D7014D912D
:103100005D916D917C9113974F5F5F4F6F4F7F4F34
:10311000F7014083518362837383282F3D2D8FB73E
:10312000F894398328838FBF5196CD91DC915297C3
:103130000D911D912D913C91802F8170880F880FEA
:10314000880FB901A80199E076956795579547953D
:103150009A95D1F736952795179507958062642F34
:10316000402F20E00E946502D82EF70100811181D6
:10317000228133810F5F1F4F2F4F3F4F00831183F9
:1031800022833383802F8170880F880F880FB901C5
:10319000A80199E076956795579547959A95D1F747
:1031A00036952795179507958062642F402F20E06C
:1031B0000E946502F70140815181628173814F5FF6
:1031C0005F4F6F4F7F4F4083518362837383282FFC
:1031D0003D2D8FB7F894398328838FBFC389D48955
:1031E0000081118122813381802F8170880F880FA7
:1031F000880FB901A80199E076956795579547958D
:103200009A95D1F736952795179507958062642F83
:10321000402F20E00E946502D82ED7010D911D910C
:103220002D913C910F5F1F4F2F4F3F4FF7010083B0
:10323000118322833383802F8170880F880F880F3A
:10324000B901A80199E076956795579547959A95A4
:10325000D1F736952795179507958062642F402FF3
:1032600020E00E946502D7014D915D916D917C91A6
:1032700013974F5F5F4F6F4F7F4FF701408351832D
:1032800062837383282F3D2D8FB7F8943983288369
:103290008FBF4D915D916D917C91139756968D9155
:1032A0009D910D90BC91A02D84179507A607B70797
:1032B00008F49ECEE7010584F685E02DAD81BE8140
:1032C00081E007CCF7010F84D889C02D408161814E
:1032D000677080EA20E00E946502D82ED7010D9128
:1032E0001D912D913C910F5F1F4F2F4F3F4FF701C5
:1032F0000083118322833383612F677080EA402F1C
:1033000020E00E946502D7014D915D916D917C9105
:1033100013974F5F5F4F6F4F7F4FF701408351838C
:1033200062837383282F3D2D8FB7F89439832883C8
:103330008FBF5196CD91DC9152974C9111966C9123
:10334000677080EA20E00E946502D82EF7010081B4
:103350001181228133810F5F1F4F2F4F3F4F008319
:10336000118322833383612F677080EA402F20E02E
:103370000E946502F70140815181628173814F5F34
:103380005F4F6F4F7F4F4083518362837383282F3A
:103390003D2D8FB7F894398328838FBFC389D48993
:1033A00040816181677080EA20E00E946502D82E2A
:1033B000D7010D911D912D913C9113970F5F1F4FD8
:1033C0002F4F3F4FF7010083118322833383612FF7
:1033D000677080EA44CF8A019B01E9E03695279522
:1033E00017950795EA95D1F776956795579547957F
:1033F00040788CE4602F20E00E9465028CEB94E31F
:103400000197F1F7F5CD0E9457130895CF93DF93FD
:1034100000D000D00F92CDB7DEB7209127023091B7
:103420002802243051F0203141F00F900F900F907E
:103430000F900F90DF91CF910895353019F136300C
:1034400009F4BDC03D3009F470C03E3009F447C0F6
:10345000333059F7203149F780ED89831A821B8276
:103460001C821D821F9BD2C08091DC009091DD00E8
:1034700084FDDBCF80E48093ED0080E090E0A0E865
:10348000B6EC78C082E091E0FC0154913996449109
:10349000DE011196FD0111923A95E9F70396FC01C0
:1034A00084918A83852F90E0841B9109541B592BAA
:1034B0005D83243009F480C0203109F0B6CF1F9914
:1034C00097C08091DC009091DD0084FDAECF80E458
:1034D0008093ED0080E090E0A0E6B6EC4BC01F9B2F
:1034E000A4CF80ED898387E790E00E94D4358A835A
:1034F00086E790E00E94D4358B8385E790E00E94B8
:10350000D4358C8384E790E00E94D4358D838091FC
:10351000DC009091DD0084FD88CF80E48093ED0095
:1035200080E090E0A0E0BAE925C01F997ECF80ED51
:10353000898387E790E00E94D4358A8386E790E00C
:103540000E94D4358B8385E790E00E94D4358C832C
:1035500084E790E00E94D4358D838091DC009091C7
:10356000DD0084FD62CF80E48093ED0080E090E098
:10357000A0E0B8E98093F0009093F100A093F200EE
:10358000B093F30089818093FA008A818093FA00D6
:103590008B818093FA008C818093FA008D818093D7
:1035A000FA0085E48093EF000F900F900F900F903A
:1035B0000F90DF91CF9108951F99A9CFCECF84E7C7
:1035C00090E060912C020E94E23585E790E06091E6
:1035D0002B020E94E23586E790E060912A020E9469
:1035E000E23587E790E0609129020E94E2351DCF25
:1035F0008091DC009091DD0084FD17CF80E4809302
:10360000ED0080E090E0A0E8B6ECB4CF8091DC0063
:103610009091DD0084FD09CF80E48093ED0080E08F
:1036200090E0A0E6B6ECA6CFCB010E94061A089562
:103630008091B70186FF09C08F73853209F44AC0B3
:10364000863220F4813209F491C00895873209F45A
:10365000CCC08932D1F72FB7F8943FB7F894809156
:10366000C1029091C20291609093C2028093C10204
:103670003FBF2FBFE6EEF2E09FB7F894808581FD53
:10368000FAC0808582FDF7C08085846080879FBFF7
:103690002FB7F8948091410390914203A091430386
:1036A000B09144032FBF88519C4FAF4FBF4FA170C3
:1036B000B070868397839A2F917080858E7F892B37
:1036C0008087118210828AE491E09383828388E06C
:1036D00090E03EC02FB7F8943FB7F8948091C102B4
:1036E0009091C20294609093C2028093C1023FBF46
:1036F0002FBFE6EEF2E09FB7F894808581FDC3C04E
:10370000808582FDC0C08085846080879FBF2FB781
:10371000F8948091410390914203A0914303B091AA
:1037200044032FBF88519C4FAF4FBF4FA170B07063
:10373000868397839A2F917080858E7F892B8087CF
:10374000118210828AE491E0938382838AE090E080
:103750009583848380858260808780858B7F808746
:103760008091E5028F5F8093E50208952FB7F8946A
:103770003FB7F8948091C1029091C20292609093F9
:10378000C2028093C1023FBF2FBFE6EEF2E09FB7B7
:10379000F894808581FD7FC0808582FD7CC0808516
:1037A000846080879FBF2FB7F894809141039091E8
:1037B0004203A0914303B09144032FBF88519C4F13
:1037C000AF4FBF4FA170B070868397839A2F9170CF
:1037D00080858E7F892B8087118210828AE491E018
:1037E0009383828389E090E0B3CF2FB7F8943FB7FB
:1037F000F8948091C1029091C20298609093C202A5
:103800008093C1023FBF2FBFE6EEF2E09FB7F8946E
:10381000808581FD29C0808582FD26C080858460E9
:1038200080879FBF2FB7F894809141039091420306
:10383000A0914303B09144032FBF88519C4FAF4FD9
:10384000BF4FA170B070868397839A2F9170808547
:103850008E7F892B8087118210828AE491E0938386
:1038600082838BE090E074CF9FBF399683E0E03491
:10387000F80761F608959FBF399683E0E034F807B2
:1038800009F0FACE08959FBF399683E0E034F80737
:1038900009F031CF08959FBF399683E0E034F807EF
:1038A00009F075CF0895CB010E94181B08951F934E
:1038B000CF93DF93EB010E94D435182FCE010E94E5
:1038C000D43587FD15C08F77412F50E09A01220F24
:1038D000331F440F551F440F551F440F551F240F0E
:1038E000351F280F311DC901DF91CF911F91089518
:1038F000412F50E09A01220F331F440F551F440FF0
:10390000551F440F551F240F351F8F77281B310972
:10391000C901DF91CF911F9108950F931F93FC016F
:10392000828180938F028181809390022381822FF4
:1039300090E0807C9070959587959595879590817E
:103940009F74982B90939102822F8F709091930285
:10395000892B809393028481809394023581832FF5
:1039600090E02091C60220783072232BDC01AF70EA
:10397000B070A05CBE4F3C91232B807C9070009770
:1039800009F05FC02093C602908181E095FD80E040
:10399000809312012FB7F8948091410390914203D4
:1039A000A0914303B09144032FBF4091DA09509195
:1039B000DB096091DC097091DD098C019D01041B1C
:1039C000150B260B370BB901A801413A1FE051072F
:1039D00010E0610710E0710708F094C08093DA09E5
:1039E0009093DB09A093DC09B093DD09868181FD0A
:1039F00024C02FB7F8948091410390914203A09185
:103A00004303B09144032FBF89352BE1920720E097
:103A1000A20720E0B20770F080913D01882351F0A9
:103A200080913E01882309F46DC080913F01882375
:103A300009F468C01F910F910895878186FDFACF20
:103A4000D8CF2068A6EEB2E09FB7F89418968C9174
:103A5000189781FD4FC018968C91189782FD4AC027
:103A600018968C911897846018968C9318979FBF1E
:103A70008FB7F89440914103509142036091430302
:103A8000709144038FBF48515C4F6F4F7F4F6170FF
:103A9000707016964C93169717965C931797962FFF
:103AA000917018968C9118978E7F892B18968C930D
:103AB000189711961C921E928BE691E013969C9398
:103AC0008E93129715961C921E92149718968C91AD
:103AD0001897826018968C93189718968C9118975F
:103AE0008B7F18968C9318978091E5028F5F809357
:103AF000E50248CF9FBF199633E0A034B30709F021
:103B0000A3CF40CF0E94F30C1F990895CB010E94D0
:103B10008D1C08951F9B0895CB010E948D1C089554
:103B20000F931F93CF93DF930091BD021091BE02BC
:103B3000812F912F17FF03C021E02093A00296FD53
:103B400025C095FD23C0E0911501F09116018081FB
:103B500091819093CA028093C902E0911701F0917C
:103B60001801808191819093C8028093C70280914F
:103B70003D01882309F421C1FEE00E3F1F0709F42F
:103B80007CC0DF91CF911F910F91089590913D01DD
:103B9000992339F010923D0190916E009D7F909392
:103BA0006E0086FF3BC065E071E0FB0194913196A9
:103BB0002491592F40E030E0242B352B3093CE0256
:103BC0002093CD02FB0132969491FB013396249110
:103BD000592F40E030E0242B352B3093CC0220933A
:103BE000CB02FB013496A591B4914B2F50E03A2FB4
:103BF00020E0242B352B3093CA022093C9026A5F40
:103C00007F4FFB0165917491272F30E0562F40E0E4
:103C1000242B352B3093C8022093C70285FFACCFED
:103C2000E801D070CC0FDD1FCC0FDD1FCC0FDD1FE6
:103C3000CE010E94DC359093CD028093CE02CE015E
:103C400002960E94DC359093CB02EBECF2E081838C
:103C5000CE0104960E94DC359093C9028093CA027B
:103C6000CE0106960E94DC359093C7028093C8026D
:103C7000FEE00E3F1F0709F084CF80913D018823AD
:103C800009F0AAC08AE190E00E94A534DC012398E3
:103C90002B9A229A219A209A8CB580658CBD8CB57E
:103CA0009DB58C7F9E7F81609DBD8CBD14961C92BE
:103CB000149743E052E020E63AEE7CEA63E5249A6A
:103CC0002C98852F8A95F1F72C9A852F8A95F1F7F4
:103CD0002C98C9010197F1F77EBD0DB407FEFDCF09
:103CE0006EBD0DB407FEFDCF1EBC0DB407FEFDCFAB
:103CF0008EB51EBC0DB407FEFDCF833509F474C02C
:103D00004150E9F614964C9114978DEB92E016967B
:103D10009C938E9315979C012250304018963C93AB
:103D20002E9317979C01245030401A963C932E9363
:103D300019979C01265030401C963C932E931B975C
:103D40009C01205F3F4F1E963C932E931D979C0134
:103D5000225F3F4F50963C932E931F979C01245F08
:103D60003F4F52963C932E9351970A9654969C93AC
:103D70008E935397442309F070C020E2822F9091D4
:103D8000BE022FB7F8949093CE028093CD022FBF3E
:103D9000E8E8F1E0E491F0E0EE0FFF1FEE0FFF1F07
:103DA000E755FD4FB0A7A7A383E09AE192A781A7AB
:103DB000DF91CF911F910F91089581E080933D0194
:103DC00016BCA99A80916E00826080936E0000916B
:103DD000BD021091BE02D0CE10923D0180916E00C6
:103DE0008D7F80936E004ECF81E014968C93149754
:103DF0008DEB92E016969C938E9315979C01225022
:103E0000304018963C932E9317979C0124503040D5
:103E10001A963C932E9319979C01265030401C967D
:103E20003C932E931B979C01205F3F4F1E963C9323
:103E30002E931D979C01225F3F4F50963C932E93EB
:103E40001F979C01245F3F4F52963C932E935197AE
:103E50000A9654969C938E93539720E08FCF0E949E
:103E6000901D0895CF93DF93CDB7DEB76B970FB654
:103E7000F894DEBF0FBECDBF88E891E0FC0124912D
:103E8000E22FF0E0EE0FFF1FEE0FFF1FE755FD4F93
:103E900010A617A22FE23FE132A721A7FC01349719
:103EA000E491F0E0EE0FFF1FEE0FFF1FE755FD4F0F
:103EB00010A617A22BE731E032A721A7FC01359706
:103EC000E491F0E0EE0FFF1FEE0FFF1FE755FD4FEF
:103ED00010A617A22FE236E032A721A70797FC0110
:103EE0008491E82FF0E0EE0FFF1FEE0FFF1FE75564
:103EF000FD4F86E791E090A787A383EF94E292A716
:103F000081A78E010B5F1F4F1F9B08C210925402A6
:103F10001092530284E19BE19093560280935502E4
:103F20001092600210925F0284E89DE19093620219
:103F30008093610210926402109263028AE89DE10C
:103F40009093660280936502109258021092570275
:103F500081E09DE090935A028093590210925C0296
:103F600010925B0286E29DE090935E0280935D0278
:103F700010926802109267028AE891E090936A02B8
:103F80008093690210928C0210928B0283E59CE16F
:103F900090938E0280938D0210926C0210926B02AD
:103FA00084EA9AE090936E0280936D0210927C02F4
:103FB00010927B028FE69BE090937E0280937D02BD
:103FC0001092700210926F028CE896E09093720249
:103FD000809371021092800210927F028FE092E033
:103FE0009093820280938102109274021092730265
:103FF00088E29CE09093760280937502109284028E
:10400000109283028BEE99E0909386028093850252
:10401000109278021092770284E696E090937A02EA
:104020008093790210928802109287028BEF91E0C0
:1040300090938A028093890280913D01882351F4F4
:1040400081E080933D0116BCA99A80916E00826048
:1040500080936E00789482E091E0FC01349139966F
:10406000249145E0D8011D924A95E9F70396FC0199
:1040700084918E83832F90E0821B9109321B392B10
:1040800039871F9938C08091DC009091DD0084FD54
:1040900021C080E48093ED0080E090E0A0E0B8E9EA
:1040A0008093F0009093F100A093F200B093F3009E
:1040B0008D818093FA008E818093FA008F818093A6
:1040C000FA0088858093FA0089858093FA0085E458
:1040D0008093EF0080E395E70197F1F78091DC0092
:1040E0009091DD0084FD59C080E48093ED0080E074
:1040F00090E0A0E637C08091DC009091DD0084FD67
:1041000021C080E48093ED0080E090E0A0E0BAE977
:104110008093F0009093F100A093F200B093F3002D
:104120008D818093FA008E818093FA008F81809335
:10413000FA0088858093FA0089858093FA0085E4E7
:104140008093EF0080E395E70197F1F78091DC0021
:104150009091DD0084FD21C080E48093ED0080E03B
:1041600090E0A0E8B6EC8093F0009093F100A0936B
:10417000F200B093F3008D818093FA008E818093DA
:10418000FA008F818093FA0088858093FA008985F0
:104190008093FA0085E48093EF001F8A1E8A86EAE6
:1041A00099E0682F998F888F1B8E1A8E40E05F8967
:1041B000798D80E09B8D20E137E20E940803198A07
:1041C000188A83EA91E0682F9B8B8A8B1D8A1C8A50
:1041D00040E059897B8980E09D8928E53BE10E9488
:1041E000080383B121E030E085FD02C020E030E02B
:1041F0008091DE0990E0822B932B8093DE0900975B
:1042000029F083B185FD02C00E94F30C3FB7F894FA
:104210009091D6098091D709981709F478C08091B8
:10422000D60990E0DC01AA0FBB1FA80FB91FAA0F87
:10423000BB1FAA52BC4F8D919C9111971296ED9184
:10424000FC91139714966C91149715967C91159781
:104250002091D6092F5F2093D6092091D8092150AB
:104260002093D8093FBF3091D8092091D503231757
:1042700020F42091D8092093D503309709F00995AF
:10428000A89506EE12E006C0075F1F4FF3E000346A
:104290001F07D9F1D80118968C91189781FFF4CF98
:1042A0002FB7F8948091410390914203A09143036A
:1042B000B09144032FBF89839A83AB83BC83F801F9
:1042C000908591708B8181709817F1F626813781E6
:1042D00089819A8128173907B8F66481758102802F
:1042E000F381E02DD8018D919C910995F80180858D
:1042F0008D7F80878091E50281508093E502075F82
:104300001F4FF3E000341F0729F6A8956ACF60E03D
:1043100070E0E8E4F1E080E090E0A4CF402F1B875C
:104320000A878CEA97E0682F9D878C871F861E86F8
:104330005B857D8580E09F8524EF31E00E94080346
:104340001093400200933F028DE197E09093420268
:1043500080934102109344020093430290934602DB
:1043600080934502109348020093470290934A02BB
:104370008093490210934C0200934B0280E392E039
:1043800090934E0280934D021093500200934F027F
:104390008AEA92E09093520280935102B7CDAC0129
:1043A000FC01E854FF4F885F9E4F28E431E0118202
:1043B0001082338322833496E817F907C1F780917E
:1043C000D80081608093D800E2EEF0E08091E200B6
:1043D00081788A608093E2008091E3008E6081831F
:1043E0008091E40081788B6482838091ED008F70EE
:1043F0008093ED0088E08093EF0085E090E0A0EEF0
:10440000BFEF8093F4009093F500A093F600B09373
:10441000F7008091ED008F7080618093ED0088E05F
:104420008093EF0085E08093F4009093F500A093D3
:10443000F600B093F7008091ED008F70806280935A
:10444000ED0087E08093EF0080E0B3E68093F0001A
:104450009093F100A093F200B093F30085E0BFEFDA
:104460008093F4009093F500A093F600B093F700CA
:104470008091ED008F7080638093ED0088E08093E1
:10448000EF0080E0A0ECB3E68093F0009093F100A1
:10449000A093F200B093F30085E0A0EEBFEF80930D
:1044A000F4009093F500A093F600B093F70080918C
:1044B000ED008F7080648093ED0088E08093EF00C2
:1044C00085E08093F4009093F500A093F600B093FC
:1044D000F7008091ED008F7080658093ED0088EC8F
:1044E0008093EF0080E0A0E0B9E08093F00090932B
:1044F000F100A093F200B093F30085E0A0EEBFEFCF
:104500008093F4009093F500A093F600B093F70029
:104510008091ED008F7080668093ED0088E8809335
:10452000EF0080E0A0E0BAE08093F0009093F1000B
:10453000A093F200B093F30085E0A0EABFEF809370
:10454000F4009093F500A093F600B093F7008091EB
:10455000ED008F7080678093ED0088E88093EF0016
:1045600080E0A0E0BBE08093F0009093F100A09386
:10457000F200B093F30085E0A0EABFEF8093F4006F
:104580009093F500A093F600B093F7008091ED00B2
:104590008F7080688093ED0088E88093EF0080E062
:1045A000A0E0BEE08093F0009093F100A093F200B1
:1045B000B093F30085E0A0EEBDEF8093F4009093FC
:1045C000F500A093F600B093F7008091ED008F7096
:1045D00080698093ED0088E88093EF0080E0A0E0A0
:1045E000B0E18093F0009093F100A093F200B093BB
:1045F000F30085E0A0E6BFEF8093F4009093F50010
:10460000A093F600B093F7008091ED008F70806A60
:104610008093ED0088E88093EF0080E0A0E2B0E1B5
:104620008093F0009093F100A093F200B093F30018
:1046300085E0A0E6BFEF8093F4009093F500A0938F
:10464000F600B093F7008091ED008F70806B80933F
:10465000ED0088EC8093EF0080E0A0EEB8E180935D
:10466000F0009093F100A093F200B093F30085E086
:10467000BFEF8093F4009093F500A093F600B09301
:10468000F7008091ED008F70806C8093ED0088ECD6
:104690008093EF0080E0A0E2B2E48093F00090937A
:1046A000F100A093F200B093F30085E0A0EEBFEF1D
:1046B0008093F4009093F500A093F600B093F70078
:1046C0008091ED008F70806D8093ED0088E880937D
:1046D000EF0080E0A0E4BAE48093F0009093F10052
:1046E000A093F200B093F30085E0A0E8B7ED8093CB
:1046F000F4009093F500A093F600B093F70080913A
:10470000ED008F70806E8093ED0088E88093EF005D
:1047100080E0A0E0BDE88093F0009093F100A093CA
:10472000F200B093F30085E0A0EEB8EF8093F400C0
:104730009093F500A093F600B093F70080EE9FE70A
:104740009093DF008093DE008091DB00806A80938D
:10475000DB0050938E0340938D038AE693E09093A1
:10476000900380938F038091D80082608093D8005B
:104770008091D90082FFFCCF08952F923F924F92F3
:104780005F926F927F928F929F92AF92BF92CF92E1
:10479000DF92EF92FF920F931F93CF93DF93CDB7EA
:1047A000DEB72B970FB6F894DEBF0FBECDBFFB016F
:1047B000C080D180E280F380C701B6012CE030E0F8
:1047C00040E050E00E941C346D837E838F83988785
:1047D0008EE090E00E946C05880F991F880F991F4A
:1047E00001972C0166247724160181E090E09B87D5
:1047F0008A8731C0682D592D4A2D7B2D862E952E06
:10480000A42EB72E281739070CF46AC04B815C819F
:104810004B835C83281739070CF469C099818A811E
:1048200099838A834A855B854034510508F469C0C1
:1048300084E090E02A853B85289F7001299FF00C39
:10484000389FF00C1124FB86EA86A70184E04130F2
:10485000580708F061C02A853B856901EE24FF24D2
:104860006D817E818F819885A70196010E946234B7
:1048700089019A01015010402040304040165106F5
:104880006206730610F493018201B8016F5F7F4FD7
:1048900080E090E0A70196010E941C342CE030E0FB
:1048A00040E050E00E94623469017A01C40182193B
:1048B000930997FD2DC096012219330937FD24C0B5
:1048C000281739070CF096CF6C2D5D2D4E2D7F2DBE
:1048D000862E952EA42EB72E281739070CF096CFCA
:1048E000A8014B835C83281739070CF097CF9A8572
:1048F0008B8599838A834A855B854034510508F00E
:1049000097CF88E090E096CF309521953F4FD8CF54
:10491000909581959F4FCFCFEB80FC80F0928900DE
:10492000E092880029813A812034310509F458C089
:104930002134310508F442C049815A8181E0403078
:10494000580709F447C094E04030590709F43FC0C4
:104950009985977080918100887F892B8093810051
:1049600080918000909181008C7F977E98609093D9
:104970008100809380008F738093800080916F000E
:10498000826080936F00B401C5012B960FB6F89436
:10499000DEBF0FBECDBFDF91CF911F910F91FF9072
:1049A000EF90DF90CF90BF90AF909F908F907F90CF
:1049B0006F905F904F903F902F9008952130310578
:1049C00061F02830310521F6E2E0E987C1CF35E01A
:1049D0003987BECF24E02987BBCF41E04987B8CFD4
:1049E000F3E0F987B5CFAF92BF92CF92DF92EF920B
:1049F000FF920F931F93CF93DF9300D000D0CDB7DA
:104A0000DEB75C011091B0028091B20281FF43C019
:104A1000123008F440C08EE190E090930101809341
:104A2000000180916F00826080936F00F5018181A9
:104A30001817E1F11183E0911501F09116016081E1
:104A4000718180E090E028EF36E041E050E00E9484
:104A50001C3428EE33E040E050E00E9462346901EB
:104A60007A01212F30E040E050E0C701B6010E94FA
:104A7000623489019A0109831A832B833C830739A5
:104A800011052105310590F0C501BE016F5F7F4F13
:104A90000E94BD230BC086E090E0909301018093BB
:104AA000000180916F008D7F80936F0081E0F501A0
:104AB00082830F900F900F900F90DF91CF911F91F5
:104AC0000F91FF90EF90DF90CF90BF90AF9008953F
:104AD0004F925F926F927F928F929F92BF92CF92EE
:104AE000DF92EF92FF920F931F93CF93DF93CDB797
:104AF000DEB766970FB6F894DEBF0FBECDBF81302C
:104B0000910521F1009761F48091150190911601B2
:104B10000E943B3580911701909118010E943B350E
:104B200066960FB6F894DEBF0FBECDBFDF91CF9172
:104B30001F910F91FF90EF90DF90CF90BF909F90CB
:104B40008F907F906F905F904F9008951092D50353
:104B5000E6EDF3E028E431E01182108288E491E090
:104B600033832283369649E0E63DF407A9F7109295
:104B7000D6091092D7091092D8091092D203109238
:104B8000D10329E431E03093D4032093D30310926E
:104B9000CE031092CD033093D0032093CF03109215
:104BA000CA031092C9033093CC032093CB03109215
:104BB000C6031092C5033093C8032093C703109215
:104BC000C2031092C1033093C4032093C303109215
:104BD000BE031092BD033093C0032093BF03109215
:104BE000BA031092B9033093BC032093BB03109215
:104BF000B6031092B5033093B8032093B703109215
:104C0000B2031092B1033093B4032093B303109214
:104C1000AE031092AD033093B0032093AF03109214
:104C2000AA031092A9033093AC032093AB03109214
:104C3000A6031092A5033093A8032093A703109214
:104C4000A2031092A1033093A4032093A303109214
:104C50009E0310929D033093A00320939F03109214
:104C60009A031092990330939C0320939B03109214
:104C70009603109295033093980320939703109214
:104C80009203109291033093940320939303109214
:104C90008E0310928D033093900320938F03109214
:104CA0008A031092890330938C0320938B03109214
:104CB0008603109285033093880320938703109214
:104CC0008203109281033093840320938303109214
:104CD0007E0310927D033093800320937F03109214
:104CE0007A031092790330937C0320937B03109214
:104CF0007603109275033093780320937703109214
:104D00007203109271033093740320937303109213
:104D10006E0310926D033093700320936F03109213
:104D20006A031092690330936C0320936B03109213
:104D30006203109261033093640320936303109223
:104D40005E0310925D033093600320935F03109223
:104D50005A031092590330935C0320935B03109223
:104D60005603109255033093580320935703109223
:104D70005203109251033093540320935303109223
:104D80004E0310924D033093500320934F03109223
:104D90004A031092490330934C0320934B03109223
:104DA0004603109245033093480320934703109223
:104DB00009004FED5EE250939900409398004091B6
:104DC0009100487F41604093910040919000509144
:104DD00091004C7F577E5860509391004093900013
:104DE0004F734093900040E453E050936603409328
:104DF000650346EA51E050936803409367031092BD
:104E00004103109242031092430310924403109204
:104E1000950010929400C19A4091710042604093B5
:104E200071001092E7021092E6029093E9028093DB
:104E3000E8021092F0021092EF029093F202809337
:104E4000F1021092F9021092F8029093FB02809303
:104E5000FA021092020310920103909304038093CC
:104E6000030310920B0310920A0390930D03809397
:104E70000C03109214031092130390931603809363
:104E8000150310921D0310921C0390931F0380932F
:104E90001E031092260310922503909328038093FB
:104EA000270310922F0310922E03909331038093C7
:104EB0003003109238031092370390933A03809393
:104EC00039031092A9021092A8023093AB022093EA
:104ED000AA021092AE021092AD021092B00210928D
:104EE000AF021092B2021092B1021092B40210926C
:104EF000B3021092B6021092B5021092B80210924C
:104F0000B7021092BA021092B9021092BC0210922B
:104F1000BB021092BE021092BD021092C00210920B
:104F2000BF021092C2021092C1021092C4021092EB
:104F3000C3021092C6021092C5021092C8021092CB
:104F4000C7021092CA021092C9021092CC021092AB
:104F5000CB021092CE021092CD0200ED12E0D801E9
:104F600011961C921E9213963C932E9312970C5FEF
:104F70001F4FB2E0043E1B0791F71092A602109259
:104F8000A5021092A702539A5B9A52985A9A549A81
:104F900027982F9A8EE9E82E82E0F82EF092560399
:104FA000E09255038BED9BE2909358038093570357
:104FB000F0924E03E0924D0387E792E09093500306
:104FC00080934F03F0925203E092510384EB91E0FF
:104FD0009093540380935303E8ECF0E08091C80071
:104FE00082608093C8008CE08093CC008091CD00DB
:104FF000807F8093CD009091C9008091CA00866027
:10500000877882839C6C9183BB24B394D7011296DA
:10501000BC9212978091C80081608093C8005C9A0E
:105020008091C9008061818316961C928FEF8093D6
:10503000B3008091B000807882608093B00080914E
:1050400070008C7F8093700087E891E00E94CF21F0
:105050002AE7C22E21E0D22EC801819790937B01CE
:1050600080937A0110927D0110927E0110927F014F
:1050700010928001B09281018091C30280938201DD
:1050800010928301C80180979093850180938401D9
:105090001092860110927C014C2DDE82CD8282EA34
:1050A00098E0682F98878F831A8619865E817885A5
:1050B00080E09A8520ED37E00E94080382E090E0CE
:1050C0006CE070E00E94571C3C0182E090E06DE0D3
:1050D00070E00E94571C2C0140E0842E41E0942E89
:1050E00086E090E09093010180930001109202010C
:1050F0001092030110920401109205011092060112
:10510000109207011092080110920901D0920B0130
:10511000C0920A0183E292E090930D0180930C010A
:10512000D0920F01C0920E0184E691E0909311019C
:105130008093100110921201B092130185E987BD8E
:1051400084B580788A6084BD90929603809295039E
:1051500084EF95E0909398038093970387E092E023
:1051600090931A018093190110921B0110921C0157
:1051700010921D0110921E0110921F011092200129
:105180001092210110922201109223011092240109
:1051900010922501109226011092270110922801E9
:1051A00010922901B0922A01C701039690932C0115
:1051B00080932B01C801479790932E0180932D0176
:1051C000095110401093300100932F0110923101CA
:1051D0001092320110923301109234018AE08093D0
:1051E0003501109236011092380110923701109259
:1051F000390110923A0110923B0110923C01109239
:105200003D0110923E0110923F0189E090E00E9422
:10521000D435C82EEE24E394E822F3B082E290E085
:105220000E94A5348C01FC0171826082B30180E090
:1052300090E02FE334E243E050E00E941C3428E683
:1052400030E140E050E00E946234D80112962D9384
:105250003D934D935C9315971696EC92169717967F
:105260001C92179718961C9218978F2D8095881F5F
:105270008827881F19968C9319971B961C921E924B
:105280001A971D961C921E921C971F961C921E9296
:105290001E9751961C921E92509753961C921E92E6
:1052A000529754961C92549755961C925597579620
:1052B0001C921E92569759961C921E9258975A9677
:1052C0001C925A9791E0EE2009F0B7C09170892F97
:1052D000880F892BF801838F148E81E0858F3C9A8B
:1052E0003D9A1093160100931501FC2CF694F822B8
:1052F000E3B082E290E00E94A5348C01DC011196BB
:105300005C924E92B20180E090E02FE334E243E001
:1053100050E00E941C3428E630E140E050E00E945A
:105320006234F8012283338344835583F6821782E3
:1053300010868E2D881F8827881F818713861286E6
:105340001586148617861686118A108A138A128A81
:10535000148A158A178A168A118E108E128E91E081
:10536000FF2009F068C09170892F880F892BD80120
:105370005B968C935B975C961C925C9781E05D9644
:105380008C933C9A3D9A109318010093170117B81B
:105390003C9A3D9A2FB7F89484E790E09093CC0222
:1053A0008093CB022FBFE0912D01F0912E018FB79A
:1053B000F894118210828FBF482D9C868B8680E9DD
:1053C00091E3682F9E878D87188A1F865C857E856E
:1053D00080E0988924EF31E00E94080385E595E597
:1053E000A0E0B0E089839A83AB83BC8306E711E039
:1053F000C801BE016F5F7F4F0E94BD231093A603BB
:105400000093A50384EB96E09093A8038093A703F1
:10541000402F1A8B098B89E499E0682F9C8B8B8B2A
:105420001E8A1D8A5A897C8980E09E8928EE33E095
:105430000E94080375CB90E096CF90E047CFCF93C2
:10544000DF93DC01C8ECD0E08091C8008871B1F036
:105450008091C9008091CE008091C80081608093C6
:10546000C8005C9A8091C9008061E8ECF0E081831B
:1054700016961C921697DF91CF9108959091C900CE
:10548000969591708091CE00282F22952F70E92F4C
:10549000F0E0E295F295F07FFE27E07FFE27E05BEB
:1054A000FE4FE20FF11D30818317B1F616968C91F5
:1054B0001697913009F094C08823B9F506C084305E
:1054C00009F0FBC016961C921697922F990F990F10
:1054D000990F19968C9119978770892B19968C932F
:1054E00019978091C8008E7F8093C80016968C9182
:1054F0001697823009F498C0833009F712968C9180
:105500001297882309F4A8CF12968C9112978F5F77
:1055100012968C93129712968C911297853009F0FF
:105520009BCF12961C92129797CF813011F7199644
:105530009C911997906819969C9319978F5F16966E
:105540008C931697883009F096CF8091C8008160BF
:105550008093C8005C9A8091C9008061E8ECF0E01B
:10556000818316961C9216971996EC911997F0E084
:10557000E057FE4FE491EF77F0E017968D919C9104
:105580001897DF01AA0FBB1FA355BD4F8C9311962F
:105590009C9311978091E40280FD6DCF8091E4028D
:1055A00082608093E4027894E058FE4FE491AE2F3D
:1055B000B0E0AA0FBB1FAA0FBB1FA755BD4F9996FE
:1055C000ED91FC919A9797968D919C91989709955A
:1055D0008091E4028D7F8093E402DF91CF91089562
:1055E000882309F439CF8130D9F08230E9F0833053
:1055F00009F4B8C0843009F060C018961C921E925D
:1056000017972295207F18969C9118979F70922B40
:1056100018969C9318978F5F16968C9316972BCF9E
:1056200082E016968C931697822F869586958170C8
:1056300091E01F9B90E0891709F00ECF922F96956D
:1056400096959695990F990F19968C911997887F31
:105650002370892B822B19968C93199712968C9113
:105660001297882309F066C0C8ECD0E08091C90089
:105670008F7E89835C981396EC911397F0E0EF701E
:10568000F070E05BFE4F80818093CE0083E0169641
:105690008C9316971996EC911997F0E0E057FE4F0E
:1056A000E491E7FD20C081E015968C931597109248
:1056B000B20016968C91169741CF853009F43EC002
:1056C000863009F444C0873009F038CF17968C91A2
:1056D0001797807F822B17968C93179788E01696E2
:1056E0008C93169732CF9091E402969591708091A9
:1056F000E4028E7F892B8093E402F0E0EF77F07074
:10570000EE0FFF1FE355FD4F2FB7F8948081918175
:105710002FBF18969C938E93179717968D919C91F7
:1057200018978C9311969C931197F8948091C900C7
:105730008062898316968C91169700CF18969C915B
:105740001897907F922B18969C93189764CF229568
:10575000207F17969C9117979F70922B17969C937A
:10576000179759CF1996EC911997F0E0E057FE4F33
:10577000E491E7FF50CF9091E4029695917080916B
:10578000E4028E7F892B8093E402F0E0EF77F070E3
:10579000EE0FFF1FE355FD4F2FB7F89480819181E5
:1057A0002FBF18969C938E9317978091C9008F7E78
:1057B00089835C98B2CF0E941F2A08952F923F924E
:1057C0004F925F926F927F928F929F92AF92BF9211
:1057D000CF92DF92EF92FF920F931F93CF93DF93BD
:1057E000CDB7DEB7A6970FB6F894DEBF0FBECDBF1C
:1057F0007C01DC01DD968C91DD97882309F4ACC235
:1058000055960D90BC91A02DF7016789708D1A9661
:105810008D919C911B97805C9F4F51E0FB012285ED
:1058200033858217930708F0F2C25C968C915C97DF
:105830008170F70136AD3E7F382B36AFFB01848D8A
:105840008170F70127AD2E7F282B27AF5C968C91B6
:105850005C978823C1F5FB01848D8823A1F5E52F92
:10586000F0E0EE0FFF1FEE0DFF1D0588F689E02D1D
:105870000285138541E0C42ED12C552311F0CC2490
:10588000DD24F601EE0FFF1FEE0DFF1D0588F689E2
:10589000E02D82859385F801E81BF90BF7FD0EC515
:1058A000C801969587959695879580509B4F8E1742
:1058B0009F0708F070C3F70183AD8F3709F4EFC479
:1058C0008F5FF70183AFF70186AD8823B9F0F70149
:1058D00086AD882309F49DC2F70187AD882309F0BE
:1058E00098C281E081AFF70182AD8F3309F4A7C27E
:1058F00042891F9B23C08091AE0122C087AD8823BF
:1059000031F74289E42FF0E0852F90E051E0E8176D
:10591000F90709F4C2C4E52FF0E0EE0FFF1FEE0D0A
:10592000FF1D0588F689E02D858D882309F04BC37E
:10593000F70151AFF70112AE1F99DDCF80919E01A3
:1059400090E08370907051E0009709F450E0442398
:1059500061F05D968C915D97882339F0FB01858D10
:10596000882319F0552309F484C3F70114AEF70115
:10597000038901700295000F000F007C5B964C912B
:105980005B97417050E016968C91169790E011E06D
:105990004817590709F010E0102BFB01438D4170A7
:1059A00050E0868190E0E1E04817590709F0E0E017
:1059B000EE0F1D7F1E2BF70191ADE92FF0E0EE0FEA
:1059C000FF1FEE0DFF1DC588D688F601858D8170FD
:1059D000880F880F1B7F182B892F8170880F880FE5
:1059E000880F177F182B30FF31C21A968D919C912A
:1059F0001B97F2E081309F0708F428C2FB01858DD8
:105A0000882309F023C280E08295807F1F7E182BB7
:105A100020FF27C2FB0182859385F2E081309F073A
:105A200008F41FC25D968C915D97882309F019C216
:105A300080E08295880F807E1F7D182BF701A7A537
:105A4000B0A9F60124853585203831050CF00FC248
:105A5000FFEF21383F070CF4B3C227FD4FC4922F4C
:105A600080E0212F30E0282B392B8FB7F894119646
:105A70003C932E938FBFD701D996EC91D997F0E044
:105A8000EE0FFF1FEE0DFF1D0588F689E02D228524
:105A90003385832F881F8827881F90E0220F331FAC
:105AA000822B932B9D96ED91FC919E972FB7F894A6
:105AB000918380832FBFF701F681F98B1796BC91F4
:105AC000BA8BF701F085FB8B2FB7F8944091410317
:105AD0005091420360914303709144032FBF4D3DA9
:105AE00025E0520720E0620720E0720708F434C185
:105AF00099878A87D701D996CC90D997DD24CC0C89
:105B0000DD1CF701EC0DFD1D65897689FB0184859F
:105B10009585803891050CF030C2FFEF81389F07E2
:105B20000CF456C287FDF8C38B87D7015596ED91CB
:105B3000FC915697808191819C878D875796ED9136
