:100000000C9488000C94E7130C9433140C947F1414
:100010000C94CB140C9417150C9463150C94AF1519
:100020000C94FB150C9447160C9493160C94DF1645
:100030000C942B170C9477170C94C3170C940F186F
:100040000C945B180C94A7180C94F3180C943F199B
:100050000C948B190C94D7190C94231A0C946F1AC6
:100060000C94BB1A0C94071B0C94531B0C949F1BF1
:100070000C94EB1B0C94371C0C94831C0C94CF1C1D
:100080000C941B1D0C94671D0C94B31D0C94FF1D48
:080090000C944B1ECC37D13754
:100100000000000000731911010100009FDFD9FDFC
:1001100011241FBECFEFD0E1DEBFCDBF14BE88E1FA
:100120000FB6F89480936000109260000FBE11E04B
:10013000A0E0B1E0E4E7F3E700E00BBF02C0079006
:100140000D92A036B107D9F71CE0A0E6B1E001C0DE
:100150001D92A630B107E1F73C9A3D9A449A459A20
:100160002DE088E190E00FB6F894A89580936000A8
:100170000FBE20936000259810E0C6E9D0E000E0B3
:1001800006C022970109FE010BBF0E944638C43900
:10019000D10780E00807A9F70E9444270C94A839EA
:1001A0000001000203000000040000000000000045
:1001B0000000000000000000908F8E8D08070605EB
:1001C000000000000000000000000000000000002F
:1001D000000000000000000000000000000000001F
:1001E000000000000000000000000000000000000F
:1001F00000000000000000000000000000000000FF
:100200008C8B8A89040300000000000000000000BD
:1002100000000000000000000200000100000000DB
:1002200000000000000000000000000000000000CE
:1002300000000000000000000000000000000000BE
:1002400000000000000000000000000000000000AE
:10025000000000000000000000000000000000009E
:10026000000000000000000000000000000000008E
:10027000000000000000000000000000000000007E
:10028000000000000000000000000000000000006E
:10029000000000000000000000000000000000005E
:1002A000000000000000000000000000000000004E
:1002B00008955FB7F8944091FF0B842F90E0FC0104
:1002C000EE0FFF1FE80FF91FE458FD4F61817281A7
:1002D0008091AF0290E08F709070242F2295207F44
:1002E00030E0822B932B90819093AE028093AF02EB
:1002F0007093AC026093AD025FBF4F5F4093FF0B02
:10030000453009F008951092FF0B08952FB7F89427
:100310003FB7F8948091AE029091AF029E7F909388
:10032000AF028093AE023FBF2FBF08952FB7F8945E
:100330003FB7F8948091AE029091AF029D7F909369
:10034000AF028093AE023FBF2FBF08952FB7F8943E
:100350003FB7F8948091AE029091AF029B7F90934B
:10036000AF028093AE023FBF2FBF08952FB7F8941E
:100370003FB7F8948091AE029091AF02977F90932F
:10038000AF028093AE023FBF2FBF08958091EC0172
:10039000809382028091ED01809383028091EE012F
:1003A000809384028091E901809388028091EA0120
:1003B000809389028091EB0180938A020895809155
:1003C000A302982F90952091000C922390FF03C0D8
:1003D00091E090936A0183FD03C091E090936A01DC
:1003E0008093000C08952FB7F8943FB7F89480914C
:1003F000B2029091B3029F779093B3028093B202BE
:100400003FBF2FBF0895FC014181528163817481F8
:100410004F5F5F4F6F4F7F4F41835283638374837E
:100420000895CF93DF93DC01C8ECD0E08091C80041
:100430008871B1F08091C9008091CE008091C80090
:1004400081608093C8005C9A8091C9008061E8EC6B
:10045000F0E0818314961C921497DF91CF91089558
:100460009091C900969591708091CE00282F229589
:100470002F70E92FF0E0E295F295F07FFE27E07F04
:10048000FE27E65CFE4FE20FF11D30818317B1F6C7
:1004900014968C911497913009F0ADC08823B9F56A
:1004A00006C0843009F037C114961C921497922F1D
:1004B000990F990F990F17968C9117978770892B21
:1004C00017968C9317978091C8008E7F8093C800F1
:1004D00014968C911497823009F4B1C0833009F7D7
:1004E00012968C911297882309F4A8CF12968C91BA
:1004F00012978F5F12968C93129712968C91129787
:10050000853009F09BCF12961C92129797CF8130BD
:1005100011F717969C911797906817969C931797C9
:100520008F5F14968C931497883009F096CF809142
:10053000C80081608093C8005C9A8091C900806186
:10054000E8ECF0E0818314961C9214971796EC91D6
:100550001797F0E0E055FE4FE491EF77F0E0159645
:100560008D919C911697DF01AA0FBB1FA656BD4F18
:100570008C9311969C9311978091DB0280FD6DCF37
:100580008091DB0282608093DB027894E056FE4F1C
:10059000E491F0E0DF01AA0FBB1FAE0FBF1FAA0F4F
:1005A000BB1FAC56BD4F99962D913C919A979B9647
:1005B0008D919D910D90BC91A02DFC01CD01A0FFCE
:1005C00015C095958795820F931FEC01A881B9817D
:1005D000AE0FBF1FEC911196FC9109958091DB0243
:1005E0008D7F8093DB02DF91CF910895959587955C
:1005F000820F931FF2CF882309F420CF8130D9F0E6
:100600008230E9F0833009F4B0C0843009F083C04F
:1006100016961C921E9215972295207F16968C9105
:1006200016978F70822B16968C93169785E01496EA
:100630008C93149712CF82E014968C931497822F88
:1006400086958695817091E01F9B90E0891709F04F
:10065000F5CE922F969596959695990F990F179698
:100660008C911797887F2370892B822B17968C93F8
:10067000179712968C911297882309F048C0C8ECFE
:10068000D0E08091C9008F7E89835C981396EC91AD
:100690001397F0E0EF70F070E65CFE4F808180937E
:1006A000CE0083E014968C9314971796EC911797CD
:1006B000F0E0E055FE4FE491E7FD02C084E0B7CFE3
:1006C0009091DB02969591708091DB028E7F892B51
:1006D0008093DB02F0E0EF77F070EE0FFF1FE6563D
:1006E000FD4F2FB7F894808191812FBF16969C9370
:1006F0008E93159715968D919C9116978C931196C4
:100700009C931197F8948091C90080628983149614
:100710008C91149705CF853091F08630D1F08730D9
:1007200009F0FECE15968C911597807F822B159639
:100730008C93159788E014968C931497F8CE1696A0
:100740008C911697807F822B16968C93169786E055
:100750006ECF2295207F15968C9115978F70822BE6
:1007600015968C93159787E062CF1796EC911797A3
:10077000F0E0E055FE4FE491E7FFA0CF9091DB025F
:10078000969591708091DB028E7F892B8093DB029E
:10079000F0E0EF77F070EE0FFF1FE656FD4F2FB73A
:1007A000F894808191812FBF16969C938E93159714
:1007B0008091C9008F7E89835C9815968D919C915C
:1007C00016978C9311969C931197F8948091C90079
:1007D0008062898314968C9114978F5FA2CEFC015E
:1007E00084818430F1F0853059F18630B1F1873061
:1007F00019F08F5F84830895A081B181AF70B070CC
:10080000A65CBE4F8C918093CE008091C9008F7DF5
:10081000A8ECB0E011968C93119784818F5F84834C
:1008200008952181822F82958F7090E0865C9E4F83
:10083000DC018C918093CE0084818F5F8483089546
:10084000A181B0E0AF70B070A65CBE4F8C91809378
:10085000CE0084818F5F84830895A081B181B29599
:10086000A295AF70AB27BF70AB27ECCFFC01CB01DB
:1008700009950895FC0109950895CF92DF92EF92B2
:10088000FF920F931F93CF93DF93CDB7DEB76F9790
:100890000FB6F894DEBF0FBECDBFFC01789467851C
:1008A000708941895289DB011A968D919C911B9721
:1008B000805C9F4F01E0DA011A962D913C911B97C5
:1008C0008217930708F000E0DB015C969C91917021
:1008D00087A18E7F892B87A3DA015C969C9191700A
:1008E00080A58E7F892B80A7DB015C968C915C971D
:1008F0008823E9F5DA015C968C915C978823B9F539
:10090000A02FB0E0AA0FBB1FAE0FBF1F1F960D9008
:10091000BC91A02D1A966D917C911B9741E050E0FF
:10092000002311F040E050E0DA01AA0FBB1FAE0F28
:10093000BF1F1F960D90BC91A02D1A968D919C9172
:100940001B979B01281B390B37FD9EC3CB01969546
:1009500087959695879580509B4F8217930708F04F
:1009600068C383A18F3709F487C38F5F83A387A1EF
:10097000882319F580A5882301F52385822F90E02F
:1009800010E031E08017910709F470C3A32FB0E0A5
:10099000AA0FBB1FAE0FBF1F1F960D90BC91A02DBD
:1009A0005D968C915D97882309F05BC331A312A2F9
:1009B0001F9B18C08091970117C087A1882309F059
:1009C00031C387A1882309F457C087A1882319F070
:1009D00080A5811101A382A18F3309F446C023852C
:1009E0001F99E8CF8091870190E08370907031E08B
:1009F000009709F430E0222309F444C0A785B089A8
:100A00005D968C915D97882309F43CC0A189B289D9
:100A10005D968C915D978823A9F1332399F584A184
:100A20008F5F84A3823931F487A1826087A380A578
:100A3000826080A785A18F3048F560E48F5F85A331
:100A40008485882339F18F5F8487883019F5F8947D
:100A500028E088E190E00FB6F894A89580936000B4
:100A60000FBE209360000000FECF87A18B7F87A37D
:100A700080A58B7F80A7B3CF80A5882309F4A5CF5D
:100A800011A2A9CF14A285A18F30B8F260E08485AD
:100A90008823C9F6A785B0895B962C915B97217056
:100AA00030E016968C91169790E041E028173907B0
:100AB00009F040E06E7F642BA189B2895B962C918E
:100AC0005B97217030E016968C91169790E041E08C
:100AD0002817390709F040E0440F6D7F642B91A17E
:100AE000A92FB0E0AA0FBB1FAE0FBF1F1F960D901E
:100AF000BC91A02D5D968C915D978170880F880FB9
:100B00006B7F682B892F8170880F880F880F677F14
:100B1000682B97A181E0911180E08295807F6F7EA4
:100B2000682B90A581E0911180E08295880F807EEE
:100B30006F7D682B4789508D1C962D913C911D9798
:100B4000203831050CF050C1BFEF21383B070CF4C1
:100B500085C227FD9DC2922F80E0262F30E0282BF2
:100B6000392B8FB7F894DA0111963C932E938FBFEF
:100B7000A1A1B0E0AA0FBB1FAE0FBF1F1F960D9023
:100B8000BC91A02D1A968D919C911B97292F221F05
:100B90002227221F30E0880F991F282B392BA58987
:100BA000B6898FB7F89411963C932E938FBF4785E3
:100BB0005089DA0118967C91E188F288D70118965D
:100BC000DC90C090FB03388F298FA1A1B0E0AA0F61
:100BD000BB1FAE0FBF1F1F960D911C915097D801E0
:100BE0001C968D919C911D97803891050CF0FAC050
:100BF000BFEF81389B070CF413C287FD39C28A8F7F
:100C0000DA018C9111969C919B8F8C8FD7018C91DE
:100C100011969C919D8F8E8F6F8FD8011A968D9112
:100C20009C911B979C01220F232F221F330B319580
:100C3000478D50A12417350708F0E9C1805A9F4F0E
:100C4000880F892F881F990B919590A3878FAC01EE
:100C50009E01205F3F4F88E0D9011D928A95E9F7F8
:100C600064FDBEC065FDBCC082E0888BD8015B9688
:100C70002C915B97217030E016968C91169790E03E
:100C800061E02817390709F060E0962F97959927BA
:100C900097955170952BD8015D968C915D9721E0C9
:100CA0008227880F880F892B898B4A8B83818B8BB6
:100CB00082818C8B84818D8B82858295880F807E4A
:100CC0008E8B12861F9993C08091DC009091DD007D
:100CD00081FD2AC080E18093ED0080E090E0A0E6F5
:100CE000B6E48093F0009093F100A093F200B093EB
:100CF000F300888D8093FA00898D8093FA008A8DA5
:100D00008093FA008B8D8093FA008C8D8093FA008B
:100D10008D8D8093FA008E8D8093FA008F8D809355
:100D2000FA0088E48093EF008091DC009091DD0070
:100D300080FD29C01092ED0080E090E0A0E8B8E1CD
:100D40008093F0009093F100A093F200B093F30031
:100D500088898093FA0089898093FA008A89809330
:100D6000FA008B898093FA008C898093FA008D8930
:100D70008093FA008E898093FA008F898093FA001D
:100D800088E48093EF008091DC009091DD0084FD89
:100D900018C080E48093ED0080E090E0A0E8B9E91D
:100DA0008093F0009093F100A093F200B093F300D1
:100DB0007093FA00D092FA00C092FA0083E4809314
:100DC000EF006F960FB6F894DEBF0FBECDBFDF9178
:100DD000CF911F910F91FF90EF90DF90CF900895EA
:100DE00080E043CF8FE70BCF80E09FE7B6CE8091C6
:100DF000DC009091DD0081FD2AC080E18093ED0050
:100E000080E090E0A0E8B6E48093F0009093F100D9
:100E1000A093F200B093F300888D8093FA00898D3F
:100E20008093FA008A8D8093FA008B8D8093FA006C
:100E30008C8D8093FA008D8D8093FA008E8D809337
:100E4000FA008F8D8093FA0088E48093EF00809100
:100E5000DC009091DD0080FD29C01092ED0080E063
:100E600090E0A0E8BAE18093F0009093F100A093A5
:100E7000F200B093F30088898093FA008989809307
:100E8000FA008A898093FA008B898093FA008C8912
:100E90008093FA008D898093FA008E898093FA00FE
:100EA0008F898093FA0088E48093EF008091DC00C2
:100EB0009091DD0084FD18C080E48093ED0080E017
:100EC00090E0A0EAB9E98093F0009093F100A0933C
:100ED000F200B093F3007093FA00D092FA00C0923F
:100EE000FA0083E48093EF00FE01319687E0DF0192
:100EF0001D928A95E9F788E690E00E9479398A8305
:100F000080E390E00E9479398B8384E590E00E9431
:100F100079398C838CE690E00E9479398D838DE657
:100F200090E00E947939082F88E590E00E9481398D
:100F300064E670E00E94F537079500270795062BB9
:100F40000E8388E390E00E9479398F838091DC00E2
:100F50009091DD0082FD1BC080E28093ED008981CD
:100F60008093FA008A818093FA008B818093FA0043
:100F70008C818093FA008D818093FA008E8180931A
:100F8000FA008F818093FA0087E48093EF00FE01DE
:100F9000389688E0DF011D928A95E9F789E690E0AE
:100FA0000E947939898788E690E00E9479398A879A
:100FB0008DE490E00E9479398B878CE490E00E9468
:100FC00079398C878091DC009091DD0083FDF9CE2A
:100FD00080E38093ED0088858093FA008985809373
:100FE000FA008A858093FA008B858093FA008C85BD
:100FF0008093FA008D858093FA008E858093FA00A5
:101000008F858093FA0088E48093EF00DACE809693
:10101000880F892F881F990B919590A3878F17CEE2
:101020008FEFEDCD80A5882309F0CBCC81E081A3A3
:10103000D2CC13A2A1A1B0E0AA0FBB1FAE0FBF1F5D
:101040001F960D90BC91A02D5D968C915D97882385
:1010500009F08DCC82A18F5F82A389CC80E09FEFC5
:101060007CCD81E0832781A312A2A2CC30E08ECC7C
:10107000809580688F5FC3CDDA019796AE0FBF1F52
:101080008C9184608C9373CC309521953F4F5ECCCE
:1010900020952068922F9F5F80E05FCDEF92FF92B6
:1010A0001F93CF93DF931F9B28C0E82EE7017E019B
:1010B000F92EE7011FB7F89460911F037091200388
:1010C00080912103909122032AE030E040E050E03B
:1010D0000E940938209368011FBF988181E08093A6
:1010E0006601E0916401F091650180818F7D8083CC
:1010F00080916701890F80936701DF91CF911F91E4
:10110000FF90EF900895EF92FF921F93CF93DF939C
:101110001F9928C0E82EE7017E01F92EE7011FB7CD
:10112000F89460911F0370912003809121039091A6
:1011300022032AE030E040E050E00E94093820938A
:1011400068011FBF988181E080936601E09164018E
:10115000F091650180818F7D808380916701890F87
:1011600080936701DF91CF911F91FF90EF900895D9
:101170001F931F9B25C01FB7F89460911F037091A8
:10118000200380912103909122032AE030E040E087
:1011900050E00E94093890916801209368011FBFB8
:1011A00081E080936601E0916401F09165018081A6
:1011B0008F7D808380916701891B820F80936701F7
:1011C0001F9108951F931F9925C01FB7F894609130
:1011D0001F037091200380912103909122032AE044
:1011E00030E040E050E00E9409389091680120937F
:1011F00068011FBF81E080936601E0916401F09176
:10120000650180818F7D808380916701891B820FBA
:10121000809367011F910895CF92DF92EF92FF9222
:101220000F931F938091F00185FD66C08474843410
:1012300009F062C040E050E060E070E04091F301EE
:101240005091F4018091F501682F87FD7FEF809127
:101250002901882351F010922901409302015093F3
:1012600003016093040170930501E0912101F0E016
:10127000EE0FFF1FE050FF4F0784F089E02D22851D
:101280003385832F881F8827881F90E0220F331F04
:10129000822B932B8F3F910579F170F1C090020161
:1012A000D0900301E0900401F09005014C195D0914
:1012B0006E097F09CA0157FD30C021E0853F9207C2
:1012C00014F510920A018A319105B4F0CB01BA01EC
:1012D00022E030E040E050E00E942B3889019A0182
:1012E0000C0D1D1D2E1D3F1D0093020110930301C7
:1012F00020930401309305011F910F91FF90EF900F
:10130000DF90CF90089581E080930A011F910F91A3
:10131000FF90EF90DF90CF900895909581959F4F2B
:10132000CCCF8EBD0DB407FEFDCF6EBD0DB407FE54
:10133000FDCF4EBD0DB407FEFDCF2EBD0DB407FE93
:10134000FDCF8EB50895AB01BC01DB01CA01019749
:10135000A109B1099F704150487F82EC692F20E0BC
:101360000E94910988E799E60197F1F70895FC0139
:101370005C9AA8ECB0E08091C900806111968C93D2
:1013800011978481883009F008958091C8008160A8
:101390008093C8005C9A8091C900806111968C93FB
:1013A0001197148208958F929F92AF92BF92CF921D
:1013B000DF92EF92FF920F931F93CF93DF9300D0B2
:1013C00000D000D0CDB7DEB77C01FC0120812130F8
:1013D00009F447C0293009F444C0022F10E0000F7F
:1013E000111F000F111F005E1F4FC80164812E8363
:1013F0000E94873948010894811C911CC401F7019F
:1014000063810E94873922E0A22EB12CA00EB11E6A
:10141000C501F70162810E94873933E0C32ED12CC8
:10142000C00ED11EC601F70161810E9487392E814D
:101430002983C6010E9479398A83C5010E947939BE
:101440008B83C4010E9479398C83C8010E94793949
:101450008D831F9906C08091DC009091DD0084FF90
:1014600013C026960FB6F894DEBF0FBECDBFDF9136
:10147000CF911F910F91FF90EF90DF90CF90BF9091
:10148000AF909F908F90089580E48093ED0080E06E
:1014900090E0A0E6B2E68093F0009093F100A09374
:1014A000F200B093F30089818093FA008A818093DF
:1014B000FA008B818093FA008C818093FA008D81F1
:1014C0008093FA0085E48093EF00CBCFCF93DF9336
:1014D000EC01ECEDF2E00BC08260828781E09FBFFF
:1014E000882371F43B9683E0EE31F807A1F19FB7B2
:1014F000F894828581FFF0CF80E09FBF882391F32D
:10150000CB01A0E0B0E040911F0350912003609117
:10151000210370912203840F951FA61FB71F808798
:1015200091879A2F917082858E7F892B82878A81FD
:101530009B81AC81BD8182839383A483B5838881A1
:101540009981918380838E819F819783868381E0B7
:10155000DF91CF91089580E0DF91CF910895FC0154
:101560002283338344835583718360830895DC0130
:1015700011961C921E92E8E5F1E01396FC93EE930F
:10158000129715961C921E9214970E94AF0A089506
:10159000FC012283338344835583718360830895E0
:1015A000DC0111961C921E92E8E5F1E01396FC9383
:1015B000EE93129715961C921E9214970E94C80AD9
:1015C0000895CF93DF939C014091ED008091EC0052
:1015D000807F8093ED008091EE008F7D8093EE0000
:1015E000B091EF00BF705091F20052955695577030
:1015F0006091F300762F770F770F770F872F852B6A
:10160000962F929596959770880F991F829592952F
:10161000907F9827807F98278B0F911D59E0853008
:10162000950709F462C05AE08830950709F41DC196
:101630005AE08834950709F41BC15BE088309507B0
:1016400009F430C15BE08834950709F414C15EE009
:101650008130950709F42CC15CE08130950709F4CD
:1016600033C150E18030950709F434C150E180382E
:10167000950709F435C150E18130950709F41EC181
:1016800050E18138950709F431C150E18032950766
:1016900009F432C150E1803A950709F430C150E1B4
:1016A0008132950709F434C150E1813A950709F474
:1016B00032C158E1873E950709F436C152E48832B9
:1016C000950709F43AC15AE48534950709F43BC1FA
:1016D00052E68530950709F433C15DE887309507F8
:1016E00009F0B8C063E170E002C060E070E0BB23C5
:1016F00081F0FB01EE0FFF1FEE0FFF1FEE0FFF1F2C
:10170000E20FF31F50E0A091FA00A1935F5F5B1717
:10171000D0F352E68530950709F458C059E085307A
:10172000950709F4B9C05AE48534950709F4B7C0A0
:101730005EE08130950709F4B8C052E4883295071D
:1017400009F4A7C05DE88730950709F4BAC05AE0EC
:101750008830950709F4BBC05BE08830950709F431
:10176000BCC058E1873E950709F4A5C050E1803020
:10177000950709F4B8C050E18038950709F4B9C05D
:1017800050E18032950709F4BDC050E1803A9507D9
:1017900009F4BBC050E18130950709F4BFC050E1A6
:1017A0008138950709F4BDC050E18132950709F4ED
:1017B000C1C050E1813A950709F4B9C05CE08130BD
:1017C000950709F047C081E190E002C080E090E019
:1017D000DC01AA0FBB1FA80FB91FAA0FBB1FA05681
:1017E000BF4FA20FB31F660F771F660F771F660FDD
:1017F000771F620F731F9FB7F8948091FE0B8F5F66
:101800008093FE0BE091FD0B8091FD0B8F5F809329
:10181000FD0B2091FC0B821789F19FBFF0E0EE0FCA
:10182000FF1FEE0FFF1FEE0FFF1FE450FC4F12963D
:101830002D913C9113971496CD91DC9115978D9134
:101840009C91119733832283D583C48391838083B2
:10185000778366838091EF008F7380688093EF00B9
:101860004093ED00DF91CF91089561E070E03FCFAC
:1018700062E070E03CCF64E070E039CF8091FC0B17
:101880008F5F8093FC0B8091FE0B81508093FE0B49
:10189000C4CF84E090E09CCF81E090E099CF82E0DB
:1018A00090E096CF63E070E022CF83E090E090CFAD
:1018B00065E070E01CCF88E090E08ACF69E070E0DE
:1018C00016CF85E090E084CF66E070E010CF86E030
:1018D00090E07ECF67E070E00ACF87E090E078CFBD
:1018E00068E070E004CF89E090E072CF6AE070E0D9
:1018F000FECE8AE090E06CCF6BE070E0F8CE6CE05A
:1019000070E0F5CE8BE090E063CF8CE090E060CFAC
:101910006DE070E0ECCE6EE070E0E9CE8DE090E03E
:1019200057CF8EE090E054CF6FE070E0E0CE80E1E2
:1019300090E04ECF8FE090E04BCF60E170E0D7CEEB
:1019400062E170E0D4CE61E170E0D1CE009711F495
:1019500081E008958130910511F482E0089582308C
:10196000910511F484E008958330910511F488E025
:1019700008958430910511F480E108958530910532
:1019800011F480E208958630910511F480E4089501
:1019900041E08730910529F480E8489F802D11248B
:1019A00008958830910511F480E0F7CF89309105D2
:1019B00011F480E008958A309105D9F38B309105B8
:1019C000C1F38C309105A9F38D30910591F38E30E0
:1019D000910579F39C012950304040E08F3091050A
:1019E00041F3C901D6CF0F931F93CF93DF9300D05C
:1019F00000D000D0CDB7DEB78C012AE337E340E05A
:101A000050E0CE010196B8010E94D00AD801ED91B4
:101A1000FC91119760A19FB7F8948091FE0B8F5FA6
:101A20008093FE0BE091FD0B8091FD0B8F5F809307
:101A3000FD0B2091FC0B821721F19FBFF0E0EE0F10
:101A4000FF1FEE0FFF1FEE0FFF1FE450FC4F2D8115
:101A50003E8149815A818B819C8193838283358326
:101A600024835183408366831782789426960FB629
:101A7000F894DEBF0FBECDBFDF91CF911F910F91C4
:101A800008958091FC0B8F5F8093FC0B8091FE0B7F
:101A900081508093FE0BD1CFCF93DF9300D000D045
:101AA00000D0CDB7DEB786E394E0A0E0B0E08B8352
:101AB0009C83AD83BE8389E591E09A8389839FB738
:101AC000F8948091FE0B8F5F8093FE0BE091FD0BED
:101AD0008091FD0B8F5F8093FD0B2091FC0B821793
:101AE00009F19FBFF0E0EE0FFF1FEE0FFF1FEE0F9B
:101AF000FF1FE450FC4F2D813E8149815A818B812B
:101B00009C8193838283358324835183408317820E
:101B1000168226960FB6F894DEBF0FBECDBFDF91BA
:101B2000CF9108958091FC0B8F5F8093FC0B809187
:101B3000FE0B81508093FE0BD4CFFC018381882360
:101B4000E1F4F0990DC0F09A8EB38695869586954E
:101B500080FD0DC0F39A838191E0892783830895E6
:101B6000F0988EB386958695869580FFF3CFF3988F
:101B7000838191E08927838308958EB3869580FDC4
:101B80000CC0F19A8EB38695869580FD0CC0F29AB2
:101B9000838191E0892783830895F1988EB3869598
:101BA000869580FFF4CFF298838191E08927838323
:101BB00008951F931F9B02C01F9108951FB7F894AB
:101BC00060911F0370912003809121039091220363
:101BD0002AE030E040E050E00E940938809168013E
:101BE000922F981B209368011FBF81E080936601AC
:101BF000E0916401F0916501808180628083509161
:101C00006701590F50936701943218F1609169018F
:101C1000662359F5550F509367014081407840661F
:101C2000446010926901852F8459893190F54F776E
:101C300080916B01E0916401F0916501481771F1A9
:101C400080818F7B808340936B01109267011F918D
:101C50000895809169018F5F80936901833009F055
:101C6000ABCF80818F7B8083A7CF40814078406657
:101C700022E030E0261B310981E090E002C0880FAD
:101C8000991F2A95E2F78F71482B633050F24F7BF2
:101C9000C8CF5D5A5A31C8F44068CACF46FF13C056
:101CA0008081842787FD13C080916A0110926F01A3
:101CB000882329F0E0916D01F0916E011082E0918E
:101CC0006401F09165014083BECF4F7BB1CF80911D
:101CD0006A01882331F010926A0110926F014083EB
:101CE000B2CFE0916D01F0916E0180916F01808320
:101CF000DBCFCF93DF93CDB7DEB728970FB6F8943D
:101D0000DEBF0FBECDBF1092FB0386E394E0A0E0E0
:101D1000B0E08B839C83AD83BE8389E79EE09A838A
:101D2000898318861F82ECEDF2E00BC08260828707
:101D300081E09FBF882371F43B9683E0EE31F80782
:101D400069F19FB7F894828581FFF0CF80E09FBF53
:101D5000882391F380911F0390912003A091210388
:101D6000B0912203805F984DAF4FBF4F808791871E
:101D70009A2F917082858E7F892B82878B819C819F
:101D8000AD81BE8182839383A483B58389819A8147
:101D9000918380838F8198859783868328960FB659
:101DA000F894DEBF0FBECDBFDF91CF910895EF92C3
:101DB000FF921F93CF93DF931F9B58C0E82EE7013C
:101DC0007E01F92EE7011FB7F89460911F0370910F
:101DD000200380912103909122032AE030E040E02B
:101DE00050E00E940938209368011FBF988181E06C
:101DF00080936601E0916401F091650180818062C9
:101E0000808350916701590F509367019432A0F17C
:101E100060916901662309F442C0408140784066C0
:101E200022E030E0261B310981E090E002C0880FFB
:101E3000991F2A95E2F78F71482B633008F04F7B8A
:101E400010926901852F84598931B0F54F778091BF
:101E50006B01E0916401F0916501481791F1808177
:101E60008F7B808340936B0110926701DF91CF914C
:101E70001F91FF90EF900895809169018F5FA4E614
:101E8000B1E015968C931597833081F780818F7B15
:101E90008083DF91CF911F91FF90EF900895550FB0
:101EA0005093670140814078406644601092690118
:101EB000852F8459893150F25D5A5A31C8F44068EF
:101EC000C6CF46FF13C08081842787FD13C0809151
:101ED0006A0110926F01882329F0E0916D01F09161
:101EE0006E011082E0916401F09165014083BACFE8
:101EF0004F7BADCF80916A01882331F010926A0147
:101F000010926F014083AECFE0916D01F0916E01B0
:101F100080916F018083DBCFEF92FF921F93CF936D
:101F2000DF931F9958C0E82EE7017E01F92EE701E3
:101F30001FB7F89460911F037091200380912103D3
:101F4000909122032AE030E040E050E00E940938FE
:101F5000209368011FBF988181E080936601E09122
:101F60006401F091650180818062808350916701F6
:101F7000590F509367019432A0F160916901662373
:101F800009F442C040814078406622E030E0261BE0
:101F9000310981E090E002C0880F991F2A95E2F78D
:101FA0008F71482B633008F04F7B10926901852FA9
:101FB00084598931B0F54F7780916B01E0916401CC
:101FC000F0916501481791F180818F7B8083409368
:101FD0006B0110926701DF91CF911F91FF90EF90FD
:101FE0000895809169018F5FA4E6B1E015968C9306
:101FF0001597833081F780818F7B8083DF91CF912C
:102000001F91FF90EF900895550F50936701408105
:1020100040784066446010926901852F8459893167
:1020200050F25D5A5A31C8F44068C6CF46FF13C01B
:102030008081842787FD13C080916A0110926F010F
:10204000882329F0E0916D01F0916E011082E091FA
:102050006401F09165014083BACF4F7BADCF809191
:102060006A01882331F010926A0110926F01408357
:10207000AECFE0916D01F0916E0180916F01808390
:10208000DBCF1F931F9902C01F9108951FB7F894CB
:1020900060911F037091200380912103909122038E
:1020A0002AE030E040E050E00E9409388091680169
:1020B000922F981B209368011FBF81E080936601D7
:1020C000E0916401F091650180818062808350918C
:1020D0006701590F50936701943218F160916901BB
:1020E000662359F5550F509367014081407840664B
:1020F000446010926901852F8459893190F54F779A
:1021000080916B01E0916401F0916501481771F1D4
:1021100080818F7B808340936B01109267011F91B8
:102120000895809169018F5F80936901833009F080
:10213000ABCF80818F7B8083A7CF40814078406682
:1021400022E030E0261B310981E090E002C0880FD8
:10215000991F2A95E2F78F71482B633050F24F7B1D
:10216000C8CF5D5A5A31C8F44068CACF46FF13C081
:102170008081842787FD13C080916A0110926F01CE
:10218000882329F0E0916D01F0916E011082E091B9
:102190006401F09165014083BECF4F7BB1CF809148
:1021A0006A01882331F010926A0110926F01408316
:1021B000B2CFE0916D01F0916E0180916F0180834B
:1021C000DBCF0F931F93CF93DF9300D000D00F92FC
:1021D000CDB7DEB71F992AC0FC018081813031F173
:1021E000893021F1082F10E0000F111F000F111F7F
:1021F000005E1F4F8983C80103960E9479398A8344
:10220000C80102960E9479398B83C80101960E9409
:1022100079398C83C8010E9479398D831F9906C052
:102220008091DC009091DD0084FF0AC00F900F9038
:102230000F900F900F90DF91CF911F910F91089504
:1022400080E48093ED0080E090E0A0E6B2E6809329
:10225000F0009093F100A093F200B093F300898115
:102260008093FA008A818093FA008B818093FA0030
:102270008C818093FA008D818093FA0085E48093AD
:10228000EF00D4CFCF93DF93CDB7DEB7A0970FB6D3
:10229000F894DEBF0FBECDBF8091A00186FF09C0BC
:1022A0008F73853209F446C0863260F4813209F4B6
:1022B000A9C0A0960FB6F894DEBF0FBECDBFDF91C8
:1022C000CF910895873209F469C0893291F72FB709
:1022D000F8943FB7F8948091AE029091AF0291606C
:1022E0009093AF028093AE023FBF2FBF86E394E08E
:1022F000A0E0B0E08B8F9C8FAD8FBE8F86E891E021
:102300009A8F898F18A21F8EECEDF2E00CC08260CC
:10231000828781E09FBF882309F016C13B9683E046
:10232000EE31F80731F29FB7F894828581FFEFCF45
:1023300080E0F0CF2FB7F8943FB7F8948091AE02C9
:102340009091AF0294609093AF028093AE023FBF32
:102350002FBF86E394E0A0E0B0E08B879C87AD8739
:10236000BE8786EA91E09A878987188A1F86ECEDF6
:10237000F2E00DC08260828781E09FBF882309F070
:1023800074C03B9683E0EE31F80709F492CF9FB713
:10239000F894828581FFEECF80E0EFCF2FB7F894DD
:1023A0003FB7F8948091AE029091AF0298609093FD
:1023B000AF028093AE023FBF2FBF86E394E0A0E060
:1023C000B0E08B839C83AD83BE8386EB91E09A83E0
:1023D000898318861F82ECEDF2E00DC0826082874F
:1023E00081E09FBF882309F08AC03B9683E0EE31ED
:1023F000F80709F45ECF9FB7F894828581FFEECF8E
:1024000080E0EFCF2FB7F8943FB7F8948091AE02F9
:102410009091AF0292609093AF028093AE023FBF63
:102420002FBF86E394E0A0E0B0E08B8B9C8BAD8B5C
:10243000BE8B86E991E09A8B898B188E1F8AECED12
:10244000F2E00CC08260828781E09FBF882391F513
:102450003B9683E0EE31F80709F42BCF9FB7F89451
:10246000828581FFEFCF80E0F0CF80911F039091B4
:102470002003A0912103B091220388519C4FAF4FBC
:10248000BF4F808791879A2F917082858E7F892B8D
:1024900082878B859C85AD85BE8582839383A4834B
:1024A000B58389859A85918380838F859889978361
:1024B0008683FFCE80911F0390912003A09121037A
:1024C000B091220388519C4FAF4FBF4F80879187B7
:1024D0009A2F917082858E7F892B82878B899C8928
:1024E000AD89BE8982839383A483B58389899A89C0
:1024F000918380838F89988D97838683DACE8091AC
:102500001F0390912003A0912103B09122038851D1
:102510009C4FAF4FBF4F808791879A2F91708285D4
:102520008E7F892B82878B819C81AD81BE81828346
:102530009383A483B58389819A81918380838F81DA
:10254000988597838683B5CE80911F039091200351
:10255000A0912103B091220388519C4FAF4FBF4FF0
:10256000808791879A2F917082858E7F892B8287B1
:102570008B8D9C8DAD8DBE8D82839383A483B5831B
:10258000898D9A8D918380838F8D98A1978386837F
:1025900090CECF93DF9300D000D00F92CDB7DEB7AF
:1025A0002091080230910902243051F0203141F08D
:1025B0000F900F900F900F900F90DF91CF91089593
:1025C000353099F1363009F4CDC03D3009F480C082
:1025D0003E3009F457C0333059F7203149F780EDC8
:1025E000898399B181E094FF80E08795882787955A
:1025F00090918F02892B8A838091C8008B83809170
:10260000C9008C838091CA008D831F9BD2C08091AA
:10261000DC009091DD0084FDCBCF80E48093ED0061
:1026200080E090E0A0E8B6EC78C082E091E0FC01A8
:10263000549139964491DE011196FD0111923A951B
:10264000E9F70396FC0184918A83852F90E0841B2F
:102650009109541B592B5D83243009F480C020312B
:1026600009F0A6CF1F9997C08091DC009091DD0002
:1026700084FD9ECF80E48093ED0080E090E0A0E6B2
:10268000B6EC4BC01F9B94CF80ED898387E790E029
:102690000E9479398A8386E790E00E9479398B839A
:1026A00085E790E00E9479398C8384E790E00E946E
:1026B00079398D838091DC009091DD0084FD78CFA5
:1026C00080E48093ED0080E090E0A0E0BAE925C0CE
:1026D0001F996ECF80ED898387E790E00E9479395A
:1026E0008A8386E790E00E9479398B8385E790E0C2
:1026F0000E9479398C8384E790E00E9479398D8338
:102700008091DC009091DD0084FD52CF80E48093C5
:10271000ED0080E090E0A0E0B8E98093F0009093B5
:10272000F100A093F200B093F30089818093FA0046
:102730008A818093FA008B818093FA008C81809348
:10274000FA008D818093FA0085E48093EF000F906A
:102750000F900F900F900F90DF91CF9108951F99D8
:10276000A9CFCECF84E790E060910D020E94873917
:1027700085E790E060910C020E94873986E790E03F
:1027800060910B020E94873987E790E060910A020E
:102790000E9487390DCF8091DC009091DD0084FD8F
:1027A00007CF80E48093ED0080E090E0A0E8B6ECF5
:1027B000B4CF8091DC009091DD0084FDF9CE80E4FF
:1027C0008093ED0080E090E0A0E6B6ECA6CF1F92EB
:1027D0000F920FB60F920BB60F9211242F933F93C7
:1027E0004F935F936F937F938F939F93AF93BF9319
:1027F000CF93DF93EF93FF932091F5033091F6038E
:102800008091F7039091F803A091F903B091FA0336
:10281000FC01CD01A0FF22C095958795820F931FE3
:10282000EC01A881B981AE0FBF1FEC911196FC910C
:102830000995FF91EF91DF91CF91BF91AF919F915A
:102840008F917F916F915F914F913F912F910F9059
:102850000BBE0F900FBE0F901F9018959595879502
:10286000820F931FE5CF1F920F920FB60F920BB6F8
:102870000F9211242F933F934F935F936F937F9306
:102880008F939F93AF93BF93CF93DF93EF93FF9378
:102890002091EF033091F0038091F1039091F203C6
:1028A000A091F303B091F403FC01CD01A0FF22C07D
:1028B00095958795820F931FEC01A881B981AE0F82
:1028C000BF1FEC911196FC910995FF91EF91DF915B
:1028D000CF91BF91AF919F918F917F916F915F91B8
:1028E0004F913F912F910F900BBE0F900FBE0F9005
:1028F0001F90189595958795820F931FE5CF1F928E
:102900000F920FB60F920BB60F9211242F933F9395
:102910004F935F936F937F938F939F93AF93BF93E7
:10292000CF93DF93EF93FF932091E9033091EA0374
:102930008091EB039091EC03A091ED03B091EE0335
:10294000FC01CD01A0FF22C095958795820F931FB2
:10295000EC01A881B981AE0FBF1FEC911196FC91DB
:102960000995FF91EF91DF91CF91BF91AF919F9129
:102970008F917F916F915F914F913F912F910F9028
:102980000BBE0F900FBE0F901F90189595958795D1
:10299000820F931FE5CF1F920F920FB60F920BB6C7
:1029A0000F9211242F933F934F935F936F937F93D5
:1029B0008F939F93AF93BF93CF93DF93EF93FF9347
:1029C0002091E3033091E4038091E5039091E603C5
:1029D000A091E703B091E803FC01CD01A0FF22C064
:1029E00095958795820F931FEC01A881B981AE0F51
:1029F000BF1FEC911196FC910995FF91EF91DF912A
:102A0000CF91BF91AF919F918F917F916F915F9186
:102A10004F913F912F910F900BBE0F900FBE0F90D3
:102A20001F90189595958795820F931FE5CF1F925C
:102A30000F920FB60F920BB60F9211242F933F9364
:102A40004F935F936F937F938F939F93AF93BF93B6
:102A5000CF93DF93EF93FF932091DD033091DE035B
:102A60008091DF039091E003A091E103B091E20334
:102A7000FC01CD01A0FF22C095958795820F931F81
:102A8000EC01A881B981AE0FBF1FEC911196FC91AA
:102A90000995FF91EF91DF91CF91BF91AF919F91F8
:102AA0008F917F916F915F914F913F912F910F90F7
:102AB0000BBE0F900FBE0F901F90189595958795A0
:102AC000820F931FE5CF1F920F920FB60F920BB696
:102AD0000F9211242F933F934F935F936F937F93A4
:102AE0008F939F93AF93BF93CF93DF93EF93FF9316
:102AF0002091D7033091D8038091D9039091DA03C4
:102B0000A091DB03B091DC03FC01CD01A0FF22C04A
:102B100095958795820F931FEC01A881B981AE0F1F
:102B2000BF1FEC911196FC910995FF91EF91DF91F8
:102B3000CF91BF91AF919F918F917F916F915F9155
:102B40004F913F912F910F900BBE0F900FBE0F90A2
:102B50001F90189595958795820F931FE5CF1F922B
:102B60000F920FB60F920BB60F9211242F933F9333
:102B70004F935F936F937F938F939F93AF93BF9385
:102B8000CF93DF93EF93FF932091D1033091D20342
:102B90008091D3039091D403A091D503B091D60333
:102BA000FC01CD01A0FF22C095958795820F931F50
:102BB000EC01A881B981AE0FBF1FEC911196FC9179
:102BC0000995FF91EF91DF91CF91BF91AF919F91C7
:102BD0008F917F916F915F914F913F912F910F90C6
:102BE0000BBE0F900FBE0F901F901895959587956F
:102BF000820F931FE5CF1F920F920FB60F920BB665
:102C00000F9211242F933F934F935F936F937F9372
:102C10008F939F93AF93BF93CF93DF93EF93FF93E4
:102C20002091CB033091CC038091CD039091CE03C2
:102C3000A091CF03B091D003FC01CD01A0FF22C031
:102C400095958795820F931FEC01A881B981AE0FEE
:102C5000BF1FEC911196FC910995FF91EF91DF91C7
:102C6000CF91BF91AF919F918F917F916F915F9124
:102C70004F913F912F910F900BBE0F900FBE0F9071
:102C80001F90189595958795820F931FE5CF1F92FA
:102C90000F920FB60F920BB60F9211242F933F9302
:102CA0004F935F936F937F938F939F93AF93BF9354
:102CB000CF93DF93EF93FF932091C5033091C60329
:102CC0008091C7039091C803A091C903B091CA0332
:102CD000FC01CD01A0FF22C095958795820F931F1F
:102CE000EC01A881B981AE0FBF1FEC911196FC9148
:102CF0000995FF91EF91DF91CF91BF91AF919F9196
:102D00008F917F916F915F914F913F912F910F9094
:102D10000BBE0F900FBE0F901F901895959587953D
:102D2000820F931FE5CF1F920F920FB60F920BB633
:102D30000F9211242F933F934F935F936F937F9341
:102D40008F939F93AF93BF93CF93DF93EF93FF93B3
:102D50002091BF033091C0038091C1039091C203C1
:102D6000A091C303B091C403FC01CD01A0FF22C018
:102D700095958795820F931FEC01A881B981AE0FBD
:102D8000BF1FEC911196FC910995FF91EF91DF9196
:102D9000CF91BF91AF919F918F917F916F915F91F3
:102DA0004F913F912F910F900BBE0F900FBE0F9040
:102DB0001F90189595958795820F931FE5CF1F92C9
:102DC0000F920FB60F920BB60F9211242F933F93D1
:102DD0004F935F936F937F938F939F93AF93BF9323
:102DE000CF93DF93EF93FF932091B9033091BA0310
:102DF0008091BB039091BC03A091BD03B091BE0331
:102E0000FC01CD01A0FF22C095958795820F931FED
:102E1000EC01A881B981AE0FBF1FEC911196FC9116
:102E20000995FF91EF91DF91CF91BF91AF919F9164
:102E30008F917F916F915F914F913F912F910F9063
:102E40000BBE0F900FBE0F901F901895959587950C
:102E5000820F931FE5CF1F920F920FB60F920BB602
:102E60000F9211242F933F934F935F936F937F9310
:102E70008F939F93AF93BF93CF93DF93EF93FF9382
:102E80002091B3033091B4038091B5039091B603C0
:102E9000A091B703B091B803FC01CD01A0FF22C0FF
:102EA00095958795820F931FEC01A881B981AE0F8C
:102EB000BF1FEC911196FC910995FF91EF91DF9165
:102EC000CF91BF91AF919F918F917F916F915F91C2
:102ED0004F913F912F910F900BBE0F900FBE0F900F
:102EE0001F90189595958795820F931FE5CF1F9298
:102EF0000F920FB60F920BB60F9211242F933F93A0
:102F00004F935F936F937F938F939F93AF93BF93F1
:102F1000CF93DF93EF93FF932091AD033091AE03F6
:102F20008091AF039091B003A091B103B091B2032F
:102F3000FC01CD01A0FF22C095958795820F931FBC
:102F4000EC01A881B981AE0FBF1FEC911196FC91E5
:102F50000995FF91EF91DF91CF91BF91AF919F9133
:102F60008F917F916F915F914F913F912F910F9032
:102F70000BBE0F900FBE0F901F90189595958795DB
:102F8000820F931FE5CF1F920F920FB60F920BB6D1
:102F90000F9211242F933F934F935F936F937F93DF
:102FA0008F939F93AF93BF93CF93DF93EF93FF9351
:102FB0002091A7033091A8038091A9039091AA03BF
:102FC000A091AB03B091AC03FC01CD01A0FF22C0E6
:102FD00095958795820F931FEC01A881B981AE0F5B
:102FE000BF1FEC911196FC910995FF91EF91DF9134
:102FF000CF91BF91AF919F918F917F916F915F9191
:103000004F913F912F910F900BBE0F900FBE0F90DD
:103010001F90189595958795820F931FE5CF1F9266
:103020000F920FB60F920BB60F9211242F933F936E
:103030004F935F936F937F938F939F93AF93BF93C0
:10304000CF93DF93EF93FF932091A1033091A203DD
:103050008091A3039091A403A091A503B091A6032E
:10306000FC01CD01A0FF22C095958795820F931F8B
:10307000EC01A881B981AE0FBF1FEC911196FC91B4
:103080000995FF91EF91DF91CF91BF91AF919F9102
:103090008F917F916F915F914F913F912F910F9001
:1030A0000BBE0F900FBE0F901F90189595958795AA
:1030B000820F931FE5CF1F920F920FB60F920BB6A0
:1030C0000F9211242F933F934F935F936F937F93AE
:1030D0008F939F93AF93BF93CF93DF93EF93FF9320
:1030E00020919B0330919C0380919D0390919E03BE
:1030F000A0919F03B091A003FC01CD01A0FF22C0CD
:1031000095958795820F931FEC01A881B981AE0F29
:10311000BF1FEC911196FC910995FF91EF91DF9102
:10312000CF91BF91AF919F918F917F916F915F915F
:103130004F913F912F910F900BBE0F900FBE0F90AC
:103140001F90189595958795820F931FE5CF1F9235
:103150000F920FB60F920BB60F9211242F933F933D
:103160004F935F936F937F938F939F93AF93BF938F
:10317000CF93DF93EF93FF932091950330919603C4
:103180008091970390919803A0919903B0919A032D
:10319000FC01CD01A0FF22C095958795820F931F5A
:1031A000EC01A881B981AE0FBF1FEC911196FC9183
:1031B0000995FF91EF91DF91CF91BF91AF919F91D1
:1031C0008F917F916F915F914F913F912F910F90D0
:1031D0000BBE0F900FBE0F901F9018959595879579
:1031E000820F931FE5CF1F920F920FB60F920BB66F
:1031F0000F9211242F933F934F935F936F937F937D
:103200008F939F93AF93BF93CF93DF93EF93FF93EE
:1032100020918F03309190038091910390919203BC
:10322000A0919303B0919403FC01CD01A0FF22C0B3
:1032300095958795820F931FEC01A881B981AE0FF8
:10324000BF1FEC911196FC910995FF91EF91DF91D1
:10325000CF91BF91AF919F918F917F916F915F912E
:103260004F913F912F910F900BBE0F900FBE0F907B
:103270001F90189595958795820F931FE5CF1F9204
:103280000F920FB60F920BB60F9211242F933F930C
:103290004F935F936F937F938F939F93AF93BF935E
:1032A000CF93DF93EF93FF932091890330918A03AB
:1032B00080918B0390918C03A0918D03B0918E032C
:1032C000FC01CD01A0FF22C095958795820F931F29
:1032D000EC01A881B981AE0FBF1FEC911196FC9152
:1032E0000995FF91EF91DF91CF91BF91AF919F91A0
:1032F0008F917F916F915F914F913F912F910F909F
:103300000BBE0F900FBE0F901F9018959595879547
:10331000820F931FE5CF1F920F920FB60F920BB63D
:103320000F9211242F933F934F935F936F937F934B
:103330008F939F93AF93BF93CF93DF93EF93FF93BD
:1033400020918303309184038091850390918603BB
:10335000A0918703B0918803FC01CD01A0FF22C09A
:1033600095958795820F931FEC01A881B981AE0FC7
:10337000BF1FEC911196FC910995FF91EF91DF91A0
:10338000CF91BF91AF919F918F917F916F915F91FD
:103390004F913F912F910F900BBE0F900FBE0F904A
:1033A0001F90189595958795820F931FE5CF1F92D3
:1033B0000F920FB60F920BB60F9211242F933F93DB
:1033C0004F935F936F937F938F939F93AF93BF932D
:1033D000CF93DF93EF93FF9320917D0330917E0392
:1033E00080917F0390918003A0918103B09182032B
:1033F000FC01CD01A0FF22C095958795820F931FF8
:10340000EC01A881B981AE0FBF1FEC911196FC9120
:103410000995FF91EF91DF91CF91BF91AF919F916E
:103420008F917F916F915F914F913F912F910F906D
:103430000BBE0F900FBE0F901F9018959595879516
:10344000820F931FE5CF1F920F920FB60F920BB60C
:103450000F9211242F933F934F935F936F937F931A
:103460008F939F93AF93BF93CF93DF93EF93FF938C
:1034700020917703309178038091790390917A03BA
:10348000A0917B03B0917C03FC01CD01A0FF22C081
:1034900095958795820F931FEC01A881B981AE0F96
:1034A000BF1FEC911196FC910995FF91EF91DF916F
:1034B000CF91BF91AF919F918F917F916F915F91CC
:1034C0004F913F912F910F900BBE0F900FBE0F9019
:1034D0001F90189595958795820F931FE5CF1F92A2
:1034E0000F920FB60F920BB60F9211242F933F93AA
:1034F0004F935F936F937F938F939F93AF93BF93FC
:10350000CF93DF93EF93FF93209171033091720378
:103510008091730390917403A0917503B091760329
:10352000FC01CD01A0FF22C095958795820F931FC6
:10353000EC01A881B981AE0FBF1FEC911196FC91EF
:103540000995FF91EF91DF91CF91BF91AF919F913D
:103550008F917F916F915F914F913F912F910F903C
:103560000BBE0F900FBE0F901F90189595958795E5
:10357000820F931FE5CF1F920F920FB60F920BB6DB
:103580000F9211242F933F934F935F936F937F93E9
:103590008F939F93AF93BF93CF93DF93EF93FF935B
:1035A00020916B0330916C0380916D0390916E03B9
:1035B000A0916F03B0917003FC01CD01A0FF22C068
:1035C00095958795820F931FEC01A881B981AE0F65
:1035D000BF1FEC911196FC910995FF91EF91DF913E
:1035E000CF91BF91AF919F918F917F916F915F919B
:1035F0004F913F912F910F900BBE0F900FBE0F90E8
:103600001F90189595958795820F931FE5CF1F9270
:103610000F920FB60F920BB60F9211242F933F9378
:103620004F935F936F937F938F939F93AF93BF93CA
:10363000CF93DF93EF93FF9320916503309166035F
:103640008091670390916803A0916903B0916A0328
:10365000FC01CD01A0FF22C095958795820F931F95
:10366000EC01A881B981AE0FBF1FEC911196FC91BE
:103670000995FF91EF91DF91CF91BF91AF919F910C
:103680008F917F916F915F914F913F912F910F900B
:103690000BBE0F900FBE0F901F90189595958795B4
:1036A000820F931FE5CF1F920F920FB60F920BB6AA
:1036B0000F9211242F933F934F935F936F937F93B8
:1036C0008F939F93AF93BF93CF93DF93EF93FF932A
:1036D00020915F03309160038091610390916203B8
:1036E000A0916303B0916403FC01CD01A0FF22C04F
:1036F00095958795820F931FEC01A881B981AE0F34
:10370000BF1FEC911196FC910995FF91EF91DF910C
:10371000CF91BF91AF919F918F917F916F915F9169
:103720004F913F912F910F900BBE0F900FBE0F90B6
:103730001F90189595958795820F931FE5CF1F923F
:103740000F920FB60F920BB60F9211242F933F9347
:103750004F935F936F937F938F939F93AF93BF9399
:10376000CF93DF93EF93FF932091590330915A0346
:1037700080915B0390915C03A0915D03B0915E0327
:10378000FC01CD01A0FF22C095958795820F931F64
:10379000EC01A881B981AE0FBF1FEC911196FC918D
:1037A0000995FF91EF91DF91CF91BF91AF919F91DB
:1037B0008F917F916F915F914F913F912F910F90DA
:1037C0000BBE0F900FBE0F901F9018959595879583
:1037D000820F931FE5CF1F920F920FB60F920BB679
:1037E0000F9211242F933F934F935F936F937F9387
:1037F0008F939F93AF93BF93CF93DF93EF93FF93F9
:1038000020915303309154038091550390915603B6
:10381000A0915703B0915803FC01CD01A0FF22C035
:1038200095958795820F931FEC01A881B981AE0F02
:10383000BF1FEC911196FC910995FF91EF91DF91DB
:10384000CF91BF91AF919F918F917F916F915F9138
:103850004F913F912F910F900BBE0F900FBE0F9085
:103860001F90189595958795820F931FE5CF1F920E
:103870000F920FB60F920BB60F9211242F933F9316
:103880004F935F936F937F938F939F93AF93BF9368
:10389000CF93DF93EF93FF9320914D0330914E032D
:1038A00080914F0390915003A0915103B091520326
:1038B000FC01CD01A0FF22C095958795820F931F33
:1038C000EC01A881B981AE0FBF1FEC911196FC915C
:1038D0000995FF91EF91DF91CF91BF91AF919F91AA
:1038E0008F917F916F915F914F913F912F910F90A9
:1038F0000BBE0F900FBE0F901F9018959595879552
:10390000820F931FE5CF1F920F920FB60F920BB647
:103910000F9211242F933F934F935F936F937F9355
:103920008F939F93AF93BF93CF93DF93EF93FF93C7
:1039300020914703309148038091490390914A03B5
:10394000A0914B03B0914C03FC01CD01A0FF22C01C
:1039500095958795820F931FEC01A881B981AE0FD1
:10396000BF1FEC911196FC910995FF91EF91DF91AA
:10397000CF91BF91AF919F918F917F916F915F9107
:103980004F913F912F910F900BBE0F900FBE0F9054
:103990001F90189595958795820F931FE5CF1F92DD
:1039A0000F920FB60F920BB60F9211242F933F93E5
:1039B0004F935F936F937F938F939F93AF93BF9337
:1039C000CF93DF93EF93FF93209141033091420314
:1039D0008091430390914403A0914503B091460325
:1039E000FC01CD01A0FF22C095958795820F931F02
:1039F000EC01A881B981AE0FBF1FEC911196FC912B
:103A00000995FF91EF91DF91CF91BF91AF919F9178
:103A10008F917F916F915F914F913F912F910F9077
:103A20000BBE0F900FBE0F901F9018959595879520
:103A3000820F931FE5CF1F920F920FB60F920BB616
:103A40000F9211242F933F934F935F936F937F9324
:103A50008F939F93AF93BF93CF93DF93EF93FF9396
:103A600020913B0330913C0380913D0390913E03B4
:103A7000A0913F03B0914003FC01CD01A0FF22C003
:103A800095958795820F931FEC01A881B981AE0FA0
:103A9000BF1FEC911196FC910995FF91EF91DF9179
:103AA000CF91BF91AF919F918F917F916F915F91D6
:103AB0004F913F912F910F900BBE0F900FBE0F9023
:103AC0001F90189595958795820F931FE5CF1F92AC
:103AD0000F920FB60F920BB60F9211242F933F93B4
:103AE0004F935F936F937F938F939F93AF93BF9306
:103AF000CF93DF93EF93FF932091350330913603FB
:103B00008091370390913803A0913903B0913A0323
:103B1000FC01CD01A0FF22C095958795820F931FD0
:103B2000EC01A881B981AE0FBF1FEC911196FC91F9
:103B30000995FF91EF91DF91CF91BF91AF919F9147
:103B40008F917F916F915F914F913F912F910F9046
:103B50000BBE0F900FBE0F901F90189595958795EF
:103B6000820F931FE5CF1F920F920FB60F920BB6E5
:103B70000F9211242F933F934F935F936F937F93F3
:103B80008F939F93AF93BF93CF93DF93EF93FF9365
:103B900020912F03309130038091310390913203B3
:103BA000A0913303B0913403FC01CD01A0FF22C0EA
:103BB00095958795820F931FEC01A881B981AE0F6F
:103BC000BF1FEC911196FC910995FF91EF91DF9148
:103BD000CF91BF91AF919F918F917F916F915F91A5
:103BE0004F913F912F910F900BBE0F900FBE0F90F2
:103BF0001F90189595958795820F931FE5CF1F927B
:103C00000F920FB60F920BB60F9211242F933F9382
:103C10004F935F936F937F938F939F93AF93BF93D4
:103C2000CF93DF93EF93FF932091290330912A03E1
:103C300080912B0390912C03A0912D03B0912E0322
:103C4000FC01CD01A0FF22C095958795820F931F9F
:103C5000EC01A881B981AE0FBF1FEC911196FC91C8
:103C60000995FF91EF91DF91CF91BF91AF919F9116
:103C70008F917F916F915F914F913F912F910F9015
:103C80000BBE0F900FBE0F901F90189595958795BE
:103C9000820F931FE5CF1F920F920FB60F920BB6B4
:103CA0000F9211242F933F934F935F936F937F93C2
:103CB0008F939F93AF93BF93CF93DF93EF93FF9334
:103CC00020912303309124038091250390912603B2
:103CD000A0912703B0912803FC01CD01A0FF22C0D1
:103CE00095958795820F931FEC01A881B981AE0F3E
:103CF000BF1FEC911196FC910995FF91EF91DF9117
:103D0000CF91BF91AF919F918F917F916F915F9173
:103D10004F913F912F910F900BBE0F900FBE0F90C0
:103D20001F90189595958795820F931FE5CFFC01FD
:103D3000A781B0858FB7F8944D915C918FBFA18515
:103D4000B2858FB7F8942D913C918FBFA385B48530
:103D50006FB7F8948D919C9111976FBF50834183F9
:103D600032831382268B978B808F118E08951F9339
:103D7000CF93DF93EB010E947939182FCE010E9477
:103D8000793987FD15C08F77412F50E09A01220FB6
:103D9000331F440F551F440F551F440F551F240F49
:103DA000351F280F311DC901DF91CF911F91089553
:103DB000412F50E09A01220F331F440F551F440F2B
:103DC000551F440F551F240F351F8F77281B3109AE
:103DD000C901DF91CF911F910895CF93DF93CDB7A4
:103DE000DEB728970FB6F894DEBF0FBECDBFFC013B
:103DF000828180937C02818180937D022381822F46
:103E000090E0807C907095958795959587959081A9
:103E10009F74982B90937E02822F8F7090918002D6
:103E2000892B809380028481809381023581832F46
:103E300090E02091B30220783072232BDC01AF7028
:103E4000B070A65DBE4F3C91232B807C9070009794
:103E500009F45BC0206886E394E0A0E0B0E08B83C7
:103E60009C83AD83BE8383EF91E09A838983188618
:103E70001F82ACEDB2E00DC082601A968C931A9747
:103E800081E09FBF882381F41B9683E0AE31B807A1
:103E9000E1F19FB7F8941A968C911A9781FFECCFB5
:103EA00080E09FBF882381F340911F03509120033E
:103EB000609121037091220348515C4F6F4F7F4FF7
:103EC00018964C93189719965C931997962F9170A2
:103ED0001A968C911A978E7F892B1A968C931A9723
:103EE0004B815C816D817E8112964D935D936D93C4
:103EF0007C93159789819A8111969C938E938F81DB
:103F0000988517969C938E9316972093B302908171
:103F100081E095FD80E080930B0181E080930C01AE
:103F200028960FB6F894DEBF0FBECDBFDF91CF91BC
:103F300008951F9B08950E94ED1E08951F990895EE
:103F40000E94ED1E0895BF92CF92DF92EF92FF92F2
:103F50000F931F93CF93DF93EC01062FB72E488169
:103F600059816A817B81DB01CA018F779070A070D3
:103F7000B0700097A105B105F9F441505040604080
:103F800070406A017B0139E0F694E794D794C794B6
:103F90003A95D1F7769567955795479540788CE493
:103FA0006C2D20E00E9491098CEB94E30197F1F7CE
:103FB000488159816A817B81842F8170880F880FA5
:103FC000880F6A017B01F694E794D794C7948064C4
:103FD00060E04C2D202F0E949109088119812A81CF
:103FE0003B81B901A8014F5F5F4F6F4F7F4F4883FF
:103FF00059836A837B83DB01CA018F779070A0703D
:10400000B0700097A105B105E9F46801790189E074
:10401000F694E794D794C7948A95D1F7B901A8018B
:10402000769567955795479540788CE46C2D20E000
:104030000E9491098CEB94E30197F1F74881598133
:104040006A817B81842F8170880F880F880F8A0195
:104050009B013695279517950795806460E0402F62
:104060002B2D0E94910988819981AA81BB8101969B
:10407000A11DB11D88839983AA83BB83DF91CF9152
:104080001F910F91FF90EF90DF90CF90BF90089518
:10409000FF920F931F93CF93DF93EC01062FF72E20
:1040A000488159816A817B81DB01CA0187709070E8
:1040B000A070B0700097A105B105A9F4DB01CA0199
:1040C0000197A109B1099F704150487F82EC692F87
:1040D00020E00E94910988E799E60197F1F748816D
:1040E00059816A817B81477081EC60E0202F0E94BA
:1040F000910988819981AA81BB818C019D010F5F03
:104100001F4F2F4F3F4F088319832A833B83B901E9
:10411000A8014770507060707070411551056105BD
:10412000710589F4692F6F70402F4150487F82ECF0
:1041300020E00E94910988E799E60197F1F708814C
:1041400019812A813B81402F477081EC60E02F2D3F
:104150000E94910988819981AA81BB810196A11D44
:10416000B11D88839983AA83BB83DF91CF911F916F
:104170000F91FF900895FF920F931F93CF93DF93BA
:10418000EC01088119812A813B81802F8170880F81
:10419000880F880FB901A801F9E0769567955795C2
:1041A0004795FA95D1F7369527951795079580622B
:1041B000642F402F20E00E949109F82E0881198178
:1041C0002A813B810F5F1F4F2F4F3F4F0883198379
:1041D0002A833B83802F8170880F880F880FB90155
:1041E000A801B9E07695679557954795BA95D1F7A7
:1041F00036952795179507958062642F402F20E00C
:104200000E949109982F488159816A817B814F5F73
:104210005F4F6F4F7F4F488359836A837B838F2D16
:10422000DF91CF911F910F91FF900895FF920F930F
:104230001F93CF93DF93EC0148816981677080EA17
:1042400020E00E949109F82E088119812A813B8182
:104250000F5F1F4F2F4F3F4F088319832A833B83E4
:10426000612F677080EA402F20E00E949109982F0B
:10427000488159816A817B814F5F5F4F6F4F7F4FCC
:10428000488359836A837B838F2DDF91CF911F9160
:104290000F91FF900895FF920F931F93CF93DF9399
:1042A0008C01DC011596ED91FC911697808121819E
:1042B000813209F4A8C0823208F067C0813109F464
:1042C000A2C0823108F0F4C0833009F415C18430F3
:1042D00009F4D4C0882309F07BC0E8018D898132BC
:1042E00009F465C1823208F021C1813109F4F5C1B8
:1042F000823109F06DC0EF81F8858FB7F894208185
:1043000031818FBFC801632F722F0E94A31FE80164
:10431000E985FA858FB7F894208131818FBFC80174
:10432000632F722F0E94A31FEB85FC858FB7F89433
:10433000208131818FBFC801632F722F0E94A31F7C
:1043400088819981AA81BB814E895F89688D798D29
:1043500084179507A607B70708F0A2C1AD85BE85EB
:10436000ED81FE8182E091812FB7F89411969C93A4
:104370008E932FBFD8011D96ED91FC911E97159637
:104380000D90BC91A02D80E01BC0813339F18233A8
:1043900008F094C0833209F4AFC0833208F03EC005
:1043A00082E2F801858BC8010E94971ED8011D96F4
:1043B000ED91FC911E9715960D90BC91A02D82E079
:1043C00011969C9111972FB7F894918380832FBFFA
:1043D000DF91CF911F910F91FF900895D8015596CD
:1043E0008C9355971D96ED91FC911E9781E0922F2D
:1043F0002FB7F894918380832FBFDF91CF911F91C6
:104400000F91FF900895E8018D8BC8010E94971EBF
:10441000ED85FE85AD81BE8181E0D2CF8432C1F6CB
:10442000E801688179818A819B810E94A309F80152
:1044300080819181A281B3810197A109B1099C0179
:10444000AD0169E056954795379527956A95D1F75F
:10445000B695A79597958795982F90788CE4622FBD
:10446000492F20E00E9491098CEB94E30197F1F72A
:10447000D8011596ED91FC9116972181E801ED8503
:10448000FE8584E0922F2FB7F894918380832FBF0D
:1044900024982C9AF89428E088E190E00FB6F894DC
:1044A000A895809360000FBE209360000000FECFAF
:1044B000833111F1833170F482E173CF8333E1F002
:1044C000833388F482E3F801858B0584F685E02D3B
:1044D00082E08DCF843109F4AACFDF91CF911F9173
:1044E0000F91FF900895843309F4C8CFDF91CF91E5
:1044F0001F910F91FF900895E801ED85FE8583E0FF
:10450000922F2FB7F894918380832FBF8CEA60E8B5
:1045100040E020E00E94910988E799E60197F1F7D1
:10452000ED85FE85AD81BE8180E04ACF813309F4FF
:1045300087C0823309F480C0823209F049CFE80194
:10454000EF81F8858FB7F894208131818FBFC80142
:10455000632F722F0E944820E985FA858FB7F8945F
:10456000208131818FBFC801632F722F0E944820A4
:10457000EB85FC858FB7F894208131818FBFC8010E
:10458000632F722F0E944820688179818A819B81E4
:104590002E893F89488D598D6217730784079507C7
:1045A00008F047C0AD85BE85ED81FE81DBCE0F846E
:1045B000D889C02DC8010E941621292F382F8FB706
:1045C000F894398328838FBFD8015196CD91DC911F
:1045D0005297C8010E941621292F382F8FB7F894BF
:1045E000398328838FBFF801C389D489C8010E9409
:1045F0001621292F382F8FB7F894398328838FBF3E
:10460000D8014D915D916D917C91139756968D9146
:104610009D910D90BC91A02D84179507A607B70713
:1046200008F4A8CEE801ED85FE85AD81BE8181E06C
:10463000C7CE0E94A3099ECEED85FE8580E0D7CE31
:104640000F84D889C02D88E568E040E020E00E9412
:104650009109F82E80E560E040E020E00E94910999
:104660002F2D382F8FB7F894398328838FBFD80127
:104670005196CD91DC91529780E568E040E020E0D2
:104680000E94910920E0382F8FB7F894398328834E
:104690008FBFE801ED85FE85AD81BE8180E090CEC3
:1046A0000197A109B1099C01AD0169E056954795B3
:1046B000379527956A95D1F7B695A79597958795DC
:1046C000982F90788CE4622F492F20E00E94910966
:1046D0008CEB94E30197F1F74DCE0F84D889C02D70
:1046E000C8010E94BB20292F382F8FB7F894398337
:1046F00028838FBFD8015196CD91DC915297C80184
:104700000E94BB20292F382F8FB7F8943983288334
:104710008FBFF801C389D489C8010E94BB2069CF2B
:10472000CF93DF9300D000D000D0CDB7DEB7BC016F
:10473000FC01E056FF4FDC01AE55BF4F845F9E4F3A
:1047400028E531E01182108211963C932E93139646
:104750001C921E92129736961696E817F90791F753
:104760008091D80081608093D800E2EEF0E08091E3
:10477000E20081788A608093E2008091E3008E609D
:1047800081838091E40081788B6482838091ED0045
:104790008F708093ED0088E08093EF0085E090E0DB
:1047A000A0EEBFEF8093F4009093F500A093F60085
:1047B000B093F7008091ED008F7080618093ED00E1
:1047C00088E08093EF0085E08093F4009093F500FB
:1047D000A093F600B093F7008091ED008F70806297
:1047E0008093ED0087E08093EF0080E0B3E6809354
:1047F000F0009093F100A093F200B093F30085E0F5
:10480000BFEF8093F4009093F500A093F600B0936F
:10481000F7008091ED008F7080638093ED0088E059
:104820008093EF0080E0A0ECB3E68093F0009093DB
:10483000F100A093F200B093F30085E0A0EEBFEF8B
:104840008093F4009093F500A093F600B093F700E6
:104850008091ED008F7080648093ED0088E08093FC
:10486000EF0085E08093F4009093F500A093F600AC
:10487000B093F7008091ED008F7080658093ED001C
:1048800088EC8093EF0080E0A0E0B9E08093F00036
:104890009093F100A093F200B093F30085E0A0EEB6
:1048A000BFEF8093F4009093F500A093F600B093CF
:1048B000F7008091ED008F7080668093ED0088E8AE
:1048C0008093EF0080E0A0E0BAE08093F000909346
:1048D000F100A093F200B093F30085E0A0EABFEFEF
:1048E0008093F4009093F500A093F600B093F70046
:1048F0008091ED008F7080678093ED0088E8809351
:10490000EF0080E0A0E0BBE08093F0009093F10026
:10491000A093F200B093F30085E0A0EABFEF80938C
:10492000F4009093F500A093F600B093F700809107
:10493000ED008F7080688093ED0088E88093EF0031
:1049400080E0A0E0BEE08093F0009093F100A0939F
:10495000F200B093F30085E0A0EEBDEF8093F40089
:104960009093F500A093F600B093F7008091ED00CE
:104970008F7080698093ED0088E88093EF0080E07D
:10498000A0E0B0E18093F0009093F100A093F200DA
:10499000B093F30085E0A0E6BFEF8093F40090931E
:1049A000F500A093F600B093F7008091ED008F70B2
:1049B000806A8093ED0088E88093EF0080E0A0E2B9
:1049C000B0E18093F0009093F100A093F200B093D7
:1049D000F30085E0A0E6BFEF8093F4009093F5002C
:1049E000A093F600B093F7008091ED008F70806B7C
:1049F0008093ED0088EC8093EF0080E0A0EEB8E1BA
:104A00008093F0009093F100A093F200B093F30034
:104A100085E0BFEF8093F4009093F500A093F6003B
:104A2000B093F7008091ED008F70806C8093ED0063
:104A300088EC8093EF0080E0A0E2B2E48093F00085
:104A40009093F100A093F200B093F30085E0A0EE04
:104A5000BFEF8093F4009093F500A093F600B0931D
:104A6000F7008091ED008F70806D8093ED0088E8F5
:104A70008093EF0080E0A0E4BAE48093F00090938C
:104A8000F100A093F200B093F30085E0A0EAB7ED47
:104A90008093F4009093F500A093F600B093F70094
:104AA0008091ED008F70806E8093ED0088EC809394
:104AB000EF0080E0A0E0BDE88093F0009093F1006B
:104AC000A093F200B093F30085E0A0EEBFEF8093D7
:104AD000F4009093F500A093F600B093F70080EEF9
:104AE0009FE79093DF008093DE008091DB00806A77
:104AF0008093DB0021EE3AE040E050E0CE010196E9
:104B00000E94B70A8B819C81AD81BE818093910305
:104B100090939203A0939303B093940389819A8115
:104B20009093900380938F038091D800826080934C
:104B3000D8008091D90082FFFCCF26960FB6F8945A
:104B4000DEBF0FBECDBFDF91CF9108953F924F9250
:104B50005F926F927F928F929F92AF92BF92CF920D
:104B6000DF92EF92FF920F931F93CF93DF93CDB716
:104B7000DEB72B970FB6F894DEBF0FBECDBFFB019B
:104B8000C080D180E280F380C701B6012CE030E024
:104B900040E050E00E94D6376D837E838F839887F4
:104BA00086E090E00E94A60C880F880F8150482E66
:104BB000552466247724DC82CB8281E090E09B87B9
:104BC0008A872EC0682D592D4A2D7B2D862E952E35
:104BD000A42EB72E281739070CF0032D302E2817D6
:104BE00039070CF465C099818A8199838A832A8563
:104BF0003B852034310508F458C084E090E02A85D4
:104C00003B85289F7001299FF00C389FF00C1124E0
:104C1000FB86EA86A70184E04130580708F053C0BC
:104C20002A853B856901EE24FF246D817E818F8179
:104C30009885A70196010E94093889019A010150BF
:104C4000104020403040401651066206730610F4B2
:104C500093018201602F70E06F5F7F4F882777FD9F
:104C60008095982FA70196010E94D6372CE030E05E
:104C700040E050E00E94093869017A01C4014B818B
:104C80005C81841B950B97FD1AC09601EB81FC811A
:104C90002E1B3F0B37FD0FC0281739070CF092CFA2
:104CA0006C2D5D2D4E2D7F2D91CF88E090E0A7CF0C
:104CB0009A858B859ACF309521953F4FEDCF909572
:104CC00081959F4FE2CF0093B300E981FA81E034F0
:104CD000F10509F448C0E134F10598F129813A81E0
:104CE00041E020303407C9F154E02030350791F11C
:104CF000998597708091B000807B892B88608F7C2C
:104D00008093B00080917000826080937000B40145
:104D1000C5012B960FB6F894DEBF0FBECDBFDF9155
:104D2000CF911F910F91FF90EF90DF90CF90BF90A8
:104D3000AF909F908F907F906F905F904F903F903B
:104D40000895E130F10561F0E830F10589F682E07F
:104D50008987CECFF7E0F987CBCFE6E0E987C8CFE8
:104D600021E02987C5CF94E09987C2CFAF92BF9247
:104D7000CF92DF92EF92FF920F931F93CF93DF9327
:104D800000D000D0CDB7DEB75C0110919D028091BC
:104D90009F0281FF43C0123008F440C08EE190E0D2
:104DA0009093010180930001809170008260809354
:104DB0007000F50181818117E1F11183E0910F010C
:104DC000F09110016081718180E090E028EF36E081
:104DD00041E050E00E94D63728EE33E040E050E05A
:104DE0000E94093869017A01212F30E040E050E04B
:104DF000C701B6010E94093889019A0109831A8303
:104E00002B833C83073911052105310590F0C5013D
:104E1000BE016F5F7F4F0E94A6250BC086E090E029
:104E20009093010180930001809170008D7F8093A9
:104E3000700081E0F50182830F900F900F900F902A
:104E4000DF91CF911F910F91FF90EF90DF90CF9066
:104E5000BF90AF900895FC01228333834483558330
:104E6000718360830895DC0111961C921E92E8E51F
:104E7000F1E01396FC93EE93129715961C921E92F6
:104E800014970E942B270895CF93DF93CDB7DEB7F9
:104E9000C359D0400FB6F894DEBF0FBECDBF28EA8D
:104EA00031E0F901849190E0FC01EE0FFF1FE80F63
:104EB000F91FEE0FFF1FEC56FD4F8AE394E0A0E0D0
:104EC000B0E0CA57DF4F88839983AA83BB83C65853
:104ED000D04083A794A7A5A7B6A786E69DE292A790
:104EE00081A7F9013497849190E0FC01EE0FFF1F38
:104EF000E80FF91FEE0FFF1FEC56FD4F8AE394E019
:104F0000A0E0B0E0C058DF4F88839983AA83BB83B9
:104F1000C058D04083A794A7A5A7B6A78FED91E06E
:104F200092A781A7F9013597849190E0FC01EE0FDB
:104F3000FF1FE80FF91FEE0FFF1FEC56FD4F8AE32E
:104F400094E0A0E0B0E0EE968CAF9DAFAEAFBFAF07
:104F5000EE9783A794A7A5A7B6A78CE49DE092A798
:104F600081A727503040F901849190E07C01EE0C3C
:104F7000FF1CE80EF91EEE0CFF1C84E992E0E80E1F
:104F8000F91ED7019996CE56DF4FB983A883C2592F
:104F9000D04026EB36E240E050E0CE018E589F4FE5
:104FA00060E671E00E943327E8968CAD9DADAEAD12
:104FB000BFADE897CE56DF4FE881F981C259D040A6
:104FC00082839383A483B583E4968EAD9FADE497EB
:104FD000D7019A969C938E93999786E394E0A0E0EC
:104FE000B0E0E2968CAF9DAFAEAFBFAFE2978093DB
:104FF000120290931302A0931402B093150223EDB2
:1050000039E0309311022093100286E394E0A0E08F
:10501000B0E0AC968CAF9DAFAEAFBFAFAC97809316
:10502000180290931902A0931A02B0931B023093B6
:1050300017022093160286E394E0A0E0B0E0A69663
:105040008CAF9DAFAEAFBFAFA69780931E0290937B
:105050001F02A0932002B093210230931D022093DF
:105060001C0286E394E0A0E0B0E0A0968CAF9DAF78
:10507000AEAFBFAFA0978093240290932502A09378
:105080002602B093270281EE90E190932302809351
:10509000220286E394E0A0E0B0E06A968CAF9DAF78
:1050A000AEAFBFAF6A9780932A0290932B02A09372
:1050B0002C02B0932D028CE099E09093290280930A
:1050C000280286E394E0A0E0B0E064968CAF9DAF48
:1050D000AEAFBFAF64978093300290933102A0933C
:1050E0003202B093330289EC92E190932F028093C5
:1050F0002E0286E394E0A0E0B0E02E968CAF9DAF48
:10510000AEAFBFAF2E978093360290933702A09335
:105110003802B09339028EE99FE190933502809373
:10512000340286E394E0A0E0B0E028968CAF9DAF17
:10513000AEAFBFAF289780933C0290933D02A093FF
:105140003E02B0933F0289E99FE190933B02809336
:105150003A0286E394E0A0E0B0E022968CAF9DAFE7
:10516000AEAFBFAF22978093420290934302A093C9
:105170004402B093450286EC91E090934102809303
:10518000400286E394E0A0E0B0E088AF99AFAAAF18
:10519000BBAF8093780290937902A0937A02B09388
:1051A0007B0282E491E1909377028093760286E31A
:1051B00094E0A0E0B0E08AAB9BABACABBDAB80931E
:1051C000480290934902A0934A02B0934B0289EDA2
:1051D0009DE0909347028093460286E394E0A0E02E
:1051E000B0E08CA79DA7AEA7BFA780936002909365
:1051F0006102A0936202B09363028CE89FE09093F7
:105200005F0280935E0286E394E0A0E0B0E08EA3AC
:105210009FA3A8A7B9A780934E0290934F02A09393
:105220005002B093510282EE98E090934D02809329
:105230004C0286E394E0A0E0B0E088A399A3AAA37F
:10524000BBA38093660290936702A0936802B09319
:10525000690283E898E0909365028093640286E394
:1052600094E0A0E0B0E08A8F9B8FAC8FBD8F8093DD
:10527000540290935502A0935602B093570281E4D2
:1052800090E1909353028093520286E394E0A0E071
:10529000B0E08C8B9D8BAE8BBF8B80936C02909318
:1052A0006D02A0936E02B0936F0287ED9EE0909323
:1052B0006B0280936A0286E394E0A0E0B0E08E8700
:1052C0009F87A88BB98B80935A0290935B02A0931F
:1052D0005C02B0935D0288EB98E090935902809352
:1052E000580286E394E0A0E0B0E088879987AA8717
:1052F000BB878093720290937302A0937402B09361
:1053000075028EE498E09093710280937002809110
:1053100026018823A1F481E08093260116BCA99A76
:1053200080916E00826080936E00109285001092D2
:105330008400B19A80916F00826080936F007894AE
:1053400082E091E0FC01249139963491FE0131967E
:1053500045E0DF011D924A95E9F70396FC0184912F
:105360008A83822F90E0831B9109231B292B2D8395
:105370001F99CFC28091DC009091DD0084FD21C097
:1053800080E48093ED0080E090E0A0E0B8E98093B5
:10539000F0009093F100A093F200B093F3008981A4
:1053A0008093FA008A818093FA008B818093FA00BF
:1053B0008C818093FA008D818093FA0085E480933C
:1053C000EF0080E395E70197F1F78091DC00909181
:1053D000DD0084FD21C080E48093ED0080E090E05A
:1053E000A0E6B6EC8093F0009093F100A093F20059
:1053F000B093F30089818093FA008A818093FA0048
:105400008B818093FA008C818093FA008D81809348
:10541000FA0085E48093EF0086E394E0A0E0B0E03A
:10542000C457DF4F88839983AA83BB83CC58D0406D
:1054300089E79EE0C657DF4F99838883CA58D040DA
:10544000C057DF4F19821882C059D040CE0186570D
:105450009F4F60E177E20E94660A83B121E030E06D
:1054600085FD02C020E030E08091010C90E0822BAD
:10547000932B8093010C009789F083B185FD0EC0BA
:10548000F89428E088E190E00FB6F894A89580930E
:1054900060000FBE209360000000FECF7FB7F8943D
:1054A0009091FC0B8091FD0B981709F45CC1E09181
:1054B000FC0BF0E0EE0FFF1FEE0FFF1FEE0FFF1FC4
:1054C000E450FC4F82819381448155812081318158
:1054D000C680D7806091FC0B6F5F6093FC0B60917E
:1054E000FE0B61506093FE0B7FBF7091FE0B6091CD
:1054F000FB03671720F46091FE0B6093FB032115FB
:10550000310509F457C1A82FB92FCA0140FF21C1A5
:1055100095958795820F931FFC01208131812A0F79
:105520003B1FF901A081B181B601FD010995A89544
:105530006FB7F8944091E60241FF08C0942F917034
:10554000809121038170981709F443C120E030E075
:1055500088E591E040E050E06FBFE82FF92FC901E6
:1055600020FFFCC095958795840F951FDC012D9138
:105570003C912E0F3F1FD901EC911196FC91B8017F
:1055800009956FB7F8944091F10241FF08C0942F3C
:105590009170809121038170981709F49AC120E0DD
:1055A00030E088E591E040E050E06FBFE82FF92F50
:1055B000C90120FFC4C095958795840F951FDC0114
:1055C0002D913C912E0F3F1FD901EC911196FC912A
:1055D000B80109956FB7F8944091FC0241FF08C0EB
:1055E000942F9170809121038170981709F4C2C0A3
:1055F00020E030E088E591E040E050E06FBFE82F28
:10560000F92FC90120FFA0C095958795840F951F9C
:10561000DC012D913C912E0F3F1FD901EC91119689
:10562000FC91B80109956FB7F8944091070341FFC9
:1056300008C0942F9170809121038170981709F40C
:1056400008C120E030E088E591E040E050E06FBF25
:10565000E82FF92FC90120FF6DC095958795840F1C
:10566000951FDC012D913C912E0F3F1FD901EC912C
:105670001196FC91B80109956FB7F8944091120307
:1056800041FF08C0942F9170809121038170981779
:1056900009F4FFC020E030E088E591E040E050E010
:1056A0006FBFE82FF92FC90120FF3AC09595879564
:1056B000840F951FDC012D913C912E0F3F1FD901C6
:1056C000EC911196FC91B80109956FB7F89440914F
:1056D0001D0341FF08C0942F9170809121038170B8
:1056E000981709F496C020E030E088E591E040E0AA
:1056F00050E06FBFE82FF92FC90120FF16C0959524
:105700008795840F951FDC012D913C912E0F3F1F33
:10571000D901EC911196FC91B8010995A8959DCEFF
:1057200095958795840F951FCECF95958795840F76
:10573000951FF2CF95958795840F951F9BCF9595D3
:105740008795840F951F44CF95958795840F951F56
:1057500068CF95958795820F931FE6CE959587958F
:10576000840F951F0CCF20E030E040E050E088E54A
:1057700091E0BACE2091FA023091FB0280911F0392
:10578000909120032817390708F032CF4D7F4093BE
:10579000FC028091F4029091F5022091F602309182
:1057A000F7024091F2025091F3020091F802109139
:1057B000F90224CFF1E088359F0709F0A4CE411506
:1057C000510509F4B4CE009709F09DCE40FFAFCE4D
:1057D0009ACE2091E4023091E50280911F039091CE
:1057E00020032817390708F0B1CE4D7F4093E60219
:1057F0008091DE029091DF022091E0023091E1027F
:105800004091DC025091DD020091E2021091E3022E
:10581000A3CE20911B0330911C0380911F03909114
:1058200020032817390708F05ECF4D7F40931D03F2
:10583000809115039091160320911703309118035E
:1058400040911303509114030091190310911A030E
:1058500050CF209105033091060380911F03909152
:1058600020032817390708F0ECCE4D7F409307033B
:105870008091FF0290910003209101033091020377
:105880004091FD025091FE02009103031091040328
:10589000DECE209110033091110380911F0390916F
:1058A00020032817390708F0F5CE4D7F40931203E7
:1058B00080910A0390910B0320910C0330910D030A
:1058C000409108035091090300910E0310910F03BA
:1058D000E7CE2091EF023091F00280911F0390916A
:1058E00020032817390708F05ACE4D7F4093F10264
:1058F0008091E9029091EA022091EB023091EC0252
:105900004091E7025091E8020091ED021091EE0201
:105910004CCE8091DC009091DD0084FD21C080E4BC
:105920008093ED0080E090E0A0E0BAE98093F00081
:105930009093F100A093F200B093F30089818093DB
:10594000FA008A818093FA008B818093FA008C811F
:105950008093FA008D818093FA0085E48093EF00B4
:1059600080E395E70197F1F78091DC009091DD00ED
:1059700084FD52CD80E48093ED0080E090E0A0E8CB
:1059800030CDFC012283338344835583718360834C
:105990000895DC0111961C921E92E8E5F1E0139641
:1059A000FC93EE93129715961C921E9214970E94E8
:1059B000C12C08950E94C92C0895CF93DF93CDB7D1
:1059C000DEB728970FB6F894DEBF0FBECDBFBC017F
:1059D00080919F0281FD5BC086E090E09093010181
:1059E00080930001809170008D7F80937000FB0197
:1059F00012822DED3CE240E050E0CE0101960E9483
:105A0000DA2C18861F82ECEDF2E00BC082608287F0
:105A100081E09FBF882371F43B9683E0EE31F80765
:105A200069F19FB7F894828581FFF0CF80E09FBF36
:105A3000882391F380911F0390912003A09121036B
:105A4000B091220388519C4FAF4FBF4F8087918701
:105A50009A2F917082858E7F892B82878B819C8182
:105A6000AD81BE8182839383A483B58389819A812A
:105A7000918380838F8198859783868328960FB63C
:105A8000F894DEBF0FBECDBFDF91CF910895FB012B
:105A90008281882309F0ABCF9FCFFC01228333831F
:105AA00044835583718360830895DC0111961C92B1
:105AB0001E92E8E5F1E01396FC93EE93129715968B
:105AC0001C921E9214970E944D2D0895EF92FF9202
:105AD0000F931F93CF93DF9300D000D000D0CDB7AA
:105AE000DEB70091AA021091AB027801212F812F1D
:105AF00017FF03C091E090938D0286FD2EC085FDB7
:105B00002CC0E0910F01F091100180819181909360
:105B1000B7028093B602E0911101F09112018081E9
:105B200091819093B5028093B402809126018823DD
:105B300009F444C1FEEFEF16FEE0FF0609F489C048
