:100000000C9488000C940D0D0C94380D0C94630D19
:100010000C948E0D0C94B90D0C94E40D0C940F0EF1
:100020000C943A0E0C94650E0C94900E0C94BB0E2E
:100030000C94E60E0C94110F0C943C0F0C94670F6B
:100040000C94920F0C94BD0F0C94E80F0C941310A9
:100050000C943E100C9469100C9494100C94BF10E6
:100060000C94EA100C9415110C9440110C946B1123
:100070000C9496110C94C1110C94EC110C94171261
:100080000C9442120C946D120C9498120C94C3129E
:080090000C94EE12C233C733D9
:1001000000000000007A191101010000A6DFD9FDEE
:1001100011241FBECFEFD0E1DEBFCDBF11E0A0E0C4
:10012000B1E0EAE5FBE602C005900D92A637B10703
:10013000D9F719E0A6E7B1E001C01D92A33EB107CF
:10014000E1F73C9A3D9A449A459A2DE088E190E087
:100150000FB6F894A895809360000FBE20936000BE
:10016000259810E0C6E9D0E004C02297FE010E9465
:100170003E34C439D107C9F70E94FA1E0C94A03549
:100180000001000203000000040000000000000065
:100190000000000000000000908F8E8D080706050B
:1001A000000000000000000000000000000000004F
:1001B000000000000000000000000000000000003F
:1001C000000000000000000000000000000000002F
:1001D000000000000000000000000000000000001F
:1001E0008C8B8A89040300000000000000000000DE
:1001F00000000000000000000200000100000000FC
:1002000000000000000000000000000000000000EE
:1002100000000000000000000000000000000000DE
:1002200000000000000000000000000000000000CE
:1002300000000000000000000000000000000000BE
:1002400000000000000000000000000000000000AE
:10025000000000000000000000000000000000009E
:10026000000000000000000000000000000000008E
:10027000000000000000000000000000000000007E
:10028000000000000000000000000000000000006E
:10029000089508954FB7F8945FB7F8942091C2027B
:1002A0003091C30281E090E002C0880F991F6A95E7
:1002B000E2F780959095822393239093C3028093D5
:1002C000C2025FBF4FBF0895FC0187818F5F8783A4
:1002D00008952FB7F8943FB7F8948091C602909193
:1002E000C7029F779093C7028093C6023FBF2FBF7C
:1002F00008958091B7028970893031F010927C01A5
:1003000081E080938101089581E080937C010895CC
:10031000809103028093950280910402809396025B
:1003200080910502809397028091000280939B0246
:100330008091010280939C028091020280939D0231
:100340000895109213010895FC0141815281638147
:1003500074814F5F5F4F6F4F7F4F41835283638341
:1003600074830895FC0187818430F1F0853059F160
:100370008630B1F1873019F08F5F87830895A081AF
:10038000B181AF70B070A05BBE4F8C918093CE00F6
:100390008091C9008F7DA8ECB0E011968C931197E5
:1003A00087818F5F878308952181822F82958F7047
:1003B00090E0805B9E4FDC018C918093CE00878122
:1003C0008F5F87830895A181B0E0AF70B070A05BAC
:1003D000BE4F8C918093CE0087818F5F8783089575
:1003E000A081B181B295A295AF70AB27BF70AB274A
:1003F000ECCF1F9B11C0FB01908181E080937D01B8
:10040000E0917A01F0917B0180818F7D80838091E2
:100410007E01890F80937E0108951F9911C0FB0111
:10042000908181E080937D01E0917A01F0917B01E0
:1004300080818F7D808380917E01890F80937E01F2
:100440000895FC018281882331F00284F385E02D38
:1004500080818F5F808308950F931F93CF93DF93E5
:100460008B01FB018081893009F1813021F1C82F96
:10047000D0E0CC0FDD1FCC0FDD1FC05EDF4FCE0103
:10048000F80164810E947F35CE010196F8016381F5
:100490000E947F35CE010296F80162810E947F356D
:1004A000CE010396F80161810E947F35DF91CF91E3
:1004B0001F910F91089587E1FB018083CCE5D0E087
:1004C000DCCF8EBD0DB407FEFDCF6EBD0DB407FEB3
:1004D000FDCF4EBD0DB407FEFDCF2EBD0DB407FE02
:1004E000FDCF8EB50895FC015C9AA8ECB0E0809138
:1004F000C900806111968C9311978781883009F02B
:1005000008958091C80081608093C8005C9A8091B2
:10051000C900806111968C931197178208950F93EB
:100520001F93CF93DF9300D000D00F92CDB7DEB7EB
:10053000FB018081893009F446C0813009F443C051
:10054000082F10E0000F111F000F111F005E1F4F3A
:100550008983C80103960E9471358A83C801029677
:100560000E9471358B83C80101960E9471358C837E
:10057000C8010E9471358D838091DC009091DD006F
:1005800084FD21C080E48093ED0080E090E0A0E64F
:10059000B2E68093F0009093F100A093F200B09344
:1005A000F30089818093FA008A818093FA008B811D
:1005B0008093FA008C818093FA008D818093FA00F9
:1005C00085E48093EF000F900F900F900F900F90A5
:1005D000DF91CF911F910F910895CF93DF9300D0BA
:1005E00000D000D0CDB7DEB749835A836B837C83BC
:1005F0008D839E83E6EEF2E09FB7F894808581FDBF
:1006000038C0808582FD35C08085846080879FBF2B
:100610004FB7F8948091410390914203A091430316
:10062000B09144034FBFA90160E070E0480F591F2B
:100630006A1F7B1F6170707046835783962F91707D
:1006400080858E7F892B8087CF01AE014F5F5F4F02
:1006500026E0DA010D90AD01DC010D92CD012150B3
:10066000C1F780858260808780858B7F808781E06D
:1006700008C09FBF3996B3E0E034FB0709F0BCCF58
:1006800080E026960FB6F894DEBF0FBECDBFDF9197
:10069000CF910895CF93DF93AC016091ED008091ED
:1006A000EC00807F8093ED008091EE008F7D809341
:1006B000EE00B091EF00BF702091F20022952695D8
:1006C00027703091F300732F770F770F770F872FF5
:1006D000822B932F929596959770880F991F8295EC
:1006E0009295907F9827807F98278B0F911D29E006
:1006F0008530920709F472C07AE08830970709F4D0
:100700003DC1EAE088349E0709F43CC1FBE0883033
:100710009F0709F448C12BE08834920709F436C1D9
:100720007EE08130970709F445C1ECE081309E07F7
:1007300009F44EC1F0E180309F0709F450C120E177
:100740008038920709F452C170E18130970709F4AB
:1007500038C1E0E181389E0709F44FC1F0E18032F1
:100760009F0709F451C120E1803A920709F453C16F
:1007700070E18132970709F455C1E0E1813A9E07A3
:1007800009F454C1F8E1873E9F0709F459C122E4F6
:100790008832920709F458C17AE48534970709F43E
:1007A0005DC1E2E685309E0709F46AC1F2E685364E
:1007B0009F0709F461C12DE88730920709F458C1F9
:1007C00078E88530970709F463C1EAE885309E0729
:1007D00009F45AC12FEF30E07FEF03C020E030E092
:1007E00070E078947F3F09F4BDC0BB2381F0F9012C
:1007F000EE0FFF1FEE0FFF1FEE0FFF1FE40FF51FA1
:1008000070E0A091FA00A1937F5F7B17D0F3F2E62E
:1008100085309F0709F462C079E08530970709F4B5
:10082000BCC0EAE485349E0709F4BAC0F2E6853616
:100830009F0709F4BCC07EE08130970709F4AAC085
:10084000EDE887309E0709F4C0C0F8E885309F07BF
:1008500009F4C2C07AE88530970709F4C4C0EAE019
:1008600088309E0709F4AAC0FBE088309F0709F48E
:10087000C1C078E1873E970709F4C3C0E0E180304A
:100880009E0709F4C5C0F0E180389F0709F4C7C08E
:1008900070E18032970709F4CDC0E0E1803A9E070D
:1008A00009F4CBC0F0E181309F0709F4D4C070E1B6
:1008B0008138970709F4CCC0E0E181329E0709F442
:1008C000D4C0F0E1813A9F0709F4CCC07CE08130CC
:1008D000970709F047C083E190E002C080E090E014
:1008E000E901CC0FDD1FCC0FDD1FCC0FDD1FC40FC6
:1008F000D51F7FB7F8942091D8092F5F2093D8098E
:100900002091D7093091D7093F5F3093D709E09103
:10091000D6093E1751F43091D6093F5F3093D6097E
:100920003091D80931503093D8097FBF30E08E968E
:10093000880F991F880F991F840F951FFC018081D4
:100940009181A281B381F901EE0FFF1FE20FF31F26
:10095000EE0FFF1FEB52FC4F81839283A383B4837E
:10096000D683C583F8948091EF008F73806880935D
:10097000EF006093ED00DF91CF91089521E030E02A
:1009800071E02FCF22E030E072E02BCF24E030E0A6
:1009900074E027CF84E090E0A3CF81E090E0A0CF87
:1009A00082E090E09DCF23E030E073E01ACF83E057
:1009B00090E096CF25E030E075E013CF88E090E03E
:1009C0008FCF29E030E079E00CCF85E090E088CF50
:1009D00026E030E076E005CF86E090E081CF27E0AA
:1009E00030E077E0FECE87E090E07ACF28E030E09C
:1009F00078E0F7CE89E090E073CF2AE030E07AE04B
:100A0000F0CE8AE090E06CCF2BE030E07BE0E9CEE6
:100A10008BE090E065CF2CE030E07CE0E2CE8CE033
:100A200090E05ECF2DE030E07DE0DBCE2EE030E0E8
:100A30007EE0D7CE8DE090E053CF8EE090E050CFB7
:100A40002FE030E07FE0CDCE20E130E070E1C9CE94
:100A500080E190E045CF8FE090E042CF21E130E0AF
:100A600071E1BFCE82E190E03BCF81E190E038CFF1
:100A700024E130E074E1B5CE23E130E073E1B1CEA2
:100A800022E130E072E1ADCE26E130E076E1A9CEA0
:100A900025E130E075E1A5CE009721F421E030E0BA
:100AA000C90108958130910521F422E030E0C901A7
:100AB00008958230910519F424E030E0F1CF8330BD
:100AC000910519F428E030E0EBCF8430910519F45A
:100AD00020E130E0E5CF8530910519F420E230E0E7
:100AE000DFCF8630910519F420E430E0D9CF21E042
:100AF00030E08730910559F480E890E0A901489FE3
:100B00009001499F300D589F300D1124C9CF883076
:100B1000910519F480E091E0F1CF322F2227330FB5
:100B20008930910509F4BCCF8A30910519F4220F60
:100B3000331FB6CF8B30910529F4220F331F220FBC
:100B4000331FAECF8C30910539F4220F331F220FA3
:100B5000331F220F331FA4CF8D30910539F4229516
:100B60003295307F3227207F32279ACF8E30910501
:100B700049F4220F331F22953295307F3227207F90
:100B800032278ECFAC01495050408F30910551F43F
:100B90000024369527950794369527950794322F8C
:100BA000202D7ECFCA01A5CFDC01ED91FC911197DC
:100BB00040A19FB7F8948091D8098F5F8093D8099E
:100BC0002091D7098091D7098F5F8093D709309101
:100BD000D6098317C9F09FBF30E0C901880F991F5C
:100BE000820F931F880F991FFC01EA52FC4FB183BB
:100BF000A08321E233E333832283FC01EB52FC4FD9
:100C000045831682789408958091D6098F5F8093EA
:100C1000D6098091D80981508093D809DCCF9FB73D
:100C2000F8948091D8098F5F8093D8092091D709D3
:100C30008091D7098F5F8093D7093091D6098317A8
:100C4000C1F09FBF30E0C901880F991F820F931F29
:100C5000880F991FFC01EA52FC4F1182108220ED8F
:100C600036E0338322838B529C4FFC01168215821F
:100C700008958091D6098F5F8093D6098091D80915
:100C800081508093D809DDCF1F9B25C02FB7F894E2
:100C9000609141037091420380914303909144031A
:100CA0002FBF2AE030E040E050E00E94FF339091F7
:100CB0007F0120937F0181E080937D01E0917A01A3
:100CC000F0917B0180818F7D808380917E01891BE3
:100CD000820F80937E0108951F9925C02FB7F89445
:100CE00060914103709142038091430390914403CA
:100CF0002FBF2AE030E040E050E00E94FF339091A7
:100D00007F0120937F0181E080937D01E0917A0152
:100D1000F0917B0180818F7D808380917E01891B92
:100D2000820F80937E010895FC0183818823E1F482
:100D3000F0990DC0F09A8EB386958695869580FDC4
:100D40000DC0F39A838191E0892783830895F098F9
:100D50008EB386958695869580FFF3CFF398838131
:100D600091E08927838308958EB3869580FD0CC01A
:100D7000F19A8EB38695869580FD0CC0F29A838198
:100D800091E0892783830895F1988EB3869586959F
:100D900080FFF4CFF298838191E0892783830895BF
:100DA0005FB7F8944091D909842F90E0FC01EE0FD1
:100DB000FF1FE80FF91FE157FD4F6181728180919C
:100DC000C30290E08F709070242F2295207F30E036
:100DD000822B932B90819093C2028093C3027093D5
:100DE000C0026093C1025FBF4F5F4093D909453095
:100DF00009F008951092D9090895EF92FF920F9388
:100E00001F93CF93DF9300D000D00F92CDB7DEB702
:100E10007B01FB010081093009F46CC0013009F449
:100E200075C010E0000F111F000F111F005E1F4F53
:100E3000C801F70164810E947F35C8010196F7015E
:100E400063810E947F35C8010296F70162810E948A
:100E50007F35C8010396F70161810E947F35F70154
:100E60008081893009F446C0813009F443C0082FDD
:100E700010E0000F111F000F111F005E1F4F89832C
:100E8000C80103960E9471358A83C80102960E94A8
:100E900071358B83C80101960E9471358C83C8011E
:100EA0000E9471358D838091DC009091DD0084FD7E
:100EB00021C080E48093ED0080E090E0A0E6B2E6FF
:100EC0008093F0009093F100A093F200B093F300B0
:100ED00089818093FA008A818093FA008B818093C4
:100EE000FA008C818093FA008D818093FA0085E46A
:100EF0008093EF000F900F900F900F900F90DF9165
:100F0000CF911F910F91FF90EF90089587E1FB0122
:100F100080830CE510E08ACF1092D503E6EEF2E074
:100F20009FB7F894808581FD2FC0808582FD2CC0FD
:100F30008085846080879FBF2FB7F894809141039C
:100F400090914203A0914303B09144032FBF805F6F
:100F5000984DAF4FBF4FA170B070868397839A2F83
:100F6000917080858E7F892B8087118210828CE81A
:100F700097E09383828315821482808582608087C4
:100F800080858B7F808708959FBF399683E0E0340A
:100F9000F80731F60895FC0183818823E9F4A081E4
:100FA000B1818C91982F9F71943009F48CC0983046
:100FB00019F0807880618C932C911F9969C0809181
:100FC000DC009091DD0084FD08C080E48093ED009A
:100FD00080E090E0A0EC68C01382A6EEB2E09FB77C
:100FE000F89418968C91189781FD4AC018968C91A8
:100FF000189782FD45C018968C91189784601896B2
:101000008C9318979FBF8FB7F894409141035091EC
:10101000420360914303709144038FBF4053584F84
:101020006F4F7F4F6170707016964C93169717969E
:101030005C931797962F917018968C9118978E7FC6
:10104000892B18968C9318971196FC93EE938BEC42
:1010500097E013969C938E93129715961C921E926E
:10106000149718968C911897826018968C931897FD
:1010700018968C9118978B7F18968C9318970895D3
:101080009FBF199683E0A034B80709F0A8CF089550
:101090008091DC009091DD0084FD9FCF80E48093FF
:1010A000ED0080E090E0A0EEB9E98093F00090932D
:1010B000F100A093F200B093F3002093FA0081E4D2
:1010C0008093EF008ACF881F8827881F8095879597
:1010D0008827879588608C936FCFDC018091B3025D
:1010E00081FF3EC012968C9112978823C9F1129607
:1010F0001C921297E6EEF2E09FB7F894808581FD8E
:101100003BC0808582FD38C08085846080879FBF1A
:101110008FB7F8944091410350914203609143038B
:10112000709144038FBF48515C4F6F4F7F4F617088
:10113000707046835783962F917080858E7F892BA0
:101140008087B183A0838DE698E0938382831582A4
:10115000148280858260808780858B7F8087089558
:1011600086E090E0909301018093000180916F00F0
:101170008D7F80936F00BBCF9FBF399683E0E034B3
:10118000F80709F0B9CF0895FF920F931F93CF93FB
:10119000DF93CDB7DEB72F970FB6F894DEBF0FBE43
:1011A000CDBF8C01FE01319687E0DF011D928A954B
:1011B000E9F788E690E00E9471358A8380E390E049
:1011C0000E9471358B8384E590E00E9471358C8399
:1011D0008CE690E00E9471358D838DE690E00E9450
:1011E0007135F82E88E590E00E94793564E670E06C
:1011F0000E94EB33F794FF24F794F62AFE8288E3EB
:1012000090E00E9471358F838091DC009091DD0029
:1012100082FD1BC080E28093ED0089818093FA00FB
:101220008A818093FA008B818093FA008C8180936D
:10123000FA008D818093FA008E818093FA008F816D
:101240008093FA0087E48093EF00FE01389688E0EF
:10125000DF011D928A95E9F789E690E00E947135D9
:10126000898788E690E00E9471358A878DE490E056
:101270000E9471358B878CE490E00E9471358C87D9
:101280008091DC009091DD0083FD1EC080E380939F
:10129000ED0088858093FA0089858093FA008A851D
:1012A0008093FA008B858093FA008C858093FA00F6
:1012B0008D858093FA008E858093FA008F858093C8
:1012C000FA0088E48093EF00E6EEF2E09FB7F8942E
:1012D000808581FD3AC0808582FD37C0808584602D
:1012E00080879FBF2FB7F89480914103909142036C
:1012F000A0914303B09144032FBF8C509E4FAF4F3A
:10130000BF4FA170B070868397839A2F91708085AC
:101310008E7F892B80871183008384EC98E09383F0
:1013200082831582148280858260808780858B7F8E
:1013300080872F960FB6F894DEBF0FBECDBFDF912A
:10134000CF911F910F91FF9008959FBF3996B3E001
:10135000E034FB0709F0BACFECCF1F9B0895FB01E7
:10136000908181E080937D01E0917A01F0917B0191
:1013700080818062808350917E01590F50937E015D
:10138000943208F442C060918001662309F04CC099
:10139000550F50937E014081407840664460109222
:1013A0008001852F8459893108F060C04F77809182
:1013B0008201E0917A01F0917B01481709F45BC04A
:1013C00080818F7B80834093820110927E012081F7
:1013D0001F993FC08091DC009091DD0084FDBECF5D
:1013E00080E48093ED0080E090E0A0ECB9E9809388
:1013F000F0009093F100A093F200B093F3002093DB
:10140000FA0081E48093EF000895809180018F5F5E
:10141000AAE7B1E016968C931697833009F09ECF19
:1014200080818F7B8083089540814078406622E0F0
:1014300030E0261B310981E090E002C0880F991F3F
:101440002A95E2F78F71482B633008F4A8CF4F7BC1
:10145000A6CF8091DC009091DD0084FD7FCF80E4F9
:101460008093ED0080E090E0A0EEC0CF5D5A5A314D
:10147000C8F440689CCF46FF13C08081842787FD55
:1014800013C08091810110928601882329F0E09198
:101490008401F09185011082E0917A01F0917B0145
:1014A000408391CF4F7B83CF80918101882331F09E
:1014B0001092810110928601408385CFE0918401D2
:1014C000F0918501809186018083DBCF1F9908957B
:1014D0002FB7F894609141037091420380914303C8
:1014E000909144032FBF2AE030E040E050E00E949A
:1014F000FF3380917F01922F981B20937F0181E021
:1015000080937D01E0917A01F0917B01808180627E
:10151000808350917E01590F50937E01943208F4DC
:1015200042C060918001662309F049C0550F509375
:101530007E01408140784066446010928001852F92
:101540008459893108F05DC04F7780918201E09124
:101550007A01F0917B01481709F458C080818F7B94
:1015600080834093820110927E0120811F993CC0AC
:101570008091DC009091DD0084FDA9CF80E4809310
:10158000ED0080E090E0A0ECB9E98093F00090934A
:10159000F100A093F200B093F3002093FA0081E4ED
:1015A0008093EF000895809180018F5F8093800188
:1015B000833009F08CCF80818F7B808308954081B8
:1015C0004078406622E030E0261B310981E090E05F
:1015D00002C0880F991F2A95E2F78F71482B63305C
:1015E00008F4ABCF4F7BA9CF8091DC009091DD0058
:1015F00084FD6DCF80E48093ED0080E090E0A0EE6C
:10160000C3CF5D5A5A31C8F440689FCF46FF13C01C
:101610008081842787FD13C080918101109286010B
:10162000882329F0E0918401F09185011082E091F6
:101630007A01F0917B01408394CF4F7B86CF8091DC
:101640008101882331F0109281011092860140833C
:1016500088CFE0918401F09185018091860180839B
:10166000DBCF1F990895FB01908181E080937D017C
:10167000E0917A01F0917B018081806280835091BA
:101680007E01590F50937E01943208F442C060915C
:101690008001662309F04CC0550F50937E014081B4
:1016A00040784066446010928001852F84598931CA
:1016B00008F060C04F7780918201E0917A01F0914B
:1016C0007B01481709F45BC080818F7B8083409346
:1016D000820110927E0120811F993FC08091DC0021
:1016E0009091DD0084FDBECF80E48093ED0080E02A
:1016F00090E0A0ECB9E98093F0009093F100A09302
:10170000F200B093F3002093FA0081E48093EF009D
:101710000895809180018F5FAAE7B1E016968C93BF
:101720001697833009F09ECF80818F7B8083089548
:1017300040814078406622E030E0261B310981E09C
:1017400090E002C0880F991F2A95E2F78F71482B0D
:10175000633008F4A8CF4F7BA6CF8091DC00909136
:10176000DD0084FD7FCF80E48093ED0080E090E099
:10177000A0EEC0CF5D5A5A31C8F440689CCF46FFF6
:1017800013C08081842787FD13C08091810110924E
:101790008601882329F0E0918401F091850110826F
:1017A000E0917A01F0917B01408391CF4F7B83CF11
:1017B00080918101882331F010928101109286017D
:1017C000408385CFE0918401F0918501809186016D
:1017D0008083DBCF1F9B08952FB7F894609141035E
:1017E0007091420380914303909144032FBF2AE0FC
:1017F00030E040E050E00E94FF3380917F01922F63
:10180000981B20937F0181E080937D01E0917A0114
:10181000F0917B0180818062808350917E01590F1D
:1018200050937E01943208F442C060918001662397
:1018300009F049C0550F50937E01408140784066C1
:10184000446010928001852F8459893108F05DC071
:101850004F7780918201E0917A01F0917B014817E6
:1018600009F458C080818F7B80834093820110925D
:101870007E0120811F993CC08091DC009091DD00A9
:1018800084FDA9CF80E48093ED0080E090E0A0EC9F
:10189000B9E98093F0009093F100A093F200B09327
:1018A000F3002093FA0081E48093EF000895809183
:1018B00080018F5F80938001833009F08CCF80811D
:1018C0008F7B8083089540814078406622E030E03D
:1018D000261B310981E090E002C0880F991F2A95EC
:1018E000E2F78F71482B633008F4ABCF4F7BA9CF61
:1018F0008091DC009091DD0084FD6DCF80E48093C9
:10190000ED0080E090E0A0EEC3CF5D5A5A31C8F4FC
:1019100040689FCF46FF13C08081842787FD13C096
:101920008091810110928601882329F0E091840141
:10193000F09185011082E0917A01F0917B01408362
:1019400094CF4F7B86CF80918101882331F0109214
:10195000810110928601408388CFE0918401F0914B
:101960008501809186018083DBCFF89428E088E1AF
:1019700090E00FB6F894A895809360000FBE209376
:1019800060000000FECF1F990895FB018081823026
:10199000D9F781818330C1F7828182FDF5CF2FB7DE
:1019A000F8948091410390914203A0914303B09138
:1019B00044032FBF89352BE1920720E0A20720E0E6
:1019C000B20710F380913D018823F1F20E94B50C1B
:1019D0001F9B0895FB0180818230D9F7818183307C
:1019E000C1F7828182FDF5CF2FB7F8948091410332
:1019F00090914203A0914303B09144032FBF8935D6
:101A00002BE1920720E0A20720E0B20710F38091BB
:101A10003D018823F1F20E94B50C1F920F920FB680
:101A20000F9211242F933F934F935F936F937F9364
:101A30008F939F93AF93BF93EF93FF93E091D30363
:101A4000F091D4038091D1039091D2030995FF9135
:101A5000EF91BF91AF919F918F917F916F915F9126
:101A60004F913F912F910F900FBE0F901F9018959F
:101A70001F920F920FB60F9211242F933F934F9303
:101A80005F936F937F938F939F93AF93BF93EF93E6
:101A9000FF93E091CF03F091D0038091CD0390911B
:101AA000CE030995FF91EF91BF91AF919F918F91D7
:101AB0007F916F915F914F913F912F910F900FBE4A
:101AC0000F901F9018951F920F920FB60F9211242E
:101AD0002F933F934F935F936F937F938F939F9336
:101AE000AF93BF93EF93FF93E091CB03F091CC03BF
:101AF0008091C9039091CA030995FF91EF91BF911D
:101B0000AF919F918F917F916F915F914F913F9195
:101B10002F910F900FBE0F901F9018951F920F924C
:101B20000FB60F9211242F933F934F935F936F93B0
:101B30007F938F939F93AF93BF93EF93FF93E09126
:101B4000C703F091C8038091C5039091C60309951E
:101B5000FF91EF91BF91AF919F918F917F916F9185
:101B60005F914F913F912F910F900FBE0F901F905B
:101B700018951F920F920FB60F9211242F933F9337
:101B80004F935F936F937F938F939F93AF93BF9385
:101B9000EF93FF93E091C303F091C4038091C103DD
:101BA0009091C2030995FF91EF91BF91AF919F91E1
:101BB0008F917F916F915F914F913F912F910F90F6
:101BC0000FBE0F901F9018951F920F920FB60F9295
:101BD00011242F933F934F935F936F937F938F9332
:101BE0009F93AF93BF93EF93FF93E091BF03F09167
:101BF000C0038091BD039091BE030995FF91EF91C1
:101C0000BF91AF919F918F917F916F915F914F9114
:101C10003F912F910F900FBE0F901F9018951F921C
:101C20000F920FB60F9211242F933F934F935F9310
:101C30006F937F938F939F93AF93BF93EF93FF9394
:101C4000E091BB03F091BC038091B9039091BA037A
:101C50000995FF91EF91BF91AF919F918F917F91E6
:101C60006F915F914F913F912F910F900FBE0F9009
:101C70001F9018951F920F920FB60F9211242F9359
:101C80003F934F935F936F937F938F939F93AF9304
:101C9000BF93EF93FF93E091B703F091B803809166
:101CA000B5039091B6030995FF91EF91BF91AF9164
:101CB0009F918F917F916F915F914F913F912F9164
:101CC0000F900FBE0F901F9018951F920F920FB696
:101CD0000F9211242F933F934F935F936F937F93B2
:101CE0008F939F93AF93BF93EF93FF93E091B303D1
:101CF000F091B4038091B1039091B2030995FF91E3
:101D0000EF91BF91AF919F918F917F916F915F9173
:101D10004F913F912F910F900FBE0F901F901895EC
:101D20001F920F920FB60F9211242F933F934F9350
:101D30005F936F937F938F939F93AF93BF93EF9333
:101D4000FF93E091AF03F091B0038091AD039091C8
:101D5000AE030995FF91EF91BF91AF919F918F9144
:101D60007F916F915F914F913F912F910F900FBE97
:101D70000F901F9018951F920F920FB60F9211247B
:101D80002F933F934F935F936F937F938F939F9383
:101D9000AF93BF93EF93FF93E091AB03F091AC034C
:101DA0008091A9039091AA030995FF91EF91BF91AA
:101DB000AF919F918F917F916F915F914F913F91E3
:101DC0002F910F900FBE0F901F9018951F920F929A
:101DD0000FB60F9211242F933F934F935F936F93FE
:101DE0007F938F939F93AF93BF93EF93FF93E09174
:101DF000A703F091A8038091A5039091A6030995EC
:101E0000FF91EF91BF91AF919F918F917F916F91D2
:101E10005F914F913F912F910F900FBE0F901F90A8
:101E200018951F920F920FB60F9211242F933F9384
:101E30004F935F936F937F938F939F93AF93BF93D2
:101E4000EF93FF93E091A303F091A4038091A1038A
:101E50009091A2030995FF91EF91BF91AF919F914E
:101E60008F917F916F915F914F913F912F910F9043
:101E70000FBE0F901F9018951F920F920FB60F92E2
:101E800011242F933F934F935F936F937F938F937F
:101E90009F93AF93BF93EF93FF93E0919F03F091D4
:101EA000A00380919D0390919E030995FF91EF916E
:101EB000BF91AF919F918F917F916F915F914F9162
:101EC0003F912F910F900FBE0F901F9018951F926A
:101ED0000F920FB60F9211242F933F934F935F935E
:101EE0006F937F938F939F93AF93BF93EF93FF93E2
:101EF000E0919B03F0919C038091990390919A0348
:101F00000995FF91EF91BF91AF919F918F917F9133
:101F10006F915F914F913F912F910F900FBE0F9056
:101F20001F9018951F920F920FB60F9211242F93A6
:101F30003F934F935F936F937F938F939F93AF9351
:101F4000BF93EF93FF93E0919703F09198038091F3
:101F50009503909196030995FF91EF91BF91AF91F1
:101F60009F918F917F916F915F914F913F912F91B1
:101F70000F900FBE0F901F9018951F920F920FB6E3
:101F80000F9211242F933F934F935F936F937F93FF
:101F90008F939F93AF93BF93EF93FF93E09193033E
:101FA000F091940380919103909192030995FF9190
:101FB000EF91BF91AF919F918F917F916F915F91C1
:101FC0004F913F912F910F900FBE0F901F9018953A
:101FD0001F920F920FB60F9211242F933F934F939E
:101FE0005F936F937F938F939F93AF93BF93EF9381
:101FF000FF93E0918F03F091900380918D03909176
:102000008E030995FF91EF91BF91AF919F918F91B1
:102010007F916F915F914F913F912F910F900FBEE4
:102020000F901F9018951F920F920FB60F921124C8
:102030002F933F934F935F936F937F938F939F93D0
:10204000AF93BF93EF93FF93E0918B03F0918C03D9
:102050008091890390918A030995FF91EF91BF9137
:10206000AF919F918F917F916F915F914F913F9130
:102070002F910F900FBE0F901F9018951F920F92E7
:102080000FB60F9211242F933F934F935F936F934B
:102090007F938F939F93AF93BF93EF93FF93E091C1
:1020A0008703F091880380918503909186030995B9
:1020B000FF91EF91BF91AF919F918F917F916F9120
:1020C0005F914F913F912F910F900FBE0F901F90F6
:1020D00018951F920F920FB60F9211242F933F93D2
:1020E0004F935F936F937F938F939F93AF93BF9320
:1020F000EF93FF93E0918303F09184038091810338
:10210000909182030995FF91EF91BF91AF919F91BB
:102110008F917F916F915F914F913F912F910F9090
:102120000FBE0F901F9018951F920F920FB60F922F
:1021300011242F933F934F935F936F937F938F93CC
:102140009F93AF93BF93EF93FF93E0917F03F09141
:10215000800380917D0390917E030995FF91EF911B
:10216000BF91AF919F918F917F916F915F914F91AF
:102170003F912F910F900FBE0F901F9018951F92B7
:102180000F920FB60F9211242F933F934F935F93AB
:102190006F937F938F939F93AF93BF93EF93FF932F
:1021A000E0917B03F0917C038091790390917A0315
:1021B0000995FF91EF91BF91AF919F918F917F9181
:1021C0006F915F914F913F912F910F900FBE0F90A4
:1021D0001F9018951F920F920FB60F9211242F93F4
:1021E0003F934F935F936F937F938F939F93AF939F
:1021F000BF93EF93FF93E0917703F0917803809181
:102200007503909176030995FF91EF91BF91AF917E
:102210009F918F917F916F915F914F913F912F91FE
:102220000F900FBE0F901F9018951F920F920FB630
:102230000F9211242F933F934F935F936F937F934C
:102240008F939F93AF93BF93EF93FF93E0917303AB
:10225000F091740380917103909172030995FF913D
:10226000EF91BF91AF919F918F917F916F915F910E
:102270004F913F912F910F900FBE0F901F90189587
:102280001F920F920FB60F9211242F933F934F93EB
:102290005F936F937F938F939F93AF93BF93EF93CE
:1022A000FF93E0916F03F091700380916D03909123
:1022B0006E030995FF91EF91BF91AF919F918F911F
:1022C0007F916F915F914F913F912F910F900FBE32
:1022D0000F901F9018951F920F920FB60F92112416
:1022E0002F933F934F935F936F937F938F939F931E
:1022F000AF93BF93EF93FF93E0916B03F0916C0367
:102300008091690390916A030995FF91EF91BF91C4
:10231000AF919F918F917F916F915F914F913F917D
:102320002F910F900FBE0F901F9018951F920F9234
:102330000FB60F9211242F933F934F935F936F9398
:102340007F938F939F93AF93BF93EF93FF93E0910E
:102350006703F09168038091650390916603099586
:10236000FF91EF91BF91AF919F918F917F916F916D
:102370005F914F913F912F910F900FBE0F901F9043
:1023800018951F920F920FB60F9211242F933F931F
:102390004F935F936F937F938F939F93AF93BF936D
:1023A000EF93FF93E0916303F091640380916103E5
:1023B000909162030995FF91EF91BF91AF919F9129
:1023C0008F917F916F915F914F913F912F910F90DE
:1023D0000FBE0F901F9018951F920F920FB60F927D
:1023E00011242F933F934F935F936F937F938F931A
:1023F0009F93AF93BF93EF93FF93E0915F03F091AF
:10240000600380915D0390915E030995FF91EF91C8
:10241000BF91AF919F918F917F916F915F914F91FC
:102420003F912F910F900FBE0F901F9018951F9204
:102430000F920FB60F9211242F933F934F935F93F8
:102440006F937F938F939F93AF93BF93EF93FF937C
:10245000E0915B03F0915C038091590390915A03E2
:102460000995FF91EF91BF91AF919F918F917F91CE
:102470006F915F914F913F912F910F900FBE0F90F1
:102480001F9018951F920F920FB60F9211242F9341
:102490003F934F935F936F937F938F939F93AF93EC
:1024A000BF93EF93FF93E0915703F091580380910E
:1024B0005503909156030995FF91EF91BF91AF910C
:1024C0009F918F917F916F915F914F913F912F914C
:1024D0000F900FBE0F901F9018951F920F920FB67E
:1024E0000F9211242F933F934F935F936F937F939A
:1024F0008F939F93AF93BF93EF93FF93E091530319
:10250000F091540380915103909152030995FF91EA
:10251000EF91BF91AF919F918F917F916F915F915B
:102520004F913F912F910F900FBE0F901F901895D4
:102530001F920F920FB60F9211242F933F934F9338
:102540005F936F937F938F939F93AF93BF93EF931B
:10255000FF93E0914F03F091500380914D039091D0
:102560004E030995FF91EF91BF91AF919F918F918C
:102570007F916F915F914F913F912F910F900FBE7F
:102580000F901F9018951F920F920FB60F92112463
:102590002F933F934F935F936F937F938F939F936B
:1025A000AF93BF93EF93FF93E0914B03F0914C03F4
:1025B0008091490390914A030995FF91EF91BF9152
:1025C000AF919F918F917F916F915F914F913F91CB
:1025D0002F910F900FBE0F901F9018951F920F9282
:1025E0000FB60F9211242F933F934F935F936F93E6
:1025F0007F938F939F93AF93BF93EF93FF93E0915C
:102600004703F09148038091450390914603099553
:10261000FF91EF91BF91AF919F918F917F916F91BA
:102620005F914F913F912F910F900FBE0F901F9090
:1026300018958F929F92AF92BF92CF92DF92EF92B6
:10264000FF920F931F93CF93DF937C01DC011596CC
:10265000ED91FC91169780812181813209F448C265
:102660008232D0F0813309F46DC2823308F4A3C101
:10267000833309F471C2833308F088C282E3F7011F
:10268000858B0584F685E02D82E0922F2FB7F89494
:10269000918380832FBFE7C1813109F429C2823140
:1026A00008F0A9C1833009F457C2843009F412C27A
:1026B000882309F0D8C1E7018D89813209F4C4C5A6
:1026C000823208F467C2813309F463C4823309F4A7
:1026D0005CC4823209F0C7C1E701EF81F8852FB7EA
:1026E000F894808191812FBFD82E092F488159817C
:1026F0006A817B81DB01CA0187709070A070B07025
:102700000097A105B105A9F4DB01CA010197A10950
:10271000B1099F704150487F82EC692F20E00E94F0
:10272000610288E799E60197F1F7488159816A814A
:102730007B81477081EC60E0202F0E946102E701FD
:1027400088819981AA81BB818C019D010F5F1F4FF8
:102750002F4F3F4F088319832A833B83B901A80178
:1027600047705070607070704115510561057105BA
:1027700089F4692F6F70402F4150487F82EC20E030
:102780000E94610288E799E60197F1F708811981B3
:102790002A813B81402F477081EC60E02D2D0E9403
:1027A0006102E70188819981AA81BB810196A11DFF
:1027B000B11D88839983AA83BB83E985FA852FB7E6
:1027C000F894808191812FBFD82E092F488159819B
:1027D0006A817B81DB01CA0187709070A070B07044
:1027E0000097A105B105A9F4DB01CA010197A10970
:1027F000B1099F704150487F82EC692F20E00E9410
:10280000610288E799E60197F1F7488159816A8169
:102810007B81477081EC60E0202F0E946102F7010C
:1028200080819181A281B3818C019D010F5F1F4F37
:102830002F4F3F4FE7010083118322833383B90178
:10284000A8014770507060707070411551056105A6
:10285000710589F4692F6F70402F4150487F82ECD9
:1028600020E00E94610288E799E60197F1F708816C
:1028700019812A813B81402F477081EC60E02D2D2A
:102880000E946102E70188819981AA81BB8101963A
:10289000A11DB11D88839983AA83BB83EB85FC8529
:1028A0002FB7F894808191812FBFD82E092F4881AE
:1028B00059816A817B81DB01CA0187709070A070A9
:1028C000B0700097A105B105A9F4DB01CA01019719
:1028D000A109B1099F704150487F82EC692F20E027
:1028E0000E94610288E799E60197F1F748815981D2
:1028F0006A817B81477081EC60E0202F0E94610239
:10290000F70180819181A281B3818C019D010F5FCC
:102910001F4F2F4F3F4FE7010083118322833383E3
:10292000B901A80147705070607070704115510571
:102930006105710589F4692F6F70402F4150487F00
:1029400082EC20E00E94610288E799E60197F1F7A6
:10295000088119812A813B81402F477081EC60E01A
:102960002D2D0E946102E70188819981AA81BB8196
:102970008C019D010F5F1F4F2F4F3F4FF7010883C1
:1029800019832A833B834E895F89688D798D04176B
:1029900015072607370708F4E0C2692F6F70402F2C
:1029A0004150487F82EC20E00E94610288E799E66E
:1029B0000197F1F7DFC2833209F4CEC0833208F405
:1029C0005FC0843209F04FC0E701488159816A81B4
:1029D0007B81DB01CA010197A109B1099F704150B8
:1029E000487F82EC692F20E00E94610288E799E627
:1029F0000197F1F749C0833109F4AEC0833108F083
:102A000041C082E1F701858B0780F085E02D8FB70B
:102A1000F894408151818FBFD7011996ED91FC91B7
:102A20001A978FB7F894208131818FBFE701EB852A
:102A3000FC856FB7F894808191816FBF588349837B
:102A40003A831B822E8B9F8B888F198EED85FE8596
:102A5000AD81BE8182E011969C9111972FB7F894B9
:102A6000918380832FBFDF91CF911F910F91FF90B2
:102A7000EF90DF90CF90BF90AF909F908F90089590
:102A800082E2C0CF843179F7F701408151816281C0
:102A9000738141505040604070408A019B01A9E021
:102AA0003695279517950795AA95D1F77695679549
:102AB0005795479540788CE4602F20E00E94610292
:102AC0008CEB94E30197F1F7D7011596ED91FC910A
:102AD00016972181E701ED85FE8584E0922F2FB7BF
:102AE000F894918380832FBF24982C9A0E94B50C70
:102AF000F701858B0780F085E02D8FB7F894408132
:102B000051818FBFD7011996ED91FC911A978FB71C
:102B1000F894208131818FBFE701EB85FC856FB789
:102B2000F894808191816FBF588349833A831B82D7
:102B30002E8B9F8B888F198EED85FE85AD81BE8192
:102B400081E089CFD70155968C9355971D96ED91CD
:102B5000FC911E9781E099CDE701ED85FE8583E02C
:102B6000922F2FB7F894918380832FBF8CEA60E86F
:102B700040E020E00E94610288E799E60197F1F7C2
:102B8000ED85FE85AD81BE8180E065CF843309F09F
:102B90006ACFA0CF813109F42CC2823109F063CF12
:102BA000EF81F8852FB7F894808191812FBF6C0158
:102BB000E701088119812A813B81D901C8018F77FA
:102BC0009070A070B0700097A105B10509F5015093
:102BD0001040204030404801590149E0B694A79484
:102BE000979487944A95D1F7B901A801769567958E
:102BF0005795479540788CE4682D20E00E9461024B
:102C00008CEB94E30197F1F7088119812A813B81CC
:102C1000802F8170880F880F880F3695279517951C
:102C20000795806460E0402F2D2D0E946102D7013E
:102C30000D911D912D913C91B901A8014F5F5F4FFE
:102C40006F4F7F4FE701488359836A837B83DB01A2
:102C5000CA018F779070A070B0700097A105B10580
:102C6000E9F448015901A9E0B694A7949794879490
:102C7000AA95D1F7B901A80176956795579547951B
:102C800040788CE4682D20E00E9461028CEB94E394
:102C90000197F1F7488159816A817B81842F817086
:102CA000880F880F880F8A019B0136952795179505
:102CB0000795806460E0402F2C2D0E946102E7019F
:102CC00088819981AA81BB810196A11DB11D88834C
:102CD0009983AA83BB83E985FA852FB7F89480810D
:102CE00091812FBF6C01088119812A813B81D90113
:102CF000C8018F779070A070B0700097A105B105E2
:102D000009F501501040204030404801590149E088
:102D1000B694A794979487944A95D1F7B901A801DE
:102D2000769567955795479540788CE4682D20E017
:102D30000E9461028CEB94E30197F1F708811981FD
:102D40002A813B81802F8170880F880F880F3695EC
:102D5000279517950795806460E0402F2D2D0E94E0
:102D60006102F7010081118122813381B901A8013B
:102D70004F5F5F4F6F4F7F4F4083518362837383F9
:102D8000DB01CA018F779070A070B0700097A10529
:102D9000B105F1F448015901A9E0B694A7949794BC
:102DA0008794AA95D1F7B901A801769567955795AB
:102DB000479540788CE4682D20E00E9461028CEBFE
:102DC00094E30197F1F7E701488159816A817B819A
:102DD000842F8170880F880F880F8A019B01369598
:102DE000279517950795806460E0402F2C2D0E9451
:102DF0006102F70180819181A281B3810196A11DB9
:102E0000B11DE70180839183A283B3830384F4859A
:102E1000E02D2FB7F894808191812FBF6C0108813C
:102E200019812A813B81D901C8018F779070A070E8
:102E3000B0700097A105B10509F501501040204080
:102E400030404801590149E0B694A794979487947B
:102E50004A95D1F7B901A801769567955795479599
:102E600040788CE4682D20E00E9461028CEB94E3B2
:102E70000197F1F7088119812A813B81802F8170A8
:102E8000880F880F880F36952795179507958064CA
:102E900060E0402F2D2D0E946102E7010881198119
:102EA0002A813B81B901A8014F5F5F4F6F4F7F4F70
:102EB000488359836A837B83DB01CA018F779070D3
:102EC000A070B0700097A105B105E9F4480159015F
:102ED000B9E0B694A79497948794BA95D1F7B901BD
:102EE000A801769567955795479540788CE4682DAD
:102EF00020E00E9461028CEB94E30197F1F7488196
:102F000059816A817B81842F8170880F880F880F97
:102F10008A019B013695279517950795806460E097
:102F2000402F2C2D0E946102E701488159816A815E
:102F30007B81DB01CA010196A11DB11DF7018883C8
:102F40009983AA83BB830E891F89288D398D8017A9
:102F50009107A207B30708F000C2A585B6850580D2
:102F6000F681E02D82E091812FB7F89411969C9321
:102F70008E932FBFD7011D96ED91FC911E9715964C
:102F80000D90BC91A02D80E066CDED85FE8580E0A2
:102F90007CCB0F84D889C02D88E568E040E020E034
:102FA0000E946102082F80E560E040E020E00E947E
:102FB0006102202F382F8FB7F894398328838FBF71
:102FC000D7015196CD91DC91529780E568E040E0C1
:102FD00020E00E94610220E0382F8FB7F8943983F7
:102FE00028838FBFE701ED85FE85AD81BE8180E03E
:102FF00032CDF7010F84D889C02D00811181228143
:103000003381802F8170880F880F880FB901A80144
:1030100099E076956795579547959A95D1F73695A6
:103020002795179507958062642F402F20E00E9416
:103030006102D82ED7010D911D912D913C910F5F0A
:103040001F4F2F4F3F4FF70100831183228333839C
:10305000802F8170880F880F880FB901A80199E02F
:1030600076956795579547959A95D1F73695279513
:10307000179507958062642F402F20E00E9461021F
:10308000D7014D915D916D917C9113974F5F5F4F8B
:103090006F4F7F4FF7014083518362837383282FE3
:1030A0003D2D8FB7F894398328838FBF5196CD91EA
:1030B000DC9152970D911D912D913C91802F817043
:1030C000880F880F880FB901A80199E07695679558
:1030D000579547959A95D1F7369527951795079562
:1030E0008062642F402F20E00E946102D82EF701F9
:1030F00000811181228133810F5F1F4F2F4F3F4F7E
:103100000083118322833383802F8170880F880F7F
:10311000880FB901A80199E076956795579547956D
:103120009A95D1F736952795179507958062642F64
:10313000402F20E00E946102F701408151816281AD
:1031400073814F5F5F4F6F4F7F4F40835183628327
:103150007383282F3D2D8FB7F894398328838FBF31
:10316000C389D4890081118122813381802F8170AC
:10317000880F880F880FB901A80199E076956795A7
:10318000579547959A95D1F73695279517950795B1
:103190008062642F402F20E00E946102D82ED70168
:1031A0000D911D912D913C910F5F1F4F2F4F3F4F60
:1031B000F7010083118322833383802F8170880F6E
:1031C000880F880FB901A80199E076956795579502
:1031D00047959A95D1F7369527951795079580626B
:1031E000642F402F20E00E946102D7014D915D9134
:1031F0006D917C9113974F5F5F4F6F4F7F4FF7013A
:103200004083518362837383282F3D2D8FB7F894B9
:10321000398328838FBF4D915D916D917C91139778
:1032200056968D919D910D90BC91A02D8417950778
:10323000A607B70708F49ECEE7010584F685E02DC2
:10324000AD81BE8181E007CCF7010F84D889C02D04
:1032500040816181677080EA20E00E946102D82E7F
:10326000D7010D911D912D913C910F5F1F4F2F4F55
:103270003F4FF7010083118322833383612F6770EF
:1032800080EA402F20E00E946102D7014D915D91BC
:103290006D917C9113974F5F5F4F6F4F7F4FF70199
:1032A0004083518362837383282F3D2D8FB7F89419
:1032B000398328838FBF5196CD91DC9152974C91E1
:1032C00011966C91677080EA20E00E946102D82E0E
:1032D000F70100811181228133810F5F1F4F2F4F32
:1032E0003F4F0083118322833383612F677080EA0D
:1032F000402F20E00E946102F701408151816281EC
:1033000073814F5F5F4F6F4F7F4F40835183628365
:103310007383282F3D2D8FB7F894398328838FBF6F
:10332000C389D48940816181677080EA20E00E946E
:103330006102D82ED7010D911D912D913C911397CB
:103340000F5F1F4F2F4F3F4FF701008311832283E1
:103350003383612F677080EA44CF8A019B01E9E0E3
:103360003695279517950795EA95D1F77695679540
:103370005795479540788CE4602F20E00E946102C9
:103380008CEB94E30197F1F7F5CD0E9419130895A2
:10339000CF93DF9300D000D00F92CDB7DEB720914E
:1033A000270230912802243051F0203141F00F9053
:1033B0000F900F900F900F90DF91CF9108953530BF
:1033C00099F1363009F4CDC03D3009F480C03E306B
:1033D00009F457C0333059F7203149F780ED89831C
:1033E00099B181E094FF80E0879588278795909137
:1033F000A502892B8A838091C8008B838091C900A4
:103400008C838091CA008D831F9BD2C08091DC0089
:103410009091DD0084FDCBCF80E48093ED0080E0CF
:1034200090E0A0E8B6EC78C082E091E0FC01549115
:1034300039964491DE011196FD0111923A95E9F712
:103440000396FC0184918A83852F90E0841B910967
:10345000541B592B5D83243009F480C0203109F0BE
:10346000A6CF1F9997C08091DC009091DD0084FD6C
:103470009ECF80E48093ED0080E090E0A0E6B6EC83
:103480004BC01F9B94CF80ED898387E790E00E941B
:1034900071358A8386E790E00E9471358B8385E7DA
:1034A00090E00E9471358C8384E790E00E94713532
:1034B0008D838091DC009091DD0084FD78CF80E4E5
:1034C0008093ED0080E090E0A0E0BAE925C01F996C
:1034D0006ECF80ED898387E790E00E9471358A8303
:1034E00086E790E00E9471358B8385E790E00E942B
:1034F00071358C8384E790E00E9471358D838091D3
:10350000DC009091DD0084FD52CF80E48093ED00DB
:1035100080E090E0A0E0B8E98093F0009093F100A3
:10352000A093F200B093F30089818093FA008A811E
:103530008093FA008B818093FA008C818093FA004B
:103540008D818093FA0085E48093EF000F900F90B7
:103550000F900F900F90DF91CF9108951F99A9CFF1
:10356000CECF84E790E060912C020E947F3585E702
:1035700090E060912B020E947F3586E790E0609199
:103580002A020E947F3587E790E0609129020E941D
:103590007F350DCF8091DC009091DD0084FD07CF59
:1035A00080E48093ED0080E090E0A0E8B6ECB4CF3A
:1035B0008091DC009091DD0084FDF9CE80E4809361
:1035C000ED0080E090E0A0E6B6ECA6CFCB010E9433
:1035D000C81908958091B70186FF09C08F7385329D
:1035E00009F44AC0863220F4813209F48CC008956F
:1035F000873209F4C7C08932D1F72FB7F8943FB7A3
:10360000F8948091C2029091C30291609093C3029A
:103610008093C2023FBF2FBFE6EEF2E09FB7F8945F
:10362000808581FDF5C0808582FDF2C08085846043
:1036300080879FBF2FB7F8948091410390914203F8
:10364000A0914303B09144032FBF88519C4FAF4FCB
:10365000BF4FA170B070868397839A2F9170808539
:103660008E7F892B8087118210828AE491E0938378
:10367000828388E090E03EC02FB7F8943FB7F8947B
:103680008091C2029091C30294609093C302809390
:10369000C2023FBF2FBFE6EEF2E09FB7F8948085ED
:1036A00081FDBEC0808582FDBBC08085846080872F
:1036B0009FBF2FB7F8948091410390914203A0914E
:1036C0004303B09144032FBF88519C4FAF4FBF4F6E
:1036D000A170B070868397839A2F917080858E7FBA
:1036E000892B8087118210828AE491E09383828300
:1036F0008AE090E0958384838085826080878085DE
:103700008B7F808708952FB7F8943FB7F894809106
:10371000C2029091C30292609093C3028093C2024E
:103720003FBF2FBFE6EEF2E09FB7F894808581FDA2
:103730007FC0808582FD7CC08085846080879FBF3C
:103740002FB7F8948091410390914203A0914303D5
:10375000B09144032FBF88519C4FAF4FBF4FA17012
:10376000B070868397839A2F917080858E7F892B86
:103770008087118210828AE491E09383828389E0BA
:1037800090E0B8CF2FB7F8943FB7F8948091C20279
:103790009091C30298609093C3028093C2023FBF8E
:1037A0002FBFE6EEF2E09FB7F894808581FD29C037
:1037B000808582FD26C08085846080879FBF2FB76B
:1037C000F8948091410390914203A0914303B091FA
:1037D00044032FBF88519C4FAF4FBF4FA170B070B3
:1037E000868397839A2F917080858E7F892B80871F
:1037F000118210828AE491E0938382838BE090E0CF
:1038000079CF9FBF399683E0E034F80761F60895D9
:103810009FBF399683E0E034F80709F0FFCE0895A2
:103820009FBF399683E0E034F80709F036CF08955A
:103830009FBF399683E0E034F80709F075CF08950B
:10384000CB010E94EA1A08951F93CF93DF93EB01F7
:103850000E947135182FCE010E94713587FD15C069
:103860008F77412F50E09A01220F331F440F551FCD
:10387000440F551F440F551F240F351F280F311DAE
:10388000C901DF91CF911F910895412F50E09A0116
:10389000220F331F440F551F440F551F440F551F50
:1038A000240F351F8F77281B3109C901DF91CF9174
:1038B0001F9108950F931F93FC01828180938F02C3
:1038C0008181809390022381822F90E0807C907090
:1038D000959587959595879590819F74982B909352
:1038E0009102822F8F7090919302892B8093930283
:1038F0008481809394023581832F90E02091C702C8
:1039000020783072232BDC01AF70B070A05CBE4F0A
:103910003C91232B807C9070009709F05FC020932E
:10392000C702908181E095FD80E0809312012FB75E
:10393000F8948091410390914203A0914303B09188
:1039400044032FBF4091DA095091DB096091DC09F3
:103950007091DD098C019D01041B150B260B370BA3
:10396000B901A801413A1FE0510710E0610710E0DA
:10397000710708F08FC08093DA099093DB09A09358
:10398000DC09B093DD09868181FD24C02FB7F8944E
:103990008091410390914203A0914303B09144036D
:1039A0002FBF89352BE1920720E0A20720E0B20764
:1039B00070F080913D01882351F080913E01882371
:1039C00009F468C080913F01882309F463C01F9106
:1039D0000F910895878186FDFACFD8CF2068A6EE93
:1039E000B2E09FB7F89418968C91189781FD4AC061
:1039F00018968C91189782FD45C018968C9118974F
:103A0000846018968C9318979FBF8FB7F894409155
:103A100041035091420360914303709144038FBF6F
:103A200048515C4F6F4F7F4F6170707016964C938A
:103A3000169717965C931797962F917018968C91FE
:103A400018978E7F892B18968C93189711961C9235
:103A50001E9289E691E013969C938E931297159689
:103A60001C921E92149718968C9118978260189643
:103A70008C93189718968C9118978B7F18968C9327
:103A800018974DCF9FBF199633E0A034B30709F0C4
:103A9000A8CF45CF0E94B50C1F990895CB010E9475
:103AA0005A1C08951F9B0895CB010E945A1C08952B
:103AB0000F931F93CF93DF930091BE021091BF022B
:103AC000812F912F17FF03C021E02093A00296FDC4
:103AD00025C095FD23C0E0911501F091160180816C
:103AE00091819093CB028093CA02E0911701F091EB
:103AF0001801808191819093C9028093C8028091BE
:103B00003D01882309F421C1FEE00E3F1F0709F49F
:103B10007CC0DF91CF911F910F91089590913D014D
:103B2000992339F010923D0190916E009D7F909302
:103B30006E0086FF3BC065E071E0FB019491319619
:103B40002491592F40E030E0242B352B3093CF02C5
:103B50002093CE02FB0132969491FB01339624917F
:103B6000592F40E030E0242B352B3093CD022093A9
:103B7000CC02FB013496A591B4914B2F50E03A2F23
:103B800020E0242B352B3093CB022093CA026A5FAE
:103B90007F4FFB0165917491272F30E0562F40E055
:103BA000242B352B3093C9022093C80285FFACCF5C
:103BB000E801D070CC0FDD1FCC0FDD1FCC0FDD1F57
:103BC000CE010E9479359093CE028093CF02CE0130
:103BD00002960E9479359093CC02ECECF2E081835E
:103BE000CE0104960E9479359093CA028093CB024D
:103BF000CE0106960E9479359093C8028093C9023F
:103C0000FEE00E3F1F0709F084CF80913D0188231D
:103C100009F0AAC08AE190E00E944234DC012398B6
:103C20002B9A229A219A209A8CB580658CBD8CB5EE
:103C30009DB58C7F9E7F81609DBD8CBD14961C922E
:103C4000149743E052E020E63AEE7CEA63E5249ADA
:103C50002C98852F8A95F1F72C9A852F8A95F1F764
:103C60002C98C9010197F1F77EBD0DB407FEFDCF79
:103C70006EBD0DB407FEFDCF1EBC0DB407FEFDCF1B
:103C80008EB51EBC0DB407FEFDCF833509F474C09C
:103C90004150E9F614964C9114978EEB92E01696EB
:103CA0009C938E9315979C012250304018963C931C
:103CB0002E9317979C01245030401A963C932E93D4
:103CC00019979C01265030401C963C932E931B97CD
:103CD0009C01205F3F4F1E963C932E931D979C01A5
:103CE000225F3F4F50963C932E931F979C01245F79
:103CF0003F4F52963C932E9351970A9654969C931D
:103D00008E935397442309F070C020E2822F909144
:103D1000BF022FB7F8949093CF028093CE022FBFAB
:103D2000E8E8F1E0E491F0E0EE0FFF1FEE0FFF1F77
:103D3000E655FD4FB0A7A7A385EC99E192A781A70F
:103D4000DF91CF911F910F91089581E080933D0104
:103D500016BCA99A80916E00826080936E000091DB
:103D6000BE021091BF02D0CE10923D0180916E0034
:103D70008D7F80936E004ECF81E014968C931497C4
:103D80008EEB92E016969C938E9315979C01225091
:103D9000304018963C932E9317979C012450304046
:103DA0001A963C932E9319979C01265030401C96EE
:103DB0003C932E931B979C01205F3F4F1E963C9394
:103DC0002E931D979C01225F3F4F50963C932E935C
:103DD0001F979C01245F3F4F52963C932E9351971F
:103DE0000A9654969C938E93539720E08FCF0E940F
:103DF000581D0895CF93DF93CDB7DEB76B970FB6FD
:103E0000F894DEBF0FBECDBF88E891E0FC0124919D
:103E1000E22FF0E0EE0FFF1FEE0FFF1FE655FD4F04
:103E200010A617A227EF3EE132A721A7FC01349785
:103E3000E491F0E0EE0FFF1FEE0FFF1FE655FD4F80
:103E400010A617A229E731E032A721A7FC01359778
:103E5000E491F0E0EE0FFF1FEE0FFF1FE655FD4F60
:103E600010A617A22FE036E032A721A70797FC0182
:103E70008491E82FF0E0EE0FFF1FEE0FFF1FE655D5
:103E8000FD4F86E791E090A787A386EB94E292A787
:103E900081A78E010B5F1F4F1F9B03C2109254021C
:103EA0001092530286EE9AE1909356028093550247
:103EB0001092600210925F028CE49DE19093620286
:103EC00080936102109264021092630282E59DE188
:103ED00090936602809365021092580210925702E6
:103EE00083EC9CE090935A028093590210925C02FA
:103EF00010925B0288EE9CE090935E0280935D02DC
:103F0000109268021092670288E891E090936A022A
:103F10008093690210928C0210928B0280E29CE1E5
:103F200090938E0280938D0210926C0210926B021D
:103F300086E69AE090936E0280936D0210927C0266
:103F400010927B0281E39BE090937E0280937D023E
:103F50001092700210926F028CE696E090937202BB
:103F6000809371021092800210927F028DE092E0A5
:103F700090938202809381021092740210927302D5
:103F80008AEE9BE0909376028093750210928402F1
:103F9000109283028DEA99E09093860280938502C5
:103FA000109278021092770284E496E090937A025D
:103FB00080937902109288021092870289EF91E033
:103FC00090938A028093890280913D01882351F465
:103FD00081E080933D0116BCA99A80916E008260B9
:103FE00080936E00789482E091E0FC0134913996E0
:103FF000249145E0D8011D924A95E9F70396FC010A
:1040000084918E83832F90E0821B9109321B392B80
:1040100039871F9938C08091DC009091DD0084FDC4
:1040200021C080E48093ED0080E090E0A0E0B8E95A
:104030008093F0009093F100A093F200B093F3000E
:104040008D818093FA008E818093FA008F81809316
:10405000FA0088858093FA0089858093FA0085E4C8
:104060008093EF0080E395E70197F1F78091DC0002
:104070009091DD0084FD59C080E48093ED0080E0E4
:1040800090E0A0E637C08091DC009091DD0084FDD7
:1040900021C080E48093ED0080E090E0A0E0BAE9E8
:1040A0008093F0009093F100A093F200B093F3009E
:1040B0008D818093FA008E818093FA008F818093A6
:1040C000FA0088858093FA0089858093FA0085E458
:1040D0008093EF0080E395E70197F1F78091DC0092
:1040E0009091DD0084FD21C080E48093ED0080E0AC
:1040F00090E0A0E8B6EC8093F0009093F100A093DC
:10410000F200B093F3008D818093FA008E8180934A
:10411000FA008F818093FA0088858093FA00898560
:104120008093FA0085E48093EF001F8A1E8A8CE852
:1041300097E0682F998F888F1B8E1A8E40E05F89D9
:10414000798D80E09B8D20E137E20E94ED02198A93
:10415000188A81EA91E0682F9B8B8A8B1D8A1C8AC2
:1041600040E059897B8980E09D8928E53BE10E94F8
:10417000ED0283B121E030E085FD02C020E030E0B7
:104180008091DE0990E0822B932B8093DE090097CB
:1041900029F083B185FD02C00E94B50C3FB7F894A9
:1041A0009091D6098091D709981709F473C080912E
:1041B000D60990E0DC01AA0FBB1FA80FB91FAA0FF8
:1041C000BB1FAA52BC4F8D919C9111971296ED91F5
:1041D000FC91139714966C91149715967C911597F2
:1041E0002091D6092F5F2093D6092091D80921501C
:1041F0002093D8093FBF3091D8092091D5032317C8
:1042000020F42091D8092093D503309709F009951F
:10421000A89506EE12E006C0075F1F4FF3E00034DA
:104220001F07B1F1D80118968C91189781FFF4CF30
:104230002FB7F8948091410390914203A0914303DA
:10424000B09144032FBF89839A83AB83BC83F80169
:10425000908591708B8181709817F1F62681378156
:1042600089819A8128173907B8F66481758102809F
:10427000F381E02DD8018D919C910995F8018085FD
:104280008D7F8087075F1F4FF3E000341F0751F6D3
:10429000A8956FCF60E070E0E8E4F1E080E090E0A6
:1042A000A9CF402F1B870A8784EC98E0682F9D8751
:1042B0008C871F861E865B857D8580E09F8524EF29
:1042C00031E00E94ED021093400200933F028DEF17
:1042D00096E090934202809341021093440200932F
:1042E0004302909346028093450210934802009344
:1042F000470290934A028093490210934C02009324
:104300004B028CE292E090934E0280934D02109308
:10431000500200934F028FE892E0909352028093F4
:104320005102BCCDAC01FC01E854FF4F885F9E4FA9
:1043300028E431E011821082338322833496E81717
:10434000F907C1F78091D80081608093D800E2EE30
:10435000F0E08091E20081788A608093E2008091B1
:10436000E3008E6081838091E40081788B64828396
:104370008091ED008F708093ED0088E08093EF00D6
:1043800085E090E0A0EEBFEF8093F4009093F500FD
:10439000A093F600B093F7008091ED008F708061DC
:1043A0008093ED0088E08093EF0085E08093F40037
:1043B0009093F500A093F600B093F7008091ED0084
:1043C0008F7080628093ED0087E08093EF0080E043
:1043D000B3E68093F0009093F100A093F200B093C5
:1043E000F30085E0BFEF8093F4009093F500A09375
:1043F000F600B093F7008091ED008F70806380939A
:10440000ED0088E08093EF0080E0A0ECB3E68093BD
:10441000F0009093F100A093F200B093F30085E0D8
:10442000A0EEBFEF8093F4009093F500A093F60008
:10443000B093F7008091ED008F7080648093ED0061
:1044400088E08093EF0085E08093F4009093F5007E
:10445000A093F600B093F7008091ED008F70806517
:104460008093ED0088EC8093EF0080E0A0E0B9E05D
:104470008093F0009093F100A093F200B093F300CA
:1044800085E0A0EEBFEF8093F4009093F500A09339
:10449000F600B093F7008091ED008F7080668093F6
:1044A000ED0088E88093EF0080E0A0E0BAE0809320
:1044B000F0009093F100A093F200B093F30085E038
:1044C000A0EABFEF8093F4009093F500A093F6006C
:1044D000B093F7008091ED008F7080678093ED00BE
:1044E00088E88093EF0080E0A0E0BBE08093F000DC
:1044F0009093F100A093F200B093F30085E0A0EA5E
:10450000BFEF8093F4009093F500A093F600B09372
:10451000F7008091ED008F7080688093ED0088E84F
:104520008093EF0080E0A0E0BEE08093F0009093E5
:10453000F100A093F200B093F30085E0A0EEBDEF90
:104540008093F4009093F500A093F600B093F700E9
:104550008091ED008F7080698093ED0088E88093F2
:10456000EF0080E0A0E0B0E18093F0009093F100D4
:10457000A093F200B093F30085E0A0E6BFEF809334
:10458000F4009093F500A093F600B093F7008091AB
:10459000ED008F70806A8093ED0088E88093EF00D3
:1045A00080E0A0E2B0E18093F0009093F100A0934E
:1045B000F200B093F30085E0A0E6BFEF8093F40033
:1045C0009093F500A093F600B093F7008091ED0072
:1045D0008F70806B8093ED0088EC8093EF0080E01B
:1045E000A0EEB8E18093F0009093F100A093F20068
:1045F000B093F30085E0BFEF8093F4009093F50053
:10460000A093F600B093F7008091ED008F70806C5E
:104610008093ED0088EC8093EF0080E0A0E2B2E4AC
:104620008093F0009093F100A093F200B093F30018
:1046300085E0A0EEBFEF8093F4009093F500A09387
:10464000F600B093F7008091ED008F70806D80933D
:10465000ED0088E88093EF0080E0A0E4BAE4809366
:10466000F0009093F100A093F200B093F30085E086
:10467000A0E8B7ED8093F4009093F500A093F600C6
:10468000B093F7008091ED008F70806E8093ED0005
:1046900088E88093EF0080E0A0E0BDE88093F00020
:1046A0009093F100A093F200B093F30085E0A0EEA8
:1046B000B8EF8093F4009093F500A093F600B093C8
:1046C000F70080EE9FE79093DF008093DE008091FB
:1046D000DB00806A8093DB0050938E0340938D0350
:1046E0008AE493E09093900380938F038091D800A5
:1046F00082608093D8008091D90082FFFCCF08951A
:104700002F923F924F925F926F927F928F929F92E1
:10471000AF92BF92CF92DF92EF92FF920F931F93CF
:10472000CF93DF93CDB7DEB72B970FB6F894DEBFEC
:104730000FBECDBFFB01C080D180E280F380C701F6
:10474000B6012CE030E040E050E00E94CC336D83B5
:104750007E838F8398878EE090E00E944C05880FBF
:10476000991F880F991F01972C0166247724160141
:1047700081E090E09B878A8731C0682D592D4A2DB2
:104780007B2D862E952EA42EB72E281739070CF4D4
:104790006AC04B815C814B835C83281739070CF41A
:1047A00069C099818A8199838A834A855B8540346F
:1047B000510508F469C084E090E02A853B85289F74
:1047C0007001299FF00C389FF00C1124FB86EA86BB
:1047D000A70184E04130580708F061C02A853B8575
:1047E0006901EE24FF246D817E818F819885A70168
:1047F00096010E94FF3389019A0101501040204028
:104800003040401651066206730610F4930182018F
:10481000B8016F5F7F4F80E090E0A70196010E9492
:10482000CC332CE030E040E050E00E94FF336901DF
:104830007A01C4018219930997FD2DC096012219AE
:10484000330937FD24C0281739070CF096CF6C2D9B
:104850005D2D4E2D7F2D862E952EA42EB72E28173A
:1048600039070CF096CFA8014B835C8328173907D2
:104870000CF097CF9A858B8599838A834A855B85CF
:104880004034510508F097CF88E090E096CF3095FE
:1048900021953F4FD8CF909581959F4FCFCFEB80FB
:1048A000FC80F0928900E092880029813A812034CE
:1048B000310509F458C02134310508F442C049815A
:1048C0005A8181E04030580709F447C094E04030F5
:1048D000590709F43FC09985977080918100887FBE
:1048E000892B8093810080918000909181008C7F42
:1048F000977E986090938100809380008F7380935F
:10490000800080916F00826080936F00B401C501C8
:104910002B960FB6F894DEBF0FBECDBFDF91CF91BF
:104920001F910F91FF90EF90DF90CF90BF90AF90CD
:104930009F908F907F906F905F904F903F902F90BF
:1049400008952130310561F02830310521F6E2E08B
:10495000E987C1CF35E03987BECF24E02987BBCFB7
:1049600041E04987B8CFF3E0F987B5CFAF92BF9266
:10497000CF92DF92EF92FF920F931F93CF93DF932B
:1049800000D000D0CDB7DEB75C011091B1028091AC
:10499000B30281FF43C0123008F440C08EE190E0C2
:1049A000909301018093000180916F008260809359
:1049B0006F00F50181811817E1F11183E091150174
:1049C000F09116016081718180E090E028EF36E07F
:1049D00041E050E00E94CC3328EE33E040E050E06C
:1049E0000E94FF3369017A01212F30E040E050E05E
:1049F000C701B6010E94FF3389019A0109831A8316
:104A00002B833C83073911052105310590F0C50141
:104A1000BE016F5F7F4F0E9480230BC086E090E055
:104A2000909301018093000180916F008D7F8093AE
:104A30006F0081E0F50182830F900F900F900F902F
:104A4000DF91CF911F910F91FF90EF90DF90CF906A
:104A5000BF90AF9008954F925F926F927F928F9226
:104A60009F92BF92CF92DF92EF92FF920F931F938C
:104A7000CF93DF93CDB7DEB766970FB6F894DEBF5E
:104A80000FBECDBF8130910521F1009761F4809177
:104A90001501909116010E94D834809117019091D0
:104AA00018010E94D83466960FB6F894DEBF0FBE88
:104AB000CDBFDF91CF911F910F91FF90EF90DF90CD
:104AC000CF90BF909F908F907F906F905F904F900E
:104AD00008951092D503E6EDF3E028E431E0118269
:104AE000108288E491E033832283369649E0E63DE4
:104AF000F407A9F71092D6091092D7091092D80995
:104B00001092D2031092D10329E431E03093D40300
:104B10002093D3031092CE031092CD033093D00391
:104B20002093CF031092CA031092C9033093CC0391
:104B30002093CB031092C6031092C5033093C80391
:104B40002093C7031092C2031092C1033093C40391
:104B50002093C3031092BE031092BD033093C00391
:104B60002093BF031092BA031092B9033093BC0391
:104B70002093BB031092B6031092B5033093B80391
:104B80002093B7031092B2031092B1033093B40391
:104B90002093B3031092AE031092AD033093B00391
:104BA0002093AF031092AA031092A9033093AC0391
:104BB0002093AB031092A6031092A5033093A80391
:104BC0002093A7031092A2031092A1033093A40391
:104BD0002093A30310929E0310929D033093A00391
:104BE00020939F0310929A031092990330939C0391
:104BF00020939B0310929603109295033093980391
:104C00002093970310929203109291033093940390
:104C10002093930310928E0310928D033093900390
:104C200020938F0310928A031092890330938C0390
:104C300020938B0310928603109285033093880390
:104C40002093870310928203109281033093840390
:104C50002093830310927E0310927D033093800390
:104C600020937F0310927A031092790330937C0390
:104C700020937B0310927603109275033093780390
:104C80002093770310927203109271033093740390
:104C90002093730310926E0310926D033093700390
:104CA00020936F0310926A031092690330936C0390
:104CB00020936B031092620310926103309364039C
:104CC0002093630310925E0310925D0330936003A0
:104CD00020935F0310925A031092590330935C03A0
:104CE00020935B03109256031092550330935803A0
:104CF00020935703109252031092510330935403A0
:104D00002093530310924E0310924D03309350039F
:104D100020934F0310924A031092490330934C039F
:104D200020934B031092460310924503309348039F
:104D300020934703109209004FED5EE250939900D3
:104D40004093980040919100487F416040939100CA
:104D500040919000509191004C7F577E5860509345
:104D60009100409390004F734093900040E453E0D3
:104D7000509366034093650344EA51E050936803FF
:104D80004093670310924103109242031092430331
:104D9000109244031092950010929400C19A409191
:104DA00071004260409371001092E7021092E60297
:104DB0009093E9028093E8021092F0021092EF02C1
:104DC0009093F2028093F1021092F9021092F8028D
:104DD0009093FB028093FA02109202031092010357
:104DE000909304038093030310920B0310920A0321
:104DF00090930D0380930C031092140310921303ED
:104E0000909316038093150310921D0310921C03B8
:104E100090931F0380931E03109226031092250384
:104E2000909328038093270310922F0310922E0350
:104E3000909331038093300310923803109237031C
:104E400090933A03809339031092AA021092A90218
:104E50003093AC022093AB021092AF021092AE02DC
:104E60001092B1021092B0021092B3021092B202EC
:104E70001092B5021092B4021092B7021092B602CC
:104E80001092B9021092B8021092BB021092BA02AC
:104E90001092BD021092BC021092BF021092BE028C
:104EA0001092C1021092C0021092C3021092C2026C
:104EB0001092C5021092C4021092C7021092C6024C
:104EC0001092C9021092C8021092CB021092CA022C
:104ED0001092CD021092CC021092CF021092CE020C
:104EE00001ED12E0D80111961C921E9213963C938C
:104EF0002E9312970C5F1F4FB2E0053E1B0791F7F0
:104F00001092A7021092A6021092A802539A5B9ADE
:104F100052985A9A549A27982F9A8EE9E82E82E04E
:104F2000F82EF0925603E092550389E99BE29093A4
:104F3000580380935703F0924E03E0924D0383E7AA
:104F400092E09093500380934F03F0925203E092CB
:104F5000510382EB91E09093540380935303E8EC68
:104F6000F0E08091C80082608093C8008CE080935C
:104F7000CC008091CD00807F8093CD009091C900BE
:104F80008091CA008660877882839C6C9183BB2461
:104F9000B394D7011296BC9212978091C800816099
:104FA0008093C8005C9A8091C900806181831796C4
:104FB0001C9287E891E00E9492212AE7C22E21E00C
:104FC000D22EC801819790937B0180937A01109231
:104FD0007D0110927E0110927F0110928001B092AB
:104FE00081018091C4028093820110928301C801E3
:104FF000809790938501809384011092860110928E
:105000007C014C2DDE82CD828BEC97E0682F988757
:105010008F831A8619865E81788580E09A8520EDD7
:1050200037E00E94ED0282E090E06CE070E00E94C8
:10503000241C3C0182E090E06DE070E00E94241CA2
:105040002C0140E0842E41E0942E86E090E0909385
:10505000010180930001109202011092030110924D
:10506000040110920501109206011092070110929E
:10507000080110920901D0920B01C0920A0181E24D
:1050800092E090930D0180930C01D0920F01C09299
:105090000E0184E691E0909311018093100110922B
:1050A0001201B092130185E987BD84B580788A60CA
:1050B00084BD909296038092950384ED95E0909341
:1050C00098038093970387E092E090931A0180936E
:1050D000190110921B0110921C0110921D011092D7
:1050E0001E0110921F0110922001109221011092B6
:1050F0002201109223011092240110922501109296
:105100002601109227011092280110922901B092D5
:105110002A01C701039690932C0180932B01C801AB
:10512000479790932E0180932D01095110401093C1
:10513000300100932F011092310110923201109230
:105140003301109234018AE08093350110923601C8
:1051500010923801109237011092390110923A01E1
:1051600010923B0110923C0110923D0110923E01C1
:1051700010923F0189E090E00E947135C82EEE2424
:10518000E394E822F3B082E290E00E9442348C0182
:10519000FC0171826082B30180E090E02FE334E291
:1051A00043E050E00E94CC3328E630E140E050E09C
:1051B0000E94FF33D80112962D933D934D935C933B
:1051C00015971696EC92169717961C9217971896A5
:1051D0001C9218978F2D8095881F8827881F1996F5
:1051E0008C9319971B961C921E921A971D961C92CF
:1051F0001E921C971F961C921E921E9751961C92EF
:105200001E92509753961C921E92529754961C923F
:10521000549755961C92559757961C921E925697E6
:1052200059961C921E9258975A961C925A9791E042
:10523000EE2009F0B7C09170892F880F892BF801F3
:10524000838F148E81E0858F3C9A3D9A10931601CE
:1052500000931501FC2CF694F822E3B082E290E072
:105260000E9442348C01DC0111965C924E92B20194
:1052700080E090E02FE334E243E050E00E94CC3342
:1052800028E630E140E050E00E94FF33F80122833D
:10529000338344835583F682178210868E2D881FB0
:1052A0008827881F8187138612861586148617869D
:1052B0001686118A108A138A128A148A158A178A06
:1052C000168A118E108E128E91E0FF2009F068C0B0
:1052D0009170892F880F892BD8015B968C935B97EF
:1052E0005C961C925C9781E05D968C933C9A3D9A0B
:1052F000109318010093170117B83C9A3D9A2FB7E5
:10530000F8948AE490E09093CD028093CC022FBF72
:10531000E0912D01F0912E018FB7F8941182108247
:105320008FBF482D9C868B8680E491E3682F9E87F3
:105330008D87188A1F865C857E8580E098892CED94
:1053400035E00E94ED0285E595E5A0E0B0E08983B7
:105350009A83AB83BC8306E711E0C801BE016F5F8F
:105360007F4F0E9480231093A6030093A50384E936
:1053700096E09093A8038093A703402F1A8B098B84
:105380008DE698E0682F9C8B8B8B1E8A1D8A5A892C
:105390007C8980E09E8928EE33E00E94ED0283CB79
:1053A00090E096CF90E047CFCF93DF93DC01C8EC3D
:1053B000D0E08091C8008871B1F08091C9008091DF
:1053C000CE008091C80081608093C8005C9A809173
:1053D000C9008061E8ECF0E0818317961C92179772
:1053E000DF91CF9108959091C90096959170809129
:1053F000CE00282F22952F70E92FF0E0E295F2954C
:10540000F07FFE27E07FFE27E05BFE4FE20FF11DFD
:1054100030818317B1F617968C911797913009F068
:1054200094C08823B9F506C0843009F01EC11796D0
:105430001C921797922F990F990F990F1A968C918A
:105440001A978770892B1A968C931A978091C800A7
:105450008E7F8093C80017968C911797823009F43D
:1054600098C0833009F712968C911297882309F41B
:10547000A8CF12968C9112978F5F12968C931297E9
:1054800012968C911297853009F09BCF12961C9240
:10549000129797CF813011F71A969C911A979068BE
:1054A0001A969C931A978F5F17968C93179788304C
:1054B00009F096CF8091C80081608093C8005C9A03
:1054C0008091C9008061E8ECF0E0818317961C921E
:1054D00017971A96EC911A97F0E0E057FE4FE49177
:1054E000EF77F0E018968D919C911997DF01AA0F44
:1054F000BB1FA255BD4F8C9311969C931197809121
:10550000E50280FD6DCF8091E50282608093E50227
:105510007894E058FE4FE491AE2FB0E0AA0FBB1F85
:10552000AA0FBB1FA655BD4F9996ED91FC919A9776
:1055300097968D919C91989709958091E5028D7F22
:105540008093E502DF91CF910895882309F439CF44
:105550008130D9F08230E9F0833009F4B0C0843072
:1055600009F083C019961C921E9218972295207FED
:1055700019968C9119978F70822B19968C93199785
:1055800085E017968C9317972BCF82E017968C9314
:105590001797822F86958695817091E01F9B90E0EA
:1055A000891709F00ECF922F969596959695990F9B
:1055B000990F1A968C911A97887F2370892B822BCA
:1055C0001A968C931A9712968C911297882309F049
:1055D00048C0C8ECD0E08091C9008F7E89835C9878
:1055E0001396EC911397F0E0EF70F070E05BFE4FD4
:1055F00080818093CE0083E017968C9317971A963C
:10560000EC911A97F0E0E057FE4FE491E7FD02C0FD
:1056100084E0B7CF9091E502969591708091E50274
:105620008E7F892B8093E502F0E0EF77F070EE0F2C
:10563000FF1FE255FD4F2FB7F894808191812FBF56
:1056400019969C938E93189718968D919C91199703
:105650008C9311969C931197F8948091C900806265
:10566000898317968C9117971ECF853091F08630DD
:10567000D1F0873009F017CF18968C911897807F5A
:10568000822B18968C93189788E017968C9317970F
:1056900011CF19968C911997807F822B19968C9334
:1056A000199786E06ECF2295207F18968C911897D7
:1056B0008F70822B18968C93189787E062CF1A967A
:1056C000EC911A97F0E0E057FE4FE491E7FFA0CF8E
:1056D0009091E502969591708091E5028E7F892BDD
:1056E0008093E502F0E0EF77F070EE0FFF1FE255D8
:1056F000FD4F2FB7F894808191812FBF19969C930D
:105700008E9318978091C9008F7E89835C98189634
:105710008D919C9119978C9311969C931197F89465
:105720008091C9008062898317968C9117978F5F4B
:10573000BBCE0E94D42908952F923F924F925F9240
:105740006F927F928F929F92AF92BF92CF92DF9291
:10575000EF92FF920F931F93CF93DF93CDB7DEB7F6
:10576000A5970FB6F894DEBF0FBECDBF8C01DC014C
:10577000DD968C91DD97882309F4F0C255960D9043
:10578000BC91A02DF8016789708D1A968D919C911E
:105790001B97805C9F4F51E0FB0122853385821768
:1057A000930708F031C35C968C915C978170F80187
:1057B00036AD3E7F382B36AFFB01848D8170F8010A
:1057C00027AD2E7F282B27AF5C968C915C97882382
:1057D000C1F5FB01848D8823A1F5E52FF0E0EE0FE4
:1057E000FF1FE00FF11F0588F689E02DE284F384A6
:1057F00041E0C42ED12C552311F0CC24DD24F60138
:10580000EE0FFF1FE00FF11F0588F689E02D82855E
:105810009385F701E81BF90BF7FD13C5C7019695B2
:1058200087959695879580509B4F8E179F0708F018
:10583000BEC3F80183AD8F3709F4E2C48F5FF8016E
:1058400083AFF80186AD8823B9F0F80186AD8823CF
:1058500009F4DCC2F80187AD882309F0D7C281E0E2
:1058600081AFF80182AD8F3309F4E6C242891F9BF4
:1058700023C08091AE0122C087AD882331F74289D1
:10588000E42FF0E0852F90E051E0E817F90709F4E4
:10589000B5C4E52FF0E0EE0FFF1FE00FF11F058804
:1058A000F689E02D858D882309F098C3F80151AF62
:1058B000F80112AE1F99DDCF80919E0190E08370B8
:1058C000907051E0009709F450E0442361F05D9638
:1058D0008C915D97882339F0FB01858D882319F021
:1058E000552309F47AC4F80114AEF801F388F1E005
:1058F000FF22F294FF0CFF0C90ECF9225B964C9186
:105900005B97417050E016968C91169790E048177F
:10591000590709F0F0E0FF2AFB01438D417050E088
:10592000868190E0E1E04817590709F0E0E0EE0FCA
:10593000FDEFFF22FE2AF80191ADE92FF0E0EE0F16
:10594000FF1FE00FF11FC588D688F601858D817095
:10595000880F880FFBEFFF22F82A892F8170880FAC
:10596000880F880F47EFF422F82A30FF6CC21A968E
:105970008D919C911B9752E08130950708F463C28A
:10598000FB01858D882309F05EC280E08295807FCF
:10599000FFEEFF22F82A20FF62C2FB018285938579
:1059A000F2E081309F0708F45AC25D968C915D97B2
:1059B000882309F054C280E08295880F807E2FED05
:1059C000F222F82AF801A7A5B0A9F60124853585A9
:1059D000203831050CF058C2FFEF21383F070CF496
:1059E000E3C227FD47C4922F80E02F2D30E0282B03
:1059F000392B8FB7F89411963C932E938FBFD80113
:105A0000D996EC91D997F0E0EE0FFF1FE00FF11F50
:105A10000588F689E02D22853385832F881F882706
:105A2000881F90E0220F331F822B932B9D96ED91C0
:105A3000FC919E972FB7F894918380832FBFF80134
:105A4000F681FA8B1796BC91BB8BF801F085FC8B25
:105A500099878A87D801D996CC90D997DD24CC0C28
:105A6000DD1CF801EC0DFD1D65897689FB0184853F
:105A70009585803891050CF005C2FFEF81389F07AE
:105A80000CF4AAC287FDF2C38B87D8015596ED911D
:105A9000FC915697808191819C878D875796ED91D7
:105AA000FC915897808191819E878F87F88AFB01AE
:105AB000828593859C01220F232F221F330B319562
:105AC000D7964D915C91D8972417350708F0DFC120
:105AD000805A9F4F880F892F881F990B9195D896D0
:105AE0009C938E93D797898BE92EFB01238D217090
:105AF00030E0468150E0442443942417350709F0F0
:105B00004424D80197964C92979759962D903C90A3
:105B10005A97F1018081982F9474943409F0ABC1A5
:105B2000D80185FDA8C112962D913D914D915C91B2
:105B300015972E8F3F8F48A359A35F964D915D9186
