:100000000C9488000C94A70E0C94D20E0C94FD0E48
:100010000C94280F0C94530F0C947E0F0C94A90F82
:100020000C94D40F0C94FF0F0C942A100C945510C0
:100030000C9480100C94AB100C94D6100C940111FD
:100040000C942C110C9457110C9482110C94AD113A
:100050000C94D8110C9403120C942E120C94591277
:100060000C9484120C94AF120C94DA120C940513B5
:100070000C9430130C945B130C9486130C94B113F2
:100080000C94DC130C9407140C9432140C945D142F
:080090000C94881457345C3411
:1001000000000000007C192101010000B8DFD9FDCA
:1001100011241FBECFEFD0E1DEBFCDBF11E0A0E0C4
:10012000B1E0EAEAFCE602C005900D92A437B107FF
:10013000D9F719E0A4E7B1E001C01D92A53EB107CF
:10014000E1F73C9A3D9A449A459A2DE088E190E087
:100150000FB6F894A895809360000FBE20936000BE
:10016000259810E0C6E9D0E004C02297FE010E9465
:10017000E634C439D107C9F70E9494200C9448365C
:100180000001000203000000040000000000000065
:100190000000000000000000908F8E8D080706050B
:1001A000000000000000000000000000000000004F
:1001B000000000000000000000000000000000003F
:1001C000000000000000000000000000000000002F
:1001D000000000000000000000000000000000001F
:1001E0008C8B8A89040300000000000000000000DE
:1001F00000000000000000000200000100000000FC
:1002000000000000000000000000000000000000EE
:1002100000000000000000000000000000000000DE
:1002200000000000000000000000000000000000CE
:1002300000000000000000000000000000000000BE
:1002400000000000000000000000000000000000AE
:10025000000000000000000000000000000000009E
:10026000000000000000000000000000000000008E
:10027000000000000000000000000000000000007E
:10028000000000000000000000000000000000006E
:10029000089508954FB7F8945FB7F8942091C40279
:1002A0003091C50281E090E002C0880F991F6A95E5
:1002B000E2F780959095822393239093C5028093D3
:1002C000C4025FBF4FBF0895FC0184858F3F11F0CA
:1002D0008F5F848708952FB7F8943FB7F894809183
:1002E000C8029091C9029F779093C9028093C80277
:1002F0003FBF2FBF08958091B9028970893031F0D6
:1003000010927A0181E080937F01089581E08093CB
:100310007A010895809101028093970280910202F0
:100320008093980280910302809399028091FE014C
:1003300080939D028091FF0180939E028091000234
:1003400080939F0208953F924F925F926F927F92A7
:100350008F929F92AF92BF92CF92DF92EF92FF92D5
:100360000F931F93CF93DF93CDB7DEB72A970FB6C6
:10037000F894DEBF0FBECDBF9A878987FB018081CD
:10038000982F9474943409F008C185FD06C18581C5
:10039000982F990F990B24813381A985BA8594965A
:1003A0004C919497442309F018C1832E922E5C013E
:1003B000A985BA855B96ED91FC915C9759968D91D4
:1003C0009C915A970995292F30E0C901880F991FF0
:1003D000220F331F220F331F220F331F820F931F51
:1003E00062E170E00E948034362EB3E0B61708F068
:1003F000ECC0C62EE0E1E61710F480E1C82E4C2CCC
:10040000552466247724A985BA855F96ED91FC91E1
:1004100090975D968D919C915E970995DC01CB013B
:1004200095018401081B190B2A0B3B0BC80117FD12
:10043000FBC08F3F910509F00CF4DAC081E0E9853B
:10044000FA8583A3000F111F221F331F000F111FF6
:10045000221F331F000F111F221F331F000F111FF8
:10046000221F331FC901B801A30192010E94C934A0
:1004700029833A834B835C83C980DA80D7FCCFC061
:10048000EE24D7FCE094FE2CB2E7CB16B1E0DB06FD
:10049000B0E0EB06B0E0FB0608F0A8C0C701B6016B
:1004A000A70196010E9461344B015C010E946134F6
:1004B0006D837E838F839887C501B40120E43CE976
:1004C00040E050E00E9461342B013C016D817E814F
:1004D0008F8198852CE630E040E050E00E94613446
:1004E000DC01CB01481A590A6A0A7B0AC501B4012A
:1004F00024E833E040E050E00E9461344B015C01AD
:10050000C701B60120E935E640E050E00E946134C1
:10051000DC01CB01881A990AAA0ABB0A80E09AE694
:10052000A8E1B0E0880E991EAA1EBB1E8D819E8197
:10053000AF81B885880F991FAA1FBB1F881A990A17
:10054000AA0ABB0AC301B201A50194010E94A73403
:1005500089819A81AB81BC81B7FD6AC0422F552742
:1005600047FD5095232D30E0429FC001439F900DE1
:10057000529F900D112497FD5DC0082E892F000C0D
:10058000881F990B000C881F991FA985BA85919621
:100590008C93919792961C9292972A960FB6F89404
:1005A000DEBF0FBECDBFDF91CF911F910F91FF90A6
:1005B000EF90DF90CF90BF90AF909F908F907F9003
:1005C0006F905F904F903F90089514E0412E512C12
:1005D000612C712C04E0C02E16CFFD01832E922ECB
:1005E0005C0185A296A2A7A2B0A6E4CE80E0CDCF02
:1005F00090E082959295907F9827807F98276C2D28
:1006000070E00E94943481E06F3F710509F00CF4B2
:1006100080E0A985BA8593968C93939713CFD09455
:10062000C194D108D3942CCF909581959F4F01CF41
:10063000219594CFCF96A1CF109213010895FC017C
:1006400041815281638174814F5F5F4F6F4F7F4F54
:1006500041835283638374830895FC0187818430CE
:10066000F1F0853059F18630B1F1873019F08F5FA4
:1006700087830895A081B181AF70B070A25BBE4F37
:100680008C918093CE008091C9008F7DA8ECB0E062
:1006900011968C93119787818F5F878308952181AD
:1006A000822F82958F7090E0825B9E4FDC018C914F
:1006B0008093CE0087818F5F87830895A181B0E00A
:1006C000AF70B070A25BBE4F8C918093CE008781DB
:1006D0008F5F87830895A081B181B295A295AF7095
:1006E000AB27BF70AB27ECCFDC01D796EC91D79747
:1006F000F0E0EE0FFF1FE80FF91F0588F689E02DE7
:10070000828593850895FC0162817381848195813E
:1007100008951F9B11C0FB01908181E080937B01B4
:10072000E0917801F091790180818F7D80838091C3
:100730007C01890F80937C0108951F9911C0FB01F2
:10074000908181E080937B01E0917801F0917901C3
:1007500080818F7D808380917C01890F80937C01D3
:100760000895FC018281882341F00284F385E02D05
:1007700080818F3F11F08F5F808308958EBD0DB40F
:1007800007FEFDCF6EBD0DB407FEFDCF4EBD0DB40F
:1007900007FEFDCF2EBD0DB407FEFDCF8EB508952B
:1007A000FC015C9AA8ECB0E08091C90080611196D0
:1007B0008C9311978781883009F008958091C80043
:1007C00081608093C8005C9A8091C9008061119615
:1007D0008C931197178208950F931F93CF93DF93F4
:1007E00000D000D00F92CDB7DEB7FB0180818930F9
:1007F00009F446C0813009F443C0082F10E0000F0F
:10080000111F000F111F005E1F4F8983C80103963F
:100810000E9419368A83C80102960E9419368B837A
:10082000C80101960E9419368C83C8010E941936AE
:100830008D838091DC009091DD0084FD21C080E4F7
:100840008093ED0080E090E0A0E6B2E68093F000B7
:100850009093F100A093F200B093F300898180930C
:10086000FA008A818093FA008B818093FA008C8150
:100870008093FA008D818093FA0085E48093EF00E5
:100880000F900F900F900F900F90DF91CF911F91CD
:100890000F910895CF93DF9300D000D000D0CDB753
:1008A000DEB749835A836B837C838D839E83E8EE16
:1008B000F2E09FB7F894808581FD38C0808582FD85
:1008C00035C08085846080879FBF4FB7F894809142
:1008D000430390914403A0914503B09146034FBF59
:1008E000A90160E070E0480F591F6A1F7B1F61700B
:1008F000707046835783962F917080858E7F892BE9
:100900008087CF01AE014F5F5F4F26E0DA010D9087
:10091000AD01DC010D92CD012150C1F780858260CF
:10092000808780858B7F808781E008C09FBF399654
:10093000B3E0E234FB0709F0BCCF80E026960FB6A7
:10094000F894DEBF0FBECDBFDF91CF910895CF9356
:10095000DF93AC016091ED008091EC00807F80938B
:10096000ED008091EE008F7D8093EE00B091EF005E
:10097000BF702091F2002295269527703091F300E8
:10098000732F770F770F770F872F822B932F9295E7
:1009900096959770880F991F82959295907F9827CA
:1009A000807F98278B0F911D29E08530920709F4ED
:1009B00072C07AE08830970709F442C1EAE08834CF
:1009C0009E0709F441C1FBE088309F0709F44DC13F
:1009D0002BE08834920709F43BC17EE08130970711
:1009E00009F44AC1ECE081309E0709F453C1F0E1FB
:1009F00080309F0709F455C120E18038920709F43F
:100A000057C170E18130970709F43DC1E0E18138B9
:100A10009E0709F454C1F0E180329F0709F456C1E2
:100A200020E1803A920709F458C170E181329707BA
:100A300009F45AC1E0E1813A9E0709F459C1F8E18D
:100A4000873E9F0709F45BC122E48832920709F4CC
:100A50005DC17AE48534970709F462C1E2E6853026
:100A60009E0709F465C1F2E685369F0709F45CC16B
:100A70002DE88730920709F462C178E8853097073E
:100A800009F46BC1EAE885309E0709F462C12FEFD3
:100A900030E07FEF03C020E030E070E078947F3FEB
:100AA00009F4C2C0BB2381F0F901EE0FFF1FEE0F66
:100AB000FF1FEE0FFF1FE40FF51F70E0A091FA007B
:100AC000A1937F5F7B17D0F3F2E685309F0709F48F
:100AD00067C079E08530970709F4C1C0EAE485343E
:100AE0009E0709F4BFC0F2E685369F0709F4C1C02E
:100AF0007EE08130970709F4AFC0EDE887309E07AC
:100B000009F4C5C0F8E885309F0709F4C7C07AE842
:100B10008530970709F4C9C0EAE088309E0709F4D8
:100B2000AFC0FBE088309F0709F4C6C078E1873E7C
:100B3000970709F4C8C0E2E488329E0709F4CAC0E6
:100B4000F0E180309F0709F4CCC070E1803897074E
:100B500009F4D2C0E0E180329E0709F4D4C0F0E18C
:100B6000803A9F0709F4D9C070E18130970709F4F2
:100B7000D1C0E0E181389E0709F4E8C0F0E181329C
:100B80009F0709F4E0C070E1813A970709F4D4C0E7
:100B9000ECE081309E0709F047C084E190E002C09C
:100BA00080E090E0E901CC0FDD1FCC0FDD1FCC0F02
:100BB000DD1FC40FD51F7FB7F8942091DA092F5F8E
:100BC0002093DA092091D9093091D9093F5F3093F8
:100BD000D909E091D8093E1751F43091D8093F5F07
:100BE0003093D8093091DA0931503093DA097FBF58
:100BF00030E08E96880F991F880F991F840F951FDC
:100C0000FC0180819181A281B381F901EE0FFF1F68
:100C1000E20FF31FEE0FFF1FE952FC4F8183928317
:100C2000A383B483D683C583F8948091EF008F7338
:100C300080688093EF006093ED00DF91CF9108957D
:100C400021E030E071E02ACF22E030E072E026CFF0
:100C500024E030E074E022CF84E090E0A3CF81E094
:100C600090E0A0CF82E090E09DCF23E030E073E001
:100C700015CF83E090E096CF25E030E075E00ECF11
:100C800088E090E08FCF29E030E079E007CF85E081
:100C900090E088CF26E030E076E000CF86E090E07C
:100CA00081CF27E030E077E0F9CE87E090E07ACF9F
:100CB00028E030E078E0F2CE89E090E073CF2AE0DF
:100CC00030E07AE0EBCE8AE090E06CCF2BE030E0D1
:100CD0007BE0E4CE8BE090E065CF2CE030E07CE080
:100CE000DDCE8CE090E05ECF2DE030E07DE0D6CE32
:100CF0002EE030E07EE0D2CE8DE090E053CF2FE0CA
:100D000030E07FE0CBCE8EE090E04CCF20E130E0D1
:100D100070E1C4CE80E190E045CF8FE090E042CF1B
:100D200021E130E071E1BACE23E130E073E1B6CEEB
:100D300022E130E072E1B2CE83E190E033CF24E1F2
:100D400030E074E1ABCE82E190E02CCF81E190E025
:100D500029CF26E130E076E1A1CE25E130E075E152
:100D60009DCE009721F421E030E0C9010895813043
:100D7000910521F422E030E0C90108958230910507
:100D800019F424E030E0F1CF8330910519F428E024
:100D900030E0EBCF8430910519F420E130E0E5CF6D
:100DA0008530910519F420E230E0DFCF86309105DF
:100DB00019F420E430E0D9CF21E030E0873091050C
:100DC00059F480E890E0A901489F9001499F300DB7
:100DD000589F300D1124C9CF8830910519F480E057
:100DE00091E0F1CF322F2227330F8930910509F49A
:100DF000BCCF8A30910519F4220F331FB6CF8B3048
:100E0000910529F4220F331F220F331FAECF8C30F0
:100E1000910539F4220F331F220F331F220F331F86
:100E2000A4CF8D30910539F422953295307F322749
:100E3000207F32279ACF8E30910549F4220F331F3D
:100E400022953295307F3227207F32278ECFAC011A
:100E5000495050408F30910551F400243695279524
:100E60000794369527950794322F202D7ECFCA01FF
:100E7000A5CFDC01ED91FC91119740A19FB7F894AB
:100E80008091DA098F5F8093DA092091D9098091E6
:100E9000D9098F5F8093D9093091D8098317C9F098
:100EA0009FBF30E0C901880F991F820F931F880FE1
:100EB000991FFC01E852FC4FB183A08326EB33E37A
:100EC00033832283FC01E952FC4F458316827894D8
:100ED00008958091D8098F5F8093D8098091DA09AD
:100EE00081508093DA09DCCF9FB7F8948091DA09BA
:100EF0008F5F8093DA092091D9098091D9098F5F9A
:100F00008093D9093091D8098317C1F09FBF30E091
:100F1000C901880F991F820F931F880F991FFC0129
:100F2000E852FC4F1182108225E338E0338322839C
:100F300089529C4FFC011682158208958091D80930
:100F40008F5F8093D8098091DA0981508093DA0904
:100F5000DDCF1F9925C02FB7F8946091430370919E
:100F6000440380914503909146032FBF2AE030E06F
:100F700040E050E00E94A73490917D0120937D01D4
:100F800081E080937B01E0917801F091790180818B
:100F90008F7D808380917C01891B820F80937C01EF
:100FA00008951F9B25C02FB7F8946091430370915B
:100FB000440380914503909146032FBF2AE030E01F
:100FC00040E050E00E94A73490917D0120937D0184
:100FD00081E080937B01E0917801F091790180813B
:100FE0008F7D808380917C01891B820F80937C019F
:100FF0000895FC0183818823E1F4F0990DC0F09AF3
:101000008EB386958695869580FD0DC0F39A838173
:1010100091E0892783830895F0988EB3869586950D
:10102000869580FFF3CFF398838191E089278383AE
:1010300008958EB3869580FD0CC0F19A8EB3869587
:10104000869580FD0CC0F29A838191E08927838385
:101050000895F1988EB38695869580FFF4CFF29827
:10106000838191E08927838308955FB7F894409145
:10107000DB09842F90E0FC01EE0FFF1FE80FF91F42
:10108000EF56FD4F618172818091C50290E08F70B3
:101090009070242F2295207F30E0822B932B90811B
:1010A0009093C4028093C5027093C2026093C302FE
:1010B0005FBF4F5F4093DB09453009F00895109200
:1010C000DB0908950F931F93CF93DF938B01FB01EF
:1010D0008081893009F1813021F1C82FD0E0CC0F17
:1010E000DD1FCC0FDD1FC05EDF4FCE01F801648134
:1010F0000E942736CE010196F80163810E942736AF
:10110000CE010296F80162810E942736CE01039635
:10111000F80161810E942736DF91CF911F910F91D5
:10112000089587E1FB018083CCE5D0E0DCCF1F99F7
:1011300008952FB7F8946091430370914403809110
:101140004503909146032FBF2AE030E040E050E095
:101150000E94A73480917D01922F981B20937D01DE
:1011600081E080937B01E0917801F09179018081A9
:101170008062808350917C01590F50937C0194329E
:1011800008F442C060917E01662309F049C0550F02
:1011900050937C01408140784066446010927E010B
:1011A000852F8459893108F05DC04F778091800187
:1011B000E0917801F0917901481709F458C08081D5
:1011C0008F7B80834093800110927C0120811F9946
:1011D0003CC08091DC009091DD0084FDA9CF80E4CB
:1011E0008093ED0080E090E0A0ECB9E98093F000FE
:1011F0009093F100A093F200B093F3002093FA00D3
:1012000081E48093EF00089580917E018F5F809349
:101210007E01833009F08CCF80818F7B808308959D
:1012200040814078406622E030E0261B310981E0B1
:1012300090E002C0880F991F2A95E2F78F71482B22
:10124000633008F4ABCF4F7BA9CF8091DC00909145
:10125000DD0084FD6DCF80E48093ED0080E090E0C0
:10126000A0EEC3CF5D5A5A31C8F440689FCF46FF05
:10127000A9CF8081842787FD13C080917F011092C0
:101280008401882329F0E0918201F091830110828A
:10129000E0917801F0917901408394CF4F7B86CF24
:1012A00080917F01882331F010927F011092840198
:1012B000408388CFE0918201F09183018091840185
:1012C0008083DBCFEF92FF920F931F93CF93DF9337
:1012D00000D000D00F92CDB7DEB77B01FB010081BB
:1012E000093009F46CC0013009F475C010E0000F3A
:1012F000111F000F111F005E1F4FC801F70164810D
:101300000E942736C8010196F70163810E942736A3
:10131000C8010296F70162810E942736C801039630
:10132000F70161810E942736F7018081893009F435
:1013300046C0813009F443C0082F10E0000F111F90
:10134000000F111F005E1F4F8983C80103960E9482
:1013500019368A83C80102960E9419368B83C80108
:1013600001960E9419368C83C8010E9419368D831C
:101370008091DC009091DD0084FD21C080E48093A9
:10138000ED0080E090E0A0E6B2E68093F00090935C
:10139000F100A093F200B093F30089818093FA00EA
:1013A0008A818093FA008B818093FA008C818093EC
:1013B000FA008D818093FA0085E48093EF000F900E
:1013C0000F900F900F900F90DF91CF911F910F9181
:1013D000FF90EF90089587E1FB0180830CE510E01A
:1013E0008ACFFF920F931F93CF93DF93CDB7DEB7D2
:1013F0002F970FB6F894DEBF0FBECDBF8C01FE0154
:10140000319687E0DF011D928A95E9F788E690E042
:101410000E9419368A8380E390E00E9419368B83FC
:1014200084E590E00E9419368C838CE690E00E945F
:1014300019368D838DE690E00E941936F82E88E5E6
:1014400090E00E94213664E670E00E948034F794B8
:10145000FF24F794F62AFE8288E390E00E94193672
:101460008F838091DC009091DD0082FD1BC080E2C3
:101470008093ED0089818093FA008A818093FA003D
:101480008B818093FA008C818093FA008D81809308
:10149000FA008E818093FA008F818093FA0087E4AE
:1014A0008093EF00FE01389688E0DF011D928A9557
:1014B000E9F789E690E00E941936898788E690E08E
:1014C0000E9419368A878DE490E00E9419368B8736
:1014D0008CE490E00E9419368C878091DC0090911A
:1014E000DD0083FD1EC080E38093ED00888580933E
:1014F000FA0089858093FA008A858093FA008B85AB
:101500008093FA008C858093FA008D858093FA0091
:101510008E858093FA008F858093FA0088E480930B
:10152000EF00E8EEF2E09FB7F894808581FD3AC0C5
:10153000808582FD37C08085846080879FBF2FB7FC
:10154000F8948091430390914403A0914503B09196
:1015500046032FBF8C509E4FAF4FBF4FA170B0704E
:10156000868397839A2F917080858E7F892B8087C1
:101570001183008381EF99E0938382831582148223
:1015800080858260808780858B7F80872F960FB6CD
:10159000F894DEBF0FBECDBFDF91CF911F910F91A9
:1015A000FF9008959FBF3996B3E0E234FB0709F03E
:1015B000BACFECCFFC0183818823E9F4A081B1810B
:1015C0008C91982F9F71943009F48CC0983019F049
:1015D000807880618C932C911F9969C08091DC0088
:1015E0009091DD0084FD08C080E48093ED0080E0F0
:1015F00090E0A0EC68C01382A8EEB2E09FB7F89428
:1016000018968C91189781FD4AC018968C9118975E
:1016100082FD45C018968C911897846018968C931B
:1016200018979FBF8FB7F89440914303509144039C
:1016300060914503709146038FBF4053584F6F4FE1
:101640007F4F6170707016964C93169717965C9347
:101650001797962F917018968C9118978E7F892BDB
:1016600018968C9318971196FC93EE938AED9AE056
:1016700013969C938E93129715961C921E92149714
:1016800018968C911897826018968C9318971896D4
:101690008C9118978B7F18968C93189708959FBFFD
:1016A000199683E0A234B80709F0A8CF0895809175
:1016B000DC009091DD0084FD9FCF80E48093ED00FD
:1016C00080E090E0A0EEB9E98093F0009093F10003
:1016D000A093F200B093F3002093FA0081E480938A
:1016E000EF008ACF881F8827881F809587958827D5
:1016F000879588608C936FCFDC018091B50281FF64
:101700003EC012968C9112978823C9F112961C92B2
:101710001297E8EEF2E09FB7F894808581FD3BC018
:10172000808582FD38C08085846080879FBF8FB7A9
:10173000F8944091430350914403609145037091A4
:1017400046038FBF48515C4F6F4F7F4F6170707081
:1017500046835783962F917080858E7F892B808753
:10176000B183A0838CE79BE09383828315821482EC
:1017700080858260808780858B7F8087089586E062
:1017800090E0909301018093000180916F008D7F24
:1017900080936F00BBCF9FBF399683E0E234F80798
:1017A00009F0B9CF08951092D703E8EEF2E09FB7A1
:1017B000F894808581FD2FC0808582FD2CC08085B6
:1017C000846080879FBF2FB7F894809143039091E6
:1017D0004403A0914503B09146032FBF805F984D0D
:1017E000AF4FBF4FA170B070868397839A2F9170CF
:1017F00080858E7F892B80871182108283ED9BE00C
:10180000938382831582148280858260808780859D
:101810008B7F808708959FBF399683E0E234F80775
:1018200031F608951F9B08952FB7F89460914303F4
:101830007091440380914503909146032FBF2AE0A5
:1018400030E040E050E00E94A73480917D01922F6B
:10185000981B20937D0181E080937B01E0917801CA
:10186000F091790180818062808350917C01590FD1
:1018700050937C01943208F442C060917E0166234B
:1018800009F049C0550F50937C0140814078406673
:10189000446010927E01852F8459893108F05DC023
:1018A0004F7780918001E0917801F091790148179C
:1018B00009F458C080818F7B80834093800110920F
:1018C0007C0120811F993CC08091DC009091DD005B
:1018D00084FDA9CF80E48093ED0080E090E0A0EC4F
:1018E000B9E98093F0009093F100A093F200B093D7
:1018F000F3002093FA0081E48093EF000895809133
:101900007E018F5F80937E01833009F08CCF8081D0
:101910008F7B8083089540814078406622E030E0EC
:10192000261B310981E090E002C0880F991F2A959B
:10193000E2F78F71482B633008F4ABCF4F7BA9CF10
:101940008091DC009091DD0084FD6DCF80E4809378
:10195000ED0080E090E0A0EEC3CF5D5A5A31C8F4AC
:1019600040689FCF46FFA9CF8081842787FD13C0A1
:1019700080917F0110928401882329F0E0918201F7
:10198000F09183011082E0917801F0917901408318
:1019900094CF4F7B86CF80917F01882331F01092C6
:1019A0007F0110928401408388CFE0918201F09101
:1019B0008301809184018083DBCF1F9B0895FB010D
:1019C000908181E080937B01E0917801F091790131
:1019D00080818062808350917C01590F50937C01FB
:1019E000943208F442C060917E01662309F04CC035
:1019F000550F50937C0140814078406644601092BE
:101A00007E01852F8459893108F060C04F7780911D
:101A10008001E0917801F0917901481709F45BC0E9
:101A200080818F7B80834093800110927C01208194
:101A30001F993FC08091DC009091DD0084FDBECFF6
:101A400080E48093ED0080E090E0A0ECB9E9809321
:101A5000F0009093F100A093F200B093F300209374
:101A6000FA0081E48093EF00089580917E018F5FFA
:101A7000A8E7B1E016968C931697833009F09ECFB5
:101A800080818F7B8083089540814078406622E08A
:101A900030E0261B310981E090E002C0880F991FD9
:101AA0002A95E2F78F71482B633008F4A8CF4F7B5B
:101AB000A6CF8091DC009091DD0084FD7FCF80E493
:101AC0008093ED0080E090E0A0EEC0CF5D5A5A31E7
:101AD000C8F440689CCF46FFA6CF8081842787FD4D
:101AE00013C080917F0110928401882329F0E09136
:101AF0008201F09183011082E0917801F0917901E7
:101B0000408391CF4F7B83CF80917F01882331F039
:101B100010927F0110928401408385CFE091820171
:101B2000F0918301809184018083DBCF1F99089518
:101B3000FB01908181E080937B01E0917801F0913D
:101B4000790180818062808350917C01590F50938C
:101B50007C01943208F442C060917E01662309F052
:101B60004CC0550F50937C014081407840664460E2
:101B700010927E01852F8459893108F060C04F771B
:101B800080918001E0917801F0917901481709F482
:101B90005BC080818F7B80834093800110927C01A9
:101BA00020811F993FC08091DC009091DD0084FD71
:101BB000BECF80E48093ED0080E090E0A0ECB9E936
:101BC0008093F0009093F100A093F200B093F300A3
:101BD0002093FA0081E48093EF00089580917E01C4
:101BE0008F5FA8E7B1E016968C931697833009F0C3
:101BF0009ECF80818F7B80830895408140784066AE
:101C000022E030E0261B310981E090E002C0880F1D
:101C1000991F2A95E2F78F71482B633008F4A8CFFB
:101C20004F7BA6CF8091DC009091DD0084FD7FCFBB
:101C300080E48093ED0080E090E0A0EEC0CF5D5A9C
:101C40005A31C8F440689CCF46FFA6CF80818427D4
:101C500087FD13C080917F0110928401882329F0B1
:101C6000E0918201F09183011082E0917801F0917E
:101C70007901408391CF4F7B83CF80917F0188236F
:101C800031F010927F0110928401408385CFE09162
:101C90008201F0918301809184018083DBCFF894ED
:101CA00028E088E190E00FB6F894A8958093600052
:101CB0000FBE209360000000FECF1F990895FB0126
:101CC00080818230D9F781818330C1F7828182FDA2
:101CD000F5CF2FB7F8948091430390914403A091DE
:101CE0004503B09146032FBF89352BE1920720E0D1
:101CF000A20720E0B20710F380913B018823F1F2A4
:101D00000E944F0E1F9B0895FB0180818230D9F7FE
:101D100081818330C1F7828182FDF5CF2FB7F8949E
:101D20008091430390914403A0914503B0914603F1
:101D30002FBF89352BE1920720E0A20720E0B207F0
:101D400010F380913B018823F1F20E944F0E1F9205
:101D50000F920FB60F9211242F933F934F935F93DF
:101D60006F937F938F939F93AF93BF93EF93FF9363
:101D7000E091D503F091D6038091D3039091D403E1
:101D80000995FF91EF91BF91AF919F918F917F91B5
:101D90006F915F914F913F912F910F900FBE0F90D8
:101DA0001F9018951F920F920FB60F9211242F9328
:101DB0003F934F935F936F937F938F939F93AF93D3
:101DC000BF93EF93FF93E091D103F091D203809101
:101DD000CF039091D0030995FF91EF91BF91AF91FF
:101DE0009F918F917F916F915F914F913F912F9133
:101DF0000F900FBE0F901F9018951F920F920FB665
:101E00000F9211242F933F934F935F936F937F9380
:101E10008F939F93AF93BF93EF93FF93E091CD0385
:101E2000F091CE038091CB039091CC030995FF9163
:101E3000EF91BF91AF919F918F917F916F915F9142
:101E40004F913F912F910F900FBE0F901F901895BB
:101E50001F920F920FB60F9211242F933F934F931F
:101E60005F936F937F938F939F93AF93BF93EF9302
:101E7000FF93E091C903F091CA038091C703909149
:101E8000C8030995FF91EF91BF91AF919F918F91F9
:101E90007F916F915F914F913F912F910F900FBE66
:101EA0000F901F9018951F920F920FB60F9211244A
:101EB0002F933F934F935F936F937F938F939F9352
:101EC000AF93BF93EF93FF93E091C503F091C603E7
:101ED0008091C3039091C4030995FF91EF91BF9145
:101EE000AF919F918F917F916F915F914F913F91B2
:101EF0002F910F900FBE0F901F9018951F920F9269
:101F00000FB60F9211242F933F934F935F936F93CC
:101F10007F938F939F93AF93BF93EF93FF93E09142
:101F2000C103F091C2038091BF039091C003099552
:101F3000FF91EF91BF91AF919F918F917F916F91A1
:101F40005F914F913F912F910F900FBE0F901F9077
:101F500018951F920F920FB60F9211242F933F9353
:101F60004F935F936F937F938F939F93AF93BF93A1
:101F7000EF93FF93E091BD03F091BE038091BB030B
:101F80009091BC030995FF91EF91BF91AF919F9103
:101F90008F917F916F915F914F913F912F910F9012
:101FA0000FBE0F901F9018951F920F920FB60F92B1
:101FB00011242F933F934F935F936F937F938F934E
:101FC0009F93AF93BF93EF93FF93E091B903F09189
:101FD000BA038091B7039091B8030995FF91EF91EF
:101FE000BF91AF919F918F917F916F915F914F9131
:101FF0003F912F910F900FBE0F901F9018951F9239
:102000000F920FB60F9211242F933F934F935F932C
:102010006F937F938F939F93AF93BF93EF93FF93B0
:10202000E091B503F091B6038091B3039091B403AE
:102030000995FF91EF91BF91AF919F918F917F9102
:102040006F915F914F913F912F910F900FBE0F9025
:102050001F9018951F920F920FB60F9211242F9375
:102060003F934F935F936F937F938F939F93AF9320
:10207000BF93EF93FF93E091B103F091B20380918E
:10208000AF039091B0030995FF91EF91BF91AF918C
:102090009F918F917F916F915F914F913F912F9180
:1020A0000F900FBE0F901F9018951F920F920FB6B2
:1020B0000F9211242F933F934F935F936F937F93CE
:1020C0008F939F93AF93BF93EF93FF93E091AD03F3
:1020D000F091AE038091AB039091AC030995FF9111
:1020E000EF91BF91AF919F918F917F916F915F9190
:1020F0004F913F912F910F900FBE0F901F90189509
:102100001F920F920FB60F9211242F933F934F936C
:102110005F936F937F938F939F93AF93BF93EF934F
:10212000FF93E091A903F091AA038091A7039091F6
:10213000A8030995FF91EF91BF91AF919F918F9166
:102140007F916F915F914F913F912F910F900FBEB3
:102150000F901F9018951F920F920FB60F92112497
:102160002F933F934F935F936F937F938F939F939F
:10217000AF93BF93EF93FF93E091A503F091A60374
:102180008091A3039091A4030995FF91EF91BF91D2
:10219000AF919F918F917F916F915F914F913F91FF
:1021A0002F910F900FBE0F901F9018951F920F92B6
:1021B0000FB60F9211242F933F934F935F936F931A
:1021C0007F938F939F93AF93BF93EF93FF93E09190
:1021D000A103F091A20380919F039091A003099520
:1021E000FF91EF91BF91AF919F918F917F916F91EF
:1021F0005F914F913F912F910F900FBE0F901F90C5
:1022000018951F920F920FB60F9211242F933F93A0
:102210004F935F936F937F938F939F93AF93BF93EE
:10222000EF93FF93E0919D03F0919E0380919B03B8
:1022300090919C030995FF91EF91BF91AF919F9170
:102240008F917F916F915F914F913F912F910F905F
:102250000FBE0F901F9018951F920F920FB60F92FE
:1022600011242F933F934F935F936F937F938F939B
:102270009F93AF93BF93EF93FF93E0919903F091F6
:102280009A0380919703909198030995FF91EF919C
:10229000BF91AF919F918F917F916F915F914F917E
:1022A0003F912F910F900FBE0F901F9018951F9286
:1022B0000F920FB60F9211242F933F934F935F937A
:1022C0006F937F938F939F93AF93BF93EF93FF93FE
:1022D000E0919503F091960380919303909194037C
:1022E0000995FF91EF91BF91AF919F918F917F9150
:1022F0006F915F914F913F912F910F900FBE0F9073
:102300001F9018951F920F920FB60F9211242F93C2
:102310003F934F935F936F937F938F939F93AF936D
:10232000BF93EF93FF93E0919103F091920380911B
:102330008F03909190030995FF91EF91BF91AF9119
:102340009F918F917F916F915F914F913F912F91CD
:102350000F900FBE0F901F9018951F920F920FB6FF
:102360000F9211242F933F934F935F936F937F931B
:102370008F939F93AF93BF93EF93FF93E0918D0360
:10238000F0918E0380918B0390918C030995FF91BE
:10239000EF91BF91AF919F918F917F916F915F91DD
:1023A0004F913F912F910F900FBE0F901F90189556
:1023B0001F920F920FB60F9211242F933F934F93BA
:1023C0005F936F937F938F939F93AF93BF93EF939D
:1023D000FF93E0918903F0918A03809187039091A4
:1023E00088030995FF91EF91BF91AF919F918F91D4
:1023F0007F916F915F914F913F912F910F900FBE01
:102400000F901F9018951F920F920FB60F921124E4
:102410002F933F934F935F936F937F938F939F93EC
:10242000AF93BF93EF93FF93E0918503F091860301
:1024300080918303909184030995FF91EF91BF915F
:10244000AF919F918F917F916F915F914F913F914C
:102450002F910F900FBE0F901F9018951F920F9203
:102460000FB60F9211242F933F934F935F936F9367
:102470007F938F939F93AF93BF93EF93FF93E091DD
:102480008103F091820380917F03909180030995ED
:10249000FF91EF91BF91AF919F918F917F916F913C
:1024A0005F914F913F912F910F900FBE0F901F9012
:1024B00018951F920F920FB60F9211242F933F93EE
:1024C0004F935F936F937F938F939F93AF93BF933C
:1024D000EF93FF93E0917D03F0917E0380917B0366
:1024E00090917C030995FF91EF91BF91AF919F91DE
:1024F0008F917F916F915F914F913F912F910F90AD
:102500000FBE0F901F9018951F920F920FB60F924B
:1025100011242F933F934F935F936F937F938F93E8
:102520009F93AF93BF93EF93FF93E0917903F09163
:102530007A0380917703909178030995FF91EF9149
:10254000BF91AF919F918F917F916F915F914F91CB
:102550003F912F910F900FBE0F901F9018951F92D3
:102560000F920FB60F9211242F933F934F935F93C7
:102570006F937F938F939F93AF93BF93EF93FF934B
:10258000E0917503F0917603809173039091740349
:102590000995FF91EF91BF91AF919F918F917F919D
:1025A0006F915F914F913F912F910F900FBE0F90C0
:1025B0001F9018951F920F920FB60F9211242F9310
:1025C0003F934F935F936F937F938F939F93AF93BB
:1025D000BF93EF93FF93E0917103F09172038091A9
:1025E0006F03909170030995FF91EF91BF91AF91A7
:1025F0009F918F917F916F915F914F913F912F911B
:102600000F900FBE0F901F9018951F920F920FB64C
:102610000F9211242F933F934F935F936F937F9368
:102620008F939F93AF93BF93EF93FF93E0916D03CD
:10263000F0916E0380916B0390916C030995FF916B
:10264000EF91BF91AF919F918F917F916F915F912A
:102650004F913F912F910F900FBE0F901F901895A3
:102660001F920F920FB60F9211242F933F934F9307
:102670005F936F937F938F939F93AF93BF93EF93EA
:10268000FF93E0916903F0916A0380916703909151
:1026900068030995FF91EF91BF91AF919F918F9141
:1026A0007F916F915F914F913F912F910F900FBE4E
:1026B0000F901F9018951F920F920FB60F92112432
:1026C0002F933F934F935F936F937F938F939F933A
:1026D000AF93BF93EF93FF93E0916503F09166038F
:1026E00080916303909164030995FF91EF91BF91ED
:1026F000AF919F918F917F916F915F914F913F919A
:102700002F910F900FBE0F901F9018951F920F9250
:102710000FB60F9211242F933F934F935F936F93B4
:102720007F938F939F93AF93BF93EF93FF93E0912A
:102730006103F091620380915F03909160030995BA
:10274000FF91EF91BF91AF919F918F917F916F9189
:102750005F914F913F912F910F900FBE0F901F905F
:1027600018951F920F920FB60F9211242F933F933B
:102770004F935F936F937F938F939F93AF93BF9389
:10278000EF93FF93E0915D03F0915E0380915B0313
:1027900090915C030995FF91EF91BF91AF919F914B
:1027A0008F917F916F915F914F913F912F910F90FA
:1027B0000FBE0F901F9018951F920F920FB60F9299
:1027C00011242F933F934F935F936F937F938F9336
:1027D0009F93AF93BF93EF93FF93E0915903F091D1
:1027E0005A0380915703909158030995FF91EF91F7
:1027F000BF91AF919F918F917F916F915F914F9119
:102800003F912F910F900FBE0F901F9018951F9220
:102810000F920FB60F9211242F933F934F935F9314
:102820006F937F938F939F93AF93BF93EF93FF9398
:10283000E0915503F0915603809153039091540316
:102840000995FF91EF91BF91AF919F918F917F91EA
:102850006F915F914F913F912F910F900FBE0F900D
:102860001F9018951F920F920FB60F9211242F935D
:102870003F934F935F936F937F938F939F93AF9308
:10288000BF93EF93FF93E0915103F0915203809136
:102890004F03909150030995FF91EF91BF91AF9134
:1028A0009F918F917F916F915F914F913F912F9168
:1028B0000F900FBE0F901F9018951F920F920FB69A
:1028C0000F9211242F933F934F935F936F937F93B6
:1028D0008F939F93AF93BF93EF93FF93E0914D033B
:1028E000F0914E0380914B0390914C030995FF9119
:1028F000EF91BF91AF919F918F917F916F915F9178
:102900004F913F912F910F900FBE0F901F901895F0
:102910001F920F920FB60F9211242F933F934F9354
:102920005F936F937F938F939F93AF93BF93EF9337
:10293000FF93E0914903F0914A03809147039091FE
:1029400048030995FF91EF91BF91AF919F918F91AE
:102950007F916F915F914F913F912F910F900FBE9B
:102960000F901F9018958F929F92AF92BF92CF9227
:10297000DF92EF92FF920F931F93CF93DF937C012F
:10298000DC011596ED91FC911697808121818132B1
:1029900009F448C28232D0F0813309F46DC2823327
:1029A00008F4A3C1833309F471C2833308F088C2E9
:1029B00082E3F701858B0584F685E02D82E0922F76
:1029C0002FB7F894918380832FBFE7C1813109F439
:1029D00029C2823108F0A9C1833009F457C284307A
:1029E00009F412C2882309F0D8C1E7018D89813228
:1029F00009F4C4C5823208F467C2813309F463C4A0
:102A0000823309F45CC4823209F0C7C1E701EF8167
:102A1000F8852FB7F894808191812FBFD82E092F88
:102A2000488159816A817B81DB01CA01877090707E
:102A3000A070B0700097A105B105A9F4DB01CA012F
:102A40000197A109B1099F704150487F82EC692F1D
:102A500020E00E94BE0388E799E60197F1F74881DC
:102A600059816A817B81477081EC60E0202F0E9450
:102A7000BE03E70188819981AA81BB818C019D01F8
:102A80000F5F1F4F2F4F3F4F088319832A833B83CC
:102A9000B901A80147705070607070704115510500
:102AA0006105710589F4692F6F70402F4150487F8F
:102AB00082EC20E00E94BE0388E799E60197F1F7D7
:102AC000088119812A813B81402F477081EC60E0A9
:102AD0002D2D0E94BE03E70188819981AA81BB81C7
:102AE0000196A11DB11D88839983AA83BB83E985C3
:102AF000FA852FB7F894808191812FBFD82E092FA6
:102B0000488159816A817B81DB01CA01877090709D
:102B1000A070B0700097A105B105A9F4DB01CA014E
:102B20000197A109B1099F704150487F82EC692F3C
:102B300020E00E94BE0388E799E60197F1F74881FB
:102B400059816A817B81477081EC60E0202F0E946F
:102B5000BE03F70180819181A281B3818C019D0127
:102B60000F5F1F4F2F4F3F4FE701008311832283D9
:102B70003383B901A80147705070607070704115BF
:102B800051056105710589F4692F6F70402F41501F
:102B9000487F82EC20E00E94BE0388E799E6019717
:102BA000F1F7088119812A813B81402F477081EC20
:102BB00060E02D2D0E94BE03E70188819981AA81E2
:102BC000BB810196A11DB11D88839983AA83BB8314
:102BD000EB85FC852FB7F894808191812FBFD82E8B
:102BE000092F488159816A817B81DB01CA01877085
:102BF0009070A070B0700097A105B105A9F4DB0139
:102C0000CA010197A109B1099F704150487F82EC28
:102C1000692F20E00E94BE0388E799E60197F1F74B
:102C2000488159816A817B81477081EC60E0202F67
:102C30000E94BE03F70180819181A281B3818C0142
:102C40009D010F5F1F4F2F4F3F4FE70100831183FF
:102C500022833383B901A80147705070607070708F
:102C6000411551056105710589F4692F6F70402F79
:102C70004150487F82EC20E00E94BE0388E799E63D
:102C80000197F1F7088119812A813B81402F477014
:102C900081EC60E02D2D0E94BE03E70188819981BF
:102CA000AA81BB818C019D010F5F1F4F2F4F3F4FAA
:102CB000F701088319832A833B834E895F89688DD6
:102CC000798D041715072607370708F4E0C2692F26
:102CD0006F70402F4150487F82EC20E00E94BE037D
:102CE00088E799E60197F1F7DFC2833209F4CEC095
:102CF000833208F45FC0843209F04FC0E701488195
:102D000059816A817B81DB01CA010197A109B1095F
:102D10009F704150487F82EC692F20E00E94BE03E3
:102D200088E799E60197F1F749C0833109F4AEC00D
:102D3000833108F041C082E1F701858B0780F0857F
:102D4000E02D8FB7F894408151818FBFD70119963C
:102D5000ED91FC911A978FB7F894208131818FBF44
:102D6000E701EB85FC856FB7F894808191816FBF97
:102D7000588349833A831B822E8B9F8B888F198EB1
:102D8000ED85FE85AD81BE8182E011969C91119703
:102D90002FB7F894918380832FBFDF91CF911F913C
:102DA0000F91FF90EF90DF90CF90BF90AF909F90EA
:102DB0008F90089582E2C0CF843179F7F701408186
:102DC00051816281738141505040604070408A015E
:102DD0009B01A9E03695279517950795AA95D1F7F8
:102DE000769567955795479540788CE4602F20E05D
:102DF0000E94BE038CEB94E30197F1F7D70115967F
:102E0000ED91FC9116972181E701ED85FE8584E027
:102E1000922F2FB7F894918380832FBF24982C9AF8
:102E20000E944F0EF701858B0780F085E02D8FB74C
:102E3000F894408151818FBFD7011996ED91FC9193
:102E40001A978FB7F894208131818FBFE701EB8506
:102E5000FC856FB7F894808191816FBF5883498357
:102E60003A831B822E8B9F8B888F198EED85FE8572
:102E7000AD81BE8181E089CFD70155968C9355975E
:102E80001D96ED91FC911E9781E099CDE701ED85AE
:102E9000FE8583E0922F2FB7F894918380832FBF14
:102EA0008CEA60E840E020E00E94BE0388E799E6F3
:102EB0000197F1F7ED85FE85AD81BE8180E065CF9C
:102EC000843309F06ACFA0CF813109F42CC282315A
:102ED00009F063CFEF81F8852FB7F8948081918155
:102EE0002FBF6C01E701088119812A813B81D9013B
:102EF000C8018F779070A070B0700097A105B105E0
:102F000009F501501040204030404801590149E086
:102F1000B694A794979487944A95D1F7B901A801DC
:102F2000769567955795479540788CE4682D20E015
:102F30000E94BE038CEB94E30197F1F7088119819D
:102F40002A813B81802F8170880F880F880F3695EA
:102F5000279517950795806460E0402F2D2D0E94DE
:102F6000BE03D7010D911D912D913C91B901A8018E
:102F70004F5F5F4F6F4F7F4FE701488359836A83ED
:102F80007B83DB01CA018F779070A070B0700097CF
:102F9000A105B105E9F448015901A9E0B694A79447
:102FA00097948794AA95D1F7B901A801769567956A
:102FB0005795479540788CE4682D20E00E94BE0329
:102FC0008CEB94E30197F1F7488159816A817B8109
:102FD000842F8170880F880F880F8A019B01369596
:102FE000279517950795806460E0402F2C2D0E944F
:102FF000BE03E70188819981AA81BB810196A11D49
:10300000B11D88839983AA83BB83E985FA852FB78D
:10301000F894808191812FBF6C01088119812A81E8
:103020003B81D901C8018F779070A070B070009774
:10303000A105B10509F5015010402040304048017C
:10304000590149E0B694A794979487944A95D1F78B
:10305000B901A801769567955795479540788CE416
:10306000682D20E00E94BE038CEB94E30197F1F7FA
:10307000088119812A813B81802F8170880F880FF8
:10308000880F3695279517950795806460E0402F47
:103090002D2D0E94BE03F701008111812281338111
:1030A000B901A8014F5F5F4F6F4F7F4F408351833E
:1030B00062837383DB01CA018F779070A070B07058
:1030C0000097A105B105F1F448015901A9E0B694B2
:1030D000A79497948794AA95D1F7B901A8017695FA
:1030E00067955795479540788CE4682D20E00E94BD
:1030F000BE038CEB94E30197F1F7E7014881598116
:103100006A817B81842F8170880F880F880F8A01E4
:103110009B013695279517950795806460E0402FB1
:103120002C2D0E94BE03F70180819181A281B38181
:103130000196A11DB11DE70180839183A283B38312
:103140000384F485E02D2FB7F894808191812FBFFF
:103150006C01088119812A813B81D901C8018F77CF
:103160009070A070B0700097A105B10509F50150ED
:103170001040204030404801590149E0B694A794DE
:10318000979487944A95D1F7B901A80176956795E8
:103190005795479540788CE4682D20E00E94BE0347
:1031A0008CEB94E30197F1F7088119812A813B8127
:1031B000802F8170880F880F880F36952795179577
:1031C0000795806460E0402F2D2D0E94BE03E7012B
:1031D000088119812A813B81B901A8014F5F5F4FA6
:1031E0006F4F7F4F488359836A837B83DB01CA011A
:1031F0008F779070A070B0700097A105B105E9F4C9
:1032000048015901B9E0B694A79497948794BA9568
:10321000D1F7B901A80176956795579547954078FC
:103220008CE4682D20E00E94BE038CEB94E30197B0
:10323000F1F7488159816A817B81842F8170880FE1
:10324000880F880F8A019B0136952795179507955A
:10325000806460E0402F2C2D0E94BE03E70148816E
:1032600059816A817B81DB01CA010196A11DB11DD3
:10327000F70188839983AA83BB830E891F89288DD0
:10328000398D80179107A207B30708F000C2A58502
:10329000B6850580F681E02D82E091812FB7F89404
:1032A00011969C938E932FBFD7011D96ED91FC91A3
:1032B0001E9715960D90BC91A02D80E066CDED85F2
:1032C000FE8580E07CCB0F84D889C02D88E568E03E
:1032D00040E020E00E94BE03082F80E560E040E06F
:1032E00020E00E94BE03202F382F8FB7F894398337
:1032F00028838FBFD7015196CD91DC91529780E5FD
:1033000068E040E020E00E94BE0320E0382F8FB745
:10331000F894398328838FBFE701ED85FE85AD8161
:10332000BE8180E032CDF7010F84D889C02D0081A5
:10333000118122813381802F8170880F880F880F3F
:10334000B901A801A9E07695679557954795AA9583
:10335000D1F736952795179507958062642F402FF2
:1033600020E00E94BE03D82ED7010D911D912D9112
:103370003C910F5F1F4F2F4F3F4FF7010083118389
:1033800022833383802F8170880F880F880FB901C3
:10339000A80199E076956795579547959A95D1F745
:1033A00036952795179507958062642F402F20E06A
:1033B0000E94BE03D7014D915D916D917C91139751
:1033C0004F5F5F4F6F4F7F4FF701408351836283A1
:1033D0007383282F3D2D8FB7F894398328838FBFAF
:1033E0005196CD91DC9152970D911D912D913C916B
:1033F000802F8170880F880F880FB901A80199E08C
:1034000076956795579547959A95D1F7369527956F
:10341000179507958062642F402F20E00E94BE031D
:10342000D82EF70100811181228133810F5F1F4F58
:103430002F4F3F4F0083118322833383802F81706E
:10344000880F880F880FB901A80199E076956795D4
:10345000579547959A95D1F73695279517950795DE
:103460008062642F402F20E00E94BE03F70140815C
:103470005181628173814F5F5F4F6F4F7F4F4083F8
:10348000518362837383282F3D2D8FB7F89439833E
:1034900028838FBFC389D489008111812281338120
:1034A000802F8170880F880F880FB901A80199E0DB
:1034B00076956795579547959A95D1F736952795BF
:1034C000179507958062642F402F20E00E94BE036D
:1034D000D82ED7010D911D912D913C910F5F1F4F5B
:1034E0002F4F3F4FF7010083118322833383802FB7
:1034F0008170880F880F880FB901A80199E076952F
:103500006795579547959A95D1F7369527951795CD
:1035100007958062642F402F20E00E94BE03D701F0
:103520004D915D916D917C9113974F5F5F4F6F4F00
:103530007F4FF7014083518362837383282F3D2D92
:103540008FB7F894398328838FBF4D915D916D912A
:103550007C91139756968D919D910D90BC91A02DC5
:1035600084179507A607B70708F49ECEE7010584E0
:10357000F685E02DAD81BE8181E007CCF7010F8497
:10358000D889C02D40816181677080EA20E00E9467
:10359000BE03D82ED7010D911D912D913C910F5F47
:1035A0001F4F2F4F3F4FF701008311832283338337
:1035B000612F677080EA402F20E00E94BE03D70190
:1035C0004D915D916D917C9113974F5F5F4F6F4F60
:1035D0007F4FF7014083518362837383282F3D2DF2
:1035E0008FB7F894398328838FBF5196CD91DC91A2
:1035F00052974C9111966C91677080EA20E00E947E
:10360000BE03D82EF70100811181228133810F5F23
:103610001F4F2F4F3F4F0083118322833383612F2E
:10362000677080EA402F20E00E94BE03F7014081CE
:103630005181628173814F5F5F4F6F4F7F4F408336
:10364000518362837383282F3D2D8FB7F89439837C
:1036500028838FBFC389D48940816181677080EAE4
:1036600020E00E94BE03D82ED7010D911D912D910F
:103670003C9113970F5F1F4F2F4F3F4FF701008370
:10368000118322833383612F677080EA44CF8A01DC
:103690009B01E9E03695279517950795EA95D1F7AF
:1036A000769567955795479540788CE4602F20E094
:1036B0000E94BE038CEB94E30197F1F7F5CD0E94D5
:1036C000B3140895CF93DF9300D000D00F92CDB7FD
:1036D000DEB72091250230912602243051F02031AE
:1036E00041F00F900F900F900F900F90DF91CF91BE
:1036F0000895353099F1363009F4CDC03D3009F4E4
:1037000080C03E3009F457C0333059F7203149F7B3
:1037100080ED898399B181E094FF80E087958827C7
:1037200087959091A702892B8A838091C8008B830B
:103730008091C9008C838091CA008D831F9BD2C069
:103740008091DC009091DD0084FDCBCF80E48093FC
:10375000ED0080E090E0A0E8B6EC78C082E091E077
:10376000FC01549139964491DE011196FD011192AC
:103770003A95E9F70396FC0184918A83852F90E0BE
:10378000841B9109541B592B5D83243009F480C09C
:10379000203109F0A6CF1F9997C08091DC0090914D
:1037A000DD0084FD9ECF80E48093ED0080E090E01A
:1037B000A0E6B6EC4BC01F9B94CF80ED898387E7D2
:1037C00090E00E9419368A8386E790E00E941936BD
:1037D0008B8385E790E00E9419368C8384E790E024
:1037E0000E9419368D838091DC009091DD0084FD6C
:1037F00078CF80E48093ED0080E090E0A0E0BAE92B
:1038000025C01F996ECF80ED898387E790E00E94E5
:1038100019368A8386E790E00E9419368B8385E704
:1038200090E00E9419368C8384E790E00E9419365C
:103830008D838091DC009091DD0084FD52CF80E487
:103840008093ED0080E090E0A0E0B8E98093F00084
:103850009093F100A093F200B093F30089818093DC
:10386000FA008A818093FA008B818093FA008C8120
:103870008093FA008D818093FA0085E48093EF00B5
:103880000F900F900F900F900F90DF91CF910895B0
:103890001F99A9CFCECF84E790E060912A020E94C1
:1038A000273685E790E0609129020E94273686E757
:1038B00090E0609128020E94273687E790E06091AF
:1038C00027020E9427360DCF8091DC009091DD0009
:1038D00084FD07CF80E48093ED0080E090E0A0E8D5
:1038E000B6ECB4CF8091DC009091DD0084FDF9CE80
:1038F00080E48093ED0080E090E0A0E6B6ECA6CFF7
:10390000CB010E94621B08958091B50186FF09C01A
:103910008F73853209F44AC0863220F4813209F46B
:103920008CC00895873209F4C7C08932D1F72FB708
:10393000F8943FB7F8948091C4029091C5029160C9
:103940009093C5028093C4023FBF2FBFE8EEF2E020
:103950009FB7F894808581FDF5C0808582FDF2C017
:103960008085846080879FBF2FB7F8948091430340
:1039700090914403A0914503B09146032FBF885115
:103980009C4FAF4FBF4FA170B070868397839A2F23
:10399000917080858E7F892B8087118210828AE4C6
:1039A00091E09383828388E090E03EC02FB7F89443
:1039B0003FB7F8948091C4029091C50294609093AF
:1039C000C5028093C4023FBF2FBFE8EEF2E09FB76D
:1039D000F894808581FDBEC0808582FDBBC0808556
:1039E000846080879FBF2FB7F894809143039091A4
:1039F0004403A0914503B09146032FBF88519C4FCB
:103A0000AF4FBF4FA170B070868397839A2F91708C
:103A100080858E7F892B8087118210828AE491E0D5
:103A2000938382838AE090E095838483808582609B
:103A3000808780858B7F808708952FB7F8943FB764
:103A4000F8948091C4029091C50292609093C5024F
:103A50008093C4023FBF2FBFE8EEF2E09FB7F89417
:103A6000808581FD7FC0808582FD7CC080858460EB
:103A700080879FBF2FB7F8948091430390914403B0
:103A8000A0914503B09146032FBF88519C4FAF4F83
:103A9000BF4FA170B070868397839A2F91708085F5
:103AA0008E7F892B8087118210828AE491E0938334
:103AB000828389E090E0B8CF2FB7F8943FB7F894AD
:103AC0008091C4029091C50298609093C502809342
:103AD000C4023FBF2FBFE8EEF2E09FB7F8948085A5
:103AE00081FD29C0808582FD26C080858460808715
:103AF0009FBF2FB7F8948091430390914403A09106
:103B00004503B09146032FBF88519C4FAF4FBF4F25
:103B1000A170B070868397839A2F917080858E7F75
:103B2000892B8087118210828AE491E093838283BB
:103B30008BE090E079CF9FBF399683E0E234F807BD
:103B400061F608959FBF399683E0E234F80709F0E3
:103B5000FFCE08959FBF399683E0E234F80709F05D
:103B600036CF08959FBF399683E0E234F80709F015
:103B700075CF0895CB010E94841C08951F93CF93A5
:103B8000DF93EB010E941936182FCE010E941936DF
:103B900087FD15C08F77412F50E09A01220F331F08
:103BA000440F551F440F551F440F551F240F351F39
:103BB000280F311DC901DF91CF911F910895412F29
:103BC00050E09A01220F331F440F551F440F551F19
:103BD000440F551F240F351F8F77281B3109C9014A
:103BE000DF91CF911F9108950F931F93FC01828164
:103BF000809391028181809392022381822F90E0B1
:103C0000807C9070959587959595879590819F7408
:103C1000982B90939302822F8F7090919502892B0D
:103C2000809395028481809396023581832F90E062
:103C30002091C90220783072232BDC01AF70B07064
:103C4000A25CBE4F3C91232B807C9070009709F0C2
:103C50005FC02093C902908181E095FD80E0809350
:103C600012012FB7F8948091430390914403A091DF
:103C70004503B09146032FBF4091DC095091DD0907
:103C80006091DE097091DF098C019D01041B150B09
:103C9000260B370BB901A801413A1FE0510710E08C
:103CA000610710E0710708F08FC08093DC099093E2
:103CB000DD09A093DE09B093DF09868181FD24C070
:103CC0002FB7F8948091430390914403A09145034A
:103CD000B09146032FBF89352BE1920720E0A20760
:103CE00020E0B20770F080913B01882351F0809171
:103CF0003C01882309F468C080913D01882309F4C0
:103D000063C01F910F910895878186FDFACFD8CFA8
:103D10002068A8EEB2E09FB7F89418968C91189797
:103D200081FD4AC018968C91189782FD45C018965F
:103D30008C911897846018968C9318979FBF8FB7B3
:103D4000F89440914303509144036091450370916E
:103D500046038FBF48515C4F6F4F7F4F617070704B
:103D600016964C93169717965C931797962F91700B
:103D700018968C9118978E7F892B18968C9318978C
:103D800011961C921E928BE691E013969C938E9353
:103D9000129715961C921E92149718968C9118974C
:103DA000826018968C93189718968C9118978B7F31
:103DB00018968C9318974DCF9FBF199633E0A23475
:103DC000B30709F0A8CF45CF0E944F0E1F99089561
:103DD000CB010E94F41D08951F9B0895CB010E9402
:103DE000F41D08950F931F93CF93DF930091C002AA
:103DF0001091C102812F912F17FF03C021E0209362
:103E0000A20296FD25C095FD23C0E0911501F09119
:103E10001601808191819093CD028093CC02E09134
:103E20001701F0911801808191819093CB028093CA
:103E3000CA0280913B01882309F421C1FEE00E3FB4
:103E40001F0709F47CC0DF91CF911F910F91089556
:103E500090913B01992339F010923B0190916E00B3
:103E60009D7F90936E0086FF3BC065E071E0FB0193
:103E7000949131962491592F40E030E0242B352B3A
:103E80003093D1022093D002FB0132969491FB0132
:103E900033962491592F40E030E0242B352B30937A
:103EA000CF022093CE02FB013496A591B4914B2F03
:103EB00050E03A2F20E0242B352B3093CD02209375
:103EC000CC026A5F7F4FFB0165917491272F30E030
:103ED000562F40E0242B352B3093CB022093CA027F
:103EE00085FFACCFE801D070CC0FDD1FCC0FDD1FFC
:103EF000CC0FDD1FCE010E9421369093D00280931B
:103F0000D102CE0102960E9421369093CE02EEECB1
:103F1000F2E08183CE0104960E9421369093CC0278
:103F20008093CD02CE0106960E9421369093CA025C
:103F30008093CB02FEE00E3F1F0709F084CF8091F3
:103F40003B01882309F0AAC08AE190E00E94EA348C
:103F5000DC0123982B9A229A219A209A8CB58065AD
:103F60008CBD8CB59DB58C7F9E7F81609DBD8CBDC9
:103F700014961C92149743E052E020E63AEE7CEA55
:103F800063E5249A2C98852F8A95F1F72C9A852F32
:103F90008A95F1F72C98C9010197F1F77EBD0DB410
:103FA00007FEFDCF6EBD0DB407FEFDCF1EBC0DB4E8
:103FB00007FEFDCF8EB51EBC0DB407FEFDCF8335C9
:103FC00009F474C04150E9F614964C91149780ECB2
:103FD00092E016969C938E9315979C012250304048
:103FE00018963C932E9317979C01245030401A96B4
:103FF0003C932E9319979C01265030401C963C937D
:104000002E931B979C01205F3F4F1E963C932E934F
:104010001D979C01225F3F4F50963C932E931F9714
:104020009C01245F3F4F52963C932E9351970A96E2
:1040300054969C938E935397442309F070C020E2CA
:10404000822F9091C1022FB7F8949093D102809360
:10405000D0022FBFE8E8F1E0E491F0E0EE0FFF1F9F
:10406000EE0FFF1FE455FD4FB0A7A7A38FE59BE11F
:1040700092A781A7DF91CF911F910F91089581E0C1
:1040800080933B0116BCA99A80916E008260809358
:104090006E000091C0021091C102D0CE10923B017F
:1040A00080916E008D7F80936E004ECF81E01496DC
:1040B0008C93149780EC92E016969C938E931597B0
:1040C0009C012250304018963C932E9317979C01E8
:1040D000245030401A963C932E9319979C012650F9
:1040E00030401C963C932E931B979C01205F3F4FC2
:1040F0001E963C932E931D979C01225F3F4F509636
:104100003C932E931F979C01245F3F4F52963C9304
:104110002E9351970A9654969C938E93539720E032
:104120008FCF0E94F21E0895CF93DF93CDB7DEB7F5
:104130006B970FB6F894DEBF0FBECDBF88E891E055
:10414000FC012491E22FF0E0EE0FFF1FEE0FFF1FA6
:10415000E455FD4F10A617A221E930E232A721A7AE
:10416000FC013497E491F0E0EE0FFF1FEE0FFF1F0C
:10417000E455FD4F10A617A22BE731E032A721A787
:10418000FC013597E491F0E0EE0FFF1FEE0FFF1FEB
:10419000E455FD4F10A617A224E737E032A721A768
:1041A0000797FC018491E82FF0E0EE0FFF1FEE0F60
:1041B000FF1FE455FD4F84E791E090A787A38CE5AE
:1041C00096E292A781A78E010B5F1F4F1F9B0FC224
:1041D000109252021092510280E89CE19093540296
:1041E0008093530210925E0210925D0286EE9EE171
:1041F0009093600280935F021092620210926102BB
:104200008CEE9EE1909364028093630210925602BA
:10421000109255028DE59EE09093580280935702CC
:1042200010925A021092590282E89EE090935C022A
:1042300080935B0210926602109265028AE891E018
:10424000909368028093670210928E0210928D0202
:104250008AEB9DE19093900280938F0280E091E041
:1042600090936A028093690283EA91E090936C02D2
:1042700080936B0210926E0210926D0287E998E0B3
:104280009093700280936F0210927E0210927D02D2
:1042900086E99DE09093800280937F0210927202E3
:1042A0001092710289EA97E09093740280937302EE
:1042B00010928202109281028DE993E09093840221
:1042C00080938302109276021092750282E19CE044
:1042D0009093780280937702109286021092850262
:1042E0008DED9CE0909388028093870210927A0271
:1042F0001092790281ED97E090937C0280937B028B
:1043000010928A021092890289E893E090938C02BD
:1043100080938B0280913B01882351F481E080934C
:104320003B0116BCA99A80916E00826080936E005A
:10433000789482E091E0FC0134913996249145E033
:10434000D8011D924A95E9F70396FC0184918E836A
:10435000832F90E0821B9109321B392B39871F99DB
:1043600038C08091DC009091DD0084FD21C080E4A4
:104370008093ED0080E090E0A0E0B8E98093F00049
:104380009093F100A093F200B093F3008D8180939D
:10439000FA008E818093FA008F818093FA008885DD
:1043A0008093FA0089858093FA0085E48093EF007A
:1043B00080E395E70197F1F78091DC009091DD00B3
:1043C00084FD59C080E48093ED0080E090E0A0E699
:1043D00037C08091DC009091DD0084FD21C080E435
:1043E0008093ED0080E090E0A0E0BAE98093F000D7
:1043F0009093F100A093F200B093F3008D8180932D
:10440000FA008E818093FA008F818093FA0088856C
:104410008093FA0089858093FA0085E48093EF0009
:1044200080E395E70197F1F78091DC009091DD0042
:1044300084FD21C080E48093ED0080E090E0A0E85E
:10444000B6EC8093F0009093F100A093F200B0934B
:10445000F3008D818093FA008E818093FA008F8122
:104460008093FA0088858093FA0089858093FA000A
:1044700085E48093EF001F8A1E8A83ED9BE0682FFE
:10448000998F888F1B8E1A8E40E05F89798D80E02E
:104490009B8D20E137E20E944A04198A188A8CE138
:1044A00093E0682F9B8B8A8B1D8A1C8A40E0598978
:1044B0007B8980E09D8928E53BE10E944A0483B125
:1044C00021E030E085FD02C020E030E08091E0098D
:1044D00090E0822B932B8093E009009729F083B121
:1044E00085FD02C00E944F0E3FB7F8949091D80905
:1044F0008091D909981709F473C08091D80990E088
:10450000DC01AA0FBB1FA80FB91FAA0FBB1FA8521F
:10451000BC4F8D919C9111971296ED91FC91139740
:1045200014966C91149715967C9115972091D80943
:104530002F5F2093D8092091DA0921502093DA09BE
:104540003FBF3091DA092091D703231720F420913F
:10455000DA092093D703309709F00995A89508EE5A
:1045600012E006C0075F1F4FF3E002341F07B1F1EE
:10457000D80118968C91189781FFF4CF2FB7F89433
:104580008091430390914403A0914503B091460369
:104590002FBF89839A83AB83BC83F8019085917088
:1045A0008B8181709817F1F62681378189819A81F4
:1045B00028173907B8F6648175810280F381E02DF0
:1045C000D8018D919C910995F80180858D7F808718
:1045D000075F1F4FF3E002341F0751F6A8956FCF16
:1045E00060E070E0E8E4F1E080E090E0A9CF402FE7
:1045F0001B870A8781EF99E0682F9D878C871F862C
:104600001E865B857D8580E09F8524EF31E00E94DA
:104610004A0410933E0200933D0282E699E0909393
:10462000400280933F021093420200934102909314
:1046300044028093430210934602009345029093F4
:1046400048028093470210934A020093490282E68F
:1046500098E090934C0280934B0210934E0200938B
:104660004D028CEE93E09093500280934F02B0CDB8
:10467000AC01FC01E854FF4F845F9E4F28E431E019
:1046800011821082338322833496E817F907C1F729
:104690008091D80081608093D800E2EEF0E08091B4
:1046A000E20081788A608093E2008091E3008E606E
:1046B00081838091E40081788B6482838091ED0016
:1046C0008F708093ED0088E08093EF0085E090E0AC
:1046D000A0EEBFEF8093F4009093F500A093F60056
:1046E000B093F7008091ED008F7080618093ED00B2
:1046F00088E08093EF0085E08093F4009093F500CC
:10470000A093F600B093F7008091ED008F70806267
:104710008093ED0087E08093EF0080E0B3E6809324
:10472000F0009093F100A093F200B093F30085E0C5
:10473000BFEF8093F4009093F500A093F600B09340
:10474000F7008091ED008F7080638093ED0088E02A
:104750008093EF0080E0A0ECB3E68093F0009093AC
:10476000F100A093F200B093F30085E0A0EEBFEF5C
:104770008093F4009093F500A093F600B093F700B7
:104780008091ED008F7080648093ED0088E08093CD
:10479000EF0085E08093F4009093F500A093F6007D
:1047A000B093F7008091ED008F7080658093ED00ED
:1047B00088EC8093EF0080E0A0E0B9E08093F00007
:1047C0009093F100A093F200B093F30085E0A0EE87
:1047D000BFEF8093F4009093F500A093F600B093A0
:1047E000F7008091ED008F7080668093ED0088E87F
:1047F0008093EF0080E0A0E0BAE08093F000909317
:10480000F100A093F200B093F30085E0A0EABFEFBF
:104810008093F4009093F500A093F600B093F70016
:104820008091ED008F7080678093ED0088E8809321
:10483000EF0080E0A0E0BBE08093F0009093F100F7
:10484000A093F200B093F30085E0A0EABFEF80935D
:10485000F4009093F500A093F600B093F7008091D8
:10486000ED008F7080688093ED0088E88093EF0002
:1048700080E0A0E0BEE08093F0009093F100A09370
:10488000F200B093F30085E0A0EEBDEF8093F4005A
:104890009093F500A093F600B093F7008091ED009F
:1048A0008F7080698093ED0088E88093EF0080E04E
:1048B000A0E0B0E18093F0009093F100A093F200AB
:1048C000B093F30085E0A0E6BFEF8093F4009093EF
:1048D000F500A093F600B093F7008091ED008F7083
:1048E000806A8093ED0088E88093EF0080E0A0E28A
:1048F000B0E18093F0009093F100A093F200B093A8
:10490000F30085E0A0E6BFEF8093F4009093F500FC
:10491000A093F600B093F7008091ED008F70806B4C
:104920008093ED0088EC8093EF0080E0A0EEB8E18A
:104930008093F0009093F100A093F200B093F30005
:1049400085E0BFEF8093F4009093F500A093F6000C
:10495000B093F7008091ED008F70806C8093ED0034
:1049600088EC8093EF0080E0A0E2B2E48093F00056
:104970009093F100A093F200B093F30085E0A0EED5
:10498000BFEF8093F4009093F500A093F600B093EE
:10499000F7008091ED008F70806D8093ED0088E8C6
:1049A0008093EF0080E0A0E4BAE48093F00090935D
:1049B000F100A093F200B093F30085E0A0E8B7ED1A
:1049C0008093F4009093F500A093F600B093F70065
:1049D0008091ED008F70806E8093ED0088E8809369
:1049E000EF0080E0A0E0BDE88093F0009093F1003C
:1049F000A093F200B093F30085E0A0EEB8EF8093AF
:104A0000F4009093F500A093F600B093F70080EEC9
:104A10009FE79093DF008093DE008091DB00806A47
:104A20008093DB005093900340938F0387EA94E0D8
:104A300090939203809391038091D8008260809339
:104A4000D8008091D90082FFFCCF08952F923F9229
:104A50004F925F926F927F928F929F92AF92BF928E
:104A6000CF92DF92EF92FF920F931F93CF93DF933A
:104A7000CDB7DEB72B970FB6F894DEBF0FBECDBF14
:104A8000FB01C080D180E280F380C701B6012CE039
:104A900030E040E050E00E9461346D837E838F837C
:104AA00098878EE090E00E94B106880F991F880FCA
:104AB000991F01972C0166247724160181E090E06C
:104AC0009B878A8731C0682D592D4A2D7B2D862ED4
:104AD000952EA42EB72E281739070CF46AC04B81E7
:104AE0005C814B835C83281739070CF469C099817A
:104AF0008A8199838A834A855B854034510508F40D
:104B000069C084E090E02A853B85289F7001299F39
:104B1000F00C389FF00C1124FB86EA86A70184E094
:104B20004130580708F061C02A853B856901EE24B1
:104B3000FF246D817E818F819885A70196010E9457
:104B4000A73489019A01015010402040304040169E
:104B500051066206730610F493018201B8016F5F7B
:104B60007F4F80E090E0A70196010E9461342CE025
:104B700030E040E050E00E94A73469017A01C401AE
:104B80008219930997FD2DC096012219330937FD2B
:104B900024C0281739070CF096CF6C2D5D2D4E2DB3
:104BA0007F2D862E952EA42EB72E281739070CF0B0
:104BB00096CFA8014B835C83281739070CF097CF59
:104BC0009A858B8599838A834A855B854034510514
:104BD00008F097CF88E090E096CF309521953F4F31
:104BE000D8CF909581959F4FCFCFEB80FC80F092EE
:104BF0008900E092880029813A812034310509F446
:104C000058C02134310508F442C049815A8181E0FD
:104C10004030580709F447C094E04030590709F480
:104C20003FC09985977080918100887F892B809300
:104C3000810080918000909181008C7F977E9860A8
:104C400090938100809380008F7380938000809187
:104C50006F00826080936F00B401C5012B960FB680
:104C6000F894DEBF0FBECDBFDF91CF911F910F91A2
:104C7000FF90EF90DF90CF90BF90AF909F908F907C
:104C80007F906F905F904F903F902F9008952130CC
:104C9000310561F02830310521F6E2E0E987C1CF26
:104CA00035E03987BECF24E02987BBCF41E0498773
:104CB000B8CFF3E0F987B5CFAF92BF92CF92DF9232
:104CC000EF92FF920F931F93CF93DF9300D000D00A
:104CD000CDB7DEB75C011091B3028091B50281FFC0
:104CE00043C0123008F440C08EE190E0909301017F
:104CF0008093000180916F00826080936F00F501C6
:104D000081811817E1F11183E0911501F0911601ED
:104D10006081718180E090E028EF36E041E050E072
:104D20000E94613428EE33E040E050E00E94A73456
:104D300069017A01212F30E040E050E0C701B6015F
:104D40000E94A73489019A0109831A832B833C832B
:104D5000073911052105310590F0C501BE016F5FCE
:104D60007F4F0E9426250BC086E090E090930101C2
:104D70008093000180916F008D7F80936F0081E0B0
:104D8000F50182830F900F900F900F90DF91CF91DC
:104D90001F910F91FF90EF90DF90CF90BF90AF9059
:104DA00008954F925F926F927F928F929F92BF92DF
:104DB000CF92DF92EF92FF920F931F93CF93DF93E7
:104DC000CDB7DEB766970FB6F894DEBF0FBECDBF86
:104DD0008130910521F1009761F480911501909146
:104DE00016010E94803580911701909118010E9450
:104DF000803566960FB6F894DEBF0FBECDBFDF914B
:104E0000CF911F910F91FF90EF90DF90CF90BF90C7
:104E10009F908F907F906F905F904F900895109229
:104E2000D703E8EDF3E028E431E01182108288E452
:104E300091E033832283369649E0E83DF407A9F7F1
:104E40001092D8091092D9091092DA091092D4035D
:104E50001092D30329E431E03093D6032093D50395
:104E60001092D0031092CF033093D2032093D1033A
:104E70001092CC031092CB033093CE032093CD033A
:104E80001092C8031092C7033093CA032093C9033A
:104E90001092C4031092C3033093C6032093C5033A
:104EA0001092C0031092BF033093C2032093C1033A
:104EB0001092BC031092BB033093BE032093BD033A
:104EC0001092B8031092B7033093BA032093B9033A
:104ED0001092B4031092B3033093B6032093B5033A
:104EE0001092B0031092AF033093B2032093B1033A
:104EF0001092AC031092AB033093AE032093AD033A
:104F00001092A8031092A7033093AA032093A90339
:104F10001092A4031092A3033093A6032093A50339
:104F20001092A00310929F033093A2032093A10339
:104F300010929C0310929B0330939E0320939D0339
:104F4000109298031092970330939A032093990339
:104F50001092940310929303309396032093950339
:104F60001092900310928F03309392032093910339
:104F700010928C0310928B0330938E0320938D0339
:104F8000109288031092870330938A032093890339
:104F90001092840310928303309386032093850339
:104FA0001092800310927F03309382032093810339
:104FB00010927C0310927B0330937E0320937D0339
:104FC000109278031092770330937A032093790339
:104FD0001092740310927303309376032093750339
:104FE0001092700310926F03309372032093710339
:104FF00010926C0310926B0330936E0320936D0339
:105000001092640310926303309366032093650348
:105010001092600310925F03309362032093610348
:1050200010925C0310925B0330935E0320935D0348
:10503000109258031092570330935A032093590348
:105040001092540310925303309356032093550348
:105050001092500310924F03309352032093510348
:1050600010924C0310924B0330934E0320934D0348
:10507000109248031092470330934A032093490348
:10508000109209004FED5EE2509399004093980012
:1050900040919100487F4160409391004091900081
:1050A000509191004C7F577E5860509391004093EF
:1050B00090004F734093900042E453E05093680394
:1050C000409367034FE153E050936A0340936903B1
:1050D000109243031092440310924503109246032A
:1050E0001092950010929400C19A40917100426014
:1050F000409371001092E9021092E8029093EB0243
:105100008093EA021092F2021092F1029093F4025C
:105110008093F3021092FB021092FA029093FD0228
:105120008093FC02109204031092030390930603F1
:105130008093050310920D0310920C0390930F03BC
:1051400080930E0310921603109215039093180388
:105150008093170310921F0310921E039093210354
:1051600080932003109228031092270390932A0320
:1051700080932903109231031092300390933303EC
:105180008093320310923A031092390390933C03B8
:1051900080933B031092AC021092AB023093AE02AC
:1051A0002093AD021092B1021092B0021092B3029D
:1051B0001092B2021092B5021092B4021092B7028D
:1051C0001092B6021092B9021092B8021092BB026D
:1051D0001092BA021092BD021092BC021092BF024D
:1051E0001092BE021092C1021092C0021092C3022D
:1051F0001092C2021092C5021092C4021092C7020D
:105200001092C6021092C9021092C8021092CB02EC
:105210001092CA021092CD021092CC021092CF02CC
:105220001092CE021092D1021092D00203ED12E041
:10523000D80111961C921E9213963C932E931297AE
:105240000C5F1F4FB2E0073E1B0791F71092A902B7
:105250001092A8021092AA02539A5B9A52985A9AF4
:10526000549A27982F9A80EAE82E82E0F82EF0923E
:105270005803E09257038EE39DE290935A03809384
:105280005903F0925003E0924F0380ED93E0909326
:10529000520380935103F0925403E09253038DE242
:1052A00093E09093560380935503E8ECF0E08091EF
:1052B000C80082608093C8008CE08093CC0080910D
:1052C000CD00807F8093CD009091C9008091CA006D
:1052D0008660877882839C6C9183BB24B394D701CA
:1052E0001296BC9212978091C80081608093C8008A
:1052F0005C9A8091C9008061818317961C9285E831
:1053000091E00E94382328E7C22E21E0D22EC80166
:105310008197909379018093780110927B0110928C
:105320007C0110927D0110927E01B0927F018091EC
:10533000C6028093800110928101C80180979093EA
:105340008301809382011092840110927A014C2D86
:10535000DE82CD828AED9AE0682F98878F831A8645
:1053600019865E81788580E09A8520ED37E00E947D
:105370004A0482E090E06CE070E00E94BE1D3C01B7
:1053800082E090E06DE070E00E94BE1D2C0140E0E4
:10539000842E41E0942E86E090E09093010180936A
:1053A0000001109202011092030110920401109268
:1053B0000501109206011092070110920801109247
:1053C0000901D0920B01C0920A0181EB93E0909306
:1053D0000D0180930C01D0920F01C0920E0184E662
:1053E00091E0909311018093100110921201B092FC
:1053F000130185E987BD84B580788A6084BD909269
:1054000098038092970389E397E090939A0380939F
:10541000990390921A018092190184E793E0909386
:105420001C0180931B0190921E0180921D0183E854
:1054300093E09093200180931F011092210182E05C
:105440008093220110922301B09224011092250131
:10545000109226011092270110922801C70103968D
:1054600090932A0180932901C801479790932C01BA
:1054700080932B010951104010932E0100932D01B0
:1054800010922F01109230011092310110923201CE
:105490008AE0809333011092340110923601109209
:1054A0003501109237011092380110923901109293
:1054B0003A0110923B0110923C0110923D0189E0AB
:1054C00090E00E941936C82EEE24E394E822F3B04F
:1054D00082E290E00E94EA348C01FC0171826082D9
:1054E000B30180E090E02FE334E243E050E00E941B
:1054F000613428E630E140E050E00E94A734D80152
:1055000012962D933D934D935C9315971696EC92BE
:10551000169717961C92179718961C9218978F2D0E
:105520008095881F8827881F19968C9319971B963A
:105530001C921E921A971D961C921E921C971F96E3
:105540001C921E921E9751961C921E925097539633
:105550001C921E92529754961C92549755961C92E8
:10556000559757961C921E92569759961C921E92CA
:1055700058975A961C925A9791E0EE2009F0B7C0BE
:105580009170892F880F892BF801838F148E81E009
:10559000858F3C9A3D9A1093160100931501FC2CBF
:1055A000F694F822E3B082E290E00E94EA348C01A3
:1055B000DC0111965C924E92B20180E090E02FE304
:1055C00034E243E050E00E94613428E630E140E0FC
:1055D00050E00E94A734F80122833383448355832B
:1055E000F682178210868E2D881F8827881F818754
:1055F000138612861586148617861686118A108AD7
:10560000138A128A148A158A178A168A118E108EA6
:10561000128E91E0FF2009F068C09170892F880FE9
:10562000892BD8015B968C935B975C961C925C9758
:1056300081E05D968C933C9A3D9A109318010093FB
:10564000170117B83C9A3D9A2FB7F89484E790E079
:105650009093CF028093CE022FBFE0912B01F09167
:105660002C018FB7F894118210828FBF482D9C8631
:105670008B8685ED91E3682F9E878D87188A1F861C
:105680005C857E8580E0988924EF31E00E944A04A1
:1056900085E595E5A0E0B0E089839A83AB83BC8380
:1056A00004E711E0C801BE016F5F7F4F0E9426250D
:1056B0001093A8030093A70389EF97E09093AA03A0
:1056C0008093A903402F1A8B098B8CE79BE0682FEE
:1056D0009C8B8B8B1E8A1D8A5A897C8980E09E89CF
:1056E00028EE33E00E944A0484CB90E096CF90E00D
:1056F00047CFCF93DF93DC01C8ECD0E08091C800A6
:105700008871B1F08091C9008091CE008091C8006D
:1057100081608093C8005C9A8091C9008061E8EC48
:10572000F0E0818317961C921797DF91CF9108952F
:105730009091C900969591708091CE00282F229566
:105740002F70E92FF0E0E295F295F07FFE27E07FE1
:10575000FE27E25BFE4FE20FF11D30818317B1F6A9
:1057600017968C911797913009F094C08823B9F55A
:1057700006C0843009F01EC117961C921797922F0D
:10578000990F990F990F1A968C911A978770892BF8
:105790001A968C931A978091C8008E7F8093C800C8
:1057A00017968C911797823009F498C0833009F7C7
:1057B00012968C911297882309F4A8CF12968C9197
:1057C00012978F5F12968C93129712968C91129764
:1057D000853009F09BCF12961C92129797CF81309B
:1057E00011F71A969C911A9790681A969C931A979B
:1057F0008F5F17968C931797883009F096CF80911A
:10580000C80081608093C8005C9A8091C900806163
:10581000E8ECF0E0818317961C9217971A96EC91AA
:105820001A97F0E0E057FE4FE491EF77F0E018961A
:105830008D919C911997DF01AA0FBB1FA055BD4FF9
:105840008C9311969C9311978091E70280FD6DCF08
:105850008091E70282608093E7027894E058FE4FDF
:10586000E491AE2FB0E0AA0FBB1FAA0FBB1FA45537
:10587000BD4F9996ED91FC919A9797968D919C9139
:10588000989709958091E7028D7F8093E702DF91D9
:10589000CF910895882309F439CF8130D9F082302F
:1058A000E9F0833009F4B0C0843009F083C0199660
:1058B0001C921E9218972295207F19968C91199709
:1058C0008F70822B19968C93199785E017968C937D
:1058D00017972BCF82E017968C931797822F869578
:1058E0008695817091E01F9B90E0891709F00ECF9B
:1058F000922F969596959695990F990F1A968C9149
:105900001A97887F2370892B822B1A968C931A976B
:1059100012968C911297882309F048C0C8ECD0E009
:105920008091C9008F7E89835C981396EC911397C0
:10593000F0E0EF70F070E25BFE4F80818093CE006C
:1059400083E017968C9317971A96EC911A97F0E0CC
:10595000E057FE4FE491E7FD02C084E0B7CF90919D
:10596000E702969591708091E7028E7F892B809354
:10597000E702F0E0EF77F070EE0FFF1FE055FD4F0C
:105980002FB7F894808191812FBF19969C938E93A5
:10599000189718968D919C9119978C9311969C93BA
:1059A0001197F8948091C9008062898317968C9131
:1059B00017971ECF853091F08630D1F0873009F0EF
:1059C00017CF18968C911897807F822B18968C93FE
:1059D000189788E017968C93179711CF19968C918A
:1059E0001997807F822B19968C93199786E06ECF3A
:1059F0002295207F18968C9118978F70822B18967D
:105A00008C93189787E062CF1A96EC911A97F0E082
:105A1000E057FE4FE491E7FFA0CF9091E702969503
:105A200091708091E7028E7F892B8093E702F0E0EE
:105A3000EF77F070EE0FFF1FE055FD4F2FB7F89492
:105A4000808191812FBF19969C938E931897809196
:105A5000C9008F7E89835C9818968D919C911997C7
:105A60008C9311969C931197F8948091C900806251
:105A7000898317968C9117978F5FBBCE0E94792BE5
:105A800008955F926F927F928F929F92AF92BF9292
:105A9000CF92DF92EF92FF920F931F93CF93DF93FA
:105AA000CDB7DEB762970FB6F894DEBF0FBECDBF9D
:105AB0007C01DC01DB968C91DB97882309F406C31B
:105AC00055960D90BC91A02DF7016789708D1A969F
:105AD0008D919C911B97805C9F4F51E0FB0122852B
:105AE00033858217930708F044C35C968C915C97CA
:105AF0008170F70134AD3E7F382B34AFFB01848DCC
:105B00008170F70125AD2E7F282B25AF5C968C91F7
:105B10005C978823D9F5FB01848D8823B9F5E52F9F
:105B2000F0E0EE0FFF1FEE0DFF1D0588F689E02D5A
:105B300002851385F5E001301F0708F4B2C391E038
