:100000000C9488000C94990A0C94C40A0C94EF0A7E
:100010000C941A0B0C94450B0C94700B0C949B0BCA
:100020000C94C60B0C94F10B0C941C0C0C94470C08
:100030000C94720C0C949D0C0C94C80C0C94F30C46
:100040000C941E0D0C94490D0C94740D0C949F0D82
:100050000C94CA0D0C94F50D0C94200E0C944B0EC0
:100060000C94760E0C94A10E0C94CC0E0C94F70EFE
:100070000C94220F0C944D0F0C94780F0C94A30F3A
:100080000C94CE0F0C94F90F0C9424100C944F1078
:080090000C947A101A301F30A5
:10010000000000000074191101010000A0DFD9FDFA
:1001100011241FBECFEFD0E1DEBFCDBF11E0A0E0C4
:10012000B1E0EAE0F4E602C005900D92A236B10714
:10013000D9F719E0A2E6B1E001C01D92AA39B107D2
:10014000E1F73C9A3D9A449A459A2DE088E190E087
:100150000FB6F894A895809360000FBE20936000BE
:10016000259810E0C6E9D0E004C02297FE010E9465
:100170009630C439D107C9F70E94B91D0C94F831E3
:100180000001000203000000040000000000000065
:100190000000000000000000908F8E8D080706050B
:1001A000000000000000000000000000000000004F
:1001B000000000000000000000000000000000003F
:1001C000000000000000000000000000000000002F
:1001D000000000000000000000000000000000001F
:1001E0008C8B8A89040300000000000000000000DE
:1001F00000000000000000000200000100000000FC
:1002000000000000000000000000000000000000EE
:1002100000000000000000000000000000000000DE
:1002200000000000000000000000000000000000CE
:1002300000000000000000000000000000000000BE
:1002400000000000000000000000000000000000AE
:10025000000000000000000000000000000000009E
:10026000000000000000000000000000000000008E
:10027000000000000000000000000000000000007E
:10028000000000000000000000000000000000006E
:10029000089508954FB7F8945FB7F89420918E02AF
:1002A00030918F0281E090E002C0880F991F6A951B
:1002B000E2F7809590958223932390938F02809309
:1002C0008E025FBF4FBF08952FB7F8943FB7F894E1
:1002D00080919202909193029F77909393028093E2
:1002E00092023FBF2FBF08958091EF01809361027A
:1002F0008091F001809362028091F101809363020A
:100300008091EC01809367028091ED0180936802F7
:100310008091EE01809369020895FC014181528130
:10032000638174814F5F5F4F6F4F7F4F4183528373
:10033000638374830895FC0187818430F1F08530F4
:1003400059F18630B1F1873019F08F5F87830895B6
:10035000A081B181AF70B070A55CBE4F8C918093CD
:10036000CE008091C9008F7DA8ECB0E011968C93EF
:10037000119787818F5F878308952181822F8295CE
:100380008F7090E0855C9E4FDC018C918093CE0055
:1003900087818F5F87830895A181B0E0AF70B070CF
:1003A000A55CBE4F8C918093CE0087818F5F878341
:1003B0000895A081B181B295A295AF70AB27BF70AF
:1003C000AB27ECCF8EBD0DB407FEFDCF6EBD0DB4D7
:1003D00007FEFDCF4EBD0DB407FEFDCF2EBD0DB403
:1003E00007FEFDCF8EB50895FC015C9AA8ECB0E045
:1003F0008091C900806111968C9311978781883014
:1004000009F008958091C80081608093C8005C9ACB
:100410008091C900806111968C931197178208957D
:100420001F93CF93DF9300D000D000D0CDB7DEB7BD
:1004300049835A836B837C838D839E83E2EBF2E056
:1004400005C03996B2E0EA3FFB07A9F19FB7F894DF
:100450008085482F467011F4846080879FBF108587
:1004600012FFEFCFC901A0E0B0E04091FB02509134
:10047000FC026091FD027091FE02840F951FA61F81
:10048000B71F868397838A2F81701E7F182B108752
:10049000CF01AE014F5F5F4F26E0DA010D90AD0155
:1004A000DC010D92CD012150C1F7808582608B7FE8
:1004B000808781E001C080E026960FB6F894DEBF09
:1004C0000FBECDBFDF91CF911F910895CF93DF93E2
:1004D000AC016091ED008091EC00807F8093ED0095
:1004E0008091EE008F7D8093EE00B091EF00BF70A1
:1004F0002091F2002295269527703091F300732FFA
:10050000770F770F770F872F822B932F92959695E2
:100510009770880F991F82959295907F9827807F7A
:1005200098278B0F911D29E08530920709F463C04D
:100530007AE08830970709F424C1EAE088349E07FE
:1005400009F423C1FBE088309F0709F42FC12BE099
:100550008834920709F41DC17EE08130970709F4C1
:100560002CC1ECE081309E0709F435C1F0E1803008
:100570009F0709F437C120E18038920709F439C197
:1005800070E18130970709F41FC1E0E181389E07CF
:1005900009F436C1F0E180329F0709F438C120E147
:1005A000803A920709F437C170E18132970709F464
:1005B0003CC1E0E1813A9E0709F43BC1F8E1873E86
:1005C0009F0709F43DC122E48832920709F445C12E
:1005D0007AE48534970709F444C1E2E685309E0742
:1005E00009F447C1FDE887309F0709F43EC12FEFAA
:1005F00030E07FEF03C020E030E070E078947F3F90
:1006000009F4B3C0BB2381F0F901EE0FFF1FEE0F19
:10061000FF1FEE0FFF1FE40FF51F70E0A091FA001F
:10062000A1937F5F7B17D0F372E68530970709F4BB
:1006300058C0E9E085309E0709F4B2C0FAE4853479
:100640009F0709F4B0C07EE08130970709F4B2C07B
:10065000E2E488329E0709F4A0C0FDE887309F07D6
:1006600009F4B6C07AE08830970709F4B8C0EBE027
:1006700088309E0709F4BAC0F8E1873E9F0709F465
:10068000A0C070E18030970709F4B7C0E0E180387E
:100690009E0709F4B9C0F0E180329F0709F4BFC09A
:1006A00070E1803A970709F4BDC0E0E181309E0710
:1006B00009F4C3C0F0E181389F0709F4C5C070E1B7
:1006C0008132970709F4C6C0E0E1813A9E0709F438
:1006D000BEC0FCE081309F0709F047C081E190E097
:1006E00002C080E090E0E901CC0FDD1FCC0FDD1FE0
:1006F000CC0FDD1FC40FD51F7FB7F894209192094E
:100700002F5F2093920920919109309191093F5FC9
:1007100030939109E09190093E1751F4309190097E
:100720003F5F309390093091920931503093920994
:100730007FBF30E08896880F991F880F991F840F1C
:10074000951FFC0180819181A281B381F901EE0F97
:10075000FF1FE20FF31FEE0FFF1FE157FC4F8183D6
:100760009283A383B483D683C583F8948091EF00EA
:100770008F7380688093EF006093ED00DF91CF91DD
:10078000089521E030E071E039CF22E030E072E0FE
:1007900035CF24E030E074E031CF84E090E0A3CFA7
:1007A00081E090E0A0CF82E090E09DCF23E030E0B8
:1007B00073E024CF83E090E096CF25E030E075E051
:1007C0001DCF88E090E08FCF29E030E079E016CFB0
:1007D00085E090E088CF26E030E076E00FCF86E03D
:1007E00090E081CF27E030E077E008CF87E090E02D
:1007F0007ACF28E030E078E001CF89E090E073CF55
:100800002AE030E07AE0FACE8AE090E06CCF2BE08C
:1008100030E07BE0F3CE2CE030E07CE0EFCE8BE00C
:1008200090E061CF8CE090E05ECF2DE030E07DE0A5
:10083000E5CE2EE030E07EE0E1CE8DE090E053CFDB
:100840002FE030E07FE0DACE8EE090E04CCF80E128
:1008500090E049CF8FE090E046CF20E130E070E1BA
:10086000CDCE21E130E071E1C9CE23E130E073E18A
:10087000C5CE22E130E072E1C1CECF93DF93EB0130
:100880001F9920C06091FB027091FC028091FD02D3
:100890009091FE022AE030E040E050E00E945730A4
:1008A00020936B01988181E080936901E091670159
:1008B000F091680180818F7D808380916A01890F2A
:1008C00080936A01DF91CF910895CF93DF93EB017D
:1008D0001F9B20C06091FB027091FC028091FD0281
:1008E0009091FE022AE030E040E050E00E94573054
:1008F00020936B01988181E080936901E091670109
:10090000F091680180818F7D808380916A01890FD9
:1009100080936A01DF91CF910895009711F481E0EF
:1009200008958130910511F482E008958230910597
:1009300011F484E008958330910511F488E008955E
:100940008430910511F480E108958530910511F40A
:1009500080E208958630910511F480E4089541E025
:100960008730910529F480E8489F802D112408954F
:100970008830910511F480E0F7CF8930910511F4AA
:1009800080E008958A309105D9F38B309105C1F349
:100990008C309105A9F38D30910591F38E3091053E
:1009A00079F39C012950304040E08F30910541F3AC
:1009B000C901D6CF1F9922C06091FB027091FC0241
:1009C0008091FD029091FE022AE030E040E050E08C
:1009D0000E94573090916B0120936B0181E08093CE
:1009E0006901E0916701F091680180818F7D8083CA
:1009F00080916A01891B820F80936A01089580911A
:100A00008302982F909520919409922390FF03C020
:100A100091E090936D0183FD03C091E090936D018F
:100A20008093940908951F9B22C06091FB027091EE
:100A3000FC028091FD029091FE022AE030E040E04D
:100A400050E00E94573090916B0120936B0181E040
:100A500080936901E0916701F091680180818F7D49
:100A6000808380916A01891B820F80936A010895B7
:100A70009FB7F894809192098F5F8093920920919B
:100A80009109809191098F5F80939109309190092C
:100A90008317C1F09FBF30E0C901880F991F820FF3
:100AA000931F880F991FFC01E057FC4F11821082A1
:100AB00024EE35E03383228381579C4FFC0116825C
:100AC00015820895809190098F5F8093900980919D
:100AD0009209815080939209DDCFDC01ED91FC9168
:100AE000119740A19FB7F894809192098F5F8093EE
:100AF000920920919109809191098F5F80939109CA
:100B0000309190098317C9F09FBF30E0C901880F69
:100B1000991F820F931F880F991FFC01E057FC4F0C
:100B2000B183A0832CE83FE233832283FC01E157A9
:100B3000FC4F4583168278940895809190098F5FC9
:100B40008093900980919209815080939209DCCF23
:100B5000FC0183818823E1F4F0990DC0F09A8EB3F3
:100B600086958695869580FD0DC0F39A838191E0E8
:100B7000892783830895F0988EB386958695869508
:100B800080FFF3CFF398838191E0892783830895D1
:100B90008EB3869580FD0CC0F19A8EB386958695AE
:100BA00080FD0CC0F29A838191E0892783830895A8
:100BB000F1988EB38695869580FFF4CFF298838165
:100BC00091E08927838308955FB7F8944091930952
:100BD000842F90E0FC01EE0FFF1FE80FF91FE55A8C
:100BE000FD4F6181728180918F0290E08F709070D3
:100BF000242F2295207F30E0822B932B908190939D
:100C00008E0280938F0270938C0260938D025FBF7F
:100C10004F5F40939309453009F00895109293096E
:100C2000089580916601882319F481E0809306017C
:100C300010926601E2EBF2E005C0399682E0EA3FED
:100C4000F80751F19FB7F8948085282F267011F48A
:100C5000846080879FBF208522FFEFCF8091FB02B9
:100C60009091FC02A091FD02B091FE0284529A4F35
:100C7000AF4FBF4F868397838A2F81702E7F282B9B
:100C80001182108281E196E093838283158214821F
:100C900022602B7F208708950895FC01828188239C
:100CA000E9F4A081B1818C91982F9F71943009F45F
:100CB00076C0983019F0807880618C932C911F99C0
:100CC00053C08091DC009091DD0084FD08C080E479
:100CD0008093ED0080E090E0A0EC52C01282A2EB85
:100CE000B2E005C0199682E0AA3FB807E1F19FB7CC
:100CF000F89418968C911897282F267021F4846008
:100D000018968C9318979FBF18968C91189782FF0E
:100D1000E9CF4091FB025091FC026091FD0270917D
:100D2000FE024053584F6F4F7F4F16964C931697C5
:100D300017965C931797962F9170282F2E7F292B4B
:100D40001196FC93EE938DE496E013969C938E930C
:100D5000129715961C921E92149722602B7F18965C
:100D60002C931897089508958091DC009091DD00F0
:100D700084FDB5CF80E48093ED0080E090E0A0EEAC
:100D8000B9E98093F0009093F100A093F200B09342
:100D9000F3002093FA0081E48093EF00A0CF881F36
:100DA0008827881F809587958827879588608C93EA
:100DB00085CFDC0180917F0281FF3BC012968C9130
:100DC00012978823B1F112961C921297E2EBF2E08F
:100DD00005C0399682E0EA3FF807B9F19FB7F89469
:100DE0008085282F267011F4846080879FBF8085BE
:100DF00082FFEFCF4091FB025091FC026091FD0217
:100E00007091FE0248515C4F6F4F7F4F468357836E
:100E1000962F9170282F2E7F292BB183A08389EDE7
:100E200096E0938382831582148222602B7F208731
:100E3000089586E090E090930101809300018091F5
:100E400070008D7F80937000BECF089510928F0345
:100E5000E2EBF2E005C0399682E0EA3FF80751F193
:100E60009FB7F8948085282F267011F484608087BE
:100E70009FBF208522FFEFCF8091FB029091FC0263
:100E8000A091FD02B091FE02805F984DAF4FBF4F21
:100E9000868397838A2F81702E7F282B1182108260
:100EA00086E297E0938382831582148222602B7FEF
:100EB0002087089508951F9908956091FB0270910D
:100EC000FC028091FD029091FE022AE030E040E0B9
:100ED00050E00E94573080916B01922F981B209315
:100EE0006B0181E080936901E0916701F0916801F5
:100EF00080818062808350916A01590F50936A010A
:100F0000943208F442C060916C01662309F049C034
:100F1000550F50936A0140814078406644601092BA
:100F20006C01852F8459893108F05DC04F7780911D
:100F30006E01E0916701F0916801481709F458C00B
:100F400080818F7B808340936E0110926A012081A3
:100F50001F993CC08091DC009091DD0084FDACCFF6
:100F600080E48093ED0080E090E0A0ECB9E980930C
:100F7000F0009093F100A093F200B093F30020935F
:100F8000FA0081E48093EF00089580916C018F5FF7
:100F900080936C01833009F08FCF80818F7B8083B9
:100FA000089540814078406622E030E0261B3109F8
:100FB00081E090E002C0880F991F2A95E2F78F71B7
:100FC000482B633008F4ABCF4F7BA9CF8091DC0076
:100FD0009091DD0084FD70CF80E48093ED0080E08F
:100FE00090E0A0EEC3CF5D5A5A31C8F440689FCF5D
:100FF00046FF13C08081842787FD13C080916D0157
:1010000010927201882329F0E0917001F091710132
:101010001082E0916701F0916801408394CF4F7B8B
:1010200086CF80916D01882331F010926D0110926E
:101030007201408388CFE0917001F091710180913D
:1010400072018083DBCF1F9B08956091FB0270913A
:10105000FC028091FD029091FE022AE030E040E027
:1010600050E00E94573080916B01922F981B209383
:101070006B0181E080936901E0916701F091680163
:1010800080818062808350916A01590F50936A0178
:10109000943208F442C060916C01662309F049C0A3
:1010A000550F50936A014081407840664460109229
:1010B0006C01852F8459893108F05DC04F7780918C
:1010C0006E01E0916701F0916801481709F458C07A
:1010D00080818F7B808340936E0110926A01208112
:1010E0001F993CC08091DC009091DD0084FDACCF65
:1010F00080E48093ED0080E090E0A0ECB9E980937B
:10110000F0009093F100A093F200B093F3002093CD
:10111000FA0081E48093EF00089580916C018F5F65
:1011200080936C01833009F08FCF80818F7B808327
:10113000089540814078406622E030E0261B310966
:1011400081E090E002C0880F991F2A95E2F78F7125
:10115000482B633008F4ABCF4F7BA9CF8091DC00E4
:101160009091DD0084FD70CF80E48093ED0080E0FD
:1011700090E0A0EEC3CF5D5A5A31C8F440689FCFCB
:1011800046FF13C08081842787FD13C080916D01C5
:1011900010927201882329F0E0917001F0917101A1
:1011A0001082E0916701F0916801408394CF4F7BFA
:1011B00086CF80916D01882331F010926D011092DD
:1011C0007201408388CFE0917001F09171018091AC
:1011D00072018083DBCFCF93DF93EB011F9B03C0B2
:1011E000DF91CF9108956091FB027091FC02809194
:1011F000FD029091FE022AE030E040E050E00E94C3
:10120000573020936B01988181E080936901E091D0
:101210006701F091680180818062808350916A014A
:10122000590F50936A01943208F444C060916C01E4
:10123000662309F04EC0550F50936A0140814078F3
:101240004066446010926C01852F8459893108F002
:1012500062C04F7780916E01E0916701F091680163
:10126000481709F45DC080818F7B808340936E01B5
:1012700010926A0120811F9941C08091DC009091F9
:10128000DD0084FDADCF80E48093ED0080E090E050
:10129000A0ECB9E98093F0009093F100A093F200E4
:1012A000B093F3002093FA0081E48093EF00DF9184
:1012B000CF91089580916C018F5FA7E6B1E01596FC
:1012C0008C931597833009F08BCF80818F7B80833F
:1012D00087CF40814078406622E030E0261B31090C
:1012E00081E090E002C0880F991F2A95E2F78F7184
:1012F000482B633008F4A6CF4F7BA4CF8091DC004D
:101300009091DD0084FD6CCF80E48093ED0080E05F
:1013100090E0A0EEBECF5D5A5A31C8F440689ACF33
:1013200046FF13C08081842787FD13C080916D0123
:1013300010927201882329F0E0917001F0917101FF
:101340001082E0916701F091680140838FCF4F7B5D
:1013500081CF80916D01882331F010926D01109240
:101360007201408383CFE0917001F091710180910F
:1013700072018083DBCFCF93DF93EB011F9903C012
:10138000DF91CF9108956091FB027091FC028091F2
:10139000FD029091FE022AE030E040E050E00E9421
:1013A000573020936B01988181E080936901E0912F
:1013B0006701F091680180818062808350916A01A9
:1013C000590F50936A01943208F444C060916C0143
:1013D000662309F04EC0550F50936A014081407852
:1013E0004066446010926C01852F8459893108F061
:1013F00062C04F7780916E01E0916701F0916801C2
:10140000481709F45DC080818F7B808340936E0113
:1014100010926A0120811F9941C08091DC00909157
:10142000DD0084FDADCF80E48093ED0080E090E0AE
:10143000A0ECB9E98093F0009093F100A093F20042
:10144000B093F3002093FA0081E48093EF00DF91E2
:10145000CF91089580916C018F5FA7E6B1E015965A
:101460008C931597833009F08BCF80818F7B80839D
:1014700087CF40814078406622E030E0261B31096A
:1014800081E090E002C0880F991F2A95E2F78F71E2
:10149000482B633008F4A6CF4F7BA4CF8091DC00AB
:1014A0009091DD0084FD6CCF80E48093ED0080E0BE
:1014B00090E0A0EEBECF5D5A5A31C8F440689ACF92
:1014C00046FF13C08081842787FD13C080916D0182
:1014D00010927201882329F0E0917001F09171015E
:1014E0001082E0916701F091680140838FCF4F7BBC
:1014F00081CF80916D01882331F010926D0110929F
:101500007201408383CFE0917001F091710180916D
:1015100072018083DBCFF89428E088E190E00FB679
:10152000F894A895809360000FBE2093600000009F
:10153000FECF1F920F920FB60F9211242F933F935D
:101540004F935F936F937F938F939F93AF93BF93CB
:10155000EF93FF93E0918D03F0918E0380918B03C5
:1015600090918C030995FF91EF91BF91AF919F915D
:101570008F917F916F915F914F913F912F910F903C
:101580000FBE0F901F9018951F920F920FB60F92DB
:1015900011242F933F934F935F936F937F938F9378
:1015A0009F93AF93BF93EF93FF93E0918903F091E3
:1015B0008A0380918703909188030995FF91EF91A9
:1015C000BF91AF919F918F917F916F915F914F915B
:1015D0003F912F910F900FBE0F901F9018951F9263
:1015E0000F920FB60F9211242F933F934F935F9357
:1015F0006F937F938F939F93AF93BF93EF93FF93DB
:10160000E0918503F0918603809183039091840398
:101610000995FF91EF91BF91AF919F918F917F912C
:101620006F915F914F913F912F910F900FBE0F904F
:101630001F9018951F920F920FB60F9211242F939F
:101640003F934F935F936F937F938F939F93AF934A
:10165000BF93EF93FF93E0918103F0918203809118
:101660007F03909180030995FF91EF91BF91AF9116
:101670009F918F917F916F915F914F913F912F91AA
:101680000F900FBE0F901F9018951F920F920FB6DC
:101690000F9211242F933F934F935F936F937F93F8
:1016A0008F939F93AF93BF93EF93FF93E0917D034D
:1016B000F0917E0380917B0390917C030995FF91CB
:1016C000EF91BF91AF919F918F917F916F915F91BA
:1016D0004F913F912F910F900FBE0F901F90189533
:1016E0001F920F920FB60F9211242F933F934F9397
:1016F0005F936F937F938F939F93AF93BF93EF937A
:10170000FF93E0917903F0917A03809177039091B0
:1017100078030995FF91EF91BF91AF919F918F91C0
:101720007F916F915F914F913F912F910F900FBEDD
:101730000F901F9018951F920F920FB60F921124C1
:101740002F933F934F935F936F937F938F939F93C9
:10175000AF93BF93EF93FF93E0917503F0917603FE
:1017600080917303909174030995FF91EF91BF915C
:10177000AF919F918F917F916F915F914F913F9129
:101780002F910F900FBE0F901F9018951F920F92E0
:101790000FB60F9211242F933F934F935F936F9344
:1017A0007F938F939F93AF93BF93EF93FF93E091BA
:1017B0007103F091720380916F039091700309950A
:1017C000FF91EF91BF91AF919F918F917F916F9119
:1017D0005F914F913F912F910F900FBE0F901F90EF
:1017E00018951F920F920FB60F9211242F933F93CB
:1017F0004F935F936F937F938F939F93AF93BF9319
:10180000EF93FF93E0916D03F0916E0380916B0372
:1018100090916C030995FF91EF91BF91AF919F91CA
:101820008F917F916F915F914F913F912F910F9089
:101830000FBE0F901F9018951F920F920FB60F9228
:1018400011242F933F934F935F936F937F938F93C5
:101850009F93AF93BF93EF93FF93E0916903F09150
:101860006A0380916703909168030995FF91EF9156
:10187000BF91AF919F918F917F916F915F914F91A8
:101880003F912F910F900FBE0F901F9018951F92B0
:101890000F920FB60F9211242F933F934F935F93A4
:1018A0006F937F938F939F93AF93BF93EF93FF9328
:1018B000E0916503F0916603809163039091640366
:1018C0000995FF91EF91BF91AF919F918F917F917A
:1018D0006F915F914F913F912F910F900FBE0F909D
:1018E0001F9018951F920F920FB60F9211242F93ED
:1018F0003F934F935F936F937F938F939F93AF9398
:10190000BF93EF93FF93E0916103F09162038091A5
:101910005F03909160030995FF91EF91BF91AF91A3
:101920009F918F917F916F915F914F913F912F91F7
:101930000F900FBE0F901F9018951F920F920FB629
:101940000F9211242F933F934F935F936F937F9345
:101950008F939F93AF93BF93EF93FF93E0915D03BA
:10196000F0915E0380915B0390915C030995FF9178
:10197000EF91BF91AF919F918F917F916F915F9107
:101980004F913F912F910F900FBE0F901F90189580
:101990001F920F920FB60F9211242F933F934F93E4
:1019A0005F936F937F938F939F93AF93BF93EF93C7
:1019B000FF93E0915903F0915A038091570390915E
:1019C00058030995FF91EF91BF91AF919F918F912E
:1019D0007F916F915F914F913F912F910F900FBE2B
:1019E0000F901F9018951F920F920FB60F9211240F
:1019F0002F933F934F935F936F937F938F939F9317
:101A0000AF93BF93EF93FF93E0915503F09156038B
:101A100080915303909154030995FF91EF91BF91E9
:101A2000AF919F918F917F916F915F914F913F9176
:101A30002F910F900FBE0F901F9018951F920F922D
:101A40000FB60F9211242F933F934F935F936F9391
:101A50007F938F939F93AF93BF93EF93FF93E09107
:101A60005103F091520380914F03909150030995D7
:101A7000FF91EF91BF91AF919F918F917F916F9166
:101A80005F914F913F912F910F900FBE0F901F903C
:101A900018951F920F920FB60F9211242F933F9318
:101AA0004F935F936F937F938F939F93AF93BF9366
:101AB000EF93FF93E0914D03F0914E0380914B0320
:101AC00090914C030995FF91EF91BF91AF919F9138
:101AD0008F917F916F915F914F913F912F910F90D7
:101AE0000FBE0F901F9018951F920F920FB60F9276
:101AF00011242F933F934F935F936F937F938F9313
:101B00009F93AF93BF93EF93FF93E0914903F091BD
:101B10004A0380914703909148030995FF91EF9103
:101B2000BF91AF919F918F917F916F915F914F91F5
:101B30003F912F910F900FBE0F901F9018951F92FD
:101B40000F920FB60F9211242F933F934F935F93F1
:101B50006F937F938F939F93AF93BF93EF93FF9375
:101B6000E0914503F0914603809143039091440333
:101B70000995FF91EF91BF91AF919F918F917F91C7
:101B80006F915F914F913F912F910F900FBE0F90EA
:101B90001F9018951F920F920FB60F9211242F933A
:101BA0003F934F935F936F937F938F939F93AF93E5
:101BB000BF93EF93FF93E0914103F0914203809133
:101BC0003F03909140030995FF91EF91BF91AF9131
:101BD0009F918F917F916F915F914F913F912F9145
:101BE0000F900FBE0F901F9018951F920F920FB677
:101BF0000F9211242F933F934F935F936F937F9393
:101C00008F939F93AF93BF93EF93FF93E0913D0327
:101C1000F0913E0380913B0390913C030995FF9125
:101C2000EF91BF91AF919F918F917F916F915F9154
:101C30004F913F912F910F900FBE0F901F901895CD
:101C40001F920F920FB60F9211242F933F934F9331
:101C50005F936F937F938F939F93AF93BF93EF9314
:101C6000FF93E0913903F0913A038091370390910B
:101C700038030995FF91EF91BF91AF919F918F919B
:101C80007F916F915F914F913F912F910F900FBE78
:101C90000F901F9018951F920F920FB60F9211245C
:101CA0002F933F934F935F936F937F938F939F9364
:101CB000AF93BF93EF93FF93E0913503F091360319
:101CC00080913303909134030995FF91EF91BF9177
:101CD000AF919F918F917F916F915F914F913F91C4
:101CE0002F910F900FBE0F901F9018951F920F927B
:101CF0000FB60F9211242F933F934F935F936F93DF
:101D00007F938F939F93AF93BF93EF93FF93E09154
:101D10003103F091320380912F03909130030995A4
:101D2000FF91EF91BF91AF919F918F917F916F91B3
:101D30005F914F913F912F910F900FBE0F901F9089
:101D400018951F920F920FB60F9211242F933F9365
:101D50004F935F936F937F938F939F93AF93BF93B3
:101D6000EF93FF93E0912D03F0912E0380912B03CD
:101D700090912C030995FF91EF91BF91AF919F91A5
:101D80008F917F916F915F914F913F912F910F9024
:101D90000FBE0F901F9018951F920F920FB60F92C3
:101DA00011242F933F934F935F936F937F938F9360
:101DB0009F93AF93BF93EF93FF93E0912903F0912B
:101DC0002A0380912703909128030995FF91EF91B1
:101DD000BF91AF919F918F917F916F915F914F9143
:101DE0003F912F910F900FBE0F901F9018951F924B
:101DF0000F920FB60F9211242F933F934F935F933F
:101E00006F937F938F939F93AF93BF93EF93FF93C2
:101E1000E0912503F0912603809123039091240300
:101E20000995FF91EF91BF91AF919F918F917F9114
:101E30006F915F914F913F912F910F900FBE0F9037
:101E40001F9018951F920F920FB60F9211242F9387
:101E50003F934F935F936F937F938F939F93AF9332
:101E6000BF93EF93FF93E0912103F09122038091C0
:101E70001F03909120030995FF91EF91BF91AF91BE
:101E80009F918F917F916F915F914F913F912F9192
:101E90000F900FBE0F901F9018951F920F920FB6C4
:101EA0000F9211242F933F934F935F936F937F93E0
:101EB0008F939F93AF93BF93EF93FF93E0911D0395
:101EC000F0911E0380911B0390911C030995FF91D3
:101ED000EF91BF91AF919F918F917F916F915F91A2
:101EE0004F913F912F910F900FBE0F901F9018951B
:101EF0001F920F920FB60F9211242F933F934F937F
:101F00005F936F937F938F939F93AF93BF93EF9361
:101F1000FF93E0911903F0911A03809117039091B8
:101F200018030995FF91EF91BF91AF919F918F9108
:101F30007F916F915F914F913F912F910F900FBEC5
:101F40000F901F9018951F920F920FB60F921124A9
:101F50002F933F934F935F936F937F938F939F93B1
:101F6000AF93BF93EF93FF93E0911503F0911603A6
:101F700080911303909114030995FF91EF91BF9104
:101F8000AF919F918F917F916F915F914F913F9111
:101F90002F910F900FBE0F901F9018951F920F92C8
:101FA0000FB60F9211242F933F934F935F936F932C
:101FB0007F938F939F93AF93BF93EF93FF93E091A2
:101FC0001103F091120380910F0390911003099572
:101FD000FF91EF91BF91AF919F918F917F916F9101
:101FE0005F914F913F912F910F900FBE0F901F90D7
:101FF00018951F920F920FB60F9211242F933F93B3
:102000004F935F936F937F938F939F93AF93BF9300
:10201000EF93FF93E0910D03F0910E0380910B037A
:1020200090910C030995FF91EF91BF91AF919F9112
:102030008F917F916F915F914F913F912F910F9071
:102040000FBE0F901F9018951F920F920FB60F9210
:1020500011242F933F934F935F936F937F938F93AD
:102060009F93AF93BF93EF93FF93E0910903F09198
:102070000A0380910703909108030995FF91EF915E
:10208000BF91AF919F918F917F916F915F914F9190
:102090003F912F910F900FBE0F901F9018951F9298
:1020A0000F920FB60F9211242F933F934F935F938C
:1020B0006F937F938F939F93AF93BF93EF93FF9310
:1020C000E0910503F09106038091030390910403CE
:1020D0000995FF91EF91BF91AF919F918F917F9162
:1020E0006F915F914F913F912F910F900FBE0F9085
:1020F0001F9018951F920F920FB60F9211242F93D5
:102100003F934F935F936F937F938F939F93AF937F
:10211000BF93EF93FF93E0910103F091020380914D
:10212000FF02909100030995FF91EF91BF91AF914C
:102130009F918F917F916F915F914F913F912F91DF
:102140000F900FBE0F901F9018958F929F92AF9295
:10215000BF92CF92DF92EF92FF920F931F93CF9394
:10216000DF937C01DC011596ED91FC91169780813F
:102170002181813209F448C28232D0F0813309F4DE
:102180006DC2823308F4A3C1833309F471C283336F
:1021900008F088C282E3F701858B0584F685E02D7F
:1021A00082E0922F2FB7F894918380832FBFE7C1ED
:1021B000813109F429C2823108F0A9C1833009F4C0
:1021C00057C2843009F412C2882309F0D8C1E7014C
:1021D0008D89813209F4C4C5823208F467C2813323
:1021E00009F463C4823309F45CC4823209F0C7C1C4
:1021F000E701EF81F8852FB7F894808191812FBF97
:10220000D82E092F488159816A817B81DB01CA015F
:1022100087709070A070B0700097A105B105A9F407
:10222000DB01CA010197A109B1099F704150487FA4
:1022300082EC692F20E00E94E20188E799E601978D
:10224000F1F7488159816A817B81477081EC60E0B8
:10225000202F0E94E201E70188819981AA81BB8138
:102260008C019D010F5F1F4F2F4F3F4F0883198334
:102270002A833B83B901A801477050706070707069
:10228000411551056105710589F4692F6F70402F63
:102290004150487F82EC20E00E94E20188E799E605
:1022A0000197F1F7088119812A813B81402F4770FE
:1022B00081EC60E02D2D0E94E201E7018881998187
:1022C000AA81BB810196A11DB11D88839983AA8330
:1022D000BB83E985FA852FB7F894808191812FBF60
:1022E000D82E092F488159816A817B81DB01CA017F
:1022F00087709070A070B0700097A105B105A9F427
:10230000DB01CA010197A109B1099F704150487FC3
:1023100082EC692F20E00E94E20188E799E60197AC
:10232000F1F7488159816A817B81477081EC60E0D7
:10233000202F0E94E201F70180819181A281B38167
:102340008C019D010F5F1F4F2F4F3F4FE70100830F
:10235000118322833383B901A801477050706070E4
:102360007070411551056105710589F4692F6F7011
:10237000402F4150487F82EC20E00E94E20188E734
:1023800099E60197F1F7088119812A813B81402F55
:10239000477081EC60E02D2D0E94E201E701888109
:1023A0009981AA81BB810196A11DB11D8883998362
:1023B000AA83BB83EB85FC852FB7F894808191813C
:1023C0002FBFD82E092F488159816A817B81DB017B
:1023D000CA0187709070A070B0700097A105B10518
:1023E000A9F4DB01CA010197A109B1099F7041500D
:1023F000487F82EC692F20E00E94E20188E799E69D
:102400000197F1F7488159816A817B81477081EC9E
:1024100060E0202F0E94E201F70180819181A2817A
:10242000B3818C019D010F5F1F4F2F4F3F4FE7017D
:102430000083118322833383B901A8014770507050
:1024400060707070411551056105710589F4692F3F
:102450006F70402F4150487F82EC20E00E94E201E3
:1024600088E799E60197F1F7088119812A813B8174
:10247000402F477081EC60E02D2D0E94E201E701C2
:1024800088819981AA81BB818C019D010F5F1F4FBB
:102490002F4F3F4FF701088319832A833B834E89CF
:1024A0005F89688D798D041715072607370708F4AB
:1024B000E0C2692F6F70402F4150487F82EC20E0CE
:1024C0000E94E20188E799E60197F1F7DFC28332C3
:1024D00009F4CEC0833208F45FC0843209F04FC0E3
:1024E000E701488159816A817B81DB01CA0101973B
:1024F000A109B1099F704150487F82EC692F20E00B
:102500000E94E20188E799E60197F1F749C083311B
:1025100009F4AEC0833108F041C082E1F701858B38
:102520000780F085E02D8FB7F894408151818FBFEF
:10253000D7011996ED91FC911A978FB7F8942081E5
:1025400031818FBFE701EB85FC856FB7F8948081FF
:1025500091816FBF588349833A831B822E8B9F8B57
:10256000888F198EED85FE85AD81BE8182E0119642
:102570009C9111972FB7F894918380832FBFDF919F
:10258000CF911F910F91FF90EF90DF90CF90BF9070
:10259000AF909F908F90089582E2C0CF843179F7F9
:1025A000F701408151816281738141505040604008
:1025B00070408A019B01A9E03695279517950795EC
:1025C000AA95D1F7769567955795479540788CE40D
:1025D000602F20E00E94E2018CEB94E30197F1F779
:1025E000D7011596ED91FC9116972181E701ED85B4
:1025F000FE8584E0922F2FB7F894918380832FBFBC
:1026000024982C9A0E948B0AF701858B0780F0850D
:10261000E02D8FB7F894408151818FBFD701199673
:10262000ED91FC911A978FB7F894208131818FBF7B
:10263000E701EB85FC856FB7F894808191816FBFCE
:10264000588349833A831B822E8B9F8B888F198EE8
:10265000ED85FE85AD81BE8181E089CFD70155969C
:102660008C9355971D96ED91FC911E9781E099CD25
:10267000E701ED85FE8583E0922F2FB7F8949183D3
:1026800080832FBF8CEA60E840E020E00E94E201F6
:1026900088E799E60197F1F7ED85FE85AD81BE816A
:1026A00080E065CF843309F06ACFA0CF813109F48F
:1026B0002CC2823109F063CFEF81F8852FB7F894EF
:1026C000808191812FBF6C01E701088119812A81E6
:1026D0003B81D901C8018F779070A070B0700097CE
:1026E000A105B10509F501501040204030404801D6
:1026F000590149E0B694A794979487944A95D1F7E5
:10270000B901A801769567955795479540788CE46F
:10271000682D20E00E94E2018CEB94E30197F1F731
:10272000088119812A813B81802F8170880F880F51
:10273000880F3695279517950795806460E0402FA0
:102740002D2D0E94E201D7010D911D912D913C91FB
:10275000B901A8014F5F5F4F6F4F7F4FE70148837B
:1027600059836A837B83DB01CA018F779070A070E5
:10277000B0700097A105B105E9F448015901A9E03D
:10278000B694A79497948794AA95D1F7B901A80114
:10279000769567955795479540788CE4682D20E0AD
:1027A0000E94E2018CEB94E30197F1F74881598193
:1027B0006A817B81842F8170880F880F880F8A013E
:1027C0009B013695279517950795806460E0402F0B
:1027D0002C2D0E94E201E70188819981AA81BB81A9
:1027E0000196A11DB11D88839983AA83BB83E985C6
:1027F000FA852FB7F894808191812FBF6C010881F1
:1028000019812A813B81D901C8018F779070A0700E
:10281000B0700097A105B10509F5015010402040A6
:1028200030404801590149E0B694A79497948794A1
:102830004A95D1F7B901A8017695679557954795BF
:1028400040788CE4682D20E00E94E2018CEB94E358
:102850000197F1F7088119812A813B81802F8170CE
:10286000880F880F880F36952795179507958064F0
:1028700060E0402F2D2D0E94E201F70100811181BF
:1028800022813381B901A8014F5F5F4F6F4F7F4FA6
:102890004083518362837383DB01CA018F77907019
:1028A000A070B0700097A105B105F1F4480159017D
:1028B000A9E0B694A79497948794AA95D1F7B90103
:1028C000A801769567955795479540788CE4682DD3
:1028D00020E00E94E2018CEB94E30197F1F7E7011D
:1028E000488159816A817B81842F8170880F880F8C
:1028F000880F8A019B013695279517950795806467
:1029000060E0402F2C2D0E94E201F701808191812F
:10291000A281B3810196A11DB11DE701808391833E
:10292000A283B3830384F485E02D2FB7F8948081CC
:1029300091812FBF6C01088119812A813B81D901C6
:10294000C8018F779070A070B0700097A105B10595
:1029500009F501501040204030404801590149E03C
:10296000B694A794979487944A95D1F7B901A80192
:10297000769567955795479540788CE4682D20E0CB
:102980000E94E2018CEB94E30197F1F70881198131
:102990002A813B81802F8170880F880F880F3695A0
:1029A000279517950795806460E0402F2D2D0E9494
:1029B000E201E701088119812A813B81B901A8015F
:1029C0004F5F5F4F6F4F7F4F488359836A837B838D
:1029D000DB01CA018F779070A070B0700097A105DD
:1029E000B105E9F448015901B9E0B694A794979468
:1029F0008794BA95D1F7B901A8017695679557954F
:102A0000479540788CE4682D20E00E94E2018CEB31
:102A100094E30197F1F7488159816A817B81842F82
:102A20008170880F880F880F8A019B013695279542
:102A300017950795806460E0402F2C2D0E94E201DD
:102A4000E701488159816A817B81DB01CA010196D6
:102A5000A11DB11DF70188839983AA83BB830E89C9
:102A60001F89288D398D80179107A207B30708F0B9
:102A700000C2A585B6850580F681E02D82E09181B2
:102A80002FB7F89411969C938E932FBFD7011D9664
:102A9000ED91FC911E9715960D90BC91A02D80E0B4
:102AA00066CDED85FE8580E07CCB0F84D889C02D76
:102AB00088E568E040E020E00E94E201082F80E520
:102AC00060E040E020E00E94E201202F382F8FB725
:102AD000F894398328838FBFD7015196CD91DC912B
:102AE000529780E568E040E020E00E94E20120E0AB
:102AF000382F8FB7F894398328838FBFE701ED858E
:102B0000FE85AD81BE8180E032CDF7010F84D8898A
:102B1000C02D0081118122813381802F8170880F27
:102B2000880F880FB901A801B9E076956795579588
:102B30004795BA95D1F736952795179507958062F1
:102B4000642F402F20E00E94E201D82ED7010D9182
:102B50001D912D913C910F5F1F4F2F4F3F4FF7015C
:102B60000083118322833383802F8170880F880F25
:102B7000880FB901A80199E0769567955795479513
:102B80009A95D1F736952795179507958062642F0A
:102B9000402F20E00E94E201D7014D915D916D919F
:102BA0007C9113974F5F5F4F6F4F7F4FF7014083CB
:102BB000518362837383282F3D2D8FB7F894398317
:102BC00028838FBF5196CD91DC9152970D911D9125
:102BD0002D913C91802F8170880F880F880FB9014B
:102BE000A80199E076956795579547959A95D1F7FD
:102BF00036952795179507958062642F402F20E022
:102C00000E94E201D82EF7010081118122813381D7
:102C10000F5F1F4F2F4F3F4F00831183228333835A
:102C2000802F8170880F880F880FB901A80199E063
:102C300076956795579547959A95D1F73695279547
:102C4000179507958062642F402F20E00E94E201D3
:102C5000F70140815181628173814F5F5F4F6F4FF8
:102C60007F4F4083518362837383282F3D2D8FB71D
:102C7000F894398328838FBFC389D4890081118157
:102C800022813381802F8170880F880F880FB901CE
:102C9000A80199E076956795579547959A95D1F74C
:102CA00036952795179507958062642F402F20E071
:102CB0000E94E201D82ED7010D911D912D913C91DA
:102CC0000F5F1F4F2F4F3F4FF70100831183228368
:102CD0003383802F8170880F880F880FB901A80176
:102CE00099E076956795579547959A95D1F73695DA
:102CF0002795179507958062642F402F20E00E944A
:102D0000E201D7014D915D916D917C9113974F5FD9
:102D10005F4F6F4F7F4FF70140835183628373830F
:102D2000282F3D2D8FB7F894398328838FBF4D917D
:102D30005D916D917C91139756968D919D910D901B
:102D4000BC91A02D84179507A607B70708F49ECE5F
:102D5000E7010584F685E02DAD81BE8181E007CCD9
:102D6000F7010F84D889C02D40816181677080EAA6
:102D700020E00E94E201D82ED7010D911D912D91E6
:102D80003C910F5F1F4F2F4F3F4FF701008311837F
:102D900022833383612F677080EA402F20E00E94F6
:102DA000E201D7014D915D916D917C9113974F5F39
:102DB0005F4F6F4F7F4FF70140835183628373836F
:102DC000282F3D2D8FB7F894398328838FBF5196D4
:102DD000CD91DC9152974C9111966C91677080EA7D
:102DE00020E00E94E201D82EF701008111812281AA
:102DF00033810F5F1F4F2F4F3F4F0083118322837B
:102E00003383612F677080EA402F20E00E94E20147
:102E1000F70140815181628173814F5F5F4F6F4F36
:102E20007F4F4083518362837383282F3D2D8FB75B
:102E3000F894398328838FBFC389D4894081618105
:102E4000677080EA20E00E94E201D82ED7010D9140
:102E50001D912D913C9113970F5F1F4F2F4F3F4FA7
:102E6000F7010083118322833383612F677080EA27
:102E700044CF8A019B01E9E0369527951795079580
:102E8000EA95D1F7769567955795479540788CE404
:102E9000602F20E00E94E2018CEB94E30197F1F7B0
:102EA000F5CD0E94A51008958F929F92AF92BF9288
:102EB000CF92DF92EF92FF920F931F93CF93DF9306
:102EC00000D000D000D0CDB7DEB77C01FC0120815E
:102ED000213009F447C0293009F444C0022F10E022
:102EE000000F111F000F111F005E1F4FC8016481EA
:102EF0002E830E94D73148010894811C911CC40183
:102F0000F70163810E94D73172E0A72EB12CA00E89
:102F1000B11EC501F70162810E94D731A3E0CA2E1C
:102F2000D12CC00ED11EC601F70161810E94D7319C
:102F30002E812983C6010E94C9318A83C5010E945E
:102F4000C9318B83C4010E94C9318C83C8010E949E
:102F5000C9318D831F9906C08091DC009091DD00FE
:102F600084FF13C026960FB6F894DEBF0FBECDBF08
:102F7000DF91CF911F910F91FF90EF90DF90CF9055
:102F8000BF90AF909F908F90089580E48093ED0064
:102F900080E090E0A0E6B2E68093F0009093F1002C
:102FA000A093F200B093F30089818093FA008A81A4
:102FB0008093FA008B818093FA008C818093FA00D1
:102FC0008D818093FA0085E48093EF00CBCFCB0115
:102FD0000E94541708950F931F93CF93DF9300D04F
:102FE00000D00F92CDB7DEB7FC0180811F9928C0B9
:102FF000813031F1893021F1082F10E0000F111FCD
:10300000000F111F005E1F4F8983C80103960E94A5
:10301000C9318A83C80102960E94C9318B83C801D5
:1030200001960E94C9318C83C8010E94C9318D83E9
:103030001F9906C08091DC009091DD0084FF0AC0DA
:103040000F900F900F900F900F90DF91CF911F91E5
:103050000F91089580E48093ED0080E090E0A0E679
:10306000B2E68093F0009093F100A093F200B09349
:10307000F30089818093FA008A818093FA008B8122
:103080008093FA008C818093FA008D818093FA00FE
:1030900085E48093EF00D4CFCB010E94EB17089515
:1030A000CF93DF9300D000D00F92CDB7DEB7209141
:1030B0000B0230910C02243051F0203141F00F907E
:1030C0000F900F900F900F90DF91CF9108953530B2
:1030D00099F1363009F4CDC03D3009F480C03E305E
:1030E00009F457C0333059F7203149F780ED89830F
:1030F00099B181E094FF80E087958827879590912A
:103100007102892B8A838091C8008B838091C900CA
:103110008C838091CA008D831F9BD2C08091DC007C
:103120009091DD0084FDCBCF80E48093ED0080E0C2
:1031300090E0A0E8B6EC78C082E091E0FC01549108
:1031400039964491DE011196FD0111923A95E9F705
:103150000396FC0184918A83852F90E0841B91095A
:10316000541B592B5D83243009F480C0203109F0B1
:10317000A6CF1F9997C08091DC009091DD0084FD5F
:103180009ECF80E48093ED0080E090E0A0E6B6EC76
:103190004BC01F9B94CF80ED898387E790E00E940E
:1031A000C9318A8386E790E00E94C9318B8385E725
:1031B00090E00E94C9318C8384E790E00E94C9317D
:1031C0008D838091DC009091DD0084FD78CF80E4D8
:1031D0008093ED0080E090E0A0E0BAE925C01F995F
:1031E0006ECF80ED898387E790E00E94C9318A83A2
:1031F00086E790E00E94C9318B8385E790E00E94CA
:10320000C9318C8384E790E00E94C9318D8380911D
:10321000DC009091DD0084FD52CF80E48093ED00CE
:1032200080E090E0A0E0B8E98093F0009093F10096
:10323000A093F200B093F30089818093FA008A8111
:103240008093FA008B818093FA008C818093FA003E
:103250008D818093FA0085E48093EF000F900F90AA
:103260000F900F900F90DF91CF9108951F99A9CFE4
:10327000CECF84E790E0609110020E94D73185E7BD
:1032800090E060910F020E94D73186E790E0609154
:103290000E020E94D73187E790E060910D020E94F4
:1032A000D7310DCF8091DC009091DD0084FD07CFF8
:1032B00080E48093ED0080E090E0A0E8B6ECB4CF2D
:1032C0008091DC009091DD0084FDF9CE80E4809354
:1032D000ED0080E090E0A0E6B6ECA6CFCB010E9426
:1032E000501808958091A30186FF09C08F7385321D
:1032F00009F44FC0863220F4813209F48EC008955B
:10330000873209F4CEC08932D1F72FB7F8943FB78E
:10331000F89480918E0290918F02916090938F0229
:1033200080938E023FBF2FBFE2EBF2E006C03996DA
:1033300082E0EA3FF80709F4F8C09FB7F894808567
:10334000282F267011F4846080879FBF208522FF7C
:10335000EECF8091FB029091FC02A091FD02B09112
:10336000FE0288519C4FAF4FBF4F868397838A2FB1
:1033700081702E7F282B118210828AE491E0938342
:10338000828388E090E09583848322602B7F20876E
:1033900008952FB7F8943FB7F89480918E029091DA
:1033A0008F02946090938F0280938E023FBF2FBF55
:1033B000E2EBF2E006C0399682E0EA3FF80709F452
:1033C000B6C09FB7F8948085282F267011F48460CA
:1033D00080879FBF208522FFEECF8091FB029091D6
:1033E000FC02A091FD02B091FE0288519C4FAF4FAC
:1033F000BF4F868397838A2F81702E7F282B11825F
:1034000010828AE491E0938382838AE090E095833E
:10341000848322602B7F208708952FB7F8943FB7CD
:10342000F89480918E0290918F02926090938F0217
:1034300080938E023FBF2FBFE2EBF2E006C03996C9
:1034400082E0EA3FF80709F471C09FB7F8948085DD
:10345000282F267011F4846080879FBF208522FF6B
:10346000EECF8091FB029091FC02A091FD02B09101
:10347000FE0288519C4FAF4FBF4F868397838A2FA0
:1034800081702E7F282B118210828AE491E0938331
:10349000828389E090E09583848322602B7F20875C
:1034A00008952FB7F8943FB7F89480918E029091C9
:1034B0008F02986090938F0280938E023FBF2FBF40
:1034C000E2EBF2E006C0399682E0EA3FF80709F441
:1034D00016CF9FB7F8948085282F267011F484604A
:1034E00080879FBF208522FFEECF8091FB029091C5
:1034F000FC02A091FD02B091FE0288519C4FAF4F9B
:10350000BF4F868397838A2F81702E7F282B11824D
:1035100010828AE491E0938382838BE090E095832C
:10352000848322602B7F208708950895089508954D
:10353000CB010E94721908951F93CF93DF93EB0183
:103540000E94C931182FCE010E94C93187FD15C0D4
:103550008F77412F50E09A01220F331F440F551FE0
:10356000440F551F440F551F240F351F280F311DC1
:10357000C901DF91CF911F910895412F50E09A0129
:10358000220F331F440F551F440F551F440F551F63
:10359000240F351F8F77281B3109C901DF91CF9187
:1035A0001F9108958091F30185FD75C08474843462
:1035B00009F071C040E050E060E070E04091F60139
:1035C0005091F7018091F801682F87FD7FEF80917E
:1035D0002A01882351F010922A014093020150934E
:1035E00003016093040170930501A1E0A0936601BB
:1035F000E0912201F0E0EE0FFF1FE05FFE4F01902F
:10360000F081E02D22853385832F881F8827881F2E
:1036100090E0220F331F822B932B8F3F9105C1F136
:10362000B8F18091020190910301A0910401B09141
:103630000501481B590B6A0B7B0B9A0157FD30C0E3
:10364000E1E0253F3E0744F510920B0121E0473EA3
:103650003FEF53073FEF63073FEF73070CF420E0A2
:10366000209306014A31510561057105A4F0759555
:10367000679557954795480F591F6A1F7B1F4093C1
:1036800002015093030160930401709305010895B2
:10369000E0E0F1E0A683089581E080930B010895B6
:1036A000309521953F4FCCCFCB010E94D21A08957F
:1036B000FC01828180935B02818180935C02238183
:1036C000822F90E0807C9070959587959595879551
:1036D00090819F74982B90935D02822F8F709091B0
:1036E0005F02892B80935F02848180936002358121
:1036F000832F90E02091930220783072232BDC01FD
:10370000AF70B070A55DBE4F3C91232B807C907054
:10371000009741F520939302908181E095FD80E030
:1037200080930C0181E080930D01868181FD19C099
:10373000878186FD16C08091FB029091FC02A091CA
:10374000FD02B091FE0281362AEE920720E0A20728
:1037500020E0B20730F080912701882311F00E9409
:103760008B0A08952068A2EBB2E005C0199682E0AA
:10377000AA3FB80779F29FB7F89418968C911897DA
:10378000382F367021F4846018968C9318979FBF59
:1037900018968C91189782FFE9CF4091FB025091C7
:1037A000FC026091FD027091FE0248515C4F6F4F28
:1037B0007F4F16964C93169717965C931797962FF4
:1037C0009170382F3E7F392B11961C921E9284E601
:1037D00091E013969C938E93129715961C921E92CD
:1037E000149732603B7F18963C93189793CF1F999C
:1037F0000895CB010E94581B08951F9B0895CB018B
:103800000E94581B08950F931F93CF93DF9300914D
:103810008A0210918B02812F912F17FF03C021E0A4
:1038200020936C0296FD25C095FD23C0E091100108
:10383000F09111018081918190939702809396027B
:10384000E0911201F0911301808191819093950292
:103850008093940280912701882309F426C1FEE019
:103860000E3F1F0709F481C0DF91CF911F910F9187
:10387000089590912701992361F01092270190916A
:103880006E009D7F90936E0090916F009D7F90934E
:103890006F0086FF3BC065E071E0FB0194913196BB
:1038A0002491592F40E030E0242B352B30939B029C
:1038B00020939A02FB0132969491FB013396249156
:1038C000592F40E030E0242B352B30939902209380
:1038D0009802FB013496A591B4914B2F50E03A2FFA
:1038E00020E0242B352B30939702209396026A5FB9
:1038F0007F4FFB0165917491272F30E0562F40E0F8
:10390000242B352B309395022093940285FFA7CF6B
:10391000E801D070CC0FDD1FCC0FDD1FCC0FDD1FF9
:10392000CE010E94D13190939A0280939B02CE01E6
:1039300002960E94D13190939802E8E9F2E08183E7
:10394000CE0104960E94D131909396028093970203
:10395000CE0106960E94D1319093940280939502F5
:10396000FEE00E3F1F0709F07FCF809127018823DB
:1039700009F0B4C08AE190E00E949A30DC012398FB
:103980002B9A229A219A209A8CB580658CBD8CB591
:103990009DB58C7F9E7F81609DBD8CBD14961C92D1
:1039A000149743E052E020E63AEE7CEA63E5249A7D
:1039B0002C98852F8A95F1F72C9A852F8A95F1F707
:1039C0002C98C9010197F1F77EBD0DB407FEFDCF1C
:1039D0006EBD0DB407FEFDCF1EBC0DB407FEFDCFBE
:1039E0008EB51EBC0DB407FEFDCF833509F483C030
:1039F0004150E9F614964C9114978AE892E0169695
:103A00009C938E9315979C012250304018963C93BE
:103A10002E9317979C01245030401A963C932E9376
:103A200019979C01265030401C963C932E931B976F
:103A30009C01205F3F4F1E963C932E931D979C0147
:103A4000225F3F4F50963C932E931F979C01245F1B
:103A50003F4F52963C932E9351970A9654969C93BF
:103A60008E935397442309F07FC020E2822F9091D8
:103A70008B022FB7F89490939B0280939A022FBFEA
:103A8000E8E8F1E0E491F0E0EE0FFF1FEE0FFF1F1A
:103A9000EA58FD4FB0A7A7A381E597E192A781A7B8
:103AA000DF91CF911F910F91089581E080932701BD
:103AB00016BCA99A80916E00826080936E0010926D
:103AC000850010928400B19A80916F00826080938B
:103AD0006F0000918A0210918B02C1CE10922701D3
:103AE00080916E008D7F80936E0080916F008D7F3E
:103AF00080936F003FCF81E014968C9314978AE8EF
:103B000092E016969C938E9315979C01225030401C
:103B100018963C932E9317979C01245030401A9688
:103B20003C932E9319979C01265030401C963C9351
:103B30002E931B979C01205F3F4F1E963C932E9324
:103B40001D979C01225F3F4F50963C932E931F97E9
:103B50009C01245F3F4F52963C932E9351970A96B7
:103B600054969C938E93539720E080CF0E94031C21
:103B70000895CF93DF93CDB7DEB761970FB6F89472
:103B8000DEBF0FBECDBF88E891E0FC012491E22F9B
:103B9000F0E0EE0FFF1FEE0FFF1FEA58FD4F10A6DB
:103BA00017A226EB3DE132A721A7FC013497E4914F
:103BB000F0E0EE0FFF1FEE0FFF1FEA58FD4F10A6BB
:103BC00017A22FEF34E032A721A7FC013597E4912B
:103BD000F0E0EE0FFF1FEE0FFF1FEA58FD4F10A69B
:103BE00017A228E335E032A721A70797FC018491AB
:103BF000E82FF0E0EE0FFF1FEE0FFF1FEA58FD4F1A
:103C000082E691E090A787A384E494E292A781A73B
:103C1000109214021092130287EE97E1909316020D
:103C200080931502109218021092170290931A02B4
:103C30008093190210921C0210921B0290931E0294
:103C400080931D021092200210921F028CE498E1D2
:103C50009093220280932102109224021092230258
:103C600084E59BE19093260280932502109228021E
:103C7000109227028EE699E190932A0280932902FE
:103C800010922C0210922B0287EF9BE190932E0250
:103C900080932D021092300210922F028DEF9BE143
:103CA00090933202809331021092340210923302C8
:103CB00084E791E090933602809335021092580287
:103CC0001092570288E99AE190935A028093590220
:103CD00010923802109237028BE597E090933A02E7
:103CE0008093390210924802109247028BEE98E0BE
:103CF00090934A028093490210923C0210923B0238
:103D00008AED94E090933E0280933D0210924C0223
:103D100010924B028DE394E090934E0280934D02FB
:103D20001092400210923F0283E298E09093420288
:103D3000809341021092500210924F028BEB99E057
:103D400090935202809351021092440210924302C7
:103D500083E195E0909346028093450210925402CD
:103D60001092530285E694E0909356028093550298
:103D7000809127018823A1F481E08093270116BC5C
:103D8000A99A80916E00826080936E0010928500E7
:103D900010928400B19A80916F00826080936F00CE
:103DA000789482E091E0FC01349139962491FE01EF
:103DB000319645E0DF011D924A95E9F70396FC0133
:103DC00084918A83832F90E0821B9109321B392BC7
:103DD0003D831F9938C08091DC009091DD0084FD07
:103DE00021C080E48093ED0080E090E0A0E0B8E99D
:103DF0008093F0009093F100A093F200B093F30051
:103E000089818093FA008A818093FA008B81809364
:103E1000FA008C818093FA008D818093FA0085E40A
:103E20008093EF0080E395E70197F1F78091DC0044
:103E30009091DD0084FD59C080E48093ED0080E026
:103E400090E0A0E637C08091DC009091DD0084FD19
:103E500021C080E48093ED0080E090E0A0E0BAE92A
:103E60008093F0009093F100A093F200B093F300E0
:103E700089818093FA008A818093FA008B818093F4
:103E8000FA008C818093FA008D818093FA0085E49A
:103E90008093EF0080E395E70197F1F78091DC00D4
:103EA0009091DD0084FD21C080E48093ED0080E0EE
:103EB00090E0A0E8B6EC8093F0009093F100A0931E
:103EC000F200B093F30089818093FA008A81809395
:103ED000FA008B818093FA008C818093FA008D81A7
:103EE0008093FA0085E48093EF001D861C8686E2AD
:103EF00097E0682F9F878E87198A188A40E05D8532
:103F00007F8580E0998920E137E20E9410021F82BC
:103F10001E8281E196E0682F998788871B861A8622
:103F200040E05F81798580E09B8528EB3BE00E9443
:103F3000100283B121E030E085FD02C020E030E0D6
:103F40008091950990E0822B932B8093950900979F
:103F500029F083B185FD02C00E948B0A3FB7F89417
:103F60009091900980919109981709F469C0809106
:103F7000900990E0DC01AA0FBB1FA80FB91FAA0F80
:103F8000BB1FA057BC4F8D919C9111971296ED913C
:103F9000FC91139714966C91149715967C91159734
:103FA000209190092F5F2093900920919209215030
:103FB000209392093FBF3091920920918F032317DC
:103FC00020F42091920920938F03309709F00995EE
:103FD000A89502EB12E006C0075F1F4FF2E00A3F10
:103FE0001F0761F1D80118968C91189781FFF4CFC3
:103FF00081709091FD029170891771F716962D913D
:104000003C9117978091FB029091FC022817390789
:1040100018F714966D917C9115971296ED91FC917D
:1040200013978D919C910995F80180858D7F8087EC
:10403000075F1F4FF2E00A3F1F07A1F6A89579CF4F
:1040400060E070E0E8E4F1E080E090E0B3CFAC0144
:10405000FC01E056FF4F88519F4F28E431E0118268
:104060001082338322833496E817F907C1F78091D1
:10407000D80081608093D800E2EEF0E08091E20009
:1040800081788A608093E2008091E3008E60818372
:104090008091E40081788B6482838091ED008F7041
:1040A0008093ED0088E08093EF0085E090E0A0EE43
:1040B000BFEF8093F4009093F500A093F600B093C7
:1040C000F7008091ED008F7080618093ED0088E0B3
:1040D0008093EF0085E08093F4009093F500A09327
:1040E000F600B093F7008091ED008F7080628093AE
:1040F000ED0087E08093EF0080E0B3E68093F0006E
:104100009093F100A093F200B093F30085E0BFEF2D
:104110008093F4009093F500A093F600B093F7001D
:104120008091ED008F7080638093ED0088E0809334
:10413000EF0080E0A0ECB3E68093F0009093F100F4
:10414000A093F200B093F30085E0A0EEBFEF809360
:10415000F4009093F500A093F600B093F7008091DF
:10416000ED008F7080648093ED0088E08093EF0015
:1041700085E08093F4009093F500A093F600B0934F
:10418000F7008091ED008F7080658093ED0088ECE2
:104190008093EF0080E0A0E0B9E08093F00090937E
:1041A000F100A093F200B093F30085E0A0EEBFEF22
:1041B0008093F4009093F500A093F600B093F7007D
:1041C0008091ED008F7080668093ED0088E8809389
:1041D000EF0080E0A0E0BAE08093F0009093F1005F
:1041E000A093F200B093F30085E0A0EABFEF8093C4
:1041F000F4009093F500A093F600B093F70080913F
:10420000ED008F7080678093ED0088E88093EF0069
:1042100080E0A0E0BBE08093F0009093F100A093D9
:10422000F200B093F30085E0A0EABFEF8093F400C2
:104230009093F500A093F600B093F7008091ED0005
:104240008F7080688093ED0088E88093EF0080E0B5
:10425000A0E0BEE08093F0009093F100A093F20004
:10426000B093F30085E0A0EEBDEF8093F40090934F
:10427000F500A093F600B093F7008091ED008F70E9
:1042800080698093ED0088E88093EF0080E0A0E0F3
:10429000B0E18093F0009093F100A093F200B0930E
:1042A000F30085E0A0E6BFEF8093F4009093F50063
:1042B000A093F600B093F7008091ED008F70806AB4
:1042C0008093ED0088E88093EF0080E0A0E2B0E109
:1042D0008093F0009093F100A093F200B093F3006C
:1042E00085E0A0E6BFEF8093F4009093F500A093E3
:1042F000F600B093F7008091ED008F70806B809393
:10430000ED0088EC8093EF0080E0A0EEB8E18093B0
:10431000F0009093F100A093F200B093F30085E0D9
:10432000BFEF8093F4009093F500A093F600B09354
:10433000F7008091ED008F70806C8093ED0088EC29
:104340008093EF0080E0A0E2B2E48093F0009093CD
:10435000F100A093F200B093F30085E0A0EEBFEF70
:104360008093F4009093F500A093F600B093F700CB
:104370008091ED008F70806D8093ED0088E88093D0
:10438000EF0080E0A0E4BAE48093F0009093F100A5
:10439000A093F200B093F30085E0A0EAB7ED80931C
:1043A000F4009093F500A093F600B093F70080918D
:1043B000ED008F70806E8093ED0088EC8093EF00AD
:1043C00080E0A0E0BDE88093F0009093F100A0931E
:1043D000F200B093F30085E0A0EEBFEF8093F4000D
:1043E0009093F500A093F600B093F70080EE9FE75E
:1043F0009093DF008093DE008091DB00806A8093E1
:10440000DB00509348034093470386E692E0909385
:104410004A03809349038091D80082608093D8003A
:104420008091D90082FFFCCF08954F925F926F92E6
:104430007F928F929F92AF92BF92CF92DF92EF9234
:10444000FF920F931F93CF93DF93CDB7DEB73C015D
:104450002B01FC0171836083128213821482158206
:1044600081E08683F086E782D286C1861386148631
:10447000158685E987BD84B580788A6084BD709291
:10448000500360924F038DE695E090935203809322
:10449000510383EE97E59093890080938800809183
:1044A0008100887F8460809381008091800090915A
:1044B00081008C7F977E986090938100809380002C
:1044C0008F73809380007092600360925F038BEA29
:1044D0009DE29093620380936103558B448B378BED
:1044E000268B118F008F128E138E148E158E8AE0FC
:1044F000868F178E11A210A212A213A214A215A2C7
:1045000016A217A210A611A689E090E00E94C93158
:10451000E82ECC24C394C822F3B082E290E00E943B
:104520009A308C01FC01B182A082B50180E090E05C
:104530002FE334E243E050E00E94243028E630E1EB
:1045400040E050E00E945730F801228333834483D7
:104550005583C682178210868F2D8095881F8827E5
:10456000881F8187138612861586148617861686FD
:10457000118A108A138A128A148A158A178A168A4F
:10458000118E108E128E91E0C11090E09170892FE3
:10459000880F892BF801838F148E81E0858F3C9AD8
:1045A0003D9AF301118B008BFE2CF694F822E3B0B8
:1045B00082E290E00E949A308C01FC01918280821C
:1045C000B40180E090E02FE334E243E050E00E9449
:1045D000243028E630E140E050E00E945730F801F6
:1045E0002283338344835583F682178210868E2D6F
:1045F000881F8827881F8187138612861586148650
:1046000017861686118A108A138A128A148A158AC6
:10461000178A168A118E108E128E91E0F11090E09A
:104620009170892F880F892BF801838F148E81E078
:10463000858F3C9A3D9AF301138B028BF201B09661
:1046400011823C9A3D9ADF91CF911F910F91FF907B
:10465000EF90DF90CF90BF90AF909F908F907F9022
:104660006F905F904F9008953F924F925F926F923C
:104670007F928F929F92AF92BF92CF92DF92EF92F2
:10468000FF920F931F93CF93DF93CDB7DEB72B9796
:104690000FB6F894DEBF0FBECDBFFB01C080D18046
:1046A000E280F380C701B6012CE030E040E050E04A
:1046B0000E9424306D837E838F83988786E090E00C
:1046C0000E948D04880F880F8150482E552466243F
:1046D0007724DC82CB8281E090E09B878A872EC0A2
:1046E000682D592D4A2D7B2D862E952EA42EB72E62
:1046F000281739070CF0032D302E281739070CF432
:1047000065C099818A8199838A832A853B85203473
:10471000310508F458C084E090E02A853B85289F45
:104720007001299FF00C389FF00C1124FB86EA865B
:10473000A70184E04130580708F053C02A853B8523
:104740006901EE24FF246D817E818F819885A70108
:1047500096010E94573089019A0101501040204073
:104760003040401651066206730610F49301820130
:10477000602F70E06F5F7F4F882777FD8095982FBF
:10478000A70196010E9424302CE030E040E050E088
:104790000E94573069017A01C4014B815C81841BFE
:1047A000950B97FD1AC09601EB81FC812E1B3F0BE8
:1047B00037FD0FC0281739070CF092CF6C2D5D2DF7
:1047C0004E2D7F2D91CF88E090E0A7CF9A858B85E5
:1047D0009ACF309521953F4FEDCF909581959F4F82
:1047E000E2CF0093B300E981FA81E034F10509F4E6
:1047F00048C0E134F10598F129813A8141E0203047
:104800003407C9F154E02030350791F1998597704C
:104810008091B000807B892B88608F7C8093B00072
:1048200080917000826080937000B401C5012B9666
:104830000FB6F894DEBF0FBECDBFDF91CF911F91B1
:104840000F91FF90EF90DF90CF90BF90AF909F902F
:104850008F907F906F905F904F903F900895E130E0
:10486000F10561F0E830F10589F682E08987CECF65
:10487000F7E0F987CBCFE6E0E987C8CF21E02987C9
:10488000C5CF94E09987C2CFAF92BF92CF92DF920B
:10489000EF92FF920F931F93CF93DF9300D000D03E
:1048A000CDB7DEB75C0110917D0280917F0281FF60
:1048B00043C0123008F440C08EE190E090930101B3
:1048C0008093000180917000826080937000F501F8
:1048D00081811817E1F11183E0911001F09111012C
:1048E0006081718180E090E028EF36E041E050E0A7
:1048F0000E94243028EE33E040E050E00E94573020
:1049000069017A01212F30E040E050E0C701B60193
:104910000E94573089019A0109831A832B833C83B3
:10492000073911052105310590F0C501BE016F5F02
:104930007F4F0E9434230BC086E090E090930101EA
:1049400080930001809170008D7F8093700081E0E2
:10495000F50182830F900F900F900F90DF91CF9110
:104960001F910F91FF90EF90DF90CF90BF90AF908D
:1049700008958F929F92AF92BF92CF92DF92EF9263
:10498000FF920F931F93CF93DF93CDB7DEB760975E
:104990000FB6F894DEBF0FBECDBF8130910509F18F
:1049A000009761F480911001909111010E943031C3
:1049B00080911201909113010E94303160960FB6E0
:1049C000F894DEBF0FBECDBFDF91CF911F910F9145
:1049D000FF90EF90DF90CF90BF90AF909F908F901F
:1049E000089510928F03E0E9F3E088E491E01182EA
:1049F000108293838283369629E0E039F207B9F773
:104A000010929009109291091092920910928C03C1
:104A100010928B0329E431E030938E0320938D03B1
:104A2000109288031092870330938A03209389039E
:104A3000109284031092830330938603209385039E
:104A40001092800310927F0330938203209381039E
:104A500010927C0310927B0330937E0320937D039E
:104A6000109278031092770330937A03209379039E
:104A7000109274031092730330937603209375039E
:104A80001092700310926F0330937203209371039E
:104A900010926C0310926B0330936E0320936D039E
:104AA000109268031092670330936A03209369039E
:104AB000109264031092630330936603209365039E
:104AC0001092600310925F0330936203209361039E
:104AD00010925C0310925B0330935E0320935D039E
:104AE000109258031092570330935A03209359039E
:104AF000109254031092530330935603209355039E
:104B00001092500310924F0330935203209351039D
:104B100010924C0310924B0330934E0320934D039D
:104B2000109248031092470330934A03209349039D
:104B3000109244031092430330934603209345039D
:104B40001092400310923F0330934203209341039D
:104B500010923C0310923B0330933E0320933D039D
:104B6000109238031092370330933A03209339039D
:104B7000109234031092330330933603209335039D
:104B80001092300310922F0330933203209331039D
:104B900010922C0310922B0330932E0320932D039D
:104BA000109228031092270330932A03209329039D
:104BB000109224031092230330932603209325039D
:104BC00010921C0310921B0330931E0320931D03AD
:104BD000109218031092170330931A0320931903AD
:104BE00010921403109213033093160320931503AD
:104BF0001092100310920F033093120320931103AD
:104C000010920C0310920B0330930E0320930D03AC
:104C1000109208031092070330930A0320930903AC
:104C200010920403109203033093060320930503AC
:104C3000109200031092FF023093020320930103AD
:104C4000109209004FED5EE2509399004093980056
:104C500040919100487F41604093910040919000C5
:104C6000509191004C7F577E586050939100409333
:104C700090004F73409390004AEF52E0509320030E
:104C800040931F034DE851E05093220340932103CA
:104C90001092FB021092FC021092FD021092FE0292
:104CA0001092950010929400C19A40917100426058
:104CB00040937100E2EBF2E01182108293838283D1
:104CC000399642E0EA3FF407B9F710927602109263
:104CD0007502309378022093770210927B02109233
:104CE0007A0210927D0210927C0210927F02109242
:104CF0007E02109281021092800210928302109222
:104D00008202109285021092840210928702109201
:104D10008602109289021092880210928B021092E1
:104D20008A0210928D0210928C0210928F021092C1
:104D30008E021092910210929002109293021092A1
:104D40009202109295021092940210929702109281
:104D50009602109299021092980210929B02109261
:104D60009A020DE912E0D80111961C921E92139638
:104D70003C932E9312970C5F1F4FB2E0013B1B0731
:104D800091F7109273021092720210927402539A69
:104D90005B9A52985A9A549A27982F9A8AE6E82E44
:104DA00082E0F82EF0921003E0920F038EE699E273
:104DB0009093120380931103F0920803E09207038B
:104DC00084EF91E090930A0380930903F0920C031F
:104DD000E0920B038BE991E090930E0380930D0317
:104DE000E8ECF0E08091C80082608093C8008CE01D
:104DF0008093CC008091CD00807F8093CD009091F6
:104E0000C9008091CA008660877882839C6C9183F8
:104E1000DD24D394D7011296DC9212978091C800BA
:104E200081608093C8005C9A8091C9008061818311
:104E300017961C9283E791E00E94272027E6A22E76
:104E400021E0B22EC8018197909368018093670199
:104E50001092690110926A0110926B0110926C011C
:104E6000D0926D018091900280936E0110926F013B
:104E7000C801809790937101809370011092720124
:104E80004A2DBE82AD828DE496E0682F98878F838D
:104E90001A8619865E81788580E09A8520ED37E054
:104EA0000E941002C0907001D090710182E090E0E9
:104EB0006CE070E00E949C1A4C0182E090E06DE092
:104EC00070E00E949C1AFC0180E091E066E070E0D6
:104ED000A7014D5F5F4F98012751304009511040A5
:104EE00076010F2EFBE0CF2EDD24F02DCA0CDB1C4B
:104EF00054014F010E94152285E595E5A0E0B0E040
:104F000089839A83AB83BC8302E611E0C801BE01AA
:104F10006F5F7F4F0E94342310936C0300936B03E9
:104F200088EA95E090936E0380936D03402F1C8771
:104F30000B8789ED96E0682F9E878D87188A1F86DC
:104F40005C857E8580E0988928EE33E00E9410021F
:104F500035CDCF93DF93DC01C8ECD0E08091C80061
:104F60008871B1F08091C9008091CE008091C80015
:104F700081608093C8005C9A8091C9008061E8ECF0
:104F8000F0E0818317961C921797DF91CF910895D7
:104F90009091C900969591708091CE00282F22950E
:104FA0002F70E92FF0E0E295F295F07FFE27E07F89
:104FB000FE27E55CFE4FE20FF11D30818317B1F64D
:104FC00017968C911797913009F094C08823B9F502
:104FD00006C0843009F01EC117961C921797922FB5
:104FE000990F990F990F1A968C911A978770892BA0
:104FF0001A968C931A978091C8008E7F8093C80070
:1050000017968C911797823009F498C0833009F76E
:1050100012968C911297882309F4A8CF12968C913E
:1050200012978F5F12968C93129712968C9112970B
:10503000853009F09BCF12961C92129797CF813042
:1050400011F71A969C911A9790681A969C931A9742
:105050008F5F17968C931797883009F096CF8091C1
:10506000C80081608093C8005C9A8091C90080610B
:10507000E8ECF0E0818317961C9217971A96EC9152
:105080001A97F0E0E057FE4FE491EF77F0E01896C2
:105090008D919C911997DF01AA0FBB1FA658BD4F98
:1050A0008C9311969C9311978091B10280FD6DCFE6
:1050B0008091B10282608093B1027894E058FE4FF3
:1050C000E491AE2FB0E0AA0FBB1FAA0FBB1FAA58D6
:1050D000BD4F9996ED91FC919A9797968D919C91E1
:1050E000989709958091B1028D7F8093B102DF91ED
:1050F000CF910895882309F439CF8130D9F08230D7
:10510000E9F0833009F4B0C0843009F083C0199607
:105110001C921E9218972295207F19968C911997B0
:105120008F70822B19968C93199785E017968C9324
:1051300017972BCF82E017968C931797822F86951F
:105140008695817091E01F9B90E0891709F00ECF42
:10515000922F969596959695990F990F1A968C91F0
:105160001A97887F2370892B822B1A968C931A9713
:1051700012968C911297882309F048C0C8ECD0E0B1
:105180008091C9008F7E89835C981396EC91139768
:10519000F0E0EF70F070E55CFE4F80818093CE0010
:1051A00083E017968C9317971A96EC911A97F0E074
:1051B000E057FE4FE491E7FD02C084E0B7CF909145
:1051C000B102969591708091B1028E7F892B809368
:1051D000B102F0E0EF77F070EE0FFF1FE658FD4FE1
:1051E0002FB7F894808191812FBF19969C938E934D
:1051F000189718968D919C9119978C9311969C9362
:105200001197F8948091C9008062898317968C91D8
:1052100017971ECF853091F08630D1F0873009F096
:1052200017CF18968C911897807F822B18968C93A5
:10523000189788E017968C93179711CF19968C9131
:105240001997807F822B19968C93199786E06ECFE1
:105250002295207F18968C9118978F70822B189624
:105260008C93189787E062CF1A96EC911A97F0E02A
:10527000E057FE4FE491E7FFA0CF9091B1029695E1
:1052800091708091B1028E7F892B8093B102F0E002
:10529000EF77F070EE0FFF1FE658FD4F2FB7F89431
:1052A000808191812FBF19969C938E93189780913E
:1052B000C9008F7E89835C9818968D919C9119976F
:1052C0008C9311969C931197F8948091C9008062F9
:1052D000898317968C9117978F5FBBCE0E94A92761
:1052E0000895CF92DF92EF92FF920F931F93CF9387
:1052F000DF93CDB7DEB76F970FB6F894DEBF0FBE62
:10530000CDBFFC0178946089718942895389DB01A2
:105310001A968D919C911B97805C9F4F01E0DA015A
:105320001A962D913C911B978217930708F000E085
:10533000DB015C969C91917080A58E7F892B80A764
:10534000DA015C969C91917081A58E7F892B81A753
:10535000DB015C968C915C978823E9F5DA015C9619
:105360008C915C978823B9F5A02FB0E01896AA0F0E
:10537000BB1FAE0FBF1F0D90BC91A02D1A966D9153
:105380007C911B9741E050E0002311F040E050E099
:10539000DA011896AA0FBB1FAE0FBF1F0D90BC916C
:1053A000A02D1A968D919C911B979B01281B390B60
:1053B00037FDC7C3CB019695879596958795805005
:1053C0009B4F8217930708F091C384A18F3709F48C
:1053D000B0C38F5F84A380A5882319F581A5882396
:1053E00001F52485822F90E010E031E080179107CD
:1053F00009F499C3A32FB0E01896AA0FBB1FAE0FF4
:10540000BF1F0D90BC91A02D5D968C915D97882358
:1054100009F084C332A313A21F9B18C080919A0184
:1054200017C080A5882309F05AC380A5882309F4F2
:1054300057C080A5882319F081A5811102A383A1FB
:105440008F3309F446C024851F99E8CF80918A01E3
:1054500090E08370907031E0009709F430E02223EF
:1054600009F444C0A089B1895D968C915D97882329
:1054700009F43CC0A289B3895D968C915D9788231D
:10548000A9F1332399F585A18F5F85A3823931F482
:1054900080A5826080A781A5826081A786A18F30C8
:1054A00048F560E48F5F86A38585882339F18F5F97
:1054B0008587883019F5F89428E088E190E00FB6E8
:1054C000F894A895809360000FBE209360000000C0
:1054D000FECF80A58B7F80A781A58B7F81A7B3CFCF
:1054E00081A5882309F4A5CF12A2A9CF15A286A170
:1054F0008F30B8F260E085858823C9F640895189EC
:10550000DA015B962C915B97217030E016968C91B6
:10551000169790E071E02817390709F070E06E7F68
:10552000672B22893389D9015B968C915B978170B7
:10553000082F10E016968C91169790E071E00817EE
:10554000190709F070E0770F6D7F672B92A1A92FE3
:10555000B0E01896AA0FBB1FAE0FBF1F0D911C9194
:10556000D8015D968C915D978170880F880F6B7F55
:10557000682B892F8170880F880F880F677F682BB1
:1055800070A570FF0FC0DA011A968D919C911B9740
:10559000B2E081309B0730F0D9015D968C915D9728
:1055A000882321F072FD02C081E071FD80E08295C8
:1055B000807F6F7E682B71A570FF0FC0D9011A968E
:1055C0008D919C911B97B2E081309B0730F0DA01FE
:1055D0005D968C915D97882321F072FD02C081E079
:1055E00071FD80E08295880F807E6F7D682B408DF5
:1055F000518DD8011C962D913C911D972038310575
:105600000CF04FC1BFEF21383B070CF484C227FDDB
:105610009CC2922F80E0262F30E0282B392B8FB7A9
:10562000F894DA0111963C932E938FBFA2A1B0E0BB
:105630001896AA0FBB1FAE0FBF1F0D90BC91A02DD7
:105640001A968D919C911B97292F221F2227221F8A
:1056500030E0880F991F282B392BA689B7898FB77F
:10566000F89411963C932E938FBF40895189DA01AB
:1056700018967C91E288F388D7011896DC90C09048
:105680008F03388F298FA2A1B0E01896AA0FBB1FF5
:10569000AE0FBF1F0D911C91D8011C968D919C914E
:1056A0001D97803891050CF0FAC0BFEF81389B0739
:1056B0000CF413C287FD39C28A8FDA018C911196DE
:1056C0009C919B8F8C8FD7018C9111969C919D8F73
:1056D0008E8F6F8FD8011A968D919C911B979C018C
:1056E000220F232F221F330B319540A151A12417E4
:1056F000350708F0E9C1805A9F4F880F892F881F0E
:10570000990B919591A380A3AC019E01205F3F4F1F
:1057100088E0D9011D928A95E9F764FDBEC065FD58
:10572000BCC082E0888BD8015B962C915B9721707E
:1057300030E016968C91169790E061E028173907B3
:1057400009F060E0962F9795992797955170952BC2
:10575000D8015D968C915D9721E08227880F880F94
:10576000892B898B4A8B83818B8B82818C8B848163
:105770008D8B83858295880F807E8E8B13861F99F3
:1057800093C08091DC009091DD0081FD2AC080E112
:105790008093ED0080E090E0A0E6B6E48093F00016
:1057A0009093F100A093F200B093F300888D809362
:1057B000FA00898D8093FA008A8D8093FA008B8D90
:1057C0008093FA008C8D8093FA008D8D8093FA007F
:1057D0008E8D8093FA008F8D8093FA0088E48093F9
:1057E000EF008091DC009091DD0080FD29C01092D7
:1057F000ED0080E090E0A0E8B8E18093F0009093A5
:10580000F100A093F200B093F30088898093FA002E
:1058100089898093FA008A898093FA008B89809322
:10582000FA008C898093FA008D898093FA008E8922
:105830008093FA008F898093FA0088E48093EF00C8
:105840008091DC009091DD0084FD18C080E480939D
:10585000ED0080E090E0A0E8B9E98093F00090933B
:10586000F100A093F200B093F3007093FA00D0928D
:10587000FA00C092FA0083E48093EF006F960FB6AF
:10588000F894DEBF0FBECDBFDF91CF911F910F9176
:10589000FF90EF90DF90CF90089580E043CF8FE7A7
:1058A0000BCF80E09FE7B7CE8091DC009091DD00C8
:1058B00081FD2AC080E18093ED0080E090E0A0E8C7
:1058C000B6E48093F0009093F100A093F200B093BF
:1058D000F300888D8093FA00898D8093FA008A8D79
:1058E0008093FA008B8D8093FA008C8D8093FA0060
:1058F0008D8D8093FA008E8D8093FA008F8D80932A
:10590000FA0088E48093EF008091DC009091DD0044
:1059100080FD29C01092ED0080E090E0A0E8BAE19F
:105920008093F0009093F100A093F200B093F30005
:1059300088898093FA0089898093FA008A89809304
:10594000FA008B898093FA008C898093FA008D8904
:105950008093FA008E898093FA008F898093FA00F1
:1059600088E48093EF008091DC009091DD0084FD5D
:1059700018C080E48093ED0080E090E0A0EAB9E9EF
:105980008093F0009093F100A093F200B093F300A5
:105990007093FA00D092FA00C092FA0083E48093E8
:1059A000EF00FE01319687E0DF011D928A95E9F74D
:1059B00088E690E00E94C9318A8380E390E00E94EB
:1059C000C9318B8384E590E00E94C9318C838CE6D9
:1059D00090E00E94C9318D838DE690E00E94C9312C
:1059E000082F88E590E00E94D13164E670E00E94C3
:1059F0004330079500270795062B0E8388E390E038
:105A00000E94C9318F838091DC009091DD0082FD7E
:105A10001BC080E28093ED0089818093FA008A8127
:105A20008093FA008B818093FA008C818093FA0036
:105A30008D818093FA008E818093FA008F8180930C
:105A4000FA0087E48093EF00FE01389688E0DF01DA
:105A50001D928A95E9F789E690E00E94C93189870D
:105A600088E690E00E94C9318A878DE490E00E9428
:105A7000C9318B878CE490E00E94C9318C8780917A
:105A8000DC009091DD0083FDF9CE80E38093ED0092
:105A900088858093FA0089858093FA008A858093AF
:105AA000FA008B858093FA008C858093FA008D85AF
:105AB0008093FA008E858093FA008F858093FA0098
:105AC00088E48093EF00DACE8096880F892F881FB4
:105AD000990B919591A380A317CE8FEFEDCD81A562
:105AE000882309F0A2CC81E082A3A9CC14A2A2A1B0
:105AF000B0E01896AA0FBB1FAE0FBF1F0D90BC9150
:105B0000A02D5D968C915D97882309F064CC83A1CC
:105B10008F5F83A360CC80E09FEF7DCD81E0832702
:105B200082A313A279CC30E065CC809580688F5F2A
:105B3000C3CDDA019896AE0FBF1F8C9184608C9311
