:100000000C9488000C94A3100C94D2100C94011141
:100010000C9430110C945F110C948E110C94BD1142
:100020000C94EC110C941B120C944A120C9479123F
:100030000C94A8120C94D7120C9406130C9435133C
:100040000C9464130C9493130C94C2130C94F1133A
:100050000C9420140C944F140C947E140C94AD1436
:100060000C94DC140C940B150C943A150C94691533
:100070000C9498150C94C7150C94F6150C94251631
:100080000C9454160C9483160C94B2160C94E1162E
:080090000C941017EB38F03856
:100100000000000001871F210C277B0175DFD9FD4E
:1001100011241FBECFEFD0E1DEBFCDBF11E0A0E0C4
:10012000B1E0E8EDF5E700E00BBF02C007900D92EB
:10013000A437B107D9F71AE0A4E7B1E001C01D92D6
:10014000A931B107E1F73C9A3D9A449A459A2DE0CE
:1001500088E190E00FB6F894A895809360000FBEF8
:1001600020936000259810E0C6E9D0E000E006C0CA
:1001700022970109FE010BBF0E947839C439D107CB
:1001800080E00807A9F70E94E2230C94DA3A000104
:100190000002030000000400000000000000000056
:1001A000000000000000908F8E8D080706050000FB
:1001B000000000000000000000000000000000003F
:1001C000000000000000000000000000000000002F
:1001D000000000000000000000000000000000001F
:1001E00000000000000000000000000000008C8BF8
:1001F0008A890403000000000000000000000000E5
:1002000000000000000002000001000000000000EB
:1002100000000000000000000000000000000000DE
:1002200000000000000000000000000000000000CE
:1002300000000000000000000000000000000000BE
:1002400000000000000000000000000000000000AE
:10025000000000000000000000000000000000009E
:10026000000000000000000000000000000000008E
:10027000000000000000000000000000000000007E
:10028000000000000000000000000000000000006E
:1002900000000000000000000000000000000895C1
:1002A00008954FB7F8945FB7F8942091B701309153
:1002B000B80181E090E002C0880F991F6A95E2F7CB
:1002C00080959095822393239093B8018093B701F2
:1002D0005FBF4FBF0895FC0184858F3F11F08F5F92
:1002E000848708952FB7F8943FB7F8948091BB01A5
:1002F0009091BC019F779093BC018093BB013FBF5D
:100300002FBF08958091AC018970893031F010922F
:100310007A0181E080937F01089581E080937A01E2
:1003200008958091570280938B01809158028093A9
:100330008C018091590280938D01809154028093A9
:100340009101809155028093920180915602809391
:10035000930108953F924F925F926F927F928F9296
:100360009F92AF92BF92CF92DF92EF92FF920F9344
:100370001F93CF93DF93CDB7DEB72A970FB6F894CC
:10038000DEBF0FBECDBF9A878987FB018081982F82
:100390009474A985BA85943459F585FD29C093963E
:1003A0008C9193978580B82CBB0CBB08048113817A
:1003B000882321F1E985FA8514A305A386A2B7A2B3
:1003C0002A960FB6F894DEBF0FBECDBFDF91CF9156
:1003D0001F910F91FF90EF90DF90CF90BF90AF9063
:1003E0009F908F907F906F905F904F903F90089577
:1003F00093968C919397882319F3D4CFA985BA85C6
:100400005A96ED91FC915B9758968D919C915997D6
:100410000995292F30E0C901880F991F220F331F3A
:10042000220F331F220F331F820F931F62E170E0F0
:100430000E941439362EB3E0B61708F0DDC0462E00
:10044000E0E1E61710F430E1432E842D90E0A0E0C7
:10045000B0E089839A83AB83BC83C12ED02EE82C75
:10046000FB2CA985BA855E96ED91FC915F975C9611
:100470008D919C915D970995DC01CB01C81AD90A31
:10048000EA0AFB0AC601D7FCDBC08F3F910509F0E1
:100490000CF4BFC081E0E985FA8582A3CC0CDD1C99
:1004A000EE1CFF1CCC0CDD1CEE1CFF1CCC0CDD1C60
:1004B000EE1CFF1CCC0CDD1CEE1CFF1CC701B601A2
:1004C00029813A814B815C810E945D3929833A837D
:1004D0004B835C83C980DA80D7FCB6C0EE24D7FC9E
:1004E000E094FE2CB2E7CB16B1E0DB06B0E0EB0601
:1004F000B0E0FB0608F08BC0C701B601A70196016A
:100500000E94F5384B015C010E94F5386D837E83B3
:100510008F839887C501B40120E43CE940E050E0B6
:100520000E94F5382B013C016D817E818F81988579
:100530002CE630E040E050E00E94F538DC01CB01D1
:10054000481A590A6A0A7B0AC501B40124E833E053
:1005500040E050E00E94F5384B015C01C701B60154
:1005600020E935E640E050E00E94F538DC01CB019F
:10057000881A990AAA0ABB0A80E09AE6A8E1B0E0C4
:10058000880E991EAA1EBB1E8D819E81AF81B885E3
:10059000880F991FAA1FBB1F881A990AAA0ABB0AAB
:1005A000C301B201A50194010E943B3989819A815E
:1005B000AB81BC81B7FD4DC0422F552747FD5095FB
:1005C000232D30E0429FC001439F900D529F900D1C
:1005D000112497FD40C0082E892F000C881F990B0D
:1005E000000C881F991FA985BA8590968C939097C7
:1005F00091961C929197E4CE84E090E0A0E0B0E068
:1006000089839A83AB83BC8324E0422E26CF80E08B
:10061000EACF90E082959295907F9827807F9827E7
:10062000642D70E00E94283981E06F3F710509F068
:100630000CF480E0A985BA8592968C9392972ECF80
:10064000909581959F4F21CFD094C194D108D39498
:1006500045CF2195B1CFCF96BECF1092120108950C
:10066000FC0141815281638174814F5F5F4F6F4F05
:100670007F4F418352836383748378940895FC0190
:1006800086818430F1F0853059F18630B1F18730C0
:1006900019F08F5F86830895A081B181AF70B0702B
:1006A000A25BBE4F8C918093CE008091C9008F7D5C
:1006B000A8ECB0E011968C93119786818F5F8683AA
:1006C00008952181822F82958F7090E0825B9E4FEA
:1006D000DC018C918093CE0086818F5F86830895A4
:1006E000A181B0E0AF70B070A25BBE4F8C918093DF
:1006F000CE0086818F5F86830895A081B181B295F7
:10070000A295AF70AB27BF70AB27ECCFDC01D796BB
:10071000EC91D797F0E03A96EE0FFF1FE80FF91F24
:100720000190F081E02D848595850895FC0162811A
:100730007381848195810895FC018281882341F031
:100740000284F385E02D80818F3F11F08F5F8083DD
:100750000895EF92FF920F931F93CF93DF9300D0F2
:1007600000D00F92CDB7DEB77B01FB0100810930CD
:1007700009F470C0013009F479C010E0000F111FB6
:10078000000F111F005E1F4FC801F70164810E9416
:10079000B93AC8010196F70163810E94B93AC801CC
:1007A0000296F70162810E94B93AC8010396F701E7
:1007B00061810E94B93AF7018081893009F44AC009
:1007C000813009F447C0082F10E0000F111F000FFF
:1007D000111F005E1F4F8983C80103960E94AB3A28
:1007E0008A83C80102960E94AB3A8B83C8010196A6
:1007F0000E94AB3A8C83C8010E94AB3A8D838091F2
:10080000DC009091DD0084FD25C02091ED0080E4A6
:100810008093ED0080E090E0A0E6B2E68093F000E7
:100820009093F100A093F200B093F300898180933C
:10083000FA008A818093FA008B818093FA008C8180
:100840008093FA008D818093FA0085E48093EF0015
:100850002093ED000F900F900F900F900F90DF916D
:10086000CF911F910F91FF90EF90089587E1FB01C9
:1008700080830CE510E086CF8EBD0DB407FEFDCF62
:100880006EBD0DB407FEFDCF4EBD0DB407FEFDCF0E
:100890002EBD0DB407FEFDCF8EB50895FC015C9A08
:1008A000A8ECB0E08091C900806111968C931197FB
:1008B0008091B20096819830B1F09581992391F0A2
:1008C0001582813968F0805990E0880F991F63E0A4
:1008D00070E00E9428398481861720F4648308958B
:1008E0008EEF848308958091C80081608093C80052
:1008F0005C9A8091C900806111968C931197168241
:100900000895CF93DF9300D000D000D0CDB7DEB7ED
:1009100049835A836B837C838D839E83E8EEF2E068
:100920009FB7F894808581FD3DC0808582FD3AC0E7
:100930008085846080879FBF4FB7F894809179034A
:1009400090917A03A0917B03B0917C034FBFA901E2
:1009500060E070E0480F591F6A1F7B1F6170707064
:1009600046835783962F917080858E7F892B808751
:10097000CF01AE014F5F5F4F26E0DA010D90AD0170
:10098000DC010D92CD012150C1F780858260808706
:1009900080858B7F80878091E7028F5F8093E7025D
:1009A00081E008C09FBF3996B3E0E837FB0709F044
:1009B000B7CF80E026960FB6F894DEBF0FBECDBF4E
:1009C000DF91CF910895CF93DF939C016091ED006B
:1009D0008091EC00807F8093ED008091EE008F7D10
:1009E0008093EE007894B091EF00BF704091F200D8
:1009F0004295469547705091F300752F770F770F0A
:100A0000770F872F842B952F929596959770880F47
:100A1000991F82959295907F9827807F98278B0FBA
:100A2000911D49E08530940709F471C07AE088305F
:100A3000970709F42BC1EAE088349E0709F429C11D
:100A4000FBE088309F0709F439C14BE088349407F4
:100A500009F422C17EE08130970709F435C1ECE04A
:100A600081309E0709F43CC1F0E180309F0709F412
:100A70003DC140E18038940709F43EC170E1813006
:100A8000970709F427C1E0E181389E0709F43AC1CC
:100A9000F0E180329F0709F43BC140E1803A9407BE
:100AA00009F43CC170E18132970709F43DC1E0E1EE
:100AB000813A9E0709F43BC1F8E1873E9F0709F49C
:100AC0003FC142E48832940709F443C17AE4853493
:100AD000970709F444C1E2E685309E0709F445C151
:100AE000F2E685369F0709F43DC14DE8873094074B
:100AF00009F444C178E88530970709F442C1EAE86F
:100B000085309E0709F0B7C046E150E002C040E0E2
:100B100050E0BB2381F0FA01EE0FFF1FEE0FFF1F25
:100B2000EE0FFF1FE20FF31F70E0A091FA00A193F8
:100B30007F5F7B17D0F3F2E685309F0709F466C02C
:100B400079E08530970709F4B3C0EAE485349E075D
:100B500009F4B1C0F2E685369F0709F4B2C07EE021
:100B60008130970709F4A1C0EDE887309E0709F4AA
:100B7000B4C0F8E885309F0709F4B5C07AE885303D
:100B8000970709F4B6C0EAE088309E0709F49FC0D1
:100B9000FBE088309F0709F4B2C078E1873E9707F1
:100BA00009F4B3C0E2E488329E0709F4B4C0F0E16E
:100BB00080309F0709F4B5C070E18038970709F4C9
:100BC000B9C0E0E180329E0709F4B7C0F0E1803A95
:100BD0009F0709F4BBC070E18130970709F4B3C0E7
:100BE000E0E181389E0709F4C6C0F0E181329F0739
:100BF00009F4BEC070E1813A970709F4ADC0ECE09A
:100C000081309E07C1F584E190E002C080E090E071
:100C1000EA01CC0FDD1FCC0FDD1FCC0FDD1FC20F93
:100C2000D31F7FB7F89440910E0A50910E0A5F5F70
:100C300050930E0AE0910D0A5E1789F17FBF50E0D4
:100C40008E96880F991F880F991F820F931FFC01A2
:100C500080819181A281B381FA01EE0FFF1FE40F21
:100C6000F51FEE0FFF1FE35FFB4F80839183A2838D
:100C7000B383D583C4838091EF008F7380688093A2
:100C8000EF006093ED00DF91CF91089541E050E0D7
:100C900040CF42E050E03DCF44E050E03ACF5091A9
:100CA0000D0A5F5F50930D0AC9CF84E090E0B0CF8A
:100CB00081E090E0ADCF82E090E0AACF43E050E049
:100CC00028CF83E090E0A4CF45E050E022CF88E039
:100CD00090E09ECF49E050E01CCF85E090E098CFB7
:100CE00046E050E016CF86E090E092CF47E050E03B
:100CF00010CF87E090E08CCF48E050E00ACF89E049
:100D000090E086CF4AE050E004CF8AE090E080CFC8
:100D10004BE050E0FECE8BE090E07ACF4CE050E02C
:100D2000F8CE8CE090E074CF4DE050E0F2CE4EE093
:100D300050E0EFCE8DE090E06BCF8EE090E068CF9A
:100D40004FE050E0E6CE80E190E062CF8FE090E0AF
:100D50005FCF40E150E0DDCE83E190E059CF41E14B
:100D600050E0D7CE43E150E0D4CE42E150E0D1CEC6
:100D700082E190E04DCF81E190E04ACF44E150E044
:100D8000C8CE45E150E0C5CEDC01ED91FC91119754
:100D900040A15FB7F89420910E0A30910E0A3F5F90
:100DA00030930E0A60910D0A3617A9F05FBF30E04C
:100DB000F901EE0FFF1FE20FF31FEE0FFF1FE35FBE
:100DC000FB4F9183808380E498E393838283448301
:100DD00015827894089530910D0A3F5F30930D0A83
:100DE000E5CF2FB7F89480910E0A90910E0A9F5F7D
:100DF00090930E0A30910D0A9317A1F02FBF90E047
:100E0000FC01EE0FFF1FE80FF91FEE0FFF1FE35F5E
:100E1000FB4F118210828BED97E0938382831582C2
:100E20001482089590910D0A9F5F90930D0AE6CF6A
:100E3000009719F481E090E008958130910519F44C
:100E400082E090E008958230910519F484E090E00A
:100E500008958330910519F488E090E00895843076
:100E6000910519F480E190E008958530910519F419
:100E700080E290E008958630910519F480E490E0D6
:100E800008959C0181E090E02730310559F420E875
:100E900030E0AC01429FC001439F900D529F900DE6
:100EA000112408952830310519F420E031E0F1CF04
:100EB000982F8827990F2930310509F4BDCF2A30A2
:100EC000310519F4880F991F08952B30310529F445
:100ED000880F991F880F991F08952C30310539F418
:100EE000880F991F880F991F880F991F08952D301B
:100EF000310539F482959295907F9827807F9827C5
:100F000008952E30310549F4880F991F82959295E6
:100F1000907F9827807F98270895A90149505040D5
:100F20002F30310551F400249695879507949695B6
:100F300087950794982F802D08959A01A5CFFC01DD
:100F400083818823E1F4F0990DC0F09A8EB38695E1
:100F50008695869580FD0DC0F39A838191E089275F
:100F600083830895F0988EB386958695869580FF45
:100F7000F3CFF398838191E08927838308958EB31B
:100F8000869580FD0CC0F19A8EB38695869580FD7E
:100F90000CC0F29A838191E0892783830895F198A8
:100FA0008EB38695869580FFF4CFF298838191E089
:100FB0008927838308955FB7F89440910F0A842F9F
:100FC00090E0FC01EE0FFF1FE80FF91FEB57FE4FFB
:100FD000618172818091B80190E08F709070242FB0
:100FE0002295207F30E0822B932B90819093B70144
:100FF0008093B8017093B5016093B6015FBF4F5FF6
:1010000040930F0A453009F0089510920F0A089591
:101010000F931F93CF93DF938B01FB01C081C930E6
:1010200001F1C13019F1D0E0CC0FDD1FCC0FDD1F75
:10103000C05EDF4FCE01F80164810E94B93ACE0153
:101040000196F80163810E94B93ACE010296F80137
:1010500062810E94B93ACE010396F80161810E9433
:10106000B93ADF91CF911F910F91089587E1FB016C
:101070008083CCE5D0E0DCCF0F931F93CF93DF9339
:1010800000D000D00F92CDB7DEB7FB018081893050
:1010900009F44AC0813009F447C0082F10E0000F5E
:1010A000111F000F111F005E1F4F8983C801039697
:1010B0000E94AB3A8A83C80102960E94AB3A8B83A6
:1010C000C80101960E94AB3A8C83C8010E94AB3ADA
:1010D0008D838091DC009091DD0084FD25C02091FE
:1010E000ED0080E48093ED0080E090E0A0E6B2E6C1
:1010F0008093F0009093F100A093F200B093F3007E
:1011000089818093FA008A818093FA008B81809391
:10111000FA008C818093FA008D818093FA0085E437
:101120008093EF002093ED000F900F900F900F90A1
:101130000F90DF91CF911F910F910895DC011396CD
:101140008C911397882379F4ED91FC91119780810C
:10115000982F9F71943009F44CC0983039F0807A00
:101160008061808303C013961C921397E8EEF2E02F
:101170009FB7F894808581FD34C0808582FD31C0A1
:101180008085846080879FBF8FB7F89440917903F2
:1011900050917A0360917B0370917C038FBF405321
:1011A000584F6F4F7F4F6170707046835783962FF3
:1011B000917080858E7F892B8087B183A0838EE993
:1011C00098E0938382831582148280858260808771
:1011D00080858B7F80878091E7028F5F8093E70215
:1011E00008959FBF399683E0E837F80709F0C0CF2C
:1011F0000895982F991F9927991F90958072979518
:10120000992797958860892B8083B0CF0F931F9380
:10121000CF93DF93CDB7DEB72F970FB6F894DEBF2D
:101220000FBECDBFE8EEF2E03FB7F894208521FD78
:10123000E2C0208522FDDFC02085246020873FBFDB
:101240002FB7F8944091790350917A0360917B0312
:1012500070917C032FBF4C505E4F6F4F7F4F61707A
:10126000707046835783362F317020852E7F232B55
:1012700020879183808386E099E09383828315821F
:10128000148280858260808780858B7F80878091B3
:10129000E7028F5F8093E70211E0FE01319687E05D
:1012A000DF011D928A95E9F788E690E00E94AB3A4B
:1012B0008A8380E390E00E94AB3A8B8384E590E0E0
:1012C0000E94AB3A8C838CE690E00E94AB3A8D830F
:1012D0008DE690E00E94AB3A082F88E590E00E94EE
:1012E000B33A64E670E00E94143907950027079529
:1012F000062B0E8388E390E00E94AB3A8F838091A7
:10130000DC009091DD0082FD1FC08091ED0090E235
:101310009093ED0099819093FA009A819093FA004E
:101320009B819093FA009C819093FA009D81909309
:10133000FA009E819093FA009F819093FA0097E4BF
:101340009093EF008093ED00FE01389688E0DF0176
:101350001D928A95E9F789E690E00E94AB3A898769
:1013600088E690E00E94AB3A8A878DE490E00E9484
:10137000AB3A8B878CE490E00E94AB3A8C871D8758
:101380008091E7028E87809198018F878091DC00A1
:101390009091DD0083FD22C08091ED0090E3909359
:1013A000ED0098859093FA0099859093FA009A85BC
:1013B0009093FA009B859093FA009C859093FA0095
:1013C0009D859093FA009E859093FA009F85909357
:1013D000FA0098E49093EF008093ED00109298014A
:1013E0002F960FB6F894DEBF0FBECDBFDF91CF9121
:1013F0001F910F9108953FBF3996B3E0E837FB077F
:1014000009F012CF10E049CFDC018091A80181FFE3
:1014100044C012968C911297882309F43EC012960C
:101420001C921297E8EEF2E09FB7F894808581FD58
:1014300040C0808582FD3DC08085846080879FBFDD
:101440008FB7F8944091790350917A0360917B03B0
:1014500070917C038FBF48515C4F6F4F7F4F61701D
:10146000707046835783962F917080858E7F892B6D
:101470008087B183A08384E09AE09383828315827E
:10148000148280858260808780858B7F80878091B1
:10149000E7028F5F8093E702089586E090E09093E3
:1014A00001018093000180916F008D7F80936F0018
:1014B000B6CF9FBF399683E0E837F80709F0B4CF7D
:1014C0000895CF93DF9300D000D00F92CDB7DEB751
:1014D0001F9908C00F900F900F900F900F90DF9101
:1014E000CF9108952FB7F8946091790370917A03A2
:1014F00080917B0390917C032FBF2AE030E040E095
:1015000050E00E943B3930917D0120937D0191E0B4
:1015100090937B01E0917801F0917901808185FDC4
:1015200043C0922F931B8062808350917C01590F9E
:1015300050937C01943260F160917E01662309F042
:1015400071C0550F50937C014081407840664460E3
:1015500010927E01852F8459893108F05EC04F7743
:1015600080918001481709F484C0E0917801F091DE
:10157000790180818F7B80834093800110927C0170
:101580000F900F900F900F900F90DF91CF910895D3
:1015900080917E018F5F80937E01833009F09ACF26
:1015A00080818F7B808396CFFE01319685E0DF01BD
:1015B0001D928A95E9F782E089839A839B831F9B1A
:1015C00048C08091DC009091DD0084FD83CF2091A4
:1015D000ED0080E48093ED0080E090E0A0E0BAE9C7
:1015E0008093F0009093F100A093F200B093F30089
:1015F00089818093FA008A818093FA008B8180939D
:10160000FA008C818093FA008D818093FA0085E442
:101610008093EF002093ED005DCF5D5A5A31B8F40E
:1016200040689ECF40814078406622E030E0261B33
:10163000310981E090E002C0880F991F2A95E2F7F6
:101640008F71482B633008F483CF4F7B81CF4F7B62
:1016500087CF8091DC009091DD0084FD3BCF20910D
:10166000ED0080E48093ED0080E090E0A0E0B8E938
:10167000B7CF46FF81CFE0917801F0917901808169
:10168000842787FD11C080917F01109284018823F7
:1016900029F0E0918201F09183011082E0917801BC
:1016A000F0917901408368CF80917F01882331F0E8
:1016B00010927F011092840140835ECFE0918201FD
:1016C000F0918301809184018083DDCFCF93DF93FC
:1016D00000D000D00F92CDB7DEB71F9908C00F9091
:1016E0000F900F900F900F90DF91CF910895DB0135
:1016F0002C9191E090937B01E0917801F091790138
:10170000808185FF10C08F7D808380917C01820F56
:10171000E8E7F1E084830F900F900F900F900F9007
:10172000DF91CF910895FE01319685E0DF011D9292
:101730008A95E9F782E089839A831F9B2CC0809168
:10174000DC009091DD0084FDCACF2091ED0080E4A3
:101750008093ED0080E090E0A0E0BAE98093F00093
:101760009093F100A093F200B093F30089818093ED
:10177000FA008A818093FA008B818093FA008C8131
:101780008093FA008D818093FA0085E48093EF00C6
:101790002093ED00A4CF8091DC009091DD0084FDCA
:1017A0009ECF2091ED0080E48093ED0080E090E0FA
:1017B000A0E0B8E9D3CFCF93DF9300D000D00F9251
:1017C000CDB7DEB71F9B08C00F900F900F900F9002
:1017D0000F90DF91CF9108952FB7F894609179031E
:1017E00070917A0380917B0390917C032FBF2AE054
:1017F00030E040E050E00E943B3940917D01209371
:101800007D0191E090937B01E0917801F091790165
:10181000808185FF10C08F7D808380917C01841B37
:10182000820F80937C010F900F900F900F900F907C
:10183000DF91CF910895FE01319685E0DF011D9281
:101840008A95E9F782E089839A831F9B2CC0809157
:10185000DC009091DD0084FDB7CF2091ED0080E4A5
:101860008093ED0080E090E0A0E0BAE98093F00082
:101870009093F100A093F200B093F30089818093DC
:10188000FA008A818093FA008B818093FA008C8120
:101890008093FA008D818093FA0085E48093EF00B5
:1018A0002093ED0091CF8091DC009091DD0084FDCC
:1018B0008BCF2091ED0080E48093ED0080E090E0FC
:1018C000A0E0B8E9D3CFCF93DF9300D000D00F9240
:1018D000CDB7DEB71F9B08C00F900F900F900F90F1
:1018E0000F90DF91CF910895DB012C9191E09093BF
:1018F0007B01E0917801F0917901808185FF10C032
:101900008F7D808380917C01820FE8E7F1E0848302
:101910000F900F900F900F900F90DF91CF9108953F
:10192000FE01319685E0DF011D928A95E9F782E09C
:1019300089839A831F9B2CC08091DC009091DD00ED
:1019400084FDCACF2091ED0080E48093ED0080E01B
:1019500090E0A0E0BAE98093F0009093F100A093AA
:10196000F200B093F30089818093FA008A8180931A
:10197000FA008B818093FA008C818093FA008D812C
:101980008093FA0085E48093EF002093ED00A4CFCC
:101990008091DC009091DD0084FD9ECF2091ED00D0
:1019A00080E48093ED0080E090E0A0E0B8E9D3CF40
:1019B000CF93DF9300D000D00F92CDB7DEB71F9941
:1019C00008C00F900F900F900F900F90DF91CF9164
:1019D00008952FB7F8946091790370917A038091FC
:1019E0007B0390917C032FBF2AE030E040E050E081
:1019F0000E943B3940917D0120937D0191E09093BD
:101A00007B01E0917801F0917901808185FF10C020
:101A10008F7D808380917C01841B820F80937C0169
:101A20000F900F900F900F900F90DF91CF9108952E
:101A3000FE01319685E0DF011D928A95E9F782E08B
:101A400089839A831F9B2CC08091DC009091DD00DC
:101A500084FDB7CF2091ED0080E48093ED0080E01D
:101A600090E0A0E0BAE98093F0009093F100A09399
:101A7000F200B093F30089818093FA008A81809309
:101A8000FA008B818093FA008C818093FA008D811B
:101A90008093FA0085E48093EF002093ED0091CFCE
:101AA0008091DC009091DD0084FD8BCF2091ED00D2
:101AB00080E48093ED0080E090E0A0E0B8E9D3CF2F
:101AC000CF93DF9300D000D00F92CDB7DEB71F9B2E
:101AD00008C00F900F900F900F900F90DF91CF9153
:101AE0000895DB012C9191E090937B01E0917801C6
:101AF000F0917901808185FD44C08062808350919E
:101B00007C01520F50937C01243260F160917E0180
:101B1000662309F074C0550F50937C0140814078D2
:101B20004066446010927E01852F8459893108F007
:101B300061C04F7780918001481709F487C0E09118
:101B40007801F091790180818F7B808340938001BF
:101B500010927C010F900F900F900F900F90DF91DB
:101B6000CF91089580917E018F5FA8E7B1E016962E
:101B70008C931697833009F0ACCF80818F7B808364
:101B8000A8CFFE01319685E0DF011D928A95E9F725
:101B900082E089839A839B831F9B48C08091DC00ED
:101BA0009091DD0084FD95CF2091ED0080E480933D
:101BB000ED0080E090E0A0E0BAE98093F00090931F
:101BC000F100A093F200B093F30089818093FA00B2
:101BD0008A818093FA008B818093FA008C818093B4
:101BE000FA008D818093FA0085E48093EF002093C2
:101BF000ED006FCF5D5A5A31B8F440689BCF4081F9
:101C00004078406622E030E0261B310981E090E018
:101C100002C0880F991F2A95E2F78F71482B633015
:101C200008F480CF4F7B7ECF4F7B84CF8091DC0048
:101C30009091DD0084FD4DCF2091ED0080E48093F4
:101C4000ED0080E090E0A0E0B8E9B7CF46FF7ECF9E
:101C5000E0917801F09179018081842787FD11C09E
:101C600080917F0110928401882329F0E091820104
:101C7000F09183011082E0917801F0917901408325
:101C800065CF80917F01882331F010927F011092FF
:101C9000840140835BCFE0918201F09183018091C8
:101CA00084018083DDCFCF93DF9300D000D00F92EB
:101CB000CDB7DEB71F9908C00F900F900F900F900F
:101CC0000F90DF91CF910895DB012C9191E09093DB
:101CD0007B01E0917801F0917901808185FD44C01C
:101CE0008062808350917C01520F50937C0124329A
:101CF00060F160917E01662309F074C0550F509326
:101D00007C01408140784066446010927E01852FBE
:101D10008459893108F061C04F778091800148175C
:101D200009F487C0E0917801F091790180818F7B7F
:101D300080834093800110927C010F900F900F9050
:101D40000F900F90DF91CF91089580917E018F5F6A
:101D5000A8E7B1E016968C931697833009F0ACCFC4
:101D600080818F7B8083A8CFFE01319685E0DF01E3
:101D70001D928A95E9F782E089839A839B831F9B52
:101D800048C08091DC009091DD0084FD95CF2091CA
:101D9000ED0080E48093ED0080E090E0A0E0BAE9FF
:101DA0008093F0009093F100A093F200B093F300C1
:101DB00089818093FA008A818093FA008B818093D5
:101DC000FA008C818093FA008D818093FA0085E47B
:101DD0008093EF002093ED006FCF5D5A5A31B8F435
:101DE00040689BCF40814078406622E030E0261B6F
:101DF000310981E090E002C0880F991F2A95E2F72F
:101E00008F71482B633008F480CF4F7B7ECF4F7BA0
:101E100084CF8091DC009091DD0084FD4DCF209136
:101E2000ED0080E48093ED0080E090E0A0E0B8E970
:101E3000B7CF46FF7ECFE0917801F09179018081A4
:101E4000842787FD11C080917F011092840188232F
:101E500029F0E0918201F09183011082E0917801F4
:101E6000F0917901408365CF80917F01882331F023
:101E700010927F011092840140835BCFE091820138
:101E8000F0918301809184018083DDCFCF93DF9334
:101E900000D000D00F92CDB7DEB71F9B08C00F90C7
:101EA0000F900F900F900F90DF91CF9108952FB763
:101EB000F8946091790370917A0380917B039091FB
:101EC0007C032FBF2AE030E040E050E00E943B3925
:101ED00030917D0120937D0191E090937B01E09111
:101EE0007801F0917901808185FD43C0922F931B89
:101EF0008062808350917C01590F50937C01943211
:101F000060F160917E01662309F071C0550F509316
:101F10007C01408140784066446010927E01852FAC
:101F20008459893108F05EC04F778091800148174D
:101F300009F484C0E0917801F091790180818F7B70
:101F400080834093800110927C010F900F900F903E
:101F50000F900F90DF91CF91089580917E018F5F58
:101F600080937E01833009F09ACF80818F7B8083BC
:101F700096CFFE01319685E0DF011D928A95E9F743
:101F800082E089839A839B831F9B48C08091DC00F9
:101F90009091DD0084FD83CF2091ED0080E480935B
:101FA000ED0080E090E0A0E0BAE98093F00090932B
:101FB000F100A093F200B093F30089818093FA00BE
:101FC0008A818093FA008B818093FA008C818093C0
:101FD000FA008D818093FA0085E48093EF002093CE
:101FE000ED005DCF5D5A5A31B8F440689ECF408114
:101FF0004078406622E030E0261B310981E090E025
:1020000002C0880F991F2A95E2F78F71482B633021
:1020100008F483CF4F7B81CF4F7B87CF8091DC004B
:102020009091DD0084FD3BCF2091ED0080E4809312
:10203000ED0080E090E0A0E0B8E9B7CF46FF81CFA7
:10204000E0917801F09179018081842787FD11C0AA
:1020500080917F0110928401882329F0E091820110
:10206000F09183011082E0917801F0917901408331
:1020700068CF80917F01882331F010927F01109208
:10208000840140835ECFE0918201F09183018091D1
:1020900084018083DDCFF89428E088E190E00FB6DA
:1020A000F894A895809360000FBE20936000000014
:1020B000FECF1F9B0895FB0180818230D9F781817B
:1020C0008330C1F7828182FDF5CF2FB7F8948091DC
:1020D000790390917A03A0917B03B0917C032FBF89
:1020E00089352BE1920720E0A20720E0B20710F328
:1020F00080913B018823F1F20E944B101F990895B3
:10210000FB0180818230D9F781818330C1F78281E0
:1021100082FDF5CF2FB7F8948091790390917A03DF
:10212000A0917B03B0917C032FBF89352BE19207EF
:1021300020E0A20720E0B20710F380913B01882342
:10214000F1F20E944B101F920F920FB60F920BB636
:102150000F9211242F933F934F935F936F937F932D
:102160008F939F93AF93BF93EF93FF93E0910B04F3
:10217000F0910C048091090490910A040995FF9153
:10218000EF91BF91AF919F918F917F916F915F91EF
:102190004F913F912F910F900BBE0F900FBE0F905C
:1021A0001F9018951F920F920FB60F920BB60F92B9
:1021B00011242F933F934F935F936F937F938F934C
:1021C0009F93AF93BF93EF93FF93E0910704F09138
:1021D000080480910504909106040995FF91EF9100
:1021E000BF91AF919F918F917F916F915F914F912F
:1021F0003F912F910F900BBE0F900FBE0F901F902D
:1022000018951F920F920FB60F920BB60F921124D2
:102210002F933F934F935F936F937F938F939F93EE
:10222000AF93BF93EF93FF93E0910304F091040405
:1022300080910104909102040995FF91EF91BF9163
:10224000AF919F918F917F916F915F914F913F914E
:102250002F910F900BBE0F900FBE0F901F901895EF
:102260001F920F920FB60F920BB60F9211242F935D
:102270003F934F935F936F937F938F939F93AF930E
:10228000BF93EF93FF93E091FF03F09100048091DF
:10229000FD039091FE030995FF91EF91BF91AF91DE
:1022A0009F918F917F916F915F914F913F912F916E
:1022B0000F900BBE0F900FBE0F901F9018951F929E
:1022C0000F920FB60F920BB60F9211242F933F93DC
:1022D0004F935F936F937F938F939F93AF93BF932E
:1022E000EF93FF93E091FB03F091FC038091F903DE
:1022F0009091FA030995FF91EF91BF91AF919F9152
:102300008F917F916F915F914F913F912F910F909E
:102310000BBE0F900FBE0F901F9018951F920F923B
:102320000FB60F920BB60F9211242F933F934F933A
:102330005F936F937F938F939F93AF93BF93EF932D
:10234000FF93E091F703F091F8038091F5039091EA
:10235000F6030995FF91EF91BF91AF919F918F91F6
:102360007F916F915F914F913F912F910F900BBE95
:102370000F900FBE0F901F9018951F920F920FB6DF
:102380000F920BB60F9211242F933F934F935F93AD
:102390006F937F938F939F93AF93BF93EF93FF932D
:1023A000E091F303F091F4038091F1039091F20333
:1023B0000995FF91EF91BF91AF919F918F917F917F
:1023C0006F915F914F913F912F910F900BBE0F90A6
:1023D0000FBE0F901F9018951F920F920FB60F927D
:1023E0000BB60F9211242F933F934F935F936F93EC
:1023F0007F938F939F93AF93BF93EF93FF93E0915E
:10240000EF03F091F0038091ED039091EE030995B5
:10241000FF91EF91BF91AF919F918F917F916F91BC
:102420005F914F913F912F910F900BBE0F900FBE78
:102430000F901F9018951F920F920FB60F920BB628
:102440000F9211242F933F934F935F936F937F933A
:102450008F939F93AF93BF93EF93FF93E091EB0321
:10246000F091EC038091E9039091EA030995FF91C3
:10247000EF91BF91AF919F918F917F916F915F91FC
:102480004F913F912F910F900BBE0F900FBE0F9069
:102490001F9018951F920F920FB60F920BB60F92C6
:1024A00011242F933F934F935F936F937F938F9359
:1024B0009F93AF93BF93EF93FF93E091E703F09166
:1024C000E8038091E5039091E6030995FF91EF9170
:1024D000BF91AF919F918F917F916F915F914F913C
:1024E0003F912F910F900BBE0F900FBE0F901F903A
:1024F00018951F920F920FB60F920BB60F921124E0
:102500002F933F934F935F936F937F938F939F93FB
:10251000AF93BF93EF93FF93E091E303F091E40354
:102520008091E1039091E2030995FF91EF91BF91B2
:10253000AF919F918F917F916F915F914F913F915B
:102540002F910F900BBE0F900FBE0F901F901895FC
:102550001F920F920FB60F920BB60F9211242F936A
:102560003F934F935F936F937F938F939F93AF931B
:10257000BF93EF93FF93E091DF03F091E00380912D
:10258000DD039091DE030995FF91EF91BF91AF912B
:102590009F918F917F916F915F914F913F912F917B
:1025A0000F900BBE0F900FBE0F901F9018951F92AB
:1025B0000F920FB60F920BB60F9211242F933F93E9
:1025C0004F935F936F937F938F939F93AF93BF933B
:1025D000EF93FF93E091DB03F091DC038091D9034B
:1025E0009091DA030995FF91EF91BF91AF919F917F
:1025F0008F917F916F915F914F913F912F910F90AC
:102600000BBE0F900FBE0F901F9018951F920F9248
:102610000FB60F920BB60F9211242F933F934F9347
:102620005F936F937F938F939F93AF93BF93EF933A
:10263000FF93E091D703F091D8038091D503909157
:10264000D6030995FF91EF91BF91AF919F918F9123
:102650007F916F915F914F913F912F910F900BBEA2
:102660000F900FBE0F901F9018951F920F920FB6EC
:102670000F920BB60F9211242F933F934F935F93BA
:102680006F937F938F939F93AF93BF93EF93FF933A
:10269000E091D303F091D4038091D1039091D203C0
:1026A0000995FF91EF91BF91AF919F918F917F918C
:1026B0006F915F914F913F912F910F900BBE0F90B3
:1026C0000FBE0F901F9018951F920F920FB60F928A
:1026D0000BB60F9211242F933F934F935F936F93F9
:1026E0007F938F939F93AF93BF93EF93FF93E0916B
:1026F000CF03F091D0038091CD039091CE03099543
:10270000FF91EF91BF91AF919F918F917F916F91C9
:102710005F914F913F912F910F900BBE0F900FBE85
:102720000F901F9018951F920F920FB60F920BB635
:102730000F9211242F933F934F935F936F937F9347
:102740008F939F93AF93BF93EF93FF93E091CB034E
:10275000F091CC038091C9039091CA030995FF9130
:10276000EF91BF91AF919F918F917F916F915F9109
:102770004F913F912F910F900BBE0F900FBE0F9076
:102780001F9018951F920F920FB60F920BB60F92D3
:1027900011242F933F934F935F936F937F938F9366
:1027A0009F93AF93BF93EF93FF93E091C703F09193
:1027B000C8038091C5039091C6030995FF91EF91DD
:1027C000BF91AF919F918F917F916F915F914F9149
:1027D0003F912F910F900BBE0F900FBE0F901F9047
:1027E00018951F920F920FB60F920BB60F921124ED
:1027F0002F933F934F935F936F937F938F939F9309
:10280000AF93BF93EF93FF93E091C303F091C403A1
:102810008091C1039091C2030995FF91EF91BF91FF
:10282000AF919F918F917F916F915F914F913F9168
:102830002F910F900BBE0F900FBE0F901F90189509
:102840001F920F920FB60F920BB60F9211242F9377
:102850003F934F935F936F937F938F939F93AF9328
:10286000BF93EF93FF93E091BF03F091C00380917A
:10287000BD039091BE030995FF91EF91BF91AF9178
:102880009F918F917F916F915F914F913F912F9188
:102890000F900BBE0F900FBE0F901F9018951F92B8
:1028A0000F920FB60F920BB60F9211242F933F93F6
:1028B0004F935F936F937F938F939F93AF93BF9348
:1028C000EF93FF93E091BB03F091BC038091B903B8
:1028D0009091BA030995FF91EF91BF91AF919F91AC
:1028E0008F917F916F915F914F913F912F910F90B9
:1028F0000BBE0F900FBE0F901F9018951F920F9256
:102900000FB60F920BB60F9211242F933F934F9354
:102910005F936F937F938F939F93AF93BF93EF9347
:10292000FF93E091B703F091B8038091B5039091C4
:10293000B6030995FF91EF91BF91AF919F918F9150
:102940007F916F915F914F913F912F910F900BBEAF
:102950000F900FBE0F901F9018951F920F920FB6F9
:102960000F920BB60F9211242F933F934F935F93C7
:102970006F937F938F939F93AF93BF93EF93FF9347
:10298000E091B303F091B4038091B1039091B2034D
:102990000995FF91EF91BF91AF919F918F917F9199
:1029A0006F915F914F913F912F910F900BBE0F90C0
:1029B0000FBE0F901F9018951F920F920FB60F9297
:1029C0000BB60F9211242F933F934F935F936F9306
:1029D0007F938F939F93AF93BF93EF93FF93E09178
:1029E000AF03F091B0038091AD039091AE030995D0
:1029F000FF91EF91BF91AF919F918F917F916F91D7
:102A00005F914F913F912F910F900BBE0F900FBE92
:102A10000F901F9018951F920F920FB60F920BB642
:102A20000F9211242F933F934F935F936F937F9354
:102A30008F939F93AF93BF93EF93FF93E091AB037B
:102A4000F091AC038091A9039091AA030995FF919D
:102A5000EF91BF91AF919F918F917F916F915F9116
:102A60004F913F912F910F900BBE0F900FBE0F9083
:102A70001F9018951F920F920FB60F920BB60F92E0
:102A800011242F933F934F935F936F937F938F9373
:102A90009F93AF93BF93EF93FF93E091A703F091C0
:102AA000A8038091A5039091A6030995FF91EF914A
:102AB000BF91AF919F918F917F916F915F914F9156
:102AC0003F912F910F900BBE0F900FBE0F901F9054
:102AD00018951F920F920FB60F920BB60F921124FA
:102AE0002F933F934F935F936F937F938F939F9316
:102AF000AF93BF93EF93FF93E091A303F091A403EF
:102B00008091A1039091A2030995FF91EF91BF914C
:102B1000AF919F918F917F916F915F914F913F9175
:102B20002F910F900BBE0F900FBE0F901F90189516
:102B30001F920F920FB60F920BB60F9211242F9384
:102B40003F934F935F936F937F938F939F93AF9335
:102B5000BF93EF93FF93E0919F03F091A0038091C7
:102B60009D0390919E030995FF91EF91BF91AF91C5
:102B70009F918F917F916F915F914F913F912F9195
:102B80000F900BBE0F900FBE0F901F9018951F92C5
:102B90000F920FB60F920BB60F9211242F933F9303
:102BA0004F935F936F937F938F939F93AF93BF9355
:102BB000EF93FF93E0919B03F0919C038091990325
:102BC00090919A030995FF91EF91BF91AF919F91D9
:102BD0008F917F916F915F914F913F912F910F90C6
:102BE0000BBE0F900FBE0F901F9018951F920F9263
:102BF0000FB60F920BB60F9211242F933F934F9362
:102C00005F936F937F938F939F93AF93BF93EF9354
:102C1000FF93E0919703F091980380919503909131
:102C200096030995FF91EF91BF91AF919F918F917D
:102C30007F916F915F914F913F912F910F900BBEBC
:102C40000F900FBE0F901F9018951F920F920FB606
:102C50000F920BB60F9211242F933F934F935F93D4
:102C60006F937F938F939F93AF93BF93EF93FF9354
:102C7000E0919303F09194038091910390919203DA
:102C80000995FF91EF91BF91AF919F918F917F91A6
:102C90006F915F914F913F912F910F900BBE0F90CD
:102CA0000FBE0F901F9018951F920F920FB60F92A4
:102CB0000BB60F9211242F933F934F935F936F9313
:102CC0007F938F939F93AF93BF93EF93FF93E09185
:102CD0008F03F091900380918D0390918E0309955D
:102CE000FF91EF91BF91AF919F918F917F916F91E4
:102CF0005F914F913F912F910F900BBE0F900FBEA0
:102D00000F901F9018951F920F920FB60F920BB64F
:102D10000F9211242F933F934F935F936F937F9361
:102D20008F939F93AF93BF93EF93FF93E0918B03A8
:102D3000F0918C038091890390918A030995FF910A
:102D4000EF91BF91AF919F918F917F916F915F9123
:102D50004F913F912F910F900BBE0F900FBE0F9090
:102D60001F9018951F920F920FB60F920BB60F92ED
:102D700011242F933F934F935F936F937F938F9380
:102D80009F93AF93BF93EF93FF93E0918703F091ED
:102D9000880380918503909186030995FF91EF91B7
:102DA000BF91AF919F918F917F916F915F914F9163
:102DB0003F912F910F900BBE0F900FBE0F901F9061
:102DC00018951F920F920FB60F920BB60F92112407
:102DD0002F933F934F935F936F937F938F939F9323
:102DE000AF93BF93EF93FF93E0918303F09184033C
:102DF00080918103909182030995FF91EF91BF919A
:102E0000AF919F918F917F916F915F914F913F9182
:102E10002F910F900BBE0F900FBE0F901F90189523
:102E20001F920F920FB60F920BB60F9211242F9391
:102E30003F934F935F936F937F938F939F93AF9342
:102E4000BF93EF93FF93E0917F03F0918003809114
:102E50007D0390917E030995FF91EF91BF91AF9112
:102E60009F918F917F916F915F914F913F912F91A2
:102E70000F900BBE0F900FBE0F901F901895CF9222
:102E8000DF92EF92FF920F931F93CF93DF937C011A
:102E9000DC011596ED91FC9116978081218181329C
:102EA00009F4F8C08232D0F0813309F41DC18233B5
:102EB00008F455C0833309F421C1833308F03BC1C2
:102EC00082E3F701858B0584F685E02D82E0922F61
:102ED0002FB7F894918380832FBF9BC0813109F471
:102EE000D9C0823108F05BC0833009F407C1843057
:102EF00009F4C2C0882309F08CC0E7018D898132B2
:102F000009F457C1823208F41AC1813309F437C376
:102F1000823309F40BC2823209F07BC0E701888159
:102F20009981AA81BB814E895F89688D798D8417CB
:102F30009507A607B70708F452C3AC01BD0141507D
:102F4000504060407040652F6F70482F4150487F5F
:102F500082EC20E00E943C0488E799E61DC18332A0
:102F600009F4CCC0833208F45DC0843209F051C04A
:102F7000E701488159816A817B81DB01CA010197A0
:102F8000A109B1099F704150487F82EC692F20E070
:102F90000E943C0488E799E60197F1F747C0833126
:102FA00009F4ACC0833108F03FC082E1F701858BA2
:102FB0000780F085E02D8FB7F894408151818FBF55
:102FC000D7011996ED91FC911A978FB7F89420814B
:102FD00031818FBFE701EB85FC856FB7F894808165
:102FE00091816FBFF701588349833A831B822E8BEF
:102FF0009F8B888F198E0584F685E02DAD81BE816B
:1030000082E011969C9111972FB7F8949183808359
:103010002FBFDF91CF911F910F91FF90EF90DF9025
:10302000CF90089582E2C2CF843199F7F7014081B1
:1030300051816281738141505040604070408A01EB
:103040009B0189E036952795179507958A95D1F7C5
:10305000769567955795479540788CE4602F20E0EA
:103060000E943C048CEB94E30197F1F7D70115968D
:10307000ED91FC9116972181E701ED85FE8584E0B5
:10308000922F2FB7F894918380832FBF24982C9A86
:103090000E944B10F701858B0780F085E02D8FB7DC
:1030A000F894408151818FBFD7011996ED91FC9121
:1030B0001A978FB7F894208131818FBFE701EB8594
:1030C000FC856FB7F894808191816FBF58834983E5
:1030D0003A831B822E8B9F8B888F198EED85FE8500
:1030E000AD81BE8181E08DCFD70155968C935597E8
:1030F0001D96ED91FC911E9781E0E9CE8CEA60E887
:1031000040E020E00E943C0488E799E60197F1F74F
:10311000E701AD85BE85ED81FE8183E091812FB70A
:10312000F89411969C938E932FBFED85FE85AD810B
:10313000BE8180E066CF843309F06BCF9DCF8131B3
:1031400009F4F8C0823109F064CF88819981AA819D
:10315000BB814E895F89688D798D84179507A60795
:10316000B70708F4B2C30197A109B1098C019D0109
:1031700069E036952795179507956A95D1F7B69525
:10318000A79597958795482F40788CE4602F20E08D
:103190000E943C048CEB94E30197F1F7D7011D9654
:1031A000ED91FC911E9715960D90BC91A02D80E09D
:1031B00028CFF7010F84D889C02D408161816770C5
:1031C00080EA20E00E943C04D82ED7010D911D9189
:1031D0002D913C910F5F1F4F2F4F3F4FF701008301
:1031E000118322833383612F677080EA402F20E0B0
:1031F0000E943C04D7014D915D916D917C91139794
:103200004F5F5F4F6F4F7F4FF70140835183628362
:103210007383282F3D2D8FB7F894398328838FBF70
:103220005196CD91DC9152974C9111966C916770AB
:1032300080EA20E00E943C04D82EF7010081118131
:10324000228133810F5F1F4F2F4F3F4F0083118328
:1032500022833383612F677080EA402F20E00E9431
:103260003C04F70140815181628173814F5F5F4F60
:103270006F4F7F4F4083518362837383282F3D2D8F
:103280008FB7F894398328838FBFC389D48940814D
:103290006181677080EA20E00E943C04D82ED7014B
:1032A0000D911D912D913C910F5F1F4F2F4F3F4F5F
:1032B000F7010083118322833383612F677080EAD3
:1032C000402F20E00E943C04D7014D915D916D910B
:1032D0007C9113974F5F5F4F6F4F7F4FF701408394
:1032E000518362837383282F3D2D8FB7F8943983E0
:1032F00028838FBF4D915D916D917C911397569668
:103300008D919D910D90BC91A02D84179507A607D6
:10331000B70708F0CBC4D7011D96ED91FC911E971D
:1033200015960D90BC91A02D80E06BCEED85FE85AD
:1033300080E0CDCDE701CF84D888088119812A812A
:103340003B81802F8170880F880F880FB901A801F9
:10335000E9E07695679557954795EA95D1F73695C3
:103360002795179507958062642F402F20E00E94D3
:103370003C04C82FF70100811181228133810F5F46
:103380001F4F2F4F3F4F0083118322833383802FA2
:103390008170880F880F880FB901A80199E0769590
:1033A0006795579547959A95D1F73695279517952F
:1033B00007958062642F402F20E00E943C04F701B3
:1033C00040815181628173814F5F5F4F6F4F7F4FAB
:1033D0004083518362837383282F3C2F8FB7F894E7
:1033E000E601398328838FBFC188D288008111818B
:1033F00022813381802F8170880F880F880FB90157
:10340000A80199E076956795579547959A95D1F7D4
:1034100036952795179507958062642F402F20E0F9
:103420000E943C04C82FD7010D911D912D913C9114
:103430000F5F1F4F2F4F3F4FF701008311832283F0
:103440003383802F8170880F880F880FB901A801FE
:1034500099E076956795579547959A95D1F7369562
:103460002795179507958062642F402F20E00E94D2
:103470003C04D7014D915D916D917C914F5F5F4F01
:103480006F4F7F4FF7014083518362837383282FEF
:103490003C2F8FB7F894D60111963C932E938FBF93
:1034A000C388D4880081118122813381802F81706B
:1034B000880F880F880FB901A80199E07695679564
:1034C000579547959A95D1F736952795179507956E
:1034D0008062642F402F20E00E943C04C82FF70137
:1034E00000811181228133810F5F1F4F2F4F3F4F8A
:1034F0000083118322833383802F8170880F880F8C
:10350000880FB901A80199E0769567955795479579
:103510009A95D1F736952795179507958062642F70
:10352000402F20E00E943C04F701408151816281DC
:1035300073814F5F5F4F6F4F7F4F40835183628333
:103540007383282F3C2F8FB7F894E60139832883A3
:103550008FBF408151816281738186899789A08D57
:10356000B18D84179507A607B70708F4D4CE058454
:10357000F685E02DE701AD81BE8181E042CD0F846B
:10358000D889C02D88E568E040E020E00E943C0436
:10359000082F80E560E040E020E00E943C04202FFE
:1035A000382F8FB7F894398328838FBFD70151966E
:1035B000CD91DC91529780E568E040E020E00E94E8
:1035C0003C0420E0382F8FB7F894398328838FBFCD
:1035D000E701ED85FE85AD81BE8180E012CDEF81F2
:1035E000F8852FB7F894808191812FBFD82EC92FED
:1035F000F7014081518162817381DB01CA018770CB
:103600009070A070B0700097A105B105B1F4DB0116
:10361000CA010197A109B1099F704150487F82EC0E
:10362000692F20E00E943C0488E799E60197F1F7B2
:10363000D7014D915D916D917C91477081EC60E077
:103640002C2F0E943C04E70188819981AA81BB81CB
:103650008C019D010F5F1F4F2F4F3F4F0883198330
:103660002A833B83B901A801477050706070707065
:10367000411551056105710589F4692F6F70402F5F
:103680004150487F82EC20E00E943C0488E799E6A4
:103690000197F1F7088119812A813B81402F4770FA
:1036A00081EC60E02D2D0E943C04E7018881998126
:1036B000AA81BB810196A11DB11D88839983AA832C
:1036C000BB834E895F89688D798D84179507A6071E
:1036D000B70708F032CCE985FA852FB7F8948081D6
:1036E00091812FBFD82EC92FD7014D915D916D913A
:1036F0007C91DB01CA0187709070A070B070009758
:10370000A105B105B1F4DB01CA010197A109B10915
:103710009F704150487F82EC692F20E00E943C045A
:1037200088E799E60197F1F7F701408151816281BD
:103730007381477081EC60E02C2F0E943C04E7010C
:1037400088819981AA81BB818C019D010F5F1F4FE8
:103750002F4F3F4F088319832A833B83B901A80168
:1037600047705070607070704115510561057105AA
:1037700089F4692F6F70402F4150487F82EC20E020
:103780000E943C0488E799E60197F1F708811981C6
:103790002A813B81402F477081EC60E02D2D0E94F3
:1037A0003C04E70188819981AA81BB810196A11D12
:1037B000B11D88839983AA83BB834E895F89688DF5
:1037C000798D84179507A607B70708F0B6CBEB8568
:1037D000FC852FB7F894808191812FBFD82EC92FF7
:1037E000D7014D915D916D917C91DB01CA0187708C
:1037F0009070A070B0700097A105B105B1F4DB0125
:10380000CA010197A109B1099F704150487F82EC1C
:10381000692F20E00E943C0488E799E60197F1F7C0
:10382000F7014081518162817381477081EC60E0D2
:103830002C2F0E943C04E70188819981AA81BB81D9
:103840008C019D010F5F1F4F2F4F3F4F088319833E
:103850002A833B83B901A801477050706070707073
:10386000411551056105710589F4692F6F70402F6D
:103870004150487F82EC20E00E943C0488E799E6B2
:103880000197F1F7088119812A813B81402F477008
:1038900081EC60E02D2D0E943C04E7018881998134
:1038A000AA81BB810196A11DB11DF701888399836F
:1038B000AA83BB834E895F89688D798D84179507AC
:1038C000A607B70708F497CB38CBEF81F8852FB759
:1038D000F894808191812FBFD82EC92FD7010D91E7
:1038E0001D912D913C91D901C8018F779070A070E6
:1038F000B0700097A105B10509F5015010402040B6
:103900003040B901A801B9E076956795579547957C
:10391000BA95D1F7369527951795079500788CE4D9
:10392000642F402F20E00E943C048CEB94E301972D
:10393000F1F7F7010081118122813381802F81709D
:10394000880F880F880F36952795179507958064FF
:1039500060E0402F2C2F0E943C04D7010D911D9157
:103960002D913C91B901A8014F5F5F4F6F4F7F4F81
:10397000E701488359836A837B83DB01CA018F7720
:103980009070A070B0700097A105B105E1F4B90185
:10399000A801E9E07695679557954795EA95D1F79F
:1039A000369527951795079500788CE4642F402F5E
:1039B00020E00E943C048CEB94E30197F1F74881EE
:1039C00059816A817B81842F8170880F880F880FCD
:1039D0008A019B013695279517950795806460E0CD
:1039E000402F2D2D0E943C04E70188819981AA81F6
:1039F000BB810196A11DB11D88839983AA83BB83D6
:103A00004E895F89688D798D84179507A607B7075A
:103A100008F0A9CBE985FA852FB7F89480819181C8
:103A20002FBFD82EC92FD7010D911D912D913C91FB
:103A3000D901C8018F779070A070B0700097A10570
:103A4000B10509F50150104020403040B901A801EE
:103A5000B9E07695679557954795BA95D1F736951C
:103A600027951795079500788CE4642F402F20E068
:103A70000E943C048CEB94E30197F1F7F70100817D
:103A8000118122813381802F8170880F880F880FE8
:103A90003695279517950795806460E0402F2C2F69
:103AA0000E943C04D7010D911D912D913C91B901CB
:103AB000A8014F5F5F4F6F4F7F4FE70148835983E6
:103AC0006A837B83DB01CA018F779070A070B0702E
:103AD0000097A105B105E1F4B901A801E9E07695E7
:103AE000679557954795EA95D1F736952795179598
:103AF000079500788CE4642F402F20E00E943C045E
:103B00008CEB94E30197F1F7488159816A817B81BD
:103B1000842F8170880F880F880F8A019B0136954A
:103B2000279517950795806460E0402F2D2D0E9402
:103B30003C04E70188819981AA81BB810196A11D7E
:103B4000B11D88839983AA83BB834E895F89688D61
:103B5000798D84179507A607B70708F004CBEB8586
:103B6000FC852FB7F894808191812FBFD82EC92F63
:103B7000D7010D911D912D913C91D901C8018F77ED
:103B80009070A070B0700097A105B10509F50150C3
:103B9000104020403040B901A801D9E076956795E2
:103BA00057954795DA95D1F7369527951795079547
:103BB00000788CE4642F402F20E00E943C048CEBC2
:103BC00094E30197F1F7F70100811181228133819C
:103BD000802F8170880F880F880F3695279517954D
:103BE0000795806460E0402F2C2F0E943C04D70191
:103BF0000D911D912D913C91B901A8014F5F5F4F2F
:103C00006F4F7F4FE701488359836A837B83DB01D2
:103C1000CA018F779070A070B0700097A105B105B0
:103C2000E1F4B901A801F9E07695679557954795B4
:103C3000FA95D1F7369527951795079500788CE476
:103C4000642F402F20E00E943C048CEB94E301970A
:103C5000F1F7488159816A817B81842F8170880FB7
:103C6000880F880F8A019B01369527951795079530
:103C7000806460E0402F2D2D0E943C04E701888184
:103C80009981AA81BB810196A11DB11DF70188838D
:103C90009983AA83BB834E895F89688D798D841748
:103CA0009507A607B70708F4A6C95DCAE70105840A
:103CB000F685E02DAD81BE8181E0A3C90E943F174A
:103CC0000895CF93DF9300D000D00F92CDB7DEB729
:103CD00060917B0280917C02643051F0603141F050
:103CE0000F900F900F900F900F90DF91CF9108954C
:103CF000853029F1863009F4D9C08D3009F488C0A7
:103D00008E3009F45DC0833059F7603149F780ED9A
:103D100089831A821B821C821D821F9BF2C08091A4
:103D2000DC009091DD0084FDDBCF2091ED0080E48C
:103D30008093ED0080E090E0A0E8B6EC90C0E4E075
:103D4000F1E0A491AA0FAA0FAA0F09F4D8C09F010D
:103D500024503040A150B0E0AA0FBB1FAE5FBE4F51
:103D600040E050E0F90185919491480F591F2E5F72
:103D70003F4F2A173B07B1F7FE01319685E0DF017F
:103D80001D928A95E9F7E5E0F1E0E491EA834D833D
:103D9000643009F488C0603109F0A2CF1F999FC038
:103DA0008091DC009091DD0084FD9ACF2091ED00A0
:103DB00080E48093ED0080E090E0A0E6B6EC4FC098
:103DC0001F9B8ECF80ED898387E790E00E94AB3AFE
:103DD0008A8386E790E00E94AB3A8B8385E790E088
:103DE0000E94AB3A8C8384E790E00E94AB3A8D83CB
:103DF0008091DC009091DD0084FD72CF2091ED0078
:103E000080E48093ED0080E090E0A0E0BAE927C074
:103E10001F9966CF80ED898387E790E00E94AB3AD7
:103E20008A8386E790E00E94AB3A8B8385E790E037
:103E30000E94AB3A8C8384E790E00E94AB3A8D837A
:103E40008091DC009091DD0084FD4ACF2091ED004F
:103E500080E48093ED0080E090E0A0E0B8E98093FA
:103E6000F0009093F100A093F200B093F3008981E9
:103E70008093FA008A818093FA008B818093FA0004
:103E80008C818093FA008D818093FA0085E4809381
:103E9000EF002093ED000F900F900F900F900F9078
:103EA000DF91CF9108951F99A3CFCACF84E790E007
:103EB000609180020E94B93A85E790E060917F02AC
:103EC0000E94B93A86E790E060917E020E94B93A7A
:103ED00087E790E060917D020E94B93A01CF80911E
:103EE000DC009091DD0084FDFBCE2091ED0080E4AC
:103EF0008093ED0080E090E0A0E8B6ECB0CF40E029
:103F00003BCF8091DC009091DD0084FDE9CE2091D3
:103F1000ED0080E48093ED0080E090E0A0E6B6EC58
:103F20009ECFCB010E94611E089580910B0286FFF7
:103F300009C08F73853209F44AC0863220F4813279
:103F400009F491C00895873209F4CCC08932D1F7C1
:103F50002FB7F8943FB7F8948091B7019091B801CA
:103F600091609093B8018093B7013FBF2FBFE8EEF7
:103F7000F2E09FB7F894808581FDFAC0808582FDCC
:103F8000F7C08085846080879FBF2FB7F8948091A9
:103F9000790390917A03A0917B03B0917C032FBFAA
:103FA00088519C4FAF4FBF4FA170B07086839783ED
:103FB0009A2F917080858E7F892B80871182108245
:103FC00081E591E09383828388E090E03EC02FB743
:103FD000F8943FB7F8948091B7019091B80194603C
:103FE0009093B8018093B7013FBF2FBFE8EEF2E096
:103FF0009FB7F894808581FDC3C0808582FDC0C0D5
:104000008085846080879FBF2FB7F8948091790363
:1040100090917A03A0917B03B0917C032FBF8851CC
:104020009C4FAF4FBF4FA170B070868397839A2F7C
:10403000917080858E7F892B80871182108281E527
:1040400091E0938382838AE090E0958384838085E6
:104050008260808780858B7F80878091E7028F5F79
:104060008093E70208952FB7F8943FB7F8948091B2
:10407000B7019091B80192609093B8018093B70115
:104080003FBF2FBFE8EEF2E09FB7F894808581FD37
:104090007FC0808582FD7CC08085846080879FBFD3
:1040A0002FB7F8948091790390917A03A0917B03C4
:1040B000B0917C032FBF88519C4FAF4FBF4FA17071
:1040C000B070868397839A2F917080858E7F892B1D
:1040D00080871182108281E591E09383828389E059
:1040E00090E0B3CF2FB7F8943FB7F8948091B70121
:1040F0009091B80198609093B8018093B7013FBF49
:104100002FBFE8EEF2E09FB7F894808581FD29C0CB
:10411000808582FD26C08085846080879FBF2FB701
:10412000F8948091790390917A03A0917B03B091E8
:104130007C032FBF88519C4FAF4FBF4FA170B07011
:10414000868397839A2F917080858E7F892B8087B5
:104150001182108281E591E0938382838BE090E06D
:1041600074CF9FBF399683E0E837F80761F608956A
:104170009FBF399683E0E837F80709F0FACE089533
:104180009FBF399683E0E837F80709F031CF0895EB
:104190009FBF399683E0E837F80709F075CF089597
:1041A000CB010E94951F08951F93CF93DF93EB01DE
:1041B0000E94AB3A182FCE010E94AB3A87FD15C082
:1041C0008F77412F50E09A01220F331F440F551F64
:1041D000440F551F440F551F240F351F280F311D45
:1041E000C901DF91CF911F910895412F50E09A01AD
:1041F000220F331F440F551F440F551F440F551FE7
:10420000240F351F8F77281B3109C901DF91CF910A
:104210001F9108950F931F93CF93DF93FC01828129
:10422000809385018181809386012381822F90E094
:10423000807C9070959587959595879590819F74D2
:10424000982B90938701822F8F7090918901892BF1
:1042500080938901848180938A013581832F90E046
:104260002091BC0120783072232BDC01AF70B0703C
:10427000A25CBE4F3C91232B807C9070009709F08C
:104280008DC02093BC01808185FF73C010922801EE
:10429000A0911401B09115011A961C92A0911601DB
:1042A000B09117011A961C921A97938181E095FF9D
:1042B00080E0C0911401D0911501A0911601B09138
:1042C00017018B871B968C932FB7F89480917903F5
:1042D00090917A03A0917B03B0917C032FBF409112
:1042E000100A5091110A6091120A7091130A8C0100
:1042F0009D01041B150B260B370BB901A801413A90
:104300001FE0510710E0610710E0710708F0A7C037
:104310008093100A9093110AA093120AB093130A83
:10432000868181FD37C02FB7F894809179039091F1
:104330007A03A0917B03B0917C032FBF89352BE1D9
:10434000920720E0A20720E0B20770F080913B01C5
:10435000882351F080913C01882309F480C080912A
:104360003D01882309F47BC0DF91CF911F910F910C
:10437000089581E080932801A0911401B091150166
:104380001A968C93A0911601B09117011A968C93EE
:104390001A978BCF878186FDE7CFC5CF2068A8EE1F
:1043A000B2E09FB7F89418968C91189781FD4FC092
:1043B00018968C91189782FD4AC018968C91189780
:1043C000846018968C9318979FBF8FB7F89440918C
:1043D000790350917A0360917B0370917C038FBFC6
:1043E00048515C4F6F4F7F4F6170707016964C93C1
:1043F000169717965C931797962F917018968C9135
:1044000018978E7F892B18968C93189711961C926B
:104410001E9282E791E013969C938E9312971596C5
:104420001C921E92149718968C9118978260189679
:104430008C93189718968C9118978B7F18968C935D
:1044400018978091E7028F5F8093E7021ACF9FBF92
:10445000199633E0A837B30709F0A3CF12CF0E9413
:104460004B101F990895CB010E940A2108951F9BAC
:104470000895CB010E940A2108950F931F93CF93B3
:10448000DF930091B3011091B401812F912F17FF99
:1044900003C021E02093960196FD25C095FD23C021
:1044A000E0911401F0911501808191819093C001F8
:1044B0008093BF01E0911601F091170180819181F5
:1044C0009093BE018093BD0180913B01882309F444
:1044D00024C1FEE00E3F1F0709F47FC0DF91CF919A
:1044E0001F910F91089590913B01992339F01092FB
:1044F0003B0190916E009D7F90936E0086FF3EC0C1
:1045000065E071E0FB01949131962491592F40E0D0
:1045100030E0242B352B3093C4012093C301FB01E1
:1045200032969491FB0133962491592F40E030E06C
:10453000242B352B3093C2012093C101FB0134960B
:104540009491FB0135962491592F40E030E0242BC3
:10455000352B3093C0012093BF01FB013696949117
:10456000695F7F4FFB016491592F40E0262F30E0B7
:10457000242B352B3093BE012093BD0185FFA9CF9D
:10458000E801D070CC0FDD1FCC0FDD1FCC0FDD1F7D
:10459000CE010E94B33A9093C3018093C401CE012F
:1045A00002960E94B33A9093C101E1ECF1E081835D
:1045B000CE0104960E94B33A9093BF018093C0014C
:1045C000CE0106960E94B33A9093BD018093BE013E
:1045D000FEE00E3F1F0709F081CF80913B01882349
:1045E00009F0AAC08AE190E00E947C39DC0123989E
:1045F0002B9A229A219A209A8CB580658CBD8CB515
:104600009DB58C7F9E7F81609DBD8CBD14961C9254
:10461000149743E052E020E63AEE7CEA63E5249A00
:104620002C98852F8A95F1F72C9A852F8A95F1F78A
:104630002C98C9010197F1F77EBD0DB407FEFDCF9F
:104640006EBD0DB407FEFDCF1EBC0DB407FEFDCF41
:104650008EB51EBC0DB407FEFDCF833509F474C0C2
:104660004150E9F614964C91149783EB91E016961D
:104670009C938E9315979C012250304018963C9342
:104680002E9317979C01245030401A963C932E93FA
:1046900019979C01265030401C963C932E931B97F3
:1046A0009C01205F3F4F1E963C932E931D979C01CB
:1046B000225F3F4F50963C932E931F979C01245F9F
:1046C0003F4F52963C932E9351970A9654969C9343
:1046D0008E935397442309F070C020E2822F90916B
:1046E000B4012FB7F8949093C4018093C3012FBFF6
:1046F000E6E9F1E0E491F0E0EE0FFF1FEE0FFF1F9F
:10470000E156FE4FB0A7A7A38EE59EE192A781A731
:10471000DF91CF911F910F91089581E080933B012C
:1047200016BCA99A80916E00826080936E00009101
:10473000B3011091B401CDCE10923B0180916E0077
:104740008D7F80936E004ECF81E014968C931497EA
:1047500083EB91E016969C938E9315979C012250C3
:10476000304018963C932E9317979C01245030406C
:104770001A963C932E9319979C01265030401C9614
:104780003C932E931B979C01205F3F4F1E963C93BA
:104790002E931D979C01225F3F4F50963C932E9382
:1047A0001F979C01245F3F4F52963C932E93519745
:1047B0000A9654969C938E93539720E08FCF0E9435
:1047C0003D220895CF93DF93CDB7DEB765970FB63F
:1047D000F894DEBF0FBECDBF80E091E0FC012591D3
:1047E00034912115310509F4C6C1FC01659174911C
:1047F00062957295707F7627607F762761157105C7
:1048000091F040E050E020E030E0F9018591949192
:10481000480F591F2E5F3F4F26173707B0F341153A
:10482000510509F0A6C1000086E991E0FC01249140
:10483000E22FF0E0EE0FFF1FEE0FFF1FE156FE4FDD
:1048400010A617A22FED33E232A721A7FC0134975F
:10485000E491F0E0EE0FFF1FEE0FFF1FE156FE4F59
:1048600010A617A222E831E032A721A7FC01359754
:10487000E491F0E0EE0FFF1FEE0FFF1FE156FE4F39
:1048800010A617A221EF36E032A721A70797FC0157
:104890008491E82FF0E0EE0FFF1FEE0FFF1FE156AF
:1048A000FE4F84E791E090A787A38AEE99E292A752
:1048B00081A78E010B5F1F4F1F9B25C21092A8027C
:1048C0001092A70281E99FE19093AA028093A90226
:1048D0001092B4021092B30281E392E29093B60276
:1048E0008093B5021092B8021092B70287E392E269
:1048F0009093BA028093B9021092AC021092AB026C
:104900008EE790E19093AE028093AD021092B002D8
:104910001092AF0289E590E19093B2028093B102C8
:104920001092BC021092BB0281E991E09093BE020A
:104930008093BD021092E4021092E30280ED90E2B7
:104940009093E6028093E50280E091E09093C002AC
:104950008093BF028AEA91E09093C2028093C102E1
:104960001092C4021092C30286E49FE09093C602A4
:104970008093C5021092D4021092D30280E69DE08B
:104980009093D6028093D5021092C8021092C7026B
:104990008BED9BE09093CA028093C9021092D802DB
:1049A0001092D70283E69CE09093DA028093D902BA
:1049B0001092CC021092CB0281E69AE09093CE0244
:1049C0008093CD021092DC021092DB0283E59EE020
:1049D0009093DE028093DD021092D0021092CF02FB
:1049E00088ED9CE09093D2028093D1021092E00275
:1049F0001092DF0286E69BE09093E2028093E10250
:104A000080913B01882309F4FDC0789424E031E0D3
:104A1000F9016491660F660F660F09F4B5C1245061
:104A20003040615070E0660F771F6E5F7E4F40E050
:104A300050E0F90185919491480F591F2E5F3F4F27
:104A400026173707B1F785E0D8011D928A95E9F757
:104A5000E5E0F1E0E491EE8349871F9B95C08091EA
:104A6000DC009091DD0084FD25C02091ED0080E404
:104A70008093ED0080E090E0A0E0BAE98093F00040
:104A80009093F100A093F200B093F3008D81809396
:104A9000FA008E818093FA008F818093FA008885D6
:104AA0008093FA0089858093FA0085E48093EF0073
:104AB0002093ED0080E395E70197F1F78091DC000A
:104AC0009091DD0084FD25C02091ED0080E480936D
:104AD000ED0080E090E0A0E8B6EC8093F0009093C9
:104AE000F100A093F200B093F3008D818093FA005F
:104AF0008E818093FA008F818093FA00888580935D
:104B0000FA0089858093FA0085E48093EF00209372
:104B1000ED00198A188A8DE293E0682F9B8B8A8BAF
:104B20001D8A1C8A40E059897B8980E09D8928E59F
:104B30003BE10E94810483B121E030E085FD02C0A9
:104B400020E030E08091140A90E0822B932B809338
:104B5000140A009709F461C083B185FD5EC080E648
:104B600091E061E00E94B93A81E691E061E00E9443
:104B7000B93A0E944B10FC013296259134912115CF
:104B8000310509F450CE31CE8091DC009091DD00EA
:104B900084FD25C02091ED0080E48093ED0080E04D
:104BA00090E0A0E0B8E98093F0009093F100A0932A
:104BB000F200B093F3008D818093FA008E81809390
:104BC000FA008F818093FA0088858093FA008985A6
:104BD0008093FA0085E48093EF002093ED0080E35A
:104BE00095E70197F1F78091DC009091DD0084FD5D
:104BF00090CF2091ED0080E48093ED0080E090E084
:104C0000A0E66ACF81E080933B0116BCA99A80910F
:104C10006E00826080936E00F8CE3FB7F89490915A
:104C20000D0A80910E0A981709F466C080910D0A4A
:104C300090E0DC01AA0FBB1FA80FB91FAA0FBB1F72
:104C4000A35FBB4F8D919C9111971296ED91FC91B2
:104C5000139714966C91149715967C911597209143
:104C60000D0A2F5F20930D0A3FBF309709F0099579
:104C7000A89508EE12E006C0075F1F4FF3E0083763
:104C80001F07C1F1F801808581FFF6CF2FB7F89497
:104C90008091790390917A03A0917B03B0917C037A
:104CA0002FBF89839A83AB83BC83D8019085917091
:104CB0008B818170981701F72681378189819A81CC
:104CC00082179307C8F2648175810280F381E02D19
:104CD0008D919C910995F80180858D7F80878091C9
:104CE000E70281508093E702075F1F4FF3E0083728
:104CF0001F0741F6A8951FCF60E070E0EFE4F1E0F8
:104D000080E090E0B1CF402F1B870A8786E099E0D2
:104D1000682F9D878C871F861E865B857D8580E03A
:104D20009F8524EF31E00E94810410939402009348
:104D3000930289EA93E090939602809395021093F0
:104D400098020093970290939A028093990210938D
:104D50009C0200939B0290939E0280939D0210936D
:104D6000A00200939F0288E098E09093A2028093B3
:104D7000A1021093A4020093A3028CE398E0909305
:104D8000A6028093A5029ACD40E050E05CCEAC0133
:104D9000FC01E854FF4F845F9E4F2FE431E0118205
:104DA0001082338322833496E817F907C1F7809184
:104DB000D80081608093D800E2EEF0E08091E200BC
:104DC00081788A608093E2008091E3008E60818325
:104DD0008091E40081788B6482838091ED008F70F4
:104DE0008093ED0088E08093EF0085E090E0A0EEF6
:104DF000BFEF8093F4009093F500A093F600B0937A
:104E0000F7008091ED008F7080618093ED0088E065
:104E10008093EF0085E08093F4009093F500A093D9
:104E2000F600B093F7008091ED008F708062809360
:104E3000ED0087E08093EF0080E0B3E68093F00020
:104E40009093F100A093F200B093F30085E0BFEFE0
:104E50008093F4009093F500A093F600B093F700D0
:104E60008091ED008F7080638093ED0088E08093E7
:104E7000EF0080E0A0ECB3E68093F0009093F100A7
:104E8000A093F200B093F30085E0A0EEBFEF809313
:104E9000F4009093F500A093F600B093F700809192
:104EA000ED008F7080648093ED0088E08093EF00C8
:104EB00085E08093F4009093F500A093F600B09302
:104EC000F7008091ED008F7080658093ED0088EC95
:104ED0008093EF0080E0A0E0B9E08093F000909331
:104EE000F100A093F200B093F30085E0A0EEBFEFD5
:104EF0008093F4009093F500A093F600B093F70030
:104F00008091ED008F7080668093ED0088E880933B
:104F1000EF0080E0A0E0BAE08093F0009093F10011
:104F2000A093F200B093F30085E0A0EABFEF809376
:104F3000F4009093F500A093F600B093F7008091F1
:104F4000ED008F7080678093ED0088E88093EF001C
:104F500080E0A0E0BBE08093F0009093F100A0938C
:104F6000F200B093F30085E0A0EABFEF8093F40075
:104F70009093F500A093F600B093F7008091ED00B8
:104F80008F7080688093ED0088E88093EF0080E068
:104F9000A0E0BEE08093F0009093F100A093F200B7
:104FA000B093F30085E0A0EEBDEF8093F400909302
:104FB000F500A093F600B093F7008091ED008F709C
:104FC00080698093ED0088E88093EF0080E0A0E0A6
:104FD000B0E18093F0009093F100A093F200B093C1
:104FE000F30085E0A0E6BFEF8093F4009093F50016
:104FF000A093F600B093F7008091ED008F70806A67
:105000008093ED0088E88093EF0080E0A0E2B0E1BB
:105010008093F0009093F100A093F200B093F3001E
:1050200085E0A0E6BFEF8093F4009093F500A09395
:10503000F600B093F7008091ED008F70806B809345
:10504000ED0088EC8093EF0080E0A0EEB8E1809363
:10505000F0009093F100A093F200B093F30085E08C
:10506000BFEF8093F4009093F500A093F600B09307
:10507000F7008091ED008F70806C8093ED0088ECDC
:105080008093EF0080E0A0E2B2E48093F000909380
:10509000F100A093F200B093F30085E0A0EEBFEF23
:1050A0008093F4009093F500A093F600B093F7007E
:1050B0008091ED008F70806D8093ED0088E8809383
:1050C000EF0080E0A0E4BAE48093F0009093F10058
:1050D000A093F200B093F30085E0A0E8B7ED8093D1
:1050E000F4009093F500A093F600B093F700809140
:1050F000ED008F70806E8093ED0088E88093EF0064
:1051000080E0A0E0BDE88093F0009093F100A093D0
:10511000F200B093F30085E0A0EEB8EF8093F400C6
:105120009093F500A093F600B093F70080EE9FE710
:105130009093DF008093DE008091DB00806A809393
:10514000DB005093C6034093C50383EE94E0909335
:10515000C8038093C7038091D80082608093D800F1
:105160008091D90082FFFCCF08952F923F924F92F9
:105170005F926F927F928F929F92AF92BF92CF92E7
:10518000DF92EF92FF920F931F93CF93DF93CDB7F0
:10519000DEB72B970FB6F894DEBF0FBECDBFFB0175
:1051A000C080D180E280F380C701B6012CE030E0FE
:1051B00040E050E00E94F5386D837E838F839887AE
:1051C0008EE090E00E941807880F991F880F991FA2
:1051D00001972C0166247724160181E090E09B87DB
:1051E0008A8730C0682D592D4A2D7B2D862E952E0D
:1051F000A42EB72E281739070CF469C04B815C81A7
:105200004B835C83281739070CF468C099818A8125
:1052100099838A834A855B854034510508F468C0C8
:1052200084E090E02A853B85289FF001299FF00DBE
:10523000389FF00D1124FB87EA8734E0E130F30753
:1052400008F061C02A853B856901EE24FF246D8149
:105250007E818F819885A70196010E943B39890143
:105260009A0101501040204030404016510662061D
:10527000730610F493018201B8016F5F7F4F80E0E5
:1052800090E0A70196010E94F5382CE030E040E064
:1052900050E00E943B3969017A01C40182199309E7
:1052A00097FD2DC096012219330937FD24C0281718
:1052B00039070CF097CF6C2D5D2D4E2D7F2D862E4E
:1052C000952EA42EB72E281739070CF097CFA801DA
:1052D0004B835C83281739070CF098CF9A858B8510
:1052E00099838A834A855B854034510508F098CFBD
:1052F00088E090E097CF309521953F4FD8CF90959B
:1053000081959F4FCFCF4B815C8150938900409313
:10531000880089819A818034910509F458C08134CC
:10532000910508F442C0E981FA8121E0E030F207FA
:1053300009F447C034E0E030F30709F43FC0998531
:10534000977080918100887F892B80938100809164
:105350008000909181008C7F977E9860909381006F
:10536000809380008F738093800080916F008260B3
:1053700080936F00B401C5012B960FB6F894DEBF81
:105380000FBECDBFDF91CF911F910F91FF90EF9096
:10539000DF90CF90BF90AF909F908F907F906F9055
:1053A0005F904F903F902F9008958130910561F06C
:1053B0008830910521F642E04987C1CF95E0998771
:1053C000BECF84E08987BBCFE1E0E987B8CF53E067
:1053D0005987B5CFAF92BF92CF92DF92EF92FF92F3
:1053E0000F931F93CF93DF9300D000D0CDB7DEB7DC
:1053F0005C011091A6018091A80181FF43C0112397
:1054000009F440C08EE190E0909301018093000187
:1054100080916F00826080936F00F5018181181781
:10542000E1F11183E0911401F09115016081718126
:1054300080E090E028EF36E041E050E00E94F5384F
:1054400028EE33E040E050E00E943B3969017A01E8
:10545000212F30E040E050E0C701B6010E943B3907
:1054600089019A0109831A832B833C83073911052B
:105470002105310590F0C501BE016F5F7F4F0E948D
:10548000B5280BC086E090E0909301018093000165
:1054900080916F008D7F80936F0081E0F5018283A2
:1054A0000F900F900F900F90DF91CF911F910F9160
:1054B000FF90EF90DF90CF90BF90AF9008954F9204
:1054C0005F926F927F928F929F92BF92CF92DF9264
:1054D000EF92FF920F931F93CF93DF93CDB7DEB779
:1054E00066970FB6F894DEBF0FBECDBF8130910531
:1054F00021F1009761F480911401909115010E94AF
:10550000123A80911601909117010E94123A669604
:105510000FB6F894DEBF0FBECDBFDF91CF911F91C4
:105520000F91FF90EF90DF90CF90BF909F908F9062
:105530007F906F905F904F900895EDE0F4E02FE43E
:1055400031E0118210828FE491E03383228336961A
:105550004AE0ED30F407A9F710920D0A10920E0AF6
:1055600010920A041092090400E511E010930C0453
:1055700000930B0410920604109205041093080483
:105580000093070410920204109201041093040483
:10559000009303041092FE031092FD031093000485
:1055A0000093FF031092FA031092F9031093FC0387
:1055B0000093FB031092F6031092F5031093F80387
:1055C0000093F7031092F2031092F1031093F40387
:1055D0000093F3031092EE031092ED031093F00387
:1055E0000093EF031092EA031092E9031093EC0387
:1055F0000093EB031092E6031092E5031093E80387
:105600000093E7031092E2031092E1031093E40386
:105610000093E3031092DE031092DD031093E00386
:105620000093DF031092DA031092D9031093DC0386
:105630000093DB031092D6031092D5031093D80386
:105640000093D7031092D2031092D1031093D40386
:105650000093D3031092CE031092CD031093D00386
:105660000093CF031092CA031092C9031093CC0386
:105670000093CB031092C6031092C5031093C80386
:105680000093C7031092C2031092C1031093C40386
:105690000093C3031092BE031092BD031093C00386
:1056A0000093BF031092BA031092B9031093BC0386
:1056B0000093BB031092B6031092B5031093B80386
:1056C0000093B7031092B2031092B1031093B40386
:1056D0000093B3031092AE031092AD031093B00386
:1056E0000093AF031092AA031092A9031093AC0386
:1056F0000093AB031092A6031092A5031093A80386
:105700000093A7031092A2031092A1031093A40385
:105710000093A30310929A031092990310939C0391
:1057200000939B0310929603109295031093980395
:105730000093970310929203109291031093940395
:105740000093930310928E0310928D031093900395
:1057500000938F0310928A031092890310938C0395
:1057600000938B0310928603109285031093880395
:105770000093870310928203109281031093840395
:105780000093830310927E0310927D031093800395
:1057900000937F03109209002FED3EE230939900B1
:1057A0002093980020919100287F21602093910000
:1057B00020919000309191002C7F377E386030939B
:1057C0009100209390002F732093900028E733E0FE
:1057D00030939E0320939D0320E333E03093A00396
:1057E00020939F031092790310927A0310927B0307
:1057F00010927C031092950010929400C19A20910F
:1058000071002260209371001092E9021092E80268
:105810009093EB028093EA021092F2021092F1024E
:105820009093F4028093F3021092FB021092FA021A
:105830009093FD028093FC021092040310920303E4
:10584000909306038093050310920D0310920C03AE
:1058500090930F0380930E0310921603109215037A
:10586000909318038093170310921F0310921E0346
:105870009093210380932003109228031092270312
:1058800090932A03809329031092310310923003DE
:10589000909333038093320310923A0310923903AA
:1058A00090933C0380933B03109243031092420376
:1058B000909345038093440310924C0310924B0342
:1058C00090934E0380934D0310925503109254030E
:1058D000909357038093560310925E0310925D03DA
:1058E0009093600380935F031092670310926603A6
:1058F00090936903809368031092700310926F0372
:1059000090937203809371038BED91E00E94C72600
:1059100010929F0110929E011093A1010093A0018B
:105920001092A4011092A3011092A6011092A50159
:105930001092A8011092A7011092AA011092A90139
:105940001092AC011092AB011092AE011092AD0119
:105950001092B0011092AF011092B2011092B101F9
:105960001092B4011092B3011092B6011092B501D9
:105970001092B8011092B7011092BA011092B901B9
:105980001092BC011092BB011092BE011092BD0199
:105990001092C0011092BF011092C2011092C10179
:1059A0001092C4011092C30156ECE52E51E0F52E81
:1059B000D70111961C921E9213961C930E93129768
:1059C000E4E0F0E0EE0EFF1EFAEDEF16F1E0FF0668
:1059D00079F710929C0110929B0110929D01539AAD
:1059E0005B9A52985A9A549A27982F9A04E911E090
:1059F00010938E0300938D0384E091E390939003C2
:105A000080938F0310938603009385038EE494E0C4
:105A1000909388038093870310938A0300938903EC
:105A20008FE393E090938C0380938B03E8ECF0E09A
:105A30008091C80082608093C8008CE08093CC0085
:105A40008091CD00807F8093CD009091C90080919E
:105A5000CA008660877882839C6C9183BB24B39450
:105A6000D8011296BC9212978091C80081608093F1
:105A7000C8005C9A8091C9008061818316961C924F
:105A80008FEF8093B3008091B00080788260809324
:105A9000B000809170008C7F8093700088E7C82EE2
:105AA00081E0D82EC7018197909379018093780186
:105AB00010927B0110927C0110927D0110927E0168
:105AC000B0927F018091B901809380011092810191
:105AD000C701809790938301809382011092840183
:105AE00010927A014C2DDE82CD828EE998E0682FEB
:105AF00098878F831A8619865E81788580E09A85DB
:105B000020ED37E00E94810482E090E06CE070E0DC
:105B10000E94D4203C0182E090E06DE070E00E94A1
:105B2000D4202C0140E0842E41E0942E86E090E0C9
:105B300090930101809300011092020110920301E1
